{
	"brownie_projects/bebu_finance/contracts/Boardroom/Boardroom.sol": {
		"Boardroom": {
			"abi": [
				{
					"anonymous": false,
					"inputs": [
						{
							"indexed": true,
							"internalType": "address",
							"name": "from",
							"type": "address"
						},
						{
							"indexed": true,
							"internalType": "address",
							"name": "to",
							"type": "address"
						},
						{
							"indexed": false,
							"internalType": "uint256",
							"name": "reward",
							"type": "uint256"
						}
					],
					"name": "BlacklistRewardPaid",
					"type": "event"
				},
				{
					"anonymous": false,
					"inputs": [
						{
							"indexed": true,
							"internalType": "address",
							"name": "from",
							"type": "address"
						},
						{
							"indexed": true,
							"internalType": "address",
							"name": "to",
							"type": "address"
						},
						{
							"indexed": false,
							"internalType": "uint256",
							"name": "amount",
							"type": "uint256"
						}
					],
					"name": "BlacklistWithdrawn",
					"type": "event"
				},
				{
					"anonymous": false,
					"inputs": [
						{
							"indexed": true,
							"internalType": "address",
							"name": "executor",
							"type": "address"
						},
						{
							"indexed": false,
							"internalType": "uint256",
							"name": "at",
							"type": "uint256"
						}
					],
					"name": "Initialized",
					"type": "event"
				},
				{
					"anonymous": false,
					"inputs": [
						{
							"indexed": true,
							"internalType": "address",
							"name": "user",
							"type": "address"
						},
						{
							"indexed": false,
							"internalType": "uint256",
							"name": "reward",
							"type": "uint256"
						}
					],
					"name": "RewardAdded",
					"type": "event"
				},
				{
					"anonymous": false,
					"inputs": [
						{
							"indexed": true,
							"internalType": "address",
							"name": "user",
							"type": "address"
						},
						{
							"indexed": false,
							"internalType": "uint256",
							"name": "reward",
							"type": "uint256"
						}
					],
					"name": "RewardPaid",
					"type": "event"
				},
				{
					"anonymous": false,
					"inputs": [
						{
							"indexed": true,
							"internalType": "address",
							"name": "user",
							"type": "address"
						},
						{
							"indexed": false,
							"internalType": "uint256",
							"name": "amount",
							"type": "uint256"
						}
					],
					"name": "Staked",
					"type": "event"
				},
				{
					"anonymous": false,
					"inputs": [
						{
							"indexed": true,
							"internalType": "address",
							"name": "user",
							"type": "address"
						},
						{
							"indexed": false,
							"internalType": "uint256",
							"name": "amount",
							"type": "uint256"
						}
					],
					"name": "Withdrawn",
					"type": "event"
				},
				{
					"inputs": [
						{
							"internalType": "address",
							"name": "_address",
							"type": "address"
						}
					],
					"name": "addAddressBlacklist",
					"outputs": [
						{
							"internalType": "bool",
							"name": "",
							"type": "bool"
						}
					],
					"stateMutability": "nonpayable",
					"type": "function"
				},
				{
					"inputs": [
						{
							"internalType": "uint256",
							"name": "amount",
							"type": "uint256"
						}
					],
					"name": "allocateSeigniorage",
					"outputs": [],
					"stateMutability": "nonpayable",
					"type": "function"
				},
				{
					"inputs": [
						{
							"internalType": "address",
							"name": "account",
							"type": "address"
						}
					],
					"name": "balanceOf",
					"outputs": [
						{
							"internalType": "uint256",
							"name": "",
							"type": "uint256"
						}
					],
					"stateMutability": "view",
					"type": "function"
				},
				{
					"inputs": [
						{
							"internalType": "address",
							"name": "",
							"type": "address"
						}
					],
					"name": "blacklist",
					"outputs": [
						{
							"internalType": "bool",
							"name": "",
							"type": "bool"
						}
					],
					"stateMutability": "view",
					"type": "function"
				},
				{
					"inputs": [
						{
							"internalType": "address",
							"name": "_address",
							"type": "address"
						},
						{
							"internalType": "address",
							"name": "_to",
							"type": "address"
						}
					],
					"name": "blacklistFundWithdraw",
					"outputs": [],
					"stateMutability": "nonpayable",
					"type": "function"
				},
				{
					"inputs": [
						{
							"internalType": "uint256",
							"name": "",
							"type": "uint256"
						}
					],
					"name": "boardroomHistory",
					"outputs": [
						{
							"internalType": "uint256",
							"name": "time",
							"type": "uint256"
						},
						{
							"internalType": "uint256",
							"name": "rewardReceived",
							"type": "uint256"
						},
						{
							"internalType": "uint256",
							"name": "rewardPerShare",
							"type": "uint256"
						}
					],
					"stateMutability": "view",
					"type": "function"
				},
				{
					"inputs": [
						{
							"internalType": "address",
							"name": "member",
							"type": "address"
						}
					],
					"name": "canClaimReward",
					"outputs": [
						{
							"internalType": "bool",
							"name": "",
							"type": "bool"
						}
					],
					"stateMutability": "view",
					"type": "function"
				},
				{
					"inputs": [
						{
							"internalType": "address",
							"name": "member",
							"type": "address"
						}
					],
					"name": "canWithdraw",
					"outputs": [
						{
							"internalType": "bool",
							"name": "",
							"type": "bool"
						}
					],
					"stateMutability": "view",
					"type": "function"
				},
				{
					"inputs": [],
					"name": "claimReward",
					"outputs": [],
					"stateMutability": "nonpayable",
					"type": "function"
				},
				{
					"inputs": [
						{
							"internalType": "address",
							"name": "member",
							"type": "address"
						}
					],
					"name": "earned",
					"outputs": [
						{
							"internalType": "uint256",
							"name": "",
							"type": "uint256"
						}
					],
					"stateMutability": "view",
					"type": "function"
				},
				{
					"inputs": [],
					"name": "epoch",
					"outputs": [
						{
							"internalType": "uint256",
							"name": "",
							"type": "uint256"
						}
					],
					"stateMutability": "view",
					"type": "function"
				},
				{
					"inputs": [],
					"name": "exit",
					"outputs": [],
					"stateMutability": "nonpayable",
					"type": "function"
				},
				{
					"inputs": [],
					"name": "fee",
					"outputs": [
						{
							"internalType": "uint256",
							"name": "",
							"type": "uint256"
						}
					],
					"stateMutability": "view",
					"type": "function"
				},
				{
					"inputs": [],
					"name": "feeTo",
					"outputs": [
						{
							"internalType": "address",
							"name": "",
							"type": "address"
						}
					],
					"stateMutability": "view",
					"type": "function"
				},
				{
					"inputs": [
						{
							"internalType": "address",
							"name": "member",
							"type": "address"
						}
					],
					"name": "getLastSnapshotIndexOf",
					"outputs": [
						{
							"internalType": "uint256",
							"name": "",
							"type": "uint256"
						}
					],
					"stateMutability": "view",
					"type": "function"
				},
				{
					"inputs": [],
					"name": "getTokenPrice",
					"outputs": [
						{
							"internalType": "uint256",
							"name": "",
							"type": "uint256"
						}
					],
					"stateMutability": "view",
					"type": "function"
				},
				{
					"inputs": [
						{
							"internalType": "contract IERC20",
							"name": "_token",
							"type": "address"
						},
						{
							"internalType": "uint256",
							"name": "_amount",
							"type": "uint256"
						},
						{
							"internalType": "address",
							"name": "_to",
							"type": "address"
						}
					],
					"name": "governanceRecoverUnsupported",
					"outputs": [],
					"stateMutability": "nonpayable",
					"type": "function"
				},
				{
					"inputs": [
						{
							"internalType": "contract IERC20",
							"name": "_token",
							"type": "address"
						},
						{
							"internalType": "contract IERC20",
							"name": "_share",
							"type": "address"
						},
						{
							"internalType": "contract ITreasury",
							"name": "_treasury",
							"type": "address"
						},
						{
							"internalType": "uint256",
							"name": "_fee",
							"type": "uint256"
						},
						{
							"internalType": "address",
							"name": "_feeTo",
							"type": "address"
						}
					],
					"name": "initialize",
					"outputs": [],
					"stateMutability": "nonpayable",
					"type": "function"
				},
				{
					"inputs": [],
					"name": "initialized",
					"outputs": [
						{
							"internalType": "bool",
							"name": "",
							"type": "bool"
						}
					],
					"stateMutability": "view",
					"type": "function"
				},
				{
					"inputs": [
						{
							"internalType": "address",
							"name": "_address",
							"type": "address"
						}
					],
					"name": "isAddressBlacklist",
					"outputs": [
						{
							"internalType": "bool",
							"name": "",
							"type": "bool"
						}
					],
					"stateMutability": "view",
					"type": "function"
				},
				{
					"inputs": [],
					"name": "latestSnapshotIndex",
					"outputs": [
						{
							"internalType": "uint256",
							"name": "",
							"type": "uint256"
						}
					],
					"stateMutability": "view",
					"type": "function"
				},
				{
					"inputs": [
						{
							"internalType": "address",
							"name": "",
							"type": "address"
						}
					],
					"name": "members",
					"outputs": [
						{
							"internalType": "uint256",
							"name": "lastSnapshotIndex",
							"type": "uint256"
						},
						{
							"internalType": "uint256",
							"name": "rewardEarned",
							"type": "uint256"
						},
						{
							"internalType": "uint256",
							"name": "epochTimerStart",
							"type": "uint256"
						}
					],
					"stateMutability": "view",
					"type": "function"
				},
				{
					"inputs": [],
					"name": "nextEpochPoint",
					"outputs": [
						{
							"internalType": "uint256",
							"name": "",
							"type": "uint256"
						}
					],
					"stateMutability": "view",
					"type": "function"
				},
				{
					"inputs": [],
					"name": "operator",
					"outputs": [
						{
							"internalType": "address",
							"name": "",
							"type": "address"
						}
					],
					"stateMutability": "view",
					"type": "function"
				},
				{
					"inputs": [
						{
							"internalType": "address",
							"name": "_address",
							"type": "address"
						}
					],
					"name": "removeAddressBlacklist",
					"outputs": [
						{
							"internalType": "bool",
							"name": "",
							"type": "bool"
						}
					],
					"stateMutability": "nonpayable",
					"type": "function"
				},
				{
					"inputs": [],
					"name": "rewardLockupEpochs",
					"outputs": [
						{
							"internalType": "uint256",
							"name": "",
							"type": "uint256"
						}
					],
					"stateMutability": "view",
					"type": "function"
				},
				{
					"inputs": [],
					"name": "rewardPerShare",
					"outputs": [
						{
							"internalType": "uint256",
							"name": "",
							"type": "uint256"
						}
					],
					"stateMutability": "view",
					"type": "function"
				},
				{
					"inputs": [
						{
							"internalType": "uint256",
							"name": "_fee",
							"type": "uint256"
						}
					],
					"name": "setFee",
					"outputs": [],
					"stateMutability": "nonpayable",
					"type": "function"
				},
				{
					"inputs": [
						{
							"internalType": "address",
							"name": "_feeTo",
							"type": "address"
						}
					],
					"name": "setFeeTo",
					"outputs": [],
					"stateMutability": "nonpayable",
					"type": "function"
				},
				{
					"inputs": [
						{
							"internalType": "uint256",
							"name": "_withdrawLockupEpochs",
							"type": "uint256"
						},
						{
							"internalType": "uint256",
							"name": "_rewardLockupEpochs",
							"type": "uint256"
						}
					],
					"name": "setLockUp",
					"outputs": [],
					"stateMutability": "nonpayable",
					"type": "function"
				},
				{
					"inputs": [
						{
							"internalType": "address",
							"name": "_operator",
							"type": "address"
						}
					],
					"name": "setOperator",
					"outputs": [],
					"stateMutability": "nonpayable",
					"type": "function"
				},
				{
					"inputs": [],
					"name": "share",
					"outputs": [
						{
							"internalType": "contract IERC20",
							"name": "",
							"type": "address"
						}
					],
					"stateMutability": "view",
					"type": "function"
				},
				{
					"inputs": [
						{
							"internalType": "uint256",
							"name": "amount",
							"type": "uint256"
						}
					],
					"name": "stake",
					"outputs": [],
					"stateMutability": "nonpayable",
					"type": "function"
				},
				{
					"inputs": [],
					"name": "token",
					"outputs": [
						{
							"internalType": "contract IERC20",
							"name": "",
							"type": "address"
						}
					],
					"stateMutability": "view",
					"type": "function"
				},
				{
					"inputs": [],
					"name": "totalSupply",
					"outputs": [
						{
							"internalType": "uint256",
							"name": "",
							"type": "uint256"
						}
					],
					"stateMutability": "view",
					"type": "function"
				},
				{
					"inputs": [],
					"name": "treasury",
					"outputs": [
						{
							"internalType": "contract ITreasury",
							"name": "",
							"type": "address"
						}
					],
					"stateMutability": "view",
					"type": "function"
				},
				{
					"inputs": [
						{
							"internalType": "uint256",
							"name": "amount",
							"type": "uint256"
						}
					],
					"name": "withdraw",
					"outputs": [],
					"stateMutability": "nonpayable",
					"type": "function"
				},
				{
					"inputs": [],
					"name": "withdrawLockupEpochs",
					"outputs": [
						{
							"internalType": "uint256",
							"name": "",
							"type": "uint256"
						}
					],
					"stateMutability": "view",
					"type": "function"
				}
			],
			"devdoc": {
				"kind": "dev",
				"methods": {},
				"version": 1
			},
			"evm": {
				"assembly": "    /* \"brownie_projects/bebu_finance/contracts/Boardroom/Boardroom.sol\":633:10399  contract Boardroom is ShareWrapper, ContractGuard {... */\n  mstore(0x40, 0x80)\n    /* \"brownie_projects/bebu_finance/contracts/Boardroom/Boardroom.sol\":1197:1228  bool public initialized = false */\n  0x04\n  dup1\n  sload\n  not(shl(0xa0, 0xff))\n  and\n  swap1\n  sstore\n    /* \"brownie_projects/bebu_finance/contracts/Boardroom/Boardroom.sol\":633:10399  contract Boardroom is ShareWrapper, ContractGuard {... */\n  callvalue\n  dup1\n  iszero\n  tag_1\n  jumpi\n  0x00\n  dup1\n  revert\ntag_1:\n  pop\n  dataSize(sub_0)\n  dup1\n  dataOffset(sub_0)\n  0x00\n  codecopy\n  0x00\n  return\nstop\n\nsub_0: assembly {\n        /* \"brownie_projects/bebu_finance/contracts/Boardroom/Boardroom.sol\":633:10399  contract Boardroom is ShareWrapper, ContractGuard {... */\n      mstore(0x40, 0x80)\n      callvalue\n      dup1\n      iszero\n      tag_1\n      jumpi\n      0x00\n      dup1\n      revert\n    tag_1:\n      pop\n      jumpi(tag_2, lt(calldatasize, 0x04))\n      shr(0xe0, calldataload(0x00))\n      dup1\n      0x61d027b3\n      gt\n      tag_41\n      jumpi\n      dup1\n      0xb3ab15fb\n      gt\n      tag_42\n      jumpi\n      dup1\n      0xddca3f43\n      gt\n      tag_43\n      jumpi\n      dup1\n      0xddca3f43\n      eq\n      tag_36\n      jumpi\n      dup1\n      0xe9fad8ee\n      eq\n      tag_37\n      jumpi\n      dup1\n      0xf46901ed\n      eq\n      tag_38\n      jumpi\n      dup1\n      0xf9f92be4\n      eq\n      tag_39\n      jumpi\n      dup1\n      0xfc0c546a\n      eq\n      tag_40\n      jumpi\n      0x00\n      dup1\n      revert\n    tag_43:\n      dup1\n      0xb3ab15fb\n      eq\n      tag_31\n      jumpi\n      dup1\n      0xb88a802f\n      eq\n      tag_32\n      jumpi\n      dup1\n      0xc58e3843\n      eq\n      tag_33\n      jumpi\n      dup1\n      0xc5967c26\n      eq\n      tag_34\n      jumpi\n      dup1\n      0xd256d48a\n      eq\n      tag_35\n      jumpi\n      0x00\n      dup1\n      revert\n    tag_42:\n      dup1\n      0x714b4658\n      gt\n      tag_44\n      jumpi\n      dup1\n      0x714b4658\n      eq\n      tag_26\n      jumpi\n      dup1\n      0x900cf0cf\n      eq\n      tag_27\n      jumpi\n      dup1\n      0x97ffe1d7\n      eq\n      tag_28\n      jumpi\n      dup1\n      0xa694fc3a\n      eq\n      tag_29\n      jumpi\n      dup1\n      0xa8d5fd65\n      eq\n      tag_30\n      jumpi\n      0x00\n      dup1\n      revert\n    tag_44:\n      dup1\n      0x61d027b3\n      eq\n      tag_22\n      jumpi\n      dup1\n      0x69fe0e2d\n      eq\n      tag_23\n      jumpi\n      dup1\n      0x6cee85c2\n      eq\n      tag_24\n      jumpi\n      dup1\n      0x70a08231\n      eq\n      tag_25\n      jumpi\n      0x00\n      dup1\n      revert\n    tag_41:\n      dup1\n      0x2e1a7d4d\n      gt\n      tag_45\n      jumpi\n      dup1\n      0x530b97a4\n      gt\n      tag_46\n      jumpi\n      dup1\n      0x530b97a4\n      eq\n      tag_17\n      jumpi\n      dup1\n      0x53c03829\n      eq\n      tag_18\n      jumpi\n      dup1\n      0x54575af4\n      eq\n      tag_19\n      jumpi\n      dup1\n      0x570ca735\n      eq\n      tag_20\n      jumpi\n      dup1\n      0x5db76731\n      eq\n      tag_21\n      jumpi\n      0x00\n      dup1\n      revert\n    tag_46:\n      dup1\n      0x2e1a7d4d\n      eq\n      tag_12\n      jumpi\n      dup1\n      0x2ffaaa09\n      eq\n      tag_13\n      jumpi\n      dup1\n      0x3f9e3f04\n      eq\n      tag_14\n      jumpi\n      dup1\n      0x446a2ec8\n      eq\n      tag_15\n      jumpi\n      dup1\n      0x4b94f50e\n      eq\n      tag_16\n      jumpi\n      0x00\n      dup1\n      revert\n    tag_45:\n      dup1\n      0x08ae4b0c\n      gt\n      tag_47\n      jumpi\n      dup1\n      0x08ae4b0c\n      eq\n      tag_7\n      jumpi\n      dup1\n      0x158ef93e\n      eq\n      tag_8\n      jumpi\n      dup1\n      0x18160ddd\n      eq\n      tag_9\n      jumpi\n      dup1\n      0x19262d30\n      eq\n      tag_10\n      jumpi\n      dup1\n      0x1e85cd65\n      eq\n      tag_11\n      jumpi\n      0x00\n      dup1\n      revert\n    tag_47:\n      dup1\n      0x8cc262\n      eq\n      tag_3\n      jumpi\n      dup1\n      0x017e7e58\n      eq\n      tag_4\n      jumpi\n      dup1\n      0x022ba18d\n      eq\n      tag_5\n      jumpi\n      dup1\n      0x046335d0\n      eq\n      tag_6\n      jumpi\n    tag_2:\n      0x00\n      dup1\n      revert\n        /* \"brownie_projects/bebu_finance/contracts/Boardroom/Boardroom.sol\":6398:6710  function earned(address member) public view returns (uint256) {... */\n    tag_3:\n      tag_48\n      tag_49\n      calldatasize\n      0x04\n      tag_50\n      jump\t// in\n    tag_49:\n      tag_51\n      jump\t// in\n    tag_48:\n      mload(0x40)\n        /* \"#utility.yul\":548:573   */\n      swap1\n      dup2\n      mstore\n        /* \"#utility.yul\":536:538   */\n      0x20\n        /* \"#utility.yul\":521:539   */\n      add\n        /* \"brownie_projects/bebu_finance/contracts/Boardroom/Boardroom.sol\":6398:6710  function earned(address member) public view returns (uint256) {... */\n    tag_52:\n      mload(0x40)\n      dup1\n      swap2\n      sub\n      swap1\n      return\n        /* \"brownie_projects/bebu_finance/contracts/Boardroom/Boardroom.sol\":1563:1583  address public feeTo */\n    tag_4:\n      sload(0x0d)\n      tag_54\n      swap1\n      sub(shl(0xa0, 0x01), 0x01)\n      and\n      dup2\n      jump\n    tag_54:\n      mload(0x40)\n      sub(shl(0xa0, 0x01), 0x01)\n        /* \"#utility.yul\":748:780   */\n      swap1\n      swap2\n      and\n        /* \"#utility.yul\":730:781   */\n      dup2\n      mstore\n        /* \"#utility.yul\":718:720   */\n      0x20\n        /* \"#utility.yul\":703:721   */\n      add\n        /* \"brownie_projects/bebu_finance/contracts/Boardroom/Boardroom.sol\":1563:1583  address public feeTo */\n      tag_52\n        /* \"#utility.yul\":584:787   */\n      jump\n        /* \"brownie_projects/bebu_finance/contracts/Boardroom/Boardroom.sol\":1499:1532  uint256 public rewardLockupEpochs */\n    tag_5:\n      tag_48\n      sload(0x0b)\n      dup2\n      jump\n        /* \"brownie_projects/bebu_finance/contracts/Boardroom/Boardroom.sol\":5750:5918  function canClaimReward(address member) external view returns (bool) {... */\n    tag_6:\n      tag_61\n      tag_62\n      calldatasize\n      0x04\n      tag_50\n      jump\t// in\n    tag_62:\n      tag_63\n      jump\t// in\n    tag_61:\n      mload(0x40)\n        /* \"#utility.yul\":957:971   */\n      swap1\n      iszero\n        /* \"#utility.yul\":950:972   */\n      iszero\n        /* \"#utility.yul\":932:973   */\n      dup2\n      mstore\n        /* \"#utility.yul\":920:922   */\n      0x20\n        /* \"#utility.yul\":905:923   */\n      add\n        /* \"brownie_projects/bebu_finance/contracts/Boardroom/Boardroom.sol\":5750:5918  function canClaimReward(address member) external view returns (bool) {... */\n      tag_52\n        /* \"#utility.yul\":792:979   */\n      jump\n        /* \"brownie_projects/bebu_finance/contracts/Boardroom/Boardroom.sol\":1357:1402  mapping(address => Memberseat) public members */\n    tag_7:\n      tag_66\n      tag_67\n      calldatasize\n      0x04\n      tag_50\n      jump\t// in\n    tag_67:\n      mstore(0x20, 0x08)\n      0x00\n      swap1\n      dup2\n      mstore\n      0x40\n      swap1\n      keccak256\n      dup1\n      sload\n      0x01\n      dup3\n      add\n      sload\n      0x02\n      swap1\n      swap3\n      add\n      sload\n      swap1\n      swap2\n      swap1\n      dup4\n      jump\n    tag_66:\n      0x40\n      dup1\n      mload\n        /* \"#utility.yul\":1186:1211   */\n      swap4\n      dup5\n      mstore\n        /* \"#utility.yul\":1242:1244   */\n      0x20\n        /* \"#utility.yul\":1227:1245   */\n      dup5\n      add\n        /* \"#utility.yul\":1220:1254   */\n      swap3\n      swap1\n      swap3\n      mstore\n        /* \"#utility.yul\":1270:1288   */\n      swap1\n      dup3\n      add\n        /* \"#utility.yul\":1263:1297   */\n      mstore\n        /* \"#utility.yul\":1174:1176   */\n      0x60\n        /* \"#utility.yul\":1159:1177   */\n      add\n        /* \"brownie_projects/bebu_finance/contracts/Boardroom/Boardroom.sol\":1357:1402  mapping(address => Memberseat) public members */\n      tag_52\n        /* \"#utility.yul\":984:1303   */\n      jump\n        /* \"brownie_projects/bebu_finance/contracts/Boardroom/Boardroom.sol\":1197:1228  bool public initialized = false */\n    tag_8:\n      sload(0x04)\n      tag_61\n      swap1\n      shl(0xa0, 0x01)\n      swap1\n      div\n      0xff\n      and\n      dup2\n      jump\n        /* \"brownie_projects/bebu_finance/contracts/Boardroom/ShareWrapper.sol\":341:430  function totalSupply() public view returns (uint256) {... */\n    tag_9:\n        /* \"brownie_projects/bebu_finance/contracts/Boardroom/ShareWrapper.sol\":411:423  _totalSupply */\n      sload(0x01)\n        /* \"brownie_projects/bebu_finance/contracts/Boardroom/ShareWrapper.sol\":341:430  function totalSupply() public view returns (uint256) {... */\n      jump(tag_48)\n        /* \"brownie_projects/bebu_finance/contracts/Boardroom/Boardroom.sol\":5577:5744  function canWithdraw(address member) external view returns (bool) {... */\n    tag_10:\n      tag_61\n      tag_78\n      calldatasize\n      0x04\n      tag_50\n      jump\t// in\n    tag_78:\n      tag_79\n      jump\t// in\n        /* \"brownie_projects/bebu_finance/contracts/Boardroom/Boardroom.sol\":1458:1493  uint256 public withdrawLockupEpochs */\n    tag_11:\n      tag_48\n      sload(0x0a)\n      dup2\n      jump\n        /* \"brownie_projects/bebu_finance/contracts/Boardroom/Boardroom.sol\":7318:7788  function withdraw(uint256 amount) public override onlyOneBlock memberExists updateReward(msg.sender) {... */\n    tag_12:\n      tag_84\n      tag_85\n      calldatasize\n      0x04\n      tag_86\n      jump\t// in\n    tag_85:\n      tag_87\n      jump\t// in\n    tag_84:\n      stop\n        /* \"brownie_projects/bebu_finance/contracts/Boardroom/Boardroom.sol\":3752:4110  function setLockUp(uint256 _withdrawLockupEpochs, uint256 _rewardLockupEpochs) external onlyOperator {... */\n    tag_13:\n      tag_84\n      tag_89\n      calldatasize\n      0x04\n      tag_90\n      jump\t// in\n    tag_89:\n      tag_91\n      jump\t// in\n        /* \"brownie_projects/bebu_finance/contracts/Boardroom/Boardroom.sol\":4998:5113  function latestSnapshotIndex() public view returns (uint256) {... */\n    tag_14:\n      tag_48\n      tag_93\n      jump\t// in\n        /* \"brownie_projects/bebu_finance/contracts/Boardroom/Boardroom.sol\":6278:6392  function rewardPerShare() public view returns (uint256) {... */\n    tag_15:\n      tag_48\n      tag_96\n      jump\t// in\n        /* \"brownie_projects/bebu_finance/contracts/Boardroom/Boardroom.sol\":6132:6237  function getTokenPrice() external view returns (uint256) {... */\n    tag_16:\n      tag_48\n      tag_99\n      jump\t// in\n        /* \"brownie_projects/bebu_finance/contracts/Boardroom/Boardroom.sol\":2880:3641  function initialize(... */\n    tag_17:\n      tag_84\n      tag_102\n      calldatasize\n      0x04\n      tag_103\n      jump\t// in\n    tag_102:\n      tag_104\n      jump\t// in\n        /* \"brownie_projects/bebu_finance/contracts/Boardroom/Boardroom.sol\":9186:9995  function blacklistFundWithdraw(address _address, address _to) external onlyOperator {... */\n    tag_18:\n      tag_84\n      tag_106\n      calldatasize\n      0x04\n      tag_107\n      jump\t// in\n    tag_106:\n      tag_108\n      jump\t// in\n        /* \"brownie_projects/bebu_finance/contracts/Boardroom/Boardroom.sol\":10001:10397  function governanceRecoverUnsupported(... */\n    tag_19:\n      tag_84\n      tag_110\n      calldatasize\n      0x04\n      tag_111\n      jump\t// in\n    tag_110:\n      tag_112\n      jump\t// in\n        /* \"brownie_projects/bebu_finance/contracts/Boardroom/Boardroom.sol\":1154:1177  address public operator */\n    tag_20:\n      sload(0x04)\n      tag_54\n      swap1\n      sub(shl(0xa0, 0x01), 0x01)\n      and\n      dup2\n      jump\n        /* \"brownie_projects/bebu_finance/contracts/Boardroom/Boardroom.sol\":4355:4565  function addAddressBlacklist(address _address) public onlyOperator returns (bool) {... */\n    tag_21:\n      tag_61\n      tag_117\n      calldatasize\n      0x04\n      tag_50\n      jump\t// in\n    tag_117:\n      tag_118\n      jump\t// in\n        /* \"brownie_projects/bebu_finance/contracts/Boardroom/Boardroom.sol\":1260:1285  ITreasury public treasury */\n    tag_22:\n      sload(0x06)\n      tag_54\n      swap1\n      sub(shl(0xa0, 0x01), 0x01)\n      and\n      dup2\n      jump\n        /* \"brownie_projects/bebu_finance/contracts/Boardroom/Boardroom.sol\":4116:4256  function setFee(uint256 _fee) external onlyOperator {... */\n    tag_23:\n      tag_84\n      tag_125\n      calldatasize\n      0x04\n      tag_86\n      jump\t// in\n    tag_125:\n      tag_126\n      jump\t// in\n        /* \"brownie_projects/bebu_finance/contracts/Boardroom/Boardroom.sol\":4571:4782  function removeAddressBlacklist(address _address) public onlyOperator returns (bool) {... */\n    tag_24:\n      tag_61\n      tag_128\n      calldatasize\n      0x04\n      tag_50\n      jump\t// in\n    tag_128:\n      tag_129\n      jump\t// in\n        /* \"brownie_projects/bebu_finance/contracts/Boardroom/ShareWrapper.sol\":436:544  function balanceOf(address account) public view returns (uint256) {... */\n    tag_25:\n      tag_48\n      tag_132\n      calldatasize\n      0x04\n      tag_50\n      jump\t// in\n    tag_132:\n      sub(shl(0xa0, 0x01), 0x01)\n        /* \"brownie_projects/bebu_finance/contracts/Boardroom/ShareWrapper.sol\":519:537  _balances[account] */\n      and\n        /* \"brownie_projects/bebu_finance/contracts/Boardroom/ShareWrapper.sol\":493:500  uint256 */\n      0x00\n        /* \"brownie_projects/bebu_finance/contracts/Boardroom/ShareWrapper.sol\":519:537  _balances[account] */\n      swap1\n      dup2\n      mstore\n        /* \"brownie_projects/bebu_finance/contracts/Boardroom/ShareWrapper.sol\":519:528  _balances */\n      0x02\n        /* \"brownie_projects/bebu_finance/contracts/Boardroom/ShareWrapper.sol\":519:537  _balances[account] */\n      0x20\n      mstore\n      0x40\n      swap1\n      keccak256\n      sload\n      swap1\n        /* \"brownie_projects/bebu_finance/contracts/Boardroom/ShareWrapper.sol\":436:544  function balanceOf(address account) public view returns (uint256) {... */\n      jump\n        /* \"brownie_projects/bebu_finance/contracts/Boardroom/Boardroom.sol\":5266:5401  function getLastSnapshotIndexOf(address member) public view returns (uint256) {... */\n    tag_26:\n      tag_48\n      tag_136\n      calldatasize\n      0x04\n      tag_50\n      jump\t// in\n    tag_136:\n      sub(shl(0xa0, 0x01), 0x01)\n        /* \"brownie_projects/bebu_finance/contracts/Boardroom/Boardroom.sol\":5361:5376  members[member] */\n      and\n        /* \"brownie_projects/bebu_finance/contracts/Boardroom/Boardroom.sol\":5335:5342  uint256 */\n      0x00\n        /* \"brownie_projects/bebu_finance/contracts/Boardroom/Boardroom.sol\":5361:5376  members[member] */\n      swap1\n      dup2\n      mstore\n        /* \"brownie_projects/bebu_finance/contracts/Boardroom/Boardroom.sol\":5361:5368  members */\n      0x08\n        /* \"brownie_projects/bebu_finance/contracts/Boardroom/Boardroom.sol\":5361:5376  members[member] */\n      0x20\n      mstore\n      0x40\n      swap1\n      keccak256\n        /* \"brownie_projects/bebu_finance/contracts/Boardroom/Boardroom.sol\":5361:5394  members[member].lastSnapshotIndex */\n      sload\n      swap1\n        /* \"brownie_projects/bebu_finance/contracts/Boardroom/Boardroom.sol\":5266:5401  function getLastSnapshotIndexOf(address member) public view returns (uint256) {... */\n      jump\n        /* \"brownie_projects/bebu_finance/contracts/Boardroom/Boardroom.sol\":5924:6013  function epoch() external view returns (uint256) {... */\n    tag_27:\n      tag_48\n      tag_140\n      jump\t// in\n        /* \"brownie_projects/bebu_finance/contracts/Boardroom/Boardroom.sol\":8472:9180  function allocateSeigniorage(uint256 amount) external onlyOneBlock onlyOperator {... */\n    tag_28:\n      tag_84\n      tag_143\n      calldatasize\n      0x04\n      tag_86\n      jump\t// in\n    tag_143:\n      tag_144\n      jump\t// in\n        /* \"brownie_projects/bebu_finance/contracts/Boardroom/Boardroom.sol\":6768:7312  function stake(uint256 amount) public override onlyOneBlock updateReward(msg.sender) {... */\n    tag_29:\n      tag_84\n      tag_146\n      calldatasize\n      0x04\n      tag_86\n      jump\t// in\n    tag_146:\n      tag_147\n      jump\t// in\n        /* \"brownie_projects/bebu_finance/contracts/Boardroom/ShareWrapper.sol\":227:246  IERC20 public share */\n    tag_30:\n      sload(0x00)\n      tag_54\n      swap1\n      sub(shl(0xa0, 0x01), 0x01)\n      and\n      dup2\n      jump\n        /* \"brownie_projects/bebu_finance/contracts/Boardroom/Boardroom.sol\":3647:3746  function setOperator(address _operator) external onlyOperator {... */\n    tag_31:\n      tag_84\n      tag_153\n      calldatasize\n      0x04\n      tag_50\n      jump\t// in\n    tag_153:\n      tag_154\n      jump\t// in\n        /* \"brownie_projects/bebu_finance/contracts/Boardroom/Boardroom.sol\":7873:8466  function claimReward() public updateReward(msg.sender) {... */\n    tag_32:\n      tag_84\n      tag_156\n      jump\t// in\n        /* \"brownie_projects/bebu_finance/contracts/Boardroom/Boardroom.sol\":1408:1451  BoardroomSnapshot[] public boardroomHistory */\n    tag_33:\n      tag_66\n      tag_158\n      calldatasize\n      0x04\n      tag_86\n      jump\t// in\n    tag_158:\n      tag_159\n      jump\t// in\n        /* \"brownie_projects/bebu_finance/contracts/Boardroom/Boardroom.sol\":6019:6126  function nextEpochPoint() external view returns (uint256) {... */\n    tag_34:\n      tag_48\n      tag_162\n      jump\t// in\n        /* \"brownie_projects/bebu_finance/contracts/Boardroom/Boardroom.sol\":4792:4908  function isAddressBlacklist(address _address) public view returns (bool) {... */\n    tag_35:\n      tag_61\n      tag_165\n      calldatasize\n      0x04\n      tag_50\n      jump\t// in\n    tag_165:\n      tag_166\n      jump\t// in\n        /* \"brownie_projects/bebu_finance/contracts/Boardroom/Boardroom.sol\":1539:1557  uint256 public fee */\n    tag_36:\n      tag_48\n      sload(0x0c)\n      dup2\n      jump\n        /* \"brownie_projects/bebu_finance/contracts/Boardroom/Boardroom.sol\":7794:7867  function exit() external {... */\n    tag_37:\n      tag_84\n      tag_172\n      jump\t// in\n        /* \"brownie_projects/bebu_finance/contracts/Boardroom/Boardroom.sol\":4262:4349  function setFeeTo(address _feeTo) external onlyOperator {... */\n    tag_38:\n      tag_84\n      tag_174\n      calldatasize\n      0x04\n      tag_50\n      jump\t// in\n    tag_174:\n      tag_175\n      jump\t// in\n        /* \"brownie_projects/bebu_finance/contracts/Boardroom/Boardroom.sol\":1309:1350  mapping(address => bool) public blacklist */\n    tag_39:\n      tag_61\n      tag_177\n      calldatasize\n      0x04\n      tag_50\n      jump\t// in\n    tag_177:\n      mstore(0x20, 0x07)\n      0x00\n      swap1\n      dup2\n      mstore\n      0x40\n      swap1\n      keccak256\n      sload\n      0xff\n      and\n      dup2\n      jump\n        /* \"brownie_projects/bebu_finance/contracts/Boardroom/Boardroom.sol\":1235:1254  IERC20 public token */\n    tag_40:\n      sload(0x05)\n      tag_54\n      swap1\n      sub(shl(0xa0, 0x01), 0x01)\n      and\n      dup2\n      jump\n        /* \"brownie_projects/bebu_finance/contracts/Boardroom/Boardroom.sol\":6398:6710  function earned(address member) public view returns (uint256) {... */\n    tag_51:\n        /* \"brownie_projects/bebu_finance/contracts/Boardroom/Boardroom.sol\":6451:6458  uint256 */\n      0x00\n        /* \"brownie_projects/bebu_finance/contracts/Boardroom/Boardroom.sol\":6470:6487  uint256 latestRPS */\n      dup1\n        /* \"brownie_projects/bebu_finance/contracts/Boardroom/Boardroom.sol\":6490:6509  getLatestSnapshot() */\n      tag_184\n        /* \"brownie_projects/bebu_finance/contracts/Boardroom/Boardroom.sol\":6490:6507  getLatestSnapshot */\n      tag_185\n        /* \"brownie_projects/bebu_finance/contracts/Boardroom/Boardroom.sol\":6490:6509  getLatestSnapshot() */\n      jump\t// in\n    tag_184:\n        /* \"brownie_projects/bebu_finance/contracts/Boardroom/Boardroom.sol\":6490:6524  getLatestSnapshot().rewardPerShare */\n      0x40\n      add\n      mload\n        /* \"brownie_projects/bebu_finance/contracts/Boardroom/Boardroom.sol\":6470:6524  uint256 latestRPS = getLatestSnapshot().rewardPerShare */\n      swap1\n      pop\n        /* \"brownie_projects/bebu_finance/contracts/Boardroom/Boardroom.sol\":6534:6551  uint256 storedRPS */\n      0x00\n        /* \"brownie_projects/bebu_finance/contracts/Boardroom/Boardroom.sol\":6554:6579  getLastSnapshotOf(member) */\n      tag_186\n        /* \"brownie_projects/bebu_finance/contracts/Boardroom/Boardroom.sol\":6572:6578  member */\n      dup5\n        /* \"brownie_projects/bebu_finance/contracts/Boardroom/Boardroom.sol\":6554:6571  getLastSnapshotOf */\n      tag_187\n        /* \"brownie_projects/bebu_finance/contracts/Boardroom/Boardroom.sol\":6554:6579  getLastSnapshotOf(member) */\n      jump\t// in\n    tag_186:\n        /* \"brownie_projects/bebu_finance/contracts/Boardroom/Boardroom.sol\":6554:6594  getLastSnapshotOf(member).rewardPerShare */\n      0x40\n      swap1\n      dup2\n      add\n      mload\n      sub(shl(0xa0, 0x01), 0x01)\n        /* \"brownie_projects/bebu_finance/contracts/Boardroom/Boardroom.sol\":6674:6689  members[member] */\n      dup7\n      and\n      0x00\n      swap1\n      dup2\n      mstore\n        /* \"brownie_projects/bebu_finance/contracts/Boardroom/Boardroom.sol\":6674:6681  members */\n      0x08\n        /* \"brownie_projects/bebu_finance/contracts/Boardroom/Boardroom.sol\":6674:6689  members[member] */\n      0x20\n      mstore\n      swap2\n      swap1\n      swap2\n      keccak256\n        /* \"brownie_projects/bebu_finance/contracts/Boardroom/Boardroom.sol\":6674:6702  members[member].rewardEarned */\n      0x01\n      add\n      sload\n        /* \"brownie_projects/bebu_finance/contracts/Boardroom/Boardroom.sol\":6554:6594  getLastSnapshotOf(member).rewardPerShare */\n      swap1\n      swap2\n      pop\n        /* \"brownie_projects/bebu_finance/contracts/Boardroom/Boardroom.sol\":6612:6703  balanceOf(member).mul(latestRPS.sub(storedRPS)).div(1e18).add(members[member].rewardEarned) */\n      tag_188\n      swap1\n        /* \"brownie_projects/bebu_finance/contracts/Boardroom/Boardroom.sol\":6612:6669  balanceOf(member).mul(latestRPS.sub(storedRPS)).div(1e18) */\n      tag_189\n        /* \"brownie_projects/bebu_finance/contracts/Boardroom/Boardroom.sol\":6664:6668  1e18 */\n      0x0de0b6b3a7640000\n        /* \"brownie_projects/bebu_finance/contracts/Boardroom/Boardroom.sol\":6612:6659  balanceOf(member).mul(latestRPS.sub(storedRPS)) */\n      tag_190\n        /* \"brownie_projects/bebu_finance/contracts/Boardroom/Boardroom.sol\":6634:6658  latestRPS.sub(storedRPS) */\n      tag_191\n        /* \"brownie_projects/bebu_finance/contracts/Boardroom/Boardroom.sol\":6634:6643  latestRPS */\n      dup8\n        /* \"brownie_projects/bebu_finance/contracts/Boardroom/Boardroom.sol\":6554:6594  getLastSnapshotOf(member).rewardPerShare */\n      dup8\n        /* \"brownie_projects/bebu_finance/contracts/Boardroom/Boardroom.sol\":6634:6647  latestRPS.sub */\n      tag_192\n        /* \"brownie_projects/bebu_finance/contracts/Boardroom/Boardroom.sol\":6634:6658  latestRPS.sub(storedRPS) */\n      jump\t// in\n    tag_191:\n      sub(shl(0xa0, 0x01), 0x01)\n        /* \"brownie_projects/bebu_finance/contracts/Boardroom/ShareWrapper.sol\":519:537  _balances[account] */\n      dup11\n      and\n        /* \"brownie_projects/bebu_finance/contracts/Boardroom/ShareWrapper.sol\":493:500  uint256 */\n      0x00\n        /* \"brownie_projects/bebu_finance/contracts/Boardroom/ShareWrapper.sol\":519:537  _balances[account] */\n      swap1\n      dup2\n      mstore\n        /* \"brownie_projects/bebu_finance/contracts/Boardroom/ShareWrapper.sol\":519:528  _balances */\n      0x02\n        /* \"brownie_projects/bebu_finance/contracts/Boardroom/ShareWrapper.sol\":519:537  _balances[account] */\n      0x20\n      mstore\n      0x40\n      swap1\n      keccak256\n      sload\n        /* \"brownie_projects/bebu_finance/contracts/Boardroom/Boardroom.sol\":6612:6633  balanceOf(member).mul */\n      swap1\n      tag_194\n        /* \"brownie_projects/bebu_finance/contracts/Boardroom/Boardroom.sol\":6612:6659  balanceOf(member).mul(latestRPS.sub(storedRPS)) */\n      jump\t// in\n    tag_190:\n        /* \"brownie_projects/bebu_finance/contracts/Boardroom/Boardroom.sol\":6612:6663  balanceOf(member).mul(latestRPS.sub(storedRPS)).div */\n      swap1\n      tag_195\n        /* \"brownie_projects/bebu_finance/contracts/Boardroom/Boardroom.sol\":6612:6669  balanceOf(member).mul(latestRPS.sub(storedRPS)).div(1e18) */\n      jump\t// in\n    tag_189:\n        /* \"brownie_projects/bebu_finance/contracts/Boardroom/Boardroom.sol\":6612:6673  balanceOf(member).mul(latestRPS.sub(storedRPS)).div(1e18).add */\n      swap1\n      tag_196\n        /* \"brownie_projects/bebu_finance/contracts/Boardroom/Boardroom.sol\":6612:6703  balanceOf(member).mul(latestRPS.sub(storedRPS)).div(1e18).add(members[member].rewardEarned) */\n      jump\t// in\n    tag_188:\n        /* \"brownie_projects/bebu_finance/contracts/Boardroom/Boardroom.sol\":6605:6703  return balanceOf(member).mul(latestRPS.sub(storedRPS)).div(1e18).add(members[member].rewardEarned) */\n      swap5\n        /* \"brownie_projects/bebu_finance/contracts/Boardroom/Boardroom.sol\":6398:6710  function earned(address member) public view returns (uint256) {... */\n      swap4\n      pop\n      pop\n      pop\n      pop\n      jump\t// out\n        /* \"brownie_projects/bebu_finance/contracts/Boardroom/Boardroom.sol\":5750:5918  function canClaimReward(address member) external view returns (bool) {... */\n    tag_63:\n        /* \"brownie_projects/bebu_finance/contracts/Boardroom/Boardroom.sol\":5895:5903  treasury */\n      sload(0x06)\n        /* \"brownie_projects/bebu_finance/contracts/Boardroom/Boardroom.sol\":5895:5911  treasury.epoch() */\n      0x40\n      dup1\n      mload\n      shl(0xe0, 0x900cf0cf)\n      dup2\n      mstore\n      swap1\n      mload\n        /* \"brownie_projects/bebu_finance/contracts/Boardroom/Boardroom.sol\":5813:5817  bool */\n      0x00\n      swap3\n      sub(shl(0xa0, 0x01), 0x01)\n        /* \"brownie_projects/bebu_finance/contracts/Boardroom/Boardroom.sol\":5895:5903  treasury */\n      and\n      swap2\n        /* \"brownie_projects/bebu_finance/contracts/Boardroom/Boardroom.sol\":5895:5909  treasury.epoch */\n      0x900cf0cf\n      swap2\n        /* \"brownie_projects/bebu_finance/contracts/Boardroom/Boardroom.sol\":5895:5911  treasury.epoch() */\n      0x04\n      dup1\n      dup4\n      add\n      swap3\n      0x20\n      swap3\n      swap2\n      swap1\n      dup3\n      swap1\n      sub\n      add\n      dup2\n        /* \"brownie_projects/bebu_finance/contracts/Boardroom/Boardroom.sol\":5895:5903  treasury */\n      dup7\n        /* \"brownie_projects/bebu_finance/contracts/Boardroom/Boardroom.sol\":5895:5911  treasury.epoch() */\n      gas\n      staticcall\n      iszero\n      dup1\n      iszero\n      tag_199\n      jumpi\n      returndatasize\n      0x00\n      dup1\n      returndatacopy\n      revert(0x00, returndatasize)\n    tag_199:\n      pop\n      pop\n      pop\n      pop\n      mload(0x40)\n      returndatasize\n      not(0x1f)\n      0x1f\n      dup3\n      add\n      and\n      dup3\n      add\n      dup1\n      0x40\n      mstore\n      pop\n      dup2\n      add\n      swap1\n      tag_200\n      swap2\n      swap1\n      tag_201\n      jump\t// in\n    tag_200:\n        /* \"brownie_projects/bebu_finance/contracts/Boardroom/Boardroom.sol\":5872:5890  rewardLockupEpochs */\n      sload(0x0b)\n      sub(shl(0xa0, 0x01), 0x01)\n        /* \"brownie_projects/bebu_finance/contracts/Boardroom/Boardroom.sol\":5836:5851  members[member] */\n      dup5\n      and\n      0x00\n      swap1\n      dup2\n      mstore\n        /* \"brownie_projects/bebu_finance/contracts/Boardroom/Boardroom.sol\":5836:5843  members */\n      0x08\n        /* \"brownie_projects/bebu_finance/contracts/Boardroom/Boardroom.sol\":5836:5851  members[member] */\n      0x20\n      mstore\n      0x40\n      swap1\n      keccak256\n        /* \"brownie_projects/bebu_finance/contracts/Boardroom/Boardroom.sol\":5836:5867  members[member].epochTimerStart */\n      0x02\n      add\n      sload\n        /* \"brownie_projects/bebu_finance/contracts/Boardroom/Boardroom.sol\":5836:5891  members[member].epochTimerStart.add(rewardLockupEpochs) */\n      tag_202\n      swap2\n        /* \"brownie_projects/bebu_finance/contracts/Boardroom/Boardroom.sol\":5836:5871  members[member].epochTimerStart.add */\n      tag_196\n        /* \"brownie_projects/bebu_finance/contracts/Boardroom/Boardroom.sol\":5836:5891  members[member].epochTimerStart.add(rewardLockupEpochs) */\n      jump\t// in\n    tag_202:\n        /* \"brownie_projects/bebu_finance/contracts/Boardroom/Boardroom.sol\":5836:5911  members[member].epochTimerStart.add(rewardLockupEpochs) <= treasury.epoch() */\n      gt\n      iszero\n      swap3\n        /* \"brownie_projects/bebu_finance/contracts/Boardroom/Boardroom.sol\":5750:5918  function canClaimReward(address member) external view returns (bool) {... */\n      swap2\n      pop\n      pop\n      jump\t// out\n        /* \"brownie_projects/bebu_finance/contracts/Boardroom/Boardroom.sol\":5577:5744  function canWithdraw(address member) external view returns (bool) {... */\n    tag_79:\n        /* \"brownie_projects/bebu_finance/contracts/Boardroom/Boardroom.sol\":5721:5729  treasury */\n      sload(0x06)\n        /* \"brownie_projects/bebu_finance/contracts/Boardroom/Boardroom.sol\":5721:5737  treasury.epoch() */\n      0x40\n      dup1\n      mload\n      shl(0xe0, 0x900cf0cf)\n      dup2\n      mstore\n      swap1\n      mload\n        /* \"brownie_projects/bebu_finance/contracts/Boardroom/Boardroom.sol\":5637:5641  bool */\n      0x00\n      swap3\n      sub(shl(0xa0, 0x01), 0x01)\n        /* \"brownie_projects/bebu_finance/contracts/Boardroom/Boardroom.sol\":5721:5729  treasury */\n      and\n      swap2\n        /* \"brownie_projects/bebu_finance/contracts/Boardroom/Boardroom.sol\":5721:5735  treasury.epoch */\n      0x900cf0cf\n      swap2\n        /* \"brownie_projects/bebu_finance/contracts/Boardroom/Boardroom.sol\":5721:5737  treasury.epoch() */\n      0x04\n      dup1\n      dup4\n      add\n      swap3\n      0x20\n      swap3\n      swap2\n      swap1\n      dup3\n      swap1\n      sub\n      add\n      dup2\n        /* \"brownie_projects/bebu_finance/contracts/Boardroom/Boardroom.sol\":5721:5729  treasury */\n      dup7\n        /* \"brownie_projects/bebu_finance/contracts/Boardroom/Boardroom.sol\":5721:5737  treasury.epoch() */\n      gas\n      staticcall\n      iszero\n      dup1\n      iszero\n      tag_206\n      jumpi\n      returndatasize\n      0x00\n      dup1\n      returndatacopy\n      revert(0x00, returndatasize)\n    tag_206:\n      pop\n      pop\n      pop\n      pop\n      mload(0x40)\n      returndatasize\n      not(0x1f)\n      0x1f\n      dup3\n      add\n      and\n      dup3\n      add\n      dup1\n      0x40\n      mstore\n      pop\n      dup2\n      add\n      swap1\n      tag_207\n      swap2\n      swap1\n      tag_201\n      jump\t// in\n    tag_207:\n        /* \"brownie_projects/bebu_finance/contracts/Boardroom/Boardroom.sol\":5696:5716  withdrawLockupEpochs */\n      sload(0x0a)\n      sub(shl(0xa0, 0x01), 0x01)\n        /* \"brownie_projects/bebu_finance/contracts/Boardroom/Boardroom.sol\":5660:5675  members[member] */\n      dup5\n      and\n      0x00\n      swap1\n      dup2\n      mstore\n        /* \"brownie_projects/bebu_finance/contracts/Boardroom/Boardroom.sol\":5660:5667  members */\n      0x08\n        /* \"brownie_projects/bebu_finance/contracts/Boardroom/Boardroom.sol\":5660:5675  members[member] */\n      0x20\n      mstore\n      0x40\n      swap1\n      keccak256\n        /* \"brownie_projects/bebu_finance/contracts/Boardroom/Boardroom.sol\":5660:5691  members[member].epochTimerStart */\n      0x02\n      add\n      sload\n        /* \"brownie_projects/bebu_finance/contracts/Boardroom/Boardroom.sol\":5660:5717  members[member].epochTimerStart.add(withdrawLockupEpochs) */\n      tag_202\n      swap2\n        /* \"brownie_projects/bebu_finance/contracts/Boardroom/Boardroom.sol\":5660:5695  members[member].epochTimerStart.add */\n      tag_196\n        /* \"brownie_projects/bebu_finance/contracts/Boardroom/Boardroom.sol\":5660:5717  members[member].epochTimerStart.add(withdrawLockupEpochs) */\n      jump\t// in\n        /* \"brownie_projects/bebu_finance/contracts/Boardroom/Boardroom.sol\":7318:7788  function withdraw(uint256 amount) public override onlyOneBlock memberExists updateReward(msg.sender) {... */\n    tag_87:\n        /* \"brownie_projects/bebu_finance/contracts/utils/security/ContractGuard.sol\":246:258  block.number */\n      number\n        /* \"brownie_projects/bebu_finance/contracts/utils/security/ContractGuard.sol\":215:219  bool */\n      0x00\n        /* \"brownie_projects/bebu_finance/contracts/utils/security/ContractGuard.sol\":238:259  _status[block.number] */\n      swap1\n      dup2\n      mstore\n        /* \"brownie_projects/bebu_finance/contracts/utils/security/ContractGuard.sol\":238:245  _status */\n      0x03\n        /* \"brownie_projects/bebu_finance/contracts/utils/security/ContractGuard.sol\":238:259  _status[block.number] */\n      0x20\n      swap1\n      dup2\n      mstore\n      0x40\n      dup1\n      dup4\n      keccak256\n        /* \"brownie_projects/bebu_finance/contracts/utils/security/ContractGuard.sol\":260:269  tx.origin */\n      origin\n        /* \"brownie_projects/bebu_finance/contracts/utils/security/ContractGuard.sol\":238:270  _status[block.number][tx.origin] */\n      dup5\n      mstore\n      swap1\n      swap2\n      mstore\n      swap1\n      keccak256\n      sload\n      0xff\n      and\n        /* \"brownie_projects/bebu_finance/contracts/utils/security/ContractGuard.sol\":455:484  !checkSameOriginReentranted() */\n      iszero\n        /* \"brownie_projects/bebu_finance/contracts/utils/security/ContractGuard.sol\":447:527  require(!checkSameOriginReentranted(), \"ContractGuard: one block, one function\") */\n      tag_212\n      jumpi\n      mload(0x40)\n      shl(0xe5, 0x461bcd)\n      dup2\n      mstore\n      0x04\n      add\n      tag_213\n      swap1\n      tag_214\n      jump\t// in\n    tag_213:\n      mload(0x40)\n      dup1\n      swap2\n      sub\n      swap1\n      revert\n    tag_212:\n        /* \"brownie_projects/bebu_finance/contracts/utils/security/ContractGuard.sol\":375:387  block.number */\n      number\n        /* \"brownie_projects/bebu_finance/contracts/utils/security/ContractGuard.sol\":344:348  bool */\n      0x00\n        /* \"brownie_projects/bebu_finance/contracts/utils/security/ContractGuard.sol\":367:388  _status[block.number] */\n      swap1\n      dup2\n      mstore\n        /* \"brownie_projects/bebu_finance/contracts/utils/security/ContractGuard.sol\":367:374  _status */\n      0x03\n        /* \"brownie_projects/bebu_finance/contracts/utils/security/ContractGuard.sol\":367:388  _status[block.number] */\n      0x20\n      swap1\n      dup2\n      mstore\n      0x40\n      dup1\n      dup4\n      keccak256\n        /* \"brownie_projects/bebu_finance/contracts/utils/security/ContractGuard.sol\":389:399  msg.sender */\n      caller\n        /* \"brownie_projects/bebu_finance/contracts/utils/security/ContractGuard.sol\":367:400  _status[block.number][msg.sender] */\n      dup5\n      mstore\n      swap1\n      swap2\n      mstore\n      swap1\n      keccak256\n      sload\n      0xff\n      and\n        /* \"brownie_projects/bebu_finance/contracts/utils/security/ContractGuard.sol\":545:574  !checkSameSenderReentranted() */\n      iszero\n        /* \"brownie_projects/bebu_finance/contracts/utils/security/ContractGuard.sol\":537:617  require(!checkSameSenderReentranted(), \"ContractGuard: one block, one function\") */\n      tag_217\n      jumpi\n      mload(0x40)\n      shl(0xe5, 0x461bcd)\n      dup2\n      mstore\n      0x04\n      add\n      tag_213\n      swap1\n      tag_214\n      jump\t// in\n    tag_217:\n        /* \"brownie_projects/bebu_finance/contracts/utils/security/ContractGuard.sol\":636:648  block.number */\n      number\n        /* \"brownie_projects/bebu_finance/contracts/utils/security/ContractGuard.sol\":628:649  _status[block.number] */\n      0x00\n      swap1\n      dup2\n      mstore\n        /* \"brownie_projects/bebu_finance/contracts/utils/security/ContractGuard.sol\":628:635  _status */\n      0x03\n        /* \"brownie_projects/bebu_finance/contracts/utils/security/ContractGuard.sol\":628:649  _status[block.number] */\n      0x20\n      swap1\n      dup2\n      mstore\n      0x40\n      dup1\n      dup4\n      keccak256\n        /* \"brownie_projects/bebu_finance/contracts/utils/security/ContractGuard.sol\":650:659  tx.origin */\n      origin\n        /* \"brownie_projects/bebu_finance/contracts/utils/security/ContractGuard.sol\":628:660  _status[block.number][tx.origin] */\n      dup5\n      mstore\n      dup3\n      mstore\n      dup1\n      dup4\n      keccak256\n        /* \"brownie_projects/bebu_finance/contracts/utils/security/ContractGuard.sol\":628:667  _status[block.number][tx.origin] = true */\n      dup1\n      sload\n        /* \"brownie_projects/bebu_finance/contracts/utils/security/ContractGuard.sol\":663:667  true */\n      0x01\n      not(0xff)\n        /* \"brownie_projects/bebu_finance/contracts/utils/security/ContractGuard.sol\":628:667  _status[block.number][tx.origin] = true */\n      swap2\n      dup3\n      and\n      dup2\n      or\n      swap1\n      swap3\n      sstore\n        /* \"brownie_projects/bebu_finance/contracts/utils/security/ContractGuard.sol\":699:709  msg.sender */\n      caller\n        /* \"brownie_projects/bebu_finance/contracts/utils/security/ContractGuard.sol\":677:710  _status[block.number][msg.sender] */\n      dup6\n      mstore\n      dup3\n      dup6\n      keccak256\n        /* \"brownie_projects/bebu_finance/contracts/utils/security/ContractGuard.sol\":677:717  _status[block.number][msg.sender] = true */\n      dup1\n      sload\n      swap1\n      swap2\n      and\n      swap1\n      swap2\n      or\n      swap1\n      sstore\n        /* \"brownie_projects/bebu_finance/contracts/Boardroom/ShareWrapper.sol\":519:528  _balances */\n      0x02\n        /* \"brownie_projects/bebu_finance/contracts/Boardroom/ShareWrapper.sol\":519:537  _balances[account] */\n      swap1\n      swap2\n      mstore\n      dup2\n      keccak256\n      sload\n        /* \"brownie_projects/bebu_finance/contracts/Boardroom/Boardroom.sol\":2325:2350  balanceOf(msg.sender) > 0 */\n      gt\n        /* \"brownie_projects/bebu_finance/contracts/Boardroom/Boardroom.sol\":2317:2391  require(balanceOf(msg.sender) > 0, \"Boardroom: The member does not exist\") */\n      tag_221\n      jumpi\n      mload(0x40)\n      shl(0xe5, 0x461bcd)\n      dup2\n      mstore\n        /* \"#utility.yul\":4655:4657   */\n      0x20\n        /* \"brownie_projects/bebu_finance/contracts/Boardroom/Boardroom.sol\":2317:2391  require(balanceOf(msg.sender) > 0, \"Boardroom: The member does not exist\") */\n      0x04\n      dup3\n      add\n        /* \"#utility.yul\":4637:4658   */\n      mstore\n        /* \"#utility.yul\":4694:4696   */\n      0x24\n        /* \"#utility.yul\":4674:4692   */\n      dup1\n      dup3\n      add\n        /* \"#utility.yul\":4667:4697   */\n      mstore\n        /* \"#utility.yul\":4733:4767   */\n      0x426f617264726f6f6d3a20546865206d656d62657220646f6573206e6f742065\n        /* \"#utility.yul\":4713:4731   */\n      0x44\n      dup3\n      add\n        /* \"#utility.yul\":4706:4768   */\n      mstore\n      shl(0xe2, 0x1e1a5cdd)\n        /* \"#utility.yul\":4784:4802   */\n      0x64\n      dup3\n      add\n        /* \"#utility.yul\":4777:4811   */\n      mstore\n        /* \"#utility.yul\":4828:4847   */\n      0x84\n      add\n        /* \"brownie_projects/bebu_finance/contracts/Boardroom/Boardroom.sol\":2317:2391  require(balanceOf(msg.sender) > 0, \"Boardroom: The member does not exist\") */\n      tag_213\n        /* \"#utility.yul\":4453:4853   */\n      jump\n        /* \"brownie_projects/bebu_finance/contracts/Boardroom/Boardroom.sol\":2317:2391  require(balanceOf(msg.sender) > 0, \"Boardroom: The member does not exist\") */\n    tag_221:\n        /* \"brownie_projects/bebu_finance/contracts/Boardroom/Boardroom.sol\":7407:7417  msg.sender */\n      caller\n        /* \"brownie_projects/bebu_finance/contracts/Boardroom/Boardroom.sol\":2467:2487  member != address(0) */\n      dup1\n      iszero\n        /* \"brownie_projects/bebu_finance/contracts/Boardroom/Boardroom.sol\":2463:2698  if (member != address(0)) {... */\n      tag_225\n      jumpi\n      sub(shl(0xa0, 0x01), 0x01)\n        /* \"brownie_projects/bebu_finance/contracts/Boardroom/Boardroom.sol\":2528:2543  members[member] */\n      dup2\n      and\n        /* \"brownie_projects/bebu_finance/contracts/Boardroom/Boardroom.sol\":2503:2525  Memberseat memory seat */\n      0x00\n        /* \"brownie_projects/bebu_finance/contracts/Boardroom/Boardroom.sol\":2528:2543  members[member] */\n      swap1\n      dup2\n      mstore\n        /* \"brownie_projects/bebu_finance/contracts/Boardroom/Boardroom.sol\":2528:2535  members */\n      0x08\n        /* \"brownie_projects/bebu_finance/contracts/Boardroom/Boardroom.sol\":2528:2543  members[member] */\n      0x20\n      swap1\n      dup2\n      mstore\n      0x40\n      swap2\n      dup3\n      swap1\n      keccak256\n        /* \"brownie_projects/bebu_finance/contracts/Boardroom/Boardroom.sol\":2503:2543  Memberseat memory seat = members[member] */\n      dup3\n      mload\n      0x60\n      dup2\n      add\n      dup5\n      mstore\n      dup2\n      sload\n      dup2\n      mstore\n      0x01\n      dup3\n      add\n      sload\n      swap3\n      dup2\n      add\n      swap3\n      swap1\n      swap3\n      mstore\n      0x02\n      add\n      sload\n      swap2\n      dup2\n      add\n      swap2\n      swap1\n      swap2\n      mstore\n        /* \"brownie_projects/bebu_finance/contracts/Boardroom/Boardroom.sol\":2577:2591  earned(member) */\n      tag_226\n        /* \"brownie_projects/bebu_finance/contracts/Boardroom/Boardroom.sol\":2536:2542  member */\n      dup3\n        /* \"brownie_projects/bebu_finance/contracts/Boardroom/Boardroom.sol\":2577:2583  earned */\n      tag_51\n        /* \"brownie_projects/bebu_finance/contracts/Boardroom/Boardroom.sol\":2577:2591  earned(member) */\n      jump\t// in\n    tag_226:\n        /* \"brownie_projects/bebu_finance/contracts/Boardroom/Boardroom.sol\":2557:2574  seat.rewardEarned */\n      0x20\n      dup3\n      add\n        /* \"brownie_projects/bebu_finance/contracts/Boardroom/Boardroom.sol\":2557:2591  seat.rewardEarned = earned(member) */\n      mstore\n        /* \"brownie_projects/bebu_finance/contracts/Boardroom/Boardroom.sol\":2630:2651  latestSnapshotIndex() */\n      tag_227\n        /* \"brownie_projects/bebu_finance/contracts/Boardroom/Boardroom.sol\":2630:2649  latestSnapshotIndex */\n      tag_93\n        /* \"brownie_projects/bebu_finance/contracts/Boardroom/Boardroom.sol\":2630:2651  latestSnapshotIndex() */\n      jump\t// in\n    tag_227:\n        /* \"brownie_projects/bebu_finance/contracts/Boardroom/Boardroom.sol\":2605:2651  seat.lastSnapshotIndex = latestSnapshotIndex() */\n      dup2\n      mstore\n      sub(shl(0xa0, 0x01), 0x01)\n        /* \"brownie_projects/bebu_finance/contracts/Boardroom/Boardroom.sol\":2665:2680  members[member] */\n      dup3\n      and\n        /* \"brownie_projects/bebu_finance/contracts/Boardroom/Boardroom.sol\":2605:2627  seat.lastSnapshotIndex */\n      0x00\n        /* \"brownie_projects/bebu_finance/contracts/Boardroom/Boardroom.sol\":2665:2680  members[member] */\n      swap1\n      dup2\n      mstore\n        /* \"brownie_projects/bebu_finance/contracts/Boardroom/Boardroom.sol\":2665:2672  members */\n      0x08\n        /* \"brownie_projects/bebu_finance/contracts/Boardroom/Boardroom.sol\":2665:2680  members[member] */\n      0x20\n      swap1\n      dup2\n      mstore\n      0x40\n      swap2\n      dup3\n      swap1\n      keccak256\n        /* \"brownie_projects/bebu_finance/contracts/Boardroom/Boardroom.sol\":2665:2687  members[member] = seat */\n      dup4\n      mload\n      dup2\n      sstore\n      swap1\n      dup4\n      add\n      mload\n      0x01\n      dup3\n      add\n      sstore\n      swap2\n      add\n      mload\n      0x02\n      swap1\n      swap2\n      add\n      sstore\n        /* \"brownie_projects/bebu_finance/contracts/Boardroom/Boardroom.sol\":2463:2698  if (member != address(0)) {... */\n    tag_225:\n        /* \"brownie_projects/bebu_finance/contracts/Boardroom/Boardroom.sol\":7438:7468  isAddressBlacklist(msg.sender) */\n      tag_229\n        /* \"brownie_projects/bebu_finance/contracts/Boardroom/Boardroom.sol\":7457:7467  msg.sender */\n      caller\n        /* \"brownie_projects/bebu_finance/contracts/Boardroom/Boardroom.sol\":7438:7456  isAddressBlacklist */\n      tag_166\n        /* \"brownie_projects/bebu_finance/contracts/Boardroom/Boardroom.sol\":7438:7468  isAddressBlacklist(msg.sender) */\n      jump\t// in\n    tag_229:\n        /* \"brownie_projects/bebu_finance/contracts/Boardroom/Boardroom.sol\":7437:7468  !isAddressBlacklist(msg.sender) */\n      iszero\n        /* \"brownie_projects/bebu_finance/contracts/Boardroom/Boardroom.sol\":7429:7482  require(!isAddressBlacklist(msg.sender), \"blacklist\") */\n      tag_230\n      jumpi\n      mload(0x40)\n      shl(0xe5, 0x461bcd)\n      dup2\n      mstore\n      0x04\n      add\n      tag_213\n      swap1\n      tag_232\n      jump\t// in\n    tag_230:\n        /* \"brownie_projects/bebu_finance/contracts/Boardroom/Boardroom.sol\":7509:7510  0 */\n      0x00\n        /* \"brownie_projects/bebu_finance/contracts/Boardroom/Boardroom.sol\":7500:7506  amount */\n      dup3\n        /* \"brownie_projects/bebu_finance/contracts/Boardroom/Boardroom.sol\":7500:7510  amount > 0 */\n      gt\n        /* \"brownie_projects/bebu_finance/contracts/Boardroom/Boardroom.sol\":7492:7543  require(amount > 0, \"Boardroom: Cannot withdraw 0\") */\n      tag_233\n      jumpi\n      mload(0x40)\n      shl(0xe5, 0x461bcd)\n      dup2\n      mstore\n        /* \"#utility.yul\":5397:5399   */\n      0x20\n        /* \"brownie_projects/bebu_finance/contracts/Boardroom/Boardroom.sol\":7492:7543  require(amount > 0, \"Boardroom: Cannot withdraw 0\") */\n      0x04\n      dup3\n      add\n        /* \"#utility.yul\":5379:5400   */\n      mstore\n        /* \"#utility.yul\":5436:5438   */\n      0x1c\n        /* \"#utility.yul\":5416:5434   */\n      0x24\n      dup3\n      add\n        /* \"#utility.yul\":5409:5439   */\n      mstore\n        /* \"#utility.yul\":5475:5505   */\n      0x426f617264726f6f6d3a2043616e6e6f74207769746864726177203000000000\n        /* \"#utility.yul\":5455:5473   */\n      0x44\n      dup3\n      add\n        /* \"#utility.yul\":5448:5506   */\n      mstore\n        /* \"#utility.yul\":5523:5541   */\n      0x64\n      add\n        /* \"brownie_projects/bebu_finance/contracts/Boardroom/Boardroom.sol\":7492:7543  require(amount > 0, \"Boardroom: Cannot withdraw 0\") */\n      tag_213\n        /* \"#utility.yul\":5195:5547   */\n      jump\n        /* \"brownie_projects/bebu_finance/contracts/Boardroom/Boardroom.sol\":7492:7543  require(amount > 0, \"Boardroom: Cannot withdraw 0\") */\n    tag_233:\n        /* \"brownie_projects/bebu_finance/contracts/Boardroom/Boardroom.sol\":7626:7634  treasury */\n      0x06\n      0x00\n      swap1\n      sload\n      swap1\n      0x0100\n      exp\n      swap1\n      div\n      sub(shl(0xa0, 0x01), 0x01)\n      and\n      sub(shl(0xa0, 0x01), 0x01)\n        /* \"brownie_projects/bebu_finance/contracts/Boardroom/Boardroom.sol\":7626:7640  treasury.epoch */\n      and\n      0x900cf0cf\n        /* \"brownie_projects/bebu_finance/contracts/Boardroom/Boardroom.sol\":7626:7642  treasury.epoch() */\n      mload(0x40)\n      dup2\n      0xffffffff\n      and\n      0xe0\n      shl\n      dup2\n      mstore\n      0x04\n      add\n      0x20\n      mload(0x40)\n      dup1\n      dup4\n      sub\n      dup2\n      dup7\n      gas\n      staticcall\n      iszero\n      dup1\n      iszero\n      tag_237\n      jumpi\n      returndatasize\n      0x00\n      dup1\n      returndatacopy\n      revert(0x00, returndatasize)\n    tag_237:\n      pop\n      pop\n      pop\n      pop\n      mload(0x40)\n      returndatasize\n      not(0x1f)\n      0x1f\n      dup3\n      add\n      and\n      dup3\n      add\n      dup1\n      0x40\n      mstore\n      pop\n      dup2\n      add\n      swap1\n      tag_238\n      swap2\n      swap1\n      tag_201\n      jump\t// in\n    tag_238:\n        /* \"brownie_projects/bebu_finance/contracts/Boardroom/Boardroom.sol\":7601:7621  withdrawLockupEpochs */\n      sload(0x0a)\n        /* \"brownie_projects/bebu_finance/contracts/Boardroom/Boardroom.sol\":7569:7579  msg.sender */\n      caller\n        /* \"brownie_projects/bebu_finance/contracts/Boardroom/Boardroom.sol\":7561:7580  members[msg.sender] */\n      0x00\n      swap1\n      dup2\n      mstore\n        /* \"brownie_projects/bebu_finance/contracts/Boardroom/Boardroom.sol\":7561:7568  members */\n      0x08\n        /* \"brownie_projects/bebu_finance/contracts/Boardroom/Boardroom.sol\":7561:7580  members[msg.sender] */\n      0x20\n      mstore\n      0x40\n      swap1\n      keccak256\n        /* \"brownie_projects/bebu_finance/contracts/Boardroom/Boardroom.sol\":7561:7596  members[msg.sender].epochTimerStart */\n      0x02\n      add\n      sload\n        /* \"brownie_projects/bebu_finance/contracts/Boardroom/Boardroom.sol\":7561:7622  members[msg.sender].epochTimerStart.add(withdrawLockupEpochs) */\n      tag_239\n      swap2\n        /* \"brownie_projects/bebu_finance/contracts/Boardroom/Boardroom.sol\":7561:7600  members[msg.sender].epochTimerStart.add */\n      tag_196\n        /* \"brownie_projects/bebu_finance/contracts/Boardroom/Boardroom.sol\":7561:7622  members[msg.sender].epochTimerStart.add(withdrawLockupEpochs) */\n      jump\t// in\n    tag_239:\n        /* \"brownie_projects/bebu_finance/contracts/Boardroom/Boardroom.sol\":7561:7642  members[msg.sender].epochTimerStart.add(withdrawLockupEpochs) <= treasury.epoch() */\n      gt\n      iszero\n        /* \"brownie_projects/bebu_finance/contracts/Boardroom/Boardroom.sol\":7553:7682  require(members[msg.sender].epochTimerStart.add(withdrawLockupEpochs) <= treasury.epoch(), \"Boardroom: still in withdraw lockup\") */\n      tag_240\n      jumpi\n      mload(0x40)\n      shl(0xe5, 0x461bcd)\n      dup2\n      mstore\n        /* \"#utility.yul\":5754:5756   */\n      0x20\n        /* \"brownie_projects/bebu_finance/contracts/Boardroom/Boardroom.sol\":7553:7682  require(members[msg.sender].epochTimerStart.add(withdrawLockupEpochs) <= treasury.epoch(), \"Boardroom: still in withdraw lockup\") */\n      0x04\n      dup3\n      add\n        /* \"#utility.yul\":5736:5757   */\n      mstore\n        /* \"#utility.yul\":5793:5795   */\n      0x23\n        /* \"#utility.yul\":5773:5791   */\n      0x24\n      dup3\n      add\n        /* \"#utility.yul\":5766:5796   */\n      mstore\n        /* \"#utility.yul\":5832:5866   */\n      0x426f617264726f6f6d3a207374696c6c20696e207769746864726177206c6f63\n        /* \"#utility.yul\":5812:5830   */\n      0x44\n      dup3\n      add\n        /* \"#utility.yul\":5805:5867   */\n      mstore\n      shl(0xec, 0x06b757)\n        /* \"#utility.yul\":5883:5901   */\n      0x64\n      dup3\n      add\n        /* \"#utility.yul\":5876:5909   */\n      mstore\n        /* \"#utility.yul\":5926:5945   */\n      0x84\n      add\n        /* \"brownie_projects/bebu_finance/contracts/Boardroom/Boardroom.sol\":7553:7682  require(members[msg.sender].epochTimerStart.add(withdrawLockupEpochs) <= treasury.epoch(), \"Boardroom: still in withdraw lockup\") */\n      tag_213\n        /* \"#utility.yul\":5552:5951   */\n      jump\n        /* \"brownie_projects/bebu_finance/contracts/Boardroom/Boardroom.sol\":7553:7682  require(members[msg.sender].epochTimerStart.add(withdrawLockupEpochs) <= treasury.epoch(), \"Boardroom: still in withdraw lockup\") */\n    tag_240:\n        /* \"brownie_projects/bebu_finance/contracts/Boardroom/Boardroom.sol\":7692:7705  claimReward() */\n      tag_243\n        /* \"brownie_projects/bebu_finance/contracts/Boardroom/Boardroom.sol\":7692:7703  claimReward */\n      tag_156\n        /* \"brownie_projects/bebu_finance/contracts/Boardroom/Boardroom.sol\":7692:7705  claimReward() */\n      jump\t// in\n    tag_243:\n        /* \"brownie_projects/bebu_finance/contracts/Boardroom/Boardroom.sol\":7715:7737  super.withdraw(amount) */\n      tag_244\n        /* \"brownie_projects/bebu_finance/contracts/Boardroom/Boardroom.sol\":7730:7736  amount */\n      dup3\n        /* \"brownie_projects/bebu_finance/contracts/Boardroom/Boardroom.sol\":7715:7729  super.withdraw */\n      tag_245\n        /* \"brownie_projects/bebu_finance/contracts/Boardroom/Boardroom.sol\":7715:7737  super.withdraw(amount) */\n      jump\t// in\n    tag_244:\n        /* \"brownie_projects/bebu_finance/contracts/Boardroom/Boardroom.sol\":7752:7781  Withdrawn(msg.sender, amount) */\n      mload(0x40)\n        /* \"#utility.yul\":548:573   */\n      dup3\n      dup2\n      mstore\n        /* \"brownie_projects/bebu_finance/contracts/Boardroom/Boardroom.sol\":7762:7772  msg.sender */\n      caller\n      swap1\n        /* \"brownie_projects/bebu_finance/contracts/Boardroom/Boardroom.sol\":7752:7781  Withdrawn(msg.sender, amount) */\n      0x7084f5476618d8e60b11ef0d7d3f06914655adb8793e28ff7f018d4c76d505d5\n      swap1\n        /* \"#utility.yul\":536:538   */\n      0x20\n        /* \"#utility.yul\":521:539   */\n      add\n        /* \"brownie_projects/bebu_finance/contracts/Boardroom/Boardroom.sol\":7752:7781  Withdrawn(msg.sender, amount) */\n    tag_246:\n      mload(0x40)\n      dup1\n      swap2\n      sub\n      swap1\n      log2\n        /* \"brownie_projects/bebu_finance/contracts/Boardroom/Boardroom.sol\":2401:2402  _ */\n      pop\n        /* \"brownie_projects/bebu_finance/contracts/Boardroom/Boardroom.sol\":7318:7788  function withdraw(uint256 amount) public override onlyOneBlock memberExists updateReward(msg.sender) {... */\n      pop\n      jump\t// out\n        /* \"brownie_projects/bebu_finance/contracts/Boardroom/Boardroom.sol\":3752:4110  function setLockUp(uint256 _withdrawLockupEpochs, uint256 _rewardLockupEpochs) external onlyOperator {... */\n    tag_91:\n        /* \"brownie_projects/bebu_finance/contracts/Boardroom/Boardroom.sol\":2195:2203  operator */\n      and(sub(shl(0xa0, 0x01), 0x01), sload(0x04))\n        /* \"brownie_projects/bebu_finance/contracts/Boardroom/Boardroom.sol\":2207:2217  msg.sender */\n      caller\n        /* \"brownie_projects/bebu_finance/contracts/Boardroom/Boardroom.sol\":2195:2217  operator == msg.sender */\n      eq\n        /* \"brownie_projects/bebu_finance/contracts/Boardroom/Boardroom.sol\":2187:2259  require(operator == msg.sender, \"Boardroom: caller is not the operator\") */\n      tag_248\n      jumpi\n      mload(0x40)\n      shl(0xe5, 0x461bcd)\n      dup2\n      mstore\n      0x04\n      add\n      tag_213\n      swap1\n      tag_250\n      jump\t// in\n    tag_248:\n        /* \"brownie_projects/bebu_finance/contracts/Boardroom/Boardroom.sol\":3896:3915  _rewardLockupEpochs */\n      dup1\n        /* \"brownie_projects/bebu_finance/contracts/Boardroom/Boardroom.sol\":3871:3892  _withdrawLockupEpochs */\n      dup3\n        /* \"brownie_projects/bebu_finance/contracts/Boardroom/Boardroom.sol\":3871:3915  _withdrawLockupEpochs >= _rewardLockupEpochs */\n      lt\n      iszero\n        /* \"brownie_projects/bebu_finance/contracts/Boardroom/Boardroom.sol\":3871:3946  _withdrawLockupEpochs >= _rewardLockupEpochs && _withdrawLockupEpochs <= 56 */\n      dup1\n      iszero\n      tag_252\n      jumpi\n      pop\n        /* \"brownie_projects/bebu_finance/contracts/Boardroom/Boardroom.sol\":3944:3946  56 */\n      0x38\n        /* \"brownie_projects/bebu_finance/contracts/Boardroom/Boardroom.sol\":3919:3940  _withdrawLockupEpochs */\n      dup3\n        /* \"brownie_projects/bebu_finance/contracts/Boardroom/Boardroom.sol\":3919:3946  _withdrawLockupEpochs <= 56 */\n      gt\n      iszero\n        /* \"brownie_projects/bebu_finance/contracts/Boardroom/Boardroom.sol\":3871:3946  _withdrawLockupEpochs >= _rewardLockupEpochs && _withdrawLockupEpochs <= 56 */\n    tag_252:\n        /* \"brownie_projects/bebu_finance/contracts/Boardroom/Boardroom.sol\":3863:3986  require(_withdrawLockupEpochs >= _rewardLockupEpochs && _withdrawLockupEpochs <= 56, \"_withdrawLockupEpochs: out of range\") */\n      tag_253\n      jumpi\n      mload(0x40)\n      shl(0xe5, 0x461bcd)\n      dup2\n      mstore\n        /* \"#utility.yul\":6564:6566   */\n      0x20\n        /* \"brownie_projects/bebu_finance/contracts/Boardroom/Boardroom.sol\":3863:3986  require(_withdrawLockupEpochs >= _rewardLockupEpochs && _withdrawLockupEpochs <= 56, \"_withdrawLockupEpochs: out of range\") */\n      0x04\n      dup3\n      add\n        /* \"#utility.yul\":6546:6567   */\n      mstore\n        /* \"#utility.yul\":6603:6605   */\n      0x23\n        /* \"#utility.yul\":6583:6601   */\n      0x24\n      dup3\n      add\n        /* \"#utility.yul\":6576:6606   */\n      mstore\n        /* \"#utility.yul\":6642:6676   */\n      0x5f77697468647261774c6f636b757045706f6368733a206f7574206f66207261\n        /* \"#utility.yul\":6622:6640   */\n      0x44\n      dup3\n      add\n        /* \"#utility.yul\":6615:6677   */\n      mstore\n      shl(0xe8, 0x6e6765)\n        /* \"#utility.yul\":6693:6711   */\n      0x64\n      dup3\n      add\n        /* \"#utility.yul\":6686:6719   */\n      mstore\n        /* \"#utility.yul\":6736:6755   */\n      0x84\n      add\n        /* \"brownie_projects/bebu_finance/contracts/Boardroom/Boardroom.sol\":3863:3986  require(_withdrawLockupEpochs >= _rewardLockupEpochs && _withdrawLockupEpochs <= 56, \"_withdrawLockupEpochs: out of range\") */\n      tag_213\n        /* \"#utility.yul\":6362:6761   */\n      jump\n        /* \"brownie_projects/bebu_finance/contracts/Boardroom/Boardroom.sol\":3863:3986  require(_withdrawLockupEpochs >= _rewardLockupEpochs && _withdrawLockupEpochs <= 56, \"_withdrawLockupEpochs: out of range\") */\n    tag_253:\n        /* \"brownie_projects/bebu_finance/contracts/Boardroom/Boardroom.sol\":4009:4029  withdrawLockupEpochs */\n      0x0a\n        /* \"brownie_projects/bebu_finance/contracts/Boardroom/Boardroom.sol\":4009:4053  withdrawLockupEpochs = _withdrawLockupEpochs */\n      swap2\n      swap1\n      swap2\n      sstore\n        /* \"brownie_projects/bebu_finance/contracts/Boardroom/Boardroom.sol\":4063:4081  rewardLockupEpochs */\n      0x0b\n        /* \"brownie_projects/bebu_finance/contracts/Boardroom/Boardroom.sol\":4063:4103  rewardLockupEpochs = _rewardLockupEpochs */\n      sstore\n        /* \"brownie_projects/bebu_finance/contracts/Boardroom/Boardroom.sol\":3752:4110  function setLockUp(uint256 _withdrawLockupEpochs, uint256 _rewardLockupEpochs) external onlyOperator {... */\n      jump\t// out\n        /* \"brownie_projects/bebu_finance/contracts/Boardroom/Boardroom.sol\":4998:5113  function latestSnapshotIndex() public view returns (uint256) {... */\n    tag_93:\n        /* \"brownie_projects/bebu_finance/contracts/Boardroom/Boardroom.sol\":5076:5092  boardroomHistory */\n      0x09\n        /* \"brownie_projects/bebu_finance/contracts/Boardroom/Boardroom.sol\":5076:5099  boardroomHistory.length */\n      sload\n        /* \"brownie_projects/bebu_finance/contracts/Boardroom/Boardroom.sol\":5050:5057  uint256 */\n      0x00\n      swap1\n        /* \"brownie_projects/bebu_finance/contracts/Boardroom/Boardroom.sol\":5076:5106  boardroomHistory.length.sub(1) */\n      tag_257\n      swap1\n        /* \"brownie_projects/bebu_finance/contracts/Boardroom/Boardroom.sol\":5104:5105  1 */\n      0x01\n        /* \"brownie_projects/bebu_finance/contracts/Boardroom/Boardroom.sol\":5076:5103  boardroomHistory.length.sub */\n      tag_192\n        /* \"brownie_projects/bebu_finance/contracts/Boardroom/Boardroom.sol\":5076:5106  boardroomHistory.length.sub(1) */\n      jump\t// in\n    tag_257:\n        /* \"brownie_projects/bebu_finance/contracts/Boardroom/Boardroom.sol\":5069:5106  return boardroomHistory.length.sub(1) */\n      swap1\n      pop\n        /* \"brownie_projects/bebu_finance/contracts/Boardroom/Boardroom.sol\":4998:5113  function latestSnapshotIndex() public view returns (uint256) {... */\n      swap1\n      jump\t// out\n        /* \"brownie_projects/bebu_finance/contracts/Boardroom/Boardroom.sol\":6278:6392  function rewardPerShare() public view returns (uint256) {... */\n    tag_96:\n        /* \"brownie_projects/bebu_finance/contracts/Boardroom/Boardroom.sol\":6325:6332  uint256 */\n      0x00\n        /* \"brownie_projects/bebu_finance/contracts/Boardroom/Boardroom.sol\":6351:6370  getLatestSnapshot() */\n      tag_259\n        /* \"brownie_projects/bebu_finance/contracts/Boardroom/Boardroom.sol\":6351:6368  getLatestSnapshot */\n      tag_185\n        /* \"brownie_projects/bebu_finance/contracts/Boardroom/Boardroom.sol\":6351:6370  getLatestSnapshot() */\n      jump\t// in\n    tag_259:\n        /* \"brownie_projects/bebu_finance/contracts/Boardroom/Boardroom.sol\":6351:6385  getLatestSnapshot().rewardPerShare */\n      0x40\n      add\n      mload\n        /* \"brownie_projects/bebu_finance/contracts/Boardroom/Boardroom.sol\":6344:6385  return getLatestSnapshot().rewardPerShare */\n      swap1\n      pop\n        /* \"brownie_projects/bebu_finance/contracts/Boardroom/Boardroom.sol\":6278:6392  function rewardPerShare() public view returns (uint256) {... */\n      swap1\n      jump\t// out\n        /* \"brownie_projects/bebu_finance/contracts/Boardroom/Boardroom.sol\":6132:6237  function getTokenPrice() external view returns (uint256) {... */\n    tag_99:\n        /* \"brownie_projects/bebu_finance/contracts/Boardroom/Boardroom.sol\":6206:6214  treasury */\n      sload(0x06)\n        /* \"brownie_projects/bebu_finance/contracts/Boardroom/Boardroom.sol\":6206:6230  treasury.getTokenPrice() */\n      0x40\n      dup1\n      mload\n      shl(0xe1, 0x25ca7a87)\n      dup2\n      mstore\n      swap1\n      mload\n        /* \"brownie_projects/bebu_finance/contracts/Boardroom/Boardroom.sol\":6180:6187  uint256 */\n      0x00\n      swap3\n      sub(shl(0xa0, 0x01), 0x01)\n        /* \"brownie_projects/bebu_finance/contracts/Boardroom/Boardroom.sol\":6206:6214  treasury */\n      and\n      swap2\n        /* \"brownie_projects/bebu_finance/contracts/Boardroom/Boardroom.sol\":6206:6228  treasury.getTokenPrice */\n      0x4b94f50e\n      swap2\n        /* \"brownie_projects/bebu_finance/contracts/Boardroom/Boardroom.sol\":6206:6230  treasury.getTokenPrice() */\n      0x04\n      dup1\n      dup4\n      add\n      swap3\n      0x20\n      swap3\n      swap2\n      swap1\n      dup3\n      swap1\n      sub\n      add\n      dup2\n        /* \"brownie_projects/bebu_finance/contracts/Boardroom/Boardroom.sol\":6206:6214  treasury */\n      dup7\n        /* \"brownie_projects/bebu_finance/contracts/Boardroom/Boardroom.sol\":6206:6230  treasury.getTokenPrice() */\n      gas\n      staticcall\n      iszero\n      dup1\n      iszero\n      tag_262\n      jumpi\n      returndatasize\n      0x00\n      dup1\n      returndatacopy\n      revert(0x00, returndatasize)\n    tag_262:\n      pop\n      pop\n      pop\n      pop\n      mload(0x40)\n      returndatasize\n      not(0x1f)\n      0x1f\n      dup3\n      add\n      and\n      dup3\n      add\n      dup1\n      0x40\n      mstore\n      pop\n      dup2\n      add\n      swap1\n      tag_257\n      swap2\n      swap1\n      tag_201\n      jump\t// in\n        /* \"brownie_projects/bebu_finance/contracts/Boardroom/Boardroom.sol\":2880:3641  function initialize(... */\n    tag_104:\n        /* \"brownie_projects/bebu_finance/contracts/Boardroom/Boardroom.sol\":2766:2777  initialized */\n      sload(0x04)\n      shl(0xa0, 0x01)\n      swap1\n      div\n      0xff\n      and\n        /* \"brownie_projects/bebu_finance/contracts/Boardroom/Boardroom.sol\":2765:2777  !initialized */\n      iszero\n        /* \"brownie_projects/bebu_finance/contracts/Boardroom/Boardroom.sol\":2757:2812  require(!initialized, \"Boardroom: already initialized\") */\n      tag_265\n      jumpi\n      mload(0x40)\n      shl(0xe5, 0x461bcd)\n      dup2\n      mstore\n        /* \"#utility.yul\":6968:6970   */\n      0x20\n        /* \"brownie_projects/bebu_finance/contracts/Boardroom/Boardroom.sol\":2757:2812  require(!initialized, \"Boardroom: already initialized\") */\n      0x04\n      dup3\n      add\n        /* \"#utility.yul\":6950:6971   */\n      mstore\n        /* \"#utility.yul\":7007:7009   */\n      0x1e\n        /* \"#utility.yul\":6987:7005   */\n      0x24\n      dup3\n      add\n        /* \"#utility.yul\":6980:7010   */\n      mstore\n        /* \"#utility.yul\":7046:7078   */\n      0x426f617264726f6f6d3a20616c726561647920696e697469616c697a65640000\n        /* \"#utility.yul\":7026:7044   */\n      0x44\n      dup3\n      add\n        /* \"#utility.yul\":7019:7079   */\n      mstore\n        /* \"#utility.yul\":7096:7114   */\n      0x64\n      add\n        /* \"brownie_projects/bebu_finance/contracts/Boardroom/Boardroom.sol\":2757:2812  require(!initialized, \"Boardroom: already initialized\") */\n      tag_213\n        /* \"#utility.yul\":6766:7120   */\n      jump\n        /* \"brownie_projects/bebu_finance/contracts/Boardroom/Boardroom.sol\":2757:2812  require(!initialized, \"Boardroom: already initialized\") */\n    tag_265:\n        /* \"brownie_projects/bebu_finance/contracts/Boardroom/Boardroom.sol\":3059:3064  token */\n      0x05\n        /* \"brownie_projects/bebu_finance/contracts/Boardroom/Boardroom.sol\":3059:3073  token = _token */\n      dup1\n      sload\n      sub(shl(0xa0, 0x01), 0x01)\n      dup8\n      dup2\n      and\n      not(sub(shl(0xa0, 0x01), 0x01))\n      swap3\n      dup4\n      and\n      or\n      swap1\n      swap3\n      sstore\n      0x00\n        /* \"brownie_projects/bebu_finance/contracts/Boardroom/Boardroom.sol\":3083:3097  share = _share */\n      dup1\n      sload\n      dup8\n      dup5\n      and\n      swap1\n      dup4\n      and\n      or\n      dup2\n      sstore\n        /* \"brownie_projects/bebu_finance/contracts/Boardroom/Boardroom.sol\":3107:3115  treasury */\n      0x06\n        /* \"brownie_projects/bebu_finance/contracts/Boardroom/Boardroom.sol\":3107:3127  treasury = _treasury */\n      dup1\n      sload\n      dup8\n      dup6\n      and\n      swap1\n      dup5\n      and\n      or\n      dup2\n      sstore\n        /* \"brownie_projects/bebu_finance/contracts/Boardroom/Boardroom.sol\":3137:3140  fee */\n      0x0c\n        /* \"brownie_projects/bebu_finance/contracts/Boardroom/Boardroom.sol\":3137:3147  fee = _fee */\n      dup7\n      swap1\n      sstore\n        /* \"brownie_projects/bebu_finance/contracts/Boardroom/Boardroom.sol\":3157:3162  feeTo */\n      0x0d\n        /* \"brownie_projects/bebu_finance/contracts/Boardroom/Boardroom.sol\":3157:3171  feeTo = _feeTo */\n      dup1\n      sload\n      swap5\n      dup7\n      and\n      swap5\n      swap1\n      swap4\n      and\n      swap4\n      swap1\n      swap4\n      or\n      swap1\n      swap2\n      sstore\n        /* \"brownie_projects/bebu_finance/contracts/Boardroom/Boardroom.sol\":3225:3302  BoardroomSnapshot({time: block.number, rewardReceived: 0, rewardPerShare: 0}) */\n      0x40\n      dup1\n      mload\n      0x60\n      dup2\n      add\n      dup3\n      mstore\n        /* \"brownie_projects/bebu_finance/contracts/Boardroom/Boardroom.sol\":3250:3262  block.number */\n      number\n        /* \"brownie_projects/bebu_finance/contracts/Boardroom/Boardroom.sol\":3225:3302  BoardroomSnapshot({time: block.number, rewardReceived: 0, rewardPerShare: 0}) */\n      dup1\n      dup3\n      mstore\n      0x20\n      dup1\n      dup4\n      add\n      dup6\n      dup2\n      mstore\n      dup4\n      dup6\n      add\n      dup7\n      dup2\n      mstore\n        /* \"brownie_projects/bebu_finance/contracts/Boardroom/Boardroom.sol\":3312:3328  boardroomHistory */\n      0x09\n        /* \"brownie_projects/bebu_finance/contracts/Boardroom/Boardroom.sol\":3312:3350  boardroomHistory.push(genesisSnapshot) */\n      dup1\n      sload\n      0x01\n      dup2\n      add\n      dup3\n      sstore\n      swap8\n      mstore\n      dup5\n      mload\n      0x03\n      swap8\n      dup9\n      mul\n      0x6e1540171b6c0c960b71a7020d9f60077f6af931a8bbf590da0223dacf75c7af\n      dup2\n      add\n      swap2\n      swap1\n      swap2\n      sstore\n      swap2\n      mload\n      0x6e1540171b6c0c960b71a7020d9f60077f6af931a8bbf590da0223dacf75c7b0\n      dup4\n      add\n      sstore\n      mload\n      0x6e1540171b6c0c960b71a7020d9f60077f6af931a8bbf590da0223dacf75c7b1\n      swap1\n      swap2\n      add\n      sstore\n        /* \"brownie_projects/bebu_finance/contracts/Boardroom/Boardroom.sol\":3361:3381  withdrawLockupEpochs */\n      0x0a\n        /* \"brownie_projects/bebu_finance/contracts/Boardroom/Boardroom.sol\":3361:3385  withdrawLockupEpochs = 6 */\n      swap6\n      swap1\n      swap6\n      sstore\n        /* \"brownie_projects/bebu_finance/contracts/Boardroom/Boardroom.sol\":3446:3464  rewardLockupEpochs */\n      0x0b\n        /* \"brownie_projects/bebu_finance/contracts/Boardroom/Boardroom.sol\":3446:3468  rewardLockupEpochs = 3 */\n      swap4\n      swap1\n      swap4\n      sstore\n      0x04\n        /* \"brownie_projects/bebu_finance/contracts/Boardroom/Boardroom.sol\":3533:3551  initialized = true */\n      dup1\n      sload\n      not(sub(shl(0xa8, 0x01), 0x01))\n        /* \"brownie_projects/bebu_finance/contracts/Boardroom/Boardroom.sol\":3561:3582  operator = msg.sender */\n      and\n        /* \"brownie_projects/bebu_finance/contracts/Boardroom/Boardroom.sol\":3572:3582  msg.sender */\n      caller\n        /* \"brownie_projects/bebu_finance/contracts/Boardroom/Boardroom.sol\":3561:3582  operator = msg.sender */\n      swap1\n      dup2\n      or\n      shl(0xa0, 0x01)\n      or\n      swap1\n      swap2\n      sstore\n        /* \"brownie_projects/bebu_finance/contracts/Boardroom/Boardroom.sol\":3597:3634  Initialized(msg.sender, block.number) */\n      swap2\n      mload\n        /* \"#utility.yul\":548:573   */\n      swap3\n      dup4\n      mstore\n        /* \"brownie_projects/bebu_finance/contracts/Boardroom/Boardroom.sol\":3225:3302  BoardroomSnapshot({time: block.number, rewardReceived: 0, rewardPerShare: 0}) */\n      swap3\n        /* \"brownie_projects/bebu_finance/contracts/Boardroom/Boardroom.sol\":3572:3582  msg.sender */\n      swap1\n      swap2\n        /* \"brownie_projects/bebu_finance/contracts/Boardroom/Boardroom.sol\":3597:3634  Initialized(msg.sender, block.number) */\n      0x25ff68dd81b34665b5ba7e553ee5511bf6812e12adb4a7e2c0d9e26b3099ce79\n      swap2\n        /* \"#utility.yul\":521:539   */\n      add\n        /* \"brownie_projects/bebu_finance/contracts/Boardroom/Boardroom.sol\":3597:3634  Initialized(msg.sender, block.number) */\n      mload(0x40)\n      dup1\n      swap2\n      sub\n      swap1\n      log2\n        /* \"brownie_projects/bebu_finance/contracts/Boardroom/Boardroom.sol\":3049:3641  {... */\n      pop\n        /* \"brownie_projects/bebu_finance/contracts/Boardroom/Boardroom.sol\":2880:3641  function initialize(... */\n      pop\n      pop\n      pop\n      pop\n      pop\n      jump\t// out\n        /* \"brownie_projects/bebu_finance/contracts/Boardroom/Boardroom.sol\":9186:9995  function blacklistFundWithdraw(address _address, address _to) external onlyOperator {... */\n    tag_108:\n        /* \"brownie_projects/bebu_finance/contracts/Boardroom/Boardroom.sol\":2195:2203  operator */\n      and(sub(shl(0xa0, 0x01), 0x01), sload(0x04))\n        /* \"brownie_projects/bebu_finance/contracts/Boardroom/Boardroom.sol\":2207:2217  msg.sender */\n      caller\n        /* \"brownie_projects/bebu_finance/contracts/Boardroom/Boardroom.sol\":2195:2217  operator == msg.sender */\n      eq\n        /* \"brownie_projects/bebu_finance/contracts/Boardroom/Boardroom.sol\":2187:2259  require(operator == msg.sender, \"Boardroom: caller is not the operator\") */\n      tag_272\n      jumpi\n      mload(0x40)\n      shl(0xe5, 0x461bcd)\n      dup2\n      mstore\n      0x04\n      add\n      tag_213\n      swap1\n      tag_250\n      jump\t// in\n    tag_272:\n        /* \"brownie_projects/bebu_finance/contracts/Boardroom/Boardroom.sol\":9288:9316  isAddressBlacklist(_address) */\n      tag_275\n        /* \"brownie_projects/bebu_finance/contracts/Boardroom/Boardroom.sol\":9307:9315  _address */\n      dup3\n        /* \"brownie_projects/bebu_finance/contracts/Boardroom/Boardroom.sol\":9288:9306  isAddressBlacklist */\n      tag_166\n        /* \"brownie_projects/bebu_finance/contracts/Boardroom/Boardroom.sol\":9288:9316  isAddressBlacklist(_address) */\n      jump\t// in\n    tag_275:\n        /* \"brownie_projects/bebu_finance/contracts/Boardroom/Boardroom.sol\":9280:9349  require(isAddressBlacklist(_address), \"address not in the blacklist\") */\n      tag_276\n      jumpi\n      mload(0x40)\n      shl(0xe5, 0x461bcd)\n      dup2\n      mstore\n        /* \"#utility.yul\":7327:7329   */\n      0x20\n        /* \"brownie_projects/bebu_finance/contracts/Boardroom/Boardroom.sol\":9280:9349  require(isAddressBlacklist(_address), \"address not in the blacklist\") */\n      0x04\n      dup3\n      add\n        /* \"#utility.yul\":7309:7330   */\n      mstore\n        /* \"#utility.yul\":7366:7368   */\n      0x1c\n        /* \"#utility.yul\":7346:7364   */\n      0x24\n      dup3\n      add\n        /* \"#utility.yul\":7339:7369   */\n      mstore\n        /* \"#utility.yul\":7405:7435   */\n      0x61646472657373206e6f7420696e2074686520626c61636b6c69737400000000\n        /* \"#utility.yul\":7385:7403   */\n      0x44\n      dup3\n      add\n        /* \"#utility.yul\":7378:7436   */\n      mstore\n        /* \"#utility.yul\":7453:7471   */\n      0x64\n      add\n        /* \"brownie_projects/bebu_finance/contracts/Boardroom/Boardroom.sol\":9280:9349  require(isAddressBlacklist(_address), \"address not in the blacklist\") */\n      tag_213\n        /* \"#utility.yul\":7125:7477   */\n      jump\n        /* \"brownie_projects/bebu_finance/contracts/Boardroom/Boardroom.sol\":9280:9349  require(isAddressBlacklist(_address), \"address not in the blacklist\") */\n    tag_276:\n      sub(shl(0xa0, 0x01), 0x01)\n        /* \"brownie_projects/bebu_finance/contracts/Boardroom/Boardroom.sol\":9381:9400  _balances[_address] */\n      dup3\n      and\n        /* \"brownie_projects/bebu_finance/contracts/Boardroom/Boardroom.sol\":9359:9378  uint256 memberShare */\n      0x00\n        /* \"brownie_projects/bebu_finance/contracts/Boardroom/Boardroom.sol\":9381:9400  _balances[_address] */\n      swap1\n      dup2\n      mstore\n        /* \"brownie_projects/bebu_finance/contracts/Boardroom/Boardroom.sol\":9381:9390  _balances */\n      0x02\n        /* \"brownie_projects/bebu_finance/contracts/Boardroom/Boardroom.sol\":9381:9400  _balances[_address] */\n      0x20\n      mstore\n      0x40\n      swap1\n      keccak256\n      sload\n        /* \"brownie_projects/bebu_finance/contracts/Boardroom/Boardroom.sol\":9418:9433  memberShare > 0 */\n      dup1\n        /* \"brownie_projects/bebu_finance/contracts/Boardroom/Boardroom.sol\":9410:9466  require(memberShare > 0, \"Boardroom: Cannot withdraw 0\") */\n      tag_279\n      jumpi\n      mload(0x40)\n      shl(0xe5, 0x461bcd)\n      dup2\n      mstore\n        /* \"#utility.yul\":5397:5399   */\n      0x20\n        /* \"brownie_projects/bebu_finance/contracts/Boardroom/Boardroom.sol\":9410:9466  require(memberShare > 0, \"Boardroom: Cannot withdraw 0\") */\n      0x04\n      dup3\n      add\n        /* \"#utility.yul\":5379:5400   */\n      mstore\n        /* \"#utility.yul\":5436:5438   */\n      0x1c\n        /* \"#utility.yul\":5416:5434   */\n      0x24\n      dup3\n      add\n        /* \"#utility.yul\":5409:5439   */\n      mstore\n        /* \"#utility.yul\":5475:5505   */\n      0x426f617264726f6f6d3a2043616e6e6f74207769746864726177203000000000\n        /* \"#utility.yul\":5455:5473   */\n      0x44\n      dup3\n      add\n        /* \"#utility.yul\":5448:5506   */\n      mstore\n        /* \"#utility.yul\":5523:5541   */\n      0x64\n      add\n        /* \"brownie_projects/bebu_finance/contracts/Boardroom/Boardroom.sol\":9410:9466  require(memberShare > 0, \"Boardroom: Cannot withdraw 0\") */\n      tag_213\n        /* \"#utility.yul\":5195:5547   */\n      jump\n        /* \"brownie_projects/bebu_finance/contracts/Boardroom/Boardroom.sol\":9410:9466  require(memberShare > 0, \"Boardroom: Cannot withdraw 0\") */\n    tag_279:\n      sub(shl(0xa0, 0x01), 0x01)\n        /* \"brownie_projects/bebu_finance/contracts/Boardroom/Boardroom.sol\":9493:9510  members[_address] */\n      dup4\n      and\n        /* \"brownie_projects/bebu_finance/contracts/Boardroom/Boardroom.sol\":9476:9490  uint256 reward */\n      0x00\n        /* \"brownie_projects/bebu_finance/contracts/Boardroom/Boardroom.sol\":9493:9510  members[_address] */\n      swap1\n      dup2\n      mstore\n        /* \"brownie_projects/bebu_finance/contracts/Boardroom/Boardroom.sol\":9493:9500  members */\n      0x08\n        /* \"brownie_projects/bebu_finance/contracts/Boardroom/Boardroom.sol\":9493:9510  members[_address] */\n      0x20\n      mstore\n      0x40\n      swap1\n      keccak256\n        /* \"brownie_projects/bebu_finance/contracts/Boardroom/Boardroom.sol\":9493:9523  members[_address].rewardEarned */\n      0x01\n      add\n      sload\n        /* \"brownie_projects/bebu_finance/contracts/Boardroom/Boardroom.sol\":9537:9547  reward > 0 */\n      dup1\n      iszero\n        /* \"brownie_projects/bebu_finance/contracts/Boardroom/Boardroom.sol\":9533:9795  if (reward > 0) {... */\n      tag_281\n      jumpi\n        /* \"brownie_projects/bebu_finance/contracts/Boardroom/Boardroom.sol\":9599:9607  treasury */\n      0x06\n      0x00\n      swap1\n      sload\n      swap1\n      0x0100\n      exp\n      swap1\n      div\n      sub(shl(0xa0, 0x01), 0x01)\n      and\n      sub(shl(0xa0, 0x01), 0x01)\n        /* \"brownie_projects/bebu_finance/contracts/Boardroom/Boardroom.sol\":9599:9613  treasury.epoch */\n      and\n      0x900cf0cf\n        /* \"brownie_projects/bebu_finance/contracts/Boardroom/Boardroom.sol\":9599:9615  treasury.epoch() */\n      mload(0x40)\n      dup2\n      0xffffffff\n      and\n      0xe0\n      shl\n      dup2\n      mstore\n      0x04\n      add\n      0x20\n      mload(0x40)\n      dup1\n      dup4\n      sub\n      dup2\n      dup7\n      gas\n      staticcall\n      iszero\n      dup1\n      iszero\n      tag_283\n      jumpi\n      returndatasize\n      0x00\n      dup1\n      returndatacopy\n      revert(0x00, returndatasize)\n    tag_283:\n      pop\n      pop\n      pop\n      pop\n      mload(0x40)\n      returndatasize\n      not(0x1f)\n      0x1f\n      dup3\n      add\n      and\n      dup3\n      add\n      dup1\n      0x40\n      mstore\n      pop\n      dup2\n      add\n      swap1\n      tag_284\n      swap2\n      swap1\n      tag_201\n      jump\t// in\n    tag_284:\n      sub(shl(0xa0, 0x01), 0x01)\n        /* \"brownie_projects/bebu_finance/contracts/Boardroom/Boardroom.sol\":9563:9580  members[_address] */\n      dup1\n      dup7\n      and\n      0x00\n      swap1\n      dup2\n      mstore\n        /* \"brownie_projects/bebu_finance/contracts/Boardroom/Boardroom.sol\":9563:9570  members */\n      0x08\n        /* \"brownie_projects/bebu_finance/contracts/Boardroom/Boardroom.sol\":9563:9580  members[_address] */\n      0x20\n      mstore\n      0x40\n      dup2\n      keccak256\n        /* \"brownie_projects/bebu_finance/contracts/Boardroom/Boardroom.sol\":9563:9596  members[_address].epochTimerStart */\n      0x02\n      dup2\n      add\n        /* \"brownie_projects/bebu_finance/contracts/Boardroom/Boardroom.sol\":9563:9615  members[_address].epochTimerStart = treasury.epoch() */\n      swap4\n      swap1\n      swap4\n      sstore\n        /* \"brownie_projects/bebu_finance/contracts/Boardroom/Boardroom.sol\":9644:9674  members[_address].rewardEarned */\n      0x01\n      swap1\n      swap3\n      add\n        /* \"brownie_projects/bebu_finance/contracts/Boardroom/Boardroom.sol\":9644:9678  members[_address].rewardEarned = 0 */\n      swap2\n      swap1\n      swap2\n      sstore\n        /* \"brownie_projects/bebu_finance/contracts/Boardroom/Boardroom.sol\":9692:9697  token */\n      sload(0x05)\n        /* \"brownie_projects/bebu_finance/contracts/Boardroom/Boardroom.sol\":9692:9723  token.safeTransfer(_to, reward) */\n      tag_285\n      swap2\n        /* \"brownie_projects/bebu_finance/contracts/Boardroom/Boardroom.sol\":9692:9697  token */\n      and\n        /* \"brownie_projects/bebu_finance/contracts/Boardroom/Boardroom.sol\":9711:9714  _to */\n      dup5\n        /* \"brownie_projects/bebu_finance/contracts/Boardroom/Boardroom.sol\":9716:9722  reward */\n      dup4\n        /* \"brownie_projects/bebu_finance/contracts/Boardroom/Boardroom.sol\":9692:9710  token.safeTransfer */\n      tag_286\n        /* \"brownie_projects/bebu_finance/contracts/Boardroom/Boardroom.sol\":9692:9723  token.safeTransfer(_to, reward) */\n      jump\t// in\n    tag_285:\n        /* \"brownie_projects/bebu_finance/contracts/Boardroom/Boardroom.sol\":9772:9775  _to */\n      dup3\n      sub(shl(0xa0, 0x01), 0x01)\n        /* \"brownie_projects/bebu_finance/contracts/Boardroom/Boardroom.sol\":9742:9784  BlacklistRewardPaid(_address, _to, reward) */\n      and\n        /* \"brownie_projects/bebu_finance/contracts/Boardroom/Boardroom.sol\":9762:9770  _address */\n      dup5\n      sub(shl(0xa0, 0x01), 0x01)\n        /* \"brownie_projects/bebu_finance/contracts/Boardroom/Boardroom.sol\":9742:9784  BlacklistRewardPaid(_address, _to, reward) */\n      and\n      0x715576a45bd0ea6ca90a2f53c258fe52bdd30e6061046ce86ca3fa7e9f5a91be\n        /* \"brownie_projects/bebu_finance/contracts/Boardroom/Boardroom.sol\":9777:9783  reward */\n      dup4\n        /* \"brownie_projects/bebu_finance/contracts/Boardroom/Boardroom.sol\":9742:9784  BlacklistRewardPaid(_address, _to, reward) */\n      mload(0x40)\n      tag_287\n      swap2\n        /* \"#utility.yul\":548:573   */\n      dup2\n      mstore\n        /* \"#utility.yul\":536:538   */\n      0x20\n        /* \"#utility.yul\":521:539   */\n      add\n      swap1\n        /* \"#utility.yul\":402:579   */\n      jump\n        /* \"brownie_projects/bebu_finance/contracts/Boardroom/Boardroom.sol\":9742:9784  BlacklistRewardPaid(_address, _to, reward) */\n    tag_287:\n      mload(0x40)\n      dup1\n      swap2\n      sub\n      swap1\n      log3\n        /* \"brownie_projects/bebu_finance/contracts/Boardroom/Boardroom.sol\":9533:9795  if (reward > 0) {... */\n    tag_281:\n        /* \"brownie_projects/bebu_finance/contracts/Boardroom/Boardroom.sol\":9819:9831  _totalSupply */\n      sload(0x01)\n        /* \"brownie_projects/bebu_finance/contracts/Boardroom/Boardroom.sol\":9819:9848  _totalSupply.sub(memberShare) */\n      tag_288\n      swap1\n        /* \"brownie_projects/bebu_finance/contracts/Boardroom/Boardroom.sol\":9836:9847  memberShare */\n      dup4\n        /* \"brownie_projects/bebu_finance/contracts/Boardroom/Boardroom.sol\":9819:9835  _totalSupply.sub */\n      tag_192\n        /* \"brownie_projects/bebu_finance/contracts/Boardroom/Boardroom.sol\":9819:9848  _totalSupply.sub(memberShare) */\n      jump\t// in\n    tag_288:\n        /* \"brownie_projects/bebu_finance/contracts/Boardroom/Boardroom.sol\":9804:9816  _totalSupply */\n      0x01\n        /* \"brownie_projects/bebu_finance/contracts/Boardroom/Boardroom.sol\":9804:9848  _totalSupply = _totalSupply.sub(memberShare) */\n      sstore\n      sub(shl(0xa0, 0x01), 0x01)\n        /* \"brownie_projects/bebu_finance/contracts/Boardroom/Boardroom.sol\":9858:9877  _balances[_address] */\n      dup1\n      dup6\n      and\n        /* \"brownie_projects/bebu_finance/contracts/Boardroom/Boardroom.sol\":9880:9881  0 */\n      0x00\n        /* \"brownie_projects/bebu_finance/contracts/Boardroom/Boardroom.sol\":9858:9877  _balances[_address] */\n      swap1\n      dup2\n      mstore\n        /* \"brownie_projects/bebu_finance/contracts/Boardroom/Boardroom.sol\":9858:9867  _balances */\n      0x02\n        /* \"brownie_projects/bebu_finance/contracts/Boardroom/Boardroom.sol\":9858:9877  _balances[_address] */\n      0x20\n      mstore\n      0x40\n      dup2\n      keccak256\n        /* \"brownie_projects/bebu_finance/contracts/Boardroom/Boardroom.sol\":9858:9881  _balances[_address] = 0 */\n      dup2\n      swap1\n      sstore\n        /* \"brownie_projects/bebu_finance/contracts/Boardroom/Boardroom.sol\":9891:9896  share */\n      sload\n        /* \"brownie_projects/bebu_finance/contracts/Boardroom/Boardroom.sol\":9891:9927  share.safeTransfer(_to, memberShare) */\n      tag_289\n      swap2\n        /* \"brownie_projects/bebu_finance/contracts/Boardroom/Boardroom.sol\":9891:9896  share */\n      and\n        /* \"brownie_projects/bebu_finance/contracts/Boardroom/Boardroom.sol\":9910:9913  _to */\n      dup5\n        /* \"brownie_projects/bebu_finance/contracts/Boardroom/Boardroom.sol\":9915:9926  memberShare */\n      dup5\n        /* \"brownie_projects/bebu_finance/contracts/Boardroom/Boardroom.sol\":9891:9909  share.safeTransfer */\n      tag_286\n        /* \"brownie_projects/bebu_finance/contracts/Boardroom/Boardroom.sol\":9891:9927  share.safeTransfer(_to, memberShare) */\n      jump\t// in\n    tag_289:\n        /* \"brownie_projects/bebu_finance/contracts/Boardroom/Boardroom.sol\":9971:9974  _to */\n      dup3\n      sub(shl(0xa0, 0x01), 0x01)\n        /* \"brownie_projects/bebu_finance/contracts/Boardroom/Boardroom.sol\":9942:9988  BlacklistWithdrawn(_address, _to, memberShare) */\n      and\n        /* \"brownie_projects/bebu_finance/contracts/Boardroom/Boardroom.sol\":9961:9969  _address */\n      dup5\n      sub(shl(0xa0, 0x01), 0x01)\n        /* \"brownie_projects/bebu_finance/contracts/Boardroom/Boardroom.sol\":9942:9988  BlacklistWithdrawn(_address, _to, memberShare) */\n      and\n      0x345a298b5b7318863d2a616f67ae5329deb5255f9f90b5ebc73ee5ddcd81b180\n        /* \"brownie_projects/bebu_finance/contracts/Boardroom/Boardroom.sol\":9976:9987  memberShare */\n      dup5\n        /* \"brownie_projects/bebu_finance/contracts/Boardroom/Boardroom.sol\":9942:9988  BlacklistWithdrawn(_address, _to, memberShare) */\n      mload(0x40)\n      tag_290\n      swap2\n        /* \"#utility.yul\":548:573   */\n      dup2\n      mstore\n        /* \"#utility.yul\":536:538   */\n      0x20\n        /* \"#utility.yul\":521:539   */\n      add\n      swap1\n        /* \"#utility.yul\":402:579   */\n      jump\n        /* \"brownie_projects/bebu_finance/contracts/Boardroom/Boardroom.sol\":9942:9988  BlacklistWithdrawn(_address, _to, memberShare) */\n    tag_290:\n      mload(0x40)\n      dup1\n      swap2\n      sub\n      swap1\n      log3\n        /* \"brownie_projects/bebu_finance/contracts/Boardroom/Boardroom.sol\":9270:9995  {... */\n      pop\n      pop\n        /* \"brownie_projects/bebu_finance/contracts/Boardroom/Boardroom.sol\":9186:9995  function blacklistFundWithdraw(address _address, address _to) external onlyOperator {... */\n      pop\n      pop\n      jump\t// out\n        /* \"brownie_projects/bebu_finance/contracts/Boardroom/Boardroom.sol\":10001:10397  function governanceRecoverUnsupported(... */\n    tag_112:\n        /* \"brownie_projects/bebu_finance/contracts/Boardroom/Boardroom.sol\":2195:2203  operator */\n      and(sub(shl(0xa0, 0x01), 0x01), sload(0x04))\n        /* \"brownie_projects/bebu_finance/contracts/Boardroom/Boardroom.sol\":2207:2217  msg.sender */\n      caller\n        /* \"brownie_projects/bebu_finance/contracts/Boardroom/Boardroom.sol\":2195:2217  operator == msg.sender */\n      eq\n        /* \"brownie_projects/bebu_finance/contracts/Boardroom/Boardroom.sol\":2187:2259  require(operator == msg.sender, \"Boardroom: caller is not the operator\") */\n      tag_292\n      jumpi\n      mload(0x40)\n      shl(0xe5, 0x461bcd)\n      dup2\n      mstore\n      0x04\n      add\n      tag_213\n      swap1\n      tag_250\n      jump\t// in\n    tag_292:\n      sub(shl(0xa0, 0x01), 0x01)\n        /* \"brownie_projects/bebu_finance/contracts/Boardroom/Boardroom.sol\":10154:10171  _to != address(0) */\n      dup2\n      and\n        /* \"brownie_projects/bebu_finance/contracts/Boardroom/Boardroom.sol\":10146:10180  require(_to != address(0), \"zero\") */\n      tag_295\n      jumpi\n      mload(0x40)\n      shl(0xe5, 0x461bcd)\n      dup2\n      mstore\n      0x04\n      add\n      tag_213\n      swap1\n        /* \"#utility.yul\":7684:7686   */\n      0x20\n        /* \"#utility.yul\":7666:7687   */\n      dup1\n      dup3\n      mstore\n        /* \"#utility.yul\":7723:7724   */\n      0x04\n        /* \"#utility.yul\":7703:7721   */\n      swap1\n      dup3\n      add\n        /* \"#utility.yul\":7696:7725   */\n      mstore\n      shl(0xe0, 0x7a65726f)\n        /* \"#utility.yul\":7756:7758   */\n      0x40\n        /* \"#utility.yul\":7741:7759   */\n      dup3\n      add\n        /* \"#utility.yul\":7734:7768   */\n      mstore\n        /* \"#utility.yul\":7800:7802   */\n      0x60\n        /* \"#utility.yul\":7785:7803   */\n      add\n      swap1\n        /* \"#utility.yul\":7482:7809   */\n      jump\n        /* \"brownie_projects/bebu_finance/contracts/Boardroom/Boardroom.sol\":10146:10180  require(_to != address(0), \"zero\") */\n    tag_295:\n        /* \"brownie_projects/bebu_finance/contracts/Boardroom/Boardroom.sol\":10270:10275  token */\n      sload(0x05)\n      sub(shl(0xa0, 0x01), 0x01)\n      swap1\n      dup2\n      and\n        /* \"brownie_projects/bebu_finance/contracts/Boardroom/Boardroom.sol\":10243:10276  address(_token) != address(token) */\n      swap1\n      dup5\n      and\n      sub\n        /* \"brownie_projects/bebu_finance/contracts/Boardroom/Boardroom.sol\":10235:10286  require(address(_token) != address(token), \"token\") */\n      tag_298\n      jumpi\n      mload(0x40)\n      shl(0xe5, 0x461bcd)\n      dup2\n      mstore\n        /* \"#utility.yul\":8016:8018   */\n      0x20\n        /* \"brownie_projects/bebu_finance/contracts/Boardroom/Boardroom.sol\":10235:10286  require(address(_token) != address(token), \"token\") */\n      0x04\n      dup3\n      add\n        /* \"#utility.yul\":7998:8019   */\n      mstore\n        /* \"#utility.yul\":8055:8056   */\n      0x05\n        /* \"#utility.yul\":8035:8053   */\n      0x24\n      dup3\n      add\n        /* \"#utility.yul\":8028:8057   */\n      mstore\n      shl(0xd9, 0x3a37b5b2b7)\n        /* \"#utility.yul\":8073:8091   */\n      0x44\n      dup3\n      add\n        /* \"#utility.yul\":8066:8101   */\n      mstore\n        /* \"#utility.yul\":8118:8136   */\n      0x64\n      add\n        /* \"brownie_projects/bebu_finance/contracts/Boardroom/Boardroom.sol\":10235:10286  require(address(_token) != address(token), \"token\") */\n      tag_213\n        /* \"#utility.yul\":7814:8142   */\n      jump\n        /* \"brownie_projects/bebu_finance/contracts/Boardroom/Boardroom.sol\":10235:10286  require(address(_token) != address(token), \"token\") */\n    tag_298:\n        /* \"brownie_projects/bebu_finance/contracts/Boardroom/Boardroom.sol\":10331:10336  share */\n      sload(0x00)\n      sub(shl(0xa0, 0x01), 0x01)\n      swap1\n      dup2\n      and\n        /* \"brownie_projects/bebu_finance/contracts/Boardroom/Boardroom.sol\":10304:10337  address(_token) != address(share) */\n      swap1\n      dup5\n      and\n      sub\n        /* \"brownie_projects/bebu_finance/contracts/Boardroom/Boardroom.sol\":10296:10347  require(address(_token) != address(share), \"share\") */\n      tag_301\n      jumpi\n      mload(0x40)\n      shl(0xe5, 0x461bcd)\n      dup2\n      mstore\n        /* \"#utility.yul\":8349:8351   */\n      0x20\n        /* \"brownie_projects/bebu_finance/contracts/Boardroom/Boardroom.sol\":10296:10347  require(address(_token) != address(share), \"share\") */\n      0x04\n      dup3\n      add\n        /* \"#utility.yul\":8331:8352   */\n      mstore\n        /* \"#utility.yul\":8388:8389   */\n      0x05\n        /* \"#utility.yul\":8368:8386   */\n      0x24\n      dup3\n      add\n        /* \"#utility.yul\":8361:8390   */\n      mstore\n      shl(0xd8, 0x7368617265)\n        /* \"#utility.yul\":8406:8424   */\n      0x44\n      dup3\n      add\n        /* \"#utility.yul\":8399:8434   */\n      mstore\n        /* \"#utility.yul\":8451:8469   */\n      0x64\n      add\n        /* \"brownie_projects/bebu_finance/contracts/Boardroom/Boardroom.sol\":10296:10347  require(address(_token) != address(share), \"share\") */\n      tag_213\n        /* \"#utility.yul\":8147:8475   */\n      jump\n        /* \"brownie_projects/bebu_finance/contracts/Boardroom/Boardroom.sol\":10296:10347  require(address(_token) != address(share), \"share\") */\n    tag_301:\n        /* \"brownie_projects/bebu_finance/contracts/Boardroom/Boardroom.sol\":10357:10390  _token.safeTransfer(_to, _amount) */\n      tag_304\n      sub(shl(0xa0, 0x01), 0x01)\n        /* \"brownie_projects/bebu_finance/contracts/Boardroom/Boardroom.sol\":10357:10376  _token.safeTransfer */\n      dup5\n      and\n        /* \"brownie_projects/bebu_finance/contracts/Boardroom/Boardroom.sol\":10377:10380  _to */\n      dup3\n        /* \"brownie_projects/bebu_finance/contracts/Boardroom/Boardroom.sol\":10382:10389  _amount */\n      dup5\n        /* \"brownie_projects/bebu_finance/contracts/Boardroom/Boardroom.sol\":10357:10376  _token.safeTransfer */\n      tag_286\n        /* \"brownie_projects/bebu_finance/contracts/Boardroom/Boardroom.sol\":10357:10390  _token.safeTransfer(_to, _amount) */\n      jump\t// in\n    tag_304:\n        /* \"brownie_projects/bebu_finance/contracts/Boardroom/Boardroom.sol\":10001:10397  function governanceRecoverUnsupported(... */\n      pop\n      pop\n      pop\n      jump\t// out\n        /* \"brownie_projects/bebu_finance/contracts/Boardroom/Boardroom.sol\":4355:4565  function addAddressBlacklist(address _address) public onlyOperator returns (bool) {... */\n    tag_118:\n        /* \"brownie_projects/bebu_finance/contracts/Boardroom/Boardroom.sol\":2195:2203  operator */\n      sload(0x04)\n        /* \"brownie_projects/bebu_finance/contracts/Boardroom/Boardroom.sol\":4431:4435  bool */\n      0x00\n      swap1\n      sub(shl(0xa0, 0x01), 0x01)\n        /* \"brownie_projects/bebu_finance/contracts/Boardroom/Boardroom.sol\":2195:2203  operator */\n      and\n        /* \"brownie_projects/bebu_finance/contracts/Boardroom/Boardroom.sol\":2207:2217  msg.sender */\n      caller\n        /* \"brownie_projects/bebu_finance/contracts/Boardroom/Boardroom.sol\":2195:2217  operator == msg.sender */\n      eq\n        /* \"brownie_projects/bebu_finance/contracts/Boardroom/Boardroom.sol\":2187:2259  require(operator == msg.sender, \"Boardroom: caller is not the operator\") */\n      tag_306\n      jumpi\n      mload(0x40)\n      shl(0xe5, 0x461bcd)\n      dup2\n      mstore\n      0x04\n      add\n      tag_213\n      swap1\n      tag_250\n      jump\t// in\n    tag_306:\n      sub(shl(0xa0, 0x01), 0x01)\n        /* \"brownie_projects/bebu_finance/contracts/Boardroom/Boardroom.sol\":4456:4475  blacklist[_address] */\n      dup3\n      and\n      0x00\n      swap1\n      dup2\n      mstore\n        /* \"brownie_projects/bebu_finance/contracts/Boardroom/Boardroom.sol\":4456:4465  blacklist */\n      0x07\n        /* \"brownie_projects/bebu_finance/contracts/Boardroom/Boardroom.sol\":4456:4475  blacklist[_address] */\n      0x20\n      mstore\n      0x40\n      swap1\n      keccak256\n      sload\n      0xff\n      and\n        /* \"brownie_projects/bebu_finance/contracts/Boardroom/Boardroom.sol\":4455:4475  !blacklist[_address] */\n      iszero\n        /* \"brownie_projects/bebu_finance/contracts/Boardroom/Boardroom.sol\":4447:4501  require(!blacklist[_address], \"address already added\") */\n      tag_309\n      jumpi\n      mload(0x40)\n      shl(0xe5, 0x461bcd)\n      dup2\n      mstore\n        /* \"#utility.yul\":8682:8684   */\n      0x20\n        /* \"brownie_projects/bebu_finance/contracts/Boardroom/Boardroom.sol\":4447:4501  require(!blacklist[_address], \"address already added\") */\n      0x04\n      dup3\n      add\n        /* \"#utility.yul\":8664:8685   */\n      mstore\n        /* \"#utility.yul\":8721:8723   */\n      0x15\n        /* \"#utility.yul\":8701:8719   */\n      0x24\n      dup3\n      add\n        /* \"#utility.yul\":8694:8724   */\n      mstore\n      shl(0x5a, 0x1859191c995cdcc8185b1c9958591e481859191959)\n        /* \"#utility.yul\":8740:8758   */\n      0x44\n      dup3\n      add\n        /* \"#utility.yul\":8733:8784   */\n      mstore\n        /* \"#utility.yul\":8801:8819   */\n      0x64\n      add\n        /* \"brownie_projects/bebu_finance/contracts/Boardroom/Boardroom.sol\":4447:4501  require(!blacklist[_address], \"address already added\") */\n      tag_213\n        /* \"#utility.yul\":8480:8825   */\n      jump\n        /* \"brownie_projects/bebu_finance/contracts/Boardroom/Boardroom.sol\":4447:4501  require(!blacklist[_address], \"address already added\") */\n    tag_309:\n      pop\n      sub(shl(0xa0, 0x01), 0x01)\n        /* \"brownie_projects/bebu_finance/contracts/Boardroom/Boardroom.sol\":4511:4530  blacklist[_address] */\n      and\n      0x00\n      swap1\n      dup2\n      mstore\n        /* \"brownie_projects/bebu_finance/contracts/Boardroom/Boardroom.sol\":4511:4520  blacklist */\n      0x07\n        /* \"brownie_projects/bebu_finance/contracts/Boardroom/Boardroom.sol\":4511:4530  blacklist[_address] */\n      0x20\n      mstore\n      0x40\n      swap1\n      keccak256\n        /* \"brownie_projects/bebu_finance/contracts/Boardroom/Boardroom.sol\":4511:4537  blacklist[_address] = true */\n      dup1\n      sload\n      not(0xff)\n      and\n        /* \"brownie_projects/bebu_finance/contracts/Boardroom/Boardroom.sol\":4533:4537  true */\n      0x01\n        /* \"brownie_projects/bebu_finance/contracts/Boardroom/Boardroom.sol\":4511:4537  blacklist[_address] = true */\n      swap1\n      dup2\n      or\n      swap1\n      swap2\n      sstore\n        /* \"brownie_projects/bebu_finance/contracts/Boardroom/Boardroom.sol\":4533:4537  true */\n      swap1\n        /* \"brownie_projects/bebu_finance/contracts/Boardroom/Boardroom.sol\":4355:4565  function addAddressBlacklist(address _address) public onlyOperator returns (bool) {... */\n      jump\t// out\n        /* \"brownie_projects/bebu_finance/contracts/Boardroom/Boardroom.sol\":4116:4256  function setFee(uint256 _fee) external onlyOperator {... */\n    tag_126:\n        /* \"brownie_projects/bebu_finance/contracts/Boardroom/Boardroom.sol\":2195:2203  operator */\n      and(sub(shl(0xa0, 0x01), 0x01), sload(0x04))\n        /* \"brownie_projects/bebu_finance/contracts/Boardroom/Boardroom.sol\":2207:2217  msg.sender */\n      caller\n        /* \"brownie_projects/bebu_finance/contracts/Boardroom/Boardroom.sol\":2195:2217  operator == msg.sender */\n      eq\n        /* \"brownie_projects/bebu_finance/contracts/Boardroom/Boardroom.sol\":2187:2259  require(operator == msg.sender, \"Boardroom: caller is not the operator\") */\n      tag_313\n      jumpi\n      mload(0x40)\n      shl(0xe5, 0x461bcd)\n      dup2\n      mstore\n      0x04\n      add\n      tag_213\n      swap1\n      tag_250\n      jump\t// in\n    tag_313:\n        /* \"brownie_projects/bebu_finance/contracts/Boardroom/Boardroom.sol\":4207:4212  10000 */\n      0x2710\n        /* \"brownie_projects/bebu_finance/contracts/Boardroom/Boardroom.sol\":4199:4203  _fee */\n      dup2\n        /* \"brownie_projects/bebu_finance/contracts/Boardroom/Boardroom.sol\":4199:4212  _fee <= 10000 */\n      gt\n      iszero\n        /* \"brownie_projects/bebu_finance/contracts/Boardroom/Boardroom.sol\":4178:4229  require(_fee >= 0 && _fee <= 10000, \"out of range\") */\n      tag_317\n      jumpi\n      mload(0x40)\n      shl(0xe5, 0x461bcd)\n      dup2\n      mstore\n        /* \"#utility.yul\":9032:9034   */\n      0x20\n        /* \"brownie_projects/bebu_finance/contracts/Boardroom/Boardroom.sol\":4178:4229  require(_fee >= 0 && _fee <= 10000, \"out of range\") */\n      0x04\n      dup3\n      add\n        /* \"#utility.yul\":9014:9035   */\n      mstore\n        /* \"#utility.yul\":9071:9073   */\n      0x0c\n        /* \"#utility.yul\":9051:9069   */\n      0x24\n      dup3\n      add\n        /* \"#utility.yul\":9044:9074   */\n      mstore\n      shl(0xa0, 0x6f7574206f662072616e6765)\n        /* \"#utility.yul\":9090:9108   */\n      0x44\n      dup3\n      add\n        /* \"#utility.yul\":9083:9125   */\n      mstore\n        /* \"#utility.yul\":9142:9160   */\n      0x64\n      add\n        /* \"brownie_projects/bebu_finance/contracts/Boardroom/Boardroom.sol\":4178:4229  require(_fee >= 0 && _fee <= 10000, \"out of range\") */\n      tag_213\n        /* \"#utility.yul\":8830:9166   */\n      jump\n        /* \"brownie_projects/bebu_finance/contracts/Boardroom/Boardroom.sol\":4178:4229  require(_fee >= 0 && _fee <= 10000, \"out of range\") */\n    tag_317:\n        /* \"brownie_projects/bebu_finance/contracts/Boardroom/Boardroom.sol\":4239:4242  fee */\n      0x0c\n        /* \"brownie_projects/bebu_finance/contracts/Boardroom/Boardroom.sol\":4239:4249  fee = _fee */\n      sstore\n        /* \"brownie_projects/bebu_finance/contracts/Boardroom/Boardroom.sol\":4116:4256  function setFee(uint256 _fee) external onlyOperator {... */\n      jump\t// out\n        /* \"brownie_projects/bebu_finance/contracts/Boardroom/Boardroom.sol\":4571:4782  function removeAddressBlacklist(address _address) public onlyOperator returns (bool) {... */\n    tag_129:\n        /* \"brownie_projects/bebu_finance/contracts/Boardroom/Boardroom.sol\":2195:2203  operator */\n      sload(0x04)\n        /* \"brownie_projects/bebu_finance/contracts/Boardroom/Boardroom.sol\":4650:4654  bool */\n      0x00\n      swap1\n      sub(shl(0xa0, 0x01), 0x01)\n        /* \"brownie_projects/bebu_finance/contracts/Boardroom/Boardroom.sol\":2195:2203  operator */\n      and\n        /* \"brownie_projects/bebu_finance/contracts/Boardroom/Boardroom.sol\":2207:2217  msg.sender */\n      caller\n        /* \"brownie_projects/bebu_finance/contracts/Boardroom/Boardroom.sol\":2195:2217  operator == msg.sender */\n      eq\n        /* \"brownie_projects/bebu_finance/contracts/Boardroom/Boardroom.sol\":2187:2259  require(operator == msg.sender, \"Boardroom: caller is not the operator\") */\n      tag_321\n      jumpi\n      mload(0x40)\n      shl(0xe5, 0x461bcd)\n      dup2\n      mstore\n      0x04\n      add\n      tag_213\n      swap1\n      tag_250\n      jump\t// in\n    tag_321:\n      sub(shl(0xa0, 0x01), 0x01)\n        /* \"brownie_projects/bebu_finance/contracts/Boardroom/Boardroom.sol\":4674:4693  blacklist[_address] */\n      dup3\n      and\n      0x00\n      swap1\n      dup2\n      mstore\n        /* \"brownie_projects/bebu_finance/contracts/Boardroom/Boardroom.sol\":4674:4683  blacklist */\n      0x07\n        /* \"brownie_projects/bebu_finance/contracts/Boardroom/Boardroom.sol\":4674:4693  blacklist[_address] */\n      0x20\n      mstore\n      0x40\n      swap1\n      keccak256\n      sload\n      0xff\n      and\n        /* \"brownie_projects/bebu_finance/contracts/Boardroom/Boardroom.sol\":4666:4717  require(blacklist[_address], \"address not existed\") */\n      tag_324\n      jumpi\n      mload(0x40)\n      shl(0xe5, 0x461bcd)\n      dup2\n      mstore\n        /* \"#utility.yul\":9373:9375   */\n      0x20\n        /* \"brownie_projects/bebu_finance/contracts/Boardroom/Boardroom.sol\":4666:4717  require(blacklist[_address], \"address not existed\") */\n      0x04\n      dup3\n      add\n        /* \"#utility.yul\":9355:9376   */\n      mstore\n        /* \"#utility.yul\":9412:9414   */\n      0x13\n        /* \"#utility.yul\":9392:9410   */\n      0x24\n      dup3\n      add\n        /* \"#utility.yul\":9385:9415   */\n      mstore\n      shl(0x6a, 0x1859191c995cdcc81b9bdd08195e1a5cdd1959)\n        /* \"#utility.yul\":9431:9449   */\n      0x44\n      dup3\n      add\n        /* \"#utility.yul\":9424:9473   */\n      mstore\n        /* \"#utility.yul\":9490:9508   */\n      0x64\n      add\n        /* \"brownie_projects/bebu_finance/contracts/Boardroom/Boardroom.sol\":4666:4717  require(blacklist[_address], \"address not existed\") */\n      tag_213\n        /* \"#utility.yul\":9171:9514   */\n      jump\n        /* \"brownie_projects/bebu_finance/contracts/Boardroom/Boardroom.sol\":4666:4717  require(blacklist[_address], \"address not existed\") */\n    tag_324:\n      pop\n      sub(shl(0xa0, 0x01), 0x01)\n        /* \"brownie_projects/bebu_finance/contracts/Boardroom/Boardroom.sol\":4727:4746  blacklist[_address] */\n      and\n        /* \"brownie_projects/bebu_finance/contracts/Boardroom/Boardroom.sol\":4749:4754  false */\n      0x00\n        /* \"brownie_projects/bebu_finance/contracts/Boardroom/Boardroom.sol\":4727:4746  blacklist[_address] */\n      swap1\n      dup2\n      mstore\n        /* \"brownie_projects/bebu_finance/contracts/Boardroom/Boardroom.sol\":4727:4736  blacklist */\n      0x07\n        /* \"brownie_projects/bebu_finance/contracts/Boardroom/Boardroom.sol\":4727:4746  blacklist[_address] */\n      0x20\n      mstore\n      0x40\n      swap1\n      keccak256\n        /* \"brownie_projects/bebu_finance/contracts/Boardroom/Boardroom.sol\":4727:4754  blacklist[_address] = false */\n      dup1\n      sload\n      not(0xff)\n      and\n      swap1\n      sstore\n      0x01\n      swap1\n        /* \"brownie_projects/bebu_finance/contracts/Boardroom/Boardroom.sol\":4571:4782  function removeAddressBlacklist(address _address) public onlyOperator returns (bool) {... */\n      jump\t// out\n        /* \"brownie_projects/bebu_finance/contracts/Boardroom/Boardroom.sol\":5924:6013  function epoch() external view returns (uint256) {... */\n    tag_140:\n        /* \"brownie_projects/bebu_finance/contracts/Boardroom/Boardroom.sol\":5990:5998  treasury */\n      sload(0x06)\n        /* \"brownie_projects/bebu_finance/contracts/Boardroom/Boardroom.sol\":5990:6006  treasury.epoch() */\n      0x40\n      dup1\n      mload\n      shl(0xe0, 0x900cf0cf)\n      dup2\n      mstore\n      swap1\n      mload\n        /* \"brownie_projects/bebu_finance/contracts/Boardroom/Boardroom.sol\":5964:5971  uint256 */\n      0x00\n      swap3\n      sub(shl(0xa0, 0x01), 0x01)\n        /* \"brownie_projects/bebu_finance/contracts/Boardroom/Boardroom.sol\":5990:5998  treasury */\n      and\n      swap2\n        /* \"brownie_projects/bebu_finance/contracts/Boardroom/Boardroom.sol\":5990:6004  treasury.epoch */\n      0x900cf0cf\n      swap2\n        /* \"brownie_projects/bebu_finance/contracts/Boardroom/Boardroom.sol\":5990:6006  treasury.epoch() */\n      0x04\n      dup1\n      dup4\n      add\n      swap3\n      0x20\n      swap3\n      swap2\n      swap1\n      dup3\n      swap1\n      sub\n      add\n      dup2\n        /* \"brownie_projects/bebu_finance/contracts/Boardroom/Boardroom.sol\":5990:5998  treasury */\n      dup7\n        /* \"brownie_projects/bebu_finance/contracts/Boardroom/Boardroom.sol\":5990:6006  treasury.epoch() */\n      gas\n      staticcall\n      iszero\n      dup1\n      iszero\n      tag_262\n      jumpi\n      returndatasize\n      0x00\n      dup1\n      returndatacopy\n      revert(0x00, returndatasize)\n        /* \"brownie_projects/bebu_finance/contracts/Boardroom/Boardroom.sol\":8472:9180  function allocateSeigniorage(uint256 amount) external onlyOneBlock onlyOperator {... */\n    tag_144:\n        /* \"brownie_projects/bebu_finance/contracts/utils/security/ContractGuard.sol\":246:258  block.number */\n      number\n        /* \"brownie_projects/bebu_finance/contracts/utils/security/ContractGuard.sol\":215:219  bool */\n      0x00\n        /* \"brownie_projects/bebu_finance/contracts/utils/security/ContractGuard.sol\":238:259  _status[block.number] */\n      swap1\n      dup2\n      mstore\n        /* \"brownie_projects/bebu_finance/contracts/utils/security/ContractGuard.sol\":238:245  _status */\n      0x03\n        /* \"brownie_projects/bebu_finance/contracts/utils/security/ContractGuard.sol\":238:259  _status[block.number] */\n      0x20\n      swap1\n      dup2\n      mstore\n      0x40\n      dup1\n      dup4\n      keccak256\n        /* \"brownie_projects/bebu_finance/contracts/utils/security/ContractGuard.sol\":260:269  tx.origin */\n      origin\n        /* \"brownie_projects/bebu_finance/contracts/utils/security/ContractGuard.sol\":238:270  _status[block.number][tx.origin] */\n      dup5\n      mstore\n      swap1\n      swap2\n      mstore\n      swap1\n      keccak256\n      sload\n      0xff\n      and\n        /* \"brownie_projects/bebu_finance/contracts/utils/security/ContractGuard.sol\":455:484  !checkSameOriginReentranted() */\n      iszero\n        /* \"brownie_projects/bebu_finance/contracts/utils/security/ContractGuard.sol\":447:527  require(!checkSameOriginReentranted(), \"ContractGuard: one block, one function\") */\n      tag_335\n      jumpi\n      mload(0x40)\n      shl(0xe5, 0x461bcd)\n      dup2\n      mstore\n      0x04\n      add\n      tag_213\n      swap1\n      tag_214\n      jump\t// in\n    tag_335:\n        /* \"brownie_projects/bebu_finance/contracts/utils/security/ContractGuard.sol\":375:387  block.number */\n      number\n        /* \"brownie_projects/bebu_finance/contracts/utils/security/ContractGuard.sol\":344:348  bool */\n      0x00\n        /* \"brownie_projects/bebu_finance/contracts/utils/security/ContractGuard.sol\":367:388  _status[block.number] */\n      swap1\n      dup2\n      mstore\n        /* \"brownie_projects/bebu_finance/contracts/utils/security/ContractGuard.sol\":367:374  _status */\n      0x03\n        /* \"brownie_projects/bebu_finance/contracts/utils/security/ContractGuard.sol\":367:388  _status[block.number] */\n      0x20\n      swap1\n      dup2\n      mstore\n      0x40\n      dup1\n      dup4\n      keccak256\n        /* \"brownie_projects/bebu_finance/contracts/utils/security/ContractGuard.sol\":389:399  msg.sender */\n      caller\n        /* \"brownie_projects/bebu_finance/contracts/utils/security/ContractGuard.sol\":367:400  _status[block.number][msg.sender] */\n      dup5\n      mstore\n      swap1\n      swap2\n      mstore\n      swap1\n      keccak256\n      sload\n      0xff\n      and\n        /* \"brownie_projects/bebu_finance/contracts/utils/security/ContractGuard.sol\":545:574  !checkSameSenderReentranted() */\n      iszero\n        /* \"brownie_projects/bebu_finance/contracts/utils/security/ContractGuard.sol\":537:617  require(!checkSameSenderReentranted(), \"ContractGuard: one block, one function\") */\n      tag_338\n      jumpi\n      mload(0x40)\n      shl(0xe5, 0x461bcd)\n      dup2\n      mstore\n      0x04\n      add\n      tag_213\n      swap1\n      tag_214\n      jump\t// in\n    tag_338:\n        /* \"brownie_projects/bebu_finance/contracts/utils/security/ContractGuard.sol\":636:648  block.number */\n      number\n        /* \"brownie_projects/bebu_finance/contracts/utils/security/ContractGuard.sol\":628:649  _status[block.number] */\n      0x00\n      swap1\n      dup2\n      mstore\n        /* \"brownie_projects/bebu_finance/contracts/utils/security/ContractGuard.sol\":628:635  _status */\n      0x03\n        /* \"brownie_projects/bebu_finance/contracts/utils/security/ContractGuard.sol\":628:649  _status[block.number] */\n      0x20\n      swap1\n      dup2\n      mstore\n      0x40\n      dup1\n      dup4\n      keccak256\n        /* \"brownie_projects/bebu_finance/contracts/utils/security/ContractGuard.sol\":650:659  tx.origin */\n      origin\n        /* \"brownie_projects/bebu_finance/contracts/utils/security/ContractGuard.sol\":628:660  _status[block.number][tx.origin] */\n      dup5\n      mstore\n      swap1\n      swap2\n      mstore\n      dup1\n      dup3\n      keccak256\n        /* \"brownie_projects/bebu_finance/contracts/utils/security/ContractGuard.sol\":628:667  _status[block.number][tx.origin] = true */\n      dup1\n      sload\n        /* \"brownie_projects/bebu_finance/contracts/utils/security/ContractGuard.sol\":663:667  true */\n      0x01\n      not(0xff)\n        /* \"brownie_projects/bebu_finance/contracts/utils/security/ContractGuard.sol\":628:667  _status[block.number][tx.origin] = true */\n      swap2\n      dup3\n      and\n      dup2\n      or\n      swap1\n      swap3\n      sstore\n        /* \"brownie_projects/bebu_finance/contracts/utils/security/ContractGuard.sol\":699:709  msg.sender */\n      caller\n        /* \"brownie_projects/bebu_finance/contracts/utils/security/ContractGuard.sol\":677:710  _status[block.number][msg.sender] */\n      dup1\n      dup6\n      mstore\n      swap3\n      swap1\n      swap4\n      keccak256\n        /* \"brownie_projects/bebu_finance/contracts/utils/security/ContractGuard.sol\":677:717  _status[block.number][msg.sender] = true */\n      dup1\n      sload\n      swap1\n      swap4\n      and\n      or\n      swap1\n      swap2\n      sstore\n        /* \"brownie_projects/bebu_finance/contracts/Boardroom/Boardroom.sol\":2195:2203  operator */\n      and(sub(shl(0xa0, 0x01), 0x01), sload(0x04))\n        /* \"brownie_projects/bebu_finance/contracts/Boardroom/Boardroom.sol\":2195:2217  operator == msg.sender */\n      eq\n        /* \"brownie_projects/bebu_finance/contracts/Boardroom/Boardroom.sol\":2187:2259  require(operator == msg.sender, \"Boardroom: caller is not the operator\") */\n      tag_341\n      jumpi\n      mload(0x40)\n      shl(0xe5, 0x461bcd)\n      dup2\n      mstore\n      0x04\n      add\n      tag_213\n      swap1\n      tag_250\n      jump\t// in\n    tag_341:\n        /* \"brownie_projects/bebu_finance/contracts/Boardroom/Boardroom.sol\":8579:8580  0 */\n      0x00\n        /* \"brownie_projects/bebu_finance/contracts/Boardroom/Boardroom.sol\":8570:8576  amount */\n      dup2\n        /* \"brownie_projects/bebu_finance/contracts/Boardroom/Boardroom.sol\":8570:8580  amount > 0 */\n      gt\n        /* \"brownie_projects/bebu_finance/contracts/Boardroom/Boardroom.sol\":8562:8613  require(amount > 0, \"Boardroom: Cannot allocate 0\") */\n      tag_344\n      jumpi\n      mload(0x40)\n      shl(0xe5, 0x461bcd)\n      dup2\n      mstore\n        /* \"#utility.yul\":9721:9723   */\n      0x20\n        /* \"brownie_projects/bebu_finance/contracts/Boardroom/Boardroom.sol\":8562:8613  require(amount > 0, \"Boardroom: Cannot allocate 0\") */\n      0x04\n      dup3\n      add\n        /* \"#utility.yul\":9703:9724   */\n      mstore\n        /* \"#utility.yul\":9760:9762   */\n      0x1c\n        /* \"#utility.yul\":9740:9758   */\n      0x24\n      dup3\n      add\n        /* \"#utility.yul\":9733:9763   */\n      mstore\n        /* \"#utility.yul\":9799:9829   */\n      0x426f617264726f6f6d3a2043616e6e6f7420616c6c6f63617465203000000000\n        /* \"#utility.yul\":9779:9797   */\n      0x44\n      dup3\n      add\n        /* \"#utility.yul\":9772:9830   */\n      mstore\n        /* \"#utility.yul\":9847:9865   */\n      0x64\n      add\n        /* \"brownie_projects/bebu_finance/contracts/Boardroom/Boardroom.sol\":8562:8613  require(amount > 0, \"Boardroom: Cannot allocate 0\") */\n      tag_213\n        /* \"#utility.yul\":9519:9871   */\n      jump\n        /* \"brownie_projects/bebu_finance/contracts/Boardroom/Boardroom.sol\":8562:8613  require(amount > 0, \"Boardroom: Cannot allocate 0\") */\n    tag_344:\n        /* \"brownie_projects/bebu_finance/contracts/Boardroom/Boardroom.sol\":8647:8648  0 */\n      0x00\n        /* \"brownie_projects/bebu_finance/contracts/Boardroom/Boardroom.sol\":8631:8644  totalSupply() */\n      tag_347\n        /* \"brownie_projects/bebu_finance/contracts/Boardroom/ShareWrapper.sol\":411:423  _totalSupply */\n      sload(0x01)\n      swap1\n        /* \"brownie_projects/bebu_finance/contracts/Boardroom/ShareWrapper.sol\":341:430  function totalSupply() public view returns (uint256) {... */\n      jump\n        /* \"brownie_projects/bebu_finance/contracts/Boardroom/Boardroom.sol\":8631:8644  totalSupply() */\n    tag_347:\n        /* \"brownie_projects/bebu_finance/contracts/Boardroom/Boardroom.sol\":8631:8648  totalSupply() > 0 */\n      gt\n        /* \"brownie_projects/bebu_finance/contracts/Boardroom/Boardroom.sol\":8623:8701  require(totalSupply() > 0, \"Boardroom: Cannot allocate when totalSupply is 0\") */\n      tag_348\n      jumpi\n      mload(0x40)\n      shl(0xe5, 0x461bcd)\n      dup2\n      mstore\n        /* \"#utility.yul\":10078:10080   */\n      0x20\n        /* \"brownie_projects/bebu_finance/contracts/Boardroom/Boardroom.sol\":8623:8701  require(totalSupply() > 0, \"Boardroom: Cannot allocate when totalSupply is 0\") */\n      0x04\n      dup3\n      add\n        /* \"#utility.yul\":10060:10081   */\n      mstore\n        /* \"#utility.yul\":10117:10119   */\n      0x30\n        /* \"#utility.yul\":10097:10115   */\n      0x24\n      dup3\n      add\n        /* \"#utility.yul\":10090:10120   */\n      mstore\n        /* \"#utility.yul\":10156:10190   */\n      0x426f617264726f6f6d3a2043616e6e6f7420616c6c6f63617465207768656e20\n        /* \"#utility.yul\":10136:10154   */\n      0x44\n      dup3\n      add\n        /* \"#utility.yul\":10129:10191   */\n      mstore\n      shl(0x84, 0x0746f74616c537570706c79206973203)\n        /* \"#utility.yul\":10207:10225   */\n      0x64\n      dup3\n      add\n        /* \"#utility.yul\":10200:10246   */\n      mstore\n        /* \"#utility.yul\":10263:10282   */\n      0x84\n      add\n        /* \"brownie_projects/bebu_finance/contracts/Boardroom/Boardroom.sol\":8623:8701  require(totalSupply() > 0, \"Boardroom: Cannot allocate when totalSupply is 0\") */\n      tag_213\n        /* \"#utility.yul\":9876:10288   */\n      jump\n        /* \"brownie_projects/bebu_finance/contracts/Boardroom/Boardroom.sol\":8623:8701  require(totalSupply() > 0, \"Boardroom: Cannot allocate when totalSupply is 0\") */\n    tag_348:\n        /* \"brownie_projects/bebu_finance/contracts/Boardroom/Boardroom.sol\":8749:8764  uint256 prevRPS */\n      0x00\n        /* \"brownie_projects/bebu_finance/contracts/Boardroom/Boardroom.sol\":8767:8786  getLatestSnapshot() */\n      tag_351\n        /* \"brownie_projects/bebu_finance/contracts/Boardroom/Boardroom.sol\":8767:8784  getLatestSnapshot */\n      tag_185\n        /* \"brownie_projects/bebu_finance/contracts/Boardroom/Boardroom.sol\":8767:8786  getLatestSnapshot() */\n      jump\t// in\n    tag_351:\n        /* \"brownie_projects/bebu_finance/contracts/Boardroom/Boardroom.sol\":8767:8801  getLatestSnapshot().rewardPerShare */\n      0x40\n      add\n      mload\n        /* \"brownie_projects/bebu_finance/contracts/Boardroom/Boardroom.sol\":8749:8801  uint256 prevRPS = getLatestSnapshot().rewardPerShare */\n      swap1\n      pop\n        /* \"brownie_projects/bebu_finance/contracts/Boardroom/Boardroom.sol\":8811:8826  uint256 nextRPS */\n      0x00\n        /* \"brownie_projects/bebu_finance/contracts/Boardroom/Boardroom.sol\":8829:8877  prevRPS.add(amount.mul(1e18).div(totalSupply())) */\n      tag_352\n        /* \"brownie_projects/bebu_finance/contracts/Boardroom/Boardroom.sol\":8841:8876  amount.mul(1e18).div(totalSupply()) */\n      tag_353\n        /* \"brownie_projects/bebu_finance/contracts/Boardroom/Boardroom.sol\":8862:8875  totalSupply() */\n      tag_354\n        /* \"brownie_projects/bebu_finance/contracts/Boardroom/ShareWrapper.sol\":411:423  _totalSupply */\n      sload(0x01)\n      swap1\n        /* \"brownie_projects/bebu_finance/contracts/Boardroom/ShareWrapper.sol\":341:430  function totalSupply() public view returns (uint256) {... */\n      jump\n        /* \"brownie_projects/bebu_finance/contracts/Boardroom/Boardroom.sol\":8862:8875  totalSupply() */\n    tag_354:\n        /* \"brownie_projects/bebu_finance/contracts/Boardroom/Boardroom.sol\":8841:8857  amount.mul(1e18) */\n      tag_190\n        /* \"brownie_projects/bebu_finance/contracts/Boardroom/Boardroom.sol\":8841:8847  amount */\n      dup7\n        /* \"brownie_projects/bebu_finance/contracts/Boardroom/Boardroom.sol\":8852:8856  1e18 */\n      0x0de0b6b3a7640000\n        /* \"brownie_projects/bebu_finance/contracts/Boardroom/Boardroom.sol\":8841:8851  amount.mul */\n      tag_194\n        /* \"brownie_projects/bebu_finance/contracts/Boardroom/Boardroom.sol\":8841:8857  amount.mul(1e18) */\n      jump\t// in\n        /* \"brownie_projects/bebu_finance/contracts/Boardroom/Boardroom.sol\":8841:8876  amount.mul(1e18).div(totalSupply()) */\n    tag_353:\n        /* \"brownie_projects/bebu_finance/contracts/Boardroom/Boardroom.sol\":8829:8836  prevRPS */\n      dup4\n      swap1\n        /* \"brownie_projects/bebu_finance/contracts/Boardroom/Boardroom.sol\":8829:8840  prevRPS.add */\n      tag_196\n        /* \"brownie_projects/bebu_finance/contracts/Boardroom/Boardroom.sol\":8829:8877  prevRPS.add(amount.mul(1e18).div(totalSupply())) */\n      jump\t// in\n    tag_352:\n        /* \"brownie_projects/bebu_finance/contracts/Boardroom/Boardroom.sol\":8927:9015  BoardroomSnapshot({time: block.number, rewardReceived: amount, rewardPerShare: nextRPS}) */\n      0x40\n      dup1\n      mload\n      0x60\n      dup2\n      add\n      dup3\n      mstore\n        /* \"brownie_projects/bebu_finance/contracts/Boardroom/Boardroom.sol\":8952:8964  block.number */\n      number\n        /* \"brownie_projects/bebu_finance/contracts/Boardroom/Boardroom.sol\":8927:9015  BoardroomSnapshot({time: block.number, rewardReceived: amount, rewardPerShare: nextRPS}) */\n      dup2\n      mstore\n      0x20\n      dup2\n      add\n      dup7\n      dup2\n      mstore\n      swap2\n      dup2\n      add\n      dup4\n      dup2\n      mstore\n        /* \"brownie_projects/bebu_finance/contracts/Boardroom/Boardroom.sol\":9025:9041  boardroomHistory */\n      0x09\n        /* \"brownie_projects/bebu_finance/contracts/Boardroom/Boardroom.sol\":9025:9059  boardroomHistory.push(newSnapshot) */\n      dup1\n      sload\n      0x01\n      dup2\n      add\n      dup3\n      sstore\n      0x00\n      swap2\n      swap1\n      swap2\n      mstore\n      dup3\n      mload\n      0x6e1540171b6c0c960b71a7020d9f60077f6af931a8bbf590da0223dacf75c7af\n      0x03\n      swap1\n      swap3\n      mul\n      swap2\n      dup3\n      add\n      sstore\n      swap3\n      mload\n      0x6e1540171b6c0c960b71a7020d9f60077f6af931a8bbf590da0223dacf75c7b0\n      dup5\n      add\n      sstore\n      mload\n      0x6e1540171b6c0c960b71a7020d9f60077f6af931a8bbf590da0223dacf75c7b1\n      swap1\n      swap3\n      add\n      swap2\n      swap1\n      swap2\n      sstore\n        /* \"brownie_projects/bebu_finance/contracts/Boardroom/Boardroom.sol\":9070:9075  token */\n      sload(0x05)\n        /* \"brownie_projects/bebu_finance/contracts/Boardroom/Boardroom.sol\":8927:9015  BoardroomSnapshot({time: block.number, rewardReceived: amount, rewardPerShare: nextRPS}) */\n      swap2\n      swap3\n      pop\n      swap1\n        /* \"brownie_projects/bebu_finance/contracts/Boardroom/Boardroom.sol\":9070:9127  token.safeTransferFrom(msg.sender, address(this), amount) */\n      tag_357\n      swap1\n      sub(shl(0xa0, 0x01), 0x01)\n        /* \"brownie_projects/bebu_finance/contracts/Boardroom/Boardroom.sol\":9070:9075  token */\n      and\n        /* \"brownie_projects/bebu_finance/contracts/Boardroom/Boardroom.sol\":9093:9103  msg.sender */\n      caller\n        /* \"brownie_projects/bebu_finance/contracts/Boardroom/Boardroom.sol\":9113:9117  this */\n      address\n        /* \"brownie_projects/bebu_finance/contracts/Boardroom/Boardroom.sol\":8927:9015  BoardroomSnapshot({time: block.number, rewardReceived: amount, rewardPerShare: nextRPS}) */\n      dup8\n        /* \"brownie_projects/bebu_finance/contracts/Boardroom/Boardroom.sol\":9070:9092  token.safeTransferFrom */\n      tag_358\n        /* \"brownie_projects/bebu_finance/contracts/Boardroom/Boardroom.sol\":9070:9127  token.safeTransferFrom(msg.sender, address(this), amount) */\n      jump\t// in\n    tag_357:\n        /* \"brownie_projects/bebu_finance/contracts/Boardroom/Boardroom.sol\":9142:9173  RewardAdded(msg.sender, amount) */\n      mload(0x40)\n        /* \"#utility.yul\":548:573   */\n      dup5\n      dup2\n      mstore\n        /* \"brownie_projects/bebu_finance/contracts/Boardroom/Boardroom.sol\":9154:9164  msg.sender */\n      caller\n      swap1\n        /* \"brownie_projects/bebu_finance/contracts/Boardroom/Boardroom.sol\":9142:9173  RewardAdded(msg.sender, amount) */\n      0xac24935fd910bc682b5ccb1a07b718cadf8cf2f6d1404c4f3ddc3662dae40e29\n      swap1\n        /* \"#utility.yul\":536:538   */\n      0x20\n        /* \"#utility.yul\":521:539   */\n      add\n        /* \"brownie_projects/bebu_finance/contracts/Boardroom/Boardroom.sol\":9142:9173  RewardAdded(msg.sender, amount) */\n      mload(0x40)\n      dup1\n      swap2\n      sub\n      swap1\n      log2\n        /* \"brownie_projects/bebu_finance/contracts/Boardroom/Boardroom.sol\":8552:9180  {... */\n      pop\n      pop\n      pop\n        /* \"brownie_projects/bebu_finance/contracts/Boardroom/Boardroom.sol\":8472:9180  function allocateSeigniorage(uint256 amount) external onlyOneBlock onlyOperator {... */\n      pop\n      jump\t// out\n        /* \"brownie_projects/bebu_finance/contracts/Boardroom/Boardroom.sol\":6768:7312  function stake(uint256 amount) public override onlyOneBlock updateReward(msg.sender) {... */\n    tag_147:\n        /* \"brownie_projects/bebu_finance/contracts/utils/security/ContractGuard.sol\":246:258  block.number */\n      number\n        /* \"brownie_projects/bebu_finance/contracts/utils/security/ContractGuard.sol\":215:219  bool */\n      0x00\n        /* \"brownie_projects/bebu_finance/contracts/utils/security/ContractGuard.sol\":238:259  _status[block.number] */\n      swap1\n      dup2\n      mstore\n        /* \"brownie_projects/bebu_finance/contracts/utils/security/ContractGuard.sol\":238:245  _status */\n      0x03\n        /* \"brownie_projects/bebu_finance/contracts/utils/security/ContractGuard.sol\":238:259  _status[block.number] */\n      0x20\n      swap1\n      dup2\n      mstore\n      0x40\n      dup1\n      dup4\n      keccak256\n        /* \"brownie_projects/bebu_finance/contracts/utils/security/ContractGuard.sol\":260:269  tx.origin */\n      origin\n        /* \"brownie_projects/bebu_finance/contracts/utils/security/ContractGuard.sol\":238:270  _status[block.number][tx.origin] */\n      dup5\n      mstore\n      swap1\n      swap2\n      mstore\n      swap1\n      keccak256\n      sload\n      0xff\n      and\n        /* \"brownie_projects/bebu_finance/contracts/utils/security/ContractGuard.sol\":455:484  !checkSameOriginReentranted() */\n      iszero\n        /* \"brownie_projects/bebu_finance/contracts/utils/security/ContractGuard.sol\":447:527  require(!checkSameOriginReentranted(), \"ContractGuard: one block, one function\") */\n      tag_362\n      jumpi\n      mload(0x40)\n      shl(0xe5, 0x461bcd)\n      dup2\n      mstore\n      0x04\n      add\n      tag_213\n      swap1\n      tag_214\n      jump\t// in\n    tag_362:\n        /* \"brownie_projects/bebu_finance/contracts/utils/security/ContractGuard.sol\":375:387  block.number */\n      number\n        /* \"brownie_projects/bebu_finance/contracts/utils/security/ContractGuard.sol\":344:348  bool */\n      0x00\n        /* \"brownie_projects/bebu_finance/contracts/utils/security/ContractGuard.sol\":367:388  _status[block.number] */\n      swap1\n      dup2\n      mstore\n        /* \"brownie_projects/bebu_finance/contracts/utils/security/ContractGuard.sol\":367:374  _status */\n      0x03\n        /* \"brownie_projects/bebu_finance/contracts/utils/security/ContractGuard.sol\":367:388  _status[block.number] */\n      0x20\n      swap1\n      dup2\n      mstore\n      0x40\n      dup1\n      dup4\n      keccak256\n        /* \"brownie_projects/bebu_finance/contracts/utils/security/ContractGuard.sol\":389:399  msg.sender */\n      caller\n        /* \"brownie_projects/bebu_finance/contracts/utils/security/ContractGuard.sol\":367:400  _status[block.number][msg.sender] */\n      dup5\n      mstore\n      swap1\n      swap2\n      mstore\n      swap1\n      keccak256\n      sload\n      0xff\n      and\n        /* \"brownie_projects/bebu_finance/contracts/utils/security/ContractGuard.sol\":545:574  !checkSameSenderReentranted() */\n      iszero\n        /* \"brownie_projects/bebu_finance/contracts/utils/security/ContractGuard.sol\":537:617  require(!checkSameSenderReentranted(), \"ContractGuard: one block, one function\") */\n      tag_365\n      jumpi\n      mload(0x40)\n      shl(0xe5, 0x461bcd)\n      dup2\n      mstore\n      0x04\n      add\n      tag_213\n      swap1\n      tag_214\n      jump\t// in\n    tag_365:\n        /* \"brownie_projects/bebu_finance/contracts/utils/security/ContractGuard.sol\":636:648  block.number */\n      number\n        /* \"brownie_projects/bebu_finance/contracts/utils/security/ContractGuard.sol\":628:649  _status[block.number] */\n      0x00\n      swap1\n      dup2\n      mstore\n        /* \"brownie_projects/bebu_finance/contracts/utils/security/ContractGuard.sol\":628:635  _status */\n      0x03\n        /* \"brownie_projects/bebu_finance/contracts/utils/security/ContractGuard.sol\":628:649  _status[block.number] */\n      0x20\n      swap1\n      dup2\n      mstore\n      0x40\n      dup1\n      dup4\n      keccak256\n        /* \"brownie_projects/bebu_finance/contracts/utils/security/ContractGuard.sol\":650:659  tx.origin */\n      origin\n        /* \"brownie_projects/bebu_finance/contracts/utils/security/ContractGuard.sol\":628:660  _status[block.number][tx.origin] */\n      dup5\n      mstore\n      swap1\n      swap2\n      mstore\n      dup1\n      dup3\n      keccak256\n        /* \"brownie_projects/bebu_finance/contracts/utils/security/ContractGuard.sol\":628:667  _status[block.number][tx.origin] = true */\n      dup1\n      sload\n        /* \"brownie_projects/bebu_finance/contracts/utils/security/ContractGuard.sol\":663:667  true */\n      0x01\n      not(0xff)\n        /* \"brownie_projects/bebu_finance/contracts/utils/security/ContractGuard.sol\":628:667  _status[block.number][tx.origin] = true */\n      swap2\n      dup3\n      and\n      dup2\n      or\n      swap1\n      swap3\n      sstore\n        /* \"brownie_projects/bebu_finance/contracts/utils/security/ContractGuard.sol\":699:709  msg.sender */\n      caller\n        /* \"brownie_projects/bebu_finance/contracts/utils/security/ContractGuard.sol\":677:710  _status[block.number][msg.sender] */\n      dup1\n      dup6\n      mstore\n      swap3\n      swap1\n      swap4\n      keccak256\n        /* \"brownie_projects/bebu_finance/contracts/utils/security/ContractGuard.sol\":677:717  _status[block.number][msg.sender] = true */\n      dup1\n      sload\n      swap1\n      swap4\n      and\n      or\n      swap1\n      swap2\n      sstore\n        /* \"brownie_projects/bebu_finance/contracts/Boardroom/Boardroom.sol\":2467:2487  member != address(0) */\n      dup1\n      iszero\n        /* \"brownie_projects/bebu_finance/contracts/Boardroom/Boardroom.sol\":2463:2698  if (member != address(0)) {... */\n      tag_368\n      jumpi\n      sub(shl(0xa0, 0x01), 0x01)\n        /* \"brownie_projects/bebu_finance/contracts/Boardroom/Boardroom.sol\":2528:2543  members[member] */\n      dup2\n      and\n        /* \"brownie_projects/bebu_finance/contracts/Boardroom/Boardroom.sol\":2503:2525  Memberseat memory seat */\n      0x00\n        /* \"brownie_projects/bebu_finance/contracts/Boardroom/Boardroom.sol\":2528:2543  members[member] */\n      swap1\n      dup2\n      mstore\n        /* \"brownie_projects/bebu_finance/contracts/Boardroom/Boardroom.sol\":2528:2535  members */\n      0x08\n        /* \"brownie_projects/bebu_finance/contracts/Boardroom/Boardroom.sol\":2528:2543  members[member] */\n      0x20\n      swap1\n      dup2\n      mstore\n      0x40\n      swap2\n      dup3\n      swap1\n      keccak256\n        /* \"brownie_projects/bebu_finance/contracts/Boardroom/Boardroom.sol\":2503:2543  Memberseat memory seat = members[member] */\n      dup3\n      mload\n      0x60\n      dup2\n      add\n      dup5\n      mstore\n      dup2\n      sload\n      dup2\n      mstore\n      0x01\n      dup3\n      add\n      sload\n      swap3\n      dup2\n      add\n      swap3\n      swap1\n      swap3\n      mstore\n      0x02\n      add\n      sload\n      swap2\n      dup2\n      add\n      swap2\n      swap1\n      swap2\n      mstore\n        /* \"brownie_projects/bebu_finance/contracts/Boardroom/Boardroom.sol\":2577:2591  earned(member) */\n      tag_369\n        /* \"brownie_projects/bebu_finance/contracts/Boardroom/Boardroom.sol\":2536:2542  member */\n      dup3\n        /* \"brownie_projects/bebu_finance/contracts/Boardroom/Boardroom.sol\":2577:2583  earned */\n      tag_51\n        /* \"brownie_projects/bebu_finance/contracts/Boardroom/Boardroom.sol\":2577:2591  earned(member) */\n      jump\t// in\n    tag_369:\n        /* \"brownie_projects/bebu_finance/contracts/Boardroom/Boardroom.sol\":2557:2574  seat.rewardEarned */\n      0x20\n      dup3\n      add\n        /* \"brownie_projects/bebu_finance/contracts/Boardroom/Boardroom.sol\":2557:2591  seat.rewardEarned = earned(member) */\n      mstore\n        /* \"brownie_projects/bebu_finance/contracts/Boardroom/Boardroom.sol\":2630:2651  latestSnapshotIndex() */\n      tag_370\n        /* \"brownie_projects/bebu_finance/contracts/Boardroom/Boardroom.sol\":2630:2649  latestSnapshotIndex */\n      tag_93\n        /* \"brownie_projects/bebu_finance/contracts/Boardroom/Boardroom.sol\":2630:2651  latestSnapshotIndex() */\n      jump\t// in\n    tag_370:\n        /* \"brownie_projects/bebu_finance/contracts/Boardroom/Boardroom.sol\":2605:2651  seat.lastSnapshotIndex = latestSnapshotIndex() */\n      dup2\n      mstore\n      sub(shl(0xa0, 0x01), 0x01)\n        /* \"brownie_projects/bebu_finance/contracts/Boardroom/Boardroom.sol\":2665:2680  members[member] */\n      dup3\n      and\n        /* \"brownie_projects/bebu_finance/contracts/Boardroom/Boardroom.sol\":2605:2627  seat.lastSnapshotIndex */\n      0x00\n        /* \"brownie_projects/bebu_finance/contracts/Boardroom/Boardroom.sol\":2665:2680  members[member] */\n      swap1\n      dup2\n      mstore\n        /* \"brownie_projects/bebu_finance/contracts/Boardroom/Boardroom.sol\":2665:2672  members */\n      0x08\n        /* \"brownie_projects/bebu_finance/contracts/Boardroom/Boardroom.sol\":2665:2680  members[member] */\n      0x20\n      swap1\n      dup2\n      mstore\n      0x40\n      swap2\n      dup3\n      swap1\n      keccak256\n        /* \"brownie_projects/bebu_finance/contracts/Boardroom/Boardroom.sol\":2665:2687  members[member] = seat */\n      dup4\n      mload\n      dup2\n      sstore\n      swap1\n      dup4\n      add\n      mload\n      0x01\n      dup3\n      add\n      sstore\n      swap2\n      add\n      mload\n      0x02\n      swap1\n      swap2\n      add\n      sstore\n        /* \"brownie_projects/bebu_finance/contracts/Boardroom/Boardroom.sol\":2463:2698  if (member != address(0)) {... */\n    tag_368:\n        /* \"brownie_projects/bebu_finance/contracts/Boardroom/Boardroom.sol\":6872:6902  isAddressBlacklist(msg.sender) */\n      tag_372\n        /* \"brownie_projects/bebu_finance/contracts/Boardroom/Boardroom.sol\":6891:6901  msg.sender */\n      caller\n        /* \"brownie_projects/bebu_finance/contracts/Boardroom/Boardroom.sol\":6872:6890  isAddressBlacklist */\n      tag_166\n        /* \"brownie_projects/bebu_finance/contracts/Boardroom/Boardroom.sol\":6872:6902  isAddressBlacklist(msg.sender) */\n      jump\t// in\n    tag_372:\n        /* \"brownie_projects/bebu_finance/contracts/Boardroom/Boardroom.sol\":6871:6902  !isAddressBlacklist(msg.sender) */\n      iszero\n        /* \"brownie_projects/bebu_finance/contracts/Boardroom/Boardroom.sol\":6863:6916  require(!isAddressBlacklist(msg.sender), \"blacklist\") */\n      tag_373\n      jumpi\n      mload(0x40)\n      shl(0xe5, 0x461bcd)\n      dup2\n      mstore\n      0x04\n      add\n      tag_213\n      swap1\n      tag_232\n      jump\t// in\n    tag_373:\n        /* \"brownie_projects/bebu_finance/contracts/Boardroom/Boardroom.sol\":6943:6944  0 */\n      0x00\n        /* \"brownie_projects/bebu_finance/contracts/Boardroom/Boardroom.sol\":6934:6940  amount */\n      dup3\n        /* \"brownie_projects/bebu_finance/contracts/Boardroom/Boardroom.sol\":6934:6944  amount > 0 */\n      gt\n        /* \"brownie_projects/bebu_finance/contracts/Boardroom/Boardroom.sol\":6926:6974  require(amount > 0, \"Boardroom: Cannot stake 0\") */\n      tag_375\n      jumpi\n      mload(0x40)\n      shl(0xe5, 0x461bcd)\n      dup2\n      mstore\n        /* \"#utility.yul\":10495:10497   */\n      0x20\n        /* \"brownie_projects/bebu_finance/contracts/Boardroom/Boardroom.sol\":6926:6974  require(amount > 0, \"Boardroom: Cannot stake 0\") */\n      0x04\n      dup3\n      add\n        /* \"#utility.yul\":10477:10498   */\n      mstore\n        /* \"#utility.yul\":10534:10536   */\n      0x19\n        /* \"#utility.yul\":10514:10532   */\n      0x24\n      dup3\n      add\n        /* \"#utility.yul\":10507:10537   */\n      mstore\n        /* \"#utility.yul\":10573:10600   */\n      0x426f617264726f6f6d3a2043616e6e6f74207374616b65203000000000000000\n        /* \"#utility.yul\":10553:10571   */\n      0x44\n      dup3\n      add\n        /* \"#utility.yul\":10546:10601   */\n      mstore\n        /* \"#utility.yul\":10618:10636   */\n      0x64\n      add\n        /* \"brownie_projects/bebu_finance/contracts/Boardroom/Boardroom.sol\":6926:6974  require(amount > 0, \"Boardroom: Cannot stake 0\") */\n      tag_213\n        /* \"#utility.yul\":10293:10642   */\n      jump\n        /* \"brownie_projects/bebu_finance/contracts/Boardroom/Boardroom.sol\":6926:6974  require(amount > 0, \"Boardroom: Cannot stake 0\") */\n    tag_375:\n        /* \"brownie_projects/bebu_finance/contracts/Boardroom/Boardroom.sol\":6988:6991  fee */\n      sload(0x0c)\n        /* \"brownie_projects/bebu_finance/contracts/Boardroom/Boardroom.sol\":6988:6995  fee > 0 */\n      iszero\n        /* \"brownie_projects/bebu_finance/contracts/Boardroom/Boardroom.sol\":6984:7157  if (fee > 0) {... */\n      tag_378\n      jumpi\n        /* \"brownie_projects/bebu_finance/contracts/Boardroom/Boardroom.sol\":7011:7019  uint tax */\n      0x00\n        /* \"brownie_projects/bebu_finance/contracts/Boardroom/Boardroom.sol\":7022:7048  amount.mul(fee).div(10000) */\n      tag_379\n        /* \"brownie_projects/bebu_finance/contracts/Boardroom/Boardroom.sol\":7042:7047  10000 */\n      0x2710\n        /* \"brownie_projects/bebu_finance/contracts/Boardroom/Boardroom.sol\":7022:7037  amount.mul(fee) */\n      tag_190\n        /* \"brownie_projects/bebu_finance/contracts/Boardroom/Boardroom.sol\":7033:7036  fee */\n      sload(0x0c)\n        /* \"brownie_projects/bebu_finance/contracts/Boardroom/Boardroom.sol\":7022:7028  amount */\n      dup7\n        /* \"brownie_projects/bebu_finance/contracts/Boardroom/Boardroom.sol\":7022:7032  amount.mul */\n      tag_194\n      swap1\n        /* \"brownie_projects/bebu_finance/contracts/Boardroom/Boardroom.sol\":7022:7037  amount.mul(fee) */\n      swap2\n      swap1\n      0xffffffff\n      and\n      jump\t// in\n        /* \"brownie_projects/bebu_finance/contracts/Boardroom/Boardroom.sol\":7022:7048  amount.mul(fee).div(10000) */\n    tag_379:\n        /* \"brownie_projects/bebu_finance/contracts/Boardroom/Boardroom.sol\":7011:7048  uint tax = amount.mul(fee).div(10000) */\n      swap1\n      pop\n        /* \"brownie_projects/bebu_finance/contracts/Boardroom/Boardroom.sol\":7071:7086  amount.sub(tax) */\n      tag_381\n        /* \"brownie_projects/bebu_finance/contracts/Boardroom/Boardroom.sol\":7071:7077  amount */\n      dup4\n        /* \"brownie_projects/bebu_finance/contracts/Boardroom/Boardroom.sol\":7011:7048  uint tax = amount.mul(fee).div(10000) */\n      dup3\n        /* \"brownie_projects/bebu_finance/contracts/Boardroom/Boardroom.sol\":7071:7081  amount.sub */\n      tag_192\n        /* \"brownie_projects/bebu_finance/contracts/Boardroom/Boardroom.sol\":7071:7086  amount.sub(tax) */\n      jump\t// in\n    tag_381:\n        /* \"brownie_projects/bebu_finance/contracts/Boardroom/Boardroom.sol\":7135:7140  feeTo */\n      sload(0x0d)\n      0x00\n        /* \"brownie_projects/bebu_finance/contracts/Boardroom/Boardroom.sol\":7100:7105  share */\n      sload\n        /* \"brownie_projects/bebu_finance/contracts/Boardroom/Boardroom.sol\":7062:7086  amount = amount.sub(tax) */\n      swap2\n      swap5\n      pop\n        /* \"brownie_projects/bebu_finance/contracts/Boardroom/Boardroom.sol\":7100:7146  share.safeTransferFrom(msg.sender, feeTo, tax) */\n      tag_382\n      swap2\n      sub(shl(0xa0, 0x01), 0x01)\n        /* \"brownie_projects/bebu_finance/contracts/Boardroom/Boardroom.sol\":7100:7105  share */\n      swap1\n      dup2\n      and\n      swap2\n        /* \"brownie_projects/bebu_finance/contracts/Boardroom/Boardroom.sol\":7123:7133  msg.sender */\n      caller\n      swap2\n        /* \"brownie_projects/bebu_finance/contracts/Boardroom/Boardroom.sol\":7135:7140  feeTo */\n      and\n        /* \"brownie_projects/bebu_finance/contracts/Boardroom/Boardroom.sol\":7142:7145  tax */\n      dup5\n        /* \"brownie_projects/bebu_finance/contracts/Boardroom/Boardroom.sol\":7100:7122  share.safeTransferFrom */\n      tag_358\n        /* \"brownie_projects/bebu_finance/contracts/Boardroom/Boardroom.sol\":7100:7146  share.safeTransferFrom(msg.sender, feeTo, tax) */\n      jump\t// in\n    tag_382:\n        /* \"brownie_projects/bebu_finance/contracts/Boardroom/Boardroom.sol\":6997:7157  {... */\n      pop\n        /* \"brownie_projects/bebu_finance/contracts/Boardroom/Boardroom.sol\":6984:7157  if (fee > 0) {... */\n    tag_378:\n        /* \"brownie_projects/bebu_finance/contracts/Boardroom/Boardroom.sol\":7166:7185  super.stake(amount) */\n      tag_383\n        /* \"brownie_projects/bebu_finance/contracts/Boardroom/Boardroom.sol\":7178:7184  amount */\n      dup3\n        /* \"brownie_projects/bebu_finance/contracts/Boardroom/Boardroom.sol\":7166:7177  super.stake */\n      tag_384\n        /* \"brownie_projects/bebu_finance/contracts/Boardroom/Boardroom.sol\":7166:7185  super.stake(amount) */\n      jump\t// in\n    tag_383:\n        /* \"brownie_projects/bebu_finance/contracts/Boardroom/Boardroom.sol\":7233:7241  treasury */\n      0x06\n      0x00\n      swap1\n      sload\n      swap1\n      0x0100\n      exp\n      swap1\n      div\n      sub(shl(0xa0, 0x01), 0x01)\n      and\n      sub(shl(0xa0, 0x01), 0x01)\n        /* \"brownie_projects/bebu_finance/contracts/Boardroom/Boardroom.sol\":7233:7247  treasury.epoch */\n      and\n      0x900cf0cf\n        /* \"brownie_projects/bebu_finance/contracts/Boardroom/Boardroom.sol\":7233:7249  treasury.epoch() */\n      mload(0x40)\n      dup2\n      0xffffffff\n      and\n      0xe0\n      shl\n      dup2\n      mstore\n      0x04\n      add\n      0x20\n      mload(0x40)\n      dup1\n      dup4\n      sub\n      dup2\n      dup7\n      gas\n      staticcall\n      iszero\n      dup1\n      iszero\n      tag_386\n      jumpi\n      returndatasize\n      0x00\n      dup1\n      returndatacopy\n      revert(0x00, returndatasize)\n    tag_386:\n      pop\n      pop\n      pop\n      pop\n      mload(0x40)\n      returndatasize\n      not(0x1f)\n      0x1f\n      dup3\n      add\n      and\n      dup3\n      add\n      dup1\n      0x40\n      mstore\n      pop\n      dup2\n      add\n      swap1\n      tag_387\n      swap2\n      swap1\n      tag_201\n      jump\t// in\n    tag_387:\n        /* \"brownie_projects/bebu_finance/contracts/Boardroom/Boardroom.sol\":7203:7213  msg.sender */\n      caller\n        /* \"brownie_projects/bebu_finance/contracts/Boardroom/Boardroom.sol\":7195:7214  members[msg.sender] */\n      0x00\n      dup2\n      dup2\n      mstore\n        /* \"brownie_projects/bebu_finance/contracts/Boardroom/Boardroom.sol\":7195:7202  members */\n      0x08\n        /* \"brownie_projects/bebu_finance/contracts/Boardroom/Boardroom.sol\":7195:7214  members[msg.sender] */\n      0x20\n      mstore\n      0x40\n      swap1\n      dup2\n      swap1\n      keccak256\n        /* \"brownie_projects/bebu_finance/contracts/Boardroom/Boardroom.sol\":7195:7230  members[msg.sender].epochTimerStart */\n      0x02\n      add\n        /* \"brownie_projects/bebu_finance/contracts/Boardroom/Boardroom.sol\":7195:7249  members[msg.sender].epochTimerStart = treasury.epoch() */\n      swap3\n      swap1\n      swap3\n      sstore\n        /* \"brownie_projects/bebu_finance/contracts/Boardroom/Boardroom.sol\":7279:7305  Staked(msg.sender, amount) */\n      swap1\n      mload\n      0x9e71bc8eea02a63969f509818f2dafb9254532904319f9dbda79b67bd34a5f3d\n      swap1\n      tag_246\n      swap1\n        /* \"brownie_projects/bebu_finance/contracts/Boardroom/Boardroom.sol\":7298:7304  amount */\n      dup6\n        /* \"#utility.yul\":548:573   */\n      dup2\n      mstore\n        /* \"#utility.yul\":536:538   */\n      0x20\n        /* \"#utility.yul\":521:539   */\n      add\n      swap1\n        /* \"#utility.yul\":402:579   */\n      jump\n        /* \"brownie_projects/bebu_finance/contracts/Boardroom/Boardroom.sol\":3647:3746  function setOperator(address _operator) external onlyOperator {... */\n    tag_154:\n        /* \"brownie_projects/bebu_finance/contracts/Boardroom/Boardroom.sol\":2195:2203  operator */\n      and(sub(shl(0xa0, 0x01), 0x01), sload(0x04))\n        /* \"brownie_projects/bebu_finance/contracts/Boardroom/Boardroom.sol\":2207:2217  msg.sender */\n      caller\n        /* \"brownie_projects/bebu_finance/contracts/Boardroom/Boardroom.sol\":2195:2217  operator == msg.sender */\n      eq\n        /* \"brownie_projects/bebu_finance/contracts/Boardroom/Boardroom.sol\":2187:2259  require(operator == msg.sender, \"Boardroom: caller is not the operator\") */\n      tag_390\n      jumpi\n      mload(0x40)\n      shl(0xe5, 0x461bcd)\n      dup2\n      mstore\n      0x04\n      add\n      tag_213\n      swap1\n      tag_250\n      jump\t// in\n    tag_390:\n        /* \"brownie_projects/bebu_finance/contracts/Boardroom/Boardroom.sol\":3719:3727  operator */\n      0x04\n        /* \"brownie_projects/bebu_finance/contracts/Boardroom/Boardroom.sol\":3719:3739  operator = _operator */\n      dup1\n      sload\n      not(sub(shl(0xa0, 0x01), 0x01))\n      and\n      sub(shl(0xa0, 0x01), 0x01)\n      swap3\n      swap1\n      swap3\n      and\n      swap2\n      swap1\n      swap2\n      or\n      swap1\n      sstore\n        /* \"brownie_projects/bebu_finance/contracts/Boardroom/Boardroom.sol\":3647:3746  function setOperator(address _operator) external onlyOperator {... */\n      jump\t// out\n        /* \"brownie_projects/bebu_finance/contracts/Boardroom/Boardroom.sol\":7873:8466  function claimReward() public updateReward(msg.sender) {... */\n    tag_156:\n        /* \"brownie_projects/bebu_finance/contracts/Boardroom/Boardroom.sol\":7916:7926  msg.sender */\n      caller\n        /* \"brownie_projects/bebu_finance/contracts/Boardroom/Boardroom.sol\":2467:2487  member != address(0) */\n      dup1\n      iszero\n        /* \"brownie_projects/bebu_finance/contracts/Boardroom/Boardroom.sol\":2463:2698  if (member != address(0)) {... */\n      tag_394\n      jumpi\n      sub(shl(0xa0, 0x01), 0x01)\n        /* \"brownie_projects/bebu_finance/contracts/Boardroom/Boardroom.sol\":2528:2543  members[member] */\n      dup2\n      and\n        /* \"brownie_projects/bebu_finance/contracts/Boardroom/Boardroom.sol\":2503:2525  Memberseat memory seat */\n      0x00\n        /* \"brownie_projects/bebu_finance/contracts/Boardroom/Boardroom.sol\":2528:2543  members[member] */\n      swap1\n      dup2\n      mstore\n        /* \"brownie_projects/bebu_finance/contracts/Boardroom/Boardroom.sol\":2528:2535  members */\n      0x08\n        /* \"brownie_projects/bebu_finance/contracts/Boardroom/Boardroom.sol\":2528:2543  members[member] */\n      0x20\n      swap1\n      dup2\n      mstore\n      0x40\n      swap2\n      dup3\n      swap1\n      keccak256\n        /* \"brownie_projects/bebu_finance/contracts/Boardroom/Boardroom.sol\":2503:2543  Memberseat memory seat = members[member] */\n      dup3\n      mload\n      0x60\n      dup2\n      add\n      dup5\n      mstore\n      dup2\n      sload\n      dup2\n      mstore\n      0x01\n      dup3\n      add\n      sload\n      swap3\n      dup2\n      add\n      swap3\n      swap1\n      swap3\n      mstore\n      0x02\n      add\n      sload\n      swap2\n      dup2\n      add\n      swap2\n      swap1\n      swap2\n      mstore\n        /* \"brownie_projects/bebu_finance/contracts/Boardroom/Boardroom.sol\":2577:2591  earned(member) */\n      tag_395\n        /* \"brownie_projects/bebu_finance/contracts/Boardroom/Boardroom.sol\":2536:2542  member */\n      dup3\n        /* \"brownie_projects/bebu_finance/contracts/Boardroom/Boardroom.sol\":2577:2583  earned */\n      tag_51\n        /* \"brownie_projects/bebu_finance/contracts/Boardroom/Boardroom.sol\":2577:2591  earned(member) */\n      jump\t// in\n    tag_395:\n        /* \"brownie_projects/bebu_finance/contracts/Boardroom/Boardroom.sol\":2557:2574  seat.rewardEarned */\n      0x20\n      dup3\n      add\n        /* \"brownie_projects/bebu_finance/contracts/Boardroom/Boardroom.sol\":2557:2591  seat.rewardEarned = earned(member) */\n      mstore\n        /* \"brownie_projects/bebu_finance/contracts/Boardroom/Boardroom.sol\":2630:2651  latestSnapshotIndex() */\n      tag_396\n        /* \"brownie_projects/bebu_finance/contracts/Boardroom/Boardroom.sol\":2630:2649  latestSnapshotIndex */\n      tag_93\n        /* \"brownie_projects/bebu_finance/contracts/Boardroom/Boardroom.sol\":2630:2651  latestSnapshotIndex() */\n      jump\t// in\n    tag_396:\n        /* \"brownie_projects/bebu_finance/contracts/Boardroom/Boardroom.sol\":2605:2651  seat.lastSnapshotIndex = latestSnapshotIndex() */\n      dup2\n      mstore\n      sub(shl(0xa0, 0x01), 0x01)\n        /* \"brownie_projects/bebu_finance/contracts/Boardroom/Boardroom.sol\":2665:2680  members[member] */\n      dup3\n      and\n        /* \"brownie_projects/bebu_finance/contracts/Boardroom/Boardroom.sol\":2605:2627  seat.lastSnapshotIndex */\n      0x00\n        /* \"brownie_projects/bebu_finance/contracts/Boardroom/Boardroom.sol\":2665:2680  members[member] */\n      swap1\n      dup2\n      mstore\n        /* \"brownie_projects/bebu_finance/contracts/Boardroom/Boardroom.sol\":2665:2672  members */\n      0x08\n        /* \"brownie_projects/bebu_finance/contracts/Boardroom/Boardroom.sol\":2665:2680  members[member] */\n      0x20\n      swap1\n      dup2\n      mstore\n      0x40\n      swap2\n      dup3\n      swap1\n      keccak256\n        /* \"brownie_projects/bebu_finance/contracts/Boardroom/Boardroom.sol\":2665:2687  members[member] = seat */\n      dup4\n      mload\n      dup2\n      sstore\n      swap1\n      dup4\n      add\n      mload\n      0x01\n      dup3\n      add\n      sstore\n      swap2\n      add\n      mload\n      0x02\n      swap1\n      swap2\n      add\n      sstore\n        /* \"brownie_projects/bebu_finance/contracts/Boardroom/Boardroom.sol\":2463:2698  if (member != address(0)) {... */\n    tag_394:\n        /* \"brownie_projects/bebu_finance/contracts/Boardroom/Boardroom.sol\":7947:7977  isAddressBlacklist(msg.sender) */\n      tag_398\n        /* \"brownie_projects/bebu_finance/contracts/Boardroom/Boardroom.sol\":7966:7976  msg.sender */\n      caller\n        /* \"brownie_projects/bebu_finance/contracts/Boardroom/Boardroom.sol\":7947:7965  isAddressBlacklist */\n      tag_166\n        /* \"brownie_projects/bebu_finance/contracts/Boardroom/Boardroom.sol\":7947:7977  isAddressBlacklist(msg.sender) */\n      jump\t// in\n    tag_398:\n        /* \"brownie_projects/bebu_finance/contracts/Boardroom/Boardroom.sol\":7946:7977  !isAddressBlacklist(msg.sender) */\n      iszero\n        /* \"brownie_projects/bebu_finance/contracts/Boardroom/Boardroom.sol\":7938:7991  require(!isAddressBlacklist(msg.sender), \"blacklist\") */\n      tag_399\n      jumpi\n      mload(0x40)\n      shl(0xe5, 0x461bcd)\n      dup2\n      mstore\n      0x04\n      add\n      tag_213\n      swap1\n      tag_232\n      jump\t// in\n    tag_399:\n        /* \"brownie_projects/bebu_finance/contracts/Boardroom/Boardroom.sol\":8026:8036  msg.sender */\n      caller\n        /* \"brownie_projects/bebu_finance/contracts/Boardroom/Boardroom.sol\":8001:8015  uint256 reward */\n      0x00\n        /* \"brownie_projects/bebu_finance/contracts/Boardroom/Boardroom.sol\":8018:8037  members[msg.sender] */\n      swap1\n      dup2\n      mstore\n        /* \"brownie_projects/bebu_finance/contracts/Boardroom/Boardroom.sol\":8018:8025  members */\n      0x08\n        /* \"brownie_projects/bebu_finance/contracts/Boardroom/Boardroom.sol\":8018:8037  members[msg.sender] */\n      0x20\n      mstore\n      0x40\n      swap1\n      keccak256\n        /* \"brownie_projects/bebu_finance/contracts/Boardroom/Boardroom.sol\":8018:8050  members[msg.sender].rewardEarned */\n      0x01\n      add\n      sload\n        /* \"brownie_projects/bebu_finance/contracts/Boardroom/Boardroom.sol\":8064:8074  reward > 0 */\n      dup1\n      iszero\n        /* \"brownie_projects/bebu_finance/contracts/Boardroom/Boardroom.sol\":8060:8460  if (reward > 0) {... */\n      tag_401\n      jumpi\n        /* \"brownie_projects/bebu_finance/contracts/Boardroom/Boardroom.sol\":8161:8169  treasury */\n      0x06\n      0x00\n      swap1\n      sload\n      swap1\n      0x0100\n      exp\n      swap1\n      div\n      sub(shl(0xa0, 0x01), 0x01)\n      and\n      sub(shl(0xa0, 0x01), 0x01)\n        /* \"brownie_projects/bebu_finance/contracts/Boardroom/Boardroom.sol\":8161:8175  treasury.epoch */\n      and\n      0x900cf0cf\n        /* \"brownie_projects/bebu_finance/contracts/Boardroom/Boardroom.sol\":8161:8177  treasury.epoch() */\n      mload(0x40)\n      dup2\n      0xffffffff\n      and\n      0xe0\n      shl\n      dup2\n      mstore\n      0x04\n      add\n      0x20\n      mload(0x40)\n      dup1\n      dup4\n      sub\n      dup2\n      dup7\n      gas\n      staticcall\n      iszero\n      dup1\n      iszero\n      tag_403\n      jumpi\n      returndatasize\n      0x00\n      dup1\n      returndatacopy\n      revert(0x00, returndatasize)\n    tag_403:\n      pop\n      pop\n      pop\n      pop\n      mload(0x40)\n      returndatasize\n      not(0x1f)\n      0x1f\n      dup3\n      add\n      and\n      dup3\n      add\n      dup1\n      0x40\n      mstore\n      pop\n      dup2\n      add\n      swap1\n      tag_404\n      swap2\n      swap1\n      tag_201\n      jump\t// in\n    tag_404:\n        /* \"brownie_projects/bebu_finance/contracts/Boardroom/Boardroom.sol\":8138:8156  rewardLockupEpochs */\n      sload(0x0b)\n        /* \"brownie_projects/bebu_finance/contracts/Boardroom/Boardroom.sol\":8106:8116  msg.sender */\n      caller\n        /* \"brownie_projects/bebu_finance/contracts/Boardroom/Boardroom.sol\":8098:8117  members[msg.sender] */\n      0x00\n      swap1\n      dup2\n      mstore\n        /* \"brownie_projects/bebu_finance/contracts/Boardroom/Boardroom.sol\":8098:8105  members */\n      0x08\n        /* \"brownie_projects/bebu_finance/contracts/Boardroom/Boardroom.sol\":8098:8117  members[msg.sender] */\n      0x20\n      mstore\n      0x40\n      swap1\n      keccak256\n        /* \"brownie_projects/bebu_finance/contracts/Boardroom/Boardroom.sol\":8098:8133  members[msg.sender].epochTimerStart */\n      0x02\n      add\n      sload\n        /* \"brownie_projects/bebu_finance/contracts/Boardroom/Boardroom.sol\":8098:8157  members[msg.sender].epochTimerStart.add(rewardLockupEpochs) */\n      tag_405\n      swap2\n        /* \"brownie_projects/bebu_finance/contracts/Boardroom/Boardroom.sol\":8098:8137  members[msg.sender].epochTimerStart.add */\n      tag_196\n        /* \"brownie_projects/bebu_finance/contracts/Boardroom/Boardroom.sol\":8098:8157  members[msg.sender].epochTimerStart.add(rewardLockupEpochs) */\n      jump\t// in\n    tag_405:\n        /* \"brownie_projects/bebu_finance/contracts/Boardroom/Boardroom.sol\":8098:8177  members[msg.sender].epochTimerStart.add(rewardLockupEpochs) <= treasury.epoch() */\n      gt\n      iszero\n        /* \"brownie_projects/bebu_finance/contracts/Boardroom/Boardroom.sol\":8090:8215  require(members[msg.sender].epochTimerStart.add(rewardLockupEpochs) <= treasury.epoch(), \"Boardroom: still in reward lockup\") */\n      tag_406\n      jumpi\n      mload(0x40)\n      shl(0xe5, 0x461bcd)\n      dup2\n      mstore\n        /* \"#utility.yul\":10849:10851   */\n      0x20\n        /* \"brownie_projects/bebu_finance/contracts/Boardroom/Boardroom.sol\":8090:8215  require(members[msg.sender].epochTimerStart.add(rewardLockupEpochs) <= treasury.epoch(), \"Boardroom: still in reward lockup\") */\n      0x04\n      dup3\n      add\n        /* \"#utility.yul\":10831:10852   */\n      mstore\n        /* \"#utility.yul\":10888:10890   */\n      0x21\n        /* \"#utility.yul\":10868:10886   */\n      0x24\n      dup3\n      add\n        /* \"#utility.yul\":10861:10891   */\n      mstore\n        /* \"#utility.yul\":10927:10961   */\n      0x426f617264726f6f6d3a207374696c6c20696e20726577617264206c6f636b75\n        /* \"#utility.yul\":10907:10925   */\n      0x44\n      dup3\n      add\n        /* \"#utility.yul\":10900:10962   */\n      mstore\n      shl(0xfc, 0x07)\n        /* \"#utility.yul\":10978:10996   */\n      0x64\n      dup3\n      add\n        /* \"#utility.yul\":10971:11002   */\n      mstore\n        /* \"#utility.yul\":11019:11038   */\n      0x84\n      add\n        /* \"brownie_projects/bebu_finance/contracts/Boardroom/Boardroom.sol\":8090:8215  require(members[msg.sender].epochTimerStart.add(rewardLockupEpochs) <= treasury.epoch(), \"Boardroom: still in reward lockup\") */\n      tag_213\n        /* \"#utility.yul\":10647:11044   */\n      jump\n        /* \"brownie_projects/bebu_finance/contracts/Boardroom/Boardroom.sol\":8090:8215  require(members[msg.sender].epochTimerStart.add(rewardLockupEpochs) <= treasury.epoch(), \"Boardroom: still in reward lockup\") */\n    tag_406:\n        /* \"brownie_projects/bebu_finance/contracts/Boardroom/Boardroom.sol\":8267:8275  treasury */\n      0x06\n      0x00\n      swap1\n      sload\n      swap1\n      0x0100\n      exp\n      swap1\n      div\n      sub(shl(0xa0, 0x01), 0x01)\n      and\n      sub(shl(0xa0, 0x01), 0x01)\n        /* \"brownie_projects/bebu_finance/contracts/Boardroom/Boardroom.sol\":8267:8281  treasury.epoch */\n      and\n      0x900cf0cf\n        /* \"brownie_projects/bebu_finance/contracts/Boardroom/Boardroom.sol\":8267:8283  treasury.epoch() */\n      mload(0x40)\n      dup2\n      0xffffffff\n      and\n      0xe0\n      shl\n      dup2\n      mstore\n      0x04\n      add\n      0x20\n      mload(0x40)\n      dup1\n      dup4\n      sub\n      dup2\n      dup7\n      gas\n      staticcall\n      iszero\n      dup1\n      iszero\n      tag_410\n      jumpi\n      returndatasize\n      0x00\n      dup1\n      returndatacopy\n      revert(0x00, returndatasize)\n    tag_410:\n      pop\n      pop\n      pop\n      pop\n      mload(0x40)\n      returndatasize\n      not(0x1f)\n      0x1f\n      dup3\n      add\n      and\n      dup3\n      add\n      dup1\n      0x40\n      mstore\n      pop\n      dup2\n      add\n      swap1\n      tag_411\n      swap2\n      swap1\n      tag_201\n      jump\t// in\n    tag_411:\n        /* \"brownie_projects/bebu_finance/contracts/Boardroom/Boardroom.sol\":8237:8247  msg.sender */\n      caller\n        /* \"brownie_projects/bebu_finance/contracts/Boardroom/Boardroom.sol\":8229:8248  members[msg.sender] */\n      0x00\n      dup2\n      dup2\n      mstore\n        /* \"brownie_projects/bebu_finance/contracts/Boardroom/Boardroom.sol\":8229:8236  members */\n      0x08\n        /* \"brownie_projects/bebu_finance/contracts/Boardroom/Boardroom.sol\":8229:8248  members[msg.sender] */\n      0x20\n      mstore\n      0x40\n      dup2\n      keccak256\n        /* \"brownie_projects/bebu_finance/contracts/Boardroom/Boardroom.sol\":8229:8264  members[msg.sender].epochTimerStart */\n      0x02\n      dup2\n      add\n        /* \"brownie_projects/bebu_finance/contracts/Boardroom/Boardroom.sol\":8229:8283  members[msg.sender].epochTimerStart = treasury.epoch() */\n      swap4\n      swap1\n      swap4\n      sstore\n        /* \"brownie_projects/bebu_finance/contracts/Boardroom/Boardroom.sol\":8312:8344  members[msg.sender].rewardEarned */\n      0x01\n      swap1\n      swap3\n      add\n        /* \"brownie_projects/bebu_finance/contracts/Boardroom/Boardroom.sol\":8312:8348  members[msg.sender].rewardEarned = 0 */\n      swap2\n      swap1\n      swap2\n      sstore\n        /* \"brownie_projects/bebu_finance/contracts/Boardroom/Boardroom.sol\":8362:8367  token */\n      sload(0x05)\n        /* \"brownie_projects/bebu_finance/contracts/Boardroom/Boardroom.sol\":8362:8400  token.safeTransfer(msg.sender, reward) */\n      tag_412\n      swap2\n      sub(shl(0xa0, 0x01), 0x01)\n        /* \"brownie_projects/bebu_finance/contracts/Boardroom/Boardroom.sol\":8362:8367  token */\n      swap1\n      swap2\n      and\n      swap1\n        /* \"brownie_projects/bebu_finance/contracts/Boardroom/Boardroom.sol\":8393:8399  reward */\n      dup4\n        /* \"brownie_projects/bebu_finance/contracts/Boardroom/Boardroom.sol\":8362:8380  token.safeTransfer */\n      tag_286\n        /* \"brownie_projects/bebu_finance/contracts/Boardroom/Boardroom.sol\":8362:8400  token.safeTransfer(msg.sender, reward) */\n      jump\t// in\n    tag_412:\n        /* \"brownie_projects/bebu_finance/contracts/Boardroom/Boardroom.sol\":8419:8449  RewardPaid(msg.sender, reward) */\n      mload(0x40)\n        /* \"#utility.yul\":548:573   */\n      dup2\n      dup2\n      mstore\n        /* \"brownie_projects/bebu_finance/contracts/Boardroom/Boardroom.sol\":8430:8440  msg.sender */\n      caller\n      swap1\n        /* \"brownie_projects/bebu_finance/contracts/Boardroom/Boardroom.sol\":8419:8449  RewardPaid(msg.sender, reward) */\n      0xe2403640ba68fed3a2f88b7557551d1993f84b99bb10ff833f0cf8db0c5e0486\n      swap1\n        /* \"#utility.yul\":536:538   */\n      0x20\n        /* \"#utility.yul\":521:539   */\n      add\n        /* \"brownie_projects/bebu_finance/contracts/Boardroom/Boardroom.sol\":8419:8449  RewardPaid(msg.sender, reward) */\n      tag_246\n        /* \"#utility.yul\":402:579   */\n      jump\n        /* \"brownie_projects/bebu_finance/contracts/Boardroom/Boardroom.sol\":8060:8460  if (reward > 0) {... */\n    tag_401:\n        /* \"brownie_projects/bebu_finance/contracts/Boardroom/Boardroom.sol\":7928:8466  {... */\n      pop\n        /* \"brownie_projects/bebu_finance/contracts/Boardroom/Boardroom.sol\":7873:8466  function claimReward() public updateReward(msg.sender) {... */\n      pop\n      jump\t// out\n        /* \"brownie_projects/bebu_finance/contracts/Boardroom/Boardroom.sol\":1408:1451  BoardroomSnapshot[] public boardroomHistory */\n    tag_159:\n      0x09\n      dup2\n      dup2\n      sload\n      dup2\n      lt\n      tag_414\n      jumpi\n      0x00\n      dup1\n      revert\n    tag_414:\n      0x00\n      swap2\n      dup3\n      mstore\n      0x20\n      swap1\n      swap2\n      keccak256\n      0x03\n      swap1\n      swap2\n      mul\n      add\n      dup1\n      sload\n      0x01\n      dup3\n      add\n      sload\n      0x02\n      swap1\n      swap3\n      add\n      sload\n      swap1\n      swap3\n      pop\n      dup4\n      jump\t// out\n        /* \"brownie_projects/bebu_finance/contracts/Boardroom/Boardroom.sol\":6019:6126  function nextEpochPoint() external view returns (uint256) {... */\n    tag_162:\n        /* \"brownie_projects/bebu_finance/contracts/Boardroom/Boardroom.sol\":6094:6102  treasury */\n      sload(0x06)\n        /* \"brownie_projects/bebu_finance/contracts/Boardroom/Boardroom.sol\":6094:6119  treasury.nextEpochPoint() */\n      0x40\n      dup1\n      mload\n      shl(0xe1, 0x62cb3e13)\n      dup2\n      mstore\n      swap1\n      mload\n        /* \"brownie_projects/bebu_finance/contracts/Boardroom/Boardroom.sol\":6068:6075  uint256 */\n      0x00\n      swap3\n      sub(shl(0xa0, 0x01), 0x01)\n        /* \"brownie_projects/bebu_finance/contracts/Boardroom/Boardroom.sol\":6094:6102  treasury */\n      and\n      swap2\n        /* \"brownie_projects/bebu_finance/contracts/Boardroom/Boardroom.sol\":6094:6117  treasury.nextEpochPoint */\n      0xc5967c26\n      swap2\n        /* \"brownie_projects/bebu_finance/contracts/Boardroom/Boardroom.sol\":6094:6119  treasury.nextEpochPoint() */\n      0x04\n      dup1\n      dup4\n      add\n      swap3\n      0x20\n      swap3\n      swap2\n      swap1\n      dup3\n      swap1\n      sub\n      add\n      dup2\n        /* \"brownie_projects/bebu_finance/contracts/Boardroom/Boardroom.sol\":6094:6102  treasury */\n      dup7\n        /* \"brownie_projects/bebu_finance/contracts/Boardroom/Boardroom.sol\":6094:6119  treasury.nextEpochPoint() */\n      gas\n      staticcall\n      iszero\n      dup1\n      iszero\n      tag_262\n      jumpi\n      returndatasize\n      0x00\n      dup1\n      returndatacopy\n      revert(0x00, returndatasize)\n        /* \"brownie_projects/bebu_finance/contracts/Boardroom/Boardroom.sol\":4792:4908  function isAddressBlacklist(address _address) public view returns (bool) {... */\n    tag_166:\n      sub(shl(0xa0, 0x01), 0x01)\n        /* \"brownie_projects/bebu_finance/contracts/Boardroom/Boardroom.sol\":4882:4901  blacklist[_address] */\n      and\n        /* \"brownie_projects/bebu_finance/contracts/Boardroom/Boardroom.sol\":4859:4863  bool */\n      0x00\n        /* \"brownie_projects/bebu_finance/contracts/Boardroom/Boardroom.sol\":4882:4901  blacklist[_address] */\n      swap1\n      dup2\n      mstore\n        /* \"brownie_projects/bebu_finance/contracts/Boardroom/Boardroom.sol\":4882:4891  blacklist */\n      0x07\n        /* \"brownie_projects/bebu_finance/contracts/Boardroom/Boardroom.sol\":4882:4901  blacklist[_address] */\n      0x20\n      mstore\n      0x40\n      swap1\n      keccak256\n      sload\n      0xff\n      and\n      swap1\n        /* \"brownie_projects/bebu_finance/contracts/Boardroom/Boardroom.sol\":4792:4908  function isAddressBlacklist(address _address) public view returns (bool) {... */\n      jump\t// out\n        /* \"brownie_projects/bebu_finance/contracts/Boardroom/Boardroom.sol\":7794:7867  function exit() external {... */\n    tag_172:\n        /* \"brownie_projects/bebu_finance/contracts/Boardroom/Boardroom.sol\":7848:7858  msg.sender */\n      caller\n        /* \"brownie_projects/bebu_finance/contracts/Boardroom/ShareWrapper.sol\":493:500  uint256 */\n      0x00\n        /* \"brownie_projects/bebu_finance/contracts/Boardroom/ShareWrapper.sol\":519:537  _balances[account] */\n      swap1\n      dup2\n      mstore\n        /* \"brownie_projects/bebu_finance/contracts/Boardroom/ShareWrapper.sol\":519:528  _balances */\n      0x02\n        /* \"brownie_projects/bebu_finance/contracts/Boardroom/ShareWrapper.sol\":519:537  _balances[account] */\n      0x20\n      mstore\n      0x40\n      swap1\n      keccak256\n      sload\n        /* \"brownie_projects/bebu_finance/contracts/Boardroom/Boardroom.sol\":7829:7860  withdraw(balanceOf(msg.sender)) */\n      tag_422\n      swap1\n        /* \"brownie_projects/bebu_finance/contracts/Boardroom/Boardroom.sol\":7318:7788  function withdraw(uint256 amount) public override onlyOneBlock memberExists updateReward(msg.sender) {... */\n      tag_87\n      jump\t// in\n        /* \"brownie_projects/bebu_finance/contracts/Boardroom/Boardroom.sol\":7829:7860  withdraw(balanceOf(msg.sender)) */\n    tag_422:\n        /* \"brownie_projects/bebu_finance/contracts/Boardroom/Boardroom.sol\":7794:7867  function exit() external {... */\n      jump\t// out\n        /* \"brownie_projects/bebu_finance/contracts/Boardroom/Boardroom.sol\":4262:4349  function setFeeTo(address _feeTo) external onlyOperator {... */\n    tag_175:\n        /* \"brownie_projects/bebu_finance/contracts/Boardroom/Boardroom.sol\":2195:2203  operator */\n      and(sub(shl(0xa0, 0x01), 0x01), sload(0x04))\n        /* \"brownie_projects/bebu_finance/contracts/Boardroom/Boardroom.sol\":2207:2217  msg.sender */\n      caller\n        /* \"brownie_projects/bebu_finance/contracts/Boardroom/Boardroom.sol\":2195:2217  operator == msg.sender */\n      eq\n        /* \"brownie_projects/bebu_finance/contracts/Boardroom/Boardroom.sol\":2187:2259  require(operator == msg.sender, \"Boardroom: caller is not the operator\") */\n      tag_425\n      jumpi\n      mload(0x40)\n      shl(0xe5, 0x461bcd)\n      dup2\n      mstore\n      0x04\n      add\n      tag_213\n      swap1\n      tag_250\n      jump\t// in\n    tag_425:\n        /* \"brownie_projects/bebu_finance/contracts/Boardroom/Boardroom.sol\":4328:4333  feeTo */\n      0x0d\n        /* \"brownie_projects/bebu_finance/contracts/Boardroom/Boardroom.sol\":4328:4342  feeTo = _feeTo */\n      dup1\n      sload\n      not(sub(shl(0xa0, 0x01), 0x01))\n      and\n      sub(shl(0xa0, 0x01), 0x01)\n      swap3\n      swap1\n      swap3\n      and\n      swap2\n      swap1\n      swap2\n      or\n      swap1\n      sstore\n        /* \"brownie_projects/bebu_finance/contracts/Boardroom/Boardroom.sol\":4262:4349  function setFeeTo(address _feeTo) external onlyOperator {... */\n      jump\t// out\n        /* \"brownie_projects/bebu_finance/contracts/Boardroom/Boardroom.sol\":5119:5260  function getLatestSnapshot() internal view returns (BoardroomSnapshot memory) {... */\n    tag_185:\n        /* \"brownie_projects/bebu_finance/contracts/Boardroom/Boardroom.sol\":5171:5195  BoardroomSnapshot memory */\n      tag_428\n      mload(0x40)\n      dup1\n      0x60\n      add\n      0x40\n      mstore\n      dup1\n      0x00\n      dup2\n      mstore\n      0x20\n      add\n      0x00\n      dup2\n      mstore\n      0x20\n      add\n      0x00\n      dup2\n      mstore\n      pop\n      swap1\n      jump\n    tag_428:\n        /* \"brownie_projects/bebu_finance/contracts/Boardroom/Boardroom.sol\":5214:5230  boardroomHistory */\n      0x09\n        /* \"brownie_projects/bebu_finance/contracts/Boardroom/Boardroom.sol\":5231:5252  latestSnapshotIndex() */\n      tag_431\n        /* \"brownie_projects/bebu_finance/contracts/Boardroom/Boardroom.sol\":5231:5250  latestSnapshotIndex */\n      tag_93\n        /* \"brownie_projects/bebu_finance/contracts/Boardroom/Boardroom.sol\":5231:5252  latestSnapshotIndex() */\n      jump\t// in\n    tag_431:\n        /* \"brownie_projects/bebu_finance/contracts/Boardroom/Boardroom.sol\":5214:5253  boardroomHistory[latestSnapshotIndex()] */\n      dup2\n      sload\n      dup2\n      lt\n      tag_433\n      jumpi\n      tag_433\n      tag_434\n      jump\t// in\n    tag_433:\n      swap1\n      0x00\n      mstore\n      keccak256(0x00, 0x20)\n      swap1\n      0x03\n      mul\n      add\n        /* \"brownie_projects/bebu_finance/contracts/Boardroom/Boardroom.sol\":5207:5253  return boardroomHistory[latestSnapshotIndex()] */\n      mload(0x40)\n      dup1\n      0x60\n      add\n      0x40\n      mstore\n      swap1\n      dup2\n      0x00\n      dup3\n      add\n      sload\n      dup2\n      mstore\n      0x20\n      add\n      0x01\n      dup3\n      add\n      sload\n      dup2\n      mstore\n      0x20\n      add\n      0x02\n      dup3\n      add\n      sload\n      dup2\n      mstore\n      pop\n      pop\n      swap1\n      pop\n        /* \"brownie_projects/bebu_finance/contracts/Boardroom/Boardroom.sol\":5119:5260  function getLatestSnapshot() internal view returns (BoardroomSnapshot memory) {... */\n      swap1\n      jump\t// out\n        /* \"brownie_projects/bebu_finance/contracts/Boardroom/Boardroom.sol\":5407:5571  function getLastSnapshotOf(address member) internal view returns (BoardroomSnapshot memory) {... */\n    tag_187:\n        /* \"brownie_projects/bebu_finance/contracts/Boardroom/Boardroom.sol\":5473:5497  BoardroomSnapshot memory */\n      tag_436\n      mload(0x40)\n      dup1\n      0x60\n      add\n      0x40\n      mstore\n      dup1\n      0x00\n      dup2\n      mstore\n      0x20\n      add\n      0x00\n      dup2\n      mstore\n      0x20\n      add\n      0x00\n      dup2\n      mstore\n      pop\n      swap1\n      jump\n    tag_436:\n        /* \"brownie_projects/bebu_finance/contracts/Boardroom/Boardroom.sol\":5516:5532  boardroomHistory */\n      0x09\n        /* \"brownie_projects/bebu_finance/contracts/Boardroom/Boardroom.sol\":5533:5563  getLastSnapshotIndexOf(member) */\n      tag_438\n        /* \"brownie_projects/bebu_finance/contracts/Boardroom/Boardroom.sol\":5556:5562  member */\n      dup4\n      sub(shl(0xa0, 0x01), 0x01)\n        /* \"brownie_projects/bebu_finance/contracts/Boardroom/Boardroom.sol\":5361:5376  members[member] */\n      and\n        /* \"brownie_projects/bebu_finance/contracts/Boardroom/Boardroom.sol\":5335:5342  uint256 */\n      0x00\n        /* \"brownie_projects/bebu_finance/contracts/Boardroom/Boardroom.sol\":5361:5376  members[member] */\n      swap1\n      dup2\n      mstore\n        /* \"brownie_projects/bebu_finance/contracts/Boardroom/Boardroom.sol\":5361:5368  members */\n      0x08\n        /* \"brownie_projects/bebu_finance/contracts/Boardroom/Boardroom.sol\":5361:5376  members[member] */\n      0x20\n      mstore\n      0x40\n      swap1\n      keccak256\n        /* \"brownie_projects/bebu_finance/contracts/Boardroom/Boardroom.sol\":5361:5394  members[member].lastSnapshotIndex */\n      sload\n      swap1\n        /* \"brownie_projects/bebu_finance/contracts/Boardroom/Boardroom.sol\":5266:5401  function getLastSnapshotIndexOf(address member) public view returns (uint256) {... */\n      jump\n        /* \"brownie_projects/bebu_finance/contracts/Boardroom/Boardroom.sol\":5533:5563  getLastSnapshotIndexOf(member) */\n    tag_438:\n        /* \"brownie_projects/bebu_finance/contracts/Boardroom/Boardroom.sol\":5516:5564  boardroomHistory[getLastSnapshotIndexOf(member)] */\n      dup2\n      sload\n      dup2\n      lt\n      tag_440\n      jumpi\n      tag_440\n      tag_434\n      jump\t// in\n    tag_440:\n      swap1\n      0x00\n      mstore\n      keccak256(0x00, 0x20)\n      swap1\n      0x03\n      mul\n      add\n        /* \"brownie_projects/bebu_finance/contracts/Boardroom/Boardroom.sol\":5509:5564  return boardroomHistory[getLastSnapshotIndexOf(member)] */\n      mload(0x40)\n      dup1\n      0x60\n      add\n      0x40\n      mstore\n      swap1\n      dup2\n      0x00\n      dup3\n      add\n      sload\n      dup2\n      mstore\n      0x20\n      add\n      0x01\n      dup3\n      add\n      sload\n      dup2\n      mstore\n      0x20\n      add\n      0x02\n      dup3\n      add\n      sload\n      dup2\n      mstore\n      pop\n      pop\n      swap1\n      pop\n        /* \"brownie_projects/bebu_finance/contracts/Boardroom/Boardroom.sol\":5407:5571  function getLastSnapshotOf(address member) internal view returns (BoardroomSnapshot memory) {... */\n      swap2\n      swap1\n      pop\n      jump\t// out\n        /* \"brownie_projects/bebu_finance/contracts/utils/math/SafeMath.sol\":3050:3146  function sub(uint256 a, uint256 b) internal pure returns (uint256) {... */\n    tag_192:\n        /* \"brownie_projects/bebu_finance/contracts/utils/math/SafeMath.sol\":3108:3115  uint256 */\n      0x00\n        /* \"brownie_projects/bebu_finance/contracts/utils/math/SafeMath.sol\":3134:3139  a - b */\n      tag_443\n        /* \"brownie_projects/bebu_finance/contracts/utils/math/SafeMath.sol\":3138:3139  b */\n      dup3\n        /* \"brownie_projects/bebu_finance/contracts/utils/math/SafeMath.sol\":3134:3135  a */\n      dup5\n        /* \"brownie_projects/bebu_finance/contracts/utils/math/SafeMath.sol\":3134:3139  a - b */\n      tag_444\n      jump\t// in\n    tag_443:\n        /* \"brownie_projects/bebu_finance/contracts/utils/math/SafeMath.sol\":3127:3139  return a - b */\n      swap4\n        /* \"brownie_projects/bebu_finance/contracts/utils/math/SafeMath.sol\":3050:3146  function sub(uint256 a, uint256 b) internal pure returns (uint256) {... */\n      swap3\n      pop\n      pop\n      pop\n      jump\t// out\n        /* \"brownie_projects/bebu_finance/contracts/utils/math/SafeMath.sol\":3393:3489  function mul(uint256 a, uint256 b) internal pure returns (uint256) {... */\n    tag_194:\n        /* \"brownie_projects/bebu_finance/contracts/utils/math/SafeMath.sol\":3451:3458  uint256 */\n      0x00\n        /* \"brownie_projects/bebu_finance/contracts/utils/math/SafeMath.sol\":3477:3482  a * b */\n      tag_443\n        /* \"brownie_projects/bebu_finance/contracts/utils/math/SafeMath.sol\":3481:3482  b */\n      dup3\n        /* \"brownie_projects/bebu_finance/contracts/utils/math/SafeMath.sol\":3477:3478  a */\n      dup5\n        /* \"brownie_projects/bebu_finance/contracts/utils/math/SafeMath.sol\":3477:3482  a * b */\n      tag_447\n      jump\t// in\n        /* \"brownie_projects/bebu_finance/contracts/utils/math/SafeMath.sol\":3778:3874  function div(uint256 a, uint256 b) internal pure returns (uint256) {... */\n    tag_195:\n        /* \"brownie_projects/bebu_finance/contracts/utils/math/SafeMath.sol\":3836:3843  uint256 */\n      0x00\n        /* \"brownie_projects/bebu_finance/contracts/utils/math/SafeMath.sol\":3862:3867  a / b */\n      tag_443\n        /* \"brownie_projects/bebu_finance/contracts/utils/math/SafeMath.sol\":3866:3867  b */\n      dup3\n        /* \"brownie_projects/bebu_finance/contracts/utils/math/SafeMath.sol\":3862:3863  a */\n      dup5\n        /* \"brownie_projects/bebu_finance/contracts/utils/math/SafeMath.sol\":3862:3867  a / b */\n      tag_450\n      jump\t// in\n        /* \"brownie_projects/bebu_finance/contracts/utils/math/SafeMath.sol\":2683:2779  function add(uint256 a, uint256 b) internal pure returns (uint256) {... */\n    tag_196:\n        /* \"brownie_projects/bebu_finance/contracts/utils/math/SafeMath.sol\":2741:2748  uint256 */\n      0x00\n        /* \"brownie_projects/bebu_finance/contracts/utils/math/SafeMath.sol\":2767:2772  a + b */\n      tag_443\n        /* \"brownie_projects/bebu_finance/contracts/utils/math/SafeMath.sol\":2771:2772  b */\n      dup3\n        /* \"brownie_projects/bebu_finance/contracts/utils/math/SafeMath.sol\":2767:2768  a */\n      dup5\n        /* \"brownie_projects/bebu_finance/contracts/utils/math/SafeMath.sol\":2767:2772  a + b */\n      tag_453\n      jump\t// in\n        /* \"brownie_projects/bebu_finance/contracts/Boardroom/ShareWrapper.sol\":792:1153  function withdraw(uint256 amount) public virtual {... */\n    tag_245:\n        /* \"brownie_projects/bebu_finance/contracts/Boardroom/ShareWrapper.sol\":883:893  msg.sender */\n      caller\n        /* \"brownie_projects/bebu_finance/contracts/Boardroom/ShareWrapper.sol\":851:870  uint256 memberShare */\n      0x00\n        /* \"brownie_projects/bebu_finance/contracts/Boardroom/ShareWrapper.sol\":873:894  _balances[msg.sender] */\n      swap1\n      dup2\n      mstore\n        /* \"brownie_projects/bebu_finance/contracts/Boardroom/ShareWrapper.sol\":873:882  _balances */\n      0x02\n        /* \"brownie_projects/bebu_finance/contracts/Boardroom/ShareWrapper.sol\":873:894  _balances[msg.sender] */\n      0x20\n      mstore\n      0x40\n      swap1\n      keccak256\n      sload\n        /* \"brownie_projects/bebu_finance/contracts/Boardroom/ShareWrapper.sol\":912:933  memberShare >= amount */\n      dup2\n      dup2\n      lt\n      iszero\n        /* \"brownie_projects/bebu_finance/contracts/Boardroom/ShareWrapper.sol\":904:992  require(memberShare >= amount, \"Boardroom: withdraw request greater than staked amount\") */\n      tag_457\n      jumpi\n      mload(0x40)\n      shl(0xe5, 0x461bcd)\n      dup2\n      mstore\n        /* \"#utility.yul\":12173:12175   */\n      0x20\n        /* \"brownie_projects/bebu_finance/contracts/Boardroom/ShareWrapper.sol\":904:992  require(memberShare >= amount, \"Boardroom: withdraw request greater than staked amount\") */\n      0x04\n      dup3\n      add\n        /* \"#utility.yul\":12155:12176   */\n      mstore\n        /* \"#utility.yul\":12212:12214   */\n      0x36\n        /* \"#utility.yul\":12192:12210   */\n      0x24\n      dup3\n      add\n        /* \"#utility.yul\":12185:12215   */\n      mstore\n        /* \"#utility.yul\":12251:12285   */\n      0x426f617264726f6f6d3a20776974686472617720726571756573742067726561\n        /* \"#utility.yul\":12231:12249   */\n      0x44\n      dup3\n      add\n        /* \"#utility.yul\":12224:12286   */\n      mstore\n      shl(0x52, 0x1d195c881d1a185b881cdd185ad95908185b5bdd5b9d)\n        /* \"#utility.yul\":12302:12320   */\n      0x64\n      dup3\n      add\n        /* \"#utility.yul\":12295:12347   */\n      mstore\n        /* \"#utility.yul\":12364:12383   */\n      0x84\n      add\n        /* \"brownie_projects/bebu_finance/contracts/Boardroom/ShareWrapper.sol\":904:992  require(memberShare >= amount, \"Boardroom: withdraw request greater than staked amount\") */\n      tag_213\n        /* \"#utility.yul\":11971:12389   */\n      jump\n        /* \"brownie_projects/bebu_finance/contracts/Boardroom/ShareWrapper.sol\":904:992  require(memberShare >= amount, \"Boardroom: withdraw request greater than staked amount\") */\n    tag_457:\n        /* \"brownie_projects/bebu_finance/contracts/Boardroom/ShareWrapper.sol\":1017:1029  _totalSupply */\n      sload(0x01)\n        /* \"brownie_projects/bebu_finance/contracts/Boardroom/ShareWrapper.sol\":1017:1041  _totalSupply.sub(amount) */\n      tag_460\n      swap1\n        /* \"brownie_projects/bebu_finance/contracts/Boardroom/ShareWrapper.sol\":1034:1040  amount */\n      dup4\n        /* \"brownie_projects/bebu_finance/contracts/Boardroom/ShareWrapper.sol\":1017:1033  _totalSupply.sub */\n      tag_192\n        /* \"brownie_projects/bebu_finance/contracts/Boardroom/ShareWrapper.sol\":1017:1041  _totalSupply.sub(amount) */\n      jump\t// in\n    tag_460:\n        /* \"brownie_projects/bebu_finance/contracts/Boardroom/ShareWrapper.sol\":1002:1014  _totalSupply */\n      0x01\n        /* \"brownie_projects/bebu_finance/contracts/Boardroom/ShareWrapper.sol\":1002:1041  _totalSupply = _totalSupply.sub(amount) */\n      sstore\n        /* \"brownie_projects/bebu_finance/contracts/Boardroom/ShareWrapper.sol\":1075:1098  memberShare.sub(amount) */\n      tag_461\n        /* \"brownie_projects/bebu_finance/contracts/Boardroom/ShareWrapper.sol\":1075:1086  memberShare */\n      dup2\n        /* \"brownie_projects/bebu_finance/contracts/Boardroom/ShareWrapper.sol\":1091:1097  amount */\n      dup4\n        /* \"brownie_projects/bebu_finance/contracts/Boardroom/ShareWrapper.sol\":1075:1090  memberShare.sub */\n      tag_192\n        /* \"brownie_projects/bebu_finance/contracts/Boardroom/ShareWrapper.sol\":1075:1098  memberShare.sub(amount) */\n      jump\t// in\n    tag_461:\n        /* \"brownie_projects/bebu_finance/contracts/Boardroom/ShareWrapper.sol\":1061:1071  msg.sender */\n      caller\n        /* \"brownie_projects/bebu_finance/contracts/Boardroom/ShareWrapper.sol\":1051:1072  _balances[msg.sender] */\n      0x00\n      dup2\n      dup2\n      mstore\n        /* \"brownie_projects/bebu_finance/contracts/Boardroom/ShareWrapper.sol\":1051:1060  _balances */\n      0x02\n        /* \"brownie_projects/bebu_finance/contracts/Boardroom/ShareWrapper.sol\":1051:1072  _balances[msg.sender] */\n      0x20\n      mstore\n      0x40\n      dup2\n      keccak256\n        /* \"brownie_projects/bebu_finance/contracts/Boardroom/ShareWrapper.sol\":1051:1098  _balances[msg.sender] = memberShare.sub(amount) */\n      swap3\n      swap1\n      swap3\n      sstore\n        /* \"brownie_projects/bebu_finance/contracts/Boardroom/ShareWrapper.sol\":1108:1113  share */\n      swap1\n      sload\n        /* \"brownie_projects/bebu_finance/contracts/Boardroom/ShareWrapper.sol\":1108:1146  share.safeTransfer(msg.sender, amount) */\n      tag_401\n      swap2\n      sub(shl(0xa0, 0x01), 0x01)\n        /* \"brownie_projects/bebu_finance/contracts/Boardroom/ShareWrapper.sol\":1108:1113  share */\n      swap1\n      swap2\n      and\n      swap1\n        /* \"brownie_projects/bebu_finance/contracts/Boardroom/ShareWrapper.sol\":1139:1145  amount */\n      dup5\n        /* \"brownie_projects/bebu_finance/contracts/utils/token/SafeERC20.sol\":652:827  function safeTransfer(IERC20 token, address to, uint256 value) internal {... */\n    tag_286:\n        /* \"brownie_projects/bebu_finance/contracts/utils/token/SafeERC20.sol\":761:819  abi.encodeWithSelector(token.transfer.selector, to, value) */\n      mload(0x40)\n      sub(shl(0xa0, 0x01), 0x01)\n        /* \"#utility.yul\":12586:12618   */\n      dup4\n      and\n        /* \"brownie_projects/bebu_finance/contracts/utils/token/SafeERC20.sol\":761:819  abi.encodeWithSelector(token.transfer.selector, to, value) */\n      0x24\n      dup3\n      add\n        /* \"#utility.yul\":12568:12619   */\n      mstore\n        /* \"#utility.yul\":12635:12653   */\n      0x44\n      dup2\n      add\n        /* \"#utility.yul\":12628:12662   */\n      dup3\n      swap1\n      mstore\n        /* \"brownie_projects/bebu_finance/contracts/utils/token/SafeERC20.sol\":734:820  _callOptionalReturn(token, abi.encodeWithSelector(token.transfer.selector, to, value)) */\n      tag_304\n      swap1\n        /* \"brownie_projects/bebu_finance/contracts/utils/token/SafeERC20.sol\":754:759  token */\n      dup5\n      swap1\n      shl(0xe0, 0xa9059cbb)\n        /* \"brownie_projects/bebu_finance/contracts/utils/token/SafeERC20.sol\":784:807  token.transfer.selector */\n      swap1\n        /* \"#utility.yul\":12541:12559   */\n      0x64\n      add\n        /* \"brownie_projects/bebu_finance/contracts/utils/token/SafeERC20.sol\":761:819  abi.encodeWithSelector(token.transfer.selector, to, value) */\n    tag_465:\n      0x40\n      dup1\n      mload\n      not(0x1f)\n      dup2\n      dup5\n      sub\n      add\n      dup2\n      mstore\n      swap2\n      swap1\n      mstore\n      0x20\n      dup2\n      add\n      dup1\n      mload\n      sub(shl(0xe0, 0x01), 0x01)\n      and\n      not(sub(shl(0xe0, 0x01), 0x01))\n      swap1\n      swap4\n      and\n      swap3\n      swap1\n      swap3\n      or\n      swap1\n      swap2\n      mstore\n        /* \"brownie_projects/bebu_finance/contracts/utils/token/SafeERC20.sol\":734:753  _callOptionalReturn */\n      tag_467\n        /* \"brownie_projects/bebu_finance/contracts/utils/token/SafeERC20.sol\":734:820  _callOptionalReturn(token, abi.encodeWithSelector(token.transfer.selector, to, value)) */\n      jump\t// in\n        /* \"brownie_projects/bebu_finance/contracts/utils/token/SafeERC20.sol\":833:1036  function safeTransferFrom(IERC20 token, address from, address to, uint256 value) internal {... */\n    tag_358:\n        /* \"brownie_projects/bebu_finance/contracts/utils/token/SafeERC20.sol\":960:1028  abi.encodeWithSelector(token.transferFrom.selector, from, to, value) */\n      mload(0x40)\n      sub(shl(0xa0, 0x01), 0x01)\n        /* \"#utility.yul\":12931:12946   */\n      dup1\n      dup6\n      and\n        /* \"brownie_projects/bebu_finance/contracts/utils/token/SafeERC20.sol\":960:1028  abi.encodeWithSelector(token.transferFrom.selector, from, to, value) */\n      0x24\n      dup4\n      add\n        /* \"#utility.yul\":12913:12947   */\n      mstore\n        /* \"#utility.yul\":12983:12998   */\n      dup4\n      and\n        /* \"#utility.yul\":12963:12981   */\n      0x44\n      dup3\n      add\n        /* \"#utility.yul\":12956:12999   */\n      mstore\n        /* \"#utility.yul\":13015:13033   */\n      0x64\n      dup2\n      add\n        /* \"#utility.yul\":13008:13042   */\n      dup3\n      swap1\n      mstore\n        /* \"brownie_projects/bebu_finance/contracts/utils/token/SafeERC20.sol\":933:1029  _callOptionalReturn(token, abi.encodeWithSelector(token.transferFrom.selector, from, to, value)) */\n      tag_469\n      swap1\n        /* \"brownie_projects/bebu_finance/contracts/utils/token/SafeERC20.sol\":953:958  token */\n      dup6\n      swap1\n      shl(0xe0, 0x23b872dd)\n        /* \"brownie_projects/bebu_finance/contracts/utils/token/SafeERC20.sol\":983:1010  token.transferFrom.selector */\n      swap1\n        /* \"#utility.yul\":12848:12866   */\n      0x84\n      add\n        /* \"brownie_projects/bebu_finance/contracts/utils/token/SafeERC20.sol\":960:1028  abi.encodeWithSelector(token.transferFrom.selector, from, to, value) */\n      tag_465\n        /* \"#utility.yul\":12673:13048   */\n      jump\n        /* \"brownie_projects/bebu_finance/contracts/utils/token/SafeERC20.sol\":933:1029  _callOptionalReturn(token, abi.encodeWithSelector(token.transferFrom.selector, from, to, value)) */\n    tag_469:\n        /* \"brownie_projects/bebu_finance/contracts/utils/token/SafeERC20.sol\":833:1036  function safeTransferFrom(IERC20 token, address from, address to, uint256 value) internal {... */\n      pop\n      pop\n      pop\n      pop\n      jump\t// out\n        /* \"brownie_projects/bebu_finance/contracts/Boardroom/ShareWrapper.sol\":550:786  function stake(uint256 amount) public virtual {... */\n    tag_384:\n        /* \"brownie_projects/bebu_finance/contracts/Boardroom/ShareWrapper.sol\":621:633  _totalSupply */\n      sload(0x01)\n        /* \"brownie_projects/bebu_finance/contracts/Boardroom/ShareWrapper.sol\":621:645  _totalSupply.add(amount) */\n      tag_473\n      swap1\n        /* \"brownie_projects/bebu_finance/contracts/Boardroom/ShareWrapper.sol\":638:644  amount */\n      dup3\n        /* \"brownie_projects/bebu_finance/contracts/Boardroom/ShareWrapper.sol\":621:637  _totalSupply.add */\n      tag_196\n        /* \"brownie_projects/bebu_finance/contracts/Boardroom/ShareWrapper.sol\":621:645  _totalSupply.add(amount) */\n      jump\t// in\n    tag_473:\n        /* \"brownie_projects/bebu_finance/contracts/Boardroom/ShareWrapper.sol\":606:618  _totalSupply */\n      0x01\n        /* \"brownie_projects/bebu_finance/contracts/Boardroom/ShareWrapper.sol\":606:645  _totalSupply = _totalSupply.add(amount) */\n      sstore\n        /* \"brownie_projects/bebu_finance/contracts/Boardroom/ShareWrapper.sol\":689:699  msg.sender */\n      caller\n        /* \"brownie_projects/bebu_finance/contracts/Boardroom/ShareWrapper.sol\":679:700  _balances[msg.sender] */\n      0x00\n      swap1\n      dup2\n      mstore\n        /* \"brownie_projects/bebu_finance/contracts/Boardroom/ShareWrapper.sol\":679:688  _balances */\n      0x02\n        /* \"brownie_projects/bebu_finance/contracts/Boardroom/ShareWrapper.sol\":679:700  _balances[msg.sender] */\n      0x20\n      mstore\n      0x40\n      swap1\n      keccak256\n      sload\n        /* \"brownie_projects/bebu_finance/contracts/Boardroom/ShareWrapper.sol\":679:712  _balances[msg.sender].add(amount) */\n      tag_474\n      swap1\n        /* \"brownie_projects/bebu_finance/contracts/Boardroom/ShareWrapper.sol\":705:711  amount */\n      dup3\n        /* \"brownie_projects/bebu_finance/contracts/Boardroom/ShareWrapper.sol\":679:704  _balances[msg.sender].add */\n      tag_196\n        /* \"brownie_projects/bebu_finance/contracts/Boardroom/ShareWrapper.sol\":679:712  _balances[msg.sender].add(amount) */\n      jump\t// in\n    tag_474:\n        /* \"brownie_projects/bebu_finance/contracts/Boardroom/ShareWrapper.sol\":665:675  msg.sender */\n      caller\n        /* \"brownie_projects/bebu_finance/contracts/Boardroom/ShareWrapper.sol\":655:676  _balances[msg.sender] */\n      0x00\n      dup2\n      dup2\n      mstore\n        /* \"brownie_projects/bebu_finance/contracts/Boardroom/ShareWrapper.sol\":655:664  _balances */\n      0x02\n        /* \"brownie_projects/bebu_finance/contracts/Boardroom/ShareWrapper.sol\":655:676  _balances[msg.sender] */\n      0x20\n      mstore\n      0x40\n      dup2\n      keccak256\n        /* \"brownie_projects/bebu_finance/contracts/Boardroom/ShareWrapper.sol\":655:712  _balances[msg.sender] = _balances[msg.sender].add(amount) */\n      swap3\n      swap1\n      swap3\n      sstore\n        /* \"brownie_projects/bebu_finance/contracts/Boardroom/ShareWrapper.sol\":722:727  share */\n      swap1\n      sload\n        /* \"brownie_projects/bebu_finance/contracts/Boardroom/ShareWrapper.sol\":722:779  share.safeTransferFrom(msg.sender, address(this), amount) */\n      tag_475\n      swap2\n      sub(shl(0xa0, 0x01), 0x01)\n        /* \"brownie_projects/bebu_finance/contracts/Boardroom/ShareWrapper.sol\":722:727  share */\n      swap1\n      swap2\n      and\n      swap1\n        /* \"brownie_projects/bebu_finance/contracts/Boardroom/ShareWrapper.sol\":765:769  this */\n      address\n        /* \"brownie_projects/bebu_finance/contracts/Boardroom/ShareWrapper.sol\":772:778  amount */\n      dup5\n        /* \"brownie_projects/bebu_finance/contracts/Boardroom/ShareWrapper.sol\":722:744  share.safeTransferFrom */\n      tag_358\n        /* \"brownie_projects/bebu_finance/contracts/Boardroom/ShareWrapper.sol\":722:779  share.safeTransferFrom(msg.sender, address(this), amount) */\n      jump\t// in\n    tag_475:\n        /* \"brownie_projects/bebu_finance/contracts/Boardroom/ShareWrapper.sol\":550:786  function stake(uint256 amount) public virtual {... */\n      pop\n      jump\t// out\n        /* \"brownie_projects/bebu_finance/contracts/utils/token/SafeERC20.sol\":3000:3706  function _callOptionalReturn(IERC20 token, bytes memory data) private {... */\n    tag_467:\n        /* \"brownie_projects/bebu_finance/contracts/utils/token/SafeERC20.sol\":3419:3442  bytes memory returndata */\n      0x00\n        /* \"brownie_projects/bebu_finance/contracts/utils/token/SafeERC20.sol\":3445:3514  address(token).functionCall(data, \"SafeERC20: low-level call failed\") */\n      tag_477\n        /* \"brownie_projects/bebu_finance/contracts/utils/token/SafeERC20.sol\":3473:3477  data */\n      dup3\n        /* \"brownie_projects/bebu_finance/contracts/utils/token/SafeERC20.sol\":3445:3514  address(token).functionCall(data, \"SafeERC20: low-level call failed\") */\n      mload(0x40)\n      dup1\n      0x40\n      add\n      0x40\n      mstore\n      dup1\n      0x20\n      dup2\n      mstore\n      0x20\n      add\n      0x5361666545524332303a206c6f772d6c6576656c2063616c6c206661696c6564\n      dup2\n      mstore\n      pop\n        /* \"brownie_projects/bebu_finance/contracts/utils/token/SafeERC20.sol\":3453:3458  token */\n      dup6\n      sub(shl(0xa0, 0x01), 0x01)\n        /* \"brownie_projects/bebu_finance/contracts/utils/token/SafeERC20.sol\":3445:3472  address(token).functionCall */\n      and\n      tag_478\n      swap1\n        /* \"brownie_projects/bebu_finance/contracts/utils/token/SafeERC20.sol\":3445:3514  address(token).functionCall(data, \"SafeERC20: low-level call failed\") */\n      swap3\n      swap2\n      swap1\n      0xffffffff\n      and\n      jump\t// in\n    tag_477:\n        /* \"brownie_projects/bebu_finance/contracts/utils/token/SafeERC20.sol\":3528:3545  returndata.length */\n      dup1\n      mload\n        /* \"brownie_projects/bebu_finance/contracts/utils/token/SafeERC20.sol\":3419:3514  bytes memory returndata = address(token).functionCall(data, \"SafeERC20: low-level call failed\") */\n      swap1\n      swap2\n      pop\n        /* \"brownie_projects/bebu_finance/contracts/utils/token/SafeERC20.sol\":3528:3549  returndata.length > 0 */\n      iszero\n        /* \"brownie_projects/bebu_finance/contracts/utils/token/SafeERC20.sol\":3524:3700  if (returndata.length > 0) {... */\n      tag_304\n      jumpi\n        /* \"brownie_projects/bebu_finance/contracts/utils/token/SafeERC20.sol\":3623:3633  returndata */\n      dup1\n        /* \"brownie_projects/bebu_finance/contracts/utils/token/SafeERC20.sol\":3612:3642  abi.decode(returndata, (bool)) */\n      dup1\n      0x20\n      add\n      swap1\n      mload\n      dup2\n      add\n      swap1\n      tag_480\n      swap2\n      swap1\n      tag_481\n      jump\t// in\n    tag_480:\n        /* \"brownie_projects/bebu_finance/contracts/utils/token/SafeERC20.sol\":3604:3689  require(abi.decode(returndata, (bool)), \"SafeERC20: ERC20 operation did not succeed\") */\n      tag_304\n      jumpi\n      mload(0x40)\n      shl(0xe5, 0x461bcd)\n      dup2\n      mstore\n        /* \"#utility.yul\":13537:13539   */\n      0x20\n        /* \"brownie_projects/bebu_finance/contracts/utils/token/SafeERC20.sol\":3604:3689  require(abi.decode(returndata, (bool)), \"SafeERC20: ERC20 operation did not succeed\") */\n      0x04\n      dup3\n      add\n        /* \"#utility.yul\":13519:13540   */\n      mstore\n        /* \"#utility.yul\":13576:13578   */\n      0x2a\n        /* \"#utility.yul\":13556:13574   */\n      0x24\n      dup3\n      add\n        /* \"#utility.yul\":13549:13579   */\n      mstore\n        /* \"#utility.yul\":13615:13649   */\n      0x5361666545524332303a204552433230206f7065726174696f6e20646964206e\n        /* \"#utility.yul\":13595:13613   */\n      0x44\n      dup3\n      add\n        /* \"#utility.yul\":13588:13650   */\n      mstore\n      shl(0xb2, 0x1bdd081cdd58d8d95959)\n        /* \"#utility.yul\":13666:13684   */\n      0x64\n      dup3\n      add\n        /* \"#utility.yul\":13659:13699   */\n      mstore\n        /* \"#utility.yul\":13716:13735   */\n      0x84\n      add\n        /* \"brownie_projects/bebu_finance/contracts/utils/token/SafeERC20.sol\":3604:3689  require(abi.decode(returndata, (bool)), \"SafeERC20: ERC20 operation did not succeed\") */\n      tag_213\n        /* \"#utility.yul\":13335:13741   */\n      jump\n        /* \"brownie_projects/bebu_finance/contracts/utils/Address.sol\":4041:4264  function functionCall(... */\n    tag_478:\n        /* \"brownie_projects/bebu_finance/contracts/utils/Address.sol\":4174:4186  bytes memory */\n      0x60\n        /* \"brownie_projects/bebu_finance/contracts/utils/Address.sol\":4205:4257  functionCallWithValue(target, data, 0, errorMessage) */\n      tag_188\n        /* \"brownie_projects/bebu_finance/contracts/utils/Address.sol\":4227:4233  target */\n      dup5\n        /* \"brownie_projects/bebu_finance/contracts/utils/Address.sol\":4235:4239  data */\n      dup5\n        /* \"brownie_projects/bebu_finance/contracts/utils/Address.sol\":4241:4242  0 */\n      0x00\n        /* \"brownie_projects/bebu_finance/contracts/utils/Address.sol\":4244:4256  errorMessage */\n      dup6\n        /* \"brownie_projects/bebu_finance/contracts/utils/Address.sol\":4174:4186  bytes memory */\n      dup6\n        /* \"brownie_projects/bebu_finance/contracts/utils/Address.sol\":5379:5391  bool success */\n      0x00\n        /* \"brownie_projects/bebu_finance/contracts/utils/Address.sol\":5393:5416  bytes memory returndata */\n      dup1\n        /* \"brownie_projects/bebu_finance/contracts/utils/Address.sol\":5420:5426  target */\n      dup7\n      sub(shl(0xa0, 0x01), 0x01)\n        /* \"brownie_projects/bebu_finance/contracts/utils/Address.sol\":5420:5431  target.call */\n      and\n        /* \"brownie_projects/bebu_finance/contracts/utils/Address.sol\":5439:5444  value */\n      dup6\n        /* \"brownie_projects/bebu_finance/contracts/utils/Address.sol\":5446:5450  data */\n      dup8\n        /* \"brownie_projects/bebu_finance/contracts/utils/Address.sol\":5420:5451  target.call{value: value}(data) */\n      mload(0x40)\n      tag_492\n      swap2\n      swap1\n      tag_493\n      jump\t// in\n    tag_492:\n      0x00\n      mload(0x40)\n      dup1\n      dup4\n      sub\n      dup2\n      dup6\n      dup8\n      gas\n      call\n      swap3\n      pop\n      pop\n      pop\n      returndatasize\n      dup1\n      0x00\n      dup2\n      eq\n      tag_496\n      jumpi\n      mload(0x40)\n      swap2\n      pop\n      and(add(returndatasize, 0x3f), not(0x1f))\n      dup3\n      add\n      0x40\n      mstore\n      returndatasize\n      dup3\n      mstore\n      returndatasize\n      0x00\n      0x20\n      dup5\n      add\n      returndatacopy\n      jump(tag_495)\n    tag_496:\n      0x60\n      swap2\n      pop\n    tag_495:\n      pop\n        /* \"brownie_projects/bebu_finance/contracts/utils/Address.sol\":5378:5451  (bool success, bytes memory returndata) = target.call{value: value}(data) */\n      swap2\n      pop\n      swap2\n      pop\n        /* \"brownie_projects/bebu_finance/contracts/utils/Address.sol\":5468:5537  verifyCallResultFromTarget(target, success, returndata, errorMessage) */\n      tag_497\n        /* \"brownie_projects/bebu_finance/contracts/utils/Address.sol\":5495:5501  target */\n      dup8\n        /* \"brownie_projects/bebu_finance/contracts/utils/Address.sol\":5503:5510  success */\n      dup4\n        /* \"brownie_projects/bebu_finance/contracts/utils/Address.sol\":5512:5522  returndata */\n      dup4\n        /* \"brownie_projects/bebu_finance/contracts/utils/Address.sol\":5524:5536  errorMessage */\n      dup8\n        /* \"brownie_projects/bebu_finance/contracts/utils/Address.sol\":5468:5494  verifyCallResultFromTarget */\n      tag_498\n        /* \"brownie_projects/bebu_finance/contracts/utils/Address.sol\":5468:5537  verifyCallResultFromTarget(target, success, returndata, errorMessage) */\n      jump\t// in\n    tag_497:\n        /* \"brownie_projects/bebu_finance/contracts/utils/Address.sol\":5461:5537  return verifyCallResultFromTarget(target, success, returndata, errorMessage) */\n      swap8\n        /* \"brownie_projects/bebu_finance/contracts/utils/Address.sol\":5098:5544  function functionCallWithValue(... */\n      swap7\n      pop\n      pop\n      pop\n      pop\n      pop\n      pop\n      pop\n      jump\t// out\n        /* \"brownie_projects/bebu_finance/contracts/utils/Address.sol\":7604:8232  function verifyCallResultFromTarget(... */\n    tag_498:\n        /* \"brownie_projects/bebu_finance/contracts/utils/Address.sol\":7784:7796  bytes memory */\n      0x60\n        /* \"brownie_projects/bebu_finance/contracts/utils/Address.sol\":7812:7819  success */\n      dup4\n        /* \"brownie_projects/bebu_finance/contracts/utils/Address.sol\":7808:8226  if (success) {... */\n      iszero\n      tag_500\n      jumpi\n        /* \"brownie_projects/bebu_finance/contracts/utils/Address.sol\":7839:7849  returndata */\n      dup3\n        /* \"brownie_projects/bebu_finance/contracts/utils/Address.sol\":7839:7856  returndata.length */\n      mload\n        /* \"brownie_projects/bebu_finance/contracts/utils/Address.sol\":7860:7861  0 */\n      0x00\n        /* \"brownie_projects/bebu_finance/contracts/utils/Address.sol\":7839:7861  returndata.length == 0 */\n      sub\n        /* \"brownie_projects/bebu_finance/contracts/utils/Address.sol\":7835:8121  if (returndata.length == 0) {... */\n      tag_504\n      jumpi\n      sub(shl(0xa0, 0x01), 0x01)\n        /* \"brownie_projects/bebu_finance/contracts/utils/Address.sol\":1634:1653  account.code.length */\n      dup6\n      and\n      extcodesize\n        /* \"brownie_projects/bebu_finance/contracts/utils/Address.sol\":8046:8106  require(isContract(target), \"Address: call to non-contract\") */\n      tag_504\n      jumpi\n      mload(0x40)\n      shl(0xe5, 0x461bcd)\n      dup2\n      mstore\n        /* \"#utility.yul\":14897:14899   */\n      0x20\n        /* \"brownie_projects/bebu_finance/contracts/utils/Address.sol\":8046:8106  require(isContract(target), \"Address: call to non-contract\") */\n      0x04\n      dup3\n      add\n        /* \"#utility.yul\":14879:14900   */\n      mstore\n        /* \"#utility.yul\":14936:14938   */\n      0x1d\n        /* \"#utility.yul\":14916:14934   */\n      0x24\n      dup3\n      add\n        /* \"#utility.yul\":14909:14939   */\n      mstore\n        /* \"#utility.yul\":14975:15006   */\n      0x416464726573733a2063616c6c20746f206e6f6e2d636f6e7472616374000000\n        /* \"#utility.yul\":14955:14973   */\n      0x44\n      dup3\n      add\n        /* \"#utility.yul\":14948:15007   */\n      mstore\n        /* \"#utility.yul\":15024:15042   */\n      0x64\n      add\n        /* \"brownie_projects/bebu_finance/contracts/utils/Address.sol\":8046:8106  require(isContract(target), \"Address: call to non-contract\") */\n      tag_213\n        /* \"#utility.yul\":14695:15048   */\n      jump\n        /* \"brownie_projects/bebu_finance/contracts/utils/Address.sol\":8046:8106  require(isContract(target), \"Address: call to non-contract\") */\n    tag_504:\n      pop\n        /* \"brownie_projects/bebu_finance/contracts/utils/Address.sol\":8141:8151  returndata */\n      dup2\n        /* \"brownie_projects/bebu_finance/contracts/utils/Address.sol\":8134:8151  return returndata */\n      jump(tag_188)\n        /* \"brownie_projects/bebu_finance/contracts/utils/Address.sol\":7808:8226  if (success) {... */\n    tag_500:\n        /* \"brownie_projects/bebu_finance/contracts/utils/Address.sol\":8182:8215  _revert(returndata, errorMessage) */\n      tag_188\n        /* \"brownie_projects/bebu_finance/contracts/utils/Address.sol\":8190:8200  returndata */\n      dup4\n        /* \"brownie_projects/bebu_finance/contracts/utils/Address.sol\":8202:8214  errorMessage */\n      dup4\n        /* \"brownie_projects/bebu_finance/contracts/utils/Address.sol\":8913:8930  returndata.length */\n      dup2\n      mload\n        /* \"brownie_projects/bebu_finance/contracts/utils/Address.sol\":8913:8934  returndata.length > 0 */\n      iszero\n        /* \"brownie_projects/bebu_finance/contracts/utils/Address.sol\":8909:9288  if (returndata.length > 0) {... */\n      tag_512\n      jumpi\n        /* \"brownie_projects/bebu_finance/contracts/utils/Address.sol\":9141:9151  returndata */\n      dup2\n        /* \"brownie_projects/bebu_finance/contracts/utils/Address.sol\":9135:9152  mload(returndata) */\n      mload\n        /* \"brownie_projects/bebu_finance/contracts/utils/Address.sol\":9197:9212  returndata_size */\n      dup1\n        /* \"brownie_projects/bebu_finance/contracts/utils/Address.sol\":9184:9194  returndata */\n      dup4\n        /* \"brownie_projects/bebu_finance/contracts/utils/Address.sol\":9180:9182  32 */\n      0x20\n        /* \"brownie_projects/bebu_finance/contracts/utils/Address.sol\":9176:9195  add(32, returndata) */\n      add\n        /* \"brownie_projects/bebu_finance/contracts/utils/Address.sol\":9169:9213  revert(add(32, returndata), returndata_size) */\n      revert\n        /* \"brownie_projects/bebu_finance/contracts/utils/Address.sol\":8909:9288  if (returndata.length > 0) {... */\n    tag_512:\n        /* \"brownie_projects/bebu_finance/contracts/utils/Address.sol\":9264:9276  errorMessage */\n      dup1\n        /* \"brownie_projects/bebu_finance/contracts/utils/Address.sol\":9257:9277  revert(errorMessage) */\n      mload(0x40)\n      shl(0xe5, 0x461bcd)\n      dup2\n      mstore\n      0x04\n      add\n      tag_213\n      swap2\n      swap1\n      tag_515\n      jump\t// in\n        /* \"#utility.yul\":14:145   */\n    tag_516:\n      sub(shl(0xa0, 0x01), 0x01)\n        /* \"#utility.yul\":89:120   */\n      dup2\n      and\n        /* \"#utility.yul\":79:121   */\n      dup2\n      eq\n        /* \"#utility.yul\":69:139   */\n      tag_475\n      jumpi\n        /* \"#utility.yul\":135:136   */\n      0x00\n        /* \"#utility.yul\":132:133   */\n      dup1\n        /* \"#utility.yul\":125:137   */\n      revert\n        /* \"#utility.yul\":150:397   */\n    tag_50:\n        /* \"#utility.yul\":209:215   */\n      0x00\n        /* \"#utility.yul\":262:264   */\n      0x20\n        /* \"#utility.yul\":250:259   */\n      dup3\n        /* \"#utility.yul\":241:248   */\n      dup5\n        /* \"#utility.yul\":237:260   */\n      sub\n        /* \"#utility.yul\":233:265   */\n      slt\n        /* \"#utility.yul\":230:282   */\n      iszero\n      tag_523\n      jumpi\n        /* \"#utility.yul\":278:279   */\n      0x00\n        /* \"#utility.yul\":275:276   */\n      dup1\n        /* \"#utility.yul\":268:280   */\n      revert\n        /* \"#utility.yul\":230:282   */\n    tag_523:\n        /* \"#utility.yul\":317:326   */\n      dup2\n        /* \"#utility.yul\":304:327   */\n      calldataload\n        /* \"#utility.yul\":336:367   */\n      tag_443\n        /* \"#utility.yul\":361:366   */\n      dup2\n        /* \"#utility.yul\":336:367   */\n      tag_516\n      jump\t// in\n        /* \"#utility.yul\":1308:1488   */\n    tag_86:\n        /* \"#utility.yul\":1367:1373   */\n      0x00\n        /* \"#utility.yul\":1420:1422   */\n      0x20\n        /* \"#utility.yul\":1408:1417   */\n      dup3\n        /* \"#utility.yul\":1399:1406   */\n      dup5\n        /* \"#utility.yul\":1395:1418   */\n      sub\n        /* \"#utility.yul\":1391:1423   */\n      slt\n        /* \"#utility.yul\":1388:1440   */\n      iszero\n      tag_530\n      jumpi\n        /* \"#utility.yul\":1436:1437   */\n      0x00\n        /* \"#utility.yul\":1433:1434   */\n      dup1\n        /* \"#utility.yul\":1426:1438   */\n      revert\n        /* \"#utility.yul\":1388:1440   */\n    tag_530:\n      pop\n        /* \"#utility.yul\":1459:1482   */\n      calldataload\n      swap2\n        /* \"#utility.yul\":1308:1488   */\n      swap1\n      pop\n      jump\t// out\n        /* \"#utility.yul\":1493:1741   */\n    tag_90:\n        /* \"#utility.yul\":1561:1567   */\n      0x00\n        /* \"#utility.yul\":1569:1575   */\n      dup1\n        /* \"#utility.yul\":1622:1624   */\n      0x40\n        /* \"#utility.yul\":1610:1619   */\n      dup4\n        /* \"#utility.yul\":1601:1608   */\n      dup6\n        /* \"#utility.yul\":1597:1620   */\n      sub\n        /* \"#utility.yul\":1593:1625   */\n      slt\n        /* \"#utility.yul\":1590:1642   */\n      iszero\n      tag_532\n      jumpi\n        /* \"#utility.yul\":1638:1639   */\n      0x00\n        /* \"#utility.yul\":1635:1636   */\n      dup1\n        /* \"#utility.yul\":1628:1640   */\n      revert\n        /* \"#utility.yul\":1590:1642   */\n    tag_532:\n      pop\n      pop\n        /* \"#utility.yul\":1661:1684   */\n      dup1\n      calldataload\n      swap3\n        /* \"#utility.yul\":1731:1733   */\n      0x20\n        /* \"#utility.yul\":1716:1734   */\n      swap1\n      swap2\n      add\n        /* \"#utility.yul\":1703:1735   */\n      calldataload\n      swap2\n      pop\n        /* \"#utility.yul\":1493:1741   */\n      jump\t// out\n        /* \"#utility.yul\":1746:2534   */\n    tag_103:\n        /* \"#utility.yul\":1889:1895   */\n      0x00\n        /* \"#utility.yul\":1897:1903   */\n      dup1\n        /* \"#utility.yul\":1905:1911   */\n      0x00\n        /* \"#utility.yul\":1913:1919   */\n      dup1\n        /* \"#utility.yul\":1921:1927   */\n      0x00\n        /* \"#utility.yul\":1974:1977   */\n      0xa0\n        /* \"#utility.yul\":1962:1971   */\n      dup7\n        /* \"#utility.yul\":1953:1960   */\n      dup9\n        /* \"#utility.yul\":1949:1972   */\n      sub\n        /* \"#utility.yul\":1945:1978   */\n      slt\n        /* \"#utility.yul\":1942:1995   */\n      iszero\n      tag_534\n      jumpi\n        /* \"#utility.yul\":1991:1992   */\n      0x00\n        /* \"#utility.yul\":1988:1989   */\n      dup1\n        /* \"#utility.yul\":1981:1993   */\n      revert\n        /* \"#utility.yul\":1942:1995   */\n    tag_534:\n        /* \"#utility.yul\":2030:2039   */\n      dup6\n        /* \"#utility.yul\":2017:2040   */\n      calldataload\n        /* \"#utility.yul\":2049:2080   */\n      tag_535\n        /* \"#utility.yul\":2074:2079   */\n      dup2\n        /* \"#utility.yul\":2049:2080   */\n      tag_516\n      jump\t// in\n    tag_535:\n        /* \"#utility.yul\":2099:2104   */\n      swap5\n      pop\n        /* \"#utility.yul\":2156:2158   */\n      0x20\n        /* \"#utility.yul\":2141:2159   */\n      dup7\n      add\n        /* \"#utility.yul\":2128:2160   */\n      calldataload\n        /* \"#utility.yul\":2169:2202   */\n      tag_536\n        /* \"#utility.yul\":2128:2160   */\n      dup2\n        /* \"#utility.yul\":2169:2202   */\n      tag_516\n      jump\t// in\n    tag_536:\n        /* \"#utility.yul\":2221:2228   */\n      swap4\n      pop\n        /* \"#utility.yul\":2280:2282   */\n      0x40\n        /* \"#utility.yul\":2265:2283   */\n      dup7\n      add\n        /* \"#utility.yul\":2252:2284   */\n      calldataload\n        /* \"#utility.yul\":2293:2326   */\n      tag_537\n        /* \"#utility.yul\":2252:2284   */\n      dup2\n        /* \"#utility.yul\":2293:2326   */\n      tag_516\n      jump\t// in\n    tag_537:\n        /* \"#utility.yul\":2345:2352   */\n      swap3\n      pop\n        /* \"#utility.yul\":2399:2401   */\n      0x60\n        /* \"#utility.yul\":2384:2402   */\n      dup7\n      add\n        /* \"#utility.yul\":2371:2403   */\n      calldataload\n      swap2\n      pop\n        /* \"#utility.yul\":2455:2458   */\n      0x80\n        /* \"#utility.yul\":2440:2459   */\n      dup7\n      add\n        /* \"#utility.yul\":2427:2460   */\n      calldataload\n        /* \"#utility.yul\":2469:2502   */\n      tag_538\n        /* \"#utility.yul\":2427:2460   */\n      dup2\n        /* \"#utility.yul\":2469:2502   */\n      tag_516\n      jump\t// in\n    tag_538:\n        /* \"#utility.yul\":2521:2528   */\n      dup1\n        /* \"#utility.yul\":2511:2528   */\n      swap2\n      pop\n      pop\n        /* \"#utility.yul\":1746:2534   */\n      swap3\n      swap6\n      pop\n      swap3\n      swap6\n      swap1\n      swap4\n      pop\n      jump\t// out\n        /* \"#utility.yul\":2539:2927   */\n    tag_107:\n        /* \"#utility.yul\":2607:2613   */\n      0x00\n        /* \"#utility.yul\":2615:2621   */\n      dup1\n        /* \"#utility.yul\":2668:2670   */\n      0x40\n        /* \"#utility.yul\":2656:2665   */\n      dup4\n        /* \"#utility.yul\":2647:2654   */\n      dup6\n        /* \"#utility.yul\":2643:2666   */\n      sub\n        /* \"#utility.yul\":2639:2671   */\n      slt\n        /* \"#utility.yul\":2636:2688   */\n      iszero\n      tag_540\n      jumpi\n        /* \"#utility.yul\":2684:2685   */\n      0x00\n        /* \"#utility.yul\":2681:2682   */\n      dup1\n        /* \"#utility.yul\":2674:2686   */\n      revert\n        /* \"#utility.yul\":2636:2688   */\n    tag_540:\n        /* \"#utility.yul\":2723:2732   */\n      dup3\n        /* \"#utility.yul\":2710:2733   */\n      calldataload\n        /* \"#utility.yul\":2742:2773   */\n      tag_541\n        /* \"#utility.yul\":2767:2772   */\n      dup2\n        /* \"#utility.yul\":2742:2773   */\n      tag_516\n      jump\t// in\n    tag_541:\n        /* \"#utility.yul\":2792:2797   */\n      swap2\n      pop\n        /* \"#utility.yul\":2849:2851   */\n      0x20\n        /* \"#utility.yul\":2834:2852   */\n      dup4\n      add\n        /* \"#utility.yul\":2821:2853   */\n      calldataload\n        /* \"#utility.yul\":2862:2895   */\n      tag_542\n        /* \"#utility.yul\":2821:2853   */\n      dup2\n        /* \"#utility.yul\":2862:2895   */\n      tag_516\n      jump\t// in\n    tag_542:\n        /* \"#utility.yul\":2914:2921   */\n      dup1\n        /* \"#utility.yul\":2904:2921   */\n      swap2\n      pop\n      pop\n        /* \"#utility.yul\":2539:2927   */\n      swap3\n      pop\n      swap3\n      swap1\n      pop\n      jump\t// out\n        /* \"#utility.yul\":2932:3403   */\n    tag_111:\n        /* \"#utility.yul\":3024:3030   */\n      0x00\n        /* \"#utility.yul\":3032:3038   */\n      dup1\n        /* \"#utility.yul\":3040:3046   */\n      0x00\n        /* \"#utility.yul\":3093:3095   */\n      0x60\n        /* \"#utility.yul\":3081:3090   */\n      dup5\n        /* \"#utility.yul\":3072:3079   */\n      dup7\n        /* \"#utility.yul\":3068:3091   */\n      sub\n        /* \"#utility.yul\":3064:3096   */\n      slt\n        /* \"#utility.yul\":3061:3113   */\n      iszero\n      tag_544\n      jumpi\n        /* \"#utility.yul\":3109:3110   */\n      0x00\n        /* \"#utility.yul\":3106:3107   */\n      dup1\n        /* \"#utility.yul\":3099:3111   */\n      revert\n        /* \"#utility.yul\":3061:3113   */\n    tag_544:\n        /* \"#utility.yul\":3148:3157   */\n      dup4\n        /* \"#utility.yul\":3135:3158   */\n      calldataload\n        /* \"#utility.yul\":3167:3198   */\n      tag_545\n        /* \"#utility.yul\":3192:3197   */\n      dup2\n        /* \"#utility.yul\":3167:3198   */\n      tag_516\n      jump\t// in\n    tag_545:\n        /* \"#utility.yul\":3217:3222   */\n      swap3\n      pop\n        /* \"#utility.yul\":3269:3271   */\n      0x20\n        /* \"#utility.yul\":3254:3272   */\n      dup5\n      add\n        /* \"#utility.yul\":3241:3273   */\n      calldataload\n      swap2\n      pop\n        /* \"#utility.yul\":3325:3327   */\n      0x40\n        /* \"#utility.yul\":3310:3328   */\n      dup5\n      add\n        /* \"#utility.yul\":3297:3329   */\n      calldataload\n        /* \"#utility.yul\":3338:3371   */\n      tag_546\n        /* \"#utility.yul\":3297:3329   */\n      dup2\n        /* \"#utility.yul\":3338:3371   */\n      tag_516\n      jump\t// in\n    tag_546:\n        /* \"#utility.yul\":3390:3397   */\n      dup1\n        /* \"#utility.yul\":3380:3397   */\n      swap2\n      pop\n      pop\n        /* \"#utility.yul\":2932:3403   */\n      swap3\n      pop\n      swap3\n      pop\n      swap3\n      jump\t// out\n        /* \"#utility.yul\":3857:4041   */\n    tag_201:\n        /* \"#utility.yul\":3927:3933   */\n      0x00\n        /* \"#utility.yul\":3980:3982   */\n      0x20\n        /* \"#utility.yul\":3968:3977   */\n      dup3\n        /* \"#utility.yul\":3959:3966   */\n      dup5\n        /* \"#utility.yul\":3955:3978   */\n      sub\n        /* \"#utility.yul\":3951:3983   */\n      slt\n        /* \"#utility.yul\":3948:4000   */\n      iszero\n      tag_550\n      jumpi\n        /* \"#utility.yul\":3996:3997   */\n      0x00\n        /* \"#utility.yul\":3993:3994   */\n      dup1\n        /* \"#utility.yul\":3986:3998   */\n      revert\n        /* \"#utility.yul\":3948:4000   */\n    tag_550:\n      pop\n        /* \"#utility.yul\":4019:4035   */\n      mload\n      swap2\n        /* \"#utility.yul\":3857:4041   */\n      swap1\n      pop\n      jump\t// out\n        /* \"#utility.yul\":4046:4448   */\n    tag_214:\n        /* \"#utility.yul\":4248:4250   */\n      0x20\n        /* \"#utility.yul\":4230:4251   */\n      dup1\n      dup3\n      mstore\n        /* \"#utility.yul\":4287:4289   */\n      0x26\n        /* \"#utility.yul\":4267:4285   */\n      swap1\n      dup3\n      add\n        /* \"#utility.yul\":4260:4290   */\n      mstore\n        /* \"#utility.yul\":4326:4360   */\n      0x436f6e747261637447756172643a206f6e6520626c6f636b2c206f6e65206675\n        /* \"#utility.yul\":4321:4323   */\n      0x40\n        /* \"#utility.yul\":4306:4324   */\n      dup3\n      add\n        /* \"#utility.yul\":4299:4361   */\n      mstore\n      shl(0xd1, 0x3731ba34b7b7)\n        /* \"#utility.yul\":4392:4394   */\n      0x60\n        /* \"#utility.yul\":4377:4395   */\n      dup3\n      add\n        /* \"#utility.yul\":4370:4406   */\n      mstore\n        /* \"#utility.yul\":4438:4441   */\n      0x80\n        /* \"#utility.yul\":4423:4442   */\n      add\n      swap1\n        /* \"#utility.yul\":4046:4448   */\n      jump\t// out\n        /* \"#utility.yul\":4858:5190   */\n    tag_232:\n        /* \"#utility.yul\":5060:5062   */\n      0x20\n        /* \"#utility.yul\":5042:5063   */\n      dup1\n      dup3\n      mstore\n        /* \"#utility.yul\":5099:5100   */\n      0x09\n        /* \"#utility.yul\":5079:5097   */\n      swap1\n      dup3\n      add\n        /* \"#utility.yul\":5072:5101   */\n      mstore\n      shl(0xba, 0x189b1858dadb1a5cdd)\n        /* \"#utility.yul\":5132:5134   */\n      0x40\n        /* \"#utility.yul\":5117:5135   */\n      dup3\n      add\n        /* \"#utility.yul\":5110:5149   */\n      mstore\n        /* \"#utility.yul\":5181:5183   */\n      0x60\n        /* \"#utility.yul\":5166:5184   */\n      add\n      swap1\n        /* \"#utility.yul\":4858:5190   */\n      jump\t// out\n        /* \"#utility.yul\":5956:6357   */\n    tag_250:\n        /* \"#utility.yul\":6158:6160   */\n      0x20\n        /* \"#utility.yul\":6140:6161   */\n      dup1\n      dup3\n      mstore\n        /* \"#utility.yul\":6197:6199   */\n      0x25\n        /* \"#utility.yul\":6177:6195   */\n      swap1\n      dup3\n      add\n        /* \"#utility.yul\":6170:6200   */\n      mstore\n        /* \"#utility.yul\":6236:6270   */\n      0x426f617264726f6f6d3a2063616c6c6572206973206e6f7420746865206f7065\n        /* \"#utility.yul\":6231:6233   */\n      0x40\n        /* \"#utility.yul\":6216:6234   */\n      dup3\n      add\n        /* \"#utility.yul\":6209:6271   */\n      mstore\n      shl(0xd9, 0x3930ba37b9)\n        /* \"#utility.yul\":6302:6304   */\n      0x60\n        /* \"#utility.yul\":6287:6305   */\n      dup3\n      add\n        /* \"#utility.yul\":6280:6315   */\n      mstore\n        /* \"#utility.yul\":6347:6350   */\n      0x80\n        /* \"#utility.yul\":6332:6351   */\n      add\n      swap1\n        /* \"#utility.yul\":5956:6357   */\n      jump\t// out\n        /* \"#utility.yul\":11049:11176   */\n    tag_434:\n        /* \"#utility.yul\":11110:11120   */\n      0x4e487b71\n        /* \"#utility.yul\":11105:11108   */\n      0xe0\n        /* \"#utility.yul\":11101:11121   */\n      shl\n        /* \"#utility.yul\":11098:11099   */\n      0x00\n        /* \"#utility.yul\":11091:11122   */\n      mstore\n        /* \"#utility.yul\":11141:11145   */\n      0x32\n        /* \"#utility.yul\":11138:11139   */\n      0x04\n        /* \"#utility.yul\":11131:11146   */\n      mstore\n        /* \"#utility.yul\":11165:11169   */\n      0x24\n        /* \"#utility.yul\":11162:11163   */\n      0x00\n        /* \"#utility.yul\":11155:11170   */\n      revert\n        /* \"#utility.yul\":11181:11308   */\n    tag_517:\n        /* \"#utility.yul\":11242:11252   */\n      0x4e487b71\n        /* \"#utility.yul\":11237:11240   */\n      0xe0\n        /* \"#utility.yul\":11233:11253   */\n      shl\n        /* \"#utility.yul\":11230:11231   */\n      0x00\n        /* \"#utility.yul\":11223:11254   */\n      mstore\n        /* \"#utility.yul\":11273:11277   */\n      0x11\n        /* \"#utility.yul\":11270:11271   */\n      0x04\n        /* \"#utility.yul\":11263:11278   */\n      mstore\n        /* \"#utility.yul\":11297:11301   */\n      0x24\n        /* \"#utility.yul\":11294:11295   */\n      0x00\n        /* \"#utility.yul\":11287:11302   */\n      revert\n        /* \"#utility.yul\":11313:11438   */\n    tag_444:\n        /* \"#utility.yul\":11353:11357   */\n      0x00\n        /* \"#utility.yul\":11381:11382   */\n      dup3\n        /* \"#utility.yul\":11378:11379   */\n      dup3\n        /* \"#utility.yul\":11375:11383   */\n      lt\n        /* \"#utility.yul\":11372:11406   */\n      iszero\n      tag_574\n      jumpi\n        /* \"#utility.yul\":11386:11404   */\n      tag_574\n      tag_517\n      jump\t// in\n    tag_574:\n      pop\n        /* \"#utility.yul\":11423:11432   */\n      sub\n      swap1\n        /* \"#utility.yul\":11313:11438   */\n      jump\t// out\n        /* \"#utility.yul\":11443:11611   */\n    tag_447:\n        /* \"#utility.yul\":11483:11490   */\n      0x00\n        /* \"#utility.yul\":11549:11550   */\n      dup2\n        /* \"#utility.yul\":11545:11546   */\n      0x00\n        /* \"#utility.yul\":11541:11547   */\n      not\n        /* \"#utility.yul\":11537:11551   */\n      div\n        /* \"#utility.yul\":11534:11535   */\n      dup4\n        /* \"#utility.yul\":11531:11552   */\n      gt\n        /* \"#utility.yul\":11526:11527   */\n      dup3\n        /* \"#utility.yul\":11519:11528   */\n      iszero\n        /* \"#utility.yul\":11512:11529   */\n      iszero\n        /* \"#utility.yul\":11508:11553   */\n      and\n        /* \"#utility.yul\":11505:11576   */\n      iszero\n      tag_577\n      jumpi\n        /* \"#utility.yul\":11556:11574   */\n      tag_577\n      tag_517\n      jump\t// in\n    tag_577:\n      pop\n        /* \"#utility.yul\":11596:11605   */\n      mul\n      swap1\n        /* \"#utility.yul\":11443:11611   */\n      jump\t// out\n        /* \"#utility.yul\":11616:11833   */\n    tag_450:\n        /* \"#utility.yul\":11656:11657   */\n      0x00\n        /* \"#utility.yul\":11682:11683   */\n      dup3\n        /* \"#utility.yul\":11672:11804   */\n      tag_579\n      jumpi\n        /* \"#utility.yul\":11726:11736   */\n      0x4e487b71\n        /* \"#utility.yul\":11721:11724   */\n      0xe0\n        /* \"#utility.yul\":11717:11737   */\n      shl\n        /* \"#utility.yul\":11714:11715   */\n      0x00\n        /* \"#utility.yul\":11707:11738   */\n      mstore\n        /* \"#utility.yul\":11761:11765   */\n      0x12\n        /* \"#utility.yul\":11758:11759   */\n      0x04\n        /* \"#utility.yul\":11751:11766   */\n      mstore\n        /* \"#utility.yul\":11789:11793   */\n      0x24\n        /* \"#utility.yul\":11786:11787   */\n      0x00\n        /* \"#utility.yul\":11779:11794   */\n      revert\n        /* \"#utility.yul\":11672:11804   */\n    tag_579:\n      pop\n        /* \"#utility.yul\":11818:11827   */\n      div\n      swap1\n        /* \"#utility.yul\":11616:11833   */\n      jump\t// out\n        /* \"#utility.yul\":11838:11966   */\n    tag_453:\n        /* \"#utility.yul\":11878:11881   */\n      0x00\n        /* \"#utility.yul\":11909:11910   */\n      dup3\n        /* \"#utility.yul\":11905:11911   */\n      not\n        /* \"#utility.yul\":11902:11903   */\n      dup3\n        /* \"#utility.yul\":11899:11912   */\n      gt\n        /* \"#utility.yul\":11896:11935   */\n      iszero\n      tag_582\n      jumpi\n        /* \"#utility.yul\":11915:11933   */\n      tag_582\n      tag_517\n      jump\t// in\n    tag_582:\n      pop\n        /* \"#utility.yul\":11951:11960   */\n      add\n      swap1\n        /* \"#utility.yul\":11838:11966   */\n      jump\t// out\n        /* \"#utility.yul\":13053:13330   */\n    tag_481:\n        /* \"#utility.yul\":13120:13126   */\n      0x00\n        /* \"#utility.yul\":13173:13175   */\n      0x20\n        /* \"#utility.yul\":13161:13170   */\n      dup3\n        /* \"#utility.yul\":13152:13159   */\n      dup5\n        /* \"#utility.yul\":13148:13171   */\n      sub\n        /* \"#utility.yul\":13144:13176   */\n      slt\n        /* \"#utility.yul\":13141:13193   */\n      iszero\n      tag_587\n      jumpi\n        /* \"#utility.yul\":13189:13190   */\n      0x00\n        /* \"#utility.yul\":13186:13187   */\n      dup1\n        /* \"#utility.yul\":13179:13191   */\n      revert\n        /* \"#utility.yul\":13141:13193   */\n    tag_587:\n        /* \"#utility.yul\":13221:13230   */\n      dup2\n        /* \"#utility.yul\":13215:13231   */\n      mload\n        /* \"#utility.yul\":13274:13279   */\n      dup1\n        /* \"#utility.yul\":13267:13280   */\n      iszero\n        /* \"#utility.yul\":13260:13281   */\n      iszero\n        /* \"#utility.yul\":13253:13258   */\n      dup2\n        /* \"#utility.yul\":13250:13282   */\n      eq\n        /* \"#utility.yul\":13240:13300   */\n      tag_443\n      jumpi\n        /* \"#utility.yul\":13296:13297   */\n      0x00\n        /* \"#utility.yul\":13293:13294   */\n      dup1\n        /* \"#utility.yul\":13286:13298   */\n      revert\n        /* \"#utility.yul\":14153:14411   */\n    tag_518:\n        /* \"#utility.yul\":14225:14226   */\n      0x00\n        /* \"#utility.yul\":14235:14348   */\n    tag_592:\n        /* \"#utility.yul\":14249:14255   */\n      dup4\n        /* \"#utility.yul\":14246:14247   */\n      dup2\n        /* \"#utility.yul\":14243:14256   */\n      lt\n        /* \"#utility.yul\":14235:14348   */\n      iszero\n      tag_594\n      jumpi\n        /* \"#utility.yul\":14325:14336   */\n      dup2\n      dup2\n      add\n        /* \"#utility.yul\":14319:14337   */\n      mload\n        /* \"#utility.yul\":14306:14317   */\n      dup4\n      dup3\n      add\n        /* \"#utility.yul\":14299:14338   */\n      mstore\n        /* \"#utility.yul\":14271:14273   */\n      0x20\n        /* \"#utility.yul\":14264:14274   */\n      add\n        /* \"#utility.yul\":14235:14348   */\n      jump(tag_592)\n    tag_594:\n        /* \"#utility.yul\":14366:14372   */\n      dup4\n        /* \"#utility.yul\":14363:14364   */\n      dup2\n        /* \"#utility.yul\":14360:14373   */\n      gt\n        /* \"#utility.yul\":14357:14405   */\n      iszero\n      tag_469\n      jumpi\n      pop\n      pop\n        /* \"#utility.yul\":14401:14402   */\n      0x00\n        /* \"#utility.yul\":14383:14399   */\n      swap2\n      add\n        /* \"#utility.yul\":14376:14403   */\n      mstore\n        /* \"#utility.yul\":14153:14411   */\n      jump\t// out\n        /* \"#utility.yul\":14416:14690   */\n    tag_493:\n        /* \"#utility.yul\":14545:14548   */\n      0x00\n        /* \"#utility.yul\":14583:14589   */\n      dup3\n        /* \"#utility.yul\":14577:14590   */\n      mload\n        /* \"#utility.yul\":14599:14652   */\n      tag_597\n        /* \"#utility.yul\":14645:14651   */\n      dup2\n        /* \"#utility.yul\":14640:14643   */\n      dup5\n        /* \"#utility.yul\":14633:14637   */\n      0x20\n        /* \"#utility.yul\":14625:14631   */\n      dup8\n        /* \"#utility.yul\":14621:14638   */\n      add\n        /* \"#utility.yul\":14599:14652   */\n      tag_518\n      jump\t// in\n    tag_597:\n        /* \"#utility.yul\":14668:14684   */\n      swap2\n      swap1\n      swap2\n      add\n      swap3\n        /* \"#utility.yul\":14416:14690   */\n      swap2\n      pop\n      pop\n      jump\t// out\n        /* \"#utility.yul\":15053:15436   */\n    tag_515:\n        /* \"#utility.yul\":15202:15204   */\n      0x20\n        /* \"#utility.yul\":15191:15200   */\n      dup2\n        /* \"#utility.yul\":15184:15205   */\n      mstore\n        /* \"#utility.yul\":15165:15169   */\n      0x00\n        /* \"#utility.yul\":15234:15240   */\n      dup3\n        /* \"#utility.yul\":15228:15241   */\n      mload\n        /* \"#utility.yul\":15277:15283   */\n      dup1\n        /* \"#utility.yul\":15272:15274   */\n      0x20\n        /* \"#utility.yul\":15261:15270   */\n      dup5\n        /* \"#utility.yul\":15257:15275   */\n      add\n        /* \"#utility.yul\":15250:15284   */\n      mstore\n        /* \"#utility.yul\":15293:15359   */\n      tag_600\n        /* \"#utility.yul\":15352:15358   */\n      dup2\n        /* \"#utility.yul\":15347:15349   */\n      0x40\n        /* \"#utility.yul\":15336:15345   */\n      dup6\n        /* \"#utility.yul\":15332:15350   */\n      add\n        /* \"#utility.yul\":15327:15329   */\n      0x20\n        /* \"#utility.yul\":15319:15325   */\n      dup8\n        /* \"#utility.yul\":15315:15330   */\n      add\n        /* \"#utility.yul\":15293:15359   */\n      tag_518\n      jump\t// in\n    tag_600:\n        /* \"#utility.yul\":15420:15422   */\n      0x1f\n        /* \"#utility.yul\":15399:15414   */\n      add\n      not(0x1f)\n        /* \"#utility.yul\":15395:15424   */\n      and\n        /* \"#utility.yul\":15380:15425   */\n      swap2\n      swap1\n      swap2\n      add\n        /* \"#utility.yul\":15427:15429   */\n      0x40\n        /* \"#utility.yul\":15376:15430   */\n      add\n      swap3\n        /* \"#utility.yul\":15053:15436   */\n      swap2\n      pop\n      pop\n      jump\t// out\n\n    auxdata: 0xa26469706673582212209c3f8abeb878c7f7eae12fafc8fc1f0908ee71fe498c6e898c6049d4440ee5ed64736f6c634300080d0033\n}\n",
				"bytecode": {
					"linkReferences": {},
					"object": "60806040526004805460ff60a01b1916905534801561001d57600080fd5b506125178061002d6000396000f3fe608060405234801561001057600080fd5b50600436106102315760003560e01c806361d027b311610130578063b3ab15fb116100b8578063ddca3f431161007c578063ddca3f43146104e9578063e9fad8ee146104f2578063f46901ed146104fa578063f9f92be41461050d578063fc0c546a1461053057600080fd5b8063b3ab15fb146104a0578063b88a802f146104b3578063c58e3843146104bb578063c5967c26146104ce578063d256d48a146104d657600080fd5b8063714b4658116100ff578063714b465814610436578063900cf0cf1461045f57806397ffe1d714610467578063a694fc3a1461047a578063a8d5fd651461048d57600080fd5b806361d027b3146103d457806369fe0e2d146103e75780636cee85c2146103fa57806370a082311461040d57600080fd5b80632e1a7d4d116101be578063530b97a411610182578063530b97a41461037557806353c038291461038857806354575af41461039b578063570ca735146103ae5780635db76731146103c157600080fd5b80632e1a7d4d146103355780632ffaaa091461034a5780633f9e3f041461035d578063446a2ec8146103655780634b94f50e1461036d57600080fd5b806308ae4b0c1161020557806308ae4b0c146102b3578063158ef93e146102fd57806318160ddd1461031157806319262d30146103195780631e85cd651461032c57600080fd5b80628cc26214610236578063017e7e581461025c578063022ba18d14610287578063046335d014610290575b600080fd5b6102496102443660046121a6565b610543565b6040519081526020015b60405180910390f35b600d5461026f906001600160a01b031681565b6040516001600160a01b039091168152602001610253565b610249600b5481565b6102a361029e3660046121a6565b6105d4565b6040519015158152602001610253565b6102e26102c13660046121a6565b60086020526000908152604090208054600182015460029092015490919083565b60408051938452602084019290925290820152606001610253565b6004546102a390600160a01b900460ff1681565b600154610249565b6102a36103273660046121a6565b610672565b610249600a5481565b6103486103433660046121c3565b610708565b005b6103486103583660046121dc565b610a63565b610249610b01565b610249610b17565b610249610b2a565b6103486103833660046121fe565b610b98565b610348610396366004612266565b610d46565b6103486103a936600461229f565b610fd7565b60045461026f906001600160a01b031681565b6102a36103cf3660046121a6565b6110e5565b60065461026f906001600160a01b031681565b6103486103f53660046121c3565b61119c565b6102a36104083660046121a6565b61120c565b61024961041b3660046121a6565b6001600160a01b031660009081526002602052604090205490565b6102496104443660046121a6565b6001600160a01b031660009081526008602052604090205490565b6102496112bc565b6103486104753660046121c3565b611306565b6103486104883660046121c3565b6115d7565b60005461026f906001600160a01b031681565b6103486104ae3660046121a6565b6118ac565b6103486118f8565b6102e26104c93660046121c3565b611b9c565b610249611bcf565b6102a36104e43660046121a6565b611c19565b610249600c5481565b610348611c37565b6103486105083660046121a6565b611c52565b6102a361051b3660046121a6565b60076020526000908152604090205460ff1681565b60055461026f906001600160a01b031681565b60008061054e611c9e565b604001519050600061055f84611d18565b6040908101516001600160a01b0386166000908152600860205291909120600101549091506105cc906105c6670de0b6b3a76400006105c06105a18787611dab565b6001600160a01b038a1660009081526002602052604090205490611dbe565b90611dca565b90611dd6565b949350505050565b6006546040805163900cf0cf60e01b815290516000926001600160a01b03169163900cf0cf9160048083019260209291908290030181865afa15801561061e573d6000803e3d6000fd5b505050506040513d601f19601f8201168201806040525081019061064291906122e1565b600b546001600160a01b03841660009081526008602052604090206002015461066a91611dd6565b111592915050565b6006546040805163900cf0cf60e01b815290516000926001600160a01b03169163900cf0cf9160048083019260209291908290030181865afa1580156106bc573d6000803e3d6000fd5b505050506040513d601f19601f820116820180604052508101906106e091906122e1565b600a546001600160a01b03841660009081526008602052604090206002015461066a91611dd6565b43600090815260036020908152604080832032845290915290205460ff161561074c5760405162461bcd60e51b8152600401610743906122fa565b60405180910390fd5b43600090815260036020908152604080832033845290915290205460ff16156107875760405162461bcd60e51b8152600401610743906122fa565b43600090815260036020908152604080832032845282528083208054600160ff199182168117909255338552828520805490911690911790556002909152812054116108215760405162461bcd60e51b8152602060048201526024808201527f426f617264726f6f6d3a20546865206d656d62657220646f6573206e6f7420656044820152631e1a5cdd60e21b6064820152608401610743565b3380156108b2576001600160a01b038116600090815260086020908152604091829020825160608101845281548152600182015492810192909252600201549181019190915261087082610543565b602082015261087d610b01565b81526001600160a01b038216600090815260086020908152604091829020835181559083015160018201559101516002909101555b6108bb33611c19565b156108d85760405162461bcd60e51b815260040161074390612340565b600082116109285760405162461bcd60e51b815260206004820152601c60248201527f426f617264726f6f6d3a2043616e6e6f742077697468647261772030000000006044820152606401610743565b600660009054906101000a90046001600160a01b03166001600160a01b031663900cf0cf6040518163ffffffff1660e01b8152600401602060405180830381865afa15801561097b573d6000803e3d6000fd5b505050506040513d601f19601f8201168201806040525081019061099f91906122e1565b600a54336000908152600860205260409020600201546109be91611dd6565b1115610a185760405162461bcd60e51b815260206004820152602360248201527f426f617264726f6f6d3a207374696c6c20696e207769746864726177206c6f6360448201526206b75760ec1b6064820152608401610743565b610a206118f8565b610a2982611de2565b60405182815233907f7084f5476618d8e60b11ef0d7d3f06914655adb8793e28ff7f018d4c76d505d5906020015b60405180910390a25050565b6004546001600160a01b03163314610a8d5760405162461bcd60e51b815260040161074390612363565b808210158015610a9e575060388211155b610af65760405162461bcd60e51b815260206004820152602360248201527f5f77697468647261774c6f636b757045706f6368733a206f7574206f662072616044820152626e676560e81b6064820152608401610743565b600a91909155600b55565b600954600090610b12906001611dab565b905090565b6000610b21611c9e565b60400151905090565b600654604080516325ca7a8760e11b815290516000926001600160a01b031691634b94f50e9160048083019260209291908290030181865afa158015610b74573d6000803e3d6000fd5b505050506040513d601f19601f82011682018060405250810190610b1291906122e1565b600454600160a01b900460ff1615610bf25760405162461bcd60e51b815260206004820152601e60248201527f426f617264726f6f6d3a20616c726561647920696e697469616c697a656400006044820152606401610743565b600580546001600160a01b038781166001600160a01b0319928316179092556000805487841690831617815560068054878516908416178155600c869055600d8054948616949093169390931790915560408051606081018252438082526020808301858152838501868152600980546001810182559752845160039788027f6e1540171b6c0c960b71a7020d9f60077f6af931a8bbf590da0223dacf75c7af81019190915591517f6e1540171b6c0c960b71a7020d9f60077f6af931a8bbf590da0223dacf75c7b0830155517f6e1540171b6c0c960b71a7020d9f60077f6af931a8bbf590da0223dacf75c7b190910155600a95909555600b93909355600480546001600160a81b03191633908117600160a01b1790915591519283529290917f25ff68dd81b34665b5ba7e553ee5511bf6812e12adb4a7e2c0d9e26b3099ce79910160405180910390a2505050505050565b6004546001600160a01b03163314610d705760405162461bcd60e51b815260040161074390612363565b610d7982611c19565b610dc55760405162461bcd60e51b815260206004820152601c60248201527f61646472657373206e6f7420696e2074686520626c61636b6c697374000000006044820152606401610743565b6001600160a01b03821660009081526002602052604090205480610e2b5760405162461bcd60e51b815260206004820152601c60248201527f426f617264726f6f6d3a2043616e6e6f742077697468647261772030000000006044820152606401610743565b6001600160a01b0383166000908152600860205260409020600101548015610f4b57600660009054906101000a90046001600160a01b03166001600160a01b031663900cf0cf6040518163ffffffff1660e01b8152600401602060405180830381865afa158015610ea0573d6000803e3d6000fd5b505050506040513d601f19601f82011682018060405250810190610ec491906122e1565b6001600160a01b0380861660009081526008602052604081206002810193909355600190920191909155600554610efd91168483611ea2565b826001600160a01b0316846001600160a01b03167f715576a45bd0ea6ca90a2f53c258fe52bdd30e6061046ce86ca3fa7e9f5a91be83604051610f4291815260200190565b60405180910390a35b600154610f589083611dab565b6001556001600160a01b03808516600090815260026020526040812081905554610f8491168484611ea2565b826001600160a01b0316846001600160a01b03167f345a298b5b7318863d2a616f67ae5329deb5255f9f90b5ebc73ee5ddcd81b18084604051610fc991815260200190565b60405180910390a350505050565b6004546001600160a01b031633146110015760405162461bcd60e51b815260040161074390612363565b6001600160a01b0381166110405760405162461bcd60e51b8152600401610743906020808252600490820152637a65726f60e01b604082015260600190565b6005546001600160a01b03908116908416036110865760405162461bcd60e51b81526020600482015260056024820152643a37b5b2b760d91b6044820152606401610743565b6000546001600160a01b03908116908416036110cc5760405162461bcd60e51b8152602060048201526005602482015264736861726560d81b6044820152606401610743565b6110e06001600160a01b0384168284611ea2565b505050565b6004546000906001600160a01b031633146111125760405162461bcd60e51b815260040161074390612363565b6001600160a01b03821660009081526007602052604090205460ff16156111735760405162461bcd60e51b81526020600482015260156024820152741859191c995cdcc8185b1c9958591e481859191959605a1b6044820152606401610743565b506001600160a01b03166000908152600760205260409020805460ff1916600190811790915590565b6004546001600160a01b031633146111c65760405162461bcd60e51b815260040161074390612363565b6127108111156112075760405162461bcd60e51b815260206004820152600c60248201526b6f7574206f662072616e676560a01b6044820152606401610743565b600c55565b6004546000906001600160a01b031633146112395760405162461bcd60e51b815260040161074390612363565b6001600160a01b03821660009081526007602052604090205460ff166112975760405162461bcd60e51b81526020600482015260136024820152721859191c995cdcc81b9bdd08195e1a5cdd1959606a1b6044820152606401610743565b506001600160a01b03166000908152600760205260409020805460ff19169055600190565b6006546040805163900cf0cf60e01b815290516000926001600160a01b03169163900cf0cf9160048083019260209291908290030181865afa158015610b74573d6000803e3d6000fd5b43600090815260036020908152604080832032845290915290205460ff16156113415760405162461bcd60e51b8152600401610743906122fa565b43600090815260036020908152604080832033845290915290205460ff161561137c5760405162461bcd60e51b8152600401610743906122fa565b4360009081526003602090815260408083203284529091528082208054600160ff19918216811790925533808552929093208054909316179091556004546001600160a01b0316146113e05760405162461bcd60e51b815260040161074390612363565b600081116114305760405162461bcd60e51b815260206004820152601c60248201527f426f617264726f6f6d3a2043616e6e6f7420616c6c6f636174652030000000006044820152606401610743565b600061143b60015490565b116114a15760405162461bcd60e51b815260206004820152603060248201527f426f617264726f6f6d3a2043616e6e6f7420616c6c6f63617465207768656e2060448201526f0746f74616c537570706c7920697320360841b6064820152608401610743565b60006114ab611c9e565b60400151905060006114db6114d46114c260015490565b6105c086670de0b6b3a7640000611dbe565b8390611dd6565b60408051606081018252438152602081018681529181018381526009805460018101825560009190915282517f6e1540171b6c0c960b71a7020d9f60077f6af931a8bbf590da0223dacf75c7af60039092029182015592517f6e1540171b6c0c960b71a7020d9f60077f6af931a8bbf590da0223dacf75c7b0840155517f6e1540171b6c0c960b71a7020d9f60077f6af931a8bbf590da0223dacf75c7b1909201919091556005549192509061159c906001600160a01b0316333087611f05565b60405184815233907fac24935fd910bc682b5ccb1a07b718cadf8cf2f6d1404c4f3ddc3662dae40e299060200160405180910390a250505050565b43600090815260036020908152604080832032845290915290205460ff16156116125760405162461bcd60e51b8152600401610743906122fa565b43600090815260036020908152604080832033845290915290205460ff161561164d5760405162461bcd60e51b8152600401610743906122fa565b4360009081526003602090815260408083203284529091528082208054600160ff19918216811790925533808552929093208054909316179091558015611718576001600160a01b03811660009081526008602090815260409182902082516060810184528154815260018201549281019290925260020154918101919091526116d682610543565b60208201526116e3610b01565b81526001600160a01b038216600090815260086020908152604091829020835181559083015160018201559101516002909101555b61172133611c19565b1561173e5760405162461bcd60e51b815260040161074390612340565b6000821161178e5760405162461bcd60e51b815260206004820152601960248201527f426f617264726f6f6d3a2043616e6e6f74207374616b652030000000000000006044820152606401610743565b600c54156117e35760006117b36127106105c0600c5486611dbe90919063ffffffff16565b90506117bf8382611dab565b600d546000549194506117e1916001600160a01b039081169133911684611f05565b505b6117ec82611f43565b600660009054906101000a90046001600160a01b03166001600160a01b031663900cf0cf6040518163ffffffff1660e01b8152600401602060405180830381865afa15801561183f573d6000803e3d6000fd5b505050506040513d601f19601f8201168201806040525081019061186391906122e1565b33600081815260086020526040908190206002019290925590517f9e71bc8eea02a63969f509818f2dafb9254532904319f9dbda79b67bd34a5f3d90610a579085815260200190565b6004546001600160a01b031633146118d65760405162461bcd60e51b815260040161074390612363565b600480546001600160a01b0319166001600160a01b0392909216919091179055565b338015611989576001600160a01b038116600090815260086020908152604091829020825160608101845281548152600182015492810192909252600201549181019190915261194782610543565b6020820152611954610b01565b81526001600160a01b038216600090815260086020908152604091829020835181559083015160018201559101516002909101555b61199233611c19565b156119af5760405162461bcd60e51b815260040161074390612340565b336000908152600860205260409020600101548015611b9857600660009054906101000a90046001600160a01b03166001600160a01b031663900cf0cf6040518163ffffffff1660e01b8152600401602060405180830381865afa158015611a1b573d6000803e3d6000fd5b505050506040513d601f19601f82011682018060405250810190611a3f91906122e1565b600b5433600090815260086020526040902060020154611a5e91611dd6565b1115611ab65760405162461bcd60e51b815260206004820152602160248201527f426f617264726f6f6d3a207374696c6c20696e20726577617264206c6f636b756044820152600760fc1b6064820152608401610743565b600660009054906101000a90046001600160a01b03166001600160a01b031663900cf0cf6040518163ffffffff1660e01b8152600401602060405180830381865afa158015611b09573d6000803e3d6000fd5b505050506040513d601f19601f82011682018060405250810190611b2d91906122e1565b3360008181526008602052604081206002810193909355600190920191909155600554611b66916001600160a01b039091169083611ea2565b60405181815233907fe2403640ba68fed3a2f88b7557551d1993f84b99bb10ff833f0cf8db0c5e048690602001610a57565b5050565b60098181548110611bac57600080fd5b600091825260209091206003909102018054600182015460029092015490925083565b600654604080516362cb3e1360e11b815290516000926001600160a01b03169163c5967c269160048083019260209291908290030181865afa158015610b74573d6000803e3d6000fd5b6001600160a01b031660009081526007602052604090205460ff1690565b33600090815260026020526040902054611c5090610708565b565b6004546001600160a01b03163314611c7c5760405162461bcd60e51b815260040161074390612363565b600d80546001600160a01b0319166001600160a01b0392909216919091179055565b611cc260405180606001604052806000815260200160008152602001600081525090565b6009611ccc610b01565b81548110611cdc57611cdc6123a8565b90600052602060002090600302016040518060600160405290816000820154815260200160018201548152602001600282015481525050905090565b611d3c60405180606001604052806000815260200160008152602001600081525090565b6009611d5d836001600160a01b031660009081526008602052604090205490565b81548110611d6d57611d6d6123a8565b906000526020600020906003020160405180606001604052908160008201548152602001600182015481526020016002820154815250509050919050565b6000611db782846123d4565b9392505050565b6000611db782846123eb565b6000611db7828461240a565b6000611db7828461242c565b3360009081526002602052604090205481811015611e615760405162461bcd60e51b815260206004820152603660248201527f426f617264726f6f6d3a207769746864726177207265717565737420677265616044820152751d195c881d1a185b881cdd185ad95908185b5bdd5b9d60521b6064820152608401610743565b600154611e6e9083611dab565b600155611e7b8183611dab565b336000818152600260205260408120929092559054611b98916001600160a01b0390911690845b6040516001600160a01b0383166024820152604481018290526110e090849063a9059cbb60e01b906064015b60408051601f198184030181529190526020810180516001600160e01b03166001600160e01b031990931692909217909152611f9c565b6040516001600160a01b0380851660248301528316604482015260648101829052611f3d9085906323b872dd60e01b90608401611ece565b50505050565b600154611f509082611dd6565b60015533600090815260026020526040902054611f6d9082611dd6565b336000818152600260205260408120929092559054611f99916001600160a01b03909116903084611f05565b50565b6000611ff1826040518060400160405280602081526020017f5361666545524332303a206c6f772d6c6576656c2063616c6c206661696c6564815250856001600160a01b031661206e9092919063ffffffff16565b8051909150156110e0578080602001905181019061200f9190612444565b6110e05760405162461bcd60e51b815260206004820152602a60248201527f5361666545524332303a204552433230206f7065726174696f6e20646964206e6044820152691bdd081cdd58d8d9595960b21b6064820152608401610743565b60606105cc848460008585600080866001600160a01b031685876040516120959190612492565b60006040518083038185875af1925050503d80600081146120d2576040519150601f19603f3d011682016040523d82523d6000602084013e6120d7565b606091505b50915091506120e8878383876120f3565b979650505050505050565b6060831561216257825160000361215b576001600160a01b0385163b61215b5760405162461bcd60e51b815260206004820152601d60248201527f416464726573733a2063616c6c20746f206e6f6e2d636f6e74726163740000006044820152606401610743565b50816105cc565b6105cc83838151156121775781518083602001fd5b8060405162461bcd60e51b815260040161074391906124ae565b6001600160a01b0381168114611f9957600080fd5b6000602082840312156121b857600080fd5b8135611db781612191565b6000602082840312156121d557600080fd5b5035919050565b600080604083850312156121ef57600080fd5b50508035926020909101359150565b600080600080600060a0868803121561221657600080fd5b853561222181612191565b9450602086013561223181612191565b9350604086013561224181612191565b925060608601359150608086013561225881612191565b809150509295509295909350565b6000806040838503121561227957600080fd5b823561228481612191565b9150602083013561229481612191565b809150509250929050565b6000806000606084860312156122b457600080fd5b83356122bf81612191565b92506020840135915060408401356122d681612191565b809150509250925092565b6000602082840312156122f357600080fd5b5051919050565b60208082526026908201527f436f6e747261637447756172643a206f6e6520626c6f636b2c206f6e652066756040820152653731ba34b7b760d11b606082015260800190565b602080825260099082015268189b1858dadb1a5cdd60ba1b604082015260600190565b60208082526025908201527f426f617264726f6f6d3a2063616c6c6572206973206e6f7420746865206f70656040820152643930ba37b960d91b606082015260800190565b634e487b7160e01b600052603260045260246000fd5b634e487b7160e01b600052601160045260246000fd5b6000828210156123e6576123e66123be565b500390565b6000816000190483118215151615612405576124056123be565b500290565b60008261242757634e487b7160e01b600052601260045260246000fd5b500490565b6000821982111561243f5761243f6123be565b500190565b60006020828403121561245657600080fd5b81518015158114611db757600080fd5b60005b83811015612481578181015183820152602001612469565b83811115611f3d5750506000910152565b600082516124a4818460208701612466565b9190910192915050565b60208152600082518060208401526124cd816040850160208701612466565b601f01601f1916919091016040019291505056fea26469706673582212209c3f8abeb878c7f7eae12fafc8fc1f0908ee71fe498c6e898c6049d4440ee5ed64736f6c634300080d0033",
					"opcodes": "PUSH1 0x80 PUSH1 0x40 MSTORE PUSH1 0x4 DUP1 SLOAD PUSH1 0xFF PUSH1 0xA0 SHL NOT AND SWAP1 SSTORE CALLVALUE DUP1 ISZERO PUSH2 0x1D JUMPI PUSH1 0x0 DUP1 REVERT JUMPDEST POP PUSH2 0x2517 DUP1 PUSH2 0x2D PUSH1 0x0 CODECOPY PUSH1 0x0 RETURN INVALID PUSH1 0x80 PUSH1 0x40 MSTORE CALLVALUE DUP1 ISZERO PUSH2 0x10 JUMPI PUSH1 0x0 DUP1 REVERT JUMPDEST POP PUSH1 0x4 CALLDATASIZE LT PUSH2 0x231 JUMPI PUSH1 0x0 CALLDATALOAD PUSH1 0xE0 SHR DUP1 PUSH4 0x61D027B3 GT PUSH2 0x130 JUMPI DUP1 PUSH4 0xB3AB15FB GT PUSH2 0xB8 JUMPI DUP1 PUSH4 0xDDCA3F43 GT PUSH2 0x7C JUMPI DUP1 PUSH4 0xDDCA3F43 EQ PUSH2 0x4E9 JUMPI DUP1 PUSH4 0xE9FAD8EE EQ PUSH2 0x4F2 JUMPI DUP1 PUSH4 0xF46901ED EQ PUSH2 0x4FA JUMPI DUP1 PUSH4 0xF9F92BE4 EQ PUSH2 0x50D JUMPI DUP1 PUSH4 0xFC0C546A EQ PUSH2 0x530 JUMPI PUSH1 0x0 DUP1 REVERT JUMPDEST DUP1 PUSH4 0xB3AB15FB EQ PUSH2 0x4A0 JUMPI DUP1 PUSH4 0xB88A802F EQ PUSH2 0x4B3 JUMPI DUP1 PUSH4 0xC58E3843 EQ PUSH2 0x4BB JUMPI DUP1 PUSH4 0xC5967C26 EQ PUSH2 0x4CE JUMPI DUP1 PUSH4 0xD256D48A EQ PUSH2 0x4D6 JUMPI PUSH1 0x0 DUP1 REVERT JUMPDEST DUP1 PUSH4 0x714B4658 GT PUSH2 0xFF JUMPI DUP1 PUSH4 0x714B4658 EQ PUSH2 0x436 JUMPI DUP1 PUSH4 0x900CF0CF EQ PUSH2 0x45F JUMPI DUP1 PUSH4 0x97FFE1D7 EQ PUSH2 0x467 JUMPI DUP1 PUSH4 0xA694FC3A EQ PUSH2 0x47A JUMPI DUP1 PUSH4 0xA8D5FD65 EQ PUSH2 0x48D JUMPI PUSH1 0x0 DUP1 REVERT JUMPDEST DUP1 PUSH4 0x61D027B3 EQ PUSH2 0x3D4 JUMPI DUP1 PUSH4 0x69FE0E2D EQ PUSH2 0x3E7 JUMPI DUP1 PUSH4 0x6CEE85C2 EQ PUSH2 0x3FA JUMPI DUP1 PUSH4 0x70A08231 EQ PUSH2 0x40D JUMPI PUSH1 0x0 DUP1 REVERT JUMPDEST DUP1 PUSH4 0x2E1A7D4D GT PUSH2 0x1BE JUMPI DUP1 PUSH4 0x530B97A4 GT PUSH2 0x182 JUMPI DUP1 PUSH4 0x530B97A4 EQ PUSH2 0x375 JUMPI DUP1 PUSH4 0x53C03829 EQ PUSH2 0x388 JUMPI DUP1 PUSH4 0x54575AF4 EQ PUSH2 0x39B JUMPI DUP1 PUSH4 0x570CA735 EQ PUSH2 0x3AE JUMPI DUP1 PUSH4 0x5DB76731 EQ PUSH2 0x3C1 JUMPI PUSH1 0x0 DUP1 REVERT JUMPDEST DUP1 PUSH4 0x2E1A7D4D EQ PUSH2 0x335 JUMPI DUP1 PUSH4 0x2FFAAA09 EQ PUSH2 0x34A JUMPI DUP1 PUSH4 0x3F9E3F04 EQ PUSH2 0x35D JUMPI DUP1 PUSH4 0x446A2EC8 EQ PUSH2 0x365 JUMPI DUP1 PUSH4 0x4B94F50E EQ PUSH2 0x36D JUMPI PUSH1 0x0 DUP1 REVERT JUMPDEST DUP1 PUSH4 0x8AE4B0C GT PUSH2 0x205 JUMPI DUP1 PUSH4 0x8AE4B0C EQ PUSH2 0x2B3 JUMPI DUP1 PUSH4 0x158EF93E EQ PUSH2 0x2FD JUMPI DUP1 PUSH4 0x18160DDD EQ PUSH2 0x311 JUMPI DUP1 PUSH4 0x19262D30 EQ PUSH2 0x319 JUMPI DUP1 PUSH4 0x1E85CD65 EQ PUSH2 0x32C JUMPI PUSH1 0x0 DUP1 REVERT JUMPDEST DUP1 PUSH3 0x8CC262 EQ PUSH2 0x236 JUMPI DUP1 PUSH4 0x17E7E58 EQ PUSH2 0x25C JUMPI DUP1 PUSH4 0x22BA18D EQ PUSH2 0x287 JUMPI DUP1 PUSH4 0x46335D0 EQ PUSH2 0x290 JUMPI JUMPDEST PUSH1 0x0 DUP1 REVERT JUMPDEST PUSH2 0x249 PUSH2 0x244 CALLDATASIZE PUSH1 0x4 PUSH2 0x21A6 JUMP JUMPDEST PUSH2 0x543 JUMP JUMPDEST PUSH1 0x40 MLOAD SWAP1 DUP2 MSTORE PUSH1 0x20 ADD JUMPDEST PUSH1 0x40 MLOAD DUP1 SWAP2 SUB SWAP1 RETURN JUMPDEST PUSH1 0xD SLOAD PUSH2 0x26F SWAP1 PUSH1 0x1 PUSH1 0x1 PUSH1 0xA0 SHL SUB AND DUP2 JUMP JUMPDEST PUSH1 0x40 MLOAD PUSH1 0x1 PUSH1 0x1 PUSH1 0xA0 SHL SUB SWAP1 SWAP2 AND DUP2 MSTORE PUSH1 0x20 ADD PUSH2 0x253 JUMP JUMPDEST PUSH2 0x249 PUSH1 0xB SLOAD DUP2 JUMP JUMPDEST PUSH2 0x2A3 PUSH2 0x29E CALLDATASIZE PUSH1 0x4 PUSH2 0x21A6 JUMP JUMPDEST PUSH2 0x5D4 JUMP JUMPDEST PUSH1 0x40 MLOAD SWAP1 ISZERO ISZERO DUP2 MSTORE PUSH1 0x20 ADD PUSH2 0x253 JUMP JUMPDEST PUSH2 0x2E2 PUSH2 0x2C1 CALLDATASIZE PUSH1 0x4 PUSH2 0x21A6 JUMP JUMPDEST PUSH1 0x8 PUSH1 0x20 MSTORE PUSH1 0x0 SWAP1 DUP2 MSTORE PUSH1 0x40 SWAP1 KECCAK256 DUP1 SLOAD PUSH1 0x1 DUP3 ADD SLOAD PUSH1 0x2 SWAP1 SWAP3 ADD SLOAD SWAP1 SWAP2 SWAP1 DUP4 JUMP JUMPDEST PUSH1 0x40 DUP1 MLOAD SWAP4 DUP5 MSTORE PUSH1 0x20 DUP5 ADD SWAP3 SWAP1 SWAP3 MSTORE SWAP1 DUP3 ADD MSTORE PUSH1 0x60 ADD PUSH2 0x253 JUMP JUMPDEST PUSH1 0x4 SLOAD PUSH2 0x2A3 SWAP1 PUSH1 0x1 PUSH1 0xA0 SHL SWAP1 DIV PUSH1 0xFF AND DUP2 JUMP JUMPDEST PUSH1 0x1 SLOAD PUSH2 0x249 JUMP JUMPDEST PUSH2 0x2A3 PUSH2 0x327 CALLDATASIZE PUSH1 0x4 PUSH2 0x21A6 JUMP JUMPDEST PUSH2 0x672 JUMP JUMPDEST PUSH2 0x249 PUSH1 0xA SLOAD DUP2 JUMP JUMPDEST PUSH2 0x348 PUSH2 0x343 CALLDATASIZE PUSH1 0x4 PUSH2 0x21C3 JUMP JUMPDEST PUSH2 0x708 JUMP JUMPDEST STOP JUMPDEST PUSH2 0x348 PUSH2 0x358 CALLDATASIZE PUSH1 0x4 PUSH2 0x21DC JUMP JUMPDEST PUSH2 0xA63 JUMP JUMPDEST PUSH2 0x249 PUSH2 0xB01 JUMP JUMPDEST PUSH2 0x249 PUSH2 0xB17 JUMP JUMPDEST PUSH2 0x249 PUSH2 0xB2A JUMP JUMPDEST PUSH2 0x348 PUSH2 0x383 CALLDATASIZE PUSH1 0x4 PUSH2 0x21FE JUMP JUMPDEST PUSH2 0xB98 JUMP JUMPDEST PUSH2 0x348 PUSH2 0x396 CALLDATASIZE PUSH1 0x4 PUSH2 0x2266 JUMP JUMPDEST PUSH2 0xD46 JUMP JUMPDEST PUSH2 0x348 PUSH2 0x3A9 CALLDATASIZE PUSH1 0x4 PUSH2 0x229F JUMP JUMPDEST PUSH2 0xFD7 JUMP JUMPDEST PUSH1 0x4 SLOAD PUSH2 0x26F SWAP1 PUSH1 0x1 PUSH1 0x1 PUSH1 0xA0 SHL SUB AND DUP2 JUMP JUMPDEST PUSH2 0x2A3 PUSH2 0x3CF CALLDATASIZE PUSH1 0x4 PUSH2 0x21A6 JUMP JUMPDEST PUSH2 0x10E5 JUMP JUMPDEST PUSH1 0x6 SLOAD PUSH2 0x26F SWAP1 PUSH1 0x1 PUSH1 0x1 PUSH1 0xA0 SHL SUB AND DUP2 JUMP JUMPDEST PUSH2 0x348 PUSH2 0x3F5 CALLDATASIZE PUSH1 0x4 PUSH2 0x21C3 JUMP JUMPDEST PUSH2 0x119C JUMP JUMPDEST PUSH2 0x2A3 PUSH2 0x408 CALLDATASIZE PUSH1 0x4 PUSH2 0x21A6 JUMP JUMPDEST PUSH2 0x120C JUMP JUMPDEST PUSH2 0x249 PUSH2 0x41B CALLDATASIZE PUSH1 0x4 PUSH2 0x21A6 JUMP JUMPDEST PUSH1 0x1 PUSH1 0x1 PUSH1 0xA0 SHL SUB AND PUSH1 0x0 SWAP1 DUP2 MSTORE PUSH1 0x2 PUSH1 0x20 MSTORE PUSH1 0x40 SWAP1 KECCAK256 SLOAD SWAP1 JUMP JUMPDEST PUSH2 0x249 PUSH2 0x444 CALLDATASIZE PUSH1 0x4 PUSH2 0x21A6 JUMP JUMPDEST PUSH1 0x1 PUSH1 0x1 PUSH1 0xA0 SHL SUB AND PUSH1 0x0 SWAP1 DUP2 MSTORE PUSH1 0x8 PUSH1 0x20 MSTORE PUSH1 0x40 SWAP1 KECCAK256 SLOAD SWAP1 JUMP JUMPDEST PUSH2 0x249 PUSH2 0x12BC JUMP JUMPDEST PUSH2 0x348 PUSH2 0x475 CALLDATASIZE PUSH1 0x4 PUSH2 0x21C3 JUMP JUMPDEST PUSH2 0x1306 JUMP JUMPDEST PUSH2 0x348 PUSH2 0x488 CALLDATASIZE PUSH1 0x4 PUSH2 0x21C3 JUMP JUMPDEST PUSH2 0x15D7 JUMP JUMPDEST PUSH1 0x0 SLOAD PUSH2 0x26F SWAP1 PUSH1 0x1 PUSH1 0x1 PUSH1 0xA0 SHL SUB AND DUP2 JUMP JUMPDEST PUSH2 0x348 PUSH2 0x4AE CALLDATASIZE PUSH1 0x4 PUSH2 0x21A6 JUMP JUMPDEST PUSH2 0x18AC JUMP JUMPDEST PUSH2 0x348 PUSH2 0x18F8 JUMP JUMPDEST PUSH2 0x2E2 PUSH2 0x4C9 CALLDATASIZE PUSH1 0x4 PUSH2 0x21C3 JUMP JUMPDEST PUSH2 0x1B9C JUMP JUMPDEST PUSH2 0x249 PUSH2 0x1BCF JUMP JUMPDEST PUSH2 0x2A3 PUSH2 0x4E4 CALLDATASIZE PUSH1 0x4 PUSH2 0x21A6 JUMP JUMPDEST PUSH2 0x1C19 JUMP JUMPDEST PUSH2 0x249 PUSH1 0xC SLOAD DUP2 JUMP JUMPDEST PUSH2 0x348 PUSH2 0x1C37 JUMP JUMPDEST PUSH2 0x348 PUSH2 0x508 CALLDATASIZE PUSH1 0x4 PUSH2 0x21A6 JUMP JUMPDEST PUSH2 0x1C52 JUMP JUMPDEST PUSH2 0x2A3 PUSH2 0x51B CALLDATASIZE PUSH1 0x4 PUSH2 0x21A6 JUMP JUMPDEST PUSH1 0x7 PUSH1 0x20 MSTORE PUSH1 0x0 SWAP1 DUP2 MSTORE PUSH1 0x40 SWAP1 KECCAK256 SLOAD PUSH1 0xFF AND DUP2 JUMP JUMPDEST PUSH1 0x5 SLOAD PUSH2 0x26F SWAP1 PUSH1 0x1 PUSH1 0x1 PUSH1 0xA0 SHL SUB AND DUP2 JUMP JUMPDEST PUSH1 0x0 DUP1 PUSH2 0x54E PUSH2 0x1C9E JUMP JUMPDEST PUSH1 0x40 ADD MLOAD SWAP1 POP PUSH1 0x0 PUSH2 0x55F DUP5 PUSH2 0x1D18 JUMP JUMPDEST PUSH1 0x40 SWAP1 DUP2 ADD MLOAD PUSH1 0x1 PUSH1 0x1 PUSH1 0xA0 SHL SUB DUP7 AND PUSH1 0x0 SWAP1 DUP2 MSTORE PUSH1 0x8 PUSH1 0x20 MSTORE SWAP2 SWAP1 SWAP2 KECCAK256 PUSH1 0x1 ADD SLOAD SWAP1 SWAP2 POP PUSH2 0x5CC SWAP1 PUSH2 0x5C6 PUSH8 0xDE0B6B3A7640000 PUSH2 0x5C0 PUSH2 0x5A1 DUP8 DUP8 PUSH2 0x1DAB JUMP JUMPDEST PUSH1 0x1 PUSH1 0x1 PUSH1 0xA0 SHL SUB DUP11 AND PUSH1 0x0 SWAP1 DUP2 MSTORE PUSH1 0x2 PUSH1 0x20 MSTORE PUSH1 0x40 SWAP1 KECCAK256 SLOAD SWAP1 PUSH2 0x1DBE JUMP JUMPDEST SWAP1 PUSH2 0x1DCA JUMP JUMPDEST SWAP1 PUSH2 0x1DD6 JUMP JUMPDEST SWAP5 SWAP4 POP POP POP POP JUMP JUMPDEST PUSH1 0x6 SLOAD PUSH1 0x40 DUP1 MLOAD PUSH4 0x900CF0CF PUSH1 0xE0 SHL DUP2 MSTORE SWAP1 MLOAD PUSH1 0x0 SWAP3 PUSH1 0x1 PUSH1 0x1 PUSH1 0xA0 SHL SUB AND SWAP2 PUSH4 0x900CF0CF SWAP2 PUSH1 0x4 DUP1 DUP4 ADD SWAP3 PUSH1 0x20 SWAP3 SWAP2 SWAP1 DUP3 SWAP1 SUB ADD DUP2 DUP7 GAS STATICCALL ISZERO DUP1 ISZERO PUSH2 0x61E JUMPI RETURNDATASIZE PUSH1 0x0 DUP1 RETURNDATACOPY RETURNDATASIZE PUSH1 0x0 REVERT JUMPDEST POP POP POP POP PUSH1 0x40 MLOAD RETURNDATASIZE PUSH1 0x1F NOT PUSH1 0x1F DUP3 ADD AND DUP3 ADD DUP1 PUSH1 0x40 MSTORE POP DUP2 ADD SWAP1 PUSH2 0x642 SWAP2 SWAP1 PUSH2 0x22E1 JUMP JUMPDEST PUSH1 0xB SLOAD PUSH1 0x1 PUSH1 0x1 PUSH1 0xA0 SHL SUB DUP5 AND PUSH1 0x0 SWAP1 DUP2 MSTORE PUSH1 0x8 PUSH1 0x20 MSTORE PUSH1 0x40 SWAP1 KECCAK256 PUSH1 0x2 ADD SLOAD PUSH2 0x66A SWAP2 PUSH2 0x1DD6 JUMP JUMPDEST GT ISZERO SWAP3 SWAP2 POP POP JUMP JUMPDEST PUSH1 0x6 SLOAD PUSH1 0x40 DUP1 MLOAD PUSH4 0x900CF0CF PUSH1 0xE0 SHL DUP2 MSTORE SWAP1 MLOAD PUSH1 0x0 SWAP3 PUSH1 0x1 PUSH1 0x1 PUSH1 0xA0 SHL SUB AND SWAP2 PUSH4 0x900CF0CF SWAP2 PUSH1 0x4 DUP1 DUP4 ADD SWAP3 PUSH1 0x20 SWAP3 SWAP2 SWAP1 DUP3 SWAP1 SUB ADD DUP2 DUP7 GAS STATICCALL ISZERO DUP1 ISZERO PUSH2 0x6BC JUMPI RETURNDATASIZE PUSH1 0x0 DUP1 RETURNDATACOPY RETURNDATASIZE PUSH1 0x0 REVERT JUMPDEST POP POP POP POP PUSH1 0x40 MLOAD RETURNDATASIZE PUSH1 0x1F NOT PUSH1 0x1F DUP3 ADD AND DUP3 ADD DUP1 PUSH1 0x40 MSTORE POP DUP2 ADD SWAP1 PUSH2 0x6E0 SWAP2 SWAP1 PUSH2 0x22E1 JUMP JUMPDEST PUSH1 0xA SLOAD PUSH1 0x1 PUSH1 0x1 PUSH1 0xA0 SHL SUB DUP5 AND PUSH1 0x0 SWAP1 DUP2 MSTORE PUSH1 0x8 PUSH1 0x20 MSTORE PUSH1 0x40 SWAP1 KECCAK256 PUSH1 0x2 ADD SLOAD PUSH2 0x66A SWAP2 PUSH2 0x1DD6 JUMP JUMPDEST NUMBER PUSH1 0x0 SWAP1 DUP2 MSTORE PUSH1 0x3 PUSH1 0x20 SWAP1 DUP2 MSTORE PUSH1 0x40 DUP1 DUP4 KECCAK256 ORIGIN DUP5 MSTORE SWAP1 SWAP2 MSTORE SWAP1 KECCAK256 SLOAD PUSH1 0xFF AND ISZERO PUSH2 0x74C JUMPI PUSH1 0x40 MLOAD PUSH3 0x461BCD PUSH1 0xE5 SHL DUP2 MSTORE PUSH1 0x4 ADD PUSH2 0x743 SWAP1 PUSH2 0x22FA JUMP JUMPDEST PUSH1 0x40 MLOAD DUP1 SWAP2 SUB SWAP1 REVERT JUMPDEST NUMBER PUSH1 0x0 SWAP1 DUP2 MSTORE PUSH1 0x3 PUSH1 0x20 SWAP1 DUP2 MSTORE PUSH1 0x40 DUP1 DUP4 KECCAK256 CALLER DUP5 MSTORE SWAP1 SWAP2 MSTORE SWAP1 KECCAK256 SLOAD PUSH1 0xFF AND ISZERO PUSH2 0x787 JUMPI PUSH1 0x40 MLOAD PUSH3 0x461BCD PUSH1 0xE5 SHL DUP2 MSTORE PUSH1 0x4 ADD PUSH2 0x743 SWAP1 PUSH2 0x22FA JUMP JUMPDEST NUMBER PUSH1 0x0 SWAP1 DUP2 MSTORE PUSH1 0x3 PUSH1 0x20 SWAP1 DUP2 MSTORE PUSH1 0x40 DUP1 DUP4 KECCAK256 ORIGIN DUP5 MSTORE DUP3 MSTORE DUP1 DUP4 KECCAK256 DUP1 SLOAD PUSH1 0x1 PUSH1 0xFF NOT SWAP2 DUP3 AND DUP2 OR SWAP1 SWAP3 SSTORE CALLER DUP6 MSTORE DUP3 DUP6 KECCAK256 DUP1 SLOAD SWAP1 SWAP2 AND SWAP1 SWAP2 OR SWAP1 SSTORE PUSH1 0x2 SWAP1 SWAP2 MSTORE DUP2 KECCAK256 SLOAD GT PUSH2 0x821 JUMPI PUSH1 0x40 MLOAD PUSH3 0x461BCD PUSH1 0xE5 SHL DUP2 MSTORE PUSH1 0x20 PUSH1 0x4 DUP3 ADD MSTORE PUSH1 0x24 DUP1 DUP3 ADD MSTORE PUSH32 0x426F617264726F6F6D3A20546865206D656D62657220646F6573206E6F742065 PUSH1 0x44 DUP3 ADD MSTORE PUSH4 0x1E1A5CDD PUSH1 0xE2 SHL PUSH1 0x64 DUP3 ADD MSTORE PUSH1 0x84 ADD PUSH2 0x743 JUMP JUMPDEST CALLER DUP1 ISZERO PUSH2 0x8B2 JUMPI PUSH1 0x1 PUSH1 0x1 PUSH1 0xA0 SHL SUB DUP2 AND PUSH1 0x0 SWAP1 DUP2 MSTORE PUSH1 0x8 PUSH1 0x20 SWAP1 DUP2 MSTORE PUSH1 0x40 SWAP2 DUP3 SWAP1 KECCAK256 DUP3 MLOAD PUSH1 0x60 DUP2 ADD DUP5 MSTORE DUP2 SLOAD DUP2 MSTORE PUSH1 0x1 DUP3 ADD SLOAD SWAP3 DUP2 ADD SWAP3 SWAP1 SWAP3 MSTORE PUSH1 0x2 ADD SLOAD SWAP2 DUP2 ADD SWAP2 SWAP1 SWAP2 MSTORE PUSH2 0x870 DUP3 PUSH2 0x543 JUMP JUMPDEST PUSH1 0x20 DUP3 ADD MSTORE PUSH2 0x87D PUSH2 0xB01 JUMP JUMPDEST DUP2 MSTORE PUSH1 0x1 PUSH1 0x1 PUSH1 0xA0 SHL SUB DUP3 AND PUSH1 0x0 SWAP1 DUP2 MSTORE PUSH1 0x8 PUSH1 0x20 SWAP1 DUP2 MSTORE PUSH1 0x40 SWAP2 DUP3 SWAP1 KECCAK256 DUP4 MLOAD DUP2 SSTORE SWAP1 DUP4 ADD MLOAD PUSH1 0x1 DUP3 ADD SSTORE SWAP2 ADD MLOAD PUSH1 0x2 SWAP1 SWAP2 ADD SSTORE JUMPDEST PUSH2 0x8BB CALLER PUSH2 0x1C19 JUMP JUMPDEST ISZERO PUSH2 0x8D8 JUMPI PUSH1 0x40 MLOAD PUSH3 0x461BCD PUSH1 0xE5 SHL DUP2 MSTORE PUSH1 0x4 ADD PUSH2 0x743 SWAP1 PUSH2 0x2340 JUMP JUMPDEST PUSH1 0x0 DUP3 GT PUSH2 0x928 JUMPI PUSH1 0x40 MLOAD PUSH3 0x461BCD PUSH1 0xE5 SHL DUP2 MSTORE PUSH1 0x20 PUSH1 0x4 DUP3 ADD MSTORE PUSH1 0x1C PUSH1 0x24 DUP3 ADD MSTORE PUSH32 0x426F617264726F6F6D3A2043616E6E6F74207769746864726177203000000000 PUSH1 0x44 DUP3 ADD MSTORE PUSH1 0x64 ADD PUSH2 0x743 JUMP JUMPDEST PUSH1 0x6 PUSH1 0x0 SWAP1 SLOAD SWAP1 PUSH2 0x100 EXP SWAP1 DIV PUSH1 0x1 PUSH1 0x1 PUSH1 0xA0 SHL SUB AND PUSH1 0x1 PUSH1 0x1 PUSH1 0xA0 SHL SUB AND PUSH4 0x900CF0CF PUSH1 0x40 MLOAD DUP2 PUSH4 0xFFFFFFFF AND PUSH1 0xE0 SHL DUP2 MSTORE PUSH1 0x4 ADD PUSH1 0x20 PUSH1 0x40 MLOAD DUP1 DUP4 SUB DUP2 DUP7 GAS STATICCALL ISZERO DUP1 ISZERO PUSH2 0x97B JUMPI RETURNDATASIZE PUSH1 0x0 DUP1 RETURNDATACOPY RETURNDATASIZE PUSH1 0x0 REVERT JUMPDEST POP POP POP POP PUSH1 0x40 MLOAD RETURNDATASIZE PUSH1 0x1F NOT PUSH1 0x1F DUP3 ADD AND DUP3 ADD DUP1 PUSH1 0x40 MSTORE POP DUP2 ADD SWAP1 PUSH2 0x99F SWAP2 SWAP1 PUSH2 0x22E1 JUMP JUMPDEST PUSH1 0xA SLOAD CALLER PUSH1 0x0 SWAP1 DUP2 MSTORE PUSH1 0x8 PUSH1 0x20 MSTORE PUSH1 0x40 SWAP1 KECCAK256 PUSH1 0x2 ADD SLOAD PUSH2 0x9BE SWAP2 PUSH2 0x1DD6 JUMP JUMPDEST GT ISZERO PUSH2 0xA18 JUMPI PUSH1 0x40 MLOAD PUSH3 0x461BCD PUSH1 0xE5 SHL DUP2 MSTORE PUSH1 0x20 PUSH1 0x4 DUP3 ADD MSTORE PUSH1 0x23 PUSH1 0x24 DUP3 ADD MSTORE PUSH32 0x426F617264726F6F6D3A207374696C6C20696E207769746864726177206C6F63 PUSH1 0x44 DUP3 ADD MSTORE PUSH3 0x6B757 PUSH1 0xEC SHL PUSH1 0x64 DUP3 ADD MSTORE PUSH1 0x84 ADD PUSH2 0x743 JUMP JUMPDEST PUSH2 0xA20 PUSH2 0x18F8 JUMP JUMPDEST PUSH2 0xA29 DUP3 PUSH2 0x1DE2 JUMP JUMPDEST PUSH1 0x40 MLOAD DUP3 DUP2 MSTORE CALLER SWAP1 PUSH32 0x7084F5476618D8E60B11EF0D7D3F06914655ADB8793E28FF7F018D4C76D505D5 SWAP1 PUSH1 0x20 ADD JUMPDEST PUSH1 0x40 MLOAD DUP1 SWAP2 SUB SWAP1 LOG2 POP POP JUMP JUMPDEST PUSH1 0x4 SLOAD PUSH1 0x1 PUSH1 0x1 PUSH1 0xA0 SHL SUB AND CALLER EQ PUSH2 0xA8D JUMPI PUSH1 0x40 MLOAD PUSH3 0x461BCD PUSH1 0xE5 SHL DUP2 MSTORE PUSH1 0x4 ADD PUSH2 0x743 SWAP1 PUSH2 0x2363 JUMP JUMPDEST DUP1 DUP3 LT ISZERO DUP1 ISZERO PUSH2 0xA9E JUMPI POP PUSH1 0x38 DUP3 GT ISZERO JUMPDEST PUSH2 0xAF6 JUMPI PUSH1 0x40 MLOAD PUSH3 0x461BCD PUSH1 0xE5 SHL DUP2 MSTORE PUSH1 0x20 PUSH1 0x4 DUP3 ADD MSTORE PUSH1 0x23 PUSH1 0x24 DUP3 ADD MSTORE PUSH32 0x5F77697468647261774C6F636B757045706F6368733A206F7574206F66207261 PUSH1 0x44 DUP3 ADD MSTORE PUSH3 0x6E6765 PUSH1 0xE8 SHL PUSH1 0x64 DUP3 ADD MSTORE PUSH1 0x84 ADD PUSH2 0x743 JUMP JUMPDEST PUSH1 0xA SWAP2 SWAP1 SWAP2 SSTORE PUSH1 0xB SSTORE JUMP JUMPDEST PUSH1 0x9 SLOAD PUSH1 0x0 SWAP1 PUSH2 0xB12 SWAP1 PUSH1 0x1 PUSH2 0x1DAB JUMP JUMPDEST SWAP1 POP SWAP1 JUMP JUMPDEST PUSH1 0x0 PUSH2 0xB21 PUSH2 0x1C9E JUMP JUMPDEST PUSH1 0x40 ADD MLOAD SWAP1 POP SWAP1 JUMP JUMPDEST PUSH1 0x6 SLOAD PUSH1 0x40 DUP1 MLOAD PUSH4 0x25CA7A87 PUSH1 0xE1 SHL DUP2 MSTORE SWAP1 MLOAD PUSH1 0x0 SWAP3 PUSH1 0x1 PUSH1 0x1 PUSH1 0xA0 SHL SUB AND SWAP2 PUSH4 0x4B94F50E SWAP2 PUSH1 0x4 DUP1 DUP4 ADD SWAP3 PUSH1 0x20 SWAP3 SWAP2 SWAP1 DUP3 SWAP1 SUB ADD DUP2 DUP7 GAS STATICCALL ISZERO DUP1 ISZERO PUSH2 0xB74 JUMPI RETURNDATASIZE PUSH1 0x0 DUP1 RETURNDATACOPY RETURNDATASIZE PUSH1 0x0 REVERT JUMPDEST POP POP POP POP PUSH1 0x40 MLOAD RETURNDATASIZE PUSH1 0x1F NOT PUSH1 0x1F DUP3 ADD AND DUP3 ADD DUP1 PUSH1 0x40 MSTORE POP DUP2 ADD SWAP1 PUSH2 0xB12 SWAP2 SWAP1 PUSH2 0x22E1 JUMP JUMPDEST PUSH1 0x4 SLOAD PUSH1 0x1 PUSH1 0xA0 SHL SWAP1 DIV PUSH1 0xFF AND ISZERO PUSH2 0xBF2 JUMPI PUSH1 0x40 MLOAD PUSH3 0x461BCD PUSH1 0xE5 SHL DUP2 MSTORE PUSH1 0x20 PUSH1 0x4 DUP3 ADD MSTORE PUSH1 0x1E PUSH1 0x24 DUP3 ADD MSTORE PUSH32 0x426F617264726F6F6D3A20616C726561647920696E697469616C697A65640000 PUSH1 0x44 DUP3 ADD MSTORE PUSH1 0x64 ADD PUSH2 0x743 JUMP JUMPDEST PUSH1 0x5 DUP1 SLOAD PUSH1 0x1 PUSH1 0x1 PUSH1 0xA0 SHL SUB DUP8 DUP2 AND PUSH1 0x1 PUSH1 0x1 PUSH1 0xA0 SHL SUB NOT SWAP3 DUP4 AND OR SWAP1 SWAP3 SSTORE PUSH1 0x0 DUP1 SLOAD DUP8 DUP5 AND SWAP1 DUP4 AND OR DUP2 SSTORE PUSH1 0x6 DUP1 SLOAD DUP8 DUP6 AND SWAP1 DUP5 AND OR DUP2 SSTORE PUSH1 0xC DUP7 SWAP1 SSTORE PUSH1 0xD DUP1 SLOAD SWAP5 DUP7 AND SWAP5 SWAP1 SWAP4 AND SWAP4 SWAP1 SWAP4 OR SWAP1 SWAP2 SSTORE PUSH1 0x40 DUP1 MLOAD PUSH1 0x60 DUP2 ADD DUP3 MSTORE NUMBER DUP1 DUP3 MSTORE PUSH1 0x20 DUP1 DUP4 ADD DUP6 DUP2 MSTORE DUP4 DUP6 ADD DUP7 DUP2 MSTORE PUSH1 0x9 DUP1 SLOAD PUSH1 0x1 DUP2 ADD DUP3 SSTORE SWAP8 MSTORE DUP5 MLOAD PUSH1 0x3 SWAP8 DUP9 MUL PUSH32 0x6E1540171B6C0C960B71A7020D9F60077F6AF931A8BBF590DA0223DACF75C7AF DUP2 ADD SWAP2 SWAP1 SWAP2 SSTORE SWAP2 MLOAD PUSH32 0x6E1540171B6C0C960B71A7020D9F60077F6AF931A8BBF590DA0223DACF75C7B0 DUP4 ADD SSTORE MLOAD PUSH32 0x6E1540171B6C0C960B71A7020D9F60077F6AF931A8BBF590DA0223DACF75C7B1 SWAP1 SWAP2 ADD SSTORE PUSH1 0xA SWAP6 SWAP1 SWAP6 SSTORE PUSH1 0xB SWAP4 SWAP1 SWAP4 SSTORE PUSH1 0x4 DUP1 SLOAD PUSH1 0x1 PUSH1 0x1 PUSH1 0xA8 SHL SUB NOT AND CALLER SWAP1 DUP2 OR PUSH1 0x1 PUSH1 0xA0 SHL OR SWAP1 SWAP2 SSTORE SWAP2 MLOAD SWAP3 DUP4 MSTORE SWAP3 SWAP1 SWAP2 PUSH32 0x25FF68DD81B34665B5BA7E553EE5511BF6812E12ADB4A7E2C0D9E26B3099CE79 SWAP2 ADD PUSH1 0x40 MLOAD DUP1 SWAP2 SUB SWAP1 LOG2 POP POP POP POP POP POP JUMP JUMPDEST PUSH1 0x4 SLOAD PUSH1 0x1 PUSH1 0x1 PUSH1 0xA0 SHL SUB AND CALLER EQ PUSH2 0xD70 JUMPI PUSH1 0x40 MLOAD PUSH3 0x461BCD PUSH1 0xE5 SHL DUP2 MSTORE PUSH1 0x4 ADD PUSH2 0x743 SWAP1 PUSH2 0x2363 JUMP JUMPDEST PUSH2 0xD79 DUP3 PUSH2 0x1C19 JUMP JUMPDEST PUSH2 0xDC5 JUMPI PUSH1 0x40 MLOAD PUSH3 0x461BCD PUSH1 0xE5 SHL DUP2 MSTORE PUSH1 0x20 PUSH1 0x4 DUP3 ADD MSTORE PUSH1 0x1C PUSH1 0x24 DUP3 ADD MSTORE PUSH32 0x61646472657373206E6F7420696E2074686520626C61636B6C69737400000000 PUSH1 0x44 DUP3 ADD MSTORE PUSH1 0x64 ADD PUSH2 0x743 JUMP JUMPDEST PUSH1 0x1 PUSH1 0x1 PUSH1 0xA0 SHL SUB DUP3 AND PUSH1 0x0 SWAP1 DUP2 MSTORE PUSH1 0x2 PUSH1 0x20 MSTORE PUSH1 0x40 SWAP1 KECCAK256 SLOAD DUP1 PUSH2 0xE2B JUMPI PUSH1 0x40 MLOAD PUSH3 0x461BCD PUSH1 0xE5 SHL DUP2 MSTORE PUSH1 0x20 PUSH1 0x4 DUP3 ADD MSTORE PUSH1 0x1C PUSH1 0x24 DUP3 ADD MSTORE PUSH32 0x426F617264726F6F6D3A2043616E6E6F74207769746864726177203000000000 PUSH1 0x44 DUP3 ADD MSTORE PUSH1 0x64 ADD PUSH2 0x743 JUMP JUMPDEST PUSH1 0x1 PUSH1 0x1 PUSH1 0xA0 SHL SUB DUP4 AND PUSH1 0x0 SWAP1 DUP2 MSTORE PUSH1 0x8 PUSH1 0x20 MSTORE PUSH1 0x40 SWAP1 KECCAK256 PUSH1 0x1 ADD SLOAD DUP1 ISZERO PUSH2 0xF4B JUMPI PUSH1 0x6 PUSH1 0x0 SWAP1 SLOAD SWAP1 PUSH2 0x100 EXP SWAP1 DIV PUSH1 0x1 PUSH1 0x1 PUSH1 0xA0 SHL SUB AND PUSH1 0x1 PUSH1 0x1 PUSH1 0xA0 SHL SUB AND PUSH4 0x900CF0CF PUSH1 0x40 MLOAD DUP2 PUSH4 0xFFFFFFFF AND PUSH1 0xE0 SHL DUP2 MSTORE PUSH1 0x4 ADD PUSH1 0x20 PUSH1 0x40 MLOAD DUP1 DUP4 SUB DUP2 DUP7 GAS STATICCALL ISZERO DUP1 ISZERO PUSH2 0xEA0 JUMPI RETURNDATASIZE PUSH1 0x0 DUP1 RETURNDATACOPY RETURNDATASIZE PUSH1 0x0 REVERT JUMPDEST POP POP POP POP PUSH1 0x40 MLOAD RETURNDATASIZE PUSH1 0x1F NOT PUSH1 0x1F DUP3 ADD AND DUP3 ADD DUP1 PUSH1 0x40 MSTORE POP DUP2 ADD SWAP1 PUSH2 0xEC4 SWAP2 SWAP1 PUSH2 0x22E1 JUMP JUMPDEST PUSH1 0x1 PUSH1 0x1 PUSH1 0xA0 SHL SUB DUP1 DUP7 AND PUSH1 0x0 SWAP1 DUP2 MSTORE PUSH1 0x8 PUSH1 0x20 MSTORE PUSH1 0x40 DUP2 KECCAK256 PUSH1 0x2 DUP2 ADD SWAP4 SWAP1 SWAP4 SSTORE PUSH1 0x1 SWAP1 SWAP3 ADD SWAP2 SWAP1 SWAP2 SSTORE PUSH1 0x5 SLOAD PUSH2 0xEFD SWAP2 AND DUP5 DUP4 PUSH2 0x1EA2 JUMP JUMPDEST DUP3 PUSH1 0x1 PUSH1 0x1 PUSH1 0xA0 SHL SUB AND DUP5 PUSH1 0x1 PUSH1 0x1 PUSH1 0xA0 SHL SUB AND PUSH32 0x715576A45BD0EA6CA90A2F53C258FE52BDD30E6061046CE86CA3FA7E9F5A91BE DUP4 PUSH1 0x40 MLOAD PUSH2 0xF42 SWAP2 DUP2 MSTORE PUSH1 0x20 ADD SWAP1 JUMP JUMPDEST PUSH1 0x40 MLOAD DUP1 SWAP2 SUB SWAP1 LOG3 JUMPDEST PUSH1 0x1 SLOAD PUSH2 0xF58 SWAP1 DUP4 PUSH2 0x1DAB JUMP JUMPDEST PUSH1 0x1 SSTORE PUSH1 0x1 PUSH1 0x1 PUSH1 0xA0 SHL SUB DUP1 DUP6 AND PUSH1 0x0 SWAP1 DUP2 MSTORE PUSH1 0x2 PUSH1 0x20 MSTORE PUSH1 0x40 DUP2 KECCAK256 DUP2 SWAP1 SSTORE SLOAD PUSH2 0xF84 SWAP2 AND DUP5 DUP5 PUSH2 0x1EA2 JUMP JUMPDEST DUP3 PUSH1 0x1 PUSH1 0x1 PUSH1 0xA0 SHL SUB AND DUP5 PUSH1 0x1 PUSH1 0x1 PUSH1 0xA0 SHL SUB AND PUSH32 0x345A298B5B7318863D2A616F67AE5329DEB5255F9F90B5EBC73EE5DDCD81B180 DUP5 PUSH1 0x40 MLOAD PUSH2 0xFC9 SWAP2 DUP2 MSTORE PUSH1 0x20 ADD SWAP1 JUMP JUMPDEST PUSH1 0x40 MLOAD DUP1 SWAP2 SUB SWAP1 LOG3 POP POP POP POP JUMP JUMPDEST PUSH1 0x4 SLOAD PUSH1 0x1 PUSH1 0x1 PUSH1 0xA0 SHL SUB AND CALLER EQ PUSH2 0x1001 JUMPI PUSH1 0x40 MLOAD PUSH3 0x461BCD PUSH1 0xE5 SHL DUP2 MSTORE PUSH1 0x4 ADD PUSH2 0x743 SWAP1 PUSH2 0x2363 JUMP JUMPDEST PUSH1 0x1 PUSH1 0x1 PUSH1 0xA0 SHL SUB DUP2 AND PUSH2 0x1040 JUMPI PUSH1 0x40 MLOAD PUSH3 0x461BCD PUSH1 0xE5 SHL DUP2 MSTORE PUSH1 0x4 ADD PUSH2 0x743 SWAP1 PUSH1 0x20 DUP1 DUP3 MSTORE PUSH1 0x4 SWAP1 DUP3 ADD MSTORE PUSH4 0x7A65726F PUSH1 0xE0 SHL PUSH1 0x40 DUP3 ADD MSTORE PUSH1 0x60 ADD SWAP1 JUMP JUMPDEST PUSH1 0x5 SLOAD PUSH1 0x1 PUSH1 0x1 PUSH1 0xA0 SHL SUB SWAP1 DUP2 AND SWAP1 DUP5 AND SUB PUSH2 0x1086 JUMPI PUSH1 0x40 MLOAD PUSH3 0x461BCD PUSH1 0xE5 SHL DUP2 MSTORE PUSH1 0x20 PUSH1 0x4 DUP3 ADD MSTORE PUSH1 0x5 PUSH1 0x24 DUP3 ADD MSTORE PUSH5 0x3A37B5B2B7 PUSH1 0xD9 SHL PUSH1 0x44 DUP3 ADD MSTORE PUSH1 0x64 ADD PUSH2 0x743 JUMP JUMPDEST PUSH1 0x0 SLOAD PUSH1 0x1 PUSH1 0x1 PUSH1 0xA0 SHL SUB SWAP1 DUP2 AND SWAP1 DUP5 AND SUB PUSH2 0x10CC JUMPI PUSH1 0x40 MLOAD PUSH3 0x461BCD PUSH1 0xE5 SHL DUP2 MSTORE PUSH1 0x20 PUSH1 0x4 DUP3 ADD MSTORE PUSH1 0x5 PUSH1 0x24 DUP3 ADD MSTORE PUSH5 0x7368617265 PUSH1 0xD8 SHL PUSH1 0x44 DUP3 ADD MSTORE PUSH1 0x64 ADD PUSH2 0x743 JUMP JUMPDEST PUSH2 0x10E0 PUSH1 0x1 PUSH1 0x1 PUSH1 0xA0 SHL SUB DUP5 AND DUP3 DUP5 PUSH2 0x1EA2 JUMP JUMPDEST POP POP POP JUMP JUMPDEST PUSH1 0x4 SLOAD PUSH1 0x0 SWAP1 PUSH1 0x1 PUSH1 0x1 PUSH1 0xA0 SHL SUB AND CALLER EQ PUSH2 0x1112 JUMPI PUSH1 0x40 MLOAD PUSH3 0x461BCD PUSH1 0xE5 SHL DUP2 MSTORE PUSH1 0x4 ADD PUSH2 0x743 SWAP1 PUSH2 0x2363 JUMP JUMPDEST PUSH1 0x1 PUSH1 0x1 PUSH1 0xA0 SHL SUB DUP3 AND PUSH1 0x0 SWAP1 DUP2 MSTORE PUSH1 0x7 PUSH1 0x20 MSTORE PUSH1 0x40 SWAP1 KECCAK256 SLOAD PUSH1 0xFF AND ISZERO PUSH2 0x1173 JUMPI PUSH1 0x40 MLOAD PUSH3 0x461BCD PUSH1 0xE5 SHL DUP2 MSTORE PUSH1 0x20 PUSH1 0x4 DUP3 ADD MSTORE PUSH1 0x15 PUSH1 0x24 DUP3 ADD MSTORE PUSH21 0x1859191C995CDCC8185B1C9958591E481859191959 PUSH1 0x5A SHL PUSH1 0x44 DUP3 ADD MSTORE PUSH1 0x64 ADD PUSH2 0x743 JUMP JUMPDEST POP PUSH1 0x1 PUSH1 0x1 PUSH1 0xA0 SHL SUB AND PUSH1 0x0 SWAP1 DUP2 MSTORE PUSH1 0x7 PUSH1 0x20 MSTORE PUSH1 0x40 SWAP1 KECCAK256 DUP1 SLOAD PUSH1 0xFF NOT AND PUSH1 0x1 SWAP1 DUP2 OR SWAP1 SWAP2 SSTORE SWAP1 JUMP JUMPDEST PUSH1 0x4 SLOAD PUSH1 0x1 PUSH1 0x1 PUSH1 0xA0 SHL SUB AND CALLER EQ PUSH2 0x11C6 JUMPI PUSH1 0x40 MLOAD PUSH3 0x461BCD PUSH1 0xE5 SHL DUP2 MSTORE PUSH1 0x4 ADD PUSH2 0x743 SWAP1 PUSH2 0x2363 JUMP JUMPDEST PUSH2 0x2710 DUP2 GT ISZERO PUSH2 0x1207 JUMPI PUSH1 0x40 MLOAD PUSH3 0x461BCD PUSH1 0xE5 SHL DUP2 MSTORE PUSH1 0x20 PUSH1 0x4 DUP3 ADD MSTORE PUSH1 0xC PUSH1 0x24 DUP3 ADD MSTORE PUSH12 0x6F7574206F662072616E6765 PUSH1 0xA0 SHL PUSH1 0x44 DUP3 ADD MSTORE PUSH1 0x64 ADD PUSH2 0x743 JUMP JUMPDEST PUSH1 0xC SSTORE JUMP JUMPDEST PUSH1 0x4 SLOAD PUSH1 0x0 SWAP1 PUSH1 0x1 PUSH1 0x1 PUSH1 0xA0 SHL SUB AND CALLER EQ PUSH2 0x1239 JUMPI PUSH1 0x40 MLOAD PUSH3 0x461BCD PUSH1 0xE5 SHL DUP2 MSTORE PUSH1 0x4 ADD PUSH2 0x743 SWAP1 PUSH2 0x2363 JUMP JUMPDEST PUSH1 0x1 PUSH1 0x1 PUSH1 0xA0 SHL SUB DUP3 AND PUSH1 0x0 SWAP1 DUP2 MSTORE PUSH1 0x7 PUSH1 0x20 MSTORE PUSH1 0x40 SWAP1 KECCAK256 SLOAD PUSH1 0xFF AND PUSH2 0x1297 JUMPI PUSH1 0x40 MLOAD PUSH3 0x461BCD PUSH1 0xE5 SHL DUP2 MSTORE PUSH1 0x20 PUSH1 0x4 DUP3 ADD MSTORE PUSH1 0x13 PUSH1 0x24 DUP3 ADD MSTORE PUSH19 0x1859191C995CDCC81B9BDD08195E1A5CDD1959 PUSH1 0x6A SHL PUSH1 0x44 DUP3 ADD MSTORE PUSH1 0x64 ADD PUSH2 0x743 JUMP JUMPDEST POP PUSH1 0x1 PUSH1 0x1 PUSH1 0xA0 SHL SUB AND PUSH1 0x0 SWAP1 DUP2 MSTORE PUSH1 0x7 PUSH1 0x20 MSTORE PUSH1 0x40 SWAP1 KECCAK256 DUP1 SLOAD PUSH1 0xFF NOT AND SWAP1 SSTORE PUSH1 0x1 SWAP1 JUMP JUMPDEST PUSH1 0x6 SLOAD PUSH1 0x40 DUP1 MLOAD PUSH4 0x900CF0CF PUSH1 0xE0 SHL DUP2 MSTORE SWAP1 MLOAD PUSH1 0x0 SWAP3 PUSH1 0x1 PUSH1 0x1 PUSH1 0xA0 SHL SUB AND SWAP2 PUSH4 0x900CF0CF SWAP2 PUSH1 0x4 DUP1 DUP4 ADD SWAP3 PUSH1 0x20 SWAP3 SWAP2 SWAP1 DUP3 SWAP1 SUB ADD DUP2 DUP7 GAS STATICCALL ISZERO DUP1 ISZERO PUSH2 0xB74 JUMPI RETURNDATASIZE PUSH1 0x0 DUP1 RETURNDATACOPY RETURNDATASIZE PUSH1 0x0 REVERT JUMPDEST NUMBER PUSH1 0x0 SWAP1 DUP2 MSTORE PUSH1 0x3 PUSH1 0x20 SWAP1 DUP2 MSTORE PUSH1 0x40 DUP1 DUP4 KECCAK256 ORIGIN DUP5 MSTORE SWAP1 SWAP2 MSTORE SWAP1 KECCAK256 SLOAD PUSH1 0xFF AND ISZERO PUSH2 0x1341 JUMPI PUSH1 0x40 MLOAD PUSH3 0x461BCD PUSH1 0xE5 SHL DUP2 MSTORE PUSH1 0x4 ADD PUSH2 0x743 SWAP1 PUSH2 0x22FA JUMP JUMPDEST NUMBER PUSH1 0x0 SWAP1 DUP2 MSTORE PUSH1 0x3 PUSH1 0x20 SWAP1 DUP2 MSTORE PUSH1 0x40 DUP1 DUP4 KECCAK256 CALLER DUP5 MSTORE SWAP1 SWAP2 MSTORE SWAP1 KECCAK256 SLOAD PUSH1 0xFF AND ISZERO PUSH2 0x137C JUMPI PUSH1 0x40 MLOAD PUSH3 0x461BCD PUSH1 0xE5 SHL DUP2 MSTORE PUSH1 0x4 ADD PUSH2 0x743 SWAP1 PUSH2 0x22FA JUMP JUMPDEST NUMBER PUSH1 0x0 SWAP1 DUP2 MSTORE PUSH1 0x3 PUSH1 0x20 SWAP1 DUP2 MSTORE PUSH1 0x40 DUP1 DUP4 KECCAK256 ORIGIN DUP5 MSTORE SWAP1 SWAP2 MSTORE DUP1 DUP3 KECCAK256 DUP1 SLOAD PUSH1 0x1 PUSH1 0xFF NOT SWAP2 DUP3 AND DUP2 OR SWAP1 SWAP3 SSTORE CALLER DUP1 DUP6 MSTORE SWAP3 SWAP1 SWAP4 KECCAK256 DUP1 SLOAD SWAP1 SWAP4 AND OR SWAP1 SWAP2 SSTORE PUSH1 0x4 SLOAD PUSH1 0x1 PUSH1 0x1 PUSH1 0xA0 SHL SUB AND EQ PUSH2 0x13E0 JUMPI PUSH1 0x40 MLOAD PUSH3 0x461BCD PUSH1 0xE5 SHL DUP2 MSTORE PUSH1 0x4 ADD PUSH2 0x743 SWAP1 PUSH2 0x2363 JUMP JUMPDEST PUSH1 0x0 DUP2 GT PUSH2 0x1430 JUMPI PUSH1 0x40 MLOAD PUSH3 0x461BCD PUSH1 0xE5 SHL DUP2 MSTORE PUSH1 0x20 PUSH1 0x4 DUP3 ADD MSTORE PUSH1 0x1C PUSH1 0x24 DUP3 ADD MSTORE PUSH32 0x426F617264726F6F6D3A2043616E6E6F7420616C6C6F63617465203000000000 PUSH1 0x44 DUP3 ADD MSTORE PUSH1 0x64 ADD PUSH2 0x743 JUMP JUMPDEST PUSH1 0x0 PUSH2 0x143B PUSH1 0x1 SLOAD SWAP1 JUMP JUMPDEST GT PUSH2 0x14A1 JUMPI PUSH1 0x40 MLOAD PUSH3 0x461BCD PUSH1 0xE5 SHL DUP2 MSTORE PUSH1 0x20 PUSH1 0x4 DUP3 ADD MSTORE PUSH1 0x30 PUSH1 0x24 DUP3 ADD MSTORE PUSH32 0x426F617264726F6F6D3A2043616E6E6F7420616C6C6F63617465207768656E20 PUSH1 0x44 DUP3 ADD MSTORE PUSH16 0x746F74616C537570706C79206973203 PUSH1 0x84 SHL PUSH1 0x64 DUP3 ADD MSTORE PUSH1 0x84 ADD PUSH2 0x743 JUMP JUMPDEST PUSH1 0x0 PUSH2 0x14AB PUSH2 0x1C9E JUMP JUMPDEST PUSH1 0x40 ADD MLOAD SWAP1 POP PUSH1 0x0 PUSH2 0x14DB PUSH2 0x14D4 PUSH2 0x14C2 PUSH1 0x1 SLOAD SWAP1 JUMP JUMPDEST PUSH2 0x5C0 DUP7 PUSH8 0xDE0B6B3A7640000 PUSH2 0x1DBE JUMP JUMPDEST DUP4 SWAP1 PUSH2 0x1DD6 JUMP JUMPDEST PUSH1 0x40 DUP1 MLOAD PUSH1 0x60 DUP2 ADD DUP3 MSTORE NUMBER DUP2 MSTORE PUSH1 0x20 DUP2 ADD DUP7 DUP2 MSTORE SWAP2 DUP2 ADD DUP4 DUP2 MSTORE PUSH1 0x9 DUP1 SLOAD PUSH1 0x1 DUP2 ADD DUP3 SSTORE PUSH1 0x0 SWAP2 SWAP1 SWAP2 MSTORE DUP3 MLOAD PUSH32 0x6E1540171B6C0C960B71A7020D9F60077F6AF931A8BBF590DA0223DACF75C7AF PUSH1 0x3 SWAP1 SWAP3 MUL SWAP2 DUP3 ADD SSTORE SWAP3 MLOAD PUSH32 0x6E1540171B6C0C960B71A7020D9F60077F6AF931A8BBF590DA0223DACF75C7B0 DUP5 ADD SSTORE MLOAD PUSH32 0x6E1540171B6C0C960B71A7020D9F60077F6AF931A8BBF590DA0223DACF75C7B1 SWAP1 SWAP3 ADD SWAP2 SWAP1 SWAP2 SSTORE PUSH1 0x5 SLOAD SWAP2 SWAP3 POP SWAP1 PUSH2 0x159C SWAP1 PUSH1 0x1 PUSH1 0x1 PUSH1 0xA0 SHL SUB AND CALLER ADDRESS DUP8 PUSH2 0x1F05 JUMP JUMPDEST PUSH1 0x40 MLOAD DUP5 DUP2 MSTORE CALLER SWAP1 PUSH32 0xAC24935FD910BC682B5CCB1A07B718CADF8CF2F6D1404C4F3DDC3662DAE40E29 SWAP1 PUSH1 0x20 ADD PUSH1 0x40 MLOAD DUP1 SWAP2 SUB SWAP1 LOG2 POP POP POP POP JUMP JUMPDEST NUMBER PUSH1 0x0 SWAP1 DUP2 MSTORE PUSH1 0x3 PUSH1 0x20 SWAP1 DUP2 MSTORE PUSH1 0x40 DUP1 DUP4 KECCAK256 ORIGIN DUP5 MSTORE SWAP1 SWAP2 MSTORE SWAP1 KECCAK256 SLOAD PUSH1 0xFF AND ISZERO PUSH2 0x1612 JUMPI PUSH1 0x40 MLOAD PUSH3 0x461BCD PUSH1 0xE5 SHL DUP2 MSTORE PUSH1 0x4 ADD PUSH2 0x743 SWAP1 PUSH2 0x22FA JUMP JUMPDEST NUMBER PUSH1 0x0 SWAP1 DUP2 MSTORE PUSH1 0x3 PUSH1 0x20 SWAP1 DUP2 MSTORE PUSH1 0x40 DUP1 DUP4 KECCAK256 CALLER DUP5 MSTORE SWAP1 SWAP2 MSTORE SWAP1 KECCAK256 SLOAD PUSH1 0xFF AND ISZERO PUSH2 0x164D JUMPI PUSH1 0x40 MLOAD PUSH3 0x461BCD PUSH1 0xE5 SHL DUP2 MSTORE PUSH1 0x4 ADD PUSH2 0x743 SWAP1 PUSH2 0x22FA JUMP JUMPDEST NUMBER PUSH1 0x0 SWAP1 DUP2 MSTORE PUSH1 0x3 PUSH1 0x20 SWAP1 DUP2 MSTORE PUSH1 0x40 DUP1 DUP4 KECCAK256 ORIGIN DUP5 MSTORE SWAP1 SWAP2 MSTORE DUP1 DUP3 KECCAK256 DUP1 SLOAD PUSH1 0x1 PUSH1 0xFF NOT SWAP2 DUP3 AND DUP2 OR SWAP1 SWAP3 SSTORE CALLER DUP1 DUP6 MSTORE SWAP3 SWAP1 SWAP4 KECCAK256 DUP1 SLOAD SWAP1 SWAP4 AND OR SWAP1 SWAP2 SSTORE DUP1 ISZERO PUSH2 0x1718 JUMPI PUSH1 0x1 PUSH1 0x1 PUSH1 0xA0 SHL SUB DUP2 AND PUSH1 0x0 SWAP1 DUP2 MSTORE PUSH1 0x8 PUSH1 0x20 SWAP1 DUP2 MSTORE PUSH1 0x40 SWAP2 DUP3 SWAP1 KECCAK256 DUP3 MLOAD PUSH1 0x60 DUP2 ADD DUP5 MSTORE DUP2 SLOAD DUP2 MSTORE PUSH1 0x1 DUP3 ADD SLOAD SWAP3 DUP2 ADD SWAP3 SWAP1 SWAP3 MSTORE PUSH1 0x2 ADD SLOAD SWAP2 DUP2 ADD SWAP2 SWAP1 SWAP2 MSTORE PUSH2 0x16D6 DUP3 PUSH2 0x543 JUMP JUMPDEST PUSH1 0x20 DUP3 ADD MSTORE PUSH2 0x16E3 PUSH2 0xB01 JUMP JUMPDEST DUP2 MSTORE PUSH1 0x1 PUSH1 0x1 PUSH1 0xA0 SHL SUB DUP3 AND PUSH1 0x0 SWAP1 DUP2 MSTORE PUSH1 0x8 PUSH1 0x20 SWAP1 DUP2 MSTORE PUSH1 0x40 SWAP2 DUP3 SWAP1 KECCAK256 DUP4 MLOAD DUP2 SSTORE SWAP1 DUP4 ADD MLOAD PUSH1 0x1 DUP3 ADD SSTORE SWAP2 ADD MLOAD PUSH1 0x2 SWAP1 SWAP2 ADD SSTORE JUMPDEST PUSH2 0x1721 CALLER PUSH2 0x1C19 JUMP JUMPDEST ISZERO PUSH2 0x173E JUMPI PUSH1 0x40 MLOAD PUSH3 0x461BCD PUSH1 0xE5 SHL DUP2 MSTORE PUSH1 0x4 ADD PUSH2 0x743 SWAP1 PUSH2 0x2340 JUMP JUMPDEST PUSH1 0x0 DUP3 GT PUSH2 0x178E JUMPI PUSH1 0x40 MLOAD PUSH3 0x461BCD PUSH1 0xE5 SHL DUP2 MSTORE PUSH1 0x20 PUSH1 0x4 DUP3 ADD MSTORE PUSH1 0x19 PUSH1 0x24 DUP3 ADD MSTORE PUSH32 0x426F617264726F6F6D3A2043616E6E6F74207374616B65203000000000000000 PUSH1 0x44 DUP3 ADD MSTORE PUSH1 0x64 ADD PUSH2 0x743 JUMP JUMPDEST PUSH1 0xC SLOAD ISZERO PUSH2 0x17E3 JUMPI PUSH1 0x0 PUSH2 0x17B3 PUSH2 0x2710 PUSH2 0x5C0 PUSH1 0xC SLOAD DUP7 PUSH2 0x1DBE SWAP1 SWAP2 SWAP1 PUSH4 0xFFFFFFFF AND JUMP JUMPDEST SWAP1 POP PUSH2 0x17BF DUP4 DUP3 PUSH2 0x1DAB JUMP JUMPDEST PUSH1 0xD SLOAD PUSH1 0x0 SLOAD SWAP2 SWAP5 POP PUSH2 0x17E1 SWAP2 PUSH1 0x1 PUSH1 0x1 PUSH1 0xA0 SHL SUB SWAP1 DUP2 AND SWAP2 CALLER SWAP2 AND DUP5 PUSH2 0x1F05 JUMP JUMPDEST POP JUMPDEST PUSH2 0x17EC DUP3 PUSH2 0x1F43 JUMP JUMPDEST PUSH1 0x6 PUSH1 0x0 SWAP1 SLOAD SWAP1 PUSH2 0x100 EXP SWAP1 DIV PUSH1 0x1 PUSH1 0x1 PUSH1 0xA0 SHL SUB AND PUSH1 0x1 PUSH1 0x1 PUSH1 0xA0 SHL SUB AND PUSH4 0x900CF0CF PUSH1 0x40 MLOAD DUP2 PUSH4 0xFFFFFFFF AND PUSH1 0xE0 SHL DUP2 MSTORE PUSH1 0x4 ADD PUSH1 0x20 PUSH1 0x40 MLOAD DUP1 DUP4 SUB DUP2 DUP7 GAS STATICCALL ISZERO DUP1 ISZERO PUSH2 0x183F JUMPI RETURNDATASIZE PUSH1 0x0 DUP1 RETURNDATACOPY RETURNDATASIZE PUSH1 0x0 REVERT JUMPDEST POP POP POP POP PUSH1 0x40 MLOAD RETURNDATASIZE PUSH1 0x1F NOT PUSH1 0x1F DUP3 ADD AND DUP3 ADD DUP1 PUSH1 0x40 MSTORE POP DUP2 ADD SWAP1 PUSH2 0x1863 SWAP2 SWAP1 PUSH2 0x22E1 JUMP JUMPDEST CALLER PUSH1 0x0 DUP2 DUP2 MSTORE PUSH1 0x8 PUSH1 0x20 MSTORE PUSH1 0x40 SWAP1 DUP2 SWAP1 KECCAK256 PUSH1 0x2 ADD SWAP3 SWAP1 SWAP3 SSTORE SWAP1 MLOAD PUSH32 0x9E71BC8EEA02A63969F509818F2DAFB9254532904319F9DBDA79B67BD34A5F3D SWAP1 PUSH2 0xA57 SWAP1 DUP6 DUP2 MSTORE PUSH1 0x20 ADD SWAP1 JUMP JUMPDEST PUSH1 0x4 SLOAD PUSH1 0x1 PUSH1 0x1 PUSH1 0xA0 SHL SUB AND CALLER EQ PUSH2 0x18D6 JUMPI PUSH1 0x40 MLOAD PUSH3 0x461BCD PUSH1 0xE5 SHL DUP2 MSTORE PUSH1 0x4 ADD PUSH2 0x743 SWAP1 PUSH2 0x2363 JUMP JUMPDEST PUSH1 0x4 DUP1 SLOAD PUSH1 0x1 PUSH1 0x1 PUSH1 0xA0 SHL SUB NOT AND PUSH1 0x1 PUSH1 0x1 PUSH1 0xA0 SHL SUB SWAP3 SWAP1 SWAP3 AND SWAP2 SWAP1 SWAP2 OR SWAP1 SSTORE JUMP JUMPDEST CALLER DUP1 ISZERO PUSH2 0x1989 JUMPI PUSH1 0x1 PUSH1 0x1 PUSH1 0xA0 SHL SUB DUP2 AND PUSH1 0x0 SWAP1 DUP2 MSTORE PUSH1 0x8 PUSH1 0x20 SWAP1 DUP2 MSTORE PUSH1 0x40 SWAP2 DUP3 SWAP1 KECCAK256 DUP3 MLOAD PUSH1 0x60 DUP2 ADD DUP5 MSTORE DUP2 SLOAD DUP2 MSTORE PUSH1 0x1 DUP3 ADD SLOAD SWAP3 DUP2 ADD SWAP3 SWAP1 SWAP3 MSTORE PUSH1 0x2 ADD SLOAD SWAP2 DUP2 ADD SWAP2 SWAP1 SWAP2 MSTORE PUSH2 0x1947 DUP3 PUSH2 0x543 JUMP JUMPDEST PUSH1 0x20 DUP3 ADD MSTORE PUSH2 0x1954 PUSH2 0xB01 JUMP JUMPDEST DUP2 MSTORE PUSH1 0x1 PUSH1 0x1 PUSH1 0xA0 SHL SUB DUP3 AND PUSH1 0x0 SWAP1 DUP2 MSTORE PUSH1 0x8 PUSH1 0x20 SWAP1 DUP2 MSTORE PUSH1 0x40 SWAP2 DUP3 SWAP1 KECCAK256 DUP4 MLOAD DUP2 SSTORE SWAP1 DUP4 ADD MLOAD PUSH1 0x1 DUP3 ADD SSTORE SWAP2 ADD MLOAD PUSH1 0x2 SWAP1 SWAP2 ADD SSTORE JUMPDEST PUSH2 0x1992 CALLER PUSH2 0x1C19 JUMP JUMPDEST ISZERO PUSH2 0x19AF JUMPI PUSH1 0x40 MLOAD PUSH3 0x461BCD PUSH1 0xE5 SHL DUP2 MSTORE PUSH1 0x4 ADD PUSH2 0x743 SWAP1 PUSH2 0x2340 JUMP JUMPDEST CALLER PUSH1 0x0 SWAP1 DUP2 MSTORE PUSH1 0x8 PUSH1 0x20 MSTORE PUSH1 0x40 SWAP1 KECCAK256 PUSH1 0x1 ADD SLOAD DUP1 ISZERO PUSH2 0x1B98 JUMPI PUSH1 0x6 PUSH1 0x0 SWAP1 SLOAD SWAP1 PUSH2 0x100 EXP SWAP1 DIV PUSH1 0x1 PUSH1 0x1 PUSH1 0xA0 SHL SUB AND PUSH1 0x1 PUSH1 0x1 PUSH1 0xA0 SHL SUB AND PUSH4 0x900CF0CF PUSH1 0x40 MLOAD DUP2 PUSH4 0xFFFFFFFF AND PUSH1 0xE0 SHL DUP2 MSTORE PUSH1 0x4 ADD PUSH1 0x20 PUSH1 0x40 MLOAD DUP1 DUP4 SUB DUP2 DUP7 GAS STATICCALL ISZERO DUP1 ISZERO PUSH2 0x1A1B JUMPI RETURNDATASIZE PUSH1 0x0 DUP1 RETURNDATACOPY RETURNDATASIZE PUSH1 0x0 REVERT JUMPDEST POP POP POP POP PUSH1 0x40 MLOAD RETURNDATASIZE PUSH1 0x1F NOT PUSH1 0x1F DUP3 ADD AND DUP3 ADD DUP1 PUSH1 0x40 MSTORE POP DUP2 ADD SWAP1 PUSH2 0x1A3F SWAP2 SWAP1 PUSH2 0x22E1 JUMP JUMPDEST PUSH1 0xB SLOAD CALLER PUSH1 0x0 SWAP1 DUP2 MSTORE PUSH1 0x8 PUSH1 0x20 MSTORE PUSH1 0x40 SWAP1 KECCAK256 PUSH1 0x2 ADD SLOAD PUSH2 0x1A5E SWAP2 PUSH2 0x1DD6 JUMP JUMPDEST GT ISZERO PUSH2 0x1AB6 JUMPI PUSH1 0x40 MLOAD PUSH3 0x461BCD PUSH1 0xE5 SHL DUP2 MSTORE PUSH1 0x20 PUSH1 0x4 DUP3 ADD MSTORE PUSH1 0x21 PUSH1 0x24 DUP3 ADD MSTORE PUSH32 0x426F617264726F6F6D3A207374696C6C20696E20726577617264206C6F636B75 PUSH1 0x44 DUP3 ADD MSTORE PUSH1 0x7 PUSH1 0xFC SHL PUSH1 0x64 DUP3 ADD MSTORE PUSH1 0x84 ADD PUSH2 0x743 JUMP JUMPDEST PUSH1 0x6 PUSH1 0x0 SWAP1 SLOAD SWAP1 PUSH2 0x100 EXP SWAP1 DIV PUSH1 0x1 PUSH1 0x1 PUSH1 0xA0 SHL SUB AND PUSH1 0x1 PUSH1 0x1 PUSH1 0xA0 SHL SUB AND PUSH4 0x900CF0CF PUSH1 0x40 MLOAD DUP2 PUSH4 0xFFFFFFFF AND PUSH1 0xE0 SHL DUP2 MSTORE PUSH1 0x4 ADD PUSH1 0x20 PUSH1 0x40 MLOAD DUP1 DUP4 SUB DUP2 DUP7 GAS STATICCALL ISZERO DUP1 ISZERO PUSH2 0x1B09 JUMPI RETURNDATASIZE PUSH1 0x0 DUP1 RETURNDATACOPY RETURNDATASIZE PUSH1 0x0 REVERT JUMPDEST POP POP POP POP PUSH1 0x40 MLOAD RETURNDATASIZE PUSH1 0x1F NOT PUSH1 0x1F DUP3 ADD AND DUP3 ADD DUP1 PUSH1 0x40 MSTORE POP DUP2 ADD SWAP1 PUSH2 0x1B2D SWAP2 SWAP1 PUSH2 0x22E1 JUMP JUMPDEST CALLER PUSH1 0x0 DUP2 DUP2 MSTORE PUSH1 0x8 PUSH1 0x20 MSTORE PUSH1 0x40 DUP2 KECCAK256 PUSH1 0x2 DUP2 ADD SWAP4 SWAP1 SWAP4 SSTORE PUSH1 0x1 SWAP1 SWAP3 ADD SWAP2 SWAP1 SWAP2 SSTORE PUSH1 0x5 SLOAD PUSH2 0x1B66 SWAP2 PUSH1 0x1 PUSH1 0x1 PUSH1 0xA0 SHL SUB SWAP1 SWAP2 AND SWAP1 DUP4 PUSH2 0x1EA2 JUMP JUMPDEST PUSH1 0x40 MLOAD DUP2 DUP2 MSTORE CALLER SWAP1 PUSH32 0xE2403640BA68FED3A2F88B7557551D1993F84B99BB10FF833F0CF8DB0C5E0486 SWAP1 PUSH1 0x20 ADD PUSH2 0xA57 JUMP JUMPDEST POP POP JUMP JUMPDEST PUSH1 0x9 DUP2 DUP2 SLOAD DUP2 LT PUSH2 0x1BAC JUMPI PUSH1 0x0 DUP1 REVERT JUMPDEST PUSH1 0x0 SWAP2 DUP3 MSTORE PUSH1 0x20 SWAP1 SWAP2 KECCAK256 PUSH1 0x3 SWAP1 SWAP2 MUL ADD DUP1 SLOAD PUSH1 0x1 DUP3 ADD SLOAD PUSH1 0x2 SWAP1 SWAP3 ADD SLOAD SWAP1 SWAP3 POP DUP4 JUMP JUMPDEST PUSH1 0x6 SLOAD PUSH1 0x40 DUP1 MLOAD PUSH4 0x62CB3E13 PUSH1 0xE1 SHL DUP2 MSTORE SWAP1 MLOAD PUSH1 0x0 SWAP3 PUSH1 0x1 PUSH1 0x1 PUSH1 0xA0 SHL SUB AND SWAP2 PUSH4 0xC5967C26 SWAP2 PUSH1 0x4 DUP1 DUP4 ADD SWAP3 PUSH1 0x20 SWAP3 SWAP2 SWAP1 DUP3 SWAP1 SUB ADD DUP2 DUP7 GAS STATICCALL ISZERO DUP1 ISZERO PUSH2 0xB74 JUMPI RETURNDATASIZE PUSH1 0x0 DUP1 RETURNDATACOPY RETURNDATASIZE PUSH1 0x0 REVERT JUMPDEST PUSH1 0x1 PUSH1 0x1 PUSH1 0xA0 SHL SUB AND PUSH1 0x0 SWAP1 DUP2 MSTORE PUSH1 0x7 PUSH1 0x20 MSTORE PUSH1 0x40 SWAP1 KECCAK256 SLOAD PUSH1 0xFF AND SWAP1 JUMP JUMPDEST CALLER PUSH1 0x0 SWAP1 DUP2 MSTORE PUSH1 0x2 PUSH1 0x20 MSTORE PUSH1 0x40 SWAP1 KECCAK256 SLOAD PUSH2 0x1C50 SWAP1 PUSH2 0x708 JUMP JUMPDEST JUMP JUMPDEST PUSH1 0x4 SLOAD PUSH1 0x1 PUSH1 0x1 PUSH1 0xA0 SHL SUB AND CALLER EQ PUSH2 0x1C7C JUMPI PUSH1 0x40 MLOAD PUSH3 0x461BCD PUSH1 0xE5 SHL DUP2 MSTORE PUSH1 0x4 ADD PUSH2 0x743 SWAP1 PUSH2 0x2363 JUMP JUMPDEST PUSH1 0xD DUP1 SLOAD PUSH1 0x1 PUSH1 0x1 PUSH1 0xA0 SHL SUB NOT AND PUSH1 0x1 PUSH1 0x1 PUSH1 0xA0 SHL SUB SWAP3 SWAP1 SWAP3 AND SWAP2 SWAP1 SWAP2 OR SWAP1 SSTORE JUMP JUMPDEST PUSH2 0x1CC2 PUSH1 0x40 MLOAD DUP1 PUSH1 0x60 ADD PUSH1 0x40 MSTORE DUP1 PUSH1 0x0 DUP2 MSTORE PUSH1 0x20 ADD PUSH1 0x0 DUP2 MSTORE PUSH1 0x20 ADD PUSH1 0x0 DUP2 MSTORE POP SWAP1 JUMP JUMPDEST PUSH1 0x9 PUSH2 0x1CCC PUSH2 0xB01 JUMP JUMPDEST DUP2 SLOAD DUP2 LT PUSH2 0x1CDC JUMPI PUSH2 0x1CDC PUSH2 0x23A8 JUMP JUMPDEST SWAP1 PUSH1 0x0 MSTORE PUSH1 0x20 PUSH1 0x0 KECCAK256 SWAP1 PUSH1 0x3 MUL ADD PUSH1 0x40 MLOAD DUP1 PUSH1 0x60 ADD PUSH1 0x40 MSTORE SWAP1 DUP2 PUSH1 0x0 DUP3 ADD SLOAD DUP2 MSTORE PUSH1 0x20 ADD PUSH1 0x1 DUP3 ADD SLOAD DUP2 MSTORE PUSH1 0x20 ADD PUSH1 0x2 DUP3 ADD SLOAD DUP2 MSTORE POP POP SWAP1 POP SWAP1 JUMP JUMPDEST PUSH2 0x1D3C PUSH1 0x40 MLOAD DUP1 PUSH1 0x60 ADD PUSH1 0x40 MSTORE DUP1 PUSH1 0x0 DUP2 MSTORE PUSH1 0x20 ADD PUSH1 0x0 DUP2 MSTORE PUSH1 0x20 ADD PUSH1 0x0 DUP2 MSTORE POP SWAP1 JUMP JUMPDEST PUSH1 0x9 PUSH2 0x1D5D DUP4 PUSH1 0x1 PUSH1 0x1 PUSH1 0xA0 SHL SUB AND PUSH1 0x0 SWAP1 DUP2 MSTORE PUSH1 0x8 PUSH1 0x20 MSTORE PUSH1 0x40 SWAP1 KECCAK256 SLOAD SWAP1 JUMP JUMPDEST DUP2 SLOAD DUP2 LT PUSH2 0x1D6D JUMPI PUSH2 0x1D6D PUSH2 0x23A8 JUMP JUMPDEST SWAP1 PUSH1 0x0 MSTORE PUSH1 0x20 PUSH1 0x0 KECCAK256 SWAP1 PUSH1 0x3 MUL ADD PUSH1 0x40 MLOAD DUP1 PUSH1 0x60 ADD PUSH1 0x40 MSTORE SWAP1 DUP2 PUSH1 0x0 DUP3 ADD SLOAD DUP2 MSTORE PUSH1 0x20 ADD PUSH1 0x1 DUP3 ADD SLOAD DUP2 MSTORE PUSH1 0x20 ADD PUSH1 0x2 DUP3 ADD SLOAD DUP2 MSTORE POP POP SWAP1 POP SWAP2 SWAP1 POP JUMP JUMPDEST PUSH1 0x0 PUSH2 0x1DB7 DUP3 DUP5 PUSH2 0x23D4 JUMP JUMPDEST SWAP4 SWAP3 POP POP POP JUMP JUMPDEST PUSH1 0x0 PUSH2 0x1DB7 DUP3 DUP5 PUSH2 0x23EB JUMP JUMPDEST PUSH1 0x0 PUSH2 0x1DB7 DUP3 DUP5 PUSH2 0x240A JUMP JUMPDEST PUSH1 0x0 PUSH2 0x1DB7 DUP3 DUP5 PUSH2 0x242C JUMP JUMPDEST CALLER PUSH1 0x0 SWAP1 DUP2 MSTORE PUSH1 0x2 PUSH1 0x20 MSTORE PUSH1 0x40 SWAP1 KECCAK256 SLOAD DUP2 DUP2 LT ISZERO PUSH2 0x1E61 JUMPI PUSH1 0x40 MLOAD PUSH3 0x461BCD PUSH1 0xE5 SHL DUP2 MSTORE PUSH1 0x20 PUSH1 0x4 DUP3 ADD MSTORE PUSH1 0x36 PUSH1 0x24 DUP3 ADD MSTORE PUSH32 0x426F617264726F6F6D3A20776974686472617720726571756573742067726561 PUSH1 0x44 DUP3 ADD MSTORE PUSH22 0x1D195C881D1A185B881CDD185AD95908185B5BDD5B9D PUSH1 0x52 SHL PUSH1 0x64 DUP3 ADD MSTORE PUSH1 0x84 ADD PUSH2 0x743 JUMP JUMPDEST PUSH1 0x1 SLOAD PUSH2 0x1E6E SWAP1 DUP4 PUSH2 0x1DAB JUMP JUMPDEST PUSH1 0x1 SSTORE PUSH2 0x1E7B DUP2 DUP4 PUSH2 0x1DAB JUMP JUMPDEST CALLER PUSH1 0x0 DUP2 DUP2 MSTORE PUSH1 0x2 PUSH1 0x20 MSTORE PUSH1 0x40 DUP2 KECCAK256 SWAP3 SWAP1 SWAP3 SSTORE SWAP1 SLOAD PUSH2 0x1B98 SWAP2 PUSH1 0x1 PUSH1 0x1 PUSH1 0xA0 SHL SUB SWAP1 SWAP2 AND SWAP1 DUP5 JUMPDEST PUSH1 0x40 MLOAD PUSH1 0x1 PUSH1 0x1 PUSH1 0xA0 SHL SUB DUP4 AND PUSH1 0x24 DUP3 ADD MSTORE PUSH1 0x44 DUP2 ADD DUP3 SWAP1 MSTORE PUSH2 0x10E0 SWAP1 DUP5 SWAP1 PUSH4 0xA9059CBB PUSH1 0xE0 SHL SWAP1 PUSH1 0x64 ADD JUMPDEST PUSH1 0x40 DUP1 MLOAD PUSH1 0x1F NOT DUP2 DUP5 SUB ADD DUP2 MSTORE SWAP2 SWAP1 MSTORE PUSH1 0x20 DUP2 ADD DUP1 MLOAD PUSH1 0x1 PUSH1 0x1 PUSH1 0xE0 SHL SUB AND PUSH1 0x1 PUSH1 0x1 PUSH1 0xE0 SHL SUB NOT SWAP1 SWAP4 AND SWAP3 SWAP1 SWAP3 OR SWAP1 SWAP2 MSTORE PUSH2 0x1F9C JUMP JUMPDEST PUSH1 0x40 MLOAD PUSH1 0x1 PUSH1 0x1 PUSH1 0xA0 SHL SUB DUP1 DUP6 AND PUSH1 0x24 DUP4 ADD MSTORE DUP4 AND PUSH1 0x44 DUP3 ADD MSTORE PUSH1 0x64 DUP2 ADD DUP3 SWAP1 MSTORE PUSH2 0x1F3D SWAP1 DUP6 SWAP1 PUSH4 0x23B872DD PUSH1 0xE0 SHL SWAP1 PUSH1 0x84 ADD PUSH2 0x1ECE JUMP JUMPDEST POP POP POP POP JUMP JUMPDEST PUSH1 0x1 SLOAD PUSH2 0x1F50 SWAP1 DUP3 PUSH2 0x1DD6 JUMP JUMPDEST PUSH1 0x1 SSTORE CALLER PUSH1 0x0 SWAP1 DUP2 MSTORE PUSH1 0x2 PUSH1 0x20 MSTORE PUSH1 0x40 SWAP1 KECCAK256 SLOAD PUSH2 0x1F6D SWAP1 DUP3 PUSH2 0x1DD6 JUMP JUMPDEST CALLER PUSH1 0x0 DUP2 DUP2 MSTORE PUSH1 0x2 PUSH1 0x20 MSTORE PUSH1 0x40 DUP2 KECCAK256 SWAP3 SWAP1 SWAP3 SSTORE SWAP1 SLOAD PUSH2 0x1F99 SWAP2 PUSH1 0x1 PUSH1 0x1 PUSH1 0xA0 SHL SUB SWAP1 SWAP2 AND SWAP1 ADDRESS DUP5 PUSH2 0x1F05 JUMP JUMPDEST POP JUMP JUMPDEST PUSH1 0x0 PUSH2 0x1FF1 DUP3 PUSH1 0x40 MLOAD DUP1 PUSH1 0x40 ADD PUSH1 0x40 MSTORE DUP1 PUSH1 0x20 DUP2 MSTORE PUSH1 0x20 ADD PUSH32 0x5361666545524332303A206C6F772D6C6576656C2063616C6C206661696C6564 DUP2 MSTORE POP DUP6 PUSH1 0x1 PUSH1 0x1 PUSH1 0xA0 SHL SUB AND PUSH2 0x206E SWAP1 SWAP3 SWAP2 SWAP1 PUSH4 0xFFFFFFFF AND JUMP JUMPDEST DUP1 MLOAD SWAP1 SWAP2 POP ISZERO PUSH2 0x10E0 JUMPI DUP1 DUP1 PUSH1 0x20 ADD SWAP1 MLOAD DUP2 ADD SWAP1 PUSH2 0x200F SWAP2 SWAP1 PUSH2 0x2444 JUMP JUMPDEST PUSH2 0x10E0 JUMPI PUSH1 0x40 MLOAD PUSH3 0x461BCD PUSH1 0xE5 SHL DUP2 MSTORE PUSH1 0x20 PUSH1 0x4 DUP3 ADD MSTORE PUSH1 0x2A PUSH1 0x24 DUP3 ADD MSTORE PUSH32 0x5361666545524332303A204552433230206F7065726174696F6E20646964206E PUSH1 0x44 DUP3 ADD MSTORE PUSH10 0x1BDD081CDD58D8D95959 PUSH1 0xB2 SHL PUSH1 0x64 DUP3 ADD MSTORE PUSH1 0x84 ADD PUSH2 0x743 JUMP JUMPDEST PUSH1 0x60 PUSH2 0x5CC DUP5 DUP5 PUSH1 0x0 DUP6 DUP6 PUSH1 0x0 DUP1 DUP7 PUSH1 0x1 PUSH1 0x1 PUSH1 0xA0 SHL SUB AND DUP6 DUP8 PUSH1 0x40 MLOAD PUSH2 0x2095 SWAP2 SWAP1 PUSH2 0x2492 JUMP JUMPDEST PUSH1 0x0 PUSH1 0x40 MLOAD DUP1 DUP4 SUB DUP2 DUP6 DUP8 GAS CALL SWAP3 POP POP POP RETURNDATASIZE DUP1 PUSH1 0x0 DUP2 EQ PUSH2 0x20D2 JUMPI PUSH1 0x40 MLOAD SWAP2 POP PUSH1 0x1F NOT PUSH1 0x3F RETURNDATASIZE ADD AND DUP3 ADD PUSH1 0x40 MSTORE RETURNDATASIZE DUP3 MSTORE RETURNDATASIZE PUSH1 0x0 PUSH1 0x20 DUP5 ADD RETURNDATACOPY PUSH2 0x20D7 JUMP JUMPDEST PUSH1 0x60 SWAP2 POP JUMPDEST POP SWAP2 POP SWAP2 POP PUSH2 0x20E8 DUP8 DUP4 DUP4 DUP8 PUSH2 0x20F3 JUMP JUMPDEST SWAP8 SWAP7 POP POP POP POP POP POP POP JUMP JUMPDEST PUSH1 0x60 DUP4 ISZERO PUSH2 0x2162 JUMPI DUP3 MLOAD PUSH1 0x0 SUB PUSH2 0x215B JUMPI PUSH1 0x1 PUSH1 0x1 PUSH1 0xA0 SHL SUB DUP6 AND EXTCODESIZE PUSH2 0x215B JUMPI PUSH1 0x40 MLOAD PUSH3 0x461BCD PUSH1 0xE5 SHL DUP2 MSTORE PUSH1 0x20 PUSH1 0x4 DUP3 ADD MSTORE PUSH1 0x1D PUSH1 0x24 DUP3 ADD MSTORE PUSH32 0x416464726573733A2063616C6C20746F206E6F6E2D636F6E7472616374000000 PUSH1 0x44 DUP3 ADD MSTORE PUSH1 0x64 ADD PUSH2 0x743 JUMP JUMPDEST POP DUP2 PUSH2 0x5CC JUMP JUMPDEST PUSH2 0x5CC DUP4 DUP4 DUP2 MLOAD ISZERO PUSH2 0x2177 JUMPI DUP2 MLOAD DUP1 DUP4 PUSH1 0x20 ADD REVERT JUMPDEST DUP1 PUSH1 0x40 MLOAD PUSH3 0x461BCD PUSH1 0xE5 SHL DUP2 MSTORE PUSH1 0x4 ADD PUSH2 0x743 SWAP2 SWAP1 PUSH2 0x24AE JUMP JUMPDEST PUSH1 0x1 PUSH1 0x1 PUSH1 0xA0 SHL SUB DUP2 AND DUP2 EQ PUSH2 0x1F99 JUMPI PUSH1 0x0 DUP1 REVERT JUMPDEST PUSH1 0x0 PUSH1 0x20 DUP3 DUP5 SUB SLT ISZERO PUSH2 0x21B8 JUMPI PUSH1 0x0 DUP1 REVERT JUMPDEST DUP2 CALLDATALOAD PUSH2 0x1DB7 DUP2 PUSH2 0x2191 JUMP JUMPDEST PUSH1 0x0 PUSH1 0x20 DUP3 DUP5 SUB SLT ISZERO PUSH2 0x21D5 JUMPI PUSH1 0x0 DUP1 REVERT JUMPDEST POP CALLDATALOAD SWAP2 SWAP1 POP JUMP JUMPDEST PUSH1 0x0 DUP1 PUSH1 0x40 DUP4 DUP6 SUB SLT ISZERO PUSH2 0x21EF JUMPI PUSH1 0x0 DUP1 REVERT JUMPDEST POP POP DUP1 CALLDATALOAD SWAP3 PUSH1 0x20 SWAP1 SWAP2 ADD CALLDATALOAD SWAP2 POP JUMP JUMPDEST PUSH1 0x0 DUP1 PUSH1 0x0 DUP1 PUSH1 0x0 PUSH1 0xA0 DUP7 DUP9 SUB SLT ISZERO PUSH2 0x2216 JUMPI PUSH1 0x0 DUP1 REVERT JUMPDEST DUP6 CALLDATALOAD PUSH2 0x2221 DUP2 PUSH2 0x2191 JUMP JUMPDEST SWAP5 POP PUSH1 0x20 DUP7 ADD CALLDATALOAD PUSH2 0x2231 DUP2 PUSH2 0x2191 JUMP JUMPDEST SWAP4 POP PUSH1 0x40 DUP7 ADD CALLDATALOAD PUSH2 0x2241 DUP2 PUSH2 0x2191 JUMP JUMPDEST SWAP3 POP PUSH1 0x60 DUP7 ADD CALLDATALOAD SWAP2 POP PUSH1 0x80 DUP7 ADD CALLDATALOAD PUSH2 0x2258 DUP2 PUSH2 0x2191 JUMP JUMPDEST DUP1 SWAP2 POP POP SWAP3 SWAP6 POP SWAP3 SWAP6 SWAP1 SWAP4 POP JUMP JUMPDEST PUSH1 0x0 DUP1 PUSH1 0x40 DUP4 DUP6 SUB SLT ISZERO PUSH2 0x2279 JUMPI PUSH1 0x0 DUP1 REVERT JUMPDEST DUP3 CALLDATALOAD PUSH2 0x2284 DUP2 PUSH2 0x2191 JUMP JUMPDEST SWAP2 POP PUSH1 0x20 DUP4 ADD CALLDATALOAD PUSH2 0x2294 DUP2 PUSH2 0x2191 JUMP JUMPDEST DUP1 SWAP2 POP POP SWAP3 POP SWAP3 SWAP1 POP JUMP JUMPDEST PUSH1 0x0 DUP1 PUSH1 0x0 PUSH1 0x60 DUP5 DUP7 SUB SLT ISZERO PUSH2 0x22B4 JUMPI PUSH1 0x0 DUP1 REVERT JUMPDEST DUP4 CALLDATALOAD PUSH2 0x22BF DUP2 PUSH2 0x2191 JUMP JUMPDEST SWAP3 POP PUSH1 0x20 DUP5 ADD CALLDATALOAD SWAP2 POP PUSH1 0x40 DUP5 ADD CALLDATALOAD PUSH2 0x22D6 DUP2 PUSH2 0x2191 JUMP JUMPDEST DUP1 SWAP2 POP POP SWAP3 POP SWAP3 POP SWAP3 JUMP JUMPDEST PUSH1 0x0 PUSH1 0x20 DUP3 DUP5 SUB SLT ISZERO PUSH2 0x22F3 JUMPI PUSH1 0x0 DUP1 REVERT JUMPDEST POP MLOAD SWAP2 SWAP1 POP JUMP JUMPDEST PUSH1 0x20 DUP1 DUP3 MSTORE PUSH1 0x26 SWAP1 DUP3 ADD MSTORE PUSH32 0x436F6E747261637447756172643A206F6E6520626C6F636B2C206F6E65206675 PUSH1 0x40 DUP3 ADD MSTORE PUSH6 0x3731BA34B7B7 PUSH1 0xD1 SHL PUSH1 0x60 DUP3 ADD MSTORE PUSH1 0x80 ADD SWAP1 JUMP JUMPDEST PUSH1 0x20 DUP1 DUP3 MSTORE PUSH1 0x9 SWAP1 DUP3 ADD MSTORE PUSH9 0x189B1858DADB1A5CDD PUSH1 0xBA SHL PUSH1 0x40 DUP3 ADD MSTORE PUSH1 0x60 ADD SWAP1 JUMP JUMPDEST PUSH1 0x20 DUP1 DUP3 MSTORE PUSH1 0x25 SWAP1 DUP3 ADD MSTORE PUSH32 0x426F617264726F6F6D3A2063616C6C6572206973206E6F7420746865206F7065 PUSH1 0x40 DUP3 ADD MSTORE PUSH5 0x3930BA37B9 PUSH1 0xD9 SHL PUSH1 0x60 DUP3 ADD MSTORE PUSH1 0x80 ADD SWAP1 JUMP JUMPDEST PUSH4 0x4E487B71 PUSH1 0xE0 SHL PUSH1 0x0 MSTORE PUSH1 0x32 PUSH1 0x4 MSTORE PUSH1 0x24 PUSH1 0x0 REVERT JUMPDEST PUSH4 0x4E487B71 PUSH1 0xE0 SHL PUSH1 0x0 MSTORE PUSH1 0x11 PUSH1 0x4 MSTORE PUSH1 0x24 PUSH1 0x0 REVERT JUMPDEST PUSH1 0x0 DUP3 DUP3 LT ISZERO PUSH2 0x23E6 JUMPI PUSH2 0x23E6 PUSH2 0x23BE JUMP JUMPDEST POP SUB SWAP1 JUMP JUMPDEST PUSH1 0x0 DUP2 PUSH1 0x0 NOT DIV DUP4 GT DUP3 ISZERO ISZERO AND ISZERO PUSH2 0x2405 JUMPI PUSH2 0x2405 PUSH2 0x23BE JUMP JUMPDEST POP MUL SWAP1 JUMP JUMPDEST PUSH1 0x0 DUP3 PUSH2 0x2427 JUMPI PUSH4 0x4E487B71 PUSH1 0xE0 SHL PUSH1 0x0 MSTORE PUSH1 0x12 PUSH1 0x4 MSTORE PUSH1 0x24 PUSH1 0x0 REVERT JUMPDEST POP DIV SWAP1 JUMP JUMPDEST PUSH1 0x0 DUP3 NOT DUP3 GT ISZERO PUSH2 0x243F JUMPI PUSH2 0x243F PUSH2 0x23BE JUMP JUMPDEST POP ADD SWAP1 JUMP JUMPDEST PUSH1 0x0 PUSH1 0x20 DUP3 DUP5 SUB SLT ISZERO PUSH2 0x2456 JUMPI PUSH1 0x0 DUP1 REVERT JUMPDEST DUP2 MLOAD DUP1 ISZERO ISZERO DUP2 EQ PUSH2 0x1DB7 JUMPI PUSH1 0x0 DUP1 REVERT JUMPDEST PUSH1 0x0 JUMPDEST DUP4 DUP2 LT ISZERO PUSH2 0x2481 JUMPI DUP2 DUP2 ADD MLOAD DUP4 DUP3 ADD MSTORE PUSH1 0x20 ADD PUSH2 0x2469 JUMP JUMPDEST DUP4 DUP2 GT ISZERO PUSH2 0x1F3D JUMPI POP POP PUSH1 0x0 SWAP2 ADD MSTORE JUMP JUMPDEST PUSH1 0x0 DUP3 MLOAD PUSH2 0x24A4 DUP2 DUP5 PUSH1 0x20 DUP8 ADD PUSH2 0x2466 JUMP JUMPDEST SWAP2 SWAP1 SWAP2 ADD SWAP3 SWAP2 POP POP JUMP JUMPDEST PUSH1 0x20 DUP2 MSTORE PUSH1 0x0 DUP3 MLOAD DUP1 PUSH1 0x20 DUP5 ADD MSTORE PUSH2 0x24CD DUP2 PUSH1 0x40 DUP6 ADD PUSH1 0x20 DUP8 ADD PUSH2 0x2466 JUMP JUMPDEST PUSH1 0x1F ADD PUSH1 0x1F NOT AND SWAP2 SWAP1 SWAP2 ADD PUSH1 0x40 ADD SWAP3 SWAP2 POP POP JUMP INVALID LOG2 PUSH5 0x6970667358 0x22 SLT KECCAK256 SWAP13 EXTCODEHASH DUP11 0xBE 0xB8 PUSH25 0xC7F7EAE12FAFC8FC1F0908EE71FE498C6E898C6049D4440EE5 0xED PUSH5 0x736F6C6343 STOP ADDMOD 0xD STOP CALLER "
				},
				"gasEstimates": {
					"creation": {
						"codeDepositCost": "1899000",
						"executionCost": "26229",
						"totalCost": "1925229"
					},
					"external": {
						"addAddressBlacklist(address)": "29173",
						"allocateSeigniorage(uint256)": "infinite",
						"balanceOf(address)": "2632",
						"blacklist(address)": "2635",
						"blacklistFundWithdraw(address,address)": "infinite",
						"boardroomHistory(uint256)": "8947",
						"canClaimReward(address)": "infinite",
						"canWithdraw(address)": "infinite",
						"claimReward()": "infinite",
						"earned(address)": "infinite",
						"epoch()": "infinite",
						"exit()": "infinite",
						"fee()": "2328",
						"feeTo()": "2406",
						"getLastSnapshotIndexOf(address)": "2565",
						"getTokenPrice()": "infinite",
						"governanceRecoverUnsupported(address,uint256,address)": "infinite",
						"initialize(address,address,address,uint256,address)": "infinite",
						"initialized()": "2395",
						"isAddressBlacklist(address)": "2688",
						"latestSnapshotIndex()": "2509",
						"members(address)": "6834",
						"nextEpochPoint()": "infinite",
						"operator()": "2448",
						"removeAddressBlacklist(address)": "29115",
						"rewardLockupEpochs()": "2375",
						"rewardPerShare()": "11284",
						"setFee(uint256)": "24558",
						"setFeeTo(address)": "26793",
						"setLockUp(uint256,uint256)": "46727",
						"setOperator(address)": "26750",
						"share()": "2470",
						"stake(uint256)": "infinite",
						"token()": "2469",
						"totalSupply()": "2371",
						"treasury()": "2383",
						"withdraw(uint256)": "infinite",
						"withdrawLockupEpochs()": "2418"
					},
					"internal": {
						"getLastSnapshotOf(address)": "infinite",
						"getLatestSnapshot()": "infinite"
					}
				},
				"methodIdentifiers": {
					"addAddressBlacklist(address)": "5db76731",
					"allocateSeigniorage(uint256)": "97ffe1d7",
					"balanceOf(address)": "70a08231",
					"blacklist(address)": "f9f92be4",
					"blacklistFundWithdraw(address,address)": "53c03829",
					"boardroomHistory(uint256)": "c58e3843",
					"canClaimReward(address)": "046335d0",
					"canWithdraw(address)": "19262d30",
					"claimReward()": "b88a802f",
					"earned(address)": "008cc262",
					"epoch()": "900cf0cf",
					"exit()": "e9fad8ee",
					"fee()": "ddca3f43",
					"feeTo()": "017e7e58",
					"getLastSnapshotIndexOf(address)": "714b4658",
					"getTokenPrice()": "4b94f50e",
					"governanceRecoverUnsupported(address,uint256,address)": "54575af4",
					"initialize(address,address,address,uint256,address)": "530b97a4",
					"initialized()": "158ef93e",
					"isAddressBlacklist(address)": "d256d48a",
					"latestSnapshotIndex()": "3f9e3f04",
					"members(address)": "08ae4b0c",
					"nextEpochPoint()": "c5967c26",
					"operator()": "570ca735",
					"removeAddressBlacklist(address)": "6cee85c2",
					"rewardLockupEpochs()": "022ba18d",
					"rewardPerShare()": "446a2ec8",
					"setFee(uint256)": "69fe0e2d",
					"setFeeTo(address)": "f46901ed",
					"setLockUp(uint256,uint256)": "2ffaaa09",
					"setOperator(address)": "b3ab15fb",
					"share()": "a8d5fd65",
					"stake(uint256)": "a694fc3a",
					"token()": "fc0c546a",
					"totalSupply()": "18160ddd",
					"treasury()": "61d027b3",
					"withdraw(uint256)": "2e1a7d4d",
					"withdrawLockupEpochs()": "1e85cd65"
				}
			},
			"storageLayout": {
				"storage": [
					{
						"astId": 1061,
						"contract": "brownie_projects/bebu_finance/contracts/Boardroom/Boardroom.sol:Boardroom",
						"label": "share",
						"offset": 0,
						"slot": "0",
						"type": "t_contract(IERC20)2083"
					},
					{
						"astId": 1063,
						"contract": "brownie_projects/bebu_finance/contracts/Boardroom/Boardroom.sol:Boardroom",
						"label": "_totalSupply",
						"offset": 0,
						"slot": "1",
						"type": "t_uint256"
					},
					{
						"astId": 1067,
						"contract": "brownie_projects/bebu_finance/contracts/Boardroom/Boardroom.sol:Boardroom",
						"label": "_balances",
						"offset": 0,
						"slot": "2",
						"type": "t_mapping(t_address,t_uint256)"
					},
					{
						"astId": 1938,
						"contract": "brownie_projects/bebu_finance/contracts/Boardroom/Boardroom.sol:Boardroom",
						"label": "_status",
						"offset": 0,
						"slot": "3",
						"type": "t_mapping(t_uint256,t_mapping(t_address,t_bool))"
					},
					{
						"astId": 37,
						"contract": "brownie_projects/bebu_finance/contracts/Boardroom/Boardroom.sol:Boardroom",
						"label": "operator",
						"offset": 0,
						"slot": "4",
						"type": "t_address"
					},
					{
						"astId": 40,
						"contract": "brownie_projects/bebu_finance/contracts/Boardroom/Boardroom.sol:Boardroom",
						"label": "initialized",
						"offset": 20,
						"slot": "4",
						"type": "t_bool"
					},
					{
						"astId": 43,
						"contract": "brownie_projects/bebu_finance/contracts/Boardroom/Boardroom.sol:Boardroom",
						"label": "token",
						"offset": 0,
						"slot": "5",
						"type": "t_contract(IERC20)2083"
					},
					{
						"astId": 46,
						"contract": "brownie_projects/bebu_finance/contracts/Boardroom/Boardroom.sol:Boardroom",
						"label": "treasury",
						"offset": 0,
						"slot": "6",
						"type": "t_contract(ITreasury)1618"
					},
					{
						"astId": 50,
						"contract": "brownie_projects/bebu_finance/contracts/Boardroom/Boardroom.sol:Boardroom",
						"label": "blacklist",
						"offset": 0,
						"slot": "7",
						"type": "t_mapping(t_address,t_bool)"
					},
					{
						"astId": 55,
						"contract": "brownie_projects/bebu_finance/contracts/Boardroom/Boardroom.sol:Boardroom",
						"label": "members",
						"offset": 0,
						"slot": "8",
						"type": "t_mapping(t_address,t_struct(Memberseat)28_storage)"
					},
					{
						"astId": 59,
						"contract": "brownie_projects/bebu_finance/contracts/Boardroom/Boardroom.sol:Boardroom",
						"label": "boardroomHistory",
						"offset": 0,
						"slot": "9",
						"type": "t_array(t_struct(BoardroomSnapshot)35_storage)dyn_storage"
					},
					{
						"astId": 61,
						"contract": "brownie_projects/bebu_finance/contracts/Boardroom/Boardroom.sol:Boardroom",
						"label": "withdrawLockupEpochs",
						"offset": 0,
						"slot": "10",
						"type": "t_uint256"
					},
					{
						"astId": 63,
						"contract": "brownie_projects/bebu_finance/contracts/Boardroom/Boardroom.sol:Boardroom",
						"label": "rewardLockupEpochs",
						"offset": 0,
						"slot": "11",
						"type": "t_uint256"
					},
					{
						"astId": 65,
						"contract": "brownie_projects/bebu_finance/contracts/Boardroom/Boardroom.sol:Boardroom",
						"label": "fee",
						"offset": 0,
						"slot": "12",
						"type": "t_uint256"
					},
					{
						"astId": 67,
						"contract": "brownie_projects/bebu_finance/contracts/Boardroom/Boardroom.sol:Boardroom",
						"label": "feeTo",
						"offset": 0,
						"slot": "13",
						"type": "t_address"
					}
				],
				"types": {
					"t_address": {
						"encoding": "inplace",
						"label": "address",
						"numberOfBytes": "20"
					},
					"t_array(t_struct(BoardroomSnapshot)35_storage)dyn_storage": {
						"base": "t_struct(BoardroomSnapshot)35_storage",
						"encoding": "dynamic_array",
						"label": "struct Boardroom.BoardroomSnapshot[]",
						"numberOfBytes": "32"
					},
					"t_bool": {
						"encoding": "inplace",
						"label": "bool",
						"numberOfBytes": "1"
					},
					"t_contract(IERC20)2083": {
						"encoding": "inplace",
						"label": "contract IERC20",
						"numberOfBytes": "20"
					},
					"t_contract(ITreasury)1618": {
						"encoding": "inplace",
						"label": "contract ITreasury",
						"numberOfBytes": "20"
					},
					"t_mapping(t_address,t_bool)": {
						"encoding": "mapping",
						"key": "t_address",
						"label": "mapping(address => bool)",
						"numberOfBytes": "32",
						"value": "t_bool"
					},
					"t_mapping(t_address,t_struct(Memberseat)28_storage)": {
						"encoding": "mapping",
						"key": "t_address",
						"label": "mapping(address => struct Boardroom.Memberseat)",
						"numberOfBytes": "32",
						"value": "t_struct(Memberseat)28_storage"
					},
					"t_mapping(t_address,t_uint256)": {
						"encoding": "mapping",
						"key": "t_address",
						"label": "mapping(address => uint256)",
						"numberOfBytes": "32",
						"value": "t_uint256"
					},
					"t_mapping(t_uint256,t_mapping(t_address,t_bool))": {
						"encoding": "mapping",
						"key": "t_uint256",
						"label": "mapping(uint256 => mapping(address => bool))",
						"numberOfBytes": "32",
						"value": "t_mapping(t_address,t_bool)"
					},
					"t_struct(BoardroomSnapshot)35_storage": {
						"encoding": "inplace",
						"label": "struct Boardroom.BoardroomSnapshot",
						"members": [
							{
								"astId": 30,
								"contract": "brownie_projects/bebu_finance/contracts/Boardroom/Boardroom.sol:Boardroom",
								"label": "time",
								"offset": 0,
								"slot": "0",
								"type": "t_uint256"
							},
							{
								"astId": 32,
								"contract": "brownie_projects/bebu_finance/contracts/Boardroom/Boardroom.sol:Boardroom",
								"label": "rewardReceived",
								"offset": 0,
								"slot": "1",
								"type": "t_uint256"
							},
							{
								"astId": 34,
								"contract": "brownie_projects/bebu_finance/contracts/Boardroom/Boardroom.sol:Boardroom",
								"label": "rewardPerShare",
								"offset": 0,
								"slot": "2",
								"type": "t_uint256"
							}
						],
						"numberOfBytes": "96"
					},
					"t_struct(Memberseat)28_storage": {
						"encoding": "inplace",
						"label": "struct Boardroom.Memberseat",
						"members": [
							{
								"astId": 23,
								"contract": "brownie_projects/bebu_finance/contracts/Boardroom/Boardroom.sol:Boardroom",
								"label": "lastSnapshotIndex",
								"offset": 0,
								"slot": "0",
								"type": "t_uint256"
							},
							{
								"astId": 25,
								"contract": "brownie_projects/bebu_finance/contracts/Boardroom/Boardroom.sol:Boardroom",
								"label": "rewardEarned",
								"offset": 0,
								"slot": "1",
								"type": "t_uint256"
							},
							{
								"astId": 27,
								"contract": "brownie_projects/bebu_finance/contracts/Boardroom/Boardroom.sol:Boardroom",
								"label": "epochTimerStart",
								"offset": 0,
								"slot": "2",
								"type": "t_uint256"
							}
						],
						"numberOfBytes": "96"
					},
					"t_uint256": {
						"encoding": "inplace",
						"label": "uint256",
						"numberOfBytes": "32"
					}
				}
			},
			"userdoc": {
				"kind": "user",
				"methods": {},
				"version": 1
			}
		}
	}
}