{
	"brownie_projects/bebu_finance/contracts/Boardroom/ShareWrapper.sol": {
		"ShareWrapper": {
			"abi": [
				{
					"inputs": [
						{
							"internalType": "address",
							"name": "account",
							"type": "address"
						}
					],
					"name": "balanceOf",
					"outputs": [
						{
							"internalType": "uint256",
							"name": "",
							"type": "uint256"
						}
					],
					"stateMutability": "view",
					"type": "function"
				},
				{
					"inputs": [],
					"name": "share",
					"outputs": [
						{
							"internalType": "contract IERC20",
							"name": "",
							"type": "address"
						}
					],
					"stateMutability": "view",
					"type": "function"
				},
				{
					"inputs": [
						{
							"internalType": "uint256",
							"name": "amount",
							"type": "uint256"
						}
					],
					"name": "stake",
					"outputs": [],
					"stateMutability": "nonpayable",
					"type": "function"
				},
				{
					"inputs": [],
					"name": "totalSupply",
					"outputs": [
						{
							"internalType": "uint256",
							"name": "",
							"type": "uint256"
						}
					],
					"stateMutability": "view",
					"type": "function"
				},
				{
					"inputs": [
						{
							"internalType": "uint256",
							"name": "amount",
							"type": "uint256"
						}
					],
					"name": "withdraw",
					"outputs": [],
					"stateMutability": "nonpayable",
					"type": "function"
				}
			],
			"devdoc": {
				"kind": "dev",
				"methods": {},
				"version": 1
			},
			"evm": {
				"assembly": "    /* \"brownie_projects/bebu_finance/contracts/Boardroom/ShareWrapper.sol\":134:1155  contract ShareWrapper {... */\n  mstore(0x40, 0x80)\n  callvalue\n  dup1\n  iszero\n  tag_1\n  jumpi\n  0x00\n  dup1\n  revert\ntag_1:\n  pop\n  dataSize(sub_0)\n  dup1\n  dataOffset(sub_0)\n  0x00\n  codecopy\n  0x00\n  return\nstop\n\nsub_0: assembly {\n        /* \"brownie_projects/bebu_finance/contracts/Boardroom/ShareWrapper.sol\":134:1155  contract ShareWrapper {... */\n      mstore(0x40, 0x80)\n      callvalue\n      dup1\n      iszero\n      tag_1\n      jumpi\n      0x00\n      dup1\n      revert\n    tag_1:\n      pop\n      jumpi(tag_2, lt(calldatasize, 0x04))\n      shr(0xe0, calldataload(0x00))\n      dup1\n      0x18160ddd\n      eq\n      tag_3\n      jumpi\n      dup1\n      0x2e1a7d4d\n      eq\n      tag_4\n      jumpi\n      dup1\n      0x70a08231\n      eq\n      tag_5\n      jumpi\n      dup1\n      0xa694fc3a\n      eq\n      tag_6\n      jumpi\n      dup1\n      0xa8d5fd65\n      eq\n      tag_7\n      jumpi\n    tag_2:\n      0x00\n      dup1\n      revert\n        /* \"brownie_projects/bebu_finance/contracts/Boardroom/ShareWrapper.sol\":341:430  function totalSupply() public view returns (uint256) {... */\n    tag_3:\n        /* \"brownie_projects/bebu_finance/contracts/Boardroom/ShareWrapper.sol\":411:423  _totalSupply */\n      sload(0x01)\n        /* \"brownie_projects/bebu_finance/contracts/Boardroom/ShareWrapper.sol\":341:430  function totalSupply() public view returns (uint256) {... */\n    tag_8:\n      mload(0x40)\n        /* \"#utility.yul\":160:185   */\n      swap1\n      dup2\n      mstore\n        /* \"#utility.yul\":148:150   */\n      0x20\n        /* \"#utility.yul\":133:151   */\n      add\n        /* \"brownie_projects/bebu_finance/contracts/Boardroom/ShareWrapper.sol\":341:430  function totalSupply() public view returns (uint256) {... */\n    tag_10:\n      mload(0x40)\n      dup1\n      swap2\n      sub\n      swap1\n      return\n        /* \"brownie_projects/bebu_finance/contracts/Boardroom/ShareWrapper.sol\":792:1153  function withdraw(uint256 amount) public virtual {... */\n    tag_4:\n      tag_12\n      tag_13\n      calldatasize\n      0x04\n      tag_14\n      jump\t// in\n    tag_13:\n      tag_15\n      jump\t// in\n    tag_12:\n      stop\n        /* \"brownie_projects/bebu_finance/contracts/Boardroom/ShareWrapper.sol\":436:544  function balanceOf(address account) public view returns (uint256) {... */\n    tag_5:\n      tag_8\n      tag_17\n      calldatasize\n      0x04\n      tag_18\n      jump\t// in\n    tag_17:\n      sub(shl(0xa0, 0x01), 0x01)\n        /* \"brownie_projects/bebu_finance/contracts/Boardroom/ShareWrapper.sol\":519:537  _balances[account] */\n      and\n        /* \"brownie_projects/bebu_finance/contracts/Boardroom/ShareWrapper.sol\":493:500  uint256 */\n      0x00\n        /* \"brownie_projects/bebu_finance/contracts/Boardroom/ShareWrapper.sol\":519:537  _balances[account] */\n      swap1\n      dup2\n      mstore\n        /* \"brownie_projects/bebu_finance/contracts/Boardroom/ShareWrapper.sol\":519:528  _balances */\n      0x02\n        /* \"brownie_projects/bebu_finance/contracts/Boardroom/ShareWrapper.sol\":519:537  _balances[account] */\n      0x20\n      mstore\n      0x40\n      swap1\n      keccak256\n      sload\n      swap1\n        /* \"brownie_projects/bebu_finance/contracts/Boardroom/ShareWrapper.sol\":436:544  function balanceOf(address account) public view returns (uint256) {... */\n      jump\n        /* \"brownie_projects/bebu_finance/contracts/Boardroom/ShareWrapper.sol\":550:786  function stake(uint256 amount) public virtual {... */\n    tag_6:\n      tag_12\n      tag_22\n      calldatasize\n      0x04\n      tag_14\n      jump\t// in\n    tag_22:\n      tag_23\n      jump\t// in\n        /* \"brownie_projects/bebu_finance/contracts/Boardroom/ShareWrapper.sol\":227:246  IERC20 public share */\n    tag_7:\n      sload(0x00)\n      tag_24\n      swap1\n      sub(shl(0xa0, 0x01), 0x01)\n      and\n      dup2\n      jump\n    tag_24:\n      mload(0x40)\n      sub(shl(0xa0, 0x01), 0x01)\n        /* \"#utility.yul\":851:883   */\n      swap1\n      swap2\n      and\n        /* \"#utility.yul\":833:884   */\n      dup2\n      mstore\n        /* \"#utility.yul\":821:823   */\n      0x20\n        /* \"#utility.yul\":806:824   */\n      add\n        /* \"brownie_projects/bebu_finance/contracts/Boardroom/ShareWrapper.sol\":227:246  IERC20 public share */\n      tag_10\n        /* \"#utility.yul\":672:890   */\n      jump\n        /* \"brownie_projects/bebu_finance/contracts/Boardroom/ShareWrapper.sol\":792:1153  function withdraw(uint256 amount) public virtual {... */\n    tag_15:\n        /* \"brownie_projects/bebu_finance/contracts/Boardroom/ShareWrapper.sol\":883:893  msg.sender */\n      caller\n        /* \"brownie_projects/bebu_finance/contracts/Boardroom/ShareWrapper.sol\":851:870  uint256 memberShare */\n      0x00\n        /* \"brownie_projects/bebu_finance/contracts/Boardroom/ShareWrapper.sol\":873:894  _balances[msg.sender] */\n      swap1\n      dup2\n      mstore\n        /* \"brownie_projects/bebu_finance/contracts/Boardroom/ShareWrapper.sol\":873:882  _balances */\n      0x02\n        /* \"brownie_projects/bebu_finance/contracts/Boardroom/ShareWrapper.sol\":873:894  _balances[msg.sender] */\n      0x20\n      mstore\n      0x40\n      swap1\n      keccak256\n      sload\n        /* \"brownie_projects/bebu_finance/contracts/Boardroom/ShareWrapper.sol\":912:933  memberShare >= amount */\n      dup2\n      dup2\n      lt\n      iszero\n        /* \"brownie_projects/bebu_finance/contracts/Boardroom/ShareWrapper.sol\":904:992  require(memberShare >= amount, \"Boardroom: withdraw request greater than staked amount\") */\n      tag_30\n      jumpi\n      mload(0x40)\n      shl(0xe5, 0x461bcd)\n      dup2\n      mstore\n        /* \"#utility.yul\":1097:1099   */\n      0x20\n        /* \"brownie_projects/bebu_finance/contracts/Boardroom/ShareWrapper.sol\":904:992  require(memberShare >= amount, \"Boardroom: withdraw request greater than staked amount\") */\n      0x04\n      dup3\n      add\n        /* \"#utility.yul\":1079:1100   */\n      mstore\n        /* \"#utility.yul\":1136:1138   */\n      0x36\n        /* \"#utility.yul\":1116:1134   */\n      0x24\n      dup3\n      add\n        /* \"#utility.yul\":1109:1139   */\n      mstore\n        /* \"#utility.yul\":1175:1209   */\n      0x426f617264726f6f6d3a20776974686472617720726571756573742067726561\n        /* \"#utility.yul\":1155:1173   */\n      0x44\n      dup3\n      add\n        /* \"#utility.yul\":1148:1210   */\n      mstore\n      shl(0x52, 0x1d195c881d1a185b881cdd185ad95908185b5bdd5b9d)\n        /* \"#utility.yul\":1226:1244   */\n      0x64\n      dup3\n      add\n        /* \"#utility.yul\":1219:1271   */\n      mstore\n        /* \"#utility.yul\":1288:1307   */\n      0x84\n      add\n        /* \"brownie_projects/bebu_finance/contracts/Boardroom/ShareWrapper.sol\":904:992  require(memberShare >= amount, \"Boardroom: withdraw request greater than staked amount\") */\n    tag_31:\n      mload(0x40)\n      dup1\n      swap2\n      sub\n      swap1\n      revert\n    tag_30:\n        /* \"brownie_projects/bebu_finance/contracts/Boardroom/ShareWrapper.sol\":1017:1029  _totalSupply */\n      sload(0x01)\n        /* \"brownie_projects/bebu_finance/contracts/Boardroom/ShareWrapper.sol\":1017:1041  _totalSupply.sub(amount) */\n      tag_33\n      swap1\n        /* \"brownie_projects/bebu_finance/contracts/Boardroom/ShareWrapper.sol\":1034:1040  amount */\n      dup4\n        /* \"brownie_projects/bebu_finance/contracts/Boardroom/ShareWrapper.sol\":1017:1033  _totalSupply.sub */\n      tag_34\n        /* \"brownie_projects/bebu_finance/contracts/Boardroom/ShareWrapper.sol\":1017:1041  _totalSupply.sub(amount) */\n      jump\t// in\n    tag_33:\n        /* \"brownie_projects/bebu_finance/contracts/Boardroom/ShareWrapper.sol\":1002:1014  _totalSupply */\n      0x01\n        /* \"brownie_projects/bebu_finance/contracts/Boardroom/ShareWrapper.sol\":1002:1041  _totalSupply = _totalSupply.sub(amount) */\n      sstore\n        /* \"brownie_projects/bebu_finance/contracts/Boardroom/ShareWrapper.sol\":1075:1098  memberShare.sub(amount) */\n      tag_35\n        /* \"brownie_projects/bebu_finance/contracts/Boardroom/ShareWrapper.sol\":1075:1086  memberShare */\n      dup2\n        /* \"brownie_projects/bebu_finance/contracts/Boardroom/ShareWrapper.sol\":1091:1097  amount */\n      dup4\n        /* \"brownie_projects/bebu_finance/contracts/Boardroom/ShareWrapper.sol\":1075:1090  memberShare.sub */\n      tag_34\n        /* \"brownie_projects/bebu_finance/contracts/Boardroom/ShareWrapper.sol\":1075:1098  memberShare.sub(amount) */\n      jump\t// in\n    tag_35:\n        /* \"brownie_projects/bebu_finance/contracts/Boardroom/ShareWrapper.sol\":1061:1071  msg.sender */\n      caller\n        /* \"brownie_projects/bebu_finance/contracts/Boardroom/ShareWrapper.sol\":1051:1072  _balances[msg.sender] */\n      0x00\n      dup2\n      dup2\n      mstore\n        /* \"brownie_projects/bebu_finance/contracts/Boardroom/ShareWrapper.sol\":1051:1060  _balances */\n      0x02\n        /* \"brownie_projects/bebu_finance/contracts/Boardroom/ShareWrapper.sol\":1051:1072  _balances[msg.sender] */\n      0x20\n      mstore\n      0x40\n      dup2\n      keccak256\n        /* \"brownie_projects/bebu_finance/contracts/Boardroom/ShareWrapper.sol\":1051:1098  _balances[msg.sender] = memberShare.sub(amount) */\n      swap3\n      swap1\n      swap3\n      sstore\n        /* \"brownie_projects/bebu_finance/contracts/Boardroom/ShareWrapper.sol\":1108:1113  share */\n      swap1\n      sload\n        /* \"brownie_projects/bebu_finance/contracts/Boardroom/ShareWrapper.sol\":1108:1146  share.safeTransfer(msg.sender, amount) */\n      tag_36\n      swap2\n      sub(shl(0xa0, 0x01), 0x01)\n        /* \"brownie_projects/bebu_finance/contracts/Boardroom/ShareWrapper.sol\":1108:1113  share */\n      swap1\n      swap2\n      and\n      swap1\n        /* \"brownie_projects/bebu_finance/contracts/Boardroom/ShareWrapper.sol\":1139:1145  amount */\n      dup5\n        /* \"brownie_projects/bebu_finance/contracts/Boardroom/ShareWrapper.sol\":1108:1126  share.safeTransfer */\n      tag_37\n        /* \"brownie_projects/bebu_finance/contracts/Boardroom/ShareWrapper.sol\":1108:1146  share.safeTransfer(msg.sender, amount) */\n      jump\t// in\n    tag_36:\n        /* \"brownie_projects/bebu_finance/contracts/Boardroom/ShareWrapper.sol\":841:1153  {... */\n      pop\n        /* \"brownie_projects/bebu_finance/contracts/Boardroom/ShareWrapper.sol\":792:1153  function withdraw(uint256 amount) public virtual {... */\n      pop\n      jump\t// out\n        /* \"brownie_projects/bebu_finance/contracts/Boardroom/ShareWrapper.sol\":550:786  function stake(uint256 amount) public virtual {... */\n    tag_23:\n        /* \"brownie_projects/bebu_finance/contracts/Boardroom/ShareWrapper.sol\":621:633  _totalSupply */\n      sload(0x01)\n        /* \"brownie_projects/bebu_finance/contracts/Boardroom/ShareWrapper.sol\":621:645  _totalSupply.add(amount) */\n      tag_40\n      swap1\n        /* \"brownie_projects/bebu_finance/contracts/Boardroom/ShareWrapper.sol\":638:644  amount */\n      dup3\n        /* \"brownie_projects/bebu_finance/contracts/Boardroom/ShareWrapper.sol\":621:637  _totalSupply.add */\n      tag_41\n        /* \"brownie_projects/bebu_finance/contracts/Boardroom/ShareWrapper.sol\":621:645  _totalSupply.add(amount) */\n      jump\t// in\n    tag_40:\n        /* \"brownie_projects/bebu_finance/contracts/Boardroom/ShareWrapper.sol\":606:618  _totalSupply */\n      0x01\n        /* \"brownie_projects/bebu_finance/contracts/Boardroom/ShareWrapper.sol\":606:645  _totalSupply = _totalSupply.add(amount) */\n      sstore\n        /* \"brownie_projects/bebu_finance/contracts/Boardroom/ShareWrapper.sol\":689:699  msg.sender */\n      caller\n        /* \"brownie_projects/bebu_finance/contracts/Boardroom/ShareWrapper.sol\":679:700  _balances[msg.sender] */\n      0x00\n      swap1\n      dup2\n      mstore\n        /* \"brownie_projects/bebu_finance/contracts/Boardroom/ShareWrapper.sol\":679:688  _balances */\n      0x02\n        /* \"brownie_projects/bebu_finance/contracts/Boardroom/ShareWrapper.sol\":679:700  _balances[msg.sender] */\n      0x20\n      mstore\n      0x40\n      swap1\n      keccak256\n      sload\n        /* \"brownie_projects/bebu_finance/contracts/Boardroom/ShareWrapper.sol\":679:712  _balances[msg.sender].add(amount) */\n      tag_42\n      swap1\n        /* \"brownie_projects/bebu_finance/contracts/Boardroom/ShareWrapper.sol\":705:711  amount */\n      dup3\n        /* \"brownie_projects/bebu_finance/contracts/Boardroom/ShareWrapper.sol\":679:704  _balances[msg.sender].add */\n      tag_41\n        /* \"brownie_projects/bebu_finance/contracts/Boardroom/ShareWrapper.sol\":679:712  _balances[msg.sender].add(amount) */\n      jump\t// in\n    tag_42:\n        /* \"brownie_projects/bebu_finance/contracts/Boardroom/ShareWrapper.sol\":665:675  msg.sender */\n      caller\n        /* \"brownie_projects/bebu_finance/contracts/Boardroom/ShareWrapper.sol\":655:676  _balances[msg.sender] */\n      0x00\n      dup2\n      dup2\n      mstore\n        /* \"brownie_projects/bebu_finance/contracts/Boardroom/ShareWrapper.sol\":655:664  _balances */\n      0x02\n        /* \"brownie_projects/bebu_finance/contracts/Boardroom/ShareWrapper.sol\":655:676  _balances[msg.sender] */\n      0x20\n      mstore\n      0x40\n      dup2\n      keccak256\n        /* \"brownie_projects/bebu_finance/contracts/Boardroom/ShareWrapper.sol\":655:712  _balances[msg.sender] = _balances[msg.sender].add(amount) */\n      swap3\n      swap1\n      swap3\n      sstore\n        /* \"brownie_projects/bebu_finance/contracts/Boardroom/ShareWrapper.sol\":722:727  share */\n      swap1\n      sload\n        /* \"brownie_projects/bebu_finance/contracts/Boardroom/ShareWrapper.sol\":722:779  share.safeTransferFrom(msg.sender, address(this), amount) */\n      tag_43\n      swap2\n      sub(shl(0xa0, 0x01), 0x01)\n        /* \"brownie_projects/bebu_finance/contracts/Boardroom/ShareWrapper.sol\":722:727  share */\n      swap1\n      swap2\n      and\n      swap1\n        /* \"brownie_projects/bebu_finance/contracts/Boardroom/ShareWrapper.sol\":765:769  this */\n      address\n        /* \"brownie_projects/bebu_finance/contracts/Boardroom/ShareWrapper.sol\":772:778  amount */\n      dup5\n        /* \"brownie_projects/bebu_finance/contracts/Boardroom/ShareWrapper.sol\":722:744  share.safeTransferFrom */\n      tag_44\n        /* \"brownie_projects/bebu_finance/contracts/Boardroom/ShareWrapper.sol\":722:779  share.safeTransferFrom(msg.sender, address(this), amount) */\n      jump\t// in\n    tag_43:\n        /* \"brownie_projects/bebu_finance/contracts/Boardroom/ShareWrapper.sol\":550:786  function stake(uint256 amount) public virtual {... */\n      pop\n      jump\t// out\n        /* \"brownie_projects/bebu_finance/contracts/utils/math/SafeMath.sol\":3050:3146  function sub(uint256 a, uint256 b) internal pure returns (uint256) {... */\n    tag_34:\n        /* \"brownie_projects/bebu_finance/contracts/utils/math/SafeMath.sol\":3108:3115  uint256 */\n      0x00\n        /* \"brownie_projects/bebu_finance/contracts/utils/math/SafeMath.sol\":3134:3139  a - b */\n      tag_46\n        /* \"brownie_projects/bebu_finance/contracts/utils/math/SafeMath.sol\":3138:3139  b */\n      dup3\n        /* \"brownie_projects/bebu_finance/contracts/utils/math/SafeMath.sol\":3134:3135  a */\n      dup5\n        /* \"brownie_projects/bebu_finance/contracts/utils/math/SafeMath.sol\":3134:3139  a - b */\n      tag_47\n      jump\t// in\n    tag_46:\n        /* \"brownie_projects/bebu_finance/contracts/utils/math/SafeMath.sol\":3127:3139  return a - b */\n      swap4\n        /* \"brownie_projects/bebu_finance/contracts/utils/math/SafeMath.sol\":3050:3146  function sub(uint256 a, uint256 b) internal pure returns (uint256) {... */\n      swap3\n      pop\n      pop\n      pop\n      jump\t// out\n        /* \"brownie_projects/bebu_finance/contracts/utils/token/SafeERC20.sol\":652:827  function safeTransfer(IERC20 token, address to, uint256 value) internal {... */\n    tag_37:\n        /* \"brownie_projects/bebu_finance/contracts/utils/token/SafeERC20.sol\":761:819  abi.encodeWithSelector(token.transfer.selector, to, value) */\n      mload(0x40)\n      sub(shl(0xa0, 0x01), 0x01)\n        /* \"#utility.yul\":1772:1804   */\n      dup4\n      and\n        /* \"brownie_projects/bebu_finance/contracts/utils/token/SafeERC20.sol\":761:819  abi.encodeWithSelector(token.transfer.selector, to, value) */\n      0x24\n      dup3\n      add\n        /* \"#utility.yul\":1754:1805   */\n      mstore\n        /* \"#utility.yul\":1821:1839   */\n      0x44\n      dup2\n      add\n        /* \"#utility.yul\":1814:1848   */\n      dup3\n      swap1\n      mstore\n        /* \"brownie_projects/bebu_finance/contracts/utils/token/SafeERC20.sol\":734:820  _callOptionalReturn(token, abi.encodeWithSelector(token.transfer.selector, to, value)) */\n      tag_49\n      swap1\n        /* \"brownie_projects/bebu_finance/contracts/utils/token/SafeERC20.sol\":754:759  token */\n      dup5\n      swap1\n      shl(0xe0, 0xa9059cbb)\n        /* \"brownie_projects/bebu_finance/contracts/utils/token/SafeERC20.sol\":784:807  token.transfer.selector */\n      swap1\n        /* \"#utility.yul\":1727:1745   */\n      0x64\n      add\n        /* \"brownie_projects/bebu_finance/contracts/utils/token/SafeERC20.sol\":761:819  abi.encodeWithSelector(token.transfer.selector, to, value) */\n    tag_50:\n      0x40\n      dup1\n      mload\n      not(0x1f)\n      dup2\n      dup5\n      sub\n      add\n      dup2\n      mstore\n      swap2\n      swap1\n      mstore\n      0x20\n      dup2\n      add\n      dup1\n      mload\n      sub(shl(0xe0, 0x01), 0x01)\n      and\n      not(sub(shl(0xe0, 0x01), 0x01))\n      swap1\n      swap4\n      and\n      swap3\n      swap1\n      swap3\n      or\n      swap1\n      swap2\n      mstore\n        /* \"brownie_projects/bebu_finance/contracts/utils/token/SafeERC20.sol\":734:753  _callOptionalReturn */\n      tag_52\n        /* \"brownie_projects/bebu_finance/contracts/utils/token/SafeERC20.sol\":734:820  _callOptionalReturn(token, abi.encodeWithSelector(token.transfer.selector, to, value)) */\n      jump\t// in\n    tag_49:\n        /* \"brownie_projects/bebu_finance/contracts/utils/token/SafeERC20.sol\":652:827  function safeTransfer(IERC20 token, address to, uint256 value) internal {... */\n      pop\n      pop\n      pop\n      jump\t// out\n        /* \"brownie_projects/bebu_finance/contracts/utils/math/SafeMath.sol\":2683:2779  function add(uint256 a, uint256 b) internal pure returns (uint256) {... */\n    tag_41:\n        /* \"brownie_projects/bebu_finance/contracts/utils/math/SafeMath.sol\":2741:2748  uint256 */\n      0x00\n        /* \"brownie_projects/bebu_finance/contracts/utils/math/SafeMath.sol\":2767:2772  a + b */\n      tag_46\n        /* \"brownie_projects/bebu_finance/contracts/utils/math/SafeMath.sol\":2771:2772  b */\n      dup3\n        /* \"brownie_projects/bebu_finance/contracts/utils/math/SafeMath.sol\":2767:2768  a */\n      dup5\n        /* \"brownie_projects/bebu_finance/contracts/utils/math/SafeMath.sol\":2767:2772  a + b */\n      tag_55\n      jump\t// in\n        /* \"brownie_projects/bebu_finance/contracts/utils/token/SafeERC20.sol\":833:1036  function safeTransferFrom(IERC20 token, address from, address to, uint256 value) internal {... */\n    tag_44:\n        /* \"brownie_projects/bebu_finance/contracts/utils/token/SafeERC20.sol\":960:1028  abi.encodeWithSelector(token.transferFrom.selector, from, to, value) */\n      mload(0x40)\n      sub(shl(0xa0, 0x01), 0x01)\n        /* \"#utility.yul\":2250:2265   */\n      dup1\n      dup6\n      and\n        /* \"brownie_projects/bebu_finance/contracts/utils/token/SafeERC20.sol\":960:1028  abi.encodeWithSelector(token.transferFrom.selector, from, to, value) */\n      0x24\n      dup4\n      add\n        /* \"#utility.yul\":2232:2266   */\n      mstore\n        /* \"#utility.yul\":2302:2317   */\n      dup4\n      and\n        /* \"#utility.yul\":2282:2300   */\n      0x44\n      dup3\n      add\n        /* \"#utility.yul\":2275:2318   */\n      mstore\n        /* \"#utility.yul\":2334:2352   */\n      0x64\n      dup2\n      add\n        /* \"#utility.yul\":2327:2361   */\n      dup3\n      swap1\n      mstore\n        /* \"brownie_projects/bebu_finance/contracts/utils/token/SafeERC20.sol\":933:1029  _callOptionalReturn(token, abi.encodeWithSelector(token.transferFrom.selector, from, to, value)) */\n      tag_57\n      swap1\n        /* \"brownie_projects/bebu_finance/contracts/utils/token/SafeERC20.sol\":953:958  token */\n      dup6\n      swap1\n      shl(0xe0, 0x23b872dd)\n        /* \"brownie_projects/bebu_finance/contracts/utils/token/SafeERC20.sol\":983:1010  token.transferFrom.selector */\n      swap1\n        /* \"#utility.yul\":2167:2185   */\n      0x84\n      add\n        /* \"brownie_projects/bebu_finance/contracts/utils/token/SafeERC20.sol\":960:1028  abi.encodeWithSelector(token.transferFrom.selector, from, to, value) */\n      tag_50\n        /* \"#utility.yul\":1992:2367   */\n      jump\n        /* \"brownie_projects/bebu_finance/contracts/utils/token/SafeERC20.sol\":933:1029  _callOptionalReturn(token, abi.encodeWithSelector(token.transferFrom.selector, from, to, value)) */\n    tag_57:\n        /* \"brownie_projects/bebu_finance/contracts/utils/token/SafeERC20.sol\":833:1036  function safeTransferFrom(IERC20 token, address from, address to, uint256 value) internal {... */\n      pop\n      pop\n      pop\n      pop\n      jump\t// out\n        /* \"brownie_projects/bebu_finance/contracts/utils/token/SafeERC20.sol\":3000:3706  function _callOptionalReturn(IERC20 token, bytes memory data) private {... */\n    tag_52:\n        /* \"brownie_projects/bebu_finance/contracts/utils/token/SafeERC20.sol\":3419:3442  bytes memory returndata */\n      0x00\n        /* \"brownie_projects/bebu_finance/contracts/utils/token/SafeERC20.sol\":3445:3514  address(token).functionCall(data, \"SafeERC20: low-level call failed\") */\n      tag_61\n        /* \"brownie_projects/bebu_finance/contracts/utils/token/SafeERC20.sol\":3473:3477  data */\n      dup3\n        /* \"brownie_projects/bebu_finance/contracts/utils/token/SafeERC20.sol\":3445:3514  address(token).functionCall(data, \"SafeERC20: low-level call failed\") */\n      mload(0x40)\n      dup1\n      0x40\n      add\n      0x40\n      mstore\n      dup1\n      0x20\n      dup2\n      mstore\n      0x20\n      add\n      0x5361666545524332303a206c6f772d6c6576656c2063616c6c206661696c6564\n      dup2\n      mstore\n      pop\n        /* \"brownie_projects/bebu_finance/contracts/utils/token/SafeERC20.sol\":3453:3458  token */\n      dup6\n      sub(shl(0xa0, 0x01), 0x01)\n        /* \"brownie_projects/bebu_finance/contracts/utils/token/SafeERC20.sol\":3445:3472  address(token).functionCall */\n      and\n      tag_62\n      swap1\n        /* \"brownie_projects/bebu_finance/contracts/utils/token/SafeERC20.sol\":3445:3514  address(token).functionCall(data, \"SafeERC20: low-level call failed\") */\n      swap3\n      swap2\n      swap1\n      0xffffffff\n      and\n      jump\t// in\n    tag_61:\n        /* \"brownie_projects/bebu_finance/contracts/utils/token/SafeERC20.sol\":3528:3545  returndata.length */\n      dup1\n      mload\n        /* \"brownie_projects/bebu_finance/contracts/utils/token/SafeERC20.sol\":3419:3514  bytes memory returndata = address(token).functionCall(data, \"SafeERC20: low-level call failed\") */\n      swap1\n      swap2\n      pop\n        /* \"brownie_projects/bebu_finance/contracts/utils/token/SafeERC20.sol\":3528:3549  returndata.length > 0 */\n      iszero\n        /* \"brownie_projects/bebu_finance/contracts/utils/token/SafeERC20.sol\":3524:3700  if (returndata.length > 0) {... */\n      tag_49\n      jumpi\n        /* \"brownie_projects/bebu_finance/contracts/utils/token/SafeERC20.sol\":3623:3633  returndata */\n      dup1\n        /* \"brownie_projects/bebu_finance/contracts/utils/token/SafeERC20.sol\":3612:3642  abi.decode(returndata, (bool)) */\n      dup1\n      0x20\n      add\n      swap1\n      mload\n      dup2\n      add\n      swap1\n      tag_64\n      swap2\n      swap1\n      tag_65\n      jump\t// in\n    tag_64:\n        /* \"brownie_projects/bebu_finance/contracts/utils/token/SafeERC20.sol\":3604:3689  require(abi.decode(returndata, (bool)), \"SafeERC20: ERC20 operation did not succeed\") */\n      tag_49\n      jumpi\n      mload(0x40)\n      shl(0xe5, 0x461bcd)\n      dup2\n      mstore\n        /* \"#utility.yul\":2856:2858   */\n      0x20\n        /* \"brownie_projects/bebu_finance/contracts/utils/token/SafeERC20.sol\":3604:3689  require(abi.decode(returndata, (bool)), \"SafeERC20: ERC20 operation did not succeed\") */\n      0x04\n      dup3\n      add\n        /* \"#utility.yul\":2838:2859   */\n      mstore\n        /* \"#utility.yul\":2895:2897   */\n      0x2a\n        /* \"#utility.yul\":2875:2893   */\n      0x24\n      dup3\n      add\n        /* \"#utility.yul\":2868:2898   */\n      mstore\n        /* \"#utility.yul\":2934:2968   */\n      0x5361666545524332303a204552433230206f7065726174696f6e20646964206e\n        /* \"#utility.yul\":2914:2932   */\n      0x44\n      dup3\n      add\n        /* \"#utility.yul\":2907:2969   */\n      mstore\n      shl(0xb2, 0x1bdd081cdd58d8d95959)\n        /* \"#utility.yul\":2985:3003   */\n      0x64\n      dup3\n      add\n        /* \"#utility.yul\":2978:3018   */\n      mstore\n        /* \"#utility.yul\":3035:3054   */\n      0x84\n      add\n        /* \"brownie_projects/bebu_finance/contracts/utils/token/SafeERC20.sol\":3604:3689  require(abi.decode(returndata, (bool)), \"SafeERC20: ERC20 operation did not succeed\") */\n      tag_31\n        /* \"#utility.yul\":2654:3060   */\n      jump\n        /* \"brownie_projects/bebu_finance/contracts/utils/Address.sol\":4041:4264  function functionCall(... */\n    tag_62:\n        /* \"brownie_projects/bebu_finance/contracts/utils/Address.sol\":4174:4186  bytes memory */\n      0x60\n        /* \"brownie_projects/bebu_finance/contracts/utils/Address.sol\":4205:4257  functionCallWithValue(target, data, 0, errorMessage) */\n      tag_70\n        /* \"brownie_projects/bebu_finance/contracts/utils/Address.sol\":4227:4233  target */\n      dup5\n        /* \"brownie_projects/bebu_finance/contracts/utils/Address.sol\":4235:4239  data */\n      dup5\n        /* \"brownie_projects/bebu_finance/contracts/utils/Address.sol\":4241:4242  0 */\n      0x00\n        /* \"brownie_projects/bebu_finance/contracts/utils/Address.sol\":4244:4256  errorMessage */\n      dup6\n        /* \"brownie_projects/bebu_finance/contracts/utils/Address.sol\":4205:4226  functionCallWithValue */\n      tag_71\n        /* \"brownie_projects/bebu_finance/contracts/utils/Address.sol\":4205:4257  functionCallWithValue(target, data, 0, errorMessage) */\n      jump\t// in\n    tag_70:\n        /* \"brownie_projects/bebu_finance/contracts/utils/Address.sol\":4198:4257  return functionCallWithValue(target, data, 0, errorMessage) */\n      swap5\n        /* \"brownie_projects/bebu_finance/contracts/utils/Address.sol\":4041:4264  function functionCall(... */\n      swap4\n      pop\n      pop\n      pop\n      pop\n      jump\t// out\n        /* \"brownie_projects/bebu_finance/contracts/utils/Address.sol\":5098:5544  function functionCallWithValue(... */\n    tag_71:\n        /* \"brownie_projects/bebu_finance/contracts/utils/Address.sol\":5263:5275  bytes memory */\n      0x60\n        /* \"brownie_projects/bebu_finance/contracts/utils/Address.sol\":5320:5325  value */\n      dup3\n        /* \"brownie_projects/bebu_finance/contracts/utils/Address.sol\":5295:5316  address(this).balance */\n      selfbalance\n        /* \"brownie_projects/bebu_finance/contracts/utils/Address.sol\":5295:5325  address(this).balance >= value */\n      lt\n      iszero\n        /* \"brownie_projects/bebu_finance/contracts/utils/Address.sol\":5287:5368  require(address(this).balance >= value, \"Address: insufficient balance for call\") */\n      tag_73\n      jumpi\n      mload(0x40)\n      shl(0xe5, 0x461bcd)\n      dup2\n      mstore\n        /* \"#utility.yul\":3267:3269   */\n      0x20\n        /* \"brownie_projects/bebu_finance/contracts/utils/Address.sol\":5287:5368  require(address(this).balance >= value, \"Address: insufficient balance for call\") */\n      0x04\n      dup3\n      add\n        /* \"#utility.yul\":3249:3270   */\n      mstore\n        /* \"#utility.yul\":3306:3308   */\n      0x26\n        /* \"#utility.yul\":3286:3304   */\n      0x24\n      dup3\n      add\n        /* \"#utility.yul\":3279:3309   */\n      mstore\n        /* \"#utility.yul\":3345:3379   */\n      0x416464726573733a20696e73756666696369656e742062616c616e636520666f\n        /* \"#utility.yul\":3325:3343   */\n      0x44\n      dup3\n      add\n        /* \"#utility.yul\":3318:3380   */\n      mstore\n      shl(0xd2, 0x1c8818d85b1b)\n        /* \"#utility.yul\":3396:3414   */\n      0x64\n      dup3\n      add\n        /* \"#utility.yul\":3389:3425   */\n      mstore\n        /* \"#utility.yul\":3442:3461   */\n      0x84\n      add\n        /* \"brownie_projects/bebu_finance/contracts/utils/Address.sol\":5287:5368  require(address(this).balance >= value, \"Address: insufficient balance for call\") */\n      tag_31\n        /* \"#utility.yul\":3065:3467   */\n      jump\n        /* \"brownie_projects/bebu_finance/contracts/utils/Address.sol\":5287:5368  require(address(this).balance >= value, \"Address: insufficient balance for call\") */\n    tag_73:\n        /* \"brownie_projects/bebu_finance/contracts/utils/Address.sol\":5379:5391  bool success */\n      0x00\n        /* \"brownie_projects/bebu_finance/contracts/utils/Address.sol\":5393:5416  bytes memory returndata */\n      dup1\n        /* \"brownie_projects/bebu_finance/contracts/utils/Address.sol\":5420:5426  target */\n      dup7\n      sub(shl(0xa0, 0x01), 0x01)\n        /* \"brownie_projects/bebu_finance/contracts/utils/Address.sol\":5420:5431  target.call */\n      and\n        /* \"brownie_projects/bebu_finance/contracts/utils/Address.sol\":5439:5444  value */\n      dup6\n        /* \"brownie_projects/bebu_finance/contracts/utils/Address.sol\":5446:5450  data */\n      dup8\n        /* \"brownie_projects/bebu_finance/contracts/utils/Address.sol\":5420:5451  target.call{value: value}(data) */\n      mload(0x40)\n      tag_76\n      swap2\n      swap1\n      tag_77\n      jump\t// in\n    tag_76:\n      0x00\n      mload(0x40)\n      dup1\n      dup4\n      sub\n      dup2\n      dup6\n      dup8\n      gas\n      call\n      swap3\n      pop\n      pop\n      pop\n      returndatasize\n      dup1\n      0x00\n      dup2\n      eq\n      tag_80\n      jumpi\n      mload(0x40)\n      swap2\n      pop\n      and(add(returndatasize, 0x3f), not(0x1f))\n      dup3\n      add\n      0x40\n      mstore\n      returndatasize\n      dup3\n      mstore\n      returndatasize\n      0x00\n      0x20\n      dup5\n      add\n      returndatacopy\n      jump(tag_79)\n    tag_80:\n      0x60\n      swap2\n      pop\n    tag_79:\n      pop\n        /* \"brownie_projects/bebu_finance/contracts/utils/Address.sol\":5378:5451  (bool success, bytes memory returndata) = target.call{value: value}(data) */\n      swap2\n      pop\n      swap2\n      pop\n        /* \"brownie_projects/bebu_finance/contracts/utils/Address.sol\":5468:5537  verifyCallResultFromTarget(target, success, returndata, errorMessage) */\n      tag_81\n        /* \"brownie_projects/bebu_finance/contracts/utils/Address.sol\":5495:5501  target */\n      dup8\n        /* \"brownie_projects/bebu_finance/contracts/utils/Address.sol\":5503:5510  success */\n      dup4\n        /* \"brownie_projects/bebu_finance/contracts/utils/Address.sol\":5512:5522  returndata */\n      dup4\n        /* \"brownie_projects/bebu_finance/contracts/utils/Address.sol\":5524:5536  errorMessage */\n      dup8\n        /* \"brownie_projects/bebu_finance/contracts/utils/Address.sol\":5468:5494  verifyCallResultFromTarget */\n      tag_82\n        /* \"brownie_projects/bebu_finance/contracts/utils/Address.sol\":5468:5537  verifyCallResultFromTarget(target, success, returndata, errorMessage) */\n      jump\t// in\n    tag_81:\n        /* \"brownie_projects/bebu_finance/contracts/utils/Address.sol\":5461:5537  return verifyCallResultFromTarget(target, success, returndata, errorMessage) */\n      swap8\n        /* \"brownie_projects/bebu_finance/contracts/utils/Address.sol\":5098:5544  function functionCallWithValue(... */\n      swap7\n      pop\n      pop\n      pop\n      pop\n      pop\n      pop\n      pop\n      jump\t// out\n        /* \"brownie_projects/bebu_finance/contracts/utils/Address.sol\":7604:8232  function verifyCallResultFromTarget(... */\n    tag_82:\n        /* \"brownie_projects/bebu_finance/contracts/utils/Address.sol\":7784:7796  bytes memory */\n      0x60\n        /* \"brownie_projects/bebu_finance/contracts/utils/Address.sol\":7812:7819  success */\n      dup4\n        /* \"brownie_projects/bebu_finance/contracts/utils/Address.sol\":7808:8226  if (success) {... */\n      iszero\n      tag_84\n      jumpi\n        /* \"brownie_projects/bebu_finance/contracts/utils/Address.sol\":7839:7849  returndata */\n      dup3\n        /* \"brownie_projects/bebu_finance/contracts/utils/Address.sol\":7839:7856  returndata.length */\n      mload\n        /* \"brownie_projects/bebu_finance/contracts/utils/Address.sol\":7860:7861  0 */\n      0x00\n        /* \"brownie_projects/bebu_finance/contracts/utils/Address.sol\":7839:7861  returndata.length == 0 */\n      sub\n        /* \"brownie_projects/bebu_finance/contracts/utils/Address.sol\":7835:8121  if (returndata.length == 0) {... */\n      tag_88\n      jumpi\n      sub(shl(0xa0, 0x01), 0x01)\n        /* \"brownie_projects/bebu_finance/contracts/utils/Address.sol\":1634:1653  account.code.length */\n      dup6\n      and\n      extcodesize\n        /* \"brownie_projects/bebu_finance/contracts/utils/Address.sol\":8046:8106  require(isContract(target), \"Address: call to non-contract\") */\n      tag_88\n      jumpi\n      mload(0x40)\n      shl(0xe5, 0x461bcd)\n      dup2\n      mstore\n        /* \"#utility.yul\":4216:4218   */\n      0x20\n        /* \"brownie_projects/bebu_finance/contracts/utils/Address.sol\":8046:8106  require(isContract(target), \"Address: call to non-contract\") */\n      0x04\n      dup3\n      add\n        /* \"#utility.yul\":4198:4219   */\n      mstore\n        /* \"#utility.yul\":4255:4257   */\n      0x1d\n        /* \"#utility.yul\":4235:4253   */\n      0x24\n      dup3\n      add\n        /* \"#utility.yul\":4228:4258   */\n      mstore\n        /* \"#utility.yul\":4294:4325   */\n      0x416464726573733a2063616c6c20746f206e6f6e2d636f6e7472616374000000\n        /* \"#utility.yul\":4274:4292   */\n      0x44\n      dup3\n      add\n        /* \"#utility.yul\":4267:4326   */\n      mstore\n        /* \"#utility.yul\":4343:4361   */\n      0x64\n      add\n        /* \"brownie_projects/bebu_finance/contracts/utils/Address.sol\":8046:8106  require(isContract(target), \"Address: call to non-contract\") */\n      tag_31\n        /* \"#utility.yul\":4014:4367   */\n      jump\n        /* \"brownie_projects/bebu_finance/contracts/utils/Address.sol\":8046:8106  require(isContract(target), \"Address: call to non-contract\") */\n    tag_88:\n      pop\n        /* \"brownie_projects/bebu_finance/contracts/utils/Address.sol\":8141:8151  returndata */\n      dup2\n        /* \"brownie_projects/bebu_finance/contracts/utils/Address.sol\":8134:8151  return returndata */\n      jump(tag_70)\n        /* \"brownie_projects/bebu_finance/contracts/utils/Address.sol\":7808:8226  if (success) {... */\n    tag_84:\n        /* \"brownie_projects/bebu_finance/contracts/utils/Address.sol\":8182:8215  _revert(returndata, errorMessage) */\n      tag_70\n        /* \"brownie_projects/bebu_finance/contracts/utils/Address.sol\":8190:8200  returndata */\n      dup4\n        /* \"brownie_projects/bebu_finance/contracts/utils/Address.sol\":8202:8214  errorMessage */\n      dup4\n        /* \"brownie_projects/bebu_finance/contracts/utils/Address.sol\":8913:8930  returndata.length */\n      dup2\n      mload\n        /* \"brownie_projects/bebu_finance/contracts/utils/Address.sol\":8913:8934  returndata.length > 0 */\n      iszero\n        /* \"brownie_projects/bebu_finance/contracts/utils/Address.sol\":8909:9288  if (returndata.length > 0) {... */\n      tag_96\n      jumpi\n        /* \"brownie_projects/bebu_finance/contracts/utils/Address.sol\":9141:9151  returndata */\n      dup2\n        /* \"brownie_projects/bebu_finance/contracts/utils/Address.sol\":9135:9152  mload(returndata) */\n      mload\n        /* \"brownie_projects/bebu_finance/contracts/utils/Address.sol\":9197:9212  returndata_size */\n      dup1\n        /* \"brownie_projects/bebu_finance/contracts/utils/Address.sol\":9184:9194  returndata */\n      dup4\n        /* \"brownie_projects/bebu_finance/contracts/utils/Address.sol\":9180:9182  32 */\n      0x20\n        /* \"brownie_projects/bebu_finance/contracts/utils/Address.sol\":9176:9195  add(32, returndata) */\n      add\n        /* \"brownie_projects/bebu_finance/contracts/utils/Address.sol\":9169:9213  revert(add(32, returndata), returndata_size) */\n      revert\n        /* \"brownie_projects/bebu_finance/contracts/utils/Address.sol\":8909:9288  if (returndata.length > 0) {... */\n    tag_96:\n        /* \"brownie_projects/bebu_finance/contracts/utils/Address.sol\":9264:9276  errorMessage */\n      dup1\n        /* \"brownie_projects/bebu_finance/contracts/utils/Address.sol\":9257:9277  revert(errorMessage) */\n      mload(0x40)\n      shl(0xe5, 0x461bcd)\n      dup2\n      mstore\n      0x04\n      add\n      tag_31\n      swap2\n      swap1\n      tag_99\n      jump\t// in\n        /* \"#utility.yul\":196:376   */\n    tag_14:\n        /* \"#utility.yul\":255:261   */\n      0x00\n        /* \"#utility.yul\":308:310   */\n      0x20\n        /* \"#utility.yul\":296:305   */\n      dup3\n        /* \"#utility.yul\":287:294   */\n      dup5\n        /* \"#utility.yul\":283:306   */\n      sub\n        /* \"#utility.yul\":279:311   */\n      slt\n        /* \"#utility.yul\":276:328   */\n      iszero\n      tag_105\n      jumpi\n        /* \"#utility.yul\":324:325   */\n      0x00\n        /* \"#utility.yul\":321:322   */\n      dup1\n        /* \"#utility.yul\":314:326   */\n      revert\n        /* \"#utility.yul\":276:328   */\n    tag_105:\n      pop\n        /* \"#utility.yul\":347:370   */\n      calldataload\n      swap2\n        /* \"#utility.yul\":196:376   */\n      swap1\n      pop\n      jump\t// out\n        /* \"#utility.yul\":381:667   */\n    tag_18:\n        /* \"#utility.yul\":440:446   */\n      0x00\n        /* \"#utility.yul\":493:495   */\n      0x20\n        /* \"#utility.yul\":481:490   */\n      dup3\n        /* \"#utility.yul\":472:479   */\n      dup5\n        /* \"#utility.yul\":468:491   */\n      sub\n        /* \"#utility.yul\":464:496   */\n      slt\n        /* \"#utility.yul\":461:513   */\n      iszero\n      tag_107\n      jumpi\n        /* \"#utility.yul\":509:510   */\n      0x00\n        /* \"#utility.yul\":506:507   */\n      dup1\n        /* \"#utility.yul\":499:511   */\n      revert\n        /* \"#utility.yul\":461:513   */\n    tag_107:\n        /* \"#utility.yul\":535:558   */\n      dup2\n      calldataload\n      sub(shl(0xa0, 0x01), 0x01)\n        /* \"#utility.yul\":587:618   */\n      dup2\n      and\n        /* \"#utility.yul\":577:619   */\n      dup2\n      eq\n        /* \"#utility.yul\":567:637   */\n      tag_46\n      jumpi\n        /* \"#utility.yul\":633:634   */\n      0x00\n        /* \"#utility.yul\":630:631   */\n      dup1\n        /* \"#utility.yul\":623:635   */\n      revert\n        /* \"#utility.yul\":1318:1445   */\n    tag_100:\n        /* \"#utility.yul\":1379:1389   */\n      0x4e487b71\n        /* \"#utility.yul\":1374:1377   */\n      0xe0\n        /* \"#utility.yul\":1370:1390   */\n      shl\n        /* \"#utility.yul\":1367:1368   */\n      0x00\n        /* \"#utility.yul\":1360:1391   */\n      mstore\n        /* \"#utility.yul\":1410:1414   */\n      0x11\n        /* \"#utility.yul\":1407:1408   */\n      0x04\n        /* \"#utility.yul\":1400:1415   */\n      mstore\n        /* \"#utility.yul\":1434:1438   */\n      0x24\n        /* \"#utility.yul\":1431:1432   */\n      0x00\n        /* \"#utility.yul\":1424:1439   */\n      revert\n        /* \"#utility.yul\":1450:1575   */\n    tag_47:\n        /* \"#utility.yul\":1490:1494   */\n      0x00\n        /* \"#utility.yul\":1518:1519   */\n      dup3\n        /* \"#utility.yul\":1515:1516   */\n      dup3\n        /* \"#utility.yul\":1512:1520   */\n      lt\n        /* \"#utility.yul\":1509:1543   */\n      iszero\n      tag_114\n      jumpi\n        /* \"#utility.yul\":1523:1541   */\n      tag_114\n      tag_100\n      jump\t// in\n    tag_114:\n      pop\n        /* \"#utility.yul\":1560:1569   */\n      sub\n      swap1\n        /* \"#utility.yul\":1450:1575   */\n      jump\t// out\n        /* \"#utility.yul\":1859:1987   */\n    tag_55:\n        /* \"#utility.yul\":1899:1902   */\n      0x00\n        /* \"#utility.yul\":1930:1931   */\n      dup3\n        /* \"#utility.yul\":1926:1932   */\n      not\n        /* \"#utility.yul\":1923:1924   */\n      dup3\n        /* \"#utility.yul\":1920:1933   */\n      gt\n        /* \"#utility.yul\":1917:1956   */\n      iszero\n      tag_118\n      jumpi\n        /* \"#utility.yul\":1936:1954   */\n      tag_118\n      tag_100\n      jump\t// in\n    tag_118:\n      pop\n        /* \"#utility.yul\":1972:1981   */\n      add\n      swap1\n        /* \"#utility.yul\":1859:1987   */\n      jump\t// out\n        /* \"#utility.yul\":2372:2649   */\n    tag_65:\n        /* \"#utility.yul\":2439:2445   */\n      0x00\n        /* \"#utility.yul\":2492:2494   */\n      0x20\n        /* \"#utility.yul\":2480:2489   */\n      dup3\n        /* \"#utility.yul\":2471:2478   */\n      dup5\n        /* \"#utility.yul\":2467:2490   */\n      sub\n        /* \"#utility.yul\":2463:2495   */\n      slt\n        /* \"#utility.yul\":2460:2512   */\n      iszero\n      tag_121\n      jumpi\n        /* \"#utility.yul\":2508:2509   */\n      0x00\n        /* \"#utility.yul\":2505:2506   */\n      dup1\n        /* \"#utility.yul\":2498:2510   */\n      revert\n        /* \"#utility.yul\":2460:2512   */\n    tag_121:\n        /* \"#utility.yul\":2540:2549   */\n      dup2\n        /* \"#utility.yul\":2534:2550   */\n      mload\n        /* \"#utility.yul\":2593:2598   */\n      dup1\n        /* \"#utility.yul\":2586:2599   */\n      iszero\n        /* \"#utility.yul\":2579:2600   */\n      iszero\n        /* \"#utility.yul\":2572:2577   */\n      dup2\n        /* \"#utility.yul\":2569:2601   */\n      eq\n        /* \"#utility.yul\":2559:2619   */\n      tag_46\n      jumpi\n        /* \"#utility.yul\":2615:2616   */\n      0x00\n        /* \"#utility.yul\":2612:2613   */\n      dup1\n        /* \"#utility.yul\":2605:2617   */\n      revert\n        /* \"#utility.yul\":3472:3730   */\n    tag_101:\n        /* \"#utility.yul\":3544:3545   */\n      0x00\n        /* \"#utility.yul\":3554:3667   */\n    tag_126:\n        /* \"#utility.yul\":3568:3574   */\n      dup4\n        /* \"#utility.yul\":3565:3566   */\n      dup2\n        /* \"#utility.yul\":3562:3575   */\n      lt\n        /* \"#utility.yul\":3554:3667   */\n      iszero\n      tag_128\n      jumpi\n        /* \"#utility.yul\":3644:3655   */\n      dup2\n      dup2\n      add\n        /* \"#utility.yul\":3638:3656   */\n      mload\n        /* \"#utility.yul\":3625:3636   */\n      dup4\n      dup3\n      add\n        /* \"#utility.yul\":3618:3657   */\n      mstore\n        /* \"#utility.yul\":3590:3592   */\n      0x20\n        /* \"#utility.yul\":3583:3593   */\n      add\n        /* \"#utility.yul\":3554:3667   */\n      jump(tag_126)\n    tag_128:\n        /* \"#utility.yul\":3685:3691   */\n      dup4\n        /* \"#utility.yul\":3682:3683   */\n      dup2\n        /* \"#utility.yul\":3679:3692   */\n      gt\n        /* \"#utility.yul\":3676:3724   */\n      iszero\n      tag_57\n      jumpi\n      pop\n      pop\n        /* \"#utility.yul\":3720:3721   */\n      0x00\n        /* \"#utility.yul\":3702:3718   */\n      swap2\n      add\n        /* \"#utility.yul\":3695:3722   */\n      mstore\n        /* \"#utility.yul\":3472:3730   */\n      jump\t// out\n        /* \"#utility.yul\":3735:4009   */\n    tag_77:\n        /* \"#utility.yul\":3864:3867   */\n      0x00\n        /* \"#utility.yul\":3902:3908   */\n      dup3\n        /* \"#utility.yul\":3896:3909   */\n      mload\n        /* \"#utility.yul\":3918:3971   */\n      tag_131\n        /* \"#utility.yul\":3964:3970   */\n      dup2\n        /* \"#utility.yul\":3959:3962   */\n      dup5\n        /* \"#utility.yul\":3952:3956   */\n      0x20\n        /* \"#utility.yul\":3944:3950   */\n      dup8\n        /* \"#utility.yul\":3940:3957   */\n      add\n        /* \"#utility.yul\":3918:3971   */\n      tag_101\n      jump\t// in\n    tag_131:\n        /* \"#utility.yul\":3987:4003   */\n      swap2\n      swap1\n      swap2\n      add\n      swap3\n        /* \"#utility.yul\":3735:4009   */\n      swap2\n      pop\n      pop\n      jump\t// out\n        /* \"#utility.yul\":4372:4755   */\n    tag_99:\n        /* \"#utility.yul\":4521:4523   */\n      0x20\n        /* \"#utility.yul\":4510:4519   */\n      dup2\n        /* \"#utility.yul\":4503:4524   */\n      mstore\n        /* \"#utility.yul\":4484:4488   */\n      0x00\n        /* \"#utility.yul\":4553:4559   */\n      dup3\n        /* \"#utility.yul\":4547:4560   */\n      mload\n        /* \"#utility.yul\":4596:4602   */\n      dup1\n        /* \"#utility.yul\":4591:4593   */\n      0x20\n        /* \"#utility.yul\":4580:4589   */\n      dup5\n        /* \"#utility.yul\":4576:4594   */\n      add\n        /* \"#utility.yul\":4569:4603   */\n      mstore\n        /* \"#utility.yul\":4612:4678   */\n      tag_134\n        /* \"#utility.yul\":4671:4677   */\n      dup2\n        /* \"#utility.yul\":4666:4668   */\n      0x40\n        /* \"#utility.yul\":4655:4664   */\n      dup6\n        /* \"#utility.yul\":4651:4669   */\n      add\n        /* \"#utility.yul\":4646:4648   */\n      0x20\n        /* \"#utility.yul\":4638:4644   */\n      dup8\n        /* \"#utility.yul\":4634:4649   */\n      add\n        /* \"#utility.yul\":4612:4678   */\n      tag_101\n      jump\t// in\n    tag_134:\n        /* \"#utility.yul\":4739:4741   */\n      0x1f\n        /* \"#utility.yul\":4718:4733   */\n      add\n      not(0x1f)\n        /* \"#utility.yul\":4714:4743   */\n      and\n        /* \"#utility.yul\":4699:4744   */\n      swap2\n      swap1\n      swap2\n      add\n        /* \"#utility.yul\":4746:4748   */\n      0x40\n        /* \"#utility.yul\":4695:4749   */\n      add\n      swap3\n        /* \"#utility.yul\":4372:4755   */\n      swap2\n      pop\n      pop\n      jump\t// out\n\n    auxdata: 0xa2646970667358221220d8ce2afce8a828840f2e6a30a3fd06da8a9819ec83c1932d65ff488e3371b83864736f6c634300080d0033\n}\n",
				"bytecode": {
					"linkReferences": {},
					"object": "608060405234801561001057600080fd5b50610696806100206000396000f3fe608060405234801561001057600080fd5b50600436106100575760003560e01c806318160ddd1461005c5780632e1a7d4d1461007357806370a0823114610088578063a694fc3a146100b1578063a8d5fd65146100c4575b600080fd5b6001545b6040519081526020015b60405180910390f35b61008661008136600461053c565b6100ef565b005b610060610096366004610555565b6001600160a01b031660009081526002602052604090205490565b6100866100bf36600461053c565b6101bc565b6000546100d7906001600160a01b031681565b6040516001600160a01b03909116815260200161006a565b33600090815260026020526040902054818110156101735760405162461bcd60e51b815260206004820152603660248201527f426f617264726f6f6d3a207769746864726177207265717565737420677265616044820152751d195c881d1a185b881cdd185ad95908185b5bdd5b9d60521b60648201526084015b60405180910390fd5b6001546101809083610215565b60015561018d8183610215565b3360008181526002602052604081209290925590546101b8916001600160a01b039091169084610228565b5050565b6001546101c99082610290565b600155336000908152600260205260409020546101e69082610290565b336000818152600260205260408120929092559054610212916001600160a01b0390911690308461029c565b50565b60006102218284610594565b9392505050565b6040516001600160a01b03831660248201526044810182905261028b90849063a9059cbb60e01b906064015b60408051601f198184030181529190526020810180516001600160e01b03166001600160e01b0319909316929092179091526102da565b505050565b600061022182846105ab565b6040516001600160a01b03808516602483015283166044820152606481018290526102d49085906323b872dd60e01b90608401610254565b50505050565b600061032f826040518060400160405280602081526020017f5361666545524332303a206c6f772d6c6576656c2063616c6c206661696c6564815250856001600160a01b03166103ac9092919063ffffffff16565b80519091501561028b578080602001905181019061034d91906105c3565b61028b5760405162461bcd60e51b815260206004820152602a60248201527f5361666545524332303a204552433230206f7065726174696f6e20646964206e6044820152691bdd081cdd58d8d9595960b21b606482015260840161016a565b60606103bb84846000856103c3565b949350505050565b6060824710156104245760405162461bcd60e51b815260206004820152602660248201527f416464726573733a20696e73756666696369656e742062616c616e636520666f6044820152651c8818d85b1b60d21b606482015260840161016a565b600080866001600160a01b031685876040516104409190610611565b60006040518083038185875af1925050503d806000811461047d576040519150601f19603f3d011682016040523d82523d6000602084013e610482565b606091505b50915091506104938783838761049e565b979650505050505050565b6060831561050d578251600003610506576001600160a01b0385163b6105065760405162461bcd60e51b815260206004820152601d60248201527f416464726573733a2063616c6c20746f206e6f6e2d636f6e7472616374000000604482015260640161016a565b50816103bb565b6103bb83838151156105225781518083602001fd5b8060405162461bcd60e51b815260040161016a919061062d565b60006020828403121561054e57600080fd5b5035919050565b60006020828403121561056757600080fd5b81356001600160a01b038116811461022157600080fd5b634e487b7160e01b600052601160045260246000fd5b6000828210156105a6576105a661057e565b500390565b600082198211156105be576105be61057e565b500190565b6000602082840312156105d557600080fd5b8151801515811461022157600080fd5b60005b838110156106005781810151838201526020016105e8565b838111156102d45750506000910152565b600082516106238184602087016105e5565b9190910192915050565b602081526000825180602084015261064c8160408501602087016105e5565b601f01601f1916919091016040019291505056fea2646970667358221220d8ce2afce8a828840f2e6a30a3fd06da8a9819ec83c1932d65ff488e3371b83864736f6c634300080d0033",
					"opcodes": "PUSH1 0x80 PUSH1 0x40 MSTORE CALLVALUE DUP1 ISZERO PUSH2 0x10 JUMPI PUSH1 0x0 DUP1 REVERT JUMPDEST POP PUSH2 0x696 DUP1 PUSH2 0x20 PUSH1 0x0 CODECOPY PUSH1 0x0 RETURN INVALID PUSH1 0x80 PUSH1 0x40 MSTORE CALLVALUE DUP1 ISZERO PUSH2 0x10 JUMPI PUSH1 0x0 DUP1 REVERT JUMPDEST POP PUSH1 0x4 CALLDATASIZE LT PUSH2 0x57 JUMPI PUSH1 0x0 CALLDATALOAD PUSH1 0xE0 SHR DUP1 PUSH4 0x18160DDD EQ PUSH2 0x5C JUMPI DUP1 PUSH4 0x2E1A7D4D EQ PUSH2 0x73 JUMPI DUP1 PUSH4 0x70A08231 EQ PUSH2 0x88 JUMPI DUP1 PUSH4 0xA694FC3A EQ PUSH2 0xB1 JUMPI DUP1 PUSH4 0xA8D5FD65 EQ PUSH2 0xC4 JUMPI JUMPDEST PUSH1 0x0 DUP1 REVERT JUMPDEST PUSH1 0x1 SLOAD JUMPDEST PUSH1 0x40 MLOAD SWAP1 DUP2 MSTORE PUSH1 0x20 ADD JUMPDEST PUSH1 0x40 MLOAD DUP1 SWAP2 SUB SWAP1 RETURN JUMPDEST PUSH2 0x86 PUSH2 0x81 CALLDATASIZE PUSH1 0x4 PUSH2 0x53C JUMP JUMPDEST PUSH2 0xEF JUMP JUMPDEST STOP JUMPDEST PUSH2 0x60 PUSH2 0x96 CALLDATASIZE PUSH1 0x4 PUSH2 0x555 JUMP JUMPDEST PUSH1 0x1 PUSH1 0x1 PUSH1 0xA0 SHL SUB AND PUSH1 0x0 SWAP1 DUP2 MSTORE PUSH1 0x2 PUSH1 0x20 MSTORE PUSH1 0x40 SWAP1 KECCAK256 SLOAD SWAP1 JUMP JUMPDEST PUSH2 0x86 PUSH2 0xBF CALLDATASIZE PUSH1 0x4 PUSH2 0x53C JUMP JUMPDEST PUSH2 0x1BC JUMP JUMPDEST PUSH1 0x0 SLOAD PUSH2 0xD7 SWAP1 PUSH1 0x1 PUSH1 0x1 PUSH1 0xA0 SHL SUB AND DUP2 JUMP JUMPDEST PUSH1 0x40 MLOAD PUSH1 0x1 PUSH1 0x1 PUSH1 0xA0 SHL SUB SWAP1 SWAP2 AND DUP2 MSTORE PUSH1 0x20 ADD PUSH2 0x6A JUMP JUMPDEST CALLER PUSH1 0x0 SWAP1 DUP2 MSTORE PUSH1 0x2 PUSH1 0x20 MSTORE PUSH1 0x40 SWAP1 KECCAK256 SLOAD DUP2 DUP2 LT ISZERO PUSH2 0x173 JUMPI PUSH1 0x40 MLOAD PUSH3 0x461BCD PUSH1 0xE5 SHL DUP2 MSTORE PUSH1 0x20 PUSH1 0x4 DUP3 ADD MSTORE PUSH1 0x36 PUSH1 0x24 DUP3 ADD MSTORE PUSH32 0x426F617264726F6F6D3A20776974686472617720726571756573742067726561 PUSH1 0x44 DUP3 ADD MSTORE PUSH22 0x1D195C881D1A185B881CDD185AD95908185B5BDD5B9D PUSH1 0x52 SHL PUSH1 0x64 DUP3 ADD MSTORE PUSH1 0x84 ADD JUMPDEST PUSH1 0x40 MLOAD DUP1 SWAP2 SUB SWAP1 REVERT JUMPDEST PUSH1 0x1 SLOAD PUSH2 0x180 SWAP1 DUP4 PUSH2 0x215 JUMP JUMPDEST PUSH1 0x1 SSTORE PUSH2 0x18D DUP2 DUP4 PUSH2 0x215 JUMP JUMPDEST CALLER PUSH1 0x0 DUP2 DUP2 MSTORE PUSH1 0x2 PUSH1 0x20 MSTORE PUSH1 0x40 DUP2 KECCAK256 SWAP3 SWAP1 SWAP3 SSTORE SWAP1 SLOAD PUSH2 0x1B8 SWAP2 PUSH1 0x1 PUSH1 0x1 PUSH1 0xA0 SHL SUB SWAP1 SWAP2 AND SWAP1 DUP5 PUSH2 0x228 JUMP JUMPDEST POP POP JUMP JUMPDEST PUSH1 0x1 SLOAD PUSH2 0x1C9 SWAP1 DUP3 PUSH2 0x290 JUMP JUMPDEST PUSH1 0x1 SSTORE CALLER PUSH1 0x0 SWAP1 DUP2 MSTORE PUSH1 0x2 PUSH1 0x20 MSTORE PUSH1 0x40 SWAP1 KECCAK256 SLOAD PUSH2 0x1E6 SWAP1 DUP3 PUSH2 0x290 JUMP JUMPDEST CALLER PUSH1 0x0 DUP2 DUP2 MSTORE PUSH1 0x2 PUSH1 0x20 MSTORE PUSH1 0x40 DUP2 KECCAK256 SWAP3 SWAP1 SWAP3 SSTORE SWAP1 SLOAD PUSH2 0x212 SWAP2 PUSH1 0x1 PUSH1 0x1 PUSH1 0xA0 SHL SUB SWAP1 SWAP2 AND SWAP1 ADDRESS DUP5 PUSH2 0x29C JUMP JUMPDEST POP JUMP JUMPDEST PUSH1 0x0 PUSH2 0x221 DUP3 DUP5 PUSH2 0x594 JUMP JUMPDEST SWAP4 SWAP3 POP POP POP JUMP JUMPDEST PUSH1 0x40 MLOAD PUSH1 0x1 PUSH1 0x1 PUSH1 0xA0 SHL SUB DUP4 AND PUSH1 0x24 DUP3 ADD MSTORE PUSH1 0x44 DUP2 ADD DUP3 SWAP1 MSTORE PUSH2 0x28B SWAP1 DUP5 SWAP1 PUSH4 0xA9059CBB PUSH1 0xE0 SHL SWAP1 PUSH1 0x64 ADD JUMPDEST PUSH1 0x40 DUP1 MLOAD PUSH1 0x1F NOT DUP2 DUP5 SUB ADD DUP2 MSTORE SWAP2 SWAP1 MSTORE PUSH1 0x20 DUP2 ADD DUP1 MLOAD PUSH1 0x1 PUSH1 0x1 PUSH1 0xE0 SHL SUB AND PUSH1 0x1 PUSH1 0x1 PUSH1 0xE0 SHL SUB NOT SWAP1 SWAP4 AND SWAP3 SWAP1 SWAP3 OR SWAP1 SWAP2 MSTORE PUSH2 0x2DA JUMP JUMPDEST POP POP POP JUMP JUMPDEST PUSH1 0x0 PUSH2 0x221 DUP3 DUP5 PUSH2 0x5AB JUMP JUMPDEST PUSH1 0x40 MLOAD PUSH1 0x1 PUSH1 0x1 PUSH1 0xA0 SHL SUB DUP1 DUP6 AND PUSH1 0x24 DUP4 ADD MSTORE DUP4 AND PUSH1 0x44 DUP3 ADD MSTORE PUSH1 0x64 DUP2 ADD DUP3 SWAP1 MSTORE PUSH2 0x2D4 SWAP1 DUP6 SWAP1 PUSH4 0x23B872DD PUSH1 0xE0 SHL SWAP1 PUSH1 0x84 ADD PUSH2 0x254 JUMP JUMPDEST POP POP POP POP JUMP JUMPDEST PUSH1 0x0 PUSH2 0x32F DUP3 PUSH1 0x40 MLOAD DUP1 PUSH1 0x40 ADD PUSH1 0x40 MSTORE DUP1 PUSH1 0x20 DUP2 MSTORE PUSH1 0x20 ADD PUSH32 0x5361666545524332303A206C6F772D6C6576656C2063616C6C206661696C6564 DUP2 MSTORE POP DUP6 PUSH1 0x1 PUSH1 0x1 PUSH1 0xA0 SHL SUB AND PUSH2 0x3AC SWAP1 SWAP3 SWAP2 SWAP1 PUSH4 0xFFFFFFFF AND JUMP JUMPDEST DUP1 MLOAD SWAP1 SWAP2 POP ISZERO PUSH2 0x28B JUMPI DUP1 DUP1 PUSH1 0x20 ADD SWAP1 MLOAD DUP2 ADD SWAP1 PUSH2 0x34D SWAP2 SWAP1 PUSH2 0x5C3 JUMP JUMPDEST PUSH2 0x28B JUMPI PUSH1 0x40 MLOAD PUSH3 0x461BCD PUSH1 0xE5 SHL DUP2 MSTORE PUSH1 0x20 PUSH1 0x4 DUP3 ADD MSTORE PUSH1 0x2A PUSH1 0x24 DUP3 ADD MSTORE PUSH32 0x5361666545524332303A204552433230206F7065726174696F6E20646964206E PUSH1 0x44 DUP3 ADD MSTORE PUSH10 0x1BDD081CDD58D8D95959 PUSH1 0xB2 SHL PUSH1 0x64 DUP3 ADD MSTORE PUSH1 0x84 ADD PUSH2 0x16A JUMP JUMPDEST PUSH1 0x60 PUSH2 0x3BB DUP5 DUP5 PUSH1 0x0 DUP6 PUSH2 0x3C3 JUMP JUMPDEST SWAP5 SWAP4 POP POP POP POP JUMP JUMPDEST PUSH1 0x60 DUP3 SELFBALANCE LT ISZERO PUSH2 0x424 JUMPI PUSH1 0x40 MLOAD PUSH3 0x461BCD PUSH1 0xE5 SHL DUP2 MSTORE PUSH1 0x20 PUSH1 0x4 DUP3 ADD MSTORE PUSH1 0x26 PUSH1 0x24 DUP3 ADD MSTORE PUSH32 0x416464726573733A20696E73756666696369656E742062616C616E636520666F PUSH1 0x44 DUP3 ADD MSTORE PUSH6 0x1C8818D85B1B PUSH1 0xD2 SHL PUSH1 0x64 DUP3 ADD MSTORE PUSH1 0x84 ADD PUSH2 0x16A JUMP JUMPDEST PUSH1 0x0 DUP1 DUP7 PUSH1 0x1 PUSH1 0x1 PUSH1 0xA0 SHL SUB AND DUP6 DUP8 PUSH1 0x40 MLOAD PUSH2 0x440 SWAP2 SWAP1 PUSH2 0x611 JUMP JUMPDEST PUSH1 0x0 PUSH1 0x40 MLOAD DUP1 DUP4 SUB DUP2 DUP6 DUP8 GAS CALL SWAP3 POP POP POP RETURNDATASIZE DUP1 PUSH1 0x0 DUP2 EQ PUSH2 0x47D JUMPI PUSH1 0x40 MLOAD SWAP2 POP PUSH1 0x1F NOT PUSH1 0x3F RETURNDATASIZE ADD AND DUP3 ADD PUSH1 0x40 MSTORE RETURNDATASIZE DUP3 MSTORE RETURNDATASIZE PUSH1 0x0 PUSH1 0x20 DUP5 ADD RETURNDATACOPY PUSH2 0x482 JUMP JUMPDEST PUSH1 0x60 SWAP2 POP JUMPDEST POP SWAP2 POP SWAP2 POP PUSH2 0x493 DUP8 DUP4 DUP4 DUP8 PUSH2 0x49E JUMP JUMPDEST SWAP8 SWAP7 POP POP POP POP POP POP POP JUMP JUMPDEST PUSH1 0x60 DUP4 ISZERO PUSH2 0x50D JUMPI DUP3 MLOAD PUSH1 0x0 SUB PUSH2 0x506 JUMPI PUSH1 0x1 PUSH1 0x1 PUSH1 0xA0 SHL SUB DUP6 AND EXTCODESIZE PUSH2 0x506 JUMPI PUSH1 0x40 MLOAD PUSH3 0x461BCD PUSH1 0xE5 SHL DUP2 MSTORE PUSH1 0x20 PUSH1 0x4 DUP3 ADD MSTORE PUSH1 0x1D PUSH1 0x24 DUP3 ADD MSTORE PUSH32 0x416464726573733A2063616C6C20746F206E6F6E2D636F6E7472616374000000 PUSH1 0x44 DUP3 ADD MSTORE PUSH1 0x64 ADD PUSH2 0x16A JUMP JUMPDEST POP DUP2 PUSH2 0x3BB JUMP JUMPDEST PUSH2 0x3BB DUP4 DUP4 DUP2 MLOAD ISZERO PUSH2 0x522 JUMPI DUP2 MLOAD DUP1 DUP4 PUSH1 0x20 ADD REVERT JUMPDEST DUP1 PUSH1 0x40 MLOAD PUSH3 0x461BCD PUSH1 0xE5 SHL DUP2 MSTORE PUSH1 0x4 ADD PUSH2 0x16A SWAP2 SWAP1 PUSH2 0x62D JUMP JUMPDEST PUSH1 0x0 PUSH1 0x20 DUP3 DUP5 SUB SLT ISZERO PUSH2 0x54E JUMPI PUSH1 0x0 DUP1 REVERT JUMPDEST POP CALLDATALOAD SWAP2 SWAP1 POP JUMP JUMPDEST PUSH1 0x0 PUSH1 0x20 DUP3 DUP5 SUB SLT ISZERO PUSH2 0x567 JUMPI PUSH1 0x0 DUP1 REVERT JUMPDEST DUP2 CALLDATALOAD PUSH1 0x1 PUSH1 0x1 PUSH1 0xA0 SHL SUB DUP2 AND DUP2 EQ PUSH2 0x221 JUMPI PUSH1 0x0 DUP1 REVERT JUMPDEST PUSH4 0x4E487B71 PUSH1 0xE0 SHL PUSH1 0x0 MSTORE PUSH1 0x11 PUSH1 0x4 MSTORE PUSH1 0x24 PUSH1 0x0 REVERT JUMPDEST PUSH1 0x0 DUP3 DUP3 LT ISZERO PUSH2 0x5A6 JUMPI PUSH2 0x5A6 PUSH2 0x57E JUMP JUMPDEST POP SUB SWAP1 JUMP JUMPDEST PUSH1 0x0 DUP3 NOT DUP3 GT ISZERO PUSH2 0x5BE JUMPI PUSH2 0x5BE PUSH2 0x57E JUMP JUMPDEST POP ADD SWAP1 JUMP JUMPDEST PUSH1 0x0 PUSH1 0x20 DUP3 DUP5 SUB SLT ISZERO PUSH2 0x5D5 JUMPI PUSH1 0x0 DUP1 REVERT JUMPDEST DUP2 MLOAD DUP1 ISZERO ISZERO DUP2 EQ PUSH2 0x221 JUMPI PUSH1 0x0 DUP1 REVERT JUMPDEST PUSH1 0x0 JUMPDEST DUP4 DUP2 LT ISZERO PUSH2 0x600 JUMPI DUP2 DUP2 ADD MLOAD DUP4 DUP3 ADD MSTORE PUSH1 0x20 ADD PUSH2 0x5E8 JUMP JUMPDEST DUP4 DUP2 GT ISZERO PUSH2 0x2D4 JUMPI POP POP PUSH1 0x0 SWAP2 ADD MSTORE JUMP JUMPDEST PUSH1 0x0 DUP3 MLOAD PUSH2 0x623 DUP2 DUP5 PUSH1 0x20 DUP8 ADD PUSH2 0x5E5 JUMP JUMPDEST SWAP2 SWAP1 SWAP2 ADD SWAP3 SWAP2 POP POP JUMP JUMPDEST PUSH1 0x20 DUP2 MSTORE PUSH1 0x0 DUP3 MLOAD DUP1 PUSH1 0x20 DUP5 ADD MSTORE PUSH2 0x64C DUP2 PUSH1 0x40 DUP6 ADD PUSH1 0x20 DUP8 ADD PUSH2 0x5E5 JUMP JUMPDEST PUSH1 0x1F ADD PUSH1 0x1F NOT AND SWAP2 SWAP1 SWAP2 ADD PUSH1 0x40 ADD SWAP3 SWAP2 POP POP JUMP INVALID LOG2 PUSH5 0x6970667358 0x22 SLT KECCAK256 0xD8 0xCE 0x2A 0xFC 0xE8 0xA8 0x28 DUP5 0xF 0x2E PUSH11 0x30A3FD06DA8A9819EC83C1 SWAP4 0x2D PUSH6 0xFF488E3371B8 CODESIZE PUSH5 0x736F6C6343 STOP ADDMOD 0xD STOP CALLER "
				},
				"gasEstimates": {
					"creation": {
						"codeDepositCost": "337200",
						"executionCost": "374",
						"totalCost": "337574"
					},
					"external": {
						"balanceOf(address)": "2513",
						"share()": "2403",
						"stake(uint256)": "infinite",
						"totalSupply()": "2248",
						"withdraw(uint256)": "infinite"
					}
				},
				"methodIdentifiers": {
					"balanceOf(address)": "70a08231",
					"share()": "a8d5fd65",
					"stake(uint256)": "a694fc3a",
					"totalSupply()": "18160ddd",
					"withdraw(uint256)": "2e1a7d4d"
				}
			},
			"storageLayout": {
				"storage": [
					{
						"astId": 1061,
						"contract": "brownie_projects/bebu_finance/contracts/Boardroom/ShareWrapper.sol:ShareWrapper",
						"label": "share",
						"offset": 0,
						"slot": "0",
						"type": "t_contract(IERC20)2083"
					},
					{
						"astId": 1063,
						"contract": "brownie_projects/bebu_finance/contracts/Boardroom/ShareWrapper.sol:ShareWrapper",
						"label": "_totalSupply",
						"offset": 0,
						"slot": "1",
						"type": "t_uint256"
					},
					{
						"astId": 1067,
						"contract": "brownie_projects/bebu_finance/contracts/Boardroom/ShareWrapper.sol:ShareWrapper",
						"label": "_balances",
						"offset": 0,
						"slot": "2",
						"type": "t_mapping(t_address,t_uint256)"
					}
				],
				"types": {
					"t_address": {
						"encoding": "inplace",
						"label": "address",
						"numberOfBytes": "20"
					},
					"t_contract(IERC20)2083": {
						"encoding": "inplace",
						"label": "contract IERC20",
						"numberOfBytes": "20"
					},
					"t_mapping(t_address,t_uint256)": {
						"encoding": "mapping",
						"key": "t_address",
						"label": "mapping(address => uint256)",
						"numberOfBytes": "32",
						"value": "t_uint256"
					},
					"t_uint256": {
						"encoding": "inplace",
						"label": "uint256",
						"numberOfBytes": "32"
					}
				}
			},
			"userdoc": {
				"kind": "user",
				"methods": {},
				"version": 1
			}
		}
	}
}