{
	"brownie_projects/bebu_finance/contracts/utils/access/Withdrawable.sol": {
		"Withdrawable": {
			"abi": [
				{
					"anonymous": false,
					"inputs": [
						{
							"indexed": true,
							"internalType": "address",
							"name": "_from",
							"type": "address"
						},
						{
							"indexed": true,
							"internalType": "address",
							"name": "_assetAddress",
							"type": "address"
						},
						{
							"indexed": false,
							"internalType": "uint256",
							"name": "amount",
							"type": "uint256"
						}
					],
					"name": "LogWithdraw",
					"type": "event"
				},
				{
					"anonymous": false,
					"inputs": [
						{
							"indexed": true,
							"internalType": "address",
							"name": "previousOwner",
							"type": "address"
						},
						{
							"indexed": true,
							"internalType": "address",
							"name": "newOwner",
							"type": "address"
						}
					],
					"name": "OwnershipTransferred",
					"type": "event"
				},
				{
					"inputs": [],
					"name": "owner",
					"outputs": [
						{
							"internalType": "address",
							"name": "",
							"type": "address"
						}
					],
					"stateMutability": "view",
					"type": "function"
				},
				{
					"inputs": [],
					"name": "renounceOwnership",
					"outputs": [],
					"stateMutability": "nonpayable",
					"type": "function"
				},
				{
					"inputs": [
						{
							"internalType": "address",
							"name": "newOwner",
							"type": "address"
						}
					],
					"name": "transferOwnership",
					"outputs": [],
					"stateMutability": "nonpayable",
					"type": "function"
				},
				{
					"inputs": [
						{
							"internalType": "address",
							"name": "_assetAddress",
							"type": "address"
						}
					],
					"name": "withdraw",
					"outputs": [],
					"stateMutability": "nonpayable",
					"type": "function"
				}
			],
			"devdoc": {
				"kind": "dev",
				"methods": {
					"owner()": {
						"details": "Returns the address of the current owner."
					},
					"renounceOwnership()": {
						"details": "Leaves the contract without owner. It will not be possible to call `onlyOwner` functions anymore. Can only be called by the current owner. NOTE: Renouncing ownership will leave the contract without an owner, thereby removing any functionality that is only available to the owner."
					},
					"transferOwnership(address)": {
						"details": "Transfers ownership of the contract to a new account (`newOwner`). Can only be called by the current owner."
					},
					"withdraw(address)": {
						"details": "Withdraw asset.",
						"params": {
							"_assetAddress": "Asset to be withdrawn."
						}
					}
				},
				"version": 1
			},
			"evm": {
				"assembly": "    /* \"brownie_projects/bebu_finance/contracts/utils/access/Withdrawable.sol\":288:1135  contract Withdrawable is Ownable {... */\n  mstore(0x40, 0x80)\n  callvalue\n  dup1\n  iszero\n  tag_1\n  jumpi\n  0x00\n  dup1\n  revert\ntag_1:\n  pop\n    /* \"brownie_projects/bebu_finance/contracts/utils/access/Ownable.sol\":860:892  _transferOwnership(_msgSender()) */\n  tag_4\n    /* \"brownie_projects/bebu_finance/contracts/utils/Context.sol\":666:676  msg.sender */\n  caller\n    /* \"brownie_projects/bebu_finance/contracts/utils/access/Ownable.sol\":860:878  _transferOwnership */\n  tag_7\n    /* \"brownie_projects/bebu_finance/contracts/utils/access/Ownable.sol\":860:892  _transferOwnership(_msgSender()) */\n  jump\t// in\ntag_4:\n    /* \"brownie_projects/bebu_finance/contracts/utils/access/Withdrawable.sol\":288:1135  contract Withdrawable is Ownable {... */\n  jump(tag_8)\n    /* \"brownie_projects/bebu_finance/contracts/utils/access/Ownable.sol\":2209:2396  function _transferOwnership(address newOwner) internal virtual {... */\ntag_7:\n    /* \"brownie_projects/bebu_finance/contracts/utils/access/Ownable.sol\":2282:2298  address oldOwner */\n  0x00\n    /* \"brownie_projects/bebu_finance/contracts/utils/access/Ownable.sol\":2301:2307  _owner */\n  dup1\n  sload\n  sub(shl(0xa0, 0x01), 0x01)\n    /* \"brownie_projects/bebu_finance/contracts/utils/access/Ownable.sol\":2317:2334  _owner = newOwner */\n  dup4\n  dup2\n  and\n  not(sub(shl(0xa0, 0x01), 0x01))\n  dup4\n  and\n  dup2\n  or\n  dup5\n  sstore\n    /* \"brownie_projects/bebu_finance/contracts/utils/access/Ownable.sol\":2349:2389  OwnershipTransferred(oldOwner, newOwner) */\n  mload(0x40)\n    /* \"brownie_projects/bebu_finance/contracts/utils/access/Ownable.sol\":2301:2307  _owner */\n  swap2\n  swap1\n  swap3\n  and\n  swap3\n  dup4\n  swap2\n    /* \"brownie_projects/bebu_finance/contracts/utils/access/Ownable.sol\":2349:2389  OwnershipTransferred(oldOwner, newOwner) */\n  0x8be0079c531659141344cd1fd0a4f28419497f9722a3daafe3b4186f6b6457e0\n  swap2\n    /* \"brownie_projects/bebu_finance/contracts/utils/access/Ownable.sol\":2282:2298  address oldOwner */\n  swap1\n    /* \"brownie_projects/bebu_finance/contracts/utils/access/Ownable.sol\":2349:2389  OwnershipTransferred(oldOwner, newOwner) */\n  log3\n    /* \"brownie_projects/bebu_finance/contracts/utils/access/Ownable.sol\":2272:2396  {... */\n  pop\n    /* \"brownie_projects/bebu_finance/contracts/utils/access/Ownable.sol\":2209:2396  function _transferOwnership(address newOwner) internal virtual {... */\n  pop\n  jump\t// out\n    /* \"brownie_projects/bebu_finance/contracts/utils/access/Withdrawable.sol\":288:1135  contract Withdrawable is Ownable {... */\ntag_8:\n  dataSize(sub_0)\n  dup1\n  dataOffset(sub_0)\n  0x00\n  codecopy\n  0x00\n  return\nstop\n\nsub_0: assembly {\n        /* \"brownie_projects/bebu_finance/contracts/utils/access/Withdrawable.sol\":288:1135  contract Withdrawable is Ownable {... */\n      mstore(0x40, 0x80)\n      callvalue\n      dup1\n      iszero\n      tag_1\n      jumpi\n      0x00\n      dup1\n      revert\n    tag_1:\n      pop\n      jumpi(tag_2, lt(calldatasize, 0x04))\n      shr(0xe0, calldataload(0x00))\n      dup1\n      0x51cff8d9\n      eq\n      tag_3\n      jumpi\n      dup1\n      0x715018a6\n      eq\n      tag_4\n      jumpi\n      dup1\n      0x8da5cb5b\n      eq\n      tag_5\n      jumpi\n      dup1\n      0xf2fde38b\n      eq\n      tag_6\n      jumpi\n    tag_2:\n      0x00\n      dup1\n      revert\n        /* \"brownie_projects/bebu_finance/contracts/utils/access/Withdrawable.sol\":616:1127  function withdraw(address _assetAddress) public onlyOwner {... */\n    tag_3:\n      tag_7\n      tag_8\n      calldatasize\n      0x04\n      tag_9\n      jump\t// in\n    tag_8:\n      tag_10\n      jump\t// in\n    tag_7:\n      stop\n        /* \"brownie_projects/bebu_finance/contracts/utils/access/Ownable.sol\":1607:1708  function renounceOwnership() public virtual onlyOwner {... */\n    tag_4:\n      tag_7\n      tag_12\n      jump\t// in\n        /* \"brownie_projects/bebu_finance/contracts/utils/access/Ownable.sol\":975:1060  function owner() public view virtual returns (address) {... */\n    tag_5:\n        /* \"brownie_projects/bebu_finance/contracts/utils/access/Ownable.sol\":1021:1028  address */\n      0x00\n        /* \"brownie_projects/bebu_finance/contracts/utils/access/Ownable.sol\":1047:1053  _owner */\n      sload\n        /* \"brownie_projects/bebu_finance/contracts/utils/access/Ownable.sol\":975:1060  function owner() public view virtual returns (address) {... */\n      0x40\n      dup1\n      mload\n      sub(shl(0xa0, 0x01), 0x01)\n        /* \"brownie_projects/bebu_finance/contracts/utils/access/Ownable.sol\":1047:1053  _owner */\n      swap1\n      swap3\n      and\n        /* \"#utility.yul\":451:502   */\n      dup3\n      mstore\n        /* \"brownie_projects/bebu_finance/contracts/utils/access/Ownable.sol\":975:1060  function owner() public view virtual returns (address) {... */\n      mload\n      swap1\n      dup2\n      swap1\n      sub\n        /* \"#utility.yul\":439:441   */\n      0x20\n        /* \"brownie_projects/bebu_finance/contracts/utils/access/Ownable.sol\":975:1060  function owner() public view virtual returns (address) {... */\n      add\n      swap1\n      return\n        /* \"brownie_projects/bebu_finance/contracts/utils/access/Ownable.sol\":1857:2055  function transferOwnership(address newOwner) public virtual onlyOwner {... */\n    tag_6:\n      tag_7\n      tag_18\n      calldatasize\n      0x04\n      tag_9\n      jump\t// in\n    tag_18:\n      tag_19\n      jump\t// in\n        /* \"brownie_projects/bebu_finance/contracts/utils/access/Withdrawable.sol\":616:1127  function withdraw(address _assetAddress) public onlyOwner {... */\n    tag_10:\n        /* \"brownie_projects/bebu_finance/contracts/utils/access/Ownable.sol\":1021:1028  address */\n      0x00\n        /* \"brownie_projects/bebu_finance/contracts/utils/access/Ownable.sol\":1047:1053  _owner */\n      sload\n      sub(shl(0xa0, 0x01), 0x01)\n      and\n        /* \"brownie_projects/bebu_finance/contracts/utils/Context.sol\":666:676  msg.sender */\n      caller\n        /* \"brownie_projects/bebu_finance/contracts/utils/access/Ownable.sol\":1187:1210  owner() == _msgSender() */\n      eq\n        /* \"brownie_projects/bebu_finance/contracts/utils/access/Ownable.sol\":1179:1247  require(owner() == _msgSender(), \"Ownable: caller is not the owner\") */\n      tag_24\n      jumpi\n      mload(0x40)\n      shl(0xe5, 0x461bcd)\n      dup2\n      mstore\n      0x04\n      add\n      tag_25\n      swap1\n      tag_26\n      jump\t// in\n    tag_25:\n      mload(0x40)\n      dup1\n      swap2\n      sub\n      swap1\n      revert\n    tag_24:\n        /* \"brownie_projects/bebu_finance/contracts/utils/access/Withdrawable.sol\":684:701  uint assetBalance */\n      0x00\n      sub(shl(0xa0, 0x01), 0x01)\n        /* \"brownie_projects/bebu_finance/contracts/utils/access/Withdrawable.sol\":715:737  _assetAddress == ETHER */\n      dup3\n      and\n        /* \"brownie_projects/bebu_finance/contracts/utils/access/Withdrawable.sol\":711:1054  if (_assetAddress == ETHER) {... */\n      tag_28\n      jumpi\n      pop\n        /* \"brownie_projects/bebu_finance/contracts/utils/access/Withdrawable.sol\":837:879  payable(msg.sender).transfer(assetBalance) */\n      mload(0x40)\n        /* \"brownie_projects/bebu_finance/contracts/utils/access/Withdrawable.sol\":776:780  this */\n      address\n        /* \"brownie_projects/bebu_finance/contracts/utils/access/Withdrawable.sol\":811:823  self.balance */\n      dup1\n      balance\n      swap2\n        /* \"brownie_projects/bebu_finance/contracts/utils/access/Withdrawable.sol\":845:855  msg.sender */\n      caller\n      swap1\n        /* \"brownie_projects/bebu_finance/contracts/utils/access/Withdrawable.sol\":837:879  payable(msg.sender).transfer(assetBalance) */\n      dup4\n      iszero\n      0x08fc\n      mul\n      swap1\n        /* \"brownie_projects/bebu_finance/contracts/utils/access/Withdrawable.sol\":811:823  self.balance */\n      dup5\n      swap1\n        /* \"brownie_projects/bebu_finance/contracts/utils/access/Withdrawable.sol\":753:765  address self */\n      0x00\n        /* \"brownie_projects/bebu_finance/contracts/utils/access/Withdrawable.sol\":837:879  payable(msg.sender).transfer(assetBalance) */\n      dup2\n        /* \"brownie_projects/bebu_finance/contracts/utils/access/Withdrawable.sol\":753:765  address self */\n      dup2\n        /* \"brownie_projects/bebu_finance/contracts/utils/access/Withdrawable.sol\":837:879  payable(msg.sender).transfer(assetBalance) */\n      dup2\n        /* \"brownie_projects/bebu_finance/contracts/utils/access/Withdrawable.sol\":811:823  self.balance */\n      dup6\n        /* \"brownie_projects/bebu_finance/contracts/utils/access/Withdrawable.sol\":845:855  msg.sender */\n      dup9\n        /* \"brownie_projects/bebu_finance/contracts/utils/access/Withdrawable.sol\":837:879  payable(msg.sender).transfer(assetBalance) */\n      dup9\n      call\n      swap4\n      pop\n      pop\n      pop\n      pop\n      iszero\n      dup1\n      iszero\n      tag_30\n      jumpi\n      returndatasize\n      0x00\n      dup1\n      returndatacopy\n      revert(0x00, returndatasize)\n    tag_30:\n      pop\n        /* \"brownie_projects/bebu_finance/contracts/utils/access/Withdrawable.sol\":739:890  {... */\n      pop\n        /* \"brownie_projects/bebu_finance/contracts/utils/access/Withdrawable.sol\":711:1054  if (_assetAddress == ETHER) {... */\n      jump(tag_37)\n    tag_28:\n        /* \"brownie_projects/bebu_finance/contracts/utils/access/Withdrawable.sol\":925:970  ERC20(_assetAddress).balanceOf(address(this)) */\n      mload(0x40)\n      shl(0xe0, 0x70a08231)\n      dup2\n      mstore\n        /* \"brownie_projects/bebu_finance/contracts/utils/access/Withdrawable.sol\":964:968  this */\n      address\n        /* \"brownie_projects/bebu_finance/contracts/utils/access/Withdrawable.sol\":925:970  ERC20(_assetAddress).balanceOf(address(this)) */\n      0x04\n      dup3\n      add\n        /* \"#utility.yul\":451:502   */\n      mstore\n      sub(shl(0xa0, 0x01), 0x01)\n        /* \"brownie_projects/bebu_finance/contracts/utils/access/Withdrawable.sol\":925:955  ERC20(_assetAddress).balanceOf */\n      dup4\n      and\n      swap1\n      0x70a08231\n      swap1\n        /* \"#utility.yul\":424:442   */\n      0x24\n      add\n        /* \"brownie_projects/bebu_finance/contracts/utils/access/Withdrawable.sol\":925:970  ERC20(_assetAddress).balanceOf(address(this)) */\n      0x20\n      mload(0x40)\n      dup1\n      dup4\n      sub\n      dup2\n      dup7\n      gas\n      staticcall\n      iszero\n      dup1\n      iszero\n      tag_34\n      jumpi\n      returndatasize\n      0x00\n      dup1\n      returndatacopy\n      revert(0x00, returndatasize)\n    tag_34:\n      pop\n      pop\n      pop\n      pop\n      mload(0x40)\n      returndatasize\n      not(0x1f)\n      0x1f\n      dup3\n      add\n      and\n      dup3\n      add\n      dup1\n      0x40\n      mstore\n      pop\n      dup2\n      add\n      swap1\n      tag_35\n      swap2\n      swap1\n      tag_36\n      jump\t// in\n    tag_35:\n        /* \"brownie_projects/bebu_finance/contracts/utils/access/Withdrawable.sol\":910:970  assetBalance = ERC20(_assetAddress).balanceOf(address(this)) */\n      swap1\n      pop\n        /* \"brownie_projects/bebu_finance/contracts/utils/access/Withdrawable.sol\":984:1043  ERC20(_assetAddress).safeTransfer(msg.sender, assetBalance) */\n      tag_37\n      sub(shl(0xa0, 0x01), 0x01)\n        /* \"brownie_projects/bebu_finance/contracts/utils/access/Withdrawable.sol\":984:1017  ERC20(_assetAddress).safeTransfer */\n      dup4\n      and\n        /* \"brownie_projects/bebu_finance/contracts/utils/access/Withdrawable.sol\":1018:1028  msg.sender */\n      caller\n        /* \"brownie_projects/bebu_finance/contracts/utils/access/Withdrawable.sol\":910:970  assetBalance = ERC20(_assetAddress).balanceOf(address(this)) */\n      dup4\n        /* \"brownie_projects/bebu_finance/contracts/utils/access/Withdrawable.sol\":984:1017  ERC20(_assetAddress).safeTransfer */\n      tag_38\n        /* \"brownie_projects/bebu_finance/contracts/utils/access/Withdrawable.sol\":984:1043  ERC20(_assetAddress).safeTransfer(msg.sender, assetBalance) */\n      jump\t// in\n    tag_37:\n        /* \"brownie_projects/bebu_finance/contracts/utils/access/Withdrawable.sol\":1068:1120  LogWithdraw(msg.sender, _assetAddress, assetBalance) */\n      mload(0x40)\n        /* \"#utility.yul\":1209:1234   */\n      dup2\n      dup2\n      mstore\n      sub(shl(0xa0, 0x01), 0x01)\n        /* \"brownie_projects/bebu_finance/contracts/utils/access/Withdrawable.sol\":1068:1120  LogWithdraw(msg.sender, _assetAddress, assetBalance) */\n      dup4\n      and\n      swap1\n        /* \"brownie_projects/bebu_finance/contracts/utils/access/Withdrawable.sol\":1080:1090  msg.sender */\n      caller\n      swap1\n        /* \"brownie_projects/bebu_finance/contracts/utils/access/Withdrawable.sol\":1068:1120  LogWithdraw(msg.sender, _assetAddress, assetBalance) */\n      0x9207361cc2a04b9c7a06691df1eb87c6a63957ae88bf01d0d18c81e3d1272099\n      swap1\n        /* \"#utility.yul\":1197:1199   */\n      0x20\n        /* \"#utility.yul\":1182:1200   */\n      add\n        /* \"brownie_projects/bebu_finance/contracts/utils/access/Withdrawable.sol\":1068:1120  LogWithdraw(msg.sender, _assetAddress, assetBalance) */\n      mload(0x40)\n      dup1\n      swap2\n      sub\n      swap1\n      log3\n        /* \"brownie_projects/bebu_finance/contracts/utils/access/Withdrawable.sol\":674:1127  {... */\n      pop\n        /* \"brownie_projects/bebu_finance/contracts/utils/access/Withdrawable.sol\":616:1127  function withdraw(address _assetAddress) public onlyOwner {... */\n      pop\n      jump\t// out\n        /* \"brownie_projects/bebu_finance/contracts/utils/access/Ownable.sol\":1607:1708  function renounceOwnership() public virtual onlyOwner {... */\n    tag_12:\n        /* \"brownie_projects/bebu_finance/contracts/utils/access/Ownable.sol\":1021:1028  address */\n      0x00\n        /* \"brownie_projects/bebu_finance/contracts/utils/access/Ownable.sol\":1047:1053  _owner */\n      sload\n      sub(shl(0xa0, 0x01), 0x01)\n      and\n        /* \"brownie_projects/bebu_finance/contracts/utils/Context.sol\":666:676  msg.sender */\n      caller\n        /* \"brownie_projects/bebu_finance/contracts/utils/access/Ownable.sol\":1187:1210  owner() == _msgSender() */\n      eq\n        /* \"brownie_projects/bebu_finance/contracts/utils/access/Ownable.sol\":1179:1247  require(owner() == _msgSender(), \"Ownable: caller is not the owner\") */\n      tag_44\n      jumpi\n      mload(0x40)\n      shl(0xe5, 0x461bcd)\n      dup2\n      mstore\n      0x04\n      add\n      tag_25\n      swap1\n      tag_26\n      jump\t// in\n    tag_44:\n        /* \"brownie_projects/bebu_finance/contracts/utils/access/Ownable.sol\":1671:1701  _transferOwnership(address(0)) */\n      tag_47\n        /* \"brownie_projects/bebu_finance/contracts/utils/access/Ownable.sol\":1698:1699  0 */\n      0x00\n        /* \"brownie_projects/bebu_finance/contracts/utils/access/Ownable.sol\":1671:1689  _transferOwnership */\n      tag_48\n        /* \"brownie_projects/bebu_finance/contracts/utils/access/Ownable.sol\":1671:1701  _transferOwnership(address(0)) */\n      jump\t// in\n    tag_47:\n        /* \"brownie_projects/bebu_finance/contracts/utils/access/Ownable.sol\":1607:1708  function renounceOwnership() public virtual onlyOwner {... */\n      jump\t// out\n        /* \"brownie_projects/bebu_finance/contracts/utils/access/Ownable.sol\":1857:2055  function transferOwnership(address newOwner) public virtual onlyOwner {... */\n    tag_19:\n        /* \"brownie_projects/bebu_finance/contracts/utils/access/Ownable.sol\":1021:1028  address */\n      0x00\n        /* \"brownie_projects/bebu_finance/contracts/utils/access/Ownable.sol\":1047:1053  _owner */\n      sload\n      sub(shl(0xa0, 0x01), 0x01)\n      and\n        /* \"brownie_projects/bebu_finance/contracts/utils/Context.sol\":666:676  msg.sender */\n      caller\n        /* \"brownie_projects/bebu_finance/contracts/utils/access/Ownable.sol\":1187:1210  owner() == _msgSender() */\n      eq\n        /* \"brownie_projects/bebu_finance/contracts/utils/access/Ownable.sol\":1179:1247  require(owner() == _msgSender(), \"Ownable: caller is not the owner\") */\n      tag_53\n      jumpi\n      mload(0x40)\n      shl(0xe5, 0x461bcd)\n      dup2\n      mstore\n      0x04\n      add\n      tag_25\n      swap1\n      tag_26\n      jump\t// in\n    tag_53:\n      sub(shl(0xa0, 0x01), 0x01)\n        /* \"brownie_projects/bebu_finance/contracts/utils/access/Ownable.sol\":1945:1967  newOwner != address(0) */\n      dup2\n      and\n        /* \"brownie_projects/bebu_finance/contracts/utils/access/Ownable.sol\":1937:2010  require(newOwner != address(0), \"Ownable: new owner is the zero address\") */\n      tag_56\n      jumpi\n      mload(0x40)\n      shl(0xe5, 0x461bcd)\n      dup2\n      mstore\n        /* \"#utility.yul\":1447:1449   */\n      0x20\n        /* \"brownie_projects/bebu_finance/contracts/utils/access/Ownable.sol\":1937:2010  require(newOwner != address(0), \"Ownable: new owner is the zero address\") */\n      0x04\n      dup3\n      add\n        /* \"#utility.yul\":1429:1450   */\n      mstore\n        /* \"#utility.yul\":1486:1488   */\n      0x26\n        /* \"#utility.yul\":1466:1484   */\n      0x24\n      dup3\n      add\n        /* \"#utility.yul\":1459:1489   */\n      mstore\n        /* \"#utility.yul\":1525:1559   */\n      0x4f776e61626c653a206e6577206f776e657220697320746865207a65726f2061\n        /* \"#utility.yul\":1505:1523   */\n      0x44\n      dup3\n      add\n        /* \"#utility.yul\":1498:1560   */\n      mstore\n      shl(0xd0, 0x646472657373)\n        /* \"#utility.yul\":1576:1594   */\n      0x64\n      dup3\n      add\n        /* \"#utility.yul\":1569:1605   */\n      mstore\n        /* \"#utility.yul\":1622:1641   */\n      0x84\n      add\n        /* \"brownie_projects/bebu_finance/contracts/utils/access/Ownable.sol\":1937:2010  require(newOwner != address(0), \"Ownable: new owner is the zero address\") */\n      tag_25\n        /* \"#utility.yul\":1245:1647   */\n      jump\n        /* \"brownie_projects/bebu_finance/contracts/utils/access/Ownable.sol\":1937:2010  require(newOwner != address(0), \"Ownable: new owner is the zero address\") */\n    tag_56:\n        /* \"brownie_projects/bebu_finance/contracts/utils/access/Ownable.sol\":2020:2048  _transferOwnership(newOwner) */\n      tag_59\n        /* \"brownie_projects/bebu_finance/contracts/utils/access/Ownable.sol\":2039:2047  newOwner */\n      dup2\n        /* \"brownie_projects/bebu_finance/contracts/utils/access/Ownable.sol\":2020:2038  _transferOwnership */\n      tag_48\n        /* \"brownie_projects/bebu_finance/contracts/utils/access/Ownable.sol\":2020:2048  _transferOwnership(newOwner) */\n      jump\t// in\n    tag_59:\n        /* \"brownie_projects/bebu_finance/contracts/utils/access/Ownable.sol\":1857:2055  function transferOwnership(address newOwner) public virtual onlyOwner {... */\n      pop\n      jump\t// out\n        /* \"brownie_projects/bebu_finance/contracts/utils/token/SafeERC20.sol\":652:827  function safeTransfer(IERC20 token, address to, uint256 value) internal {... */\n    tag_38:\n        /* \"brownie_projects/bebu_finance/contracts/utils/token/SafeERC20.sol\":761:819  abi.encodeWithSelector(token.transfer.selector, to, value) */\n      0x40\n      dup1\n      mload\n      sub(shl(0xa0, 0x01), 0x01)\n        /* \"#utility.yul\":1844:1876   */\n      dup5\n      and\n        /* \"brownie_projects/bebu_finance/contracts/utils/token/SafeERC20.sol\":761:819  abi.encodeWithSelector(token.transfer.selector, to, value) */\n      0x24\n      dup3\n      add\n        /* \"#utility.yul\":1826:1877   */\n      mstore\n        /* \"#utility.yul\":1893:1911   */\n      0x44\n      dup1\n      dup3\n      add\n        /* \"#utility.yul\":1886:1920   */\n      dup5\n      swap1\n      mstore\n        /* \"brownie_projects/bebu_finance/contracts/utils/token/SafeERC20.sol\":761:819  abi.encodeWithSelector(token.transfer.selector, to, value) */\n      dup3\n      mload\n      dup1\n      dup4\n      sub\n      swap1\n      swap2\n      add\n      dup2\n      mstore\n        /* \"#utility.yul\":1799:1817   */\n      0x64\n      swap1\n      swap2\n      add\n        /* \"brownie_projects/bebu_finance/contracts/utils/token/SafeERC20.sol\":761:819  abi.encodeWithSelector(token.transfer.selector, to, value) */\n      swap1\n      swap2\n      mstore\n      0x20\n      dup2\n      add\n      dup1\n      mload\n      sub(shl(0xe0, 0x01), 0x01)\n      and\n      shl(0xe0, 0xa9059cbb)\n      or\n      swap1\n      mstore\n        /* \"brownie_projects/bebu_finance/contracts/utils/token/SafeERC20.sol\":734:820  _callOptionalReturn(token, abi.encodeWithSelector(token.transfer.selector, to, value)) */\n      tag_62\n      swap1\n        /* \"brownie_projects/bebu_finance/contracts/utils/token/SafeERC20.sol\":754:759  token */\n      dup5\n      swap1\n        /* \"brownie_projects/bebu_finance/contracts/utils/token/SafeERC20.sol\":734:753  _callOptionalReturn */\n      tag_65\n        /* \"brownie_projects/bebu_finance/contracts/utils/token/SafeERC20.sol\":734:820  _callOptionalReturn(token, abi.encodeWithSelector(token.transfer.selector, to, value)) */\n      jump\t// in\n    tag_62:\n        /* \"brownie_projects/bebu_finance/contracts/utils/token/SafeERC20.sol\":652:827  function safeTransfer(IERC20 token, address to, uint256 value) internal {... */\n      pop\n      pop\n      pop\n      jump\t// out\n        /* \"brownie_projects/bebu_finance/contracts/utils/access/Ownable.sol\":2209:2396  function _transferOwnership(address newOwner) internal virtual {... */\n    tag_48:\n        /* \"brownie_projects/bebu_finance/contracts/utils/access/Ownable.sol\":2282:2298  address oldOwner */\n      0x00\n        /* \"brownie_projects/bebu_finance/contracts/utils/access/Ownable.sol\":2301:2307  _owner */\n      dup1\n      sload\n      sub(shl(0xa0, 0x01), 0x01)\n        /* \"brownie_projects/bebu_finance/contracts/utils/access/Ownable.sol\":2317:2334  _owner = newOwner */\n      dup4\n      dup2\n      and\n      not(sub(shl(0xa0, 0x01), 0x01))\n      dup4\n      and\n      dup2\n      or\n      dup5\n      sstore\n        /* \"brownie_projects/bebu_finance/contracts/utils/access/Ownable.sol\":2349:2389  OwnershipTransferred(oldOwner, newOwner) */\n      mload(0x40)\n        /* \"brownie_projects/bebu_finance/contracts/utils/access/Ownable.sol\":2301:2307  _owner */\n      swap2\n      swap1\n      swap3\n      and\n      swap3\n      dup4\n      swap2\n        /* \"brownie_projects/bebu_finance/contracts/utils/access/Ownable.sol\":2349:2389  OwnershipTransferred(oldOwner, newOwner) */\n      0x8be0079c531659141344cd1fd0a4f28419497f9722a3daafe3b4186f6b6457e0\n      swap2\n        /* \"brownie_projects/bebu_finance/contracts/utils/access/Ownable.sol\":2282:2298  address oldOwner */\n      swap1\n        /* \"brownie_projects/bebu_finance/contracts/utils/access/Ownable.sol\":2349:2389  OwnershipTransferred(oldOwner, newOwner) */\n      log3\n        /* \"brownie_projects/bebu_finance/contracts/utils/access/Ownable.sol\":2272:2396  {... */\n      pop\n        /* \"brownie_projects/bebu_finance/contracts/utils/access/Ownable.sol\":2209:2396  function _transferOwnership(address newOwner) internal virtual {... */\n      pop\n      jump\t// out\n        /* \"brownie_projects/bebu_finance/contracts/utils/token/SafeERC20.sol\":3000:3706  function _callOptionalReturn(IERC20 token, bytes memory data) private {... */\n    tag_65:\n        /* \"brownie_projects/bebu_finance/contracts/utils/token/SafeERC20.sol\":3419:3442  bytes memory returndata */\n      0x00\n        /* \"brownie_projects/bebu_finance/contracts/utils/token/SafeERC20.sol\":3445:3514  address(token).functionCall(data, \"SafeERC20: low-level call failed\") */\n      tag_68\n        /* \"brownie_projects/bebu_finance/contracts/utils/token/SafeERC20.sol\":3473:3477  data */\n      dup3\n        /* \"brownie_projects/bebu_finance/contracts/utils/token/SafeERC20.sol\":3445:3514  address(token).functionCall(data, \"SafeERC20: low-level call failed\") */\n      mload(0x40)\n      dup1\n      0x40\n      add\n      0x40\n      mstore\n      dup1\n      0x20\n      dup2\n      mstore\n      0x20\n      add\n      0x5361666545524332303a206c6f772d6c6576656c2063616c6c206661696c6564\n      dup2\n      mstore\n      pop\n        /* \"brownie_projects/bebu_finance/contracts/utils/token/SafeERC20.sol\":3453:3458  token */\n      dup6\n      sub(shl(0xa0, 0x01), 0x01)\n        /* \"brownie_projects/bebu_finance/contracts/utils/token/SafeERC20.sol\":3445:3472  address(token).functionCall */\n      and\n      tag_69\n      swap1\n        /* \"brownie_projects/bebu_finance/contracts/utils/token/SafeERC20.sol\":3445:3514  address(token).functionCall(data, \"SafeERC20: low-level call failed\") */\n      swap3\n      swap2\n      swap1\n      0xffffffff\n      and\n      jump\t// in\n    tag_68:\n        /* \"brownie_projects/bebu_finance/contracts/utils/token/SafeERC20.sol\":3528:3545  returndata.length */\n      dup1\n      mload\n        /* \"brownie_projects/bebu_finance/contracts/utils/token/SafeERC20.sol\":3419:3514  bytes memory returndata = address(token).functionCall(data, \"SafeERC20: low-level call failed\") */\n      swap1\n      swap2\n      pop\n        /* \"brownie_projects/bebu_finance/contracts/utils/token/SafeERC20.sol\":3528:3549  returndata.length > 0 */\n      iszero\n        /* \"brownie_projects/bebu_finance/contracts/utils/token/SafeERC20.sol\":3524:3700  if (returndata.length > 0) {... */\n      tag_62\n      jumpi\n        /* \"brownie_projects/bebu_finance/contracts/utils/token/SafeERC20.sol\":3623:3633  returndata */\n      dup1\n        /* \"brownie_projects/bebu_finance/contracts/utils/token/SafeERC20.sol\":3612:3642  abi.decode(returndata, (bool)) */\n      dup1\n      0x20\n      add\n      swap1\n      mload\n      dup2\n      add\n      swap1\n      tag_71\n      swap2\n      swap1\n      tag_72\n      jump\t// in\n    tag_71:\n        /* \"brownie_projects/bebu_finance/contracts/utils/token/SafeERC20.sol\":3604:3689  require(abi.decode(returndata, (bool)), \"SafeERC20: ERC20 operation did not succeed\") */\n      tag_62\n      jumpi\n      mload(0x40)\n      shl(0xe5, 0x461bcd)\n      dup2\n      mstore\n        /* \"#utility.yul\":2415:2417   */\n      0x20\n        /* \"brownie_projects/bebu_finance/contracts/utils/token/SafeERC20.sol\":3604:3689  require(abi.decode(returndata, (bool)), \"SafeERC20: ERC20 operation did not succeed\") */\n      0x04\n      dup3\n      add\n        /* \"#utility.yul\":2397:2418   */\n      mstore\n        /* \"#utility.yul\":2454:2456   */\n      0x2a\n        /* \"#utility.yul\":2434:2452   */\n      0x24\n      dup3\n      add\n        /* \"#utility.yul\":2427:2457   */\n      mstore\n        /* \"#utility.yul\":2493:2527   */\n      0x5361666545524332303a204552433230206f7065726174696f6e20646964206e\n        /* \"#utility.yul\":2473:2491   */\n      0x44\n      dup3\n      add\n        /* \"#utility.yul\":2466:2528   */\n      mstore\n      shl(0xb2, 0x1bdd081cdd58d8d95959)\n        /* \"#utility.yul\":2544:2562   */\n      0x64\n      dup3\n      add\n        /* \"#utility.yul\":2537:2577   */\n      mstore\n        /* \"#utility.yul\":2594:2613   */\n      0x84\n      add\n        /* \"brownie_projects/bebu_finance/contracts/utils/token/SafeERC20.sol\":3604:3689  require(abi.decode(returndata, (bool)), \"SafeERC20: ERC20 operation did not succeed\") */\n      tag_25\n        /* \"#utility.yul\":2213:2619   */\n      jump\n        /* \"brownie_projects/bebu_finance/contracts/utils/Address.sol\":4041:4264  function functionCall(... */\n    tag_69:\n        /* \"brownie_projects/bebu_finance/contracts/utils/Address.sol\":4174:4186  bytes memory */\n      0x60\n        /* \"brownie_projects/bebu_finance/contracts/utils/Address.sol\":4205:4257  functionCallWithValue(target, data, 0, errorMessage) */\n      tag_77\n        /* \"brownie_projects/bebu_finance/contracts/utils/Address.sol\":4227:4233  target */\n      dup5\n        /* \"brownie_projects/bebu_finance/contracts/utils/Address.sol\":4235:4239  data */\n      dup5\n        /* \"brownie_projects/bebu_finance/contracts/utils/Address.sol\":4241:4242  0 */\n      0x00\n        /* \"brownie_projects/bebu_finance/contracts/utils/Address.sol\":4244:4256  errorMessage */\n      dup6\n        /* \"brownie_projects/bebu_finance/contracts/utils/Address.sol\":4205:4226  functionCallWithValue */\n      tag_78\n        /* \"brownie_projects/bebu_finance/contracts/utils/Address.sol\":4205:4257  functionCallWithValue(target, data, 0, errorMessage) */\n      jump\t// in\n    tag_77:\n        /* \"brownie_projects/bebu_finance/contracts/utils/Address.sol\":4198:4257  return functionCallWithValue(target, data, 0, errorMessage) */\n      swap5\n        /* \"brownie_projects/bebu_finance/contracts/utils/Address.sol\":4041:4264  function functionCall(... */\n      swap4\n      pop\n      pop\n      pop\n      pop\n      jump\t// out\n        /* \"brownie_projects/bebu_finance/contracts/utils/Address.sol\":5098:5544  function functionCallWithValue(... */\n    tag_78:\n        /* \"brownie_projects/bebu_finance/contracts/utils/Address.sol\":5263:5275  bytes memory */\n      0x60\n        /* \"brownie_projects/bebu_finance/contracts/utils/Address.sol\":5320:5325  value */\n      dup3\n        /* \"brownie_projects/bebu_finance/contracts/utils/Address.sol\":5295:5316  address(this).balance */\n      selfbalance\n        /* \"brownie_projects/bebu_finance/contracts/utils/Address.sol\":5295:5325  address(this).balance >= value */\n      lt\n      iszero\n        /* \"brownie_projects/bebu_finance/contracts/utils/Address.sol\":5287:5368  require(address(this).balance >= value, \"Address: insufficient balance for call\") */\n      tag_80\n      jumpi\n      mload(0x40)\n      shl(0xe5, 0x461bcd)\n      dup2\n      mstore\n        /* \"#utility.yul\":2826:2828   */\n      0x20\n        /* \"brownie_projects/bebu_finance/contracts/utils/Address.sol\":5287:5368  require(address(this).balance >= value, \"Address: insufficient balance for call\") */\n      0x04\n      dup3\n      add\n        /* \"#utility.yul\":2808:2829   */\n      mstore\n        /* \"#utility.yul\":2865:2867   */\n      0x26\n        /* \"#utility.yul\":2845:2863   */\n      0x24\n      dup3\n      add\n        /* \"#utility.yul\":2838:2868   */\n      mstore\n        /* \"#utility.yul\":2904:2938   */\n      0x416464726573733a20696e73756666696369656e742062616c616e636520666f\n        /* \"#utility.yul\":2884:2902   */\n      0x44\n      dup3\n      add\n        /* \"#utility.yul\":2877:2939   */\n      mstore\n      shl(0xd2, 0x1c8818d85b1b)\n        /* \"#utility.yul\":2955:2973   */\n      0x64\n      dup3\n      add\n        /* \"#utility.yul\":2948:2984   */\n      mstore\n        /* \"#utility.yul\":3001:3020   */\n      0x84\n      add\n        /* \"brownie_projects/bebu_finance/contracts/utils/Address.sol\":5287:5368  require(address(this).balance >= value, \"Address: insufficient balance for call\") */\n      tag_25\n        /* \"#utility.yul\":2624:3026   */\n      jump\n        /* \"brownie_projects/bebu_finance/contracts/utils/Address.sol\":5287:5368  require(address(this).balance >= value, \"Address: insufficient balance for call\") */\n    tag_80:\n        /* \"brownie_projects/bebu_finance/contracts/utils/Address.sol\":5379:5391  bool success */\n      0x00\n        /* \"brownie_projects/bebu_finance/contracts/utils/Address.sol\":5393:5416  bytes memory returndata */\n      dup1\n        /* \"brownie_projects/bebu_finance/contracts/utils/Address.sol\":5420:5426  target */\n      dup7\n      sub(shl(0xa0, 0x01), 0x01)\n        /* \"brownie_projects/bebu_finance/contracts/utils/Address.sol\":5420:5431  target.call */\n      and\n        /* \"brownie_projects/bebu_finance/contracts/utils/Address.sol\":5439:5444  value */\n      dup6\n        /* \"brownie_projects/bebu_finance/contracts/utils/Address.sol\":5446:5450  data */\n      dup8\n        /* \"brownie_projects/bebu_finance/contracts/utils/Address.sol\":5420:5451  target.call{value: value}(data) */\n      mload(0x40)\n      tag_83\n      swap2\n      swap1\n      tag_84\n      jump\t// in\n    tag_83:\n      0x00\n      mload(0x40)\n      dup1\n      dup4\n      sub\n      dup2\n      dup6\n      dup8\n      gas\n      call\n      swap3\n      pop\n      pop\n      pop\n      returndatasize\n      dup1\n      0x00\n      dup2\n      eq\n      tag_87\n      jumpi\n      mload(0x40)\n      swap2\n      pop\n      and(add(returndatasize, 0x3f), not(0x1f))\n      dup3\n      add\n      0x40\n      mstore\n      returndatasize\n      dup3\n      mstore\n      returndatasize\n      0x00\n      0x20\n      dup5\n      add\n      returndatacopy\n      jump(tag_86)\n    tag_87:\n      0x60\n      swap2\n      pop\n    tag_86:\n      pop\n        /* \"brownie_projects/bebu_finance/contracts/utils/Address.sol\":5378:5451  (bool success, bytes memory returndata) = target.call{value: value}(data) */\n      swap2\n      pop\n      swap2\n      pop\n        /* \"brownie_projects/bebu_finance/contracts/utils/Address.sol\":5468:5537  verifyCallResultFromTarget(target, success, returndata, errorMessage) */\n      tag_88\n        /* \"brownie_projects/bebu_finance/contracts/utils/Address.sol\":5495:5501  target */\n      dup8\n        /* \"brownie_projects/bebu_finance/contracts/utils/Address.sol\":5503:5510  success */\n      dup4\n        /* \"brownie_projects/bebu_finance/contracts/utils/Address.sol\":5512:5522  returndata */\n      dup4\n        /* \"brownie_projects/bebu_finance/contracts/utils/Address.sol\":5524:5536  errorMessage */\n      dup8\n        /* \"brownie_projects/bebu_finance/contracts/utils/Address.sol\":5468:5494  verifyCallResultFromTarget */\n      tag_89\n        /* \"brownie_projects/bebu_finance/contracts/utils/Address.sol\":5468:5537  verifyCallResultFromTarget(target, success, returndata, errorMessage) */\n      jump\t// in\n    tag_88:\n        /* \"brownie_projects/bebu_finance/contracts/utils/Address.sol\":5461:5537  return verifyCallResultFromTarget(target, success, returndata, errorMessage) */\n      swap8\n        /* \"brownie_projects/bebu_finance/contracts/utils/Address.sol\":5098:5544  function functionCallWithValue(... */\n      swap7\n      pop\n      pop\n      pop\n      pop\n      pop\n      pop\n      pop\n      jump\t// out\n        /* \"brownie_projects/bebu_finance/contracts/utils/Address.sol\":7604:8232  function verifyCallResultFromTarget(... */\n    tag_89:\n        /* \"brownie_projects/bebu_finance/contracts/utils/Address.sol\":7784:7796  bytes memory */\n      0x60\n        /* \"brownie_projects/bebu_finance/contracts/utils/Address.sol\":7812:7819  success */\n      dup4\n        /* \"brownie_projects/bebu_finance/contracts/utils/Address.sol\":7808:8226  if (success) {... */\n      iszero\n      tag_91\n      jumpi\n        /* \"brownie_projects/bebu_finance/contracts/utils/Address.sol\":7839:7849  returndata */\n      dup3\n        /* \"brownie_projects/bebu_finance/contracts/utils/Address.sol\":7839:7856  returndata.length */\n      mload\n        /* \"brownie_projects/bebu_finance/contracts/utils/Address.sol\":7860:7861  0 */\n      0x00\n        /* \"brownie_projects/bebu_finance/contracts/utils/Address.sol\":7839:7861  returndata.length == 0 */\n      sub\n        /* \"brownie_projects/bebu_finance/contracts/utils/Address.sol\":7835:8121  if (returndata.length == 0) {... */\n      tag_95\n      jumpi\n      sub(shl(0xa0, 0x01), 0x01)\n        /* \"brownie_projects/bebu_finance/contracts/utils/Address.sol\":1634:1653  account.code.length */\n      dup6\n      and\n      extcodesize\n        /* \"brownie_projects/bebu_finance/contracts/utils/Address.sol\":8046:8106  require(isContract(target), \"Address: call to non-contract\") */\n      tag_95\n      jumpi\n      mload(0x40)\n      shl(0xe5, 0x461bcd)\n      dup2\n      mstore\n        /* \"#utility.yul\":3775:3777   */\n      0x20\n        /* \"brownie_projects/bebu_finance/contracts/utils/Address.sol\":8046:8106  require(isContract(target), \"Address: call to non-contract\") */\n      0x04\n      dup3\n      add\n        /* \"#utility.yul\":3757:3778   */\n      mstore\n        /* \"#utility.yul\":3814:3816   */\n      0x1d\n        /* \"#utility.yul\":3794:3812   */\n      0x24\n      dup3\n      add\n        /* \"#utility.yul\":3787:3817   */\n      mstore\n        /* \"#utility.yul\":3853:3884   */\n      0x416464726573733a2063616c6c20746f206e6f6e2d636f6e7472616374000000\n        /* \"#utility.yul\":3833:3851   */\n      0x44\n      dup3\n      add\n        /* \"#utility.yul\":3826:3885   */\n      mstore\n        /* \"#utility.yul\":3902:3920   */\n      0x64\n      add\n        /* \"brownie_projects/bebu_finance/contracts/utils/Address.sol\":8046:8106  require(isContract(target), \"Address: call to non-contract\") */\n      tag_25\n        /* \"#utility.yul\":3573:3926   */\n      jump\n        /* \"brownie_projects/bebu_finance/contracts/utils/Address.sol\":8046:8106  require(isContract(target), \"Address: call to non-contract\") */\n    tag_95:\n      pop\n        /* \"brownie_projects/bebu_finance/contracts/utils/Address.sol\":8141:8151  returndata */\n      dup2\n        /* \"brownie_projects/bebu_finance/contracts/utils/Address.sol\":8134:8151  return returndata */\n      jump(tag_77)\n        /* \"brownie_projects/bebu_finance/contracts/utils/Address.sol\":7808:8226  if (success) {... */\n    tag_91:\n        /* \"brownie_projects/bebu_finance/contracts/utils/Address.sol\":8182:8215  _revert(returndata, errorMessage) */\n      tag_77\n        /* \"brownie_projects/bebu_finance/contracts/utils/Address.sol\":8190:8200  returndata */\n      dup4\n        /* \"brownie_projects/bebu_finance/contracts/utils/Address.sol\":8202:8214  errorMessage */\n      dup4\n        /* \"brownie_projects/bebu_finance/contracts/utils/Address.sol\":8913:8930  returndata.length */\n      dup2\n      mload\n        /* \"brownie_projects/bebu_finance/contracts/utils/Address.sol\":8913:8934  returndata.length > 0 */\n      iszero\n        /* \"brownie_projects/bebu_finance/contracts/utils/Address.sol\":8909:9288  if (returndata.length > 0) {... */\n      tag_103\n      jumpi\n        /* \"brownie_projects/bebu_finance/contracts/utils/Address.sol\":9141:9151  returndata */\n      dup2\n        /* \"brownie_projects/bebu_finance/contracts/utils/Address.sol\":9135:9152  mload(returndata) */\n      mload\n        /* \"brownie_projects/bebu_finance/contracts/utils/Address.sol\":9197:9212  returndata_size */\n      dup1\n        /* \"brownie_projects/bebu_finance/contracts/utils/Address.sol\":9184:9194  returndata */\n      dup4\n        /* \"brownie_projects/bebu_finance/contracts/utils/Address.sol\":9180:9182  32 */\n      0x20\n        /* \"brownie_projects/bebu_finance/contracts/utils/Address.sol\":9176:9195  add(32, returndata) */\n      add\n        /* \"brownie_projects/bebu_finance/contracts/utils/Address.sol\":9169:9213  revert(add(32, returndata), returndata_size) */\n      revert\n        /* \"brownie_projects/bebu_finance/contracts/utils/Address.sol\":8909:9288  if (returndata.length > 0) {... */\n    tag_103:\n        /* \"brownie_projects/bebu_finance/contracts/utils/Address.sol\":9264:9276  errorMessage */\n      dup1\n        /* \"brownie_projects/bebu_finance/contracts/utils/Address.sol\":9257:9277  revert(errorMessage) */\n      mload(0x40)\n      shl(0xe5, 0x461bcd)\n      dup2\n      mstore\n      0x04\n      add\n      tag_25\n      swap2\n      swap1\n      tag_106\n      jump\t// in\n        /* \"#utility.yul\":14:300   */\n    tag_9:\n        /* \"#utility.yul\":73:79   */\n      0x00\n        /* \"#utility.yul\":126:128   */\n      0x20\n        /* \"#utility.yul\":114:123   */\n      dup3\n        /* \"#utility.yul\":105:112   */\n      dup5\n        /* \"#utility.yul\":101:124   */\n      sub\n        /* \"#utility.yul\":97:129   */\n      slt\n        /* \"#utility.yul\":94:146   */\n      iszero\n      tag_110\n      jumpi\n        /* \"#utility.yul\":142:143   */\n      0x00\n        /* \"#utility.yul\":139:140   */\n      dup1\n        /* \"#utility.yul\":132:144   */\n      revert\n        /* \"#utility.yul\":94:146   */\n    tag_110:\n        /* \"#utility.yul\":168:191   */\n      dup2\n      calldataload\n      sub(shl(0xa0, 0x01), 0x01)\n        /* \"#utility.yul\":220:251   */\n      dup2\n      and\n        /* \"#utility.yul\":210:252   */\n      dup2\n      eq\n        /* \"#utility.yul\":200:270   */\n      tag_111\n      jumpi\n        /* \"#utility.yul\":266:267   */\n      0x00\n        /* \"#utility.yul\":263:264   */\n      dup1\n        /* \"#utility.yul\":256:268   */\n      revert\n        /* \"#utility.yul\":200:270   */\n    tag_111:\n        /* \"#utility.yul\":289:294   */\n      swap4\n        /* \"#utility.yul\":14:300   */\n      swap3\n      pop\n      pop\n      pop\n      jump\t// out\n        /* \"#utility.yul\":513:869   */\n    tag_26:\n        /* \"#utility.yul\":715:717   */\n      0x20\n        /* \"#utility.yul\":697:718   */\n      dup1\n      dup3\n      mstore\n        /* \"#utility.yul\":734:752   */\n      dup2\n      dup2\n      add\n        /* \"#utility.yul\":727:757   */\n      mstore\n        /* \"#utility.yul\":793:827   */\n      0x4f776e61626c653a2063616c6c6572206973206e6f7420746865206f776e6572\n        /* \"#utility.yul\":788:790   */\n      0x40\n        /* \"#utility.yul\":773:791   */\n      dup3\n      add\n        /* \"#utility.yul\":766:828   */\n      mstore\n        /* \"#utility.yul\":860:862   */\n      0x60\n        /* \"#utility.yul\":845:863   */\n      add\n      swap1\n        /* \"#utility.yul\":513:869   */\n      jump\t// out\n        /* \"#utility.yul\":874:1058   */\n    tag_36:\n        /* \"#utility.yul\":944:950   */\n      0x00\n        /* \"#utility.yul\":997:999   */\n      0x20\n        /* \"#utility.yul\":985:994   */\n      dup3\n        /* \"#utility.yul\":976:983   */\n      dup5\n        /* \"#utility.yul\":972:995   */\n      sub\n        /* \"#utility.yul\":968:1000   */\n      slt\n        /* \"#utility.yul\":965:1017   */\n      iszero\n      tag_115\n      jumpi\n        /* \"#utility.yul\":1013:1014   */\n      0x00\n        /* \"#utility.yul\":1010:1011   */\n      dup1\n        /* \"#utility.yul\":1003:1015   */\n      revert\n        /* \"#utility.yul\":965:1017   */\n    tag_115:\n      pop\n        /* \"#utility.yul\":1036:1052   */\n      mload\n      swap2\n        /* \"#utility.yul\":874:1058   */\n      swap1\n      pop\n      jump\t// out\n        /* \"#utility.yul\":1931:2208   */\n    tag_72:\n        /* \"#utility.yul\":1998:2004   */\n      0x00\n        /* \"#utility.yul\":2051:2053   */\n      0x20\n        /* \"#utility.yul\":2039:2048   */\n      dup3\n        /* \"#utility.yul\":2030:2037   */\n      dup5\n        /* \"#utility.yul\":2026:2049   */\n      sub\n        /* \"#utility.yul\":2022:2054   */\n      slt\n        /* \"#utility.yul\":2019:2071   */\n      iszero\n      tag_120\n      jumpi\n        /* \"#utility.yul\":2067:2068   */\n      0x00\n        /* \"#utility.yul\":2064:2065   */\n      dup1\n        /* \"#utility.yul\":2057:2069   */\n      revert\n        /* \"#utility.yul\":2019:2071   */\n    tag_120:\n        /* \"#utility.yul\":2099:2108   */\n      dup2\n        /* \"#utility.yul\":2093:2109   */\n      mload\n        /* \"#utility.yul\":2152:2157   */\n      dup1\n        /* \"#utility.yul\":2145:2158   */\n      iszero\n        /* \"#utility.yul\":2138:2159   */\n      iszero\n        /* \"#utility.yul\":2131:2136   */\n      dup2\n        /* \"#utility.yul\":2128:2160   */\n      eq\n        /* \"#utility.yul\":2118:2178   */\n      tag_111\n      jumpi\n        /* \"#utility.yul\":2174:2175   */\n      0x00\n        /* \"#utility.yul\":2171:2172   */\n      dup1\n        /* \"#utility.yul\":2164:2176   */\n      revert\n        /* \"#utility.yul\":3031:3289   */\n    tag_107:\n        /* \"#utility.yul\":3103:3104   */\n      0x00\n        /* \"#utility.yul\":3113:3226   */\n    tag_125:\n        /* \"#utility.yul\":3127:3133   */\n      dup4\n        /* \"#utility.yul\":3124:3125   */\n      dup2\n        /* \"#utility.yul\":3121:3134   */\n      lt\n        /* \"#utility.yul\":3113:3226   */\n      iszero\n      tag_127\n      jumpi\n        /* \"#utility.yul\":3203:3214   */\n      dup2\n      dup2\n      add\n        /* \"#utility.yul\":3197:3215   */\n      mload\n        /* \"#utility.yul\":3184:3195   */\n      dup4\n      dup3\n      add\n        /* \"#utility.yul\":3177:3216   */\n      mstore\n        /* \"#utility.yul\":3149:3151   */\n      0x20\n        /* \"#utility.yul\":3142:3152   */\n      add\n        /* \"#utility.yul\":3113:3226   */\n      jump(tag_125)\n    tag_127:\n        /* \"#utility.yul\":3244:3250   */\n      dup4\n        /* \"#utility.yul\":3241:3242   */\n      dup2\n        /* \"#utility.yul\":3238:3251   */\n      gt\n        /* \"#utility.yul\":3235:3283   */\n      iszero\n      tag_128\n      jumpi\n        /* \"#utility.yul\":3279:3280   */\n      0x00\n        /* \"#utility.yul\":3270:3276   */\n      dup5\n        /* \"#utility.yul\":3265:3268   */\n      dup5\n        /* \"#utility.yul\":3261:3277   */\n      add\n        /* \"#utility.yul\":3254:3281   */\n      mstore\n        /* \"#utility.yul\":3235:3283   */\n    tag_128:\n      pop\n        /* \"#utility.yul\":3031:3289   */\n      pop\n      pop\n      pop\n      jump\t// out\n        /* \"#utility.yul\":3294:3568   */\n    tag_84:\n        /* \"#utility.yul\":3423:3426   */\n      0x00\n        /* \"#utility.yul\":3461:3467   */\n      dup3\n        /* \"#utility.yul\":3455:3468   */\n      mload\n        /* \"#utility.yul\":3477:3530   */\n      tag_130\n        /* \"#utility.yul\":3523:3529   */\n      dup2\n        /* \"#utility.yul\":3518:3521   */\n      dup5\n        /* \"#utility.yul\":3511:3515   */\n      0x20\n        /* \"#utility.yul\":3503:3509   */\n      dup8\n        /* \"#utility.yul\":3499:3516   */\n      add\n        /* \"#utility.yul\":3477:3530   */\n      tag_107\n      jump\t// in\n    tag_130:\n        /* \"#utility.yul\":3546:3562   */\n      swap2\n      swap1\n      swap2\n      add\n      swap3\n        /* \"#utility.yul\":3294:3568   */\n      swap2\n      pop\n      pop\n      jump\t// out\n        /* \"#utility.yul\":3931:4314   */\n    tag_106:\n        /* \"#utility.yul\":4080:4082   */\n      0x20\n        /* \"#utility.yul\":4069:4078   */\n      dup2\n        /* \"#utility.yul\":4062:4083   */\n      mstore\n        /* \"#utility.yul\":4043:4047   */\n      0x00\n        /* \"#utility.yul\":4112:4118   */\n      dup3\n        /* \"#utility.yul\":4106:4119   */\n      mload\n        /* \"#utility.yul\":4155:4161   */\n      dup1\n        /* \"#utility.yul\":4150:4152   */\n      0x20\n        /* \"#utility.yul\":4139:4148   */\n      dup5\n        /* \"#utility.yul\":4135:4153   */\n      add\n        /* \"#utility.yul\":4128:4162   */\n      mstore\n        /* \"#utility.yul\":4171:4237   */\n      tag_133\n        /* \"#utility.yul\":4230:4236   */\n      dup2\n        /* \"#utility.yul\":4225:4227   */\n      0x40\n        /* \"#utility.yul\":4214:4223   */\n      dup6\n        /* \"#utility.yul\":4210:4228   */\n      add\n        /* \"#utility.yul\":4205:4207   */\n      0x20\n        /* \"#utility.yul\":4197:4203   */\n      dup8\n        /* \"#utility.yul\":4193:4208   */\n      add\n        /* \"#utility.yul\":4171:4237   */\n      tag_107\n      jump\t// in\n    tag_133:\n        /* \"#utility.yul\":4298:4300   */\n      0x1f\n        /* \"#utility.yul\":4277:4292   */\n      add\n      not(0x1f)\n        /* \"#utility.yul\":4273:4302   */\n      and\n        /* \"#utility.yul\":4258:4303   */\n      swap2\n      swap1\n      swap2\n      add\n        /* \"#utility.yul\":4305:4307   */\n      0x40\n        /* \"#utility.yul\":4254:4308   */\n      add\n      swap3\n        /* \"#utility.yul\":3931:4314   */\n      swap2\n      pop\n      pop\n      jump\t// out\n\n    auxdata: 0xa26469706673582212200012b9f329b20fbc57529cfa9b8d966d93acc2c9e2192352dff1d004ea534d1164736f6c634300080d0033\n}\n",
				"bytecode": {
					"linkReferences": {},
					"object": "608060405234801561001057600080fd5b5061001a3361001f565b61006f565b600080546001600160a01b038381166001600160a01b0319831681178455604051919092169283917f8be0079c531659141344cd1fd0a4f28419497f9722a3daafe3b4186f6b6457e09190a35050565b61070d8061007e6000396000f3fe608060405234801561001057600080fd5b506004361061004c5760003560e01c806351cff8d914610051578063715018a6146100665780638da5cb5b1461006e578063f2fde38b1461008d575b600080fd5b61006461005f3660046105b8565b6100a0565b005b6100646101de565b600054604080516001600160a01b039092168252519081900360200190f35b61006461009b3660046105b8565b610214565b6000546001600160a01b031633146100d35760405162461bcd60e51b81526004016100ca906105e8565b60405180910390fd5b60006001600160a01b03821661011c575060405130803191339083156108fc029084906000818181858888f19350505050158015610115573d6000803e3d6000fd5b505061019a565b6040516370a0823160e01b81523060048201526001600160a01b038316906370a0823190602401602060405180830381865afa158015610160573d6000803e3d6000fd5b505050506040513d601f19601f82011682018060405250810190610184919061061d565b905061019a6001600160a01b03831633836102af565b6040518181526001600160a01b0383169033907f9207361cc2a04b9c7a06691df1eb87c6a63957ae88bf01d0d18c81e3d12720999060200160405180910390a35050565b6000546001600160a01b031633146102085760405162461bcd60e51b81526004016100ca906105e8565b6102126000610306565b565b6000546001600160a01b0316331461023e5760405162461bcd60e51b81526004016100ca906105e8565b6001600160a01b0381166102a35760405162461bcd60e51b815260206004820152602660248201527f4f776e61626c653a206e6577206f776e657220697320746865207a65726f206160448201526564647265737360d01b60648201526084016100ca565b6102ac81610306565b50565b604080516001600160a01b038416602482015260448082018490528251808303909101815260649091019091526020810180516001600160e01b031663a9059cbb60e01b179052610301908490610356565b505050565b600080546001600160a01b038381166001600160a01b0319831681178455604051919092169283917f8be0079c531659141344cd1fd0a4f28419497f9722a3daafe3b4186f6b6457e09190a35050565b60006103ab826040518060400160405280602081526020017f5361666545524332303a206c6f772d6c6576656c2063616c6c206661696c6564815250856001600160a01b03166104289092919063ffffffff16565b80519091501561030157808060200190518101906103c99190610636565b6103015760405162461bcd60e51b815260206004820152602a60248201527f5361666545524332303a204552433230206f7065726174696f6e20646964206e6044820152691bdd081cdd58d8d9595960b21b60648201526084016100ca565b6060610437848460008561043f565b949350505050565b6060824710156104a05760405162461bcd60e51b815260206004820152602660248201527f416464726573733a20696e73756666696369656e742062616c616e636520666f6044820152651c8818d85b1b60d21b60648201526084016100ca565b600080866001600160a01b031685876040516104bc9190610688565b60006040518083038185875af1925050503d80600081146104f9576040519150601f19603f3d011682016040523d82523d6000602084013e6104fe565b606091505b509150915061050f8783838761051a565b979650505050505050565b60608315610589578251600003610582576001600160a01b0385163b6105825760405162461bcd60e51b815260206004820152601d60248201527f416464726573733a2063616c6c20746f206e6f6e2d636f6e747261637400000060448201526064016100ca565b5081610437565b610437838381511561059e5781518083602001fd5b8060405162461bcd60e51b81526004016100ca91906106a4565b6000602082840312156105ca57600080fd5b81356001600160a01b03811681146105e157600080fd5b9392505050565b6020808252818101527f4f776e61626c653a2063616c6c6572206973206e6f7420746865206f776e6572604082015260600190565b60006020828403121561062f57600080fd5b5051919050565b60006020828403121561064857600080fd5b815180151581146105e157600080fd5b60005b8381101561067357818101518382015260200161065b565b83811115610682576000848401525b50505050565b6000825161069a818460208701610658565b9190910192915050565b60208152600082518060208401526106c3816040850160208701610658565b601f01601f1916919091016040019291505056fea26469706673582212200012b9f329b20fbc57529cfa9b8d966d93acc2c9e2192352dff1d004ea534d1164736f6c634300080d0033",
					"opcodes": "PUSH1 0x80 PUSH1 0x40 MSTORE CALLVALUE DUP1 ISZERO PUSH2 0x10 JUMPI PUSH1 0x0 DUP1 REVERT JUMPDEST POP PUSH2 0x1A CALLER PUSH2 0x1F JUMP JUMPDEST PUSH2 0x6F JUMP JUMPDEST PUSH1 0x0 DUP1 SLOAD PUSH1 0x1 PUSH1 0x1 PUSH1 0xA0 SHL SUB DUP4 DUP2 AND PUSH1 0x1 PUSH1 0x1 PUSH1 0xA0 SHL SUB NOT DUP4 AND DUP2 OR DUP5 SSTORE PUSH1 0x40 MLOAD SWAP2 SWAP1 SWAP3 AND SWAP3 DUP4 SWAP2 PUSH32 0x8BE0079C531659141344CD1FD0A4F28419497F9722A3DAAFE3B4186F6B6457E0 SWAP2 SWAP1 LOG3 POP POP JUMP JUMPDEST PUSH2 0x70D DUP1 PUSH2 0x7E PUSH1 0x0 CODECOPY PUSH1 0x0 RETURN INVALID PUSH1 0x80 PUSH1 0x40 MSTORE CALLVALUE DUP1 ISZERO PUSH2 0x10 JUMPI PUSH1 0x0 DUP1 REVERT JUMPDEST POP PUSH1 0x4 CALLDATASIZE LT PUSH2 0x4C JUMPI PUSH1 0x0 CALLDATALOAD PUSH1 0xE0 SHR DUP1 PUSH4 0x51CFF8D9 EQ PUSH2 0x51 JUMPI DUP1 PUSH4 0x715018A6 EQ PUSH2 0x66 JUMPI DUP1 PUSH4 0x8DA5CB5B EQ PUSH2 0x6E JUMPI DUP1 PUSH4 0xF2FDE38B EQ PUSH2 0x8D JUMPI JUMPDEST PUSH1 0x0 DUP1 REVERT JUMPDEST PUSH2 0x64 PUSH2 0x5F CALLDATASIZE PUSH1 0x4 PUSH2 0x5B8 JUMP JUMPDEST PUSH2 0xA0 JUMP JUMPDEST STOP JUMPDEST PUSH2 0x64 PUSH2 0x1DE JUMP JUMPDEST PUSH1 0x0 SLOAD PUSH1 0x40 DUP1 MLOAD PUSH1 0x1 PUSH1 0x1 PUSH1 0xA0 SHL SUB SWAP1 SWAP3 AND DUP3 MSTORE MLOAD SWAP1 DUP2 SWAP1 SUB PUSH1 0x20 ADD SWAP1 RETURN JUMPDEST PUSH2 0x64 PUSH2 0x9B CALLDATASIZE PUSH1 0x4 PUSH2 0x5B8 JUMP JUMPDEST PUSH2 0x214 JUMP JUMPDEST PUSH1 0x0 SLOAD PUSH1 0x1 PUSH1 0x1 PUSH1 0xA0 SHL SUB AND CALLER EQ PUSH2 0xD3 JUMPI PUSH1 0x40 MLOAD PUSH3 0x461BCD PUSH1 0xE5 SHL DUP2 MSTORE PUSH1 0x4 ADD PUSH2 0xCA SWAP1 PUSH2 0x5E8 JUMP JUMPDEST PUSH1 0x40 MLOAD DUP1 SWAP2 SUB SWAP1 REVERT JUMPDEST PUSH1 0x0 PUSH1 0x1 PUSH1 0x1 PUSH1 0xA0 SHL SUB DUP3 AND PUSH2 0x11C JUMPI POP PUSH1 0x40 MLOAD ADDRESS DUP1 BALANCE SWAP2 CALLER SWAP1 DUP4 ISZERO PUSH2 0x8FC MUL SWAP1 DUP5 SWAP1 PUSH1 0x0 DUP2 DUP2 DUP2 DUP6 DUP9 DUP9 CALL SWAP4 POP POP POP POP ISZERO DUP1 ISZERO PUSH2 0x115 JUMPI RETURNDATASIZE PUSH1 0x0 DUP1 RETURNDATACOPY RETURNDATASIZE PUSH1 0x0 REVERT JUMPDEST POP POP PUSH2 0x19A JUMP JUMPDEST PUSH1 0x40 MLOAD PUSH4 0x70A08231 PUSH1 0xE0 SHL DUP2 MSTORE ADDRESS PUSH1 0x4 DUP3 ADD MSTORE PUSH1 0x1 PUSH1 0x1 PUSH1 0xA0 SHL SUB DUP4 AND SWAP1 PUSH4 0x70A08231 SWAP1 PUSH1 0x24 ADD PUSH1 0x20 PUSH1 0x40 MLOAD DUP1 DUP4 SUB DUP2 DUP7 GAS STATICCALL ISZERO DUP1 ISZERO PUSH2 0x160 JUMPI RETURNDATASIZE PUSH1 0x0 DUP1 RETURNDATACOPY RETURNDATASIZE PUSH1 0x0 REVERT JUMPDEST POP POP POP POP PUSH1 0x40 MLOAD RETURNDATASIZE PUSH1 0x1F NOT PUSH1 0x1F DUP3 ADD AND DUP3 ADD DUP1 PUSH1 0x40 MSTORE POP DUP2 ADD SWAP1 PUSH2 0x184 SWAP2 SWAP1 PUSH2 0x61D JUMP JUMPDEST SWAP1 POP PUSH2 0x19A PUSH1 0x1 PUSH1 0x1 PUSH1 0xA0 SHL SUB DUP4 AND CALLER DUP4 PUSH2 0x2AF JUMP JUMPDEST PUSH1 0x40 MLOAD DUP2 DUP2 MSTORE PUSH1 0x1 PUSH1 0x1 PUSH1 0xA0 SHL SUB DUP4 AND SWAP1 CALLER SWAP1 PUSH32 0x9207361CC2A04B9C7A06691DF1EB87C6A63957AE88BF01D0D18C81E3D1272099 SWAP1 PUSH1 0x20 ADD PUSH1 0x40 MLOAD DUP1 SWAP2 SUB SWAP1 LOG3 POP POP JUMP JUMPDEST PUSH1 0x0 SLOAD PUSH1 0x1 PUSH1 0x1 PUSH1 0xA0 SHL SUB AND CALLER EQ PUSH2 0x208 JUMPI PUSH1 0x40 MLOAD PUSH3 0x461BCD PUSH1 0xE5 SHL DUP2 MSTORE PUSH1 0x4 ADD PUSH2 0xCA SWAP1 PUSH2 0x5E8 JUMP JUMPDEST PUSH2 0x212 PUSH1 0x0 PUSH2 0x306 JUMP JUMPDEST JUMP JUMPDEST PUSH1 0x0 SLOAD PUSH1 0x1 PUSH1 0x1 PUSH1 0xA0 SHL SUB AND CALLER EQ PUSH2 0x23E JUMPI PUSH1 0x40 MLOAD PUSH3 0x461BCD PUSH1 0xE5 SHL DUP2 MSTORE PUSH1 0x4 ADD PUSH2 0xCA SWAP1 PUSH2 0x5E8 JUMP JUMPDEST PUSH1 0x1 PUSH1 0x1 PUSH1 0xA0 SHL SUB DUP2 AND PUSH2 0x2A3 JUMPI PUSH1 0x40 MLOAD PUSH3 0x461BCD PUSH1 0xE5 SHL DUP2 MSTORE PUSH1 0x20 PUSH1 0x4 DUP3 ADD MSTORE PUSH1 0x26 PUSH1 0x24 DUP3 ADD MSTORE PUSH32 0x4F776E61626C653A206E6577206F776E657220697320746865207A65726F2061 PUSH1 0x44 DUP3 ADD MSTORE PUSH6 0x646472657373 PUSH1 0xD0 SHL PUSH1 0x64 DUP3 ADD MSTORE PUSH1 0x84 ADD PUSH2 0xCA JUMP JUMPDEST PUSH2 0x2AC DUP2 PUSH2 0x306 JUMP JUMPDEST POP JUMP JUMPDEST PUSH1 0x40 DUP1 MLOAD PUSH1 0x1 PUSH1 0x1 PUSH1 0xA0 SHL SUB DUP5 AND PUSH1 0x24 DUP3 ADD MSTORE PUSH1 0x44 DUP1 DUP3 ADD DUP5 SWAP1 MSTORE DUP3 MLOAD DUP1 DUP4 SUB SWAP1 SWAP2 ADD DUP2 MSTORE PUSH1 0x64 SWAP1 SWAP2 ADD SWAP1 SWAP2 MSTORE PUSH1 0x20 DUP2 ADD DUP1 MLOAD PUSH1 0x1 PUSH1 0x1 PUSH1 0xE0 SHL SUB AND PUSH4 0xA9059CBB PUSH1 0xE0 SHL OR SWAP1 MSTORE PUSH2 0x301 SWAP1 DUP5 SWAP1 PUSH2 0x356 JUMP JUMPDEST POP POP POP JUMP JUMPDEST PUSH1 0x0 DUP1 SLOAD PUSH1 0x1 PUSH1 0x1 PUSH1 0xA0 SHL SUB DUP4 DUP2 AND PUSH1 0x1 PUSH1 0x1 PUSH1 0xA0 SHL SUB NOT DUP4 AND DUP2 OR DUP5 SSTORE PUSH1 0x40 MLOAD SWAP2 SWAP1 SWAP3 AND SWAP3 DUP4 SWAP2 PUSH32 0x8BE0079C531659141344CD1FD0A4F28419497F9722A3DAAFE3B4186F6B6457E0 SWAP2 SWAP1 LOG3 POP POP JUMP JUMPDEST PUSH1 0x0 PUSH2 0x3AB DUP3 PUSH1 0x40 MLOAD DUP1 PUSH1 0x40 ADD PUSH1 0x40 MSTORE DUP1 PUSH1 0x20 DUP2 MSTORE PUSH1 0x20 ADD PUSH32 0x5361666545524332303A206C6F772D6C6576656C2063616C6C206661696C6564 DUP2 MSTORE POP DUP6 PUSH1 0x1 PUSH1 0x1 PUSH1 0xA0 SHL SUB AND PUSH2 0x428 SWAP1 SWAP3 SWAP2 SWAP1 PUSH4 0xFFFFFFFF AND JUMP JUMPDEST DUP1 MLOAD SWAP1 SWAP2 POP ISZERO PUSH2 0x301 JUMPI DUP1 DUP1 PUSH1 0x20 ADD SWAP1 MLOAD DUP2 ADD SWAP1 PUSH2 0x3C9 SWAP2 SWAP1 PUSH2 0x636 JUMP JUMPDEST PUSH2 0x301 JUMPI PUSH1 0x40 MLOAD PUSH3 0x461BCD PUSH1 0xE5 SHL DUP2 MSTORE PUSH1 0x20 PUSH1 0x4 DUP3 ADD MSTORE PUSH1 0x2A PUSH1 0x24 DUP3 ADD MSTORE PUSH32 0x5361666545524332303A204552433230206F7065726174696F6E20646964206E PUSH1 0x44 DUP3 ADD MSTORE PUSH10 0x1BDD081CDD58D8D95959 PUSH1 0xB2 SHL PUSH1 0x64 DUP3 ADD MSTORE PUSH1 0x84 ADD PUSH2 0xCA JUMP JUMPDEST PUSH1 0x60 PUSH2 0x437 DUP5 DUP5 PUSH1 0x0 DUP6 PUSH2 0x43F JUMP JUMPDEST SWAP5 SWAP4 POP POP POP POP JUMP JUMPDEST PUSH1 0x60 DUP3 SELFBALANCE LT ISZERO PUSH2 0x4A0 JUMPI PUSH1 0x40 MLOAD PUSH3 0x461BCD PUSH1 0xE5 SHL DUP2 MSTORE PUSH1 0x20 PUSH1 0x4 DUP3 ADD MSTORE PUSH1 0x26 PUSH1 0x24 DUP3 ADD MSTORE PUSH32 0x416464726573733A20696E73756666696369656E742062616C616E636520666F PUSH1 0x44 DUP3 ADD MSTORE PUSH6 0x1C8818D85B1B PUSH1 0xD2 SHL PUSH1 0x64 DUP3 ADD MSTORE PUSH1 0x84 ADD PUSH2 0xCA JUMP JUMPDEST PUSH1 0x0 DUP1 DUP7 PUSH1 0x1 PUSH1 0x1 PUSH1 0xA0 SHL SUB AND DUP6 DUP8 PUSH1 0x40 MLOAD PUSH2 0x4BC SWAP2 SWAP1 PUSH2 0x688 JUMP JUMPDEST PUSH1 0x0 PUSH1 0x40 MLOAD DUP1 DUP4 SUB DUP2 DUP6 DUP8 GAS CALL SWAP3 POP POP POP RETURNDATASIZE DUP1 PUSH1 0x0 DUP2 EQ PUSH2 0x4F9 JUMPI PUSH1 0x40 MLOAD SWAP2 POP PUSH1 0x1F NOT PUSH1 0x3F RETURNDATASIZE ADD AND DUP3 ADD PUSH1 0x40 MSTORE RETURNDATASIZE DUP3 MSTORE RETURNDATASIZE PUSH1 0x0 PUSH1 0x20 DUP5 ADD RETURNDATACOPY PUSH2 0x4FE JUMP JUMPDEST PUSH1 0x60 SWAP2 POP JUMPDEST POP SWAP2 POP SWAP2 POP PUSH2 0x50F DUP8 DUP4 DUP4 DUP8 PUSH2 0x51A JUMP JUMPDEST SWAP8 SWAP7 POP POP POP POP POP POP POP JUMP JUMPDEST PUSH1 0x60 DUP4 ISZERO PUSH2 0x589 JUMPI DUP3 MLOAD PUSH1 0x0 SUB PUSH2 0x582 JUMPI PUSH1 0x1 PUSH1 0x1 PUSH1 0xA0 SHL SUB DUP6 AND EXTCODESIZE PUSH2 0x582 JUMPI PUSH1 0x40 MLOAD PUSH3 0x461BCD PUSH1 0xE5 SHL DUP2 MSTORE PUSH1 0x20 PUSH1 0x4 DUP3 ADD MSTORE PUSH1 0x1D PUSH1 0x24 DUP3 ADD MSTORE PUSH32 0x416464726573733A2063616C6C20746F206E6F6E2D636F6E7472616374000000 PUSH1 0x44 DUP3 ADD MSTORE PUSH1 0x64 ADD PUSH2 0xCA JUMP JUMPDEST POP DUP2 PUSH2 0x437 JUMP JUMPDEST PUSH2 0x437 DUP4 DUP4 DUP2 MLOAD ISZERO PUSH2 0x59E JUMPI DUP2 MLOAD DUP1 DUP4 PUSH1 0x20 ADD REVERT JUMPDEST DUP1 PUSH1 0x40 MLOAD PUSH3 0x461BCD PUSH1 0xE5 SHL DUP2 MSTORE PUSH1 0x4 ADD PUSH2 0xCA SWAP2 SWAP1 PUSH2 0x6A4 JUMP JUMPDEST PUSH1 0x0 PUSH1 0x20 DUP3 DUP5 SUB SLT ISZERO PUSH2 0x5CA JUMPI PUSH1 0x0 DUP1 REVERT JUMPDEST DUP2 CALLDATALOAD PUSH1 0x1 PUSH1 0x1 PUSH1 0xA0 SHL SUB DUP2 AND DUP2 EQ PUSH2 0x5E1 JUMPI PUSH1 0x0 DUP1 REVERT JUMPDEST SWAP4 SWAP3 POP POP POP JUMP JUMPDEST PUSH1 0x20 DUP1 DUP3 MSTORE DUP2 DUP2 ADD MSTORE PUSH32 0x4F776E61626C653A2063616C6C6572206973206E6F7420746865206F776E6572 PUSH1 0x40 DUP3 ADD MSTORE PUSH1 0x60 ADD SWAP1 JUMP JUMPDEST PUSH1 0x0 PUSH1 0x20 DUP3 DUP5 SUB SLT ISZERO PUSH2 0x62F JUMPI PUSH1 0x0 DUP1 REVERT JUMPDEST POP MLOAD SWAP2 SWAP1 POP JUMP JUMPDEST PUSH1 0x0 PUSH1 0x20 DUP3 DUP5 SUB SLT ISZERO PUSH2 0x648 JUMPI PUSH1 0x0 DUP1 REVERT JUMPDEST DUP2 MLOAD DUP1 ISZERO ISZERO DUP2 EQ PUSH2 0x5E1 JUMPI PUSH1 0x0 DUP1 REVERT JUMPDEST PUSH1 0x0 JUMPDEST DUP4 DUP2 LT ISZERO PUSH2 0x673 JUMPI DUP2 DUP2 ADD MLOAD DUP4 DUP3 ADD MSTORE PUSH1 0x20 ADD PUSH2 0x65B JUMP JUMPDEST DUP4 DUP2 GT ISZERO PUSH2 0x682 JUMPI PUSH1 0x0 DUP5 DUP5 ADD MSTORE JUMPDEST POP POP POP POP JUMP JUMPDEST PUSH1 0x0 DUP3 MLOAD PUSH2 0x69A DUP2 DUP5 PUSH1 0x20 DUP8 ADD PUSH2 0x658 JUMP JUMPDEST SWAP2 SWAP1 SWAP2 ADD SWAP3 SWAP2 POP POP JUMP JUMPDEST PUSH1 0x20 DUP2 MSTORE PUSH1 0x0 DUP3 MLOAD DUP1 PUSH1 0x20 DUP5 ADD MSTORE PUSH2 0x6C3 DUP2 PUSH1 0x40 DUP6 ADD PUSH1 0x20 DUP8 ADD PUSH2 0x658 JUMP JUMPDEST PUSH1 0x1F ADD PUSH1 0x1F NOT AND SWAP2 SWAP1 SWAP2 ADD PUSH1 0x40 ADD SWAP3 SWAP2 POP POP JUMP INVALID LOG2 PUSH5 0x6970667358 0x22 SLT KECCAK256 STOP SLT 0xB9 RETURN 0x29 0xB2 0xF 0xBC JUMPI MSTORE SWAP13 STATICCALL SWAP12 DUP14 SWAP7 PUSH14 0x93ACC2C9E2192352DFF1D004EA53 0x4D GT PUSH5 0x736F6C6343 STOP ADDMOD 0xD STOP CALLER "
				},
				"gasEstimates": {
					"creation": {
						"codeDepositCost": "361000",
						"executionCost": "26240",
						"totalCost": "387240"
					},
					"external": {
						"owner()": "2314",
						"renounceOwnership()": "28114",
						"transferOwnership(address)": "28318",
						"withdraw(address)": "infinite"
					}
				},
				"methodIdentifiers": {
					"owner()": "8da5cb5b",
					"renounceOwnership()": "715018a6",
					"transferOwnership(address)": "f2fde38b",
					"withdraw(address)": "51cff8d9"
				}
			},
			"storageLayout": {
				"storage": [
					{
						"astId": 359,
						"contract": "brownie_projects/bebu_finance/contracts/utils/access/Withdrawable.sol:Withdrawable",
						"label": "_owner",
						"offset": 0,
						"slot": "0",
						"type": "t_address"
					}
				],
				"types": {
					"t_address": {
						"encoding": "inplace",
						"label": "address",
						"numberOfBytes": "20"
					}
				}
			},
			"userdoc": {
				"kind": "user",
				"methods": {},
				"notice": "Ensures that any contract that inherits from this contract is able to withdraw funds that are accidentally received or stuck.",
				"version": 1
			}
		}
	}
}