{
	"contracts/utils/token/ERC20Rebase.sol": {
		"ERC20Rebase": {
			"abi": [
				{
					"inputs": [
						{
							"internalType": "string",
							"name": "name_",
							"type": "string"
						},
						{
							"internalType": "string",
							"name": "symbol_",
							"type": "string"
						}
					],
					"stateMutability": "nonpayable",
					"type": "constructor"
				},
				{
					"anonymous": false,
					"inputs": [
						{
							"indexed": true,
							"internalType": "address",
							"name": "owner",
							"type": "address"
						},
						{
							"indexed": true,
							"internalType": "address",
							"name": "spender",
							"type": "address"
						},
						{
							"indexed": false,
							"internalType": "uint256",
							"name": "value",
							"type": "uint256"
						}
					],
					"name": "Approval",
					"type": "event"
				},
				{
					"anonymous": false,
					"inputs": [
						{
							"indexed": true,
							"internalType": "address",
							"name": "from",
							"type": "address"
						},
						{
							"indexed": true,
							"internalType": "address",
							"name": "to",
							"type": "address"
						},
						{
							"indexed": false,
							"internalType": "uint256",
							"name": "value",
							"type": "uint256"
						}
					],
					"name": "Transfer",
					"type": "event"
				},
				{
					"inputs": [],
					"name": "TOTAL_GONS",
					"outputs": [
						{
							"internalType": "uint256",
							"name": "",
							"type": "uint256"
						}
					],
					"stateMutability": "view",
					"type": "function"
				},
				{
					"inputs": [
						{
							"internalType": "address",
							"name": "owner",
							"type": "address"
						},
						{
							"internalType": "address",
							"name": "spender",
							"type": "address"
						}
					],
					"name": "allowance",
					"outputs": [
						{
							"internalType": "uint256",
							"name": "",
							"type": "uint256"
						}
					],
					"stateMutability": "view",
					"type": "function"
				},
				{
					"inputs": [
						{
							"internalType": "address",
							"name": "spender",
							"type": "address"
						},
						{
							"internalType": "uint256",
							"name": "amount",
							"type": "uint256"
						}
					],
					"name": "approve",
					"outputs": [
						{
							"internalType": "bool",
							"name": "",
							"type": "bool"
						}
					],
					"stateMutability": "nonpayable",
					"type": "function"
				},
				{
					"inputs": [
						{
							"internalType": "address",
							"name": "_address",
							"type": "address"
						}
					],
					"name": "balanceOf",
					"outputs": [
						{
							"internalType": "uint256",
							"name": "",
							"type": "uint256"
						}
					],
					"stateMutability": "view",
					"type": "function"
				},
				{
					"inputs": [],
					"name": "decimals",
					"outputs": [
						{
							"internalType": "uint8",
							"name": "",
							"type": "uint8"
						}
					],
					"stateMutability": "view",
					"type": "function"
				},
				{
					"inputs": [
						{
							"internalType": "address",
							"name": "spender",
							"type": "address"
						},
						{
							"internalType": "uint256",
							"name": "subtractedValue",
							"type": "uint256"
						}
					],
					"name": "decreaseAllowance",
					"outputs": [
						{
							"internalType": "bool",
							"name": "",
							"type": "bool"
						}
					],
					"stateMutability": "nonpayable",
					"type": "function"
				},
				{
					"inputs": [
						{
							"internalType": "address",
							"name": "spender",
							"type": "address"
						},
						{
							"internalType": "uint256",
							"name": "addedValue",
							"type": "uint256"
						}
					],
					"name": "increaseAllowance",
					"outputs": [
						{
							"internalType": "bool",
							"name": "",
							"type": "bool"
						}
					],
					"stateMutability": "nonpayable",
					"type": "function"
				},
				{
					"inputs": [],
					"name": "name",
					"outputs": [
						{
							"internalType": "string",
							"name": "",
							"type": "string"
						}
					],
					"stateMutability": "view",
					"type": "function"
				},
				{
					"inputs": [
						{
							"internalType": "address",
							"name": "_address",
							"type": "address"
						}
					],
					"name": "scaledBalanceOf",
					"outputs": [
						{
							"internalType": "uint256",
							"name": "",
							"type": "uint256"
						}
					],
					"stateMutability": "view",
					"type": "function"
				},
				{
					"inputs": [],
					"name": "symbol",
					"outputs": [
						{
							"internalType": "string",
							"name": "",
							"type": "string"
						}
					],
					"stateMutability": "view",
					"type": "function"
				},
				{
					"inputs": [],
					"name": "totalSupply",
					"outputs": [
						{
							"internalType": "uint256",
							"name": "",
							"type": "uint256"
						}
					],
					"stateMutability": "view",
					"type": "function"
				},
				{
					"inputs": [
						{
							"internalType": "address",
							"name": "to",
							"type": "address"
						},
						{
							"internalType": "uint256",
							"name": "amount",
							"type": "uint256"
						}
					],
					"name": "transfer",
					"outputs": [
						{
							"internalType": "bool",
							"name": "",
							"type": "bool"
						}
					],
					"stateMutability": "nonpayable",
					"type": "function"
				},
				{
					"inputs": [
						{
							"internalType": "address",
							"name": "from",
							"type": "address"
						},
						{
							"internalType": "address",
							"name": "to",
							"type": "address"
						},
						{
							"internalType": "uint256",
							"name": "amount",
							"type": "uint256"
						}
					],
					"name": "transferFrom",
					"outputs": [
						{
							"internalType": "bool",
							"name": "",
							"type": "bool"
						}
					],
					"stateMutability": "nonpayable",
					"type": "function"
				}
			],
			"devdoc": {
				"kind": "dev",
				"methods": {
					"allowance(address,address)": {
						"details": "Returns the remaining number of tokens that `spender` will be allowed to spend on behalf of `owner` through {transferFrom}. This is zero by default. This value changes when {approve} or {transferFrom} are called."
					},
					"approve(address,uint256)": {
						"details": "Sets `amount` as the allowance of `spender` over the caller's tokens. Returns a boolean value indicating whether the operation succeeded. IMPORTANT: Beware that changing an allowance with this method brings the risk that someone may use both the old and the new allowance by unfortunate transaction ordering. One possible solution to mitigate this race condition is to first reduce the spender's allowance to 0 and set the desired value afterwards: https://github.com/ethereum/EIPs/issues/20#issuecomment-263524729 Emits an {Approval} event."
					},
					"balanceOf(address)": {
						"params": {
							"_address": "The address to query."
						},
						"returns": {
							"_0": "The balance of the specified address."
						}
					},
					"decimals()": {
						"details": "Returns the decimals places of the token."
					},
					"name()": {
						"details": "Returns the name of the token."
					},
					"scaledBalanceOf(address)": {
						"params": {
							"_address": "The address to query."
						},
						"returns": {
							"_0": "The gon balance of the specified address."
						}
					},
					"symbol()": {
						"details": "Returns the symbol of the token."
					},
					"totalSupply()": {
						"details": "Returns the amount of tokens in existence."
					},
					"transfer(address,uint256)": {
						"details": "Moves `amount` tokens from the caller's account to `to`. Returns a boolean value indicating whether the operation succeeded. Emits a {Transfer} event."
					},
					"transferFrom(address,address,uint256)": {
						"details": "Moves `amount` tokens from `from` to `to` using the allowance mechanism. `amount` is then deducted from the caller's allowance. Returns a boolean value indicating whether the operation succeeded. Emits a {Transfer} event."
					}
				},
				"version": 1
			},
			"evm": {
				"assembly": "    /* \"contracts/utils/token/ERC20Rebase.sol\":170:6151  contract ERC20Rebase is Context, IERC20, IERC20Metadata {... */\n  mstore(0x40, 0x80)\n    /* \"contracts/utils/token/ERC20Rebase.sol\":593:731  constructor (string memory name_, string memory symbol_) {... */\n  callvalue\n  dup1\n  iszero\n  tag_1\n  jumpi\n  0x00\n  dup1\n  revert\ntag_1:\n  pop\n  mload(0x40)\n  sub(codesize, bytecodeSize)\n  dup1\n  bytecodeSize\n  dup4\n  codecopy\n  dup2\n  add\n  0x40\n  dup2\n  swap1\n  mstore\n  tag_2\n  swap2\n  tag_3\n  jump\t// in\ntag_2:\n    /* \"contracts/utils/token/ERC20Rebase.sol\":660:673  _name = name_ */\n  dup2\n  mload\n  tag_6\n  swap1\n    /* \"contracts/utils/token/ERC20Rebase.sol\":660:665  _name */\n  0x05\n  swap1\n    /* \"contracts/utils/token/ERC20Rebase.sol\":660:673  _name = name_ */\n  0x20\n  dup6\n  add\n  swap1\n  tag_7\n  jump\t// in\ntag_6:\n  pop\n    /* \"contracts/utils/token/ERC20Rebase.sol\":683:700  _symbol = symbol_ */\n  dup1\n  mload\n  tag_8\n  swap1\n    /* \"contracts/utils/token/ERC20Rebase.sol\":683:690  _symbol */\n  0x06\n  swap1\n    /* \"contracts/utils/token/ERC20Rebase.sol\":683:700  _symbol = symbol_ */\n  0x20\n  dup5\n  add\n  swap1\n  tag_7\n  jump\t// in\ntag_8:\n  pop\n  pop\n    /* \"contracts/utils/token/ERC20Rebase.sol\":710:719  _decimals */\n  0x07\n    /* \"contracts/utils/token/ERC20Rebase.sol\":710:724  _decimals = 18 */\n  dup1\n  sload\n  not(0xff)\n  and\n    /* \"contracts/utils/token/ERC20Rebase.sol\":722:724  18 */\n  0x12\n    /* \"contracts/utils/token/ERC20Rebase.sol\":710:724  _decimals = 18 */\n  or\n  swap1\n  sstore\n  pop\n    /* \"contracts/utils/token/ERC20Rebase.sol\":170:6151  contract ERC20Rebase is Context, IERC20, IERC20Metadata {... */\n  jump(tag_23)\ntag_7:\n  dup3\n  dup1\n  sload\n  tag_10\n  swap1\n  tag_11\n  jump\t// in\ntag_10:\n  swap1\n  0x00\n  mstore\n  keccak256(0x00, 0x20)\n  swap1\n  0x1f\n  add\n  0x20\n  swap1\n  div\n  dup2\n  add\n  swap3\n  dup3\n  tag_13\n  jumpi\n  0x00\n  dup6\n  sstore\n  jump(tag_16)\ntag_13:\n  dup3\n  0x1f\n  lt\n  tag_14\n  jumpi\n  dup1\n  mload\n  not(0xff)\n  and\n  dup4\n  dup1\n  add\n  or\n  dup6\n  sstore\n  jump(tag_16)\ntag_14:\n  dup3\n  dup1\n  add\n  0x01\n  add\n  dup6\n  sstore\n  dup3\n  iszero\n  tag_16\n  jumpi\n  swap2\n  dup3\n  add\ntag_15:\n  dup3\n  dup2\n  gt\n  iszero\n  tag_16\n  jumpi\n  dup3\n  mload\n  dup3\n  sstore\n  swap2\n  0x20\n  add\n  swap2\n  swap1\n  0x01\n  add\n  swap1\n  jump(tag_15)\ntag_16:\n  pop\n  tag_17\n  swap3\n  swap2\n  pop\n  tag_18\n  jump\t// in\ntag_17:\n  pop\n  swap1\n  jump\t// out\ntag_18:\ntag_19:\n  dup1\n  dup3\n  gt\n  iszero\n  tag_17\n  jumpi\n  0x00\n  dup2\n  sstore\n  0x01\n  add\n  jump(tag_19)\n    /* \"#utility.yul\":14:141   */\ntag_21:\n    /* \"#utility.yul\":75:85   */\n  0x4e487b71\n    /* \"#utility.yul\":70:73   */\n  0xe0\n    /* \"#utility.yul\":66:86   */\n  shl\n    /* \"#utility.yul\":63:64   */\n  0x00\n    /* \"#utility.yul\":56:87   */\n  mstore\n    /* \"#utility.yul\":106:110   */\n  0x41\n    /* \"#utility.yul\":103:104   */\n  0x04\n    /* \"#utility.yul\":96:111   */\n  mstore\n    /* \"#utility.yul\":130:134   */\n  0x24\n    /* \"#utility.yul\":127:128   */\n  0x00\n    /* \"#utility.yul\":120:135   */\n  revert\n    /* \"#utility.yul\":146:1031   */\ntag_22:\n    /* \"#utility.yul\":200:205   */\n  0x00\n    /* \"#utility.yul\":253:256   */\n  dup3\n    /* \"#utility.yul\":246:250   */\n  0x1f\n    /* \"#utility.yul\":238:244   */\n  dup4\n    /* \"#utility.yul\":234:251   */\n  add\n    /* \"#utility.yul\":230:257   */\n  slt\n    /* \"#utility.yul\":220:275   */\n  tag_26\n  jumpi\n    /* \"#utility.yul\":271:272   */\n  0x00\n    /* \"#utility.yul\":268:269   */\n  dup1\n    /* \"#utility.yul\":261:273   */\n  revert\n    /* \"#utility.yul\":220:275   */\ntag_26:\n    /* \"#utility.yul\":294:307   */\n  dup2\n  mload\n  sub(shl(0x40, 0x01), 0x01)\n    /* \"#utility.yul\":356:366   */\n  dup1\n  dup3\n  gt\n    /* \"#utility.yul\":353:389   */\n  iszero\n  tag_28\n  jumpi\n    /* \"#utility.yul\":369:387   */\n  tag_28\n  tag_21\n  jump\t// in\ntag_28:\n    /* \"#utility.yul\":444:446   */\n  0x40\n    /* \"#utility.yul\":438:447   */\n  mload\n    /* \"#utility.yul\":412:414   */\n  0x1f\n    /* \"#utility.yul\":498:511   */\n  dup4\n  add\n  not(0x1f)\n    /* \"#utility.yul\":494:516   */\n  swap1\n  dup2\n  and\n    /* \"#utility.yul\":518:520   */\n  0x3f\n    /* \"#utility.yul\":490:521   */\n  add\n    /* \"#utility.yul\":486:526   */\n  and\n    /* \"#utility.yul\":474:527   */\n  dup2\n  add\n  swap1\n    /* \"#utility.yul\":542:560   */\n  dup3\n  dup3\n  gt\n    /* \"#utility.yul\":562:584   */\n  dup2\n  dup4\n  lt\n    /* \"#utility.yul\":539:585   */\n  or\n    /* \"#utility.yul\":536:608   */\n  iszero\n  tag_30\n  jumpi\n    /* \"#utility.yul\":588:606   */\n  tag_30\n  tag_21\n  jump\t// in\ntag_30:\n    /* \"#utility.yul\":628:638   */\n  dup2\n    /* \"#utility.yul\":624:626   */\n  0x40\n    /* \"#utility.yul\":617:639   */\n  mstore\n    /* \"#utility.yul\":663:665   */\n  dup4\n    /* \"#utility.yul\":655:661   */\n  dup2\n    /* \"#utility.yul\":648:666   */\n  mstore\n    /* \"#utility.yul\":685:689   */\n  0x20\n    /* \"#utility.yul\":675:689   */\n  swap3\n  pop\n    /* \"#utility.yul\":730:733   */\n  dup7\n    /* \"#utility.yul\":725:727   */\n  dup4\n    /* \"#utility.yul\":720:722   */\n  dup6\n    /* \"#utility.yul\":712:718   */\n  dup9\n    /* \"#utility.yul\":708:723   */\n  add\n    /* \"#utility.yul\":704:728   */\n  add\n    /* \"#utility.yul\":701:734   */\n  gt\n    /* \"#utility.yul\":698:751   */\n  iszero\n  tag_31\n  jumpi\n    /* \"#utility.yul\":747:748   */\n  0x00\n    /* \"#utility.yul\":744:745   */\n  dup1\n    /* \"#utility.yul\":737:749   */\n  revert\n    /* \"#utility.yul\":698:751   */\ntag_31:\n    /* \"#utility.yul\":769:770   */\n  0x00\n    /* \"#utility.yul\":760:770   */\n  swap2\n  pop\n    /* \"#utility.yul\":779:912   */\ntag_32:\n    /* \"#utility.yul\":793:795   */\n  dup4\n    /* \"#utility.yul\":790:791   */\n  dup3\n    /* \"#utility.yul\":787:796   */\n  lt\n    /* \"#utility.yul\":779:912   */\n  iszero\n  tag_34\n  jumpi\n    /* \"#utility.yul\":881:895   */\n  dup6\n  dup3\n  add\n    /* \"#utility.yul\":877:900   */\n  dup4\n  add\n    /* \"#utility.yul\":871:901   */\n  mload\n    /* \"#utility.yul\":850:864   */\n  dup2\n  dup4\n  add\n    /* \"#utility.yul\":846:869   */\n  dup5\n  add\n    /* \"#utility.yul\":839:902   */\n  mstore\n    /* \"#utility.yul\":804:814   */\n  swap1\n  dup3\n  add\n  swap1\n    /* \"#utility.yul\":779:912   */\n  jump(tag_32)\ntag_34:\n    /* \"#utility.yul\":930:932   */\n  dup4\n    /* \"#utility.yul\":927:928   */\n  dup3\n    /* \"#utility.yul\":924:933   */\n  gt\n    /* \"#utility.yul\":921:1001   */\n  iszero\n  tag_35\n  jumpi\n    /* \"#utility.yul\":989:990   */\n  0x00\n    /* \"#utility.yul\":984:986   */\n  dup4\n    /* \"#utility.yul\":979:981   */\n  dup6\n    /* \"#utility.yul\":971:977   */\n  dup4\n    /* \"#utility.yul\":967:982   */\n  add\n    /* \"#utility.yul\":963:987   */\n  add\n    /* \"#utility.yul\":956:991   */\n  mstore\n    /* \"#utility.yul\":921:1001   */\ntag_35:\n    /* \"#utility.yul\":1019:1025   */\n  swap7\n    /* \"#utility.yul\":146:1031   */\n  swap6\n  pop\n  pop\n  pop\n  pop\n  pop\n  pop\n  jump\t// out\n    /* \"#utility.yul\":1036:1598   */\ntag_3:\n    /* \"#utility.yul\":1135:1141   */\n  0x00\n    /* \"#utility.yul\":1143:1149   */\n  dup1\n    /* \"#utility.yul\":1196:1198   */\n  0x40\n    /* \"#utility.yul\":1184:1193   */\n  dup4\n    /* \"#utility.yul\":1175:1182   */\n  dup6\n    /* \"#utility.yul\":1171:1194   */\n  sub\n    /* \"#utility.yul\":1167:1199   */\n  slt\n    /* \"#utility.yul\":1164:1216   */\n  iszero\n  tag_37\n  jumpi\n    /* \"#utility.yul\":1212:1213   */\n  0x00\n    /* \"#utility.yul\":1209:1210   */\n  dup1\n    /* \"#utility.yul\":1202:1214   */\n  revert\n    /* \"#utility.yul\":1164:1216   */\ntag_37:\n    /* \"#utility.yul\":1239:1255   */\n  dup3\n  mload\n  sub(shl(0x40, 0x01), 0x01)\n    /* \"#utility.yul\":1304:1318   */\n  dup1\n  dup3\n  gt\n    /* \"#utility.yul\":1301:1335   */\n  iszero\n  tag_38\n  jumpi\n    /* \"#utility.yul\":1331:1332   */\n  0x00\n    /* \"#utility.yul\":1328:1329   */\n  dup1\n    /* \"#utility.yul\":1321:1333   */\n  revert\n    /* \"#utility.yul\":1301:1335   */\ntag_38:\n    /* \"#utility.yul\":1354:1415   */\n  tag_39\n    /* \"#utility.yul\":1407:1414   */\n  dup7\n    /* \"#utility.yul\":1398:1404   */\n  dup4\n    /* \"#utility.yul\":1387:1396   */\n  dup8\n    /* \"#utility.yul\":1383:1405   */\n  add\n    /* \"#utility.yul\":1354:1415   */\n  tag_22\n  jump\t// in\ntag_39:\n    /* \"#utility.yul\":1344:1415   */\n  swap4\n  pop\n    /* \"#utility.yul\":1461:1463   */\n  0x20\n    /* \"#utility.yul\":1450:1459   */\n  dup6\n    /* \"#utility.yul\":1446:1464   */\n  add\n    /* \"#utility.yul\":1440:1465   */\n  mload\n    /* \"#utility.yul\":1424:1465   */\n  swap2\n  pop\n    /* \"#utility.yul\":1490:1492   */\n  dup1\n    /* \"#utility.yul\":1480:1488   */\n  dup3\n    /* \"#utility.yul\":1477:1493   */\n  gt\n    /* \"#utility.yul\":1474:1510   */\n  iszero\n  tag_40\n  jumpi\n    /* \"#utility.yul\":1506:1507   */\n  0x00\n    /* \"#utility.yul\":1503:1504   */\n  dup1\n    /* \"#utility.yul\":1496:1508   */\n  revert\n    /* \"#utility.yul\":1474:1510   */\ntag_40:\n  pop\n    /* \"#utility.yul\":1529:1592   */\n  tag_41\n    /* \"#utility.yul\":1584:1591   */\n  dup6\n    /* \"#utility.yul\":1573:1581   */\n  dup3\n    /* \"#utility.yul\":1562:1571   */\n  dup7\n    /* \"#utility.yul\":1558:1582   */\n  add\n    /* \"#utility.yul\":1529:1592   */\n  tag_22\n  jump\t// in\ntag_41:\n    /* \"#utility.yul\":1519:1592   */\n  swap2\n  pop\n  pop\n    /* \"#utility.yul\":1036:1598   */\n  swap3\n  pop\n  swap3\n  swap1\n  pop\n  jump\t// out\n    /* \"#utility.yul\":1603:1983   */\ntag_11:\n    /* \"#utility.yul\":1682:1683   */\n  0x01\n    /* \"#utility.yul\":1678:1690   */\n  dup2\n  dup2\n  shr\n  swap1\n    /* \"#utility.yul\":1725:1737   */\n  dup3\n  and\n  dup1\n    /* \"#utility.yul\":1746:1807   */\n  tag_43\n  jumpi\n    /* \"#utility.yul\":1800:1804   */\n  0x7f\n    /* \"#utility.yul\":1792:1798   */\n  dup3\n    /* \"#utility.yul\":1788:1805   */\n  and\n    /* \"#utility.yul\":1778:1805   */\n  swap2\n  pop\n    /* \"#utility.yul\":1746:1807   */\ntag_43:\n    /* \"#utility.yul\":1853:1855   */\n  0x20\n    /* \"#utility.yul\":1845:1851   */\n  dup3\n    /* \"#utility.yul\":1842:1856   */\n  lt\n    /* \"#utility.yul\":1822:1840   */\n  dup2\n    /* \"#utility.yul\":1819:1857   */\n  sub\n    /* \"#utility.yul\":1816:1977   */\n  tag_44\n  jumpi\n    /* \"#utility.yul\":1899:1909   */\n  0x4e487b71\n    /* \"#utility.yul\":1894:1897   */\n  0xe0\n    /* \"#utility.yul\":1890:1910   */\n  shl\n    /* \"#utility.yul\":1887:1888   */\n  0x00\n    /* \"#utility.yul\":1880:1911   */\n  mstore\n    /* \"#utility.yul\":1934:1938   */\n  0x22\n    /* \"#utility.yul\":1931:1932   */\n  0x04\n    /* \"#utility.yul\":1924:1939   */\n  mstore\n    /* \"#utility.yul\":1962:1966   */\n  0x24\n    /* \"#utility.yul\":1959:1960   */\n  0x00\n    /* \"#utility.yul\":1952:1967   */\n  revert\n    /* \"#utility.yul\":1816:1977   */\ntag_44:\n  pop\n    /* \"#utility.yul\":1603:1983   */\n  swap2\n  swap1\n  pop\n  jump\t// out\ntag_23:\n    /* \"contracts/utils/token/ERC20Rebase.sol\":170:6151  contract ERC20Rebase is Context, IERC20, IERC20Metadata {... */\n  dataSize(sub_0)\n  dup1\n  dataOffset(sub_0)\n  0x00\n  codecopy\n  0x00\n  return\nstop\n\nsub_0: assembly {\n        /* \"contracts/utils/token/ERC20Rebase.sol\":170:6151  contract ERC20Rebase is Context, IERC20, IERC20Metadata {... */\n      mstore(0x40, 0x80)\n      callvalue\n      dup1\n      iszero\n      tag_1\n      jumpi\n      0x00\n      dup1\n      revert\n    tag_1:\n      pop\n      jumpi(tag_2, lt(calldatasize, 0x04))\n      shr(0xe0, calldataload(0x00))\n      dup1\n      0x39509351\n      gt\n      tag_16\n      jumpi\n      dup1\n      0xa457c2d7\n      gt\n      tag_17\n      jumpi\n      dup1\n      0xa457c2d7\n      eq\n      tag_12\n      jumpi\n      dup1\n      0xa9059cbb\n      eq\n      tag_13\n      jumpi\n      dup1\n      0xdd62ed3e\n      eq\n      tag_14\n      jumpi\n      dup1\n      0xe00713e9\n      eq\n      tag_15\n      jumpi\n      0x00\n      dup1\n      revert\n    tag_17:\n      dup1\n      0x39509351\n      eq\n      tag_9\n      jumpi\n      dup1\n      0x70a08231\n      eq\n      tag_10\n      jumpi\n      dup1\n      0x95d89b41\n      eq\n      tag_11\n      jumpi\n      0x00\n      dup1\n      revert\n    tag_16:\n      dup1\n      0x06fdde03\n      eq\n      tag_3\n      jumpi\n      dup1\n      0x095ea7b3\n      eq\n      tag_4\n      jumpi\n      dup1\n      0x18160ddd\n      eq\n      tag_5\n      jumpi\n      dup1\n      0x1da24f3e\n      eq\n      tag_6\n      jumpi\n      dup1\n      0x23b872dd\n      eq\n      tag_7\n      jumpi\n      dup1\n      0x313ce567\n      eq\n      tag_8\n      jumpi\n    tag_2:\n      0x00\n      dup1\n      revert\n        /* \"contracts/utils/token/ERC20Rebase.sol\":737:826  function name() public view virtual returns (string memory) {... */\n    tag_3:\n      tag_18\n      tag_19\n      jump\t// in\n    tag_18:\n      mload(0x40)\n      tag_20\n      swap2\n      swap1\n      tag_21\n      jump\t// in\n    tag_20:\n      mload(0x40)\n      dup1\n      swap2\n      sub\n      swap1\n      return\n        /* \"contracts/utils/token/ERC20Rebase.sol\":2048:2245  function approve(address spender, uint256 amount) public virtual override returns (bool) {... */\n    tag_4:\n      tag_22\n      tag_23\n      calldatasize\n      0x04\n      tag_24\n      jump\t// in\n    tag_23:\n      tag_25\n      jump\t// in\n    tag_22:\n      mload(0x40)\n        /* \"#utility.yul\":1218:1232   */\n      swap1\n      iszero\n        /* \"#utility.yul\":1211:1233   */\n      iszero\n        /* \"#utility.yul\":1193:1234   */\n      dup2\n      mstore\n        /* \"#utility.yul\":1181:1183   */\n      0x20\n        /* \"#utility.yul\":1166:1184   */\n      add\n        /* \"contracts/utils/token/ERC20Rebase.sol\":2048:2245  function approve(address spender, uint256 amount) public virtual override returns (bool) {... */\n      tag_20\n        /* \"#utility.yul\":1053:1240   */\n      jump\n        /* \"contracts/utils/token/ERC20Rebase.sol\":1026:1132  function totalSupply() public view virtual override returns (uint256) {... */\n    tag_5:\n        /* \"contracts/utils/token/ERC20Rebase.sol\":1113:1125  _totalSupply */\n      sload(0x04)\n        /* \"contracts/utils/token/ERC20Rebase.sol\":1026:1132  function totalSupply() public view virtual override returns (uint256) {... */\n    tag_28:\n      mload(0x40)\n        /* \"#utility.yul\":1391:1416   */\n      swap1\n      dup2\n      mstore\n        /* \"#utility.yul\":1379:1381   */\n      0x20\n        /* \"#utility.yul\":1364:1382   */\n      add\n        /* \"contracts/utils/token/ERC20Rebase.sol\":1026:1132  function totalSupply() public view virtual override returns (uint256) {... */\n      tag_20\n        /* \"#utility.yul\":1245:1422   */\n      jump\n        /* \"contracts/utils/token/ERC20Rebase.sol\":1565:1686  function scaledBalanceOf(address _address) external view returns (uint256) {... */\n    tag_6:\n      tag_28\n      tag_33\n      calldatasize\n      0x04\n      tag_34\n      jump\t// in\n    tag_33:\n      sub(shl(0xa0, 0x01), 0x01)\n        /* \"contracts/utils/token/ERC20Rebase.sol\":1657:1679  _gonBalances[_address] */\n      and\n        /* \"contracts/utils/token/ERC20Rebase.sol\":1631:1638  uint256 */\n      0x00\n        /* \"contracts/utils/token/ERC20Rebase.sol\":1657:1679  _gonBalances[_address] */\n      swap1\n      dup2\n      mstore\n        /* \"contracts/utils/token/ERC20Rebase.sol\":1657:1669  _gonBalances */\n      0x01\n        /* \"contracts/utils/token/ERC20Rebase.sol\":1657:1679  _gonBalances[_address] */\n      0x20\n      mstore\n      0x40\n      swap1\n      keccak256\n      sload\n      swap1\n        /* \"contracts/utils/token/ERC20Rebase.sol\":1565:1686  function scaledBalanceOf(address _address) external view returns (uint256) {... */\n      jump\n        /* \"contracts/utils/token/ERC20Rebase.sol\":3738:4002  function transferFrom(address from, address to, uint256 amount) public virtual override returns (bool) {... */\n    tag_7:\n      tag_22\n      tag_38\n      calldatasize\n      0x04\n      tag_39\n      jump\t// in\n    tag_38:\n      tag_40\n      jump\t// in\n        /* \"contracts/utils/token/ERC20Rebase.sol\":931:1020  function decimals() public view virtual returns (uint8) {... */\n    tag_8:\n        /* \"contracts/utils/token/ERC20Rebase.sol\":1004:1013  _decimals */\n      sload(0x07)\n        /* \"contracts/utils/token/ERC20Rebase.sol\":931:1020  function decimals() public view virtual returns (uint8) {... */\n      mload(0x40)\n        /* \"contracts/utils/token/ERC20Rebase.sol\":1004:1013  _decimals */\n      0xff\n      swap1\n      swap2\n      and\n        /* \"#utility.yul\":2093:2129   */\n      dup2\n      mstore\n        /* \"#utility.yul\":2081:2083   */\n      0x20\n        /* \"#utility.yul\":2066:2084   */\n      add\n        /* \"contracts/utils/token/ERC20Rebase.sol\":931:1020  function decimals() public view virtual returns (uint8) {... */\n      tag_20\n        /* \"#utility.yul\":1951:2135   */\n      jump\n        /* \"contracts/utils/token/ERC20Rebase.sol\":2603:2845  function increaseAllowance(address spender, uint256 addedValue) public virtual returns (bool) {... */\n    tag_9:\n      tag_22\n      tag_47\n      calldatasize\n      0x04\n      tag_24\n      jump\t// in\n    tag_47:\n      tag_48\n      jump\t// in\n        /* \"contracts/utils/token/ERC20Rebase.sol\":1252:1441  function balanceOf(address _address) public view override returns (uint256) {... */\n    tag_10:\n      tag_28\n      tag_51\n      calldatasize\n      0x04\n      tag_34\n      jump\t// in\n    tag_51:\n      tag_52\n      jump\t// in\n        /* \"contracts/utils/token/ERC20Rebase.sol\":832:925  function symbol() public view virtual returns (string memory) {... */\n    tag_11:\n      tag_18\n      tag_55\n      jump\t// in\n        /* \"contracts/utils/token/ERC20Rebase.sol\":2851:3285  function decreaseAllowance(address spender, uint256 subtractedValue) public virtual returns (bool) {... */\n    tag_12:\n      tag_22\n      tag_58\n      calldatasize\n      0x04\n      tag_24\n      jump\t// in\n    tag_58:\n      tag_59\n      jump\t// in\n        /* \"contracts/utils/token/ERC20Rebase.sol\":1692:1881  function transfer(address to, uint256 amount) public virtual override returns (bool) {... */\n    tag_13:\n      tag_22\n      tag_62\n      calldatasize\n      0x04\n      tag_24\n      jump\t// in\n    tag_62:\n      tag_63\n      jump\t// in\n        /* \"contracts/utils/token/ERC20Rebase.sol\":1887:2042  function allowance(address owner, address spender) public view virtual override returns (uint256) {... */\n    tag_14:\n      tag_28\n      tag_66\n      calldatasize\n      0x04\n      tag_67\n      jump\t// in\n    tag_66:\n      sub(shl(0xa0, 0x01), 0x01)\n        /* \"contracts/utils/token/ERC20Rebase.sol\":2002:2026  _allowedFragments[owner] */\n      swap2\n      dup3\n      and\n        /* \"contracts/utils/token/ERC20Rebase.sol\":1976:1983  uint256 */\n      0x00\n        /* \"contracts/utils/token/ERC20Rebase.sol\":2002:2026  _allowedFragments[owner] */\n      swap1\n      dup2\n      mstore\n        /* \"contracts/utils/token/ERC20Rebase.sol\":2002:2019  _allowedFragments */\n      0x02\n        /* \"contracts/utils/token/ERC20Rebase.sol\":2002:2026  _allowedFragments[owner] */\n      0x20\n      swap1\n      dup2\n      mstore\n      0x40\n      dup1\n      dup4\n      keccak256\n        /* \"contracts/utils/token/ERC20Rebase.sol\":2002:2035  _allowedFragments[owner][spender] */\n      swap4\n      swap1\n      swap5\n      and\n      dup3\n      mstore\n      swap2\n      swap1\n      swap2\n      mstore\n      keccak256\n      sload\n      swap1\n        /* \"contracts/utils/token/ERC20Rebase.sol\":1887:2042  function allowance(address owner, address spender) public view virtual override returns (uint256) {... */\n      jump\n        /* \"contracts/utils/token/ERC20Rebase.sol\":441:466  uint256 public TOTAL_GONS */\n    tag_15:\n      tag_28\n      sload(0x03)\n      dup2\n      jump\n        /* \"contracts/utils/token/ERC20Rebase.sol\":737:826  function name() public view virtual returns (string memory) {... */\n    tag_19:\n        /* \"contracts/utils/token/ERC20Rebase.sol\":782:795  string memory */\n      0x60\n        /* \"contracts/utils/token/ERC20Rebase.sol\":814:819  _name */\n      0x05\n        /* \"contracts/utils/token/ERC20Rebase.sol\":807:819  return _name */\n      dup1\n      sload\n      tag_74\n      swap1\n      tag_75\n      jump\t// in\n    tag_74:\n      dup1\n      0x1f\n      add\n      0x20\n      dup1\n      swap2\n      div\n      mul\n      0x20\n      add\n      mload(0x40)\n      swap1\n      dup2\n      add\n      0x40\n      mstore\n      dup1\n      swap3\n      swap2\n      swap1\n      dup2\n      dup2\n      mstore\n      0x20\n      add\n      dup3\n      dup1\n      sload\n      tag_76\n      swap1\n      tag_75\n      jump\t// in\n    tag_76:\n      dup1\n      iszero\n      tag_77\n      jumpi\n      dup1\n      0x1f\n      lt\n      tag_78\n      jumpi\n      0x0100\n      dup1\n      dup4\n      sload\n      div\n      mul\n      dup4\n      mstore\n      swap2\n      0x20\n      add\n      swap2\n      jump(tag_77)\n    tag_78:\n      dup3\n      add\n      swap2\n      swap1\n      0x00\n      mstore\n      keccak256(0x00, 0x20)\n      swap1\n    tag_79:\n      dup2\n      sload\n      dup2\n      mstore\n      swap1\n      0x01\n      add\n      swap1\n      0x20\n      add\n      dup1\n      dup4\n      gt\n      tag_79\n      jumpi\n      dup3\n      swap1\n      sub\n      0x1f\n      and\n      dup3\n      add\n      swap2\n    tag_77:\n      pop\n      pop\n      pop\n      pop\n      pop\n      swap1\n      pop\n        /* \"contracts/utils/token/ERC20Rebase.sol\":737:826  function name() public view virtual returns (string memory) {... */\n      swap1\n      jump\t// out\n        /* \"contracts/utils/token/ERC20Rebase.sol\":2048:2245  function approve(address spender, uint256 amount) public virtual override returns (bool) {... */\n    tag_25:\n        /* \"contracts/utils/token/ERC20Rebase.sol\":2131:2135  bool */\n      0x00\n        /* \"contracts/utils/Context.sol\":666:676  msg.sender */\n      caller\n        /* \"contracts/utils/token/ERC20Rebase.sol\":2185:2217  _approve(owner, spender, amount) */\n      tag_83\n        /* \"contracts/utils/Context.sol\":666:676  msg.sender */\n      dup2\n        /* \"contracts/utils/token/ERC20Rebase.sol\":2201:2208  spender */\n      dup6\n        /* \"contracts/utils/token/ERC20Rebase.sol\":2210:2216  amount */\n      dup6\n        /* \"contracts/utils/token/ERC20Rebase.sol\":2185:2193  _approve */\n      tag_84\n        /* \"contracts/utils/token/ERC20Rebase.sol\":2185:2217  _approve(owner, spender, amount) */\n      jump\t// in\n    tag_83:\n      pop\n        /* \"contracts/utils/token/ERC20Rebase.sol\":2234:2238  true */\n      0x01\n      swap4\n        /* \"contracts/utils/token/ERC20Rebase.sol\":2048:2245  function approve(address spender, uint256 amount) public virtual override returns (bool) {... */\n      swap3\n      pop\n      pop\n      pop\n      jump\t// out\n        /* \"contracts/utils/token/ERC20Rebase.sol\":3738:4002  function transferFrom(address from, address to, uint256 amount) public virtual override returns (bool) {... */\n    tag_40:\n        /* \"contracts/utils/token/ERC20Rebase.sol\":3835:3839  bool */\n      0x00\n        /* \"contracts/utils/Context.sol\":666:676  msg.sender */\n      caller\n        /* \"contracts/utils/token/ERC20Rebase.sol\":3891:3929  _spendAllowance(from, spender, amount) */\n      tag_89\n        /* \"contracts/utils/token/ERC20Rebase.sol\":3907:3911  from */\n      dup6\n        /* \"contracts/utils/Context.sol\":666:676  msg.sender */\n      dup3\n        /* \"contracts/utils/token/ERC20Rebase.sol\":3922:3928  amount */\n      dup6\n        /* \"contracts/utils/token/ERC20Rebase.sol\":3891:3906  _spendAllowance */\n      tag_90\n        /* \"contracts/utils/token/ERC20Rebase.sol\":3891:3929  _spendAllowance(from, spender, amount) */\n      jump\t// in\n    tag_89:\n        /* \"contracts/utils/token/ERC20Rebase.sol\":3947:3974  _transfer(from, to, amount) */\n      tag_91\n        /* \"contracts/utils/token/ERC20Rebase.sol\":3957:3961  from */\n      dup6\n        /* \"contracts/utils/token/ERC20Rebase.sol\":3963:3965  to */\n      dup6\n        /* \"contracts/utils/token/ERC20Rebase.sol\":3967:3973  amount */\n      dup6\n        /* \"contracts/utils/token/ERC20Rebase.sol\":3947:3956  _transfer */\n      tag_92\n        /* \"contracts/utils/token/ERC20Rebase.sol\":3947:3974  _transfer(from, to, amount) */\n      jump\t// in\n    tag_91:\n      pop\n        /* \"contracts/utils/token/ERC20Rebase.sol\":3991:3995  true */\n      0x01\n      swap5\n        /* \"contracts/utils/token/ERC20Rebase.sol\":3738:4002  function transferFrom(address from, address to, uint256 amount) public virtual override returns (bool) {... */\n      swap4\n      pop\n      pop\n      pop\n      pop\n      jump\t// out\n        /* \"contracts/utils/token/ERC20Rebase.sol\":2603:2845  function increaseAllowance(address spender, uint256 addedValue) public virtual returns (bool) {... */\n    tag_48:\n        /* \"contracts/utils/Context.sol\":666:676  msg.sender */\n      caller\n        /* \"contracts/utils/token/ERC20Rebase.sol\":2691:2695  bool */\n      0x00\n        /* \"contracts/utils/token/ERC20Rebase.sol\":2770:2794  _allowedFragments[owner] */\n      dup2\n      dup2\n      mstore\n        /* \"contracts/utils/token/ERC20Rebase.sol\":2770:2787  _allowedFragments */\n      0x02\n        /* \"contracts/utils/token/ERC20Rebase.sol\":2770:2794  _allowedFragments[owner] */\n      0x20\n      swap1\n      dup2\n      mstore\n      0x40\n      dup1\n      dup4\n      keccak256\n      sub(shl(0xa0, 0x01), 0x01)\n        /* \"contracts/utils/token/ERC20Rebase.sol\":2770:2803  _allowedFragments[owner][spender] */\n      dup8\n      and\n      dup5\n      mstore\n      swap1\n      swap2\n      mstore\n      dup2\n      keccak256\n      sload\n        /* \"contracts/utils/token/ERC20Rebase.sol\":2691:2695  bool */\n      swap1\n      swap2\n        /* \"contracts/utils/Context.sol\":666:676  msg.sender */\n      swap1\n        /* \"contracts/utils/token/ERC20Rebase.sol\":2745:2817  _approve(owner, spender, _allowedFragments[owner][spender] + addedValue) */\n      tag_83\n      swap1\n        /* \"contracts/utils/Context.sol\":666:676  msg.sender */\n      dup3\n      swap1\n        /* \"contracts/utils/token/ERC20Rebase.sol\":2770:2803  _allowedFragments[owner][spender] */\n      dup7\n      swap1\n        /* \"contracts/utils/token/ERC20Rebase.sol\":2770:2816  _allowedFragments[owner][spender] + addedValue */\n      tag_97\n      swap1\n        /* \"contracts/utils/token/ERC20Rebase.sol\":2806:2816  addedValue */\n      dup8\n      swap1\n        /* \"contracts/utils/token/ERC20Rebase.sol\":2770:2816  _allowedFragments[owner][spender] + addedValue */\n      tag_98\n      jump\t// in\n    tag_97:\n        /* \"contracts/utils/token/ERC20Rebase.sol\":2745:2753  _approve */\n      tag_84\n        /* \"contracts/utils/token/ERC20Rebase.sol\":2745:2817  _approve(owner, spender, _allowedFragments[owner][spender] + addedValue) */\n      jump\t// in\n        /* \"contracts/utils/token/ERC20Rebase.sol\":1252:1441  function balanceOf(address _address) public view override returns (uint256) {... */\n    tag_52:\n        /* \"contracts/utils/token/ERC20Rebase.sol\":1319:1326  uint256 */\n      0x00\n        /* \"contracts/utils/token/ERC20Rebase.sol\":1342:1358  _gonsPerFragment */\n      dup1\n      sload\n        /* \"contracts/utils/token/ERC20Rebase.sol\":1362:1363  0 */\n      0x00\n        /* \"contracts/utils/token/ERC20Rebase.sol\":1342:1363  _gonsPerFragment == 0 */\n      sub\n        /* \"contracts/utils/token/ERC20Rebase.sol\":1338:1373  if (_gonsPerFragment == 0) return 0 */\n      tag_100\n      jumpi\n      pop\n        /* \"contracts/utils/token/ERC20Rebase.sol\":1372:1373  0 */\n      0x00\n      swap2\n        /* \"contracts/utils/token/ERC20Rebase.sol\":1252:1441  function balanceOf(address _address) public view override returns (uint256) {... */\n      swap1\n      pop\n      jump\t// out\n        /* \"contracts/utils/token/ERC20Rebase.sol\":1338:1373  if (_gonsPerFragment == 0) return 0 */\n    tag_100:\n        /* \"contracts/utils/token/ERC20Rebase.sol\":1417:1433  _gonsPerFragment */\n      0x00\n      dup1\n      sload\n      sub(shl(0xa0, 0x01), 0x01)\n        /* \"contracts/utils/token/ERC20Rebase.sol\":1390:1412  _gonBalances[_address] */\n      dup5\n      and\n      dup3\n      mstore\n        /* \"contracts/utils/token/ERC20Rebase.sol\":1390:1402  _gonBalances */\n      0x01\n        /* \"contracts/utils/token/ERC20Rebase.sol\":1390:1412  _gonBalances[_address] */\n      0x20\n      mstore\n      0x40\n      swap1\n      swap2\n      keccak256\n      sload\n        /* \"contracts/utils/token/ERC20Rebase.sol\":1390:1434  _gonBalances[_address].div(_gonsPerFragment) */\n      tag_101\n      swap2\n        /* \"contracts/utils/token/ERC20Rebase.sol\":1390:1416  _gonBalances[_address].div */\n      tag_102\n        /* \"contracts/utils/token/ERC20Rebase.sol\":1390:1434  _gonBalances[_address].div(_gonsPerFragment) */\n      jump\t// in\n    tag_101:\n        /* \"contracts/utils/token/ERC20Rebase.sol\":1383:1434  return _gonBalances[_address].div(_gonsPerFragment) */\n      swap3\n        /* \"contracts/utils/token/ERC20Rebase.sol\":1252:1441  function balanceOf(address _address) public view override returns (uint256) {... */\n      swap2\n      pop\n      pop\n      jump\t// out\n        /* \"contracts/utils/token/ERC20Rebase.sol\":832:925  function symbol() public view virtual returns (string memory) {... */\n    tag_55:\n        /* \"contracts/utils/token/ERC20Rebase.sol\":879:892  string memory */\n      0x60\n        /* \"contracts/utils/token/ERC20Rebase.sol\":911:918  _symbol */\n      0x06\n        /* \"contracts/utils/token/ERC20Rebase.sol\":904:918  return _symbol */\n      dup1\n      sload\n      tag_74\n      swap1\n      tag_75\n      jump\t// in\n        /* \"contracts/utils/token/ERC20Rebase.sol\":2851:3285  function decreaseAllowance(address spender, uint256 subtractedValue) public virtual returns (bool) {... */\n    tag_59:\n        /* \"contracts/utils/Context.sol\":666:676  msg.sender */\n      caller\n        /* \"contracts/utils/token/ERC20Rebase.sol\":2944:2948  bool */\n      0x00\n        /* \"contracts/utils/token/ERC20Rebase.sol\":3025:3049  _allowedFragments[owner] */\n      dup2\n      dup2\n      mstore\n        /* \"contracts/utils/token/ERC20Rebase.sol\":3025:3042  _allowedFragments */\n      0x02\n        /* \"contracts/utils/token/ERC20Rebase.sol\":3025:3049  _allowedFragments[owner] */\n      0x20\n      swap1\n      dup2\n      mstore\n      0x40\n      dup1\n      dup4\n      keccak256\n      sub(shl(0xa0, 0x01), 0x01)\n        /* \"contracts/utils/token/ERC20Rebase.sol\":3025:3058  _allowedFragments[owner][spender] */\n      dup8\n      and\n      dup5\n      mstore\n      swap1\n      swap2\n      mstore\n      dup2\n      keccak256\n      sload\n        /* \"contracts/utils/token/ERC20Rebase.sol\":2944:2948  bool */\n      swap1\n      swap2\n        /* \"contracts/utils/Context.sol\":666:676  msg.sender */\n      swap1\n        /* \"contracts/utils/token/ERC20Rebase.sol\":3076:3111  currentAllowance >= subtractedValue */\n      dup4\n      dup2\n      lt\n      iszero\n        /* \"contracts/utils/token/ERC20Rebase.sol\":3068:3153  require(currentAllowance >= subtractedValue, \"ERC20: decreased allowance below zero\") */\n      tag_111\n      jumpi\n      mload(0x40)\n      shl(0xe5, 0x461bcd)\n      dup2\n      mstore\n        /* \"#utility.yul\":3257:3259   */\n      0x20\n        /* \"contracts/utils/token/ERC20Rebase.sol\":3068:3153  require(currentAllowance >= subtractedValue, \"ERC20: decreased allowance below zero\") */\n      0x04\n      dup3\n      add\n        /* \"#utility.yul\":3239:3260   */\n      mstore\n        /* \"#utility.yul\":3296:3298   */\n      0x25\n        /* \"#utility.yul\":3276:3294   */\n      0x24\n      dup3\n      add\n        /* \"#utility.yul\":3269:3299   */\n      mstore\n        /* \"#utility.yul\":3335:3369   */\n      0x45524332303a2064656372656173656420616c6c6f77616e63652062656c6f77\n        /* \"#utility.yul\":3315:3333   */\n      0x44\n      dup3\n      add\n        /* \"#utility.yul\":3308:3370   */\n      mstore\n      shl(0xd8, 0x207a65726f)\n        /* \"#utility.yul\":3386:3404   */\n      0x64\n      dup3\n      add\n        /* \"#utility.yul\":3379:3414   */\n      mstore\n        /* \"#utility.yul\":3431:3450   */\n      0x84\n      add\n        /* \"contracts/utils/token/ERC20Rebase.sol\":3068:3153  require(currentAllowance >= subtractedValue, \"ERC20: decreased allowance below zero\") */\n    tag_112:\n      mload(0x40)\n      dup1\n      swap2\n      sub\n      swap1\n      revert\n    tag_111:\n        /* \"contracts/utils/token/ERC20Rebase.sol\":3187:3247  _approve(owner, spender, currentAllowance - subtractedValue) */\n      tag_91\n        /* \"contracts/utils/token/ERC20Rebase.sol\":3196:3201  owner */\n      dup3\n        /* \"contracts/utils/token/ERC20Rebase.sol\":3203:3210  spender */\n      dup7\n        /* \"contracts/utils/token/ERC20Rebase.sol\":3231:3246  subtractedValue */\n      dup7\n        /* \"contracts/utils/token/ERC20Rebase.sol\":3212:3228  currentAllowance */\n      dup5\n        /* \"contracts/utils/token/ERC20Rebase.sol\":3212:3246  currentAllowance - subtractedValue */\n      sub\n        /* \"contracts/utils/token/ERC20Rebase.sol\":3187:3195  _approve */\n      tag_84\n        /* \"contracts/utils/token/ERC20Rebase.sol\":3187:3247  _approve(owner, spender, currentAllowance - subtractedValue) */\n      jump\t// in\n        /* \"contracts/utils/token/ERC20Rebase.sol\":1692:1881  function transfer(address to, uint256 amount) public virtual override returns (bool) {... */\n    tag_63:\n        /* \"contracts/utils/token/ERC20Rebase.sol\":1771:1775  bool */\n      0x00\n        /* \"contracts/utils/Context.sol\":666:676  msg.sender */\n      caller\n        /* \"contracts/utils/token/ERC20Rebase.sol\":1825:1853  _transfer(owner, to, amount) */\n      tag_83\n        /* \"contracts/utils/Context.sol\":666:676  msg.sender */\n      dup2\n        /* \"contracts/utils/token/ERC20Rebase.sol\":1842:1844  to */\n      dup6\n        /* \"contracts/utils/token/ERC20Rebase.sol\":1846:1852  amount */\n      dup6\n        /* \"contracts/utils/token/ERC20Rebase.sol\":1825:1834  _transfer */\n      tag_92\n        /* \"contracts/utils/token/ERC20Rebase.sol\":1825:1853  _transfer(owner, to, amount) */\n      jump\t// in\n        /* \"contracts/utils/token/ERC20Rebase.sol\":2251:2597  function _approve(address owner, address spender, uint256 amount) internal virtual {... */\n    tag_84:\n      sub(shl(0xa0, 0x01), 0x01)\n        /* \"contracts/utils/token/ERC20Rebase.sol\":2352:2371  owner != address(0) */\n      dup4\n      and\n        /* \"contracts/utils/token/ERC20Rebase.sol\":2344:2412  require(owner != address(0), \"ERC20: approve from the zero address\") */\n      tag_121\n      jumpi\n      mload(0x40)\n      shl(0xe5, 0x461bcd)\n      dup2\n      mstore\n        /* \"#utility.yul\":3663:3665   */\n      0x20\n        /* \"contracts/utils/token/ERC20Rebase.sol\":2344:2412  require(owner != address(0), \"ERC20: approve from the zero address\") */\n      0x04\n      dup3\n      add\n        /* \"#utility.yul\":3645:3666   */\n      mstore\n        /* \"#utility.yul\":3702:3704   */\n      0x24\n        /* \"#utility.yul\":3682:3700   */\n      dup1\n      dup3\n      add\n        /* \"#utility.yul\":3675:3705   */\n      mstore\n        /* \"#utility.yul\":3741:3775   */\n      0x45524332303a20617070726f76652066726f6d20746865207a65726f20616464\n        /* \"#utility.yul\":3721:3739   */\n      0x44\n      dup3\n      add\n        /* \"#utility.yul\":3714:3776   */\n      mstore\n      shl(0xe0, 0x72657373)\n        /* \"#utility.yul\":3792:3810   */\n      0x64\n      dup3\n      add\n        /* \"#utility.yul\":3785:3819   */\n      mstore\n        /* \"#utility.yul\":3836:3855   */\n      0x84\n      add\n        /* \"contracts/utils/token/ERC20Rebase.sol\":2344:2412  require(owner != address(0), \"ERC20: approve from the zero address\") */\n      tag_112\n        /* \"#utility.yul\":3461:3861   */\n      jump\n        /* \"contracts/utils/token/ERC20Rebase.sol\":2344:2412  require(owner != address(0), \"ERC20: approve from the zero address\") */\n    tag_121:\n      sub(shl(0xa0, 0x01), 0x01)\n        /* \"contracts/utils/token/ERC20Rebase.sol\":2430:2451  spender != address(0) */\n      dup3\n      and\n        /* \"contracts/utils/token/ERC20Rebase.sol\":2422:2490  require(spender != address(0), \"ERC20: approve to the zero address\") */\n      tag_124\n      jumpi\n      mload(0x40)\n      shl(0xe5, 0x461bcd)\n      dup2\n      mstore\n        /* \"#utility.yul\":4068:4070   */\n      0x20\n        /* \"contracts/utils/token/ERC20Rebase.sol\":2422:2490  require(spender != address(0), \"ERC20: approve to the zero address\") */\n      0x04\n      dup3\n      add\n        /* \"#utility.yul\":4050:4071   */\n      mstore\n        /* \"#utility.yul\":4107:4109   */\n      0x22\n        /* \"#utility.yul\":4087:4105   */\n      0x24\n      dup3\n      add\n        /* \"#utility.yul\":4080:4110   */\n      mstore\n        /* \"#utility.yul\":4146:4180   */\n      0x45524332303a20617070726f766520746f20746865207a65726f206164647265\n        /* \"#utility.yul\":4126:4144   */\n      0x44\n      dup3\n      add\n        /* \"#utility.yul\":4119:4181   */\n      mstore\n      shl(0xf0, 0x7373)\n        /* \"#utility.yul\":4197:4215   */\n      0x64\n      dup3\n      add\n        /* \"#utility.yul\":4190:4222   */\n      mstore\n        /* \"#utility.yul\":4239:4258   */\n      0x84\n      add\n        /* \"contracts/utils/token/ERC20Rebase.sol\":2422:2490  require(spender != address(0), \"ERC20: approve to the zero address\") */\n      tag_112\n        /* \"#utility.yul\":3866:4264   */\n      jump\n        /* \"contracts/utils/token/ERC20Rebase.sol\":2422:2490  require(spender != address(0), \"ERC20: approve to the zero address\") */\n    tag_124:\n      sub(shl(0xa0, 0x01), 0x01)\n        /* \"contracts/utils/token/ERC20Rebase.sol\":2501:2525  _allowedFragments[owner] */\n      dup4\n      dup2\n      and\n      0x00\n      dup2\n      dup2\n      mstore\n        /* \"contracts/utils/token/ERC20Rebase.sol\":2501:2518  _allowedFragments */\n      0x02\n        /* \"contracts/utils/token/ERC20Rebase.sol\":2501:2525  _allowedFragments[owner] */\n      0x20\n      swap1\n      dup2\n      mstore\n      0x40\n      dup1\n      dup4\n      keccak256\n        /* \"contracts/utils/token/ERC20Rebase.sol\":2501:2534  _allowedFragments[owner][spender] */\n      swap5\n      dup8\n      and\n      dup1\n      dup5\n      mstore\n      swap5\n      dup3\n      mstore\n      swap2\n      dup3\n      swap1\n      keccak256\n        /* \"contracts/utils/token/ERC20Rebase.sol\":2501:2543  _allowedFragments[owner][spender] = amount */\n      dup6\n      swap1\n      sstore\n        /* \"contracts/utils/token/ERC20Rebase.sol\":2558:2590  Approval(owner, spender, amount) */\n      swap1\n      mload\n        /* \"#utility.yul\":1391:1416   */\n      dup5\n      dup2\n      mstore\n        /* \"contracts/utils/token/ERC20Rebase.sol\":2558:2590  Approval(owner, spender, amount) */\n      0x8c5be1e5ebec7d5bd14f71427d1e84f3dd0314c0f7b2291e5b200ac8c7c3b925\n      swap2\n        /* \"#utility.yul\":1364:1382   */\n      add\n        /* \"contracts/utils/token/ERC20Rebase.sol\":2558:2590  Approval(owner, spender, amount) */\n      mload(0x40)\n      dup1\n      swap2\n      sub\n      swap1\n      log3\n        /* \"contracts/utils/token/ERC20Rebase.sol\":2251:2597  function _approve(address owner, address spender, uint256 amount) internal virtual {... */\n      pop\n      pop\n      pop\n      jump\t// out\n        /* \"contracts/utils/token/ERC20Rebase.sol\":3291:3732  function _spendAllowance(... */\n    tag_90:\n      sub(shl(0xa0, 0x01), 0x01)\n        /* \"contracts/utils/token/ERC20Rebase.sol\":2002:2026  _allowedFragments[owner] */\n      dup4\n      dup2\n      and\n        /* \"contracts/utils/token/ERC20Rebase.sol\":3421:3445  uint256 currentAllowance */\n      0x00\n        /* \"contracts/utils/token/ERC20Rebase.sol\":2002:2026  _allowedFragments[owner] */\n      swap1\n      dup2\n      mstore\n        /* \"contracts/utils/token/ERC20Rebase.sol\":2002:2019  _allowedFragments */\n      0x02\n        /* \"contracts/utils/token/ERC20Rebase.sol\":2002:2026  _allowedFragments[owner] */\n      0x20\n      swap1\n      dup2\n      mstore\n      0x40\n      dup1\n      dup4\n      keccak256\n        /* \"contracts/utils/token/ERC20Rebase.sol\":2002:2035  _allowedFragments[owner][spender] */\n      swap4\n      dup7\n      and\n      dup4\n      mstore\n      swap3\n      swap1\n      mstore\n      keccak256\n      sload\n      not(0x00)\n        /* \"contracts/utils/token/ERC20Rebase.sol\":3487:3524  currentAllowance != type(uint256).max */\n      dup2\n      eq\n        /* \"contracts/utils/token/ERC20Rebase.sol\":3483:3726  if (currentAllowance != type(uint256).max) {... */\n      tag_134\n      jumpi\n        /* \"contracts/utils/token/ERC20Rebase.sol\":3568:3574  amount */\n      dup2\n        /* \"contracts/utils/token/ERC20Rebase.sol\":3548:3564  currentAllowance */\n      dup2\n        /* \"contracts/utils/token/ERC20Rebase.sol\":3548:3574  currentAllowance >= amount */\n      lt\n      iszero\n        /* \"contracts/utils/token/ERC20Rebase.sol\":3540:3608  require(currentAllowance >= amount, \"ERC20: insufficient allowance\") */\n      tag_131\n      jumpi\n      mload(0x40)\n      shl(0xe5, 0x461bcd)\n      dup2\n      mstore\n        /* \"#utility.yul\":4471:4473   */\n      0x20\n        /* \"contracts/utils/token/ERC20Rebase.sol\":3540:3608  require(currentAllowance >= amount, \"ERC20: insufficient allowance\") */\n      0x04\n      dup3\n      add\n        /* \"#utility.yul\":4453:4474   */\n      mstore\n        /* \"#utility.yul\":4510:4512   */\n      0x1d\n        /* \"#utility.yul\":4490:4508   */\n      0x24\n      dup3\n      add\n        /* \"#utility.yul\":4483:4513   */\n      mstore\n        /* \"#utility.yul\":4549:4580   */\n      0x45524332303a20696e73756666696369656e7420616c6c6f77616e6365000000\n        /* \"#utility.yul\":4529:4547   */\n      0x44\n      dup3\n      add\n        /* \"#utility.yul\":4522:4581   */\n      mstore\n        /* \"#utility.yul\":4598:4616   */\n      0x64\n      add\n        /* \"contracts/utils/token/ERC20Rebase.sol\":3540:3608  require(currentAllowance >= amount, \"ERC20: insufficient allowance\") */\n      tag_112\n        /* \"#utility.yul\":4269:4622   */\n      jump\n        /* \"contracts/utils/token/ERC20Rebase.sol\":3540:3608  require(currentAllowance >= amount, \"ERC20: insufficient allowance\") */\n    tag_131:\n        /* \"contracts/utils/token/ERC20Rebase.sol\":3650:3701  _approve(owner, spender, currentAllowance - amount) */\n      tag_134\n        /* \"contracts/utils/token/ERC20Rebase.sol\":3659:3664  owner */\n      dup5\n        /* \"contracts/utils/token/ERC20Rebase.sol\":3666:3673  spender */\n      dup5\n        /* \"contracts/utils/token/ERC20Rebase.sol\":3694:3700  amount */\n      dup5\n        /* \"contracts/utils/token/ERC20Rebase.sol\":3675:3691  currentAllowance */\n      dup5\n        /* \"contracts/utils/token/ERC20Rebase.sol\":3675:3700  currentAllowance - amount */\n      sub\n        /* \"contracts/utils/token/ERC20Rebase.sol\":3650:3658  _approve */\n      tag_84\n        /* \"contracts/utils/token/ERC20Rebase.sol\":3650:3701  _approve(owner, spender, currentAllowance - amount) */\n      jump\t// in\n    tag_134:\n        /* \"contracts/utils/token/ERC20Rebase.sol\":3411:3732  {... */\n      pop\n        /* \"contracts/utils/token/ERC20Rebase.sol\":3291:3732  function _spendAllowance(... */\n      pop\n      pop\n      pop\n      jump\t// out\n        /* \"contracts/utils/token/ERC20Rebase.sol\":4008:4719  function _transfer(address from, address to, uint256 amount) internal virtual {... */\n    tag_92:\n      sub(shl(0xa0, 0x01), 0x01)\n        /* \"contracts/utils/token/ERC20Rebase.sol\":4104:4122  from != address(0) */\n      dup4\n      and\n        /* \"contracts/utils/token/ERC20Rebase.sol\":4096:4164  require(from != address(0), \"ERC20: transfer from the zero address\") */\n      tag_136\n      jumpi\n      mload(0x40)\n      shl(0xe5, 0x461bcd)\n      dup2\n      mstore\n        /* \"#utility.yul\":4829:4831   */\n      0x20\n        /* \"contracts/utils/token/ERC20Rebase.sol\":4096:4164  require(from != address(0), \"ERC20: transfer from the zero address\") */\n      0x04\n      dup3\n      add\n        /* \"#utility.yul\":4811:4832   */\n      mstore\n        /* \"#utility.yul\":4868:4870   */\n      0x25\n        /* \"#utility.yul\":4848:4866   */\n      0x24\n      dup3\n      add\n        /* \"#utility.yul\":4841:4871   */\n      mstore\n        /* \"#utility.yul\":4907:4941   */\n      0x45524332303a207472616e736665722066726f6d20746865207a65726f206164\n        /* \"#utility.yul\":4887:4905   */\n      0x44\n      dup3\n      add\n        /* \"#utility.yul\":4880:4942   */\n      mstore\n      shl(0xd8, 0x6472657373)\n        /* \"#utility.yul\":4958:4976   */\n      0x64\n      dup3\n      add\n        /* \"#utility.yul\":4951:4986   */\n      mstore\n        /* \"#utility.yul\":5003:5022   */\n      0x84\n      add\n        /* \"contracts/utils/token/ERC20Rebase.sol\":4096:4164  require(from != address(0), \"ERC20: transfer from the zero address\") */\n      tag_112\n        /* \"#utility.yul\":4627:5028   */\n      jump\n        /* \"contracts/utils/token/ERC20Rebase.sol\":4096:4164  require(from != address(0), \"ERC20: transfer from the zero address\") */\n    tag_136:\n      sub(shl(0xa0, 0x01), 0x01)\n        /* \"contracts/utils/token/ERC20Rebase.sol\":4182:4198  to != address(0) */\n      dup3\n      and\n        /* \"contracts/utils/token/ERC20Rebase.sol\":4174:4238  require(to != address(0), \"ERC20: transfer to the zero address\") */\n      tag_139\n      jumpi\n      mload(0x40)\n      shl(0xe5, 0x461bcd)\n      dup2\n      mstore\n        /* \"#utility.yul\":5235:5237   */\n      0x20\n        /* \"contracts/utils/token/ERC20Rebase.sol\":4174:4238  require(to != address(0), \"ERC20: transfer to the zero address\") */\n      0x04\n      dup3\n      add\n        /* \"#utility.yul\":5217:5238   */\n      mstore\n        /* \"#utility.yul\":5274:5276   */\n      0x23\n        /* \"#utility.yul\":5254:5272   */\n      0x24\n      dup3\n      add\n        /* \"#utility.yul\":5247:5277   */\n      mstore\n        /* \"#utility.yul\":5313:5347   */\n      0x45524332303a207472616e7366657220746f20746865207a65726f2061646472\n        /* \"#utility.yul\":5293:5311   */\n      0x44\n      dup3\n      add\n        /* \"#utility.yul\":5286:5348   */\n      mstore\n      shl(0xe8, 0x657373)\n        /* \"#utility.yul\":5364:5382   */\n      0x64\n      dup3\n      add\n        /* \"#utility.yul\":5357:5390   */\n      mstore\n        /* \"#utility.yul\":5407:5426   */\n      0x84\n      add\n        /* \"contracts/utils/token/ERC20Rebase.sol\":4174:4238  require(to != address(0), \"ERC20: transfer to the zero address\") */\n      tag_112\n        /* \"#utility.yul\":5033:5432   */\n      jump\n        /* \"contracts/utils/token/ERC20Rebase.sol\":4174:4238  require(to != address(0), \"ERC20: transfer to the zero address\") */\n    tag_139:\n        /* \"contracts/utils/token/ERC20Rebase.sol\":4298:4314  uint256 gonValue */\n      0x00\n        /* \"contracts/utils/token/ERC20Rebase.sol\":4328:4344  _gonsPerFragment */\n      dup1\n      sload\n        /* \"contracts/utils/token/ERC20Rebase.sol\":4317:4345  amount.mul(_gonsPerFragment) */\n      tag_144\n      swap1\n        /* \"contracts/utils/token/ERC20Rebase.sol\":4317:4323  amount */\n      dup4\n      swap1\n        /* \"contracts/utils/token/ERC20Rebase.sol\":4317:4327  amount.mul */\n      tag_145\n        /* \"contracts/utils/token/ERC20Rebase.sol\":4317:4345  amount.mul(_gonsPerFragment) */\n      jump\t// in\n    tag_144:\n      sub(shl(0xa0, 0x01), 0x01)\n        /* \"contracts/utils/token/ERC20Rebase.sol\":4378:4396  _gonBalances[from] */\n      dup6\n      and\n        /* \"contracts/utils/token/ERC20Rebase.sol\":4356:4375  uint256 fromBalance */\n      0x00\n        /* \"contracts/utils/token/ERC20Rebase.sol\":4378:4396  _gonBalances[from] */\n      swap1\n      dup2\n      mstore\n        /* \"contracts/utils/token/ERC20Rebase.sol\":4378:4390  _gonBalances */\n      0x01\n        /* \"contracts/utils/token/ERC20Rebase.sol\":4378:4396  _gonBalances[from] */\n      0x20\n      mstore\n      0x40\n      swap1\n      keccak256\n      sload\n        /* \"contracts/utils/token/ERC20Rebase.sol\":4298:4345  uint256 gonValue = amount.mul(_gonsPerFragment) */\n      swap1\n      swap2\n      pop\n        /* \"contracts/utils/token/ERC20Rebase.sol\":4414:4437  fromBalance >= gonValue */\n      dup2\n      dup2\n      lt\n      iszero\n        /* \"contracts/utils/token/ERC20Rebase.sol\":4406:4480  require(fromBalance >= gonValue, \"ERC20: transfer amount exceeds balance\") */\n      tag_146\n      jumpi\n      mload(0x40)\n      shl(0xe5, 0x461bcd)\n      dup2\n      mstore\n        /* \"#utility.yul\":5639:5641   */\n      0x20\n        /* \"contracts/utils/token/ERC20Rebase.sol\":4406:4480  require(fromBalance >= gonValue, \"ERC20: transfer amount exceeds balance\") */\n      0x04\n      dup3\n      add\n        /* \"#utility.yul\":5621:5642   */\n      mstore\n        /* \"#utility.yul\":5678:5680   */\n      0x26\n        /* \"#utility.yul\":5658:5676   */\n      0x24\n      dup3\n      add\n        /* \"#utility.yul\":5651:5681   */\n      mstore\n        /* \"#utility.yul\":5717:5751   */\n      0x45524332303a207472616e7366657220616d6f756e7420657863656564732062\n        /* \"#utility.yul\":5697:5715   */\n      0x44\n      dup3\n      add\n        /* \"#utility.yul\":5690:5752   */\n      mstore\n      shl(0xd0, 0x616c616e6365)\n        /* \"#utility.yul\":5768:5786   */\n      0x64\n      dup3\n      add\n        /* \"#utility.yul\":5761:5797   */\n      mstore\n        /* \"#utility.yul\":5814:5833   */\n      0x84\n      add\n        /* \"contracts/utils/token/ERC20Rebase.sol\":4406:4480  require(fromBalance >= gonValue, \"ERC20: transfer amount exceeds balance\") */\n      tag_112\n        /* \"#utility.yul\":5437:5839   */\n      jump\n        /* \"contracts/utils/token/ERC20Rebase.sol\":4406:4480  require(fromBalance >= gonValue, \"ERC20: transfer amount exceeds balance\") */\n    tag_146:\n      sub(shl(0xa0, 0x01), 0x01)\n        /* \"contracts/utils/token/ERC20Rebase.sol\":4514:4532  _gonBalances[from] */\n      dup1\n      dup7\n      and\n      0x00\n      swap1\n      dup2\n      mstore\n        /* \"contracts/utils/token/ERC20Rebase.sol\":4514:4526  _gonBalances */\n      0x01\n        /* \"contracts/utils/token/ERC20Rebase.sol\":4514:4532  _gonBalances[from] */\n      0x20\n      mstore\n      0x40\n      dup1\n      dup3\n      keccak256\n        /* \"contracts/utils/token/ERC20Rebase.sol\":4535:4557  fromBalance - gonValue */\n      dup6\n      dup6\n      sub\n        /* \"contracts/utils/token/ERC20Rebase.sol\":4514:4557  _gonBalances[from] = fromBalance - gonValue */\n      swap1\n      sstore\n        /* \"contracts/utils/token/ERC20Rebase.sol\":4578:4594  _gonBalances[to] */\n      swap2\n      dup7\n      and\n      dup2\n      mstore\n      swap1\n      dup2\n      keccak256\n        /* \"contracts/utils/token/ERC20Rebase.sol\":4578:4606  _gonBalances[to] += gonValue */\n      dup1\n      sload\n        /* \"contracts/utils/token/ERC20Rebase.sol\":4549:4557  gonValue */\n      dup5\n      swap3\n        /* \"contracts/utils/token/ERC20Rebase.sol\":4514:4532  _gonBalances[from] */\n      swap1\n        /* \"contracts/utils/token/ERC20Rebase.sol\":4578:4606  _gonBalances[to] += gonValue */\n      tag_149\n      swap1\n        /* \"contracts/utils/token/ERC20Rebase.sol\":4549:4557  gonValue */\n      dup5\n      swap1\n        /* \"contracts/utils/token/ERC20Rebase.sol\":4578:4606  _gonBalances[to] += gonValue */\n      tag_98\n      jump\t// in\n    tag_149:\n      swap3\n      pop\n      pop\n      dup2\n      swap1\n      sstore\n      pop\n        /* \"contracts/utils/token/ERC20Rebase.sol\":4641:4643  to */\n      dup4\n      sub(shl(0xa0, 0x01), 0x01)\n        /* \"contracts/utils/token/ERC20Rebase.sol\":4626:4652  Transfer(from, to, amount) */\n      and\n        /* \"contracts/utils/token/ERC20Rebase.sol\":4635:4639  from */\n      dup6\n      sub(shl(0xa0, 0x01), 0x01)\n        /* \"contracts/utils/token/ERC20Rebase.sol\":4626:4652  Transfer(from, to, amount) */\n      and\n      0xddf252ad1be2c89b69c2b068fc378daa952ba7f163c4a11628f55a4df523b3ef\n        /* \"contracts/utils/token/ERC20Rebase.sol\":4645:4651  amount */\n      dup6\n        /* \"contracts/utils/token/ERC20Rebase.sol\":4626:4652  Transfer(from, to, amount) */\n      mload(0x40)\n      tag_150\n      swap2\n        /* \"#utility.yul\":1391:1416   */\n      dup2\n      mstore\n        /* \"#utility.yul\":1379:1381   */\n      0x20\n        /* \"#utility.yul\":1364:1382   */\n      add\n      swap1\n        /* \"#utility.yul\":1245:1422   */\n      jump\n        /* \"contracts/utils/token/ERC20Rebase.sol\":4626:4652  Transfer(from, to, amount) */\n    tag_150:\n      mload(0x40)\n      dup1\n      swap2\n      sub\n      swap1\n      log3\n        /* \"contracts/utils/token/ERC20Rebase.sol\":4086:4719  {... */\n      pop\n      pop\n        /* \"contracts/utils/token/ERC20Rebase.sol\":4008:4719  function _transfer(address from, address to, uint256 amount) internal virtual {... */\n      pop\n      pop\n      pop\n      jump\t// out\n        /* \"contracts/utils/math/SafeMath.sol\":3778:3874  function div(uint256 a, uint256 b) internal pure returns (uint256) {... */\n    tag_102:\n        /* \"contracts/utils/math/SafeMath.sol\":3836:3843  uint256 */\n      0x00\n        /* \"contracts/utils/math/SafeMath.sol\":3862:3867  a / b */\n      tag_154\n        /* \"contracts/utils/math/SafeMath.sol\":3866:3867  b */\n      dup3\n        /* \"contracts/utils/math/SafeMath.sol\":3862:3863  a */\n      dup5\n        /* \"contracts/utils/math/SafeMath.sol\":3862:3867  a / b */\n      tag_155\n      jump\t// in\n    tag_154:\n        /* \"contracts/utils/math/SafeMath.sol\":3855:3867  return a / b */\n      swap4\n        /* \"contracts/utils/math/SafeMath.sol\":3778:3874  function div(uint256 a, uint256 b) internal pure returns (uint256) {... */\n      swap3\n      pop\n      pop\n      pop\n      jump\t// out\n        /* \"contracts/utils/math/SafeMath.sol\":3393:3489  function mul(uint256 a, uint256 b) internal pure returns (uint256) {... */\n    tag_145:\n        /* \"contracts/utils/math/SafeMath.sol\":3451:3458  uint256 */\n      0x00\n        /* \"contracts/utils/math/SafeMath.sol\":3477:3482  a * b */\n      tag_154\n        /* \"contracts/utils/math/SafeMath.sol\":3481:3482  b */\n      dup3\n        /* \"contracts/utils/math/SafeMath.sol\":3477:3478  a */\n      dup5\n        /* \"contracts/utils/math/SafeMath.sol\":3477:3482  a * b */\n      tag_159\n      jump\t// in\n        /* \"#utility.yul\":14:611   */\n    tag_21:\n        /* \"#utility.yul\":126:130   */\n      0x00\n        /* \"#utility.yul\":155:157   */\n      0x20\n        /* \"#utility.yul\":184:186   */\n      dup1\n        /* \"#utility.yul\":173:182   */\n      dup4\n        /* \"#utility.yul\":166:187   */\n      mstore\n        /* \"#utility.yul\":216:222   */\n      dup4\n        /* \"#utility.yul\":210:223   */\n      mload\n        /* \"#utility.yul\":259:265   */\n      dup1\n        /* \"#utility.yul\":254:256   */\n      dup3\n        /* \"#utility.yul\":243:252   */\n      dup6\n        /* \"#utility.yul\":239:257   */\n      add\n        /* \"#utility.yul\":232:266   */\n      mstore\n        /* \"#utility.yul\":284:285   */\n      0x00\n        /* \"#utility.yul\":294:434   */\n    tag_165:\n        /* \"#utility.yul\":308:314   */\n      dup2\n        /* \"#utility.yul\":305:306   */\n      dup2\n        /* \"#utility.yul\":302:315   */\n      lt\n        /* \"#utility.yul\":294:434   */\n      iszero\n      tag_167\n      jumpi\n        /* \"#utility.yul\":403:417   */\n      dup6\n      dup2\n      add\n        /* \"#utility.yul\":399:422   */\n      dup4\n      add\n        /* \"#utility.yul\":393:423   */\n      mload\n        /* \"#utility.yul\":369:386   */\n      dup6\n      dup3\n      add\n        /* \"#utility.yul\":388:390   */\n      0x40\n        /* \"#utility.yul\":365:391   */\n      add\n        /* \"#utility.yul\":358:424   */\n      mstore\n        /* \"#utility.yul\":323:333   */\n      dup3\n      add\n        /* \"#utility.yul\":294:434   */\n      jump(tag_165)\n    tag_167:\n        /* \"#utility.yul\":452:458   */\n      dup2\n        /* \"#utility.yul\":449:450   */\n      dup2\n        /* \"#utility.yul\":446:459   */\n      gt\n        /* \"#utility.yul\":443:534   */\n      iszero\n      tag_168\n      jumpi\n        /* \"#utility.yul\":522:523   */\n      0x00\n        /* \"#utility.yul\":517:519   */\n      0x40\n        /* \"#utility.yul\":508:514   */\n      dup4\n        /* \"#utility.yul\":497:506   */\n      dup8\n        /* \"#utility.yul\":493:515   */\n      add\n        /* \"#utility.yul\":489:520   */\n      add\n        /* \"#utility.yul\":482:524   */\n      mstore\n        /* \"#utility.yul\":443:534   */\n    tag_168:\n      pop\n        /* \"#utility.yul\":595:597   */\n      0x1f\n        /* \"#utility.yul\":574:589   */\n      add\n      not(0x1f)\n        /* \"#utility.yul\":570:599   */\n      and\n        /* \"#utility.yul\":555:600   */\n      swap3\n      swap1\n      swap3\n      add\n        /* \"#utility.yul\":602:604   */\n      0x40\n        /* \"#utility.yul\":551:605   */\n      add\n      swap4\n        /* \"#utility.yul\":14:611   */\n      swap3\n      pop\n      pop\n      pop\n      jump\t// out\n        /* \"#utility.yul\":616:789   */\n    tag_161:\n        /* \"#utility.yul\":684:704   */\n      dup1\n      calldataload\n      sub(shl(0xa0, 0x01), 0x01)\n        /* \"#utility.yul\":733:764   */\n      dup2\n      and\n        /* \"#utility.yul\":723:765   */\n      dup2\n      eq\n        /* \"#utility.yul\":713:783   */\n      tag_170\n      jumpi\n        /* \"#utility.yul\":779:780   */\n      0x00\n        /* \"#utility.yul\":776:777   */\n      dup1\n        /* \"#utility.yul\":769:781   */\n      revert\n        /* \"#utility.yul\":713:783   */\n    tag_170:\n        /* \"#utility.yul\":616:789   */\n      swap2\n      swap1\n      pop\n      jump\t// out\n        /* \"#utility.yul\":794:1048   */\n    tag_24:\n        /* \"#utility.yul\":862:868   */\n      0x00\n        /* \"#utility.yul\":870:876   */\n      dup1\n        /* \"#utility.yul\":923:925   */\n      0x40\n        /* \"#utility.yul\":911:920   */\n      dup4\n        /* \"#utility.yul\":902:909   */\n      dup6\n        /* \"#utility.yul\":898:921   */\n      sub\n        /* \"#utility.yul\":894:926   */\n      slt\n        /* \"#utility.yul\":891:943   */\n      iszero\n      tag_172\n      jumpi\n        /* \"#utility.yul\":939:940   */\n      0x00\n        /* \"#utility.yul\":936:937   */\n      dup1\n        /* \"#utility.yul\":929:941   */\n      revert\n        /* \"#utility.yul\":891:943   */\n    tag_172:\n        /* \"#utility.yul\":962:991   */\n      tag_173\n        /* \"#utility.yul\":981:990   */\n      dup4\n        /* \"#utility.yul\":962:991   */\n      tag_161\n      jump\t// in\n    tag_173:\n        /* \"#utility.yul\":952:991   */\n      swap5\n        /* \"#utility.yul\":1038:1040   */\n      0x20\n        /* \"#utility.yul\":1023:1041   */\n      swap4\n      swap1\n      swap4\n      add\n        /* \"#utility.yul\":1010:1042   */\n      calldataload\n      swap4\n      pop\n      pop\n      pop\n        /* \"#utility.yul\":794:1048   */\n      jump\t// out\n        /* \"#utility.yul\":1427:1613   */\n    tag_34:\n        /* \"#utility.yul\":1486:1492   */\n      0x00\n        /* \"#utility.yul\":1539:1541   */\n      0x20\n        /* \"#utility.yul\":1527:1536   */\n      dup3\n        /* \"#utility.yul\":1518:1525   */\n      dup5\n        /* \"#utility.yul\":1514:1537   */\n      sub\n        /* \"#utility.yul\":1510:1542   */\n      slt\n        /* \"#utility.yul\":1507:1559   */\n      iszero\n      tag_177\n      jumpi\n        /* \"#utility.yul\":1555:1556   */\n      0x00\n        /* \"#utility.yul\":1552:1553   */\n      dup1\n        /* \"#utility.yul\":1545:1557   */\n      revert\n        /* \"#utility.yul\":1507:1559   */\n    tag_177:\n        /* \"#utility.yul\":1578:1607   */\n      tag_154\n        /* \"#utility.yul\":1597:1606   */\n      dup3\n        /* \"#utility.yul\":1578:1607   */\n      tag_161\n      jump\t// in\n        /* \"#utility.yul\":1618:1946   */\n    tag_39:\n        /* \"#utility.yul\":1695:1701   */\n      0x00\n        /* \"#utility.yul\":1703:1709   */\n      dup1\n        /* \"#utility.yul\":1711:1717   */\n      0x00\n        /* \"#utility.yul\":1764:1766   */\n      0x60\n        /* \"#utility.yul\":1752:1761   */\n      dup5\n        /* \"#utility.yul\":1743:1750   */\n      dup7\n        /* \"#utility.yul\":1739:1762   */\n      sub\n        /* \"#utility.yul\":1735:1767   */\n      slt\n        /* \"#utility.yul\":1732:1784   */\n      iszero\n      tag_180\n      jumpi\n        /* \"#utility.yul\":1780:1781   */\n      0x00\n        /* \"#utility.yul\":1777:1778   */\n      dup1\n        /* \"#utility.yul\":1770:1782   */\n      revert\n        /* \"#utility.yul\":1732:1784   */\n    tag_180:\n        /* \"#utility.yul\":1803:1832   */\n      tag_181\n        /* \"#utility.yul\":1822:1831   */\n      dup5\n        /* \"#utility.yul\":1803:1832   */\n      tag_161\n      jump\t// in\n    tag_181:\n        /* \"#utility.yul\":1793:1832   */\n      swap3\n      pop\n        /* \"#utility.yul\":1851:1889   */\n      tag_182\n        /* \"#utility.yul\":1885:1887   */\n      0x20\n        /* \"#utility.yul\":1874:1883   */\n      dup6\n        /* \"#utility.yul\":1870:1888   */\n      add\n        /* \"#utility.yul\":1851:1889   */\n      tag_161\n      jump\t// in\n    tag_182:\n        /* \"#utility.yul\":1841:1889   */\n      swap2\n      pop\n        /* \"#utility.yul\":1936:1938   */\n      0x40\n        /* \"#utility.yul\":1925:1934   */\n      dup5\n        /* \"#utility.yul\":1921:1939   */\n      add\n        /* \"#utility.yul\":1908:1940   */\n      calldataload\n        /* \"#utility.yul\":1898:1940   */\n      swap1\n      pop\n        /* \"#utility.yul\":1618:1946   */\n      swap3\n      pop\n      swap3\n      pop\n      swap3\n      jump\t// out\n        /* \"#utility.yul\":2140:2400   */\n    tag_67:\n        /* \"#utility.yul\":2208:2214   */\n      0x00\n        /* \"#utility.yul\":2216:2222   */\n      dup1\n        /* \"#utility.yul\":2269:2271   */\n      0x40\n        /* \"#utility.yul\":2257:2266   */\n      dup4\n        /* \"#utility.yul\":2248:2255   */\n      dup6\n        /* \"#utility.yul\":2244:2267   */\n      sub\n        /* \"#utility.yul\":2240:2272   */\n      slt\n        /* \"#utility.yul\":2237:2289   */\n      iszero\n      tag_185\n      jumpi\n        /* \"#utility.yul\":2285:2286   */\n      0x00\n        /* \"#utility.yul\":2282:2283   */\n      dup1\n        /* \"#utility.yul\":2275:2287   */\n      revert\n        /* \"#utility.yul\":2237:2289   */\n    tag_185:\n        /* \"#utility.yul\":2308:2337   */\n      tag_186\n        /* \"#utility.yul\":2327:2336   */\n      dup4\n        /* \"#utility.yul\":2308:2337   */\n      tag_161\n      jump\t// in\n    tag_186:\n        /* \"#utility.yul\":2298:2337   */\n      swap2\n      pop\n        /* \"#utility.yul\":2356:2394   */\n      tag_187\n        /* \"#utility.yul\":2390:2392   */\n      0x20\n        /* \"#utility.yul\":2379:2388   */\n      dup5\n        /* \"#utility.yul\":2375:2393   */\n      add\n        /* \"#utility.yul\":2356:2394   */\n      tag_161\n      jump\t// in\n    tag_187:\n        /* \"#utility.yul\":2346:2394   */\n      swap1\n      pop\n        /* \"#utility.yul\":2140:2400   */\n      swap3\n      pop\n      swap3\n      swap1\n      pop\n      jump\t// out\n        /* \"#utility.yul\":2405:2785   */\n    tag_75:\n        /* \"#utility.yul\":2484:2485   */\n      0x01\n        /* \"#utility.yul\":2480:2492   */\n      dup2\n      dup2\n      shr\n      swap1\n        /* \"#utility.yul\":2527:2539   */\n      dup3\n      and\n      dup1\n        /* \"#utility.yul\":2548:2609   */\n      tag_189\n      jumpi\n        /* \"#utility.yul\":2602:2606   */\n      0x7f\n        /* \"#utility.yul\":2594:2600   */\n      dup3\n        /* \"#utility.yul\":2590:2607   */\n      and\n        /* \"#utility.yul\":2580:2607   */\n      swap2\n      pop\n        /* \"#utility.yul\":2548:2609   */\n    tag_189:\n        /* \"#utility.yul\":2655:2657   */\n      0x20\n        /* \"#utility.yul\":2647:2653   */\n      dup3\n        /* \"#utility.yul\":2644:2658   */\n      lt\n        /* \"#utility.yul\":2624:2642   */\n      dup2\n        /* \"#utility.yul\":2621:2659   */\n      sub\n        /* \"#utility.yul\":2618:2779   */\n      tag_190\n      jumpi\n        /* \"#utility.yul\":2701:2711   */\n      0x4e487b71\n        /* \"#utility.yul\":2696:2699   */\n      0xe0\n        /* \"#utility.yul\":2692:2712   */\n      shl\n        /* \"#utility.yul\":2689:2690   */\n      0x00\n        /* \"#utility.yul\":2682:2713   */\n      mstore\n        /* \"#utility.yul\":2736:2740   */\n      0x22\n        /* \"#utility.yul\":2733:2734   */\n      0x04\n        /* \"#utility.yul\":2726:2741   */\n      mstore\n        /* \"#utility.yul\":2764:2768   */\n      0x24\n        /* \"#utility.yul\":2761:2762   */\n      0x00\n        /* \"#utility.yul\":2754:2769   */\n      revert\n        /* \"#utility.yul\":2618:2779   */\n    tag_190:\n      pop\n        /* \"#utility.yul\":2405:2785   */\n      swap2\n      swap1\n      pop\n      jump\t// out\n        /* \"#utility.yul\":2790:2917   */\n    tag_162:\n        /* \"#utility.yul\":2851:2861   */\n      0x4e487b71\n        /* \"#utility.yul\":2846:2849   */\n      0xe0\n        /* \"#utility.yul\":2842:2862   */\n      shl\n        /* \"#utility.yul\":2839:2840   */\n      0x00\n        /* \"#utility.yul\":2832:2863   */\n      mstore\n        /* \"#utility.yul\":2882:2886   */\n      0x11\n        /* \"#utility.yul\":2879:2880   */\n      0x04\n        /* \"#utility.yul\":2872:2887   */\n      mstore\n        /* \"#utility.yul\":2906:2910   */\n      0x24\n        /* \"#utility.yul\":2903:2904   */\n      0x00\n        /* \"#utility.yul\":2896:2911   */\n      revert\n        /* \"#utility.yul\":2922:3050   */\n    tag_98:\n        /* \"#utility.yul\":2962:2965   */\n      0x00\n        /* \"#utility.yul\":2993:2994   */\n      dup3\n        /* \"#utility.yul\":2989:2995   */\n      not\n        /* \"#utility.yul\":2986:2987   */\n      dup3\n        /* \"#utility.yul\":2983:2996   */\n      gt\n        /* \"#utility.yul\":2980:3019   */\n      iszero\n      tag_194\n      jumpi\n        /* \"#utility.yul\":2999:3017   */\n      tag_194\n      tag_162\n      jump\t// in\n    tag_194:\n      pop\n        /* \"#utility.yul\":3035:3044   */\n      add\n      swap1\n        /* \"#utility.yul\":2922:3050   */\n      jump\t// out\n        /* \"#utility.yul\":5844:6061   */\n    tag_155:\n        /* \"#utility.yul\":5884:5885   */\n      0x00\n        /* \"#utility.yul\":5910:5911   */\n      dup3\n        /* \"#utility.yul\":5900:6032   */\n      tag_203\n      jumpi\n        /* \"#utility.yul\":5954:5964   */\n      0x4e487b71\n        /* \"#utility.yul\":5949:5952   */\n      0xe0\n        /* \"#utility.yul\":5945:5965   */\n      shl\n        /* \"#utility.yul\":5942:5943   */\n      0x00\n        /* \"#utility.yul\":5935:5966   */\n      mstore\n        /* \"#utility.yul\":5989:5993   */\n      0x12\n        /* \"#utility.yul\":5986:5987   */\n      0x04\n        /* \"#utility.yul\":5979:5994   */\n      mstore\n        /* \"#utility.yul\":6017:6021   */\n      0x24\n        /* \"#utility.yul\":6014:6015   */\n      0x00\n        /* \"#utility.yul\":6007:6022   */\n      revert\n        /* \"#utility.yul\":5900:6032   */\n    tag_203:\n      pop\n        /* \"#utility.yul\":6046:6055   */\n      div\n      swap1\n        /* \"#utility.yul\":5844:6061   */\n      jump\t// out\n        /* \"#utility.yul\":6066:6234   */\n    tag_159:\n        /* \"#utility.yul\":6106:6113   */\n      0x00\n        /* \"#utility.yul\":6172:6173   */\n      dup2\n        /* \"#utility.yul\":6168:6169   */\n      0x00\n        /* \"#utility.yul\":6164:6170   */\n      not\n        /* \"#utility.yul\":6160:6174   */\n      div\n        /* \"#utility.yul\":6157:6158   */\n      dup4\n        /* \"#utility.yul\":6154:6175   */\n      gt\n        /* \"#utility.yul\":6149:6150   */\n      dup3\n        /* \"#utility.yul\":6142:6151   */\n      iszero\n        /* \"#utility.yul\":6135:6152   */\n      iszero\n        /* \"#utility.yul\":6131:6176   */\n      and\n        /* \"#utility.yul\":6128:6199   */\n      iszero\n      tag_206\n      jumpi\n        /* \"#utility.yul\":6179:6197   */\n      tag_206\n      tag_162\n      jump\t// in\n    tag_206:\n      pop\n        /* \"#utility.yul\":6219:6228   */\n      mul\n      swap1\n        /* \"#utility.yul\":6066:6234   */\n      jump\t// out\n\n    auxdata: 0xa26469706673582212203aa45d10b815316d1807f6cb16f0471725af946af4634ec989ce072e741d890364736f6c634300080d0033\n}\n",
				"bytecode": {
					"linkReferences": {},
					"object": "60806040523480156200001157600080fd5b5060405162000c6538038062000c658339810160408190526200003491620001e8565b81516200004990600590602085019062000075565b5080516200005f90600690602084019062000075565b50506007805460ff19166012179055506200028e565b828054620000839062000252565b90600052602060002090601f016020900481019282620000a75760008555620000f2565b82601f10620000c257805160ff1916838001178555620000f2565b82800160010185558215620000f2579182015b82811115620000f2578251825591602001919060010190620000d5565b506200010092915062000104565b5090565b5b8082111562000100576000815560010162000105565b634e487b7160e01b600052604160045260246000fd5b600082601f8301126200014357600080fd5b81516001600160401b03808211156200016057620001606200011b565b604051601f8301601f19908116603f011681019082821181831017156200018b576200018b6200011b565b81604052838152602092508683858801011115620001a857600080fd5b600091505b83821015620001cc5785820183015181830184015290820190620001ad565b83821115620001de5760008385830101525b9695505050505050565b60008060408385031215620001fc57600080fd5b82516001600160401b03808211156200021457600080fd5b620002228683870162000131565b935060208501519150808211156200023957600080fd5b50620002488582860162000131565b9150509250929050565b600181811c908216806200026757607f821691505b6020821081036200028857634e487b7160e01b600052602260045260246000fd5b50919050565b6109c7806200029e6000396000f3fe608060405234801561001057600080fd5b50600436106100cf5760003560e01c8063395093511161008c578063a457c2d711610066578063a457c2d7146101a6578063a9059cbb146101b9578063dd62ed3e146101cc578063e00713e91461020557600080fd5b8063395093511461017857806370a082311461018b57806395d89b411461019e57600080fd5b806306fdde03146100d4578063095ea7b3146100f257806318160ddd146101155780631da24f3e1461012757806323b872dd14610150578063313ce56714610163575b600080fd5b6100dc61020e565b6040516100e991906107c3565b60405180910390f35b610105610100366004610834565b6102a0565b60405190151581526020016100e9565b6004545b6040519081526020016100e9565b61011961013536600461085e565b6001600160a01b031660009081526001602052604090205490565b61010561015e366004610879565b6102b8565b60075460405160ff90911681526020016100e9565b610105610186366004610834565b6102dc565b61011961019936600461085e565b61031b565b6100dc610358565b6101056101b4366004610834565b610367565b6101056101c7366004610834565b6103fe565b6101196101da3660046108b5565b6001600160a01b03918216600090815260026020908152604080832093909416825291909152205490565b61011960035481565b60606005805461021d906108e8565b80601f0160208091040260200160405190810160405280929190818152602001828054610249906108e8565b80156102965780601f1061026b57610100808354040283529160200191610296565b820191906000526020600020905b81548152906001019060200180831161027957829003601f168201915b5050505050905090565b6000336102ae81858561040c565b5060019392505050565b6000336102c6858285610530565b6102d18585856105c2565b506001949350505050565b3360008181526002602090815260408083206001600160a01b03871684529091528120549091906102ae9082908690610316908790610938565b61040c565b6000805460000361032e57506000919050565b600080546001600160a01b03841682526001602052604090912054610352916107a4565b92915050565b60606006805461021d906108e8565b3360008181526002602090815260408083206001600160a01b0387168452909152812054909190838110156103f15760405162461bcd60e51b815260206004820152602560248201527f45524332303a2064656372656173656420616c6c6f77616e63652062656c6f77604482015264207a65726f60d81b60648201526084015b60405180910390fd5b6102d1828686840361040c565b6000336102ae8185856105c2565b6001600160a01b03831661046e5760405162461bcd60e51b8152602060048201526024808201527f45524332303a20617070726f76652066726f6d20746865207a65726f206164646044820152637265737360e01b60648201526084016103e8565b6001600160a01b0382166104cf5760405162461bcd60e51b815260206004820152602260248201527f45524332303a20617070726f766520746f20746865207a65726f206164647265604482015261737360f01b60648201526084016103e8565b6001600160a01b0383811660008181526002602090815260408083209487168084529482529182902085905590518481527f8c5be1e5ebec7d5bd14f71427d1e84f3dd0314c0f7b2291e5b200ac8c7c3b925910160405180910390a3505050565b6001600160a01b0383811660009081526002602090815260408083209386168352929052205460001981146105bc57818110156105af5760405162461bcd60e51b815260206004820152601d60248201527f45524332303a20696e73756666696369656e7420616c6c6f77616e636500000060448201526064016103e8565b6105bc848484840361040c565b50505050565b6001600160a01b0383166106265760405162461bcd60e51b815260206004820152602560248201527f45524332303a207472616e736665722066726f6d20746865207a65726f206164604482015264647265737360d81b60648201526084016103e8565b6001600160a01b0382166106885760405162461bcd60e51b815260206004820152602360248201527f45524332303a207472616e7366657220746f20746865207a65726f206164647260448201526265737360e81b60648201526084016103e8565b600080546106979083906107b7565b6001600160a01b038516600090815260016020526040902054909150818110156107125760405162461bcd60e51b815260206004820152602660248201527f45524332303a207472616e7366657220616d6f756e7420657863656564732062604482015265616c616e636560d01b60648201526084016103e8565b6001600160a01b03808616600090815260016020526040808220858503905591861681529081208054849290610749908490610938565b92505081905550836001600160a01b0316856001600160a01b03167fddf252ad1be2c89b69c2b068fc378daa952ba7f163c4a11628f55a4df523b3ef8560405161079591815260200190565b60405180910390a35050505050565b60006107b08284610950565b9392505050565b60006107b08284610972565b600060208083528351808285015260005b818110156107f0578581018301518582016040015282016107d4565b81811115610802576000604083870101525b50601f01601f1916929092016040019392505050565b80356001600160a01b038116811461082f57600080fd5b919050565b6000806040838503121561084757600080fd5b61085083610818565b946020939093013593505050565b60006020828403121561087057600080fd5b6107b082610818565b60008060006060848603121561088e57600080fd5b61089784610818565b92506108a560208501610818565b9150604084013590509250925092565b600080604083850312156108c857600080fd5b6108d183610818565b91506108df60208401610818565b90509250929050565b600181811c908216806108fc57607f821691505b60208210810361091c57634e487b7160e01b600052602260045260246000fd5b50919050565b634e487b7160e01b600052601160045260246000fd5b6000821982111561094b5761094b610922565b500190565b60008261096d57634e487b7160e01b600052601260045260246000fd5b500490565b600081600019048311821515161561098c5761098c610922565b50029056fea26469706673582212203aa45d10b815316d1807f6cb16f0471725af946af4634ec989ce072e741d890364736f6c634300080d0033",
					"opcodes": "PUSH1 0x80 PUSH1 0x40 MSTORE CALLVALUE DUP1 ISZERO PUSH3 0x11 JUMPI PUSH1 0x0 DUP1 REVERT JUMPDEST POP PUSH1 0x40 MLOAD PUSH3 0xC65 CODESIZE SUB DUP1 PUSH3 0xC65 DUP4 CODECOPY DUP2 ADD PUSH1 0x40 DUP2 SWAP1 MSTORE PUSH3 0x34 SWAP2 PUSH3 0x1E8 JUMP JUMPDEST DUP2 MLOAD PUSH3 0x49 SWAP1 PUSH1 0x5 SWAP1 PUSH1 0x20 DUP6 ADD SWAP1 PUSH3 0x75 JUMP JUMPDEST POP DUP1 MLOAD PUSH3 0x5F SWAP1 PUSH1 0x6 SWAP1 PUSH1 0x20 DUP5 ADD SWAP1 PUSH3 0x75 JUMP JUMPDEST POP POP PUSH1 0x7 DUP1 SLOAD PUSH1 0xFF NOT AND PUSH1 0x12 OR SWAP1 SSTORE POP PUSH3 0x28E JUMP JUMPDEST DUP3 DUP1 SLOAD PUSH3 0x83 SWAP1 PUSH3 0x252 JUMP JUMPDEST SWAP1 PUSH1 0x0 MSTORE PUSH1 0x20 PUSH1 0x0 KECCAK256 SWAP1 PUSH1 0x1F ADD PUSH1 0x20 SWAP1 DIV DUP2 ADD SWAP3 DUP3 PUSH3 0xA7 JUMPI PUSH1 0x0 DUP6 SSTORE PUSH3 0xF2 JUMP JUMPDEST DUP3 PUSH1 0x1F LT PUSH3 0xC2 JUMPI DUP1 MLOAD PUSH1 0xFF NOT AND DUP4 DUP1 ADD OR DUP6 SSTORE PUSH3 0xF2 JUMP JUMPDEST DUP3 DUP1 ADD PUSH1 0x1 ADD DUP6 SSTORE DUP3 ISZERO PUSH3 0xF2 JUMPI SWAP2 DUP3 ADD JUMPDEST DUP3 DUP2 GT ISZERO PUSH3 0xF2 JUMPI DUP3 MLOAD DUP3 SSTORE SWAP2 PUSH1 0x20 ADD SWAP2 SWAP1 PUSH1 0x1 ADD SWAP1 PUSH3 0xD5 JUMP JUMPDEST POP PUSH3 0x100 SWAP3 SWAP2 POP PUSH3 0x104 JUMP JUMPDEST POP SWAP1 JUMP JUMPDEST JUMPDEST DUP1 DUP3 GT ISZERO PUSH3 0x100 JUMPI PUSH1 0x0 DUP2 SSTORE PUSH1 0x1 ADD PUSH3 0x105 JUMP JUMPDEST PUSH4 0x4E487B71 PUSH1 0xE0 SHL PUSH1 0x0 MSTORE PUSH1 0x41 PUSH1 0x4 MSTORE PUSH1 0x24 PUSH1 0x0 REVERT JUMPDEST PUSH1 0x0 DUP3 PUSH1 0x1F DUP4 ADD SLT PUSH3 0x143 JUMPI PUSH1 0x0 DUP1 REVERT JUMPDEST DUP2 MLOAD PUSH1 0x1 PUSH1 0x1 PUSH1 0x40 SHL SUB DUP1 DUP3 GT ISZERO PUSH3 0x160 JUMPI PUSH3 0x160 PUSH3 0x11B JUMP JUMPDEST PUSH1 0x40 MLOAD PUSH1 0x1F DUP4 ADD PUSH1 0x1F NOT SWAP1 DUP2 AND PUSH1 0x3F ADD AND DUP2 ADD SWAP1 DUP3 DUP3 GT DUP2 DUP4 LT OR ISZERO PUSH3 0x18B JUMPI PUSH3 0x18B PUSH3 0x11B JUMP JUMPDEST DUP2 PUSH1 0x40 MSTORE DUP4 DUP2 MSTORE PUSH1 0x20 SWAP3 POP DUP7 DUP4 DUP6 DUP9 ADD ADD GT ISZERO PUSH3 0x1A8 JUMPI PUSH1 0x0 DUP1 REVERT JUMPDEST PUSH1 0x0 SWAP2 POP JUMPDEST DUP4 DUP3 LT ISZERO PUSH3 0x1CC JUMPI DUP6 DUP3 ADD DUP4 ADD MLOAD DUP2 DUP4 ADD DUP5 ADD MSTORE SWAP1 DUP3 ADD SWAP1 PUSH3 0x1AD JUMP JUMPDEST DUP4 DUP3 GT ISZERO PUSH3 0x1DE JUMPI PUSH1 0x0 DUP4 DUP6 DUP4 ADD ADD MSTORE JUMPDEST SWAP7 SWAP6 POP POP POP POP POP POP JUMP JUMPDEST PUSH1 0x0 DUP1 PUSH1 0x40 DUP4 DUP6 SUB SLT ISZERO PUSH3 0x1FC JUMPI PUSH1 0x0 DUP1 REVERT JUMPDEST DUP3 MLOAD PUSH1 0x1 PUSH1 0x1 PUSH1 0x40 SHL SUB DUP1 DUP3 GT ISZERO PUSH3 0x214 JUMPI PUSH1 0x0 DUP1 REVERT JUMPDEST PUSH3 0x222 DUP7 DUP4 DUP8 ADD PUSH3 0x131 JUMP JUMPDEST SWAP4 POP PUSH1 0x20 DUP6 ADD MLOAD SWAP2 POP DUP1 DUP3 GT ISZERO PUSH3 0x239 JUMPI PUSH1 0x0 DUP1 REVERT JUMPDEST POP PUSH3 0x248 DUP6 DUP3 DUP7 ADD PUSH3 0x131 JUMP JUMPDEST SWAP2 POP POP SWAP3 POP SWAP3 SWAP1 POP JUMP JUMPDEST PUSH1 0x1 DUP2 DUP2 SHR SWAP1 DUP3 AND DUP1 PUSH3 0x267 JUMPI PUSH1 0x7F DUP3 AND SWAP2 POP JUMPDEST PUSH1 0x20 DUP3 LT DUP2 SUB PUSH3 0x288 JUMPI PUSH4 0x4E487B71 PUSH1 0xE0 SHL PUSH1 0x0 MSTORE PUSH1 0x22 PUSH1 0x4 MSTORE PUSH1 0x24 PUSH1 0x0 REVERT JUMPDEST POP SWAP2 SWAP1 POP JUMP JUMPDEST PUSH2 0x9C7 DUP1 PUSH3 0x29E PUSH1 0x0 CODECOPY PUSH1 0x0 RETURN INVALID PUSH1 0x80 PUSH1 0x40 MSTORE CALLVALUE DUP1 ISZERO PUSH2 0x10 JUMPI PUSH1 0x0 DUP1 REVERT JUMPDEST POP PUSH1 0x4 CALLDATASIZE LT PUSH2 0xCF JUMPI PUSH1 0x0 CALLDATALOAD PUSH1 0xE0 SHR DUP1 PUSH4 0x39509351 GT PUSH2 0x8C JUMPI DUP1 PUSH4 0xA457C2D7 GT PUSH2 0x66 JUMPI DUP1 PUSH4 0xA457C2D7 EQ PUSH2 0x1A6 JUMPI DUP1 PUSH4 0xA9059CBB EQ PUSH2 0x1B9 JUMPI DUP1 PUSH4 0xDD62ED3E EQ PUSH2 0x1CC JUMPI DUP1 PUSH4 0xE00713E9 EQ PUSH2 0x205 JUMPI PUSH1 0x0 DUP1 REVERT JUMPDEST DUP1 PUSH4 0x39509351 EQ PUSH2 0x178 JUMPI DUP1 PUSH4 0x70A08231 EQ PUSH2 0x18B JUMPI DUP1 PUSH4 0x95D89B41 EQ PUSH2 0x19E JUMPI PUSH1 0x0 DUP1 REVERT JUMPDEST DUP1 PUSH4 0x6FDDE03 EQ PUSH2 0xD4 JUMPI DUP1 PUSH4 0x95EA7B3 EQ PUSH2 0xF2 JUMPI DUP1 PUSH4 0x18160DDD EQ PUSH2 0x115 JUMPI DUP1 PUSH4 0x1DA24F3E EQ PUSH2 0x127 JUMPI DUP1 PUSH4 0x23B872DD EQ PUSH2 0x150 JUMPI DUP1 PUSH4 0x313CE567 EQ PUSH2 0x163 JUMPI JUMPDEST PUSH1 0x0 DUP1 REVERT JUMPDEST PUSH2 0xDC PUSH2 0x20E JUMP JUMPDEST PUSH1 0x40 MLOAD PUSH2 0xE9 SWAP2 SWAP1 PUSH2 0x7C3 JUMP JUMPDEST PUSH1 0x40 MLOAD DUP1 SWAP2 SUB SWAP1 RETURN JUMPDEST PUSH2 0x105 PUSH2 0x100 CALLDATASIZE PUSH1 0x4 PUSH2 0x834 JUMP JUMPDEST PUSH2 0x2A0 JUMP JUMPDEST PUSH1 0x40 MLOAD SWAP1 ISZERO ISZERO DUP2 MSTORE PUSH1 0x20 ADD PUSH2 0xE9 JUMP JUMPDEST PUSH1 0x4 SLOAD JUMPDEST PUSH1 0x40 MLOAD SWAP1 DUP2 MSTORE PUSH1 0x20 ADD PUSH2 0xE9 JUMP JUMPDEST PUSH2 0x119 PUSH2 0x135 CALLDATASIZE PUSH1 0x4 PUSH2 0x85E JUMP JUMPDEST PUSH1 0x1 PUSH1 0x1 PUSH1 0xA0 SHL SUB AND PUSH1 0x0 SWAP1 DUP2 MSTORE PUSH1 0x1 PUSH1 0x20 MSTORE PUSH1 0x40 SWAP1 KECCAK256 SLOAD SWAP1 JUMP JUMPDEST PUSH2 0x105 PUSH2 0x15E CALLDATASIZE PUSH1 0x4 PUSH2 0x879 JUMP JUMPDEST PUSH2 0x2B8 JUMP JUMPDEST PUSH1 0x7 SLOAD PUSH1 0x40 MLOAD PUSH1 0xFF SWAP1 SWAP2 AND DUP2 MSTORE PUSH1 0x20 ADD PUSH2 0xE9 JUMP JUMPDEST PUSH2 0x105 PUSH2 0x186 CALLDATASIZE PUSH1 0x4 PUSH2 0x834 JUMP JUMPDEST PUSH2 0x2DC JUMP JUMPDEST PUSH2 0x119 PUSH2 0x199 CALLDATASIZE PUSH1 0x4 PUSH2 0x85E JUMP JUMPDEST PUSH2 0x31B JUMP JUMPDEST PUSH2 0xDC PUSH2 0x358 JUMP JUMPDEST PUSH2 0x105 PUSH2 0x1B4 CALLDATASIZE PUSH1 0x4 PUSH2 0x834 JUMP JUMPDEST PUSH2 0x367 JUMP JUMPDEST PUSH2 0x105 PUSH2 0x1C7 CALLDATASIZE PUSH1 0x4 PUSH2 0x834 JUMP JUMPDEST PUSH2 0x3FE JUMP JUMPDEST PUSH2 0x119 PUSH2 0x1DA CALLDATASIZE PUSH1 0x4 PUSH2 0x8B5 JUMP JUMPDEST PUSH1 0x1 PUSH1 0x1 PUSH1 0xA0 SHL SUB SWAP2 DUP3 AND PUSH1 0x0 SWAP1 DUP2 MSTORE PUSH1 0x2 PUSH1 0x20 SWAP1 DUP2 MSTORE PUSH1 0x40 DUP1 DUP4 KECCAK256 SWAP4 SWAP1 SWAP5 AND DUP3 MSTORE SWAP2 SWAP1 SWAP2 MSTORE KECCAK256 SLOAD SWAP1 JUMP JUMPDEST PUSH2 0x119 PUSH1 0x3 SLOAD DUP2 JUMP JUMPDEST PUSH1 0x60 PUSH1 0x5 DUP1 SLOAD PUSH2 0x21D SWAP1 PUSH2 0x8E8 JUMP JUMPDEST DUP1 PUSH1 0x1F ADD PUSH1 0x20 DUP1 SWAP2 DIV MUL PUSH1 0x20 ADD PUSH1 0x40 MLOAD SWAP1 DUP2 ADD PUSH1 0x40 MSTORE DUP1 SWAP3 SWAP2 SWAP1 DUP2 DUP2 MSTORE PUSH1 0x20 ADD DUP3 DUP1 SLOAD PUSH2 0x249 SWAP1 PUSH2 0x8E8 JUMP JUMPDEST DUP1 ISZERO PUSH2 0x296 JUMPI DUP1 PUSH1 0x1F LT PUSH2 0x26B JUMPI PUSH2 0x100 DUP1 DUP4 SLOAD DIV MUL DUP4 MSTORE SWAP2 PUSH1 0x20 ADD SWAP2 PUSH2 0x296 JUMP JUMPDEST DUP3 ADD SWAP2 SWAP1 PUSH1 0x0 MSTORE PUSH1 0x20 PUSH1 0x0 KECCAK256 SWAP1 JUMPDEST DUP2 SLOAD DUP2 MSTORE SWAP1 PUSH1 0x1 ADD SWAP1 PUSH1 0x20 ADD DUP1 DUP4 GT PUSH2 0x279 JUMPI DUP3 SWAP1 SUB PUSH1 0x1F AND DUP3 ADD SWAP2 JUMPDEST POP POP POP POP POP SWAP1 POP SWAP1 JUMP JUMPDEST PUSH1 0x0 CALLER PUSH2 0x2AE DUP2 DUP6 DUP6 PUSH2 0x40C JUMP JUMPDEST POP PUSH1 0x1 SWAP4 SWAP3 POP POP POP JUMP JUMPDEST PUSH1 0x0 CALLER PUSH2 0x2C6 DUP6 DUP3 DUP6 PUSH2 0x530 JUMP JUMPDEST PUSH2 0x2D1 DUP6 DUP6 DUP6 PUSH2 0x5C2 JUMP JUMPDEST POP PUSH1 0x1 SWAP5 SWAP4 POP POP POP POP JUMP JUMPDEST CALLER PUSH1 0x0 DUP2 DUP2 MSTORE PUSH1 0x2 PUSH1 0x20 SWAP1 DUP2 MSTORE PUSH1 0x40 DUP1 DUP4 KECCAK256 PUSH1 0x1 PUSH1 0x1 PUSH1 0xA0 SHL SUB DUP8 AND DUP5 MSTORE SWAP1 SWAP2 MSTORE DUP2 KECCAK256 SLOAD SWAP1 SWAP2 SWAP1 PUSH2 0x2AE SWAP1 DUP3 SWAP1 DUP7 SWAP1 PUSH2 0x316 SWAP1 DUP8 SWAP1 PUSH2 0x938 JUMP JUMPDEST PUSH2 0x40C JUMP JUMPDEST PUSH1 0x0 DUP1 SLOAD PUSH1 0x0 SUB PUSH2 0x32E JUMPI POP PUSH1 0x0 SWAP2 SWAP1 POP JUMP JUMPDEST PUSH1 0x0 DUP1 SLOAD PUSH1 0x1 PUSH1 0x1 PUSH1 0xA0 SHL SUB DUP5 AND DUP3 MSTORE PUSH1 0x1 PUSH1 0x20 MSTORE PUSH1 0x40 SWAP1 SWAP2 KECCAK256 SLOAD PUSH2 0x352 SWAP2 PUSH2 0x7A4 JUMP JUMPDEST SWAP3 SWAP2 POP POP JUMP JUMPDEST PUSH1 0x60 PUSH1 0x6 DUP1 SLOAD PUSH2 0x21D SWAP1 PUSH2 0x8E8 JUMP JUMPDEST CALLER PUSH1 0x0 DUP2 DUP2 MSTORE PUSH1 0x2 PUSH1 0x20 SWAP1 DUP2 MSTORE PUSH1 0x40 DUP1 DUP4 KECCAK256 PUSH1 0x1 PUSH1 0x1 PUSH1 0xA0 SHL SUB DUP8 AND DUP5 MSTORE SWAP1 SWAP2 MSTORE DUP2 KECCAK256 SLOAD SWAP1 SWAP2 SWAP1 DUP4 DUP2 LT ISZERO PUSH2 0x3F1 JUMPI PUSH1 0x40 MLOAD PUSH3 0x461BCD PUSH1 0xE5 SHL DUP2 MSTORE PUSH1 0x20 PUSH1 0x4 DUP3 ADD MSTORE PUSH1 0x25 PUSH1 0x24 DUP3 ADD MSTORE PUSH32 0x45524332303A2064656372656173656420616C6C6F77616E63652062656C6F77 PUSH1 0x44 DUP3 ADD MSTORE PUSH5 0x207A65726F PUSH1 0xD8 SHL PUSH1 0x64 DUP3 ADD MSTORE PUSH1 0x84 ADD JUMPDEST PUSH1 0x40 MLOAD DUP1 SWAP2 SUB SWAP1 REVERT JUMPDEST PUSH2 0x2D1 DUP3 DUP7 DUP7 DUP5 SUB PUSH2 0x40C JUMP JUMPDEST PUSH1 0x0 CALLER PUSH2 0x2AE DUP2 DUP6 DUP6 PUSH2 0x5C2 JUMP JUMPDEST PUSH1 0x1 PUSH1 0x1 PUSH1 0xA0 SHL SUB DUP4 AND PUSH2 0x46E JUMPI PUSH1 0x40 MLOAD PUSH3 0x461BCD PUSH1 0xE5 SHL DUP2 MSTORE PUSH1 0x20 PUSH1 0x4 DUP3 ADD MSTORE PUSH1 0x24 DUP1 DUP3 ADD MSTORE PUSH32 0x45524332303A20617070726F76652066726F6D20746865207A65726F20616464 PUSH1 0x44 DUP3 ADD MSTORE PUSH4 0x72657373 PUSH1 0xE0 SHL PUSH1 0x64 DUP3 ADD MSTORE PUSH1 0x84 ADD PUSH2 0x3E8 JUMP JUMPDEST PUSH1 0x1 PUSH1 0x1 PUSH1 0xA0 SHL SUB DUP3 AND PUSH2 0x4CF JUMPI PUSH1 0x40 MLOAD PUSH3 0x461BCD PUSH1 0xE5 SHL DUP2 MSTORE PUSH1 0x20 PUSH1 0x4 DUP3 ADD MSTORE PUSH1 0x22 PUSH1 0x24 DUP3 ADD MSTORE PUSH32 0x45524332303A20617070726F766520746F20746865207A65726F206164647265 PUSH1 0x44 DUP3 ADD MSTORE PUSH2 0x7373 PUSH1 0xF0 SHL PUSH1 0x64 DUP3 ADD MSTORE PUSH1 0x84 ADD PUSH2 0x3E8 JUMP JUMPDEST PUSH1 0x1 PUSH1 0x1 PUSH1 0xA0 SHL SUB DUP4 DUP2 AND PUSH1 0x0 DUP2 DUP2 MSTORE PUSH1 0x2 PUSH1 0x20 SWAP1 DUP2 MSTORE PUSH1 0x40 DUP1 DUP4 KECCAK256 SWAP5 DUP8 AND DUP1 DUP5 MSTORE SWAP5 DUP3 MSTORE SWAP2 DUP3 SWAP1 KECCAK256 DUP6 SWAP1 SSTORE SWAP1 MLOAD DUP5 DUP2 MSTORE PUSH32 0x8C5BE1E5EBEC7D5BD14F71427D1E84F3DD0314C0F7B2291E5B200AC8C7C3B925 SWAP2 ADD PUSH1 0x40 MLOAD DUP1 SWAP2 SUB SWAP1 LOG3 POP POP POP JUMP JUMPDEST PUSH1 0x1 PUSH1 0x1 PUSH1 0xA0 SHL SUB DUP4 DUP2 AND PUSH1 0x0 SWAP1 DUP2 MSTORE PUSH1 0x2 PUSH1 0x20 SWAP1 DUP2 MSTORE PUSH1 0x40 DUP1 DUP4 KECCAK256 SWAP4 DUP7 AND DUP4 MSTORE SWAP3 SWAP1 MSTORE KECCAK256 SLOAD PUSH1 0x0 NOT DUP2 EQ PUSH2 0x5BC JUMPI DUP2 DUP2 LT ISZERO PUSH2 0x5AF JUMPI PUSH1 0x40 MLOAD PUSH3 0x461BCD PUSH1 0xE5 SHL DUP2 MSTORE PUSH1 0x20 PUSH1 0x4 DUP3 ADD MSTORE PUSH1 0x1D PUSH1 0x24 DUP3 ADD MSTORE PUSH32 0x45524332303A20696E73756666696369656E7420616C6C6F77616E6365000000 PUSH1 0x44 DUP3 ADD MSTORE PUSH1 0x64 ADD PUSH2 0x3E8 JUMP JUMPDEST PUSH2 0x5BC DUP5 DUP5 DUP5 DUP5 SUB PUSH2 0x40C JUMP JUMPDEST POP POP POP POP JUMP JUMPDEST PUSH1 0x1 PUSH1 0x1 PUSH1 0xA0 SHL SUB DUP4 AND PUSH2 0x626 JUMPI PUSH1 0x40 MLOAD PUSH3 0x461BCD PUSH1 0xE5 SHL DUP2 MSTORE PUSH1 0x20 PUSH1 0x4 DUP3 ADD MSTORE PUSH1 0x25 PUSH1 0x24 DUP3 ADD MSTORE PUSH32 0x45524332303A207472616E736665722066726F6D20746865207A65726F206164 PUSH1 0x44 DUP3 ADD MSTORE PUSH5 0x6472657373 PUSH1 0xD8 SHL PUSH1 0x64 DUP3 ADD MSTORE PUSH1 0x84 ADD PUSH2 0x3E8 JUMP JUMPDEST PUSH1 0x1 PUSH1 0x1 PUSH1 0xA0 SHL SUB DUP3 AND PUSH2 0x688 JUMPI PUSH1 0x40 MLOAD PUSH3 0x461BCD PUSH1 0xE5 SHL DUP2 MSTORE PUSH1 0x20 PUSH1 0x4 DUP3 ADD MSTORE PUSH1 0x23 PUSH1 0x24 DUP3 ADD MSTORE PUSH32 0x45524332303A207472616E7366657220746F20746865207A65726F2061646472 PUSH1 0x44 DUP3 ADD MSTORE PUSH3 0x657373 PUSH1 0xE8 SHL PUSH1 0x64 DUP3 ADD MSTORE PUSH1 0x84 ADD PUSH2 0x3E8 JUMP JUMPDEST PUSH1 0x0 DUP1 SLOAD PUSH2 0x697 SWAP1 DUP4 SWAP1 PUSH2 0x7B7 JUMP JUMPDEST PUSH1 0x1 PUSH1 0x1 PUSH1 0xA0 SHL SUB DUP6 AND PUSH1 0x0 SWAP1 DUP2 MSTORE PUSH1 0x1 PUSH1 0x20 MSTORE PUSH1 0x40 SWAP1 KECCAK256 SLOAD SWAP1 SWAP2 POP DUP2 DUP2 LT ISZERO PUSH2 0x712 JUMPI PUSH1 0x40 MLOAD PUSH3 0x461BCD PUSH1 0xE5 SHL DUP2 MSTORE PUSH1 0x20 PUSH1 0x4 DUP3 ADD MSTORE PUSH1 0x26 PUSH1 0x24 DUP3 ADD MSTORE PUSH32 0x45524332303A207472616E7366657220616D6F756E7420657863656564732062 PUSH1 0x44 DUP3 ADD MSTORE PUSH6 0x616C616E6365 PUSH1 0xD0 SHL PUSH1 0x64 DUP3 ADD MSTORE PUSH1 0x84 ADD PUSH2 0x3E8 JUMP JUMPDEST PUSH1 0x1 PUSH1 0x1 PUSH1 0xA0 SHL SUB DUP1 DUP7 AND PUSH1 0x0 SWAP1 DUP2 MSTORE PUSH1 0x1 PUSH1 0x20 MSTORE PUSH1 0x40 DUP1 DUP3 KECCAK256 DUP6 DUP6 SUB SWAP1 SSTORE SWAP2 DUP7 AND DUP2 MSTORE SWAP1 DUP2 KECCAK256 DUP1 SLOAD DUP5 SWAP3 SWAP1 PUSH2 0x749 SWAP1 DUP5 SWAP1 PUSH2 0x938 JUMP JUMPDEST SWAP3 POP POP DUP2 SWAP1 SSTORE POP DUP4 PUSH1 0x1 PUSH1 0x1 PUSH1 0xA0 SHL SUB AND DUP6 PUSH1 0x1 PUSH1 0x1 PUSH1 0xA0 SHL SUB AND PUSH32 0xDDF252AD1BE2C89B69C2B068FC378DAA952BA7F163C4A11628F55A4DF523B3EF DUP6 PUSH1 0x40 MLOAD PUSH2 0x795 SWAP2 DUP2 MSTORE PUSH1 0x20 ADD SWAP1 JUMP JUMPDEST PUSH1 0x40 MLOAD DUP1 SWAP2 SUB SWAP1 LOG3 POP POP POP POP POP JUMP JUMPDEST PUSH1 0x0 PUSH2 0x7B0 DUP3 DUP5 PUSH2 0x950 JUMP JUMPDEST SWAP4 SWAP3 POP POP POP JUMP JUMPDEST PUSH1 0x0 PUSH2 0x7B0 DUP3 DUP5 PUSH2 0x972 JUMP JUMPDEST PUSH1 0x0 PUSH1 0x20 DUP1 DUP4 MSTORE DUP4 MLOAD DUP1 DUP3 DUP6 ADD MSTORE PUSH1 0x0 JUMPDEST DUP2 DUP2 LT ISZERO PUSH2 0x7F0 JUMPI DUP6 DUP2 ADD DUP4 ADD MLOAD DUP6 DUP3 ADD PUSH1 0x40 ADD MSTORE DUP3 ADD PUSH2 0x7D4 JUMP JUMPDEST DUP2 DUP2 GT ISZERO PUSH2 0x802 JUMPI PUSH1 0x0 PUSH1 0x40 DUP4 DUP8 ADD ADD MSTORE JUMPDEST POP PUSH1 0x1F ADD PUSH1 0x1F NOT AND SWAP3 SWAP1 SWAP3 ADD PUSH1 0x40 ADD SWAP4 SWAP3 POP POP POP JUMP JUMPDEST DUP1 CALLDATALOAD PUSH1 0x1 PUSH1 0x1 PUSH1 0xA0 SHL SUB DUP2 AND DUP2 EQ PUSH2 0x82F JUMPI PUSH1 0x0 DUP1 REVERT JUMPDEST SWAP2 SWAP1 POP JUMP JUMPDEST PUSH1 0x0 DUP1 PUSH1 0x40 DUP4 DUP6 SUB SLT ISZERO PUSH2 0x847 JUMPI PUSH1 0x0 DUP1 REVERT JUMPDEST PUSH2 0x850 DUP4 PUSH2 0x818 JUMP JUMPDEST SWAP5 PUSH1 0x20 SWAP4 SWAP1 SWAP4 ADD CALLDATALOAD SWAP4 POP POP POP JUMP JUMPDEST PUSH1 0x0 PUSH1 0x20 DUP3 DUP5 SUB SLT ISZERO PUSH2 0x870 JUMPI PUSH1 0x0 DUP1 REVERT JUMPDEST PUSH2 0x7B0 DUP3 PUSH2 0x818 JUMP JUMPDEST PUSH1 0x0 DUP1 PUSH1 0x0 PUSH1 0x60 DUP5 DUP7 SUB SLT ISZERO PUSH2 0x88E JUMPI PUSH1 0x0 DUP1 REVERT JUMPDEST PUSH2 0x897 DUP5 PUSH2 0x818 JUMP JUMPDEST SWAP3 POP PUSH2 0x8A5 PUSH1 0x20 DUP6 ADD PUSH2 0x818 JUMP JUMPDEST SWAP2 POP PUSH1 0x40 DUP5 ADD CALLDATALOAD SWAP1 POP SWAP3 POP SWAP3 POP SWAP3 JUMP JUMPDEST PUSH1 0x0 DUP1 PUSH1 0x40 DUP4 DUP6 SUB SLT ISZERO PUSH2 0x8C8 JUMPI PUSH1 0x0 DUP1 REVERT JUMPDEST PUSH2 0x8D1 DUP4 PUSH2 0x818 JUMP JUMPDEST SWAP2 POP PUSH2 0x8DF PUSH1 0x20 DUP5 ADD PUSH2 0x818 JUMP JUMPDEST SWAP1 POP SWAP3 POP SWAP3 SWAP1 POP JUMP JUMPDEST PUSH1 0x1 DUP2 DUP2 SHR SWAP1 DUP3 AND DUP1 PUSH2 0x8FC JUMPI PUSH1 0x7F DUP3 AND SWAP2 POP JUMPDEST PUSH1 0x20 DUP3 LT DUP2 SUB PUSH2 0x91C JUMPI PUSH4 0x4E487B71 PUSH1 0xE0 SHL PUSH1 0x0 MSTORE PUSH1 0x22 PUSH1 0x4 MSTORE PUSH1 0x24 PUSH1 0x0 REVERT JUMPDEST POP SWAP2 SWAP1 POP JUMP JUMPDEST PUSH4 0x4E487B71 PUSH1 0xE0 SHL PUSH1 0x0 MSTORE PUSH1 0x11 PUSH1 0x4 MSTORE PUSH1 0x24 PUSH1 0x0 REVERT JUMPDEST PUSH1 0x0 DUP3 NOT DUP3 GT ISZERO PUSH2 0x94B JUMPI PUSH2 0x94B PUSH2 0x922 JUMP JUMPDEST POP ADD SWAP1 JUMP JUMPDEST PUSH1 0x0 DUP3 PUSH2 0x96D JUMPI PUSH4 0x4E487B71 PUSH1 0xE0 SHL PUSH1 0x0 MSTORE PUSH1 0x12 PUSH1 0x4 MSTORE PUSH1 0x24 PUSH1 0x0 REVERT JUMPDEST POP DIV SWAP1 JUMP JUMPDEST PUSH1 0x0 DUP2 PUSH1 0x0 NOT DIV DUP4 GT DUP3 ISZERO ISZERO AND ISZERO PUSH2 0x98C JUMPI PUSH2 0x98C PUSH2 0x922 JUMP JUMPDEST POP MUL SWAP1 JUMP INVALID LOG2 PUSH5 0x6970667358 0x22 SLT KECCAK256 GASPRICE LOG4 0x5D LT 0xB8 ISZERO BALANCE PUSH14 0x1807F6CB16F0471725AF946AF463 0x4E 0xC9 DUP10 0xCE SMOD 0x2E PUSH21 0x1D890364736F6C634300080D003300000000000000 "
				},
				"gasEstimates": {
					"creation": {
						"codeDepositCost": "500600",
						"executionCost": "infinite",
						"totalCost": "infinite"
					},
					"external": {
						"TOTAL_GONS()": "2383",
						"allowance(address,address)": "infinite",
						"approve(address,uint256)": "24624",
						"balanceOf(address)": "infinite",
						"decimals()": "2400",
						"decreaseAllowance(address,uint256)": "26922",
						"increaseAllowance(address,uint256)": "26968",
						"name()": "infinite",
						"scaledBalanceOf(address)": "2604",
						"symbol()": "infinite",
						"totalSupply()": "2326",
						"transfer(address,uint256)": "53464",
						"transferFrom(address,address,uint256)": "infinite"
					},
					"internal": {
						"_afterTokenTransfer(address,address,uint256)": "infinite",
						"_approve(address,address,uint256)": "infinite",
						"_beforeTokenTransfer(address,address,uint256)": "infinite",
						"_burn(address,uint256)": "infinite",
						"_mint(address,uint256)": "infinite",
						"_spendAllowance(address,address,uint256)": "infinite",
						"_transfer(address,address,uint256)": "infinite"
					}
				},
				"methodIdentifiers": {
					"TOTAL_GONS()": "e00713e9",
					"allowance(address,address)": "dd62ed3e",
					"approve(address,uint256)": "095ea7b3",
					"balanceOf(address)": "70a08231",
					"decimals()": "313ce567",
					"decreaseAllowance(address,uint256)": "a457c2d7",
					"increaseAllowance(address,uint256)": "39509351",
					"name()": "06fdde03",
					"scaledBalanceOf(address)": "1da24f3e",
					"symbol()": "95d89b41",
					"totalSupply()": "18160ddd",
					"transfer(address,uint256)": "a9059cbb",
					"transferFrom(address,address,uint256)": "23b872dd"
				}
			},
			"storageLayout": {
				"storage": [
					{
						"astId": 350,
						"contract": "contracts/utils/token/ERC20Rebase.sol:ERC20Rebase",
						"label": "_gonsPerFragment",
						"offset": 0,
						"slot": "0",
						"type": "t_uint256"
					},
					{
						"astId": 354,
						"contract": "contracts/utils/token/ERC20Rebase.sol:ERC20Rebase",
						"label": "_gonBalances",
						"offset": 0,
						"slot": "1",
						"type": "t_mapping(t_address,t_uint256)"
					},
					{
						"astId": 360,
						"contract": "contracts/utils/token/ERC20Rebase.sol:ERC20Rebase",
						"label": "_allowedFragments",
						"offset": 0,
						"slot": "2",
						"type": "t_mapping(t_address,t_mapping(t_address,t_uint256))"
					},
					{
						"astId": 362,
						"contract": "contracts/utils/token/ERC20Rebase.sol:ERC20Rebase",
						"label": "TOTAL_GONS",
						"offset": 0,
						"slot": "3",
						"type": "t_uint256"
					},
					{
						"astId": 364,
						"contract": "contracts/utils/token/ERC20Rebase.sol:ERC20Rebase",
						"label": "_totalSupply",
						"offset": 0,
						"slot": "4",
						"type": "t_uint256"
					},
					{
						"astId": 366,
						"contract": "contracts/utils/token/ERC20Rebase.sol:ERC20Rebase",
						"label": "_name",
						"offset": 0,
						"slot": "5",
						"type": "t_string_storage"
					},
					{
						"astId": 368,
						"contract": "contracts/utils/token/ERC20Rebase.sol:ERC20Rebase",
						"label": "_symbol",
						"offset": 0,
						"slot": "6",
						"type": "t_string_storage"
					},
					{
						"astId": 370,
						"contract": "contracts/utils/token/ERC20Rebase.sol:ERC20Rebase",
						"label": "_decimals",
						"offset": 0,
						"slot": "7",
						"type": "t_uint8"
					}
				],
				"types": {
					"t_address": {
						"encoding": "inplace",
						"label": "address",
						"numberOfBytes": "20"
					},
					"t_mapping(t_address,t_mapping(t_address,t_uint256))": {
						"encoding": "mapping",
						"key": "t_address",
						"label": "mapping(address => mapping(address => uint256))",
						"numberOfBytes": "32",
						"value": "t_mapping(t_address,t_uint256)"
					},
					"t_mapping(t_address,t_uint256)": {
						"encoding": "mapping",
						"key": "t_address",
						"label": "mapping(address => uint256)",
						"numberOfBytes": "32",
						"value": "t_uint256"
					},
					"t_string_storage": {
						"encoding": "bytes",
						"label": "string",
						"numberOfBytes": "32"
					},
					"t_uint256": {
						"encoding": "inplace",
						"label": "uint256",
						"numberOfBytes": "32"
					},
					"t_uint8": {
						"encoding": "inplace",
						"label": "uint8",
						"numberOfBytes": "1"
					}
				}
			},
			"userdoc": {
				"kind": "user",
				"methods": {},
				"version": 1
			}
		}
	}
}