{
	"brownie_projects/sharplabs/contracts/core/ShareWrapper.sol": {
		"ShareWrapper": {
			"abi": [
				{
					"inputs": [
						{
							"internalType": "address",
							"name": "account",
							"type": "address"
						}
					],
					"name": "balance_Wait",
					"outputs": [
						{
							"internalType": "uint256",
							"name": "",
							"type": "uint256"
						}
					],
					"stateMutability": "view",
					"type": "function"
				},
				{
					"inputs": [
						{
							"internalType": "address",
							"name": "account",
							"type": "address"
						}
					],
					"name": "balance_staked",
					"outputs": [
						{
							"internalType": "uint256",
							"name": "",
							"type": "uint256"
						}
					],
					"stateMutability": "view",
					"type": "function"
				},
				{
					"inputs": [
						{
							"internalType": "address",
							"name": "account",
							"type": "address"
						}
					],
					"name": "balance_withdraw",
					"outputs": [
						{
							"internalType": "uint256",
							"name": "",
							"type": "uint256"
						}
					],
					"stateMutability": "view",
					"type": "function"
				},
				{
					"inputs": [],
					"name": "share",
					"outputs": [
						{
							"internalType": "contract IERC20",
							"name": "",
							"type": "address"
						}
					],
					"stateMutability": "view",
					"type": "function"
				},
				{
					"inputs": [
						{
							"internalType": "uint256",
							"name": "amount",
							"type": "uint256"
						}
					],
					"name": "stake",
					"outputs": [],
					"stateMutability": "nonpayable",
					"type": "function"
				},
				{
					"inputs": [],
					"name": "totalSupply_staked",
					"outputs": [
						{
							"internalType": "uint256",
							"name": "",
							"type": "uint256"
						}
					],
					"stateMutability": "view",
					"type": "function"
				},
				{
					"inputs": [],
					"name": "totalSupply_wait",
					"outputs": [
						{
							"internalType": "uint256",
							"name": "",
							"type": "uint256"
						}
					],
					"stateMutability": "view",
					"type": "function"
				},
				{
					"inputs": [],
					"name": "totalSupply_withdraw",
					"outputs": [
						{
							"internalType": "uint256",
							"name": "",
							"type": "uint256"
						}
					],
					"stateMutability": "view",
					"type": "function"
				},
				{
					"inputs": [
						{
							"internalType": "uint256",
							"name": "amount",
							"type": "uint256"
						}
					],
					"name": "withdraw",
					"outputs": [],
					"stateMutability": "nonpayable",
					"type": "function"
				}
			],
			"devdoc": {
				"kind": "dev",
				"methods": {},
				"version": 1
			},
			"evm": {
				"assembly": "    /* \"brownie_projects/sharplabs/contracts/core/ShareWrapper.sol\":134:1917  contract ShareWrapper {... */\n  mstore(0x40, 0x80)\n  callvalue\n  dup1\n  iszero\n  tag_1\n  jumpi\n  0x00\n  dup1\n  revert\ntag_1:\n  pop\n  dataSize(sub_0)\n  dup1\n  dataOffset(sub_0)\n  0x00\n  codecopy\n  0x00\n  return\nstop\n\nsub_0: assembly {\n        /* \"brownie_projects/sharplabs/contracts/core/ShareWrapper.sol\":134:1917  contract ShareWrapper {... */\n      mstore(0x40, 0x80)\n      callvalue\n      dup1\n      iszero\n      tag_1\n      jumpi\n      0x00\n      dup1\n      revert\n    tag_1:\n      pop\n      jumpi(tag_2, lt(calldatasize, 0x04))\n      shr(0xe0, calldataload(0x00))\n      dup1\n      0x649e4a52\n      gt\n      tag_12\n      jumpi\n      dup1\n      0x649e4a52\n      eq\n      tag_7\n      jumpi\n      dup1\n      0x93ba4f66\n      eq\n      tag_8\n      jumpi\n      dup1\n      0xa694fc3a\n      eq\n      tag_9\n      jumpi\n      dup1\n      0xa8d5fd65\n      eq\n      tag_10\n      jumpi\n      dup1\n      0xeabba145\n      eq\n      tag_11\n      jumpi\n      0x00\n      dup1\n      revert\n    tag_12:\n      dup1\n      0x1e7e936d\n      eq\n      tag_3\n      jumpi\n      dup1\n      0x2e1a7d4d\n      eq\n      tag_4\n      jumpi\n      dup1\n      0x40d1fb87\n      eq\n      tag_5\n      jumpi\n      dup1\n      0x62d45f8f\n      eq\n      tag_6\n      jumpi\n    tag_2:\n      0x00\n      dup1\n      revert\n        /* \"brownie_projects/sharplabs/contracts/core/ShareWrapper.sol\":765:872  function totalSupply_withdraw() public view returns (uint256) {... */\n    tag_3:\n        /* \"brownie_projects/sharplabs/contracts/core/ShareWrapper.sol\":844:865  _totalSupply.withdraw */\n      sload(0x04)\n        /* \"brownie_projects/sharplabs/contracts/core/ShareWrapper.sol\":765:872  function totalSupply_withdraw() public view returns (uint256) {... */\n    tag_13:\n      mload(0x40)\n        /* \"#utility.yul\":160:185   */\n      swap1\n      dup2\n      mstore\n        /* \"#utility.yul\":148:150   */\n      0x20\n        /* \"#utility.yul\":133:151   */\n      add\n        /* \"brownie_projects/sharplabs/contracts/core/ShareWrapper.sol\":765:872  function totalSupply_withdraw() public view returns (uint256) {... */\n    tag_15:\n      mload(0x40)\n      dup1\n      swap2\n      sub\n      swap1\n      return\n        /* \"brownie_projects/sharplabs/contracts/core/ShareWrapper.sol\":1518:1915  function withdraw(uint256 amount) public virtual {... */\n    tag_4:\n      tag_17\n      tag_18\n      calldatasize\n      0x04\n      tag_19\n      jump\t// in\n    tag_18:\n      tag_20\n      jump\t// in\n    tag_17:\n      stop\n        /* \"brownie_projects/sharplabs/contracts/core/ShareWrapper.sol\":551:650  function totalSupply_wait() public view returns (uint256) {... */\n    tag_5:\n        /* \"brownie_projects/sharplabs/contracts/core/ShareWrapper.sol\":626:638  _totalSupply */\n      0x02\n        /* \"brownie_projects/sharplabs/contracts/core/ShareWrapper.sol\":626:643  _totalSupply.wait */\n      sload\n        /* \"brownie_projects/sharplabs/contracts/core/ShareWrapper.sol\":551:650  function totalSupply_wait() public view returns (uint256) {... */\n      jump(tag_13)\n        /* \"brownie_projects/sharplabs/contracts/core/ShareWrapper.sol\":1126:1250  function balance_withdraw(address account) public view returns (uint256) {... */\n    tag_6:\n      tag_13\n      tag_25\n      calldatasize\n      0x04\n      tag_26\n      jump\t// in\n    tag_25:\n      sub(shl(0xa0, 0x01), 0x01)\n        /* \"brownie_projects/sharplabs/contracts/core/ShareWrapper.sol\":1216:1234  _balances[account] */\n      and\n        /* \"brownie_projects/sharplabs/contracts/core/ShareWrapper.sol\":1190:1197  uint256 */\n      0x00\n        /* \"brownie_projects/sharplabs/contracts/core/ShareWrapper.sol\":1216:1234  _balances[account] */\n      swap1\n      dup2\n      mstore\n        /* \"brownie_projects/sharplabs/contracts/core/ShareWrapper.sol\":1216:1225  _balances */\n      0x01\n        /* \"brownie_projects/sharplabs/contracts/core/ShareWrapper.sol\":1216:1234  _balances[account] */\n      0x20\n      mstore\n      0x40\n      swap1\n      keccak256\n        /* \"brownie_projects/sharplabs/contracts/core/ShareWrapper.sol\":1216:1243  _balances[account].withdraw */\n      0x02\n      add\n      sload\n      swap1\n        /* \"brownie_projects/sharplabs/contracts/core/ShareWrapper.sol\":1126:1250  function balance_withdraw(address account) public view returns (uint256) {... */\n      jump\n        /* \"brownie_projects/sharplabs/contracts/core/ShareWrapper.sol\":656:759  function totalSupply_staked() public view returns (uint256) {... */\n    tag_7:\n        /* \"brownie_projects/sharplabs/contracts/core/ShareWrapper.sol\":733:752  _totalSupply.staked */\n      sload(0x03)\n        /* \"brownie_projects/sharplabs/contracts/core/ShareWrapper.sol\":656:759  function totalSupply_staked() public view returns (uint256) {... */\n      jump(tag_13)\n        /* \"brownie_projects/sharplabs/contracts/core/ShareWrapper.sol\":878:994  function balance_Wait(address account) public view returns (uint256) {... */\n    tag_8:\n      tag_13\n      tag_33\n      calldatasize\n      0x04\n      tag_26\n      jump\t// in\n    tag_33:\n      sub(shl(0xa0, 0x01), 0x01)\n        /* \"brownie_projects/sharplabs/contracts/core/ShareWrapper.sol\":964:982  _balances[account] */\n      and\n        /* \"brownie_projects/sharplabs/contracts/core/ShareWrapper.sol\":938:945  uint256 */\n      0x00\n        /* \"brownie_projects/sharplabs/contracts/core/ShareWrapper.sol\":964:982  _balances[account] */\n      swap1\n      dup2\n      mstore\n        /* \"brownie_projects/sharplabs/contracts/core/ShareWrapper.sol\":964:973  _balances */\n      0x01\n        /* \"brownie_projects/sharplabs/contracts/core/ShareWrapper.sol\":964:982  _balances[account] */\n      0x20\n      mstore\n      0x40\n      swap1\n      keccak256\n        /* \"brownie_projects/sharplabs/contracts/core/ShareWrapper.sol\":964:987  _balances[account].wait */\n      sload\n      swap1\n        /* \"brownie_projects/sharplabs/contracts/core/ShareWrapper.sol\":878:994  function balance_Wait(address account) public view returns (uint256) {... */\n      jump\n        /* \"brownie_projects/sharplabs/contracts/core/ShareWrapper.sol\":1256:1512  function stake(uint256 amount) public virtual {... */\n    tag_9:\n      tag_17\n      tag_37\n      calldatasize\n      0x04\n      tag_19\n      jump\t// in\n    tag_37:\n      tag_38\n      jump\t// in\n        /* \"brownie_projects/sharplabs/contracts/core/ShareWrapper.sol\":227:246  IERC20 public share */\n    tag_10:\n      sload(0x00)\n      tag_39\n      swap1\n      sub(shl(0xa0, 0x01), 0x01)\n      and\n      dup2\n      jump\n    tag_39:\n      mload(0x40)\n      sub(shl(0xa0, 0x01), 0x01)\n        /* \"#utility.yul\":850:882   */\n      swap1\n      swap2\n      and\n        /* \"#utility.yul\":832:883   */\n      dup2\n      mstore\n        /* \"#utility.yul\":820:822   */\n      0x20\n        /* \"#utility.yul\":805:823   */\n      add\n        /* \"brownie_projects/sharplabs/contracts/core/ShareWrapper.sol\":227:246  IERC20 public share */\n      tag_15\n        /* \"#utility.yul\":672:889   */\n      jump\n        /* \"brownie_projects/sharplabs/contracts/core/ShareWrapper.sol\":1000:1120  function balance_staked(address account) public view returns (uint256) {... */\n    tag_11:\n      tag_13\n      tag_44\n      calldatasize\n      0x04\n      tag_26\n      jump\t// in\n    tag_44:\n      sub(shl(0xa0, 0x01), 0x01)\n        /* \"brownie_projects/sharplabs/contracts/core/ShareWrapper.sol\":1088:1106  _balances[account] */\n      and\n        /* \"brownie_projects/sharplabs/contracts/core/ShareWrapper.sol\":1062:1069  uint256 */\n      0x00\n        /* \"brownie_projects/sharplabs/contracts/core/ShareWrapper.sol\":1088:1106  _balances[account] */\n      swap1\n      dup2\n      mstore\n        /* \"brownie_projects/sharplabs/contracts/core/ShareWrapper.sol\":1088:1097  _balances */\n      0x01\n        /* \"brownie_projects/sharplabs/contracts/core/ShareWrapper.sol\":1088:1106  _balances[account] */\n      0x20\n      dup2\n      swap1\n      mstore\n      0x40\n      swap1\n      swap2\n      keccak256\n        /* \"brownie_projects/sharplabs/contracts/core/ShareWrapper.sol\":1088:1113  _balances[account].staked */\n      add\n      sload\n      swap1\n        /* \"brownie_projects/sharplabs/contracts/core/ShareWrapper.sol\":1000:1120  function balance_staked(address account) public view returns (uint256) {... */\n      jump\n        /* \"brownie_projects/sharplabs/contracts/core/ShareWrapper.sol\":1518:1915  function withdraw(uint256 amount) public virtual {... */\n    tag_20:\n        /* \"brownie_projects/sharplabs/contracts/core/ShareWrapper.sol\":1609:1619  msg.sender */\n      caller\n        /* \"brownie_projects/sharplabs/contracts/core/ShareWrapper.sol\":1577:1596  uint256 memberShare */\n      0x00\n        /* \"brownie_projects/sharplabs/contracts/core/ShareWrapper.sol\":1599:1620  _balances[msg.sender] */\n      swap1\n      dup2\n      mstore\n        /* \"brownie_projects/sharplabs/contracts/core/ShareWrapper.sol\":1599:1608  _balances */\n      0x01\n        /* \"brownie_projects/sharplabs/contracts/core/ShareWrapper.sol\":1599:1620  _balances[msg.sender] */\n      0x20\n      mstore\n      0x40\n      swap1\n      keccak256\n        /* \"brownie_projects/sharplabs/contracts/core/ShareWrapper.sol\":1599:1629  _balances[msg.sender].withdraw */\n      0x02\n      add\n      sload\n        /* \"brownie_projects/sharplabs/contracts/core/ShareWrapper.sol\":1647:1668  memberShare >= amount */\n      dup2\n      dup2\n      lt\n      iszero\n        /* \"brownie_projects/sharplabs/contracts/core/ShareWrapper.sol\":1639:1727  require(memberShare >= amount, \"Boardroom: withdraw request greater than staked amount\") */\n      tag_49\n      jumpi\n      mload(0x40)\n      shl(0xe5, 0x461bcd)\n      dup2\n      mstore\n        /* \"#utility.yul\":1096:1098   */\n      0x20\n        /* \"brownie_projects/sharplabs/contracts/core/ShareWrapper.sol\":1639:1727  require(memberShare >= amount, \"Boardroom: withdraw request greater than staked amount\") */\n      0x04\n      dup3\n      add\n        /* \"#utility.yul\":1078:1099   */\n      mstore\n        /* \"#utility.yul\":1135:1137   */\n      0x36\n        /* \"#utility.yul\":1115:1133   */\n      0x24\n      dup3\n      add\n        /* \"#utility.yul\":1108:1138   */\n      mstore\n        /* \"#utility.yul\":1174:1208   */\n      0x426f617264726f6f6d3a20776974686472617720726571756573742067726561\n        /* \"#utility.yul\":1154:1172   */\n      0x44\n      dup3\n      add\n        /* \"#utility.yul\":1147:1209   */\n      mstore\n      shl(0x52, 0x1d195c881d1a185b881cdd185ad95908185b5bdd5b9d)\n        /* \"#utility.yul\":1225:1243   */\n      0x64\n      dup3\n      add\n        /* \"#utility.yul\":1218:1270   */\n      mstore\n        /* \"#utility.yul\":1287:1306   */\n      0x84\n      add\n        /* \"brownie_projects/sharplabs/contracts/core/ShareWrapper.sol\":1639:1727  require(memberShare >= amount, \"Boardroom: withdraw request greater than staked amount\") */\n    tag_50:\n      mload(0x40)\n      dup1\n      swap2\n      sub\n      swap1\n      revert\n    tag_49:\n        /* \"brownie_projects/sharplabs/contracts/core/ShareWrapper.sol\":1761:1782  _totalSupply.withdraw */\n      sload(0x04)\n        /* \"brownie_projects/sharplabs/contracts/core/ShareWrapper.sol\":1761:1794  _totalSupply.withdraw.sub(amount) */\n      tag_52\n      swap1\n        /* \"brownie_projects/sharplabs/contracts/core/ShareWrapper.sol\":1787:1793  amount */\n      dup4\n        /* \"brownie_projects/sharplabs/contracts/core/ShareWrapper.sol\":1761:1786  _totalSupply.withdraw.sub */\n      tag_53\n        /* \"brownie_projects/sharplabs/contracts/core/ShareWrapper.sol\":1761:1794  _totalSupply.withdraw.sub(amount) */\n      jump\t// in\n    tag_52:\n        /* \"brownie_projects/sharplabs/contracts/core/ShareWrapper.sol\":1737:1758  _totalSupply.withdraw */\n      0x04\n        /* \"brownie_projects/sharplabs/contracts/core/ShareWrapper.sol\":1737:1794  _totalSupply.withdraw = _totalSupply.withdraw.sub(amount) */\n      sstore\n        /* \"brownie_projects/sharplabs/contracts/core/ShareWrapper.sol\":1837:1860  memberShare.sub(amount) */\n      tag_54\n        /* \"brownie_projects/sharplabs/contracts/core/ShareWrapper.sol\":1837:1848  memberShare */\n      dup2\n        /* \"brownie_projects/sharplabs/contracts/core/ShareWrapper.sol\":1853:1859  amount */\n      dup4\n        /* \"brownie_projects/sharplabs/contracts/core/ShareWrapper.sol\":1837:1852  memberShare.sub */\n      tag_53\n        /* \"brownie_projects/sharplabs/contracts/core/ShareWrapper.sol\":1837:1860  memberShare.sub(amount) */\n      jump\t// in\n    tag_54:\n        /* \"brownie_projects/sharplabs/contracts/core/ShareWrapper.sol\":1814:1824  msg.sender */\n      caller\n        /* \"brownie_projects/sharplabs/contracts/core/ShareWrapper.sol\":1804:1825  _balances[msg.sender] */\n      0x00\n      dup2\n      dup2\n      mstore\n        /* \"brownie_projects/sharplabs/contracts/core/ShareWrapper.sol\":1804:1813  _balances */\n      0x01\n        /* \"brownie_projects/sharplabs/contracts/core/ShareWrapper.sol\":1804:1825  _balances[msg.sender] */\n      0x20\n      mstore\n      0x40\n      dup2\n      keccak256\n        /* \"brownie_projects/sharplabs/contracts/core/ShareWrapper.sol\":1804:1834  _balances[msg.sender].withdraw */\n      0x02\n      add\n        /* \"brownie_projects/sharplabs/contracts/core/ShareWrapper.sol\":1804:1860  _balances[msg.sender].withdraw = memberShare.sub(amount) */\n      swap3\n      swap1\n      swap3\n      sstore\n        /* \"brownie_projects/sharplabs/contracts/core/ShareWrapper.sol\":1870:1875  share */\n      swap1\n      sload\n        /* \"brownie_projects/sharplabs/contracts/core/ShareWrapper.sol\":1870:1908  share.safeTransfer(msg.sender, amount) */\n      tag_55\n      swap2\n      sub(shl(0xa0, 0x01), 0x01)\n        /* \"brownie_projects/sharplabs/contracts/core/ShareWrapper.sol\":1870:1875  share */\n      swap1\n      swap2\n      and\n      swap1\n        /* \"brownie_projects/sharplabs/contracts/core/ShareWrapper.sol\":1901:1907  amount */\n      dup5\n        /* \"brownie_projects/sharplabs/contracts/core/ShareWrapper.sol\":1870:1888  share.safeTransfer */\n      tag_56\n        /* \"brownie_projects/sharplabs/contracts/core/ShareWrapper.sol\":1870:1908  share.safeTransfer(msg.sender, amount) */\n      jump\t// in\n    tag_55:\n        /* \"brownie_projects/sharplabs/contracts/core/ShareWrapper.sol\":1567:1915  {... */\n      pop\n        /* \"brownie_projects/sharplabs/contracts/core/ShareWrapper.sol\":1518:1915  function withdraw(uint256 amount) public virtual {... */\n      pop\n      jump\t// out\n        /* \"brownie_projects/sharplabs/contracts/core/ShareWrapper.sol\":1256:1512  function stake(uint256 amount) public virtual {... */\n    tag_38:\n        /* \"brownie_projects/sharplabs/contracts/core/ShareWrapper.sol\":1332:1344  _totalSupply */\n      0x02\n        /* \"brownie_projects/sharplabs/contracts/core/ShareWrapper.sol\":1332:1349  _totalSupply.wait */\n      sload\n        /* \"brownie_projects/sharplabs/contracts/core/ShareWrapper.sol\":1332:1361  _totalSupply.wait.add(amount) */\n      tag_62\n      swap1\n        /* \"brownie_projects/sharplabs/contracts/core/ShareWrapper.sol\":1354:1360  amount */\n      dup3\n        /* \"brownie_projects/sharplabs/contracts/core/ShareWrapper.sol\":1332:1353  _totalSupply.wait.add */\n      tag_63\n        /* \"brownie_projects/sharplabs/contracts/core/ShareWrapper.sol\":1332:1361  _totalSupply.wait.add(amount) */\n      jump\t// in\n    tag_62:\n        /* \"brownie_projects/sharplabs/contracts/core/ShareWrapper.sol\":1312:1324  _totalSupply */\n      0x02\n        /* \"brownie_projects/sharplabs/contracts/core/ShareWrapper.sol\":1312:1361  _totalSupply.wait = _totalSupply.wait.add(amount) */\n      sstore\n        /* \"brownie_projects/sharplabs/contracts/core/ShareWrapper.sol\":1410:1420  msg.sender */\n      caller\n        /* \"brownie_projects/sharplabs/contracts/core/ShareWrapper.sol\":1312:1329  _totalSupply.wait */\n      0x00\n        /* \"brownie_projects/sharplabs/contracts/core/ShareWrapper.sol\":1400:1421  _balances[msg.sender] */\n      swap1\n      dup2\n      mstore\n        /* \"brownie_projects/sharplabs/contracts/core/ShareWrapper.sol\":1400:1409  _balances */\n      0x01\n        /* \"brownie_projects/sharplabs/contracts/core/ShareWrapper.sol\":1400:1421  _balances[msg.sender] */\n      0x20\n      mstore\n      0x40\n      swap1\n      keccak256\n        /* \"brownie_projects/sharplabs/contracts/core/ShareWrapper.sol\":1400:1426  _balances[msg.sender].wait */\n      sload\n        /* \"brownie_projects/sharplabs/contracts/core/ShareWrapper.sol\":1400:1438  _balances[msg.sender].wait.add(amount) */\n      tag_64\n      swap1\n        /* \"brownie_projects/sharplabs/contracts/core/ShareWrapper.sol\":1431:1437  amount */\n      dup3\n        /* \"brownie_projects/sharplabs/contracts/core/ShareWrapper.sol\":1400:1430  _balances[msg.sender].wait.add */\n      tag_63\n        /* \"brownie_projects/sharplabs/contracts/core/ShareWrapper.sol\":1400:1438  _balances[msg.sender].wait.add(amount) */\n      jump\t// in\n    tag_64:\n        /* \"brownie_projects/sharplabs/contracts/core/ShareWrapper.sol\":1381:1391  msg.sender */\n      caller\n        /* \"brownie_projects/sharplabs/contracts/core/ShareWrapper.sol\":1371:1392  _balances[msg.sender] */\n      0x00\n      dup2\n      dup2\n      mstore\n        /* \"brownie_projects/sharplabs/contracts/core/ShareWrapper.sol\":1371:1380  _balances */\n      0x01\n        /* \"brownie_projects/sharplabs/contracts/core/ShareWrapper.sol\":1371:1392  _balances[msg.sender] */\n      0x20\n      mstore\n      0x40\n      dup2\n      keccak256\n        /* \"brownie_projects/sharplabs/contracts/core/ShareWrapper.sol\":1371:1438  _balances[msg.sender].wait = _balances[msg.sender].wait.add(amount) */\n      swap3\n      swap1\n      swap3\n      sstore\n        /* \"brownie_projects/sharplabs/contracts/core/ShareWrapper.sol\":1448:1453  share */\n      swap1\n      sload\n        /* \"brownie_projects/sharplabs/contracts/core/ShareWrapper.sol\":1448:1505  share.safeTransferFrom(msg.sender, address(this), amount) */\n      tag_65\n      swap2\n      sub(shl(0xa0, 0x01), 0x01)\n        /* \"brownie_projects/sharplabs/contracts/core/ShareWrapper.sol\":1448:1453  share */\n      swap1\n      swap2\n      and\n      swap1\n        /* \"brownie_projects/sharplabs/contracts/core/ShareWrapper.sol\":1491:1495  this */\n      address\n        /* \"brownie_projects/sharplabs/contracts/core/ShareWrapper.sol\":1498:1504  amount */\n      dup5\n        /* \"brownie_projects/sharplabs/contracts/core/ShareWrapper.sol\":1448:1470  share.safeTransferFrom */\n      tag_66\n        /* \"brownie_projects/sharplabs/contracts/core/ShareWrapper.sol\":1448:1505  share.safeTransferFrom(msg.sender, address(this), amount) */\n      jump\t// in\n    tag_65:\n        /* \"brownie_projects/sharplabs/contracts/core/ShareWrapper.sol\":1256:1512  function stake(uint256 amount) public virtual {... */\n      pop\n      jump\t// out\n        /* \"brownie_projects/sharplabs/contracts/utils/math/SafeMath.sol\":3050:3146  function sub(uint256 a, uint256 b) internal pure returns (uint256) {... */\n    tag_53:\n        /* \"brownie_projects/sharplabs/contracts/utils/math/SafeMath.sol\":3108:3115  uint256 */\n      0x00\n        /* \"brownie_projects/sharplabs/contracts/utils/math/SafeMath.sol\":3134:3139  a - b */\n      tag_69\n        /* \"brownie_projects/sharplabs/contracts/utils/math/SafeMath.sol\":3138:3139  b */\n      dup3\n        /* \"brownie_projects/sharplabs/contracts/utils/math/SafeMath.sol\":3134:3135  a */\n      dup5\n        /* \"brownie_projects/sharplabs/contracts/utils/math/SafeMath.sol\":3134:3139  a - b */\n      tag_70\n      jump\t// in\n    tag_69:\n        /* \"brownie_projects/sharplabs/contracts/utils/math/SafeMath.sol\":3127:3139  return a - b */\n      swap4\n        /* \"brownie_projects/sharplabs/contracts/utils/math/SafeMath.sol\":3050:3146  function sub(uint256 a, uint256 b) internal pure returns (uint256) {... */\n      swap3\n      pop\n      pop\n      pop\n      jump\t// out\n        /* \"brownie_projects/sharplabs/contracts/utils/token/SafeERC20.sol\":652:827  function safeTransfer(IERC20 token, address to, uint256 value) internal {... */\n    tag_56:\n        /* \"brownie_projects/sharplabs/contracts/utils/token/SafeERC20.sol\":761:819  abi.encodeWithSelector(token.transfer.selector, to, value) */\n      mload(0x40)\n      sub(shl(0xa0, 0x01), 0x01)\n        /* \"#utility.yul\":1771:1803   */\n      dup4\n      and\n        /* \"brownie_projects/sharplabs/contracts/utils/token/SafeERC20.sol\":761:819  abi.encodeWithSelector(token.transfer.selector, to, value) */\n      0x24\n      dup3\n      add\n        /* \"#utility.yul\":1753:1804   */\n      mstore\n        /* \"#utility.yul\":1820:1838   */\n      0x44\n      dup2\n      add\n        /* \"#utility.yul\":1813:1847   */\n      dup3\n      swap1\n      mstore\n        /* \"brownie_projects/sharplabs/contracts/utils/token/SafeERC20.sol\":734:820  _callOptionalReturn(token, abi.encodeWithSelector(token.transfer.selector, to, value)) */\n      tag_72\n      swap1\n        /* \"brownie_projects/sharplabs/contracts/utils/token/SafeERC20.sol\":754:759  token */\n      dup5\n      swap1\n      shl(0xe0, 0xa9059cbb)\n        /* \"brownie_projects/sharplabs/contracts/utils/token/SafeERC20.sol\":784:807  token.transfer.selector */\n      swap1\n        /* \"#utility.yul\":1726:1744   */\n      0x64\n      add\n        /* \"brownie_projects/sharplabs/contracts/utils/token/SafeERC20.sol\":761:819  abi.encodeWithSelector(token.transfer.selector, to, value) */\n    tag_73:\n      0x40\n      dup1\n      mload\n      not(0x1f)\n      dup2\n      dup5\n      sub\n      add\n      dup2\n      mstore\n      swap2\n      swap1\n      mstore\n      0x20\n      dup2\n      add\n      dup1\n      mload\n      sub(shl(0xe0, 0x01), 0x01)\n      and\n      not(sub(shl(0xe0, 0x01), 0x01))\n      swap1\n      swap4\n      and\n      swap3\n      swap1\n      swap3\n      or\n      swap1\n      swap2\n      mstore\n        /* \"brownie_projects/sharplabs/contracts/utils/token/SafeERC20.sol\":734:753  _callOptionalReturn */\n      tag_75\n        /* \"brownie_projects/sharplabs/contracts/utils/token/SafeERC20.sol\":734:820  _callOptionalReturn(token, abi.encodeWithSelector(token.transfer.selector, to, value)) */\n      jump\t// in\n    tag_72:\n        /* \"brownie_projects/sharplabs/contracts/utils/token/SafeERC20.sol\":652:827  function safeTransfer(IERC20 token, address to, uint256 value) internal {... */\n      pop\n      pop\n      pop\n      jump\t// out\n        /* \"brownie_projects/sharplabs/contracts/utils/math/SafeMath.sol\":2683:2779  function add(uint256 a, uint256 b) internal pure returns (uint256) {... */\n    tag_63:\n        /* \"brownie_projects/sharplabs/contracts/utils/math/SafeMath.sol\":2741:2748  uint256 */\n      0x00\n        /* \"brownie_projects/sharplabs/contracts/utils/math/SafeMath.sol\":2767:2772  a + b */\n      tag_69\n        /* \"brownie_projects/sharplabs/contracts/utils/math/SafeMath.sol\":2771:2772  b */\n      dup3\n        /* \"brownie_projects/sharplabs/contracts/utils/math/SafeMath.sol\":2767:2768  a */\n      dup5\n        /* \"brownie_projects/sharplabs/contracts/utils/math/SafeMath.sol\":2767:2772  a + b */\n      tag_78\n      jump\t// in\n        /* \"brownie_projects/sharplabs/contracts/utils/token/SafeERC20.sol\":833:1036  function safeTransferFrom(IERC20 token, address from, address to, uint256 value) internal {... */\n    tag_66:\n        /* \"brownie_projects/sharplabs/contracts/utils/token/SafeERC20.sol\":960:1028  abi.encodeWithSelector(token.transferFrom.selector, from, to, value) */\n      mload(0x40)\n      sub(shl(0xa0, 0x01), 0x01)\n        /* \"#utility.yul\":2249:2264   */\n      dup1\n      dup6\n      and\n        /* \"brownie_projects/sharplabs/contracts/utils/token/SafeERC20.sol\":960:1028  abi.encodeWithSelector(token.transferFrom.selector, from, to, value) */\n      0x24\n      dup4\n      add\n        /* \"#utility.yul\":2231:2265   */\n      mstore\n        /* \"#utility.yul\":2301:2316   */\n      dup4\n      and\n        /* \"#utility.yul\":2281:2299   */\n      0x44\n      dup3\n      add\n        /* \"#utility.yul\":2274:2317   */\n      mstore\n        /* \"#utility.yul\":2333:2351   */\n      0x64\n      dup2\n      add\n        /* \"#utility.yul\":2326:2360   */\n      dup3\n      swap1\n      mstore\n        /* \"brownie_projects/sharplabs/contracts/utils/token/SafeERC20.sol\":933:1029  _callOptionalReturn(token, abi.encodeWithSelector(token.transferFrom.selector, from, to, value)) */\n      tag_80\n      swap1\n        /* \"brownie_projects/sharplabs/contracts/utils/token/SafeERC20.sol\":953:958  token */\n      dup6\n      swap1\n      shl(0xe0, 0x23b872dd)\n        /* \"brownie_projects/sharplabs/contracts/utils/token/SafeERC20.sol\":983:1010  token.transferFrom.selector */\n      swap1\n        /* \"#utility.yul\":2166:2184   */\n      0x84\n      add\n        /* \"brownie_projects/sharplabs/contracts/utils/token/SafeERC20.sol\":960:1028  abi.encodeWithSelector(token.transferFrom.selector, from, to, value) */\n      tag_73\n        /* \"#utility.yul\":1991:2366   */\n      jump\n        /* \"brownie_projects/sharplabs/contracts/utils/token/SafeERC20.sol\":933:1029  _callOptionalReturn(token, abi.encodeWithSelector(token.transferFrom.selector, from, to, value)) */\n    tag_80:\n        /* \"brownie_projects/sharplabs/contracts/utils/token/SafeERC20.sol\":833:1036  function safeTransferFrom(IERC20 token, address from, address to, uint256 value) internal {... */\n      pop\n      pop\n      pop\n      pop\n      jump\t// out\n        /* \"brownie_projects/sharplabs/contracts/utils/token/SafeERC20.sol\":3000:3706  function _callOptionalReturn(IERC20 token, bytes memory data) private {... */\n    tag_75:\n        /* \"brownie_projects/sharplabs/contracts/utils/token/SafeERC20.sol\":3419:3442  bytes memory returndata */\n      0x00\n        /* \"brownie_projects/sharplabs/contracts/utils/token/SafeERC20.sol\":3445:3514  address(token).functionCall(data, \"SafeERC20: low-level call failed\") */\n      tag_84\n        /* \"brownie_projects/sharplabs/contracts/utils/token/SafeERC20.sol\":3473:3477  data */\n      dup3\n        /* \"brownie_projects/sharplabs/contracts/utils/token/SafeERC20.sol\":3445:3514  address(token).functionCall(data, \"SafeERC20: low-level call failed\") */\n      mload(0x40)\n      dup1\n      0x40\n      add\n      0x40\n      mstore\n      dup1\n      0x20\n      dup2\n      mstore\n      0x20\n      add\n      0x5361666545524332303a206c6f772d6c6576656c2063616c6c206661696c6564\n      dup2\n      mstore\n      pop\n        /* \"brownie_projects/sharplabs/contracts/utils/token/SafeERC20.sol\":3453:3458  token */\n      dup6\n      sub(shl(0xa0, 0x01), 0x01)\n        /* \"brownie_projects/sharplabs/contracts/utils/token/SafeERC20.sol\":3445:3472  address(token).functionCall */\n      and\n      tag_85\n      swap1\n        /* \"brownie_projects/sharplabs/contracts/utils/token/SafeERC20.sol\":3445:3514  address(token).functionCall(data, \"SafeERC20: low-level call failed\") */\n      swap3\n      swap2\n      swap1\n      0xffffffff\n      and\n      jump\t// in\n    tag_84:\n        /* \"brownie_projects/sharplabs/contracts/utils/token/SafeERC20.sol\":3528:3545  returndata.length */\n      dup1\n      mload\n        /* \"brownie_projects/sharplabs/contracts/utils/token/SafeERC20.sol\":3419:3514  bytes memory returndata = address(token).functionCall(data, \"SafeERC20: low-level call failed\") */\n      swap1\n      swap2\n      pop\n        /* \"brownie_projects/sharplabs/contracts/utils/token/SafeERC20.sol\":3528:3549  returndata.length > 0 */\n      iszero\n        /* \"brownie_projects/sharplabs/contracts/utils/token/SafeERC20.sol\":3524:3700  if (returndata.length > 0) {... */\n      tag_72\n      jumpi\n        /* \"brownie_projects/sharplabs/contracts/utils/token/SafeERC20.sol\":3623:3633  returndata */\n      dup1\n        /* \"brownie_projects/sharplabs/contracts/utils/token/SafeERC20.sol\":3612:3642  abi.decode(returndata, (bool)) */\n      dup1\n      0x20\n      add\n      swap1\n      mload\n      dup2\n      add\n      swap1\n      tag_87\n      swap2\n      swap1\n      tag_88\n      jump\t// in\n    tag_87:\n        /* \"brownie_projects/sharplabs/contracts/utils/token/SafeERC20.sol\":3604:3689  require(abi.decode(returndata, (bool)), \"SafeERC20: ERC20 operation did not succeed\") */\n      tag_72\n      jumpi\n      mload(0x40)\n      shl(0xe5, 0x461bcd)\n      dup2\n      mstore\n        /* \"#utility.yul\":2855:2857   */\n      0x20\n        /* \"brownie_projects/sharplabs/contracts/utils/token/SafeERC20.sol\":3604:3689  require(abi.decode(returndata, (bool)), \"SafeERC20: ERC20 operation did not succeed\") */\n      0x04\n      dup3\n      add\n        /* \"#utility.yul\":2837:2858   */\n      mstore\n        /* \"#utility.yul\":2894:2896   */\n      0x2a\n        /* \"#utility.yul\":2874:2892   */\n      0x24\n      dup3\n      add\n        /* \"#utility.yul\":2867:2897   */\n      mstore\n        /* \"#utility.yul\":2933:2967   */\n      0x5361666545524332303a204552433230206f7065726174696f6e20646964206e\n        /* \"#utility.yul\":2913:2931   */\n      0x44\n      dup3\n      add\n        /* \"#utility.yul\":2906:2968   */\n      mstore\n      shl(0xb2, 0x1bdd081cdd58d8d95959)\n        /* \"#utility.yul\":2984:3002   */\n      0x64\n      dup3\n      add\n        /* \"#utility.yul\":2977:3017   */\n      mstore\n        /* \"#utility.yul\":3034:3053   */\n      0x84\n      add\n        /* \"brownie_projects/sharplabs/contracts/utils/token/SafeERC20.sol\":3604:3689  require(abi.decode(returndata, (bool)), \"SafeERC20: ERC20 operation did not succeed\") */\n      tag_50\n        /* \"#utility.yul\":2653:3059   */\n      jump\n        /* \"brownie_projects/sharplabs/contracts/utils/Address.sol\":4041:4264  function functionCall(... */\n    tag_85:\n        /* \"brownie_projects/sharplabs/contracts/utils/Address.sol\":4174:4186  bytes memory */\n      0x60\n        /* \"brownie_projects/sharplabs/contracts/utils/Address.sol\":4205:4257  functionCallWithValue(target, data, 0, errorMessage) */\n      tag_93\n        /* \"brownie_projects/sharplabs/contracts/utils/Address.sol\":4227:4233  target */\n      dup5\n        /* \"brownie_projects/sharplabs/contracts/utils/Address.sol\":4235:4239  data */\n      dup5\n        /* \"brownie_projects/sharplabs/contracts/utils/Address.sol\":4241:4242  0 */\n      0x00\n        /* \"brownie_projects/sharplabs/contracts/utils/Address.sol\":4244:4256  errorMessage */\n      dup6\n        /* \"brownie_projects/sharplabs/contracts/utils/Address.sol\":4205:4226  functionCallWithValue */\n      tag_94\n        /* \"brownie_projects/sharplabs/contracts/utils/Address.sol\":4205:4257  functionCallWithValue(target, data, 0, errorMessage) */\n      jump\t// in\n    tag_93:\n        /* \"brownie_projects/sharplabs/contracts/utils/Address.sol\":4198:4257  return functionCallWithValue(target, data, 0, errorMessage) */\n      swap5\n        /* \"brownie_projects/sharplabs/contracts/utils/Address.sol\":4041:4264  function functionCall(... */\n      swap4\n      pop\n      pop\n      pop\n      pop\n      jump\t// out\n        /* \"brownie_projects/sharplabs/contracts/utils/Address.sol\":5098:5544  function functionCallWithValue(... */\n    tag_94:\n        /* \"brownie_projects/sharplabs/contracts/utils/Address.sol\":5263:5275  bytes memory */\n      0x60\n        /* \"brownie_projects/sharplabs/contracts/utils/Address.sol\":5320:5325  value */\n      dup3\n        /* \"brownie_projects/sharplabs/contracts/utils/Address.sol\":5295:5316  address(this).balance */\n      selfbalance\n        /* \"brownie_projects/sharplabs/contracts/utils/Address.sol\":5295:5325  address(this).balance >= value */\n      lt\n      iszero\n        /* \"brownie_projects/sharplabs/contracts/utils/Address.sol\":5287:5368  require(address(this).balance >= value, \"Address: insufficient balance for call\") */\n      tag_96\n      jumpi\n      mload(0x40)\n      shl(0xe5, 0x461bcd)\n      dup2\n      mstore\n        /* \"#utility.yul\":3266:3268   */\n      0x20\n        /* \"brownie_projects/sharplabs/contracts/utils/Address.sol\":5287:5368  require(address(this).balance >= value, \"Address: insufficient balance for call\") */\n      0x04\n      dup3\n      add\n        /* \"#utility.yul\":3248:3269   */\n      mstore\n        /* \"#utility.yul\":3305:3307   */\n      0x26\n        /* \"#utility.yul\":3285:3303   */\n      0x24\n      dup3\n      add\n        /* \"#utility.yul\":3278:3308   */\n      mstore\n        /* \"#utility.yul\":3344:3378   */\n      0x416464726573733a20696e73756666696369656e742062616c616e636520666f\n        /* \"#utility.yul\":3324:3342   */\n      0x44\n      dup3\n      add\n        /* \"#utility.yul\":3317:3379   */\n      mstore\n      shl(0xd2, 0x1c8818d85b1b)\n        /* \"#utility.yul\":3395:3413   */\n      0x64\n      dup3\n      add\n        /* \"#utility.yul\":3388:3424   */\n      mstore\n        /* \"#utility.yul\":3441:3460   */\n      0x84\n      add\n        /* \"brownie_projects/sharplabs/contracts/utils/Address.sol\":5287:5368  require(address(this).balance >= value, \"Address: insufficient balance for call\") */\n      tag_50\n        /* \"#utility.yul\":3064:3466   */\n      jump\n        /* \"brownie_projects/sharplabs/contracts/utils/Address.sol\":5287:5368  require(address(this).balance >= value, \"Address: insufficient balance for call\") */\n    tag_96:\n        /* \"brownie_projects/sharplabs/contracts/utils/Address.sol\":5379:5391  bool success */\n      0x00\n        /* \"brownie_projects/sharplabs/contracts/utils/Address.sol\":5393:5416  bytes memory returndata */\n      dup1\n        /* \"brownie_projects/sharplabs/contracts/utils/Address.sol\":5420:5426  target */\n      dup7\n      sub(shl(0xa0, 0x01), 0x01)\n        /* \"brownie_projects/sharplabs/contracts/utils/Address.sol\":5420:5431  target.call */\n      and\n        /* \"brownie_projects/sharplabs/contracts/utils/Address.sol\":5439:5444  value */\n      dup6\n        /* \"brownie_projects/sharplabs/contracts/utils/Address.sol\":5446:5450  data */\n      dup8\n        /* \"brownie_projects/sharplabs/contracts/utils/Address.sol\":5420:5451  target.call{value: value}(data) */\n      mload(0x40)\n      tag_99\n      swap2\n      swap1\n      tag_100\n      jump\t// in\n    tag_99:\n      0x00\n      mload(0x40)\n      dup1\n      dup4\n      sub\n      dup2\n      dup6\n      dup8\n      gas\n      call\n      swap3\n      pop\n      pop\n      pop\n      returndatasize\n      dup1\n      0x00\n      dup2\n      eq\n      tag_103\n      jumpi\n      mload(0x40)\n      swap2\n      pop\n      and(add(returndatasize, 0x3f), not(0x1f))\n      dup3\n      add\n      0x40\n      mstore\n      returndatasize\n      dup3\n      mstore\n      returndatasize\n      0x00\n      0x20\n      dup5\n      add\n      returndatacopy\n      jump(tag_102)\n    tag_103:\n      0x60\n      swap2\n      pop\n    tag_102:\n      pop\n        /* \"brownie_projects/sharplabs/contracts/utils/Address.sol\":5378:5451  (bool success, bytes memory returndata) = target.call{value: value}(data) */\n      swap2\n      pop\n      swap2\n      pop\n        /* \"brownie_projects/sharplabs/contracts/utils/Address.sol\":5468:5537  verifyCallResultFromTarget(target, success, returndata, errorMessage) */\n      tag_104\n        /* \"brownie_projects/sharplabs/contracts/utils/Address.sol\":5495:5501  target */\n      dup8\n        /* \"brownie_projects/sharplabs/contracts/utils/Address.sol\":5503:5510  success */\n      dup4\n        /* \"brownie_projects/sharplabs/contracts/utils/Address.sol\":5512:5522  returndata */\n      dup4\n        /* \"brownie_projects/sharplabs/contracts/utils/Address.sol\":5524:5536  errorMessage */\n      dup8\n        /* \"brownie_projects/sharplabs/contracts/utils/Address.sol\":5468:5494  verifyCallResultFromTarget */\n      tag_105\n        /* \"brownie_projects/sharplabs/contracts/utils/Address.sol\":5468:5537  verifyCallResultFromTarget(target, success, returndata, errorMessage) */\n      jump\t// in\n    tag_104:\n        /* \"brownie_projects/sharplabs/contracts/utils/Address.sol\":5461:5537  return verifyCallResultFromTarget(target, success, returndata, errorMessage) */\n      swap8\n        /* \"brownie_projects/sharplabs/contracts/utils/Address.sol\":5098:5544  function functionCallWithValue(... */\n      swap7\n      pop\n      pop\n      pop\n      pop\n      pop\n      pop\n      pop\n      jump\t// out\n        /* \"brownie_projects/sharplabs/contracts/utils/Address.sol\":7604:8232  function verifyCallResultFromTarget(... */\n    tag_105:\n        /* \"brownie_projects/sharplabs/contracts/utils/Address.sol\":7784:7796  bytes memory */\n      0x60\n        /* \"brownie_projects/sharplabs/contracts/utils/Address.sol\":7812:7819  success */\n      dup4\n        /* \"brownie_projects/sharplabs/contracts/utils/Address.sol\":7808:8226  if (success) {... */\n      iszero\n      tag_107\n      jumpi\n        /* \"brownie_projects/sharplabs/contracts/utils/Address.sol\":7839:7849  returndata */\n      dup3\n        /* \"brownie_projects/sharplabs/contracts/utils/Address.sol\":7839:7856  returndata.length */\n      mload\n        /* \"brownie_projects/sharplabs/contracts/utils/Address.sol\":7860:7861  0 */\n      0x00\n        /* \"brownie_projects/sharplabs/contracts/utils/Address.sol\":7839:7861  returndata.length == 0 */\n      sub\n        /* \"brownie_projects/sharplabs/contracts/utils/Address.sol\":7835:8121  if (returndata.length == 0) {... */\n      tag_111\n      jumpi\n      sub(shl(0xa0, 0x01), 0x01)\n        /* \"brownie_projects/sharplabs/contracts/utils/Address.sol\":1634:1653  account.code.length */\n      dup6\n      and\n      extcodesize\n        /* \"brownie_projects/sharplabs/contracts/utils/Address.sol\":8046:8106  require(isContract(target), \"Address: call to non-contract\") */\n      tag_111\n      jumpi\n      mload(0x40)\n      shl(0xe5, 0x461bcd)\n      dup2\n      mstore\n        /* \"#utility.yul\":4215:4217   */\n      0x20\n        /* \"brownie_projects/sharplabs/contracts/utils/Address.sol\":8046:8106  require(isContract(target), \"Address: call to non-contract\") */\n      0x04\n      dup3\n      add\n        /* \"#utility.yul\":4197:4218   */\n      mstore\n        /* \"#utility.yul\":4254:4256   */\n      0x1d\n        /* \"#utility.yul\":4234:4252   */\n      0x24\n      dup3\n      add\n        /* \"#utility.yul\":4227:4257   */\n      mstore\n        /* \"#utility.yul\":4293:4324   */\n      0x416464726573733a2063616c6c20746f206e6f6e2d636f6e7472616374000000\n        /* \"#utility.yul\":4273:4291   */\n      0x44\n      dup3\n      add\n        /* \"#utility.yul\":4266:4325   */\n      mstore\n        /* \"#utility.yul\":4342:4360   */\n      0x64\n      add\n        /* \"brownie_projects/sharplabs/contracts/utils/Address.sol\":8046:8106  require(isContract(target), \"Address: call to non-contract\") */\n      tag_50\n        /* \"#utility.yul\":4013:4366   */\n      jump\n        /* \"brownie_projects/sharplabs/contracts/utils/Address.sol\":8046:8106  require(isContract(target), \"Address: call to non-contract\") */\n    tag_111:\n      pop\n        /* \"brownie_projects/sharplabs/contracts/utils/Address.sol\":8141:8151  returndata */\n      dup2\n        /* \"brownie_projects/sharplabs/contracts/utils/Address.sol\":8134:8151  return returndata */\n      jump(tag_93)\n        /* \"brownie_projects/sharplabs/contracts/utils/Address.sol\":7808:8226  if (success) {... */\n    tag_107:\n        /* \"brownie_projects/sharplabs/contracts/utils/Address.sol\":8182:8215  _revert(returndata, errorMessage) */\n      tag_93\n        /* \"brownie_projects/sharplabs/contracts/utils/Address.sol\":8190:8200  returndata */\n      dup4\n        /* \"brownie_projects/sharplabs/contracts/utils/Address.sol\":8202:8214  errorMessage */\n      dup4\n        /* \"brownie_projects/sharplabs/contracts/utils/Address.sol\":8913:8930  returndata.length */\n      dup2\n      mload\n        /* \"brownie_projects/sharplabs/contracts/utils/Address.sol\":8913:8934  returndata.length > 0 */\n      iszero\n        /* \"brownie_projects/sharplabs/contracts/utils/Address.sol\":8909:9288  if (returndata.length > 0) {... */\n      tag_119\n      jumpi\n        /* \"brownie_projects/sharplabs/contracts/utils/Address.sol\":9141:9151  returndata */\n      dup2\n        /* \"brownie_projects/sharplabs/contracts/utils/Address.sol\":9135:9152  mload(returndata) */\n      mload\n        /* \"brownie_projects/sharplabs/contracts/utils/Address.sol\":9197:9212  returndata_size */\n      dup1\n        /* \"brownie_projects/sharplabs/contracts/utils/Address.sol\":9184:9194  returndata */\n      dup4\n        /* \"brownie_projects/sharplabs/contracts/utils/Address.sol\":9180:9182  32 */\n      0x20\n        /* \"brownie_projects/sharplabs/contracts/utils/Address.sol\":9176:9195  add(32, returndata) */\n      add\n        /* \"brownie_projects/sharplabs/contracts/utils/Address.sol\":9169:9213  revert(add(32, returndata), returndata_size) */\n      revert\n        /* \"brownie_projects/sharplabs/contracts/utils/Address.sol\":8909:9288  if (returndata.length > 0) {... */\n    tag_119:\n        /* \"brownie_projects/sharplabs/contracts/utils/Address.sol\":9264:9276  errorMessage */\n      dup1\n        /* \"brownie_projects/sharplabs/contracts/utils/Address.sol\":9257:9277  revert(errorMessage) */\n      mload(0x40)\n      shl(0xe5, 0x461bcd)\n      dup2\n      mstore\n      0x04\n      add\n      tag_50\n      swap2\n      swap1\n      tag_122\n      jump\t// in\n        /* \"#utility.yul\":196:376   */\n    tag_19:\n        /* \"#utility.yul\":255:261   */\n      0x00\n        /* \"#utility.yul\":308:310   */\n      0x20\n        /* \"#utility.yul\":296:305   */\n      dup3\n        /* \"#utility.yul\":287:294   */\n      dup5\n        /* \"#utility.yul\":283:306   */\n      sub\n        /* \"#utility.yul\":279:311   */\n      slt\n        /* \"#utility.yul\":276:328   */\n      iszero\n      tag_128\n      jumpi\n        /* \"#utility.yul\":324:325   */\n      0x00\n        /* \"#utility.yul\":321:322   */\n      dup1\n        /* \"#utility.yul\":314:326   */\n      revert\n        /* \"#utility.yul\":276:328   */\n    tag_128:\n      pop\n        /* \"#utility.yul\":347:370   */\n      calldataload\n      swap2\n        /* \"#utility.yul\":196:376   */\n      swap1\n      pop\n      jump\t// out\n        /* \"#utility.yul\":381:667   */\n    tag_26:\n        /* \"#utility.yul\":440:446   */\n      0x00\n        /* \"#utility.yul\":493:495   */\n      0x20\n        /* \"#utility.yul\":481:490   */\n      dup3\n        /* \"#utility.yul\":472:479   */\n      dup5\n        /* \"#utility.yul\":468:491   */\n      sub\n        /* \"#utility.yul\":464:496   */\n      slt\n        /* \"#utility.yul\":461:513   */\n      iszero\n      tag_130\n      jumpi\n        /* \"#utility.yul\":509:510   */\n      0x00\n        /* \"#utility.yul\":506:507   */\n      dup1\n        /* \"#utility.yul\":499:511   */\n      revert\n        /* \"#utility.yul\":461:513   */\n    tag_130:\n        /* \"#utility.yul\":535:558   */\n      dup2\n      calldataload\n      sub(shl(0xa0, 0x01), 0x01)\n        /* \"#utility.yul\":587:618   */\n      dup2\n      and\n        /* \"#utility.yul\":577:619   */\n      dup2\n      eq\n        /* \"#utility.yul\":567:637   */\n      tag_69\n      jumpi\n        /* \"#utility.yul\":633:634   */\n      0x00\n        /* \"#utility.yul\":630:631   */\n      dup1\n        /* \"#utility.yul\":623:635   */\n      revert\n        /* \"#utility.yul\":1317:1444   */\n    tag_123:\n        /* \"#utility.yul\":1378:1388   */\n      0x4e487b71\n        /* \"#utility.yul\":1373:1376   */\n      0xe0\n        /* \"#utility.yul\":1369:1389   */\n      shl\n        /* \"#utility.yul\":1366:1367   */\n      0x00\n        /* \"#utility.yul\":1359:1390   */\n      mstore\n        /* \"#utility.yul\":1409:1413   */\n      0x11\n        /* \"#utility.yul\":1406:1407   */\n      0x04\n        /* \"#utility.yul\":1399:1414   */\n      mstore\n        /* \"#utility.yul\":1433:1437   */\n      0x24\n        /* \"#utility.yul\":1430:1431   */\n      0x00\n        /* \"#utility.yul\":1423:1438   */\n      revert\n        /* \"#utility.yul\":1449:1574   */\n    tag_70:\n        /* \"#utility.yul\":1489:1493   */\n      0x00\n        /* \"#utility.yul\":1517:1518   */\n      dup3\n        /* \"#utility.yul\":1514:1515   */\n      dup3\n        /* \"#utility.yul\":1511:1519   */\n      lt\n        /* \"#utility.yul\":1508:1542   */\n      iszero\n      tag_137\n      jumpi\n        /* \"#utility.yul\":1522:1540   */\n      tag_137\n      tag_123\n      jump\t// in\n    tag_137:\n      pop\n        /* \"#utility.yul\":1559:1568   */\n      sub\n      swap1\n        /* \"#utility.yul\":1449:1574   */\n      jump\t// out\n        /* \"#utility.yul\":1858:1986   */\n    tag_78:\n        /* \"#utility.yul\":1898:1901   */\n      0x00\n        /* \"#utility.yul\":1929:1930   */\n      dup3\n        /* \"#utility.yul\":1925:1931   */\n      not\n        /* \"#utility.yul\":1922:1923   */\n      dup3\n        /* \"#utility.yul\":1919:1932   */\n      gt\n        /* \"#utility.yul\":1916:1955   */\n      iszero\n      tag_141\n      jumpi\n        /* \"#utility.yul\":1935:1953   */\n      tag_141\n      tag_123\n      jump\t// in\n    tag_141:\n      pop\n        /* \"#utility.yul\":1971:1980   */\n      add\n      swap1\n        /* \"#utility.yul\":1858:1986   */\n      jump\t// out\n        /* \"#utility.yul\":2371:2648   */\n    tag_88:\n        /* \"#utility.yul\":2438:2444   */\n      0x00\n        /* \"#utility.yul\":2491:2493   */\n      0x20\n        /* \"#utility.yul\":2479:2488   */\n      dup3\n        /* \"#utility.yul\":2470:2477   */\n      dup5\n        /* \"#utility.yul\":2466:2489   */\n      sub\n        /* \"#utility.yul\":2462:2494   */\n      slt\n        /* \"#utility.yul\":2459:2511   */\n      iszero\n      tag_144\n      jumpi\n        /* \"#utility.yul\":2507:2508   */\n      0x00\n        /* \"#utility.yul\":2504:2505   */\n      dup1\n        /* \"#utility.yul\":2497:2509   */\n      revert\n        /* \"#utility.yul\":2459:2511   */\n    tag_144:\n        /* \"#utility.yul\":2539:2548   */\n      dup2\n        /* \"#utility.yul\":2533:2549   */\n      mload\n        /* \"#utility.yul\":2592:2597   */\n      dup1\n        /* \"#utility.yul\":2585:2598   */\n      iszero\n        /* \"#utility.yul\":2578:2599   */\n      iszero\n        /* \"#utility.yul\":2571:2576   */\n      dup2\n        /* \"#utility.yul\":2568:2600   */\n      eq\n        /* \"#utility.yul\":2558:2618   */\n      tag_69\n      jumpi\n        /* \"#utility.yul\":2614:2615   */\n      0x00\n        /* \"#utility.yul\":2611:2612   */\n      dup1\n        /* \"#utility.yul\":2604:2616   */\n      revert\n        /* \"#utility.yul\":3471:3729   */\n    tag_124:\n        /* \"#utility.yul\":3543:3544   */\n      0x00\n        /* \"#utility.yul\":3553:3666   */\n    tag_149:\n        /* \"#utility.yul\":3567:3573   */\n      dup4\n        /* \"#utility.yul\":3564:3565   */\n      dup2\n        /* \"#utility.yul\":3561:3574   */\n      lt\n        /* \"#utility.yul\":3553:3666   */\n      iszero\n      tag_151\n      jumpi\n        /* \"#utility.yul\":3643:3654   */\n      dup2\n      dup2\n      add\n        /* \"#utility.yul\":3637:3655   */\n      mload\n        /* \"#utility.yul\":3624:3635   */\n      dup4\n      dup3\n      add\n        /* \"#utility.yul\":3617:3656   */\n      mstore\n        /* \"#utility.yul\":3589:3591   */\n      0x20\n        /* \"#utility.yul\":3582:3592   */\n      add\n        /* \"#utility.yul\":3553:3666   */\n      jump(tag_149)\n    tag_151:\n        /* \"#utility.yul\":3684:3690   */\n      dup4\n        /* \"#utility.yul\":3681:3682   */\n      dup2\n        /* \"#utility.yul\":3678:3691   */\n      gt\n        /* \"#utility.yul\":3675:3723   */\n      iszero\n      tag_80\n      jumpi\n      pop\n      pop\n        /* \"#utility.yul\":3719:3720   */\n      0x00\n        /* \"#utility.yul\":3701:3717   */\n      swap2\n      add\n        /* \"#utility.yul\":3694:3721   */\n      mstore\n        /* \"#utility.yul\":3471:3729   */\n      jump\t// out\n        /* \"#utility.yul\":3734:4008   */\n    tag_100:\n        /* \"#utility.yul\":3863:3866   */\n      0x00\n        /* \"#utility.yul\":3901:3907   */\n      dup3\n        /* \"#utility.yul\":3895:3908   */\n      mload\n        /* \"#utility.yul\":3917:3970   */\n      tag_154\n        /* \"#utility.yul\":3963:3969   */\n      dup2\n        /* \"#utility.yul\":3958:3961   */\n      dup5\n        /* \"#utility.yul\":3951:3955   */\n      0x20\n        /* \"#utility.yul\":3943:3949   */\n      dup8\n        /* \"#utility.yul\":3939:3956   */\n      add\n        /* \"#utility.yul\":3917:3970   */\n      tag_124\n      jump\t// in\n    tag_154:\n        /* \"#utility.yul\":3986:4002   */\n      swap2\n      swap1\n      swap2\n      add\n      swap3\n        /* \"#utility.yul\":3734:4008   */\n      swap2\n      pop\n      pop\n      jump\t// out\n        /* \"#utility.yul\":4371:4754   */\n    tag_122:\n        /* \"#utility.yul\":4520:4522   */\n      0x20\n        /* \"#utility.yul\":4509:4518   */\n      dup2\n        /* \"#utility.yul\":4502:4523   */\n      mstore\n        /* \"#utility.yul\":4483:4487   */\n      0x00\n        /* \"#utility.yul\":4552:4558   */\n      dup3\n        /* \"#utility.yul\":4546:4559   */\n      mload\n        /* \"#utility.yul\":4595:4601   */\n      dup1\n        /* \"#utility.yul\":4590:4592   */\n      0x20\n        /* \"#utility.yul\":4579:4588   */\n      dup5\n        /* \"#utility.yul\":4575:4593   */\n      add\n        /* \"#utility.yul\":4568:4602   */\n      mstore\n        /* \"#utility.yul\":4611:4677   */\n      tag_157\n        /* \"#utility.yul\":4670:4676   */\n      dup2\n        /* \"#utility.yul\":4665:4667   */\n      0x40\n        /* \"#utility.yul\":4654:4663   */\n      dup6\n        /* \"#utility.yul\":4650:4668   */\n      add\n        /* \"#utility.yul\":4645:4647   */\n      0x20\n        /* \"#utility.yul\":4637:4643   */\n      dup8\n        /* \"#utility.yul\":4633:4648   */\n      add\n        /* \"#utility.yul\":4611:4677   */\n      tag_124\n      jump\t// in\n    tag_157:\n        /* \"#utility.yul\":4738:4740   */\n      0x1f\n        /* \"#utility.yul\":4717:4732   */\n      add\n      not(0x1f)\n        /* \"#utility.yul\":4713:4742   */\n      and\n        /* \"#utility.yul\":4698:4743   */\n      swap2\n      swap1\n      swap2\n      add\n        /* \"#utility.yul\":4745:4747   */\n      0x40\n        /* \"#utility.yul\":4694:4748   */\n      add\n      swap3\n        /* \"#utility.yul\":4371:4754   */\n      swap2\n      pop\n      pop\n      jump\t// out\n\n    auxdata: 0xa264697066735822122059653fa6aaefbaf504e99bf533607421c7c9b7d7093c0bc8e118c30ac7ba6d6564736f6c634300080d0033\n}\n",
				"bytecode": {
					"linkReferences": {},
					"object": "608060405234801561001057600080fd5b50610741806100206000396000f3fe608060405234801561001057600080fd5b50600436106100935760003560e01c8063649e4a5211610066578063649e4a52146100f857806393ba4f6614610100578063a694fc3a14610129578063a8d5fd651461013c578063eabba1451461016757600080fd5b80631e7e936d146100985780632e1a7d4d146100af57806340d1fb87146100c457806362d45f8f146100cc575b600080fd5b6004545b6040519081526020015b60405180910390f35b6100c26100bd3660046105e7565b610194565b005b60025461009c565b61009c6100da366004610600565b6001600160a01b031660009081526001602052604090206002015490565b60035461009c565b61009c61010e366004610600565b6001600160a01b031660009081526001602052604090205490565b6100c26101373660046105e7565b610267565b60005461014f906001600160a01b031681565b6040516001600160a01b0390911681526020016100a6565b61009c610175366004610600565b6001600160a01b03166000908152600160208190526040909120015490565b336000908152600160205260409020600201548181101561021b5760405162461bcd60e51b815260206004820152603660248201527f426f617264726f6f6d3a207769746864726177207265717565737420677265616044820152751d195c881d1a185b881cdd185ad95908185b5bdd5b9d60521b60648201526084015b60405180910390fd5b60045461022890836102c0565b60045561023581836102c0565b336000818152600160205260408120600201929092559054610263916001600160a01b0390911690846102d3565b5050565b600254610274908261033b565b60025533600090815260016020526040902054610291908261033b565b3360008181526001602052604081209290925590546102bd916001600160a01b03909116903084610347565b50565b60006102cc828461063f565b9392505050565b6040516001600160a01b03831660248201526044810182905261033690849063a9059cbb60e01b906064015b60408051601f198184030181529190526020810180516001600160e01b03166001600160e01b031990931692909217909152610385565b505050565b60006102cc8284610656565b6040516001600160a01b038085166024830152831660448201526064810182905261037f9085906323b872dd60e01b906084016102ff565b50505050565b60006103da826040518060400160405280602081526020017f5361666545524332303a206c6f772d6c6576656c2063616c6c206661696c6564815250856001600160a01b03166104579092919063ffffffff16565b80519091501561033657808060200190518101906103f8919061066e565b6103365760405162461bcd60e51b815260206004820152602a60248201527f5361666545524332303a204552433230206f7065726174696f6e20646964206e6044820152691bdd081cdd58d8d9595960b21b6064820152608401610212565b6060610466848460008561046e565b949350505050565b6060824710156104cf5760405162461bcd60e51b815260206004820152602660248201527f416464726573733a20696e73756666696369656e742062616c616e636520666f6044820152651c8818d85b1b60d21b6064820152608401610212565b600080866001600160a01b031685876040516104eb91906106bc565b60006040518083038185875af1925050503d8060008114610528576040519150601f19603f3d011682016040523d82523d6000602084013e61052d565b606091505b509150915061053e87838387610549565b979650505050505050565b606083156105b85782516000036105b1576001600160a01b0385163b6105b15760405162461bcd60e51b815260206004820152601d60248201527f416464726573733a2063616c6c20746f206e6f6e2d636f6e74726163740000006044820152606401610212565b5081610466565b61046683838151156105cd5781518083602001fd5b8060405162461bcd60e51b815260040161021291906106d8565b6000602082840312156105f957600080fd5b5035919050565b60006020828403121561061257600080fd5b81356001600160a01b03811681146102cc57600080fd5b634e487b7160e01b600052601160045260246000fd5b60008282101561065157610651610629565b500390565b6000821982111561066957610669610629565b500190565b60006020828403121561068057600080fd5b815180151581146102cc57600080fd5b60005b838110156106ab578181015183820152602001610693565b8381111561037f5750506000910152565b600082516106ce818460208701610690565b9190910192915050565b60208152600082518060208401526106f7816040850160208701610690565b601f01601f1916919091016040019291505056fea264697066735822122059653fa6aaefbaf504e99bf533607421c7c9b7d7093c0bc8e118c30ac7ba6d6564736f6c634300080d0033",
					"opcodes": "PUSH1 0x80 PUSH1 0x40 MSTORE CALLVALUE DUP1 ISZERO PUSH2 0x10 JUMPI PUSH1 0x0 DUP1 REVERT JUMPDEST POP PUSH2 0x741 DUP1 PUSH2 0x20 PUSH1 0x0 CODECOPY PUSH1 0x0 RETURN INVALID PUSH1 0x80 PUSH1 0x40 MSTORE CALLVALUE DUP1 ISZERO PUSH2 0x10 JUMPI PUSH1 0x0 DUP1 REVERT JUMPDEST POP PUSH1 0x4 CALLDATASIZE LT PUSH2 0x93 JUMPI PUSH1 0x0 CALLDATALOAD PUSH1 0xE0 SHR DUP1 PUSH4 0x649E4A52 GT PUSH2 0x66 JUMPI DUP1 PUSH4 0x649E4A52 EQ PUSH2 0xF8 JUMPI DUP1 PUSH4 0x93BA4F66 EQ PUSH2 0x100 JUMPI DUP1 PUSH4 0xA694FC3A EQ PUSH2 0x129 JUMPI DUP1 PUSH4 0xA8D5FD65 EQ PUSH2 0x13C JUMPI DUP1 PUSH4 0xEABBA145 EQ PUSH2 0x167 JUMPI PUSH1 0x0 DUP1 REVERT JUMPDEST DUP1 PUSH4 0x1E7E936D EQ PUSH2 0x98 JUMPI DUP1 PUSH4 0x2E1A7D4D EQ PUSH2 0xAF JUMPI DUP1 PUSH4 0x40D1FB87 EQ PUSH2 0xC4 JUMPI DUP1 PUSH4 0x62D45F8F EQ PUSH2 0xCC JUMPI JUMPDEST PUSH1 0x0 DUP1 REVERT JUMPDEST PUSH1 0x4 SLOAD JUMPDEST PUSH1 0x40 MLOAD SWAP1 DUP2 MSTORE PUSH1 0x20 ADD JUMPDEST PUSH1 0x40 MLOAD DUP1 SWAP2 SUB SWAP1 RETURN JUMPDEST PUSH2 0xC2 PUSH2 0xBD CALLDATASIZE PUSH1 0x4 PUSH2 0x5E7 JUMP JUMPDEST PUSH2 0x194 JUMP JUMPDEST STOP JUMPDEST PUSH1 0x2 SLOAD PUSH2 0x9C JUMP JUMPDEST PUSH2 0x9C PUSH2 0xDA CALLDATASIZE PUSH1 0x4 PUSH2 0x600 JUMP JUMPDEST PUSH1 0x1 PUSH1 0x1 PUSH1 0xA0 SHL SUB AND PUSH1 0x0 SWAP1 DUP2 MSTORE PUSH1 0x1 PUSH1 0x20 MSTORE PUSH1 0x40 SWAP1 KECCAK256 PUSH1 0x2 ADD SLOAD SWAP1 JUMP JUMPDEST PUSH1 0x3 SLOAD PUSH2 0x9C JUMP JUMPDEST PUSH2 0x9C PUSH2 0x10E CALLDATASIZE PUSH1 0x4 PUSH2 0x600 JUMP JUMPDEST PUSH1 0x1 PUSH1 0x1 PUSH1 0xA0 SHL SUB AND PUSH1 0x0 SWAP1 DUP2 MSTORE PUSH1 0x1 PUSH1 0x20 MSTORE PUSH1 0x40 SWAP1 KECCAK256 SLOAD SWAP1 JUMP JUMPDEST PUSH2 0xC2 PUSH2 0x137 CALLDATASIZE PUSH1 0x4 PUSH2 0x5E7 JUMP JUMPDEST PUSH2 0x267 JUMP JUMPDEST PUSH1 0x0 SLOAD PUSH2 0x14F SWAP1 PUSH1 0x1 PUSH1 0x1 PUSH1 0xA0 SHL SUB AND DUP2 JUMP JUMPDEST PUSH1 0x40 MLOAD PUSH1 0x1 PUSH1 0x1 PUSH1 0xA0 SHL SUB SWAP1 SWAP2 AND DUP2 MSTORE PUSH1 0x20 ADD PUSH2 0xA6 JUMP JUMPDEST PUSH2 0x9C PUSH2 0x175 CALLDATASIZE PUSH1 0x4 PUSH2 0x600 JUMP JUMPDEST PUSH1 0x1 PUSH1 0x1 PUSH1 0xA0 SHL SUB AND PUSH1 0x0 SWAP1 DUP2 MSTORE PUSH1 0x1 PUSH1 0x20 DUP2 SWAP1 MSTORE PUSH1 0x40 SWAP1 SWAP2 KECCAK256 ADD SLOAD SWAP1 JUMP JUMPDEST CALLER PUSH1 0x0 SWAP1 DUP2 MSTORE PUSH1 0x1 PUSH1 0x20 MSTORE PUSH1 0x40 SWAP1 KECCAK256 PUSH1 0x2 ADD SLOAD DUP2 DUP2 LT ISZERO PUSH2 0x21B JUMPI PUSH1 0x40 MLOAD PUSH3 0x461BCD PUSH1 0xE5 SHL DUP2 MSTORE PUSH1 0x20 PUSH1 0x4 DUP3 ADD MSTORE PUSH1 0x36 PUSH1 0x24 DUP3 ADD MSTORE PUSH32 0x426F617264726F6F6D3A20776974686472617720726571756573742067726561 PUSH1 0x44 DUP3 ADD MSTORE PUSH22 0x1D195C881D1A185B881CDD185AD95908185B5BDD5B9D PUSH1 0x52 SHL PUSH1 0x64 DUP3 ADD MSTORE PUSH1 0x84 ADD JUMPDEST PUSH1 0x40 MLOAD DUP1 SWAP2 SUB SWAP1 REVERT JUMPDEST PUSH1 0x4 SLOAD PUSH2 0x228 SWAP1 DUP4 PUSH2 0x2C0 JUMP JUMPDEST PUSH1 0x4 SSTORE PUSH2 0x235 DUP2 DUP4 PUSH2 0x2C0 JUMP JUMPDEST CALLER PUSH1 0x0 DUP2 DUP2 MSTORE PUSH1 0x1 PUSH1 0x20 MSTORE PUSH1 0x40 DUP2 KECCAK256 PUSH1 0x2 ADD SWAP3 SWAP1 SWAP3 SSTORE SWAP1 SLOAD PUSH2 0x263 SWAP2 PUSH1 0x1 PUSH1 0x1 PUSH1 0xA0 SHL SUB SWAP1 SWAP2 AND SWAP1 DUP5 PUSH2 0x2D3 JUMP JUMPDEST POP POP JUMP JUMPDEST PUSH1 0x2 SLOAD PUSH2 0x274 SWAP1 DUP3 PUSH2 0x33B JUMP JUMPDEST PUSH1 0x2 SSTORE CALLER PUSH1 0x0 SWAP1 DUP2 MSTORE PUSH1 0x1 PUSH1 0x20 MSTORE PUSH1 0x40 SWAP1 KECCAK256 SLOAD PUSH2 0x291 SWAP1 DUP3 PUSH2 0x33B JUMP JUMPDEST CALLER PUSH1 0x0 DUP2 DUP2 MSTORE PUSH1 0x1 PUSH1 0x20 MSTORE PUSH1 0x40 DUP2 KECCAK256 SWAP3 SWAP1 SWAP3 SSTORE SWAP1 SLOAD PUSH2 0x2BD SWAP2 PUSH1 0x1 PUSH1 0x1 PUSH1 0xA0 SHL SUB SWAP1 SWAP2 AND SWAP1 ADDRESS DUP5 PUSH2 0x347 JUMP JUMPDEST POP JUMP JUMPDEST PUSH1 0x0 PUSH2 0x2CC DUP3 DUP5 PUSH2 0x63F JUMP JUMPDEST SWAP4 SWAP3 POP POP POP JUMP JUMPDEST PUSH1 0x40 MLOAD PUSH1 0x1 PUSH1 0x1 PUSH1 0xA0 SHL SUB DUP4 AND PUSH1 0x24 DUP3 ADD MSTORE PUSH1 0x44 DUP2 ADD DUP3 SWAP1 MSTORE PUSH2 0x336 SWAP1 DUP5 SWAP1 PUSH4 0xA9059CBB PUSH1 0xE0 SHL SWAP1 PUSH1 0x64 ADD JUMPDEST PUSH1 0x40 DUP1 MLOAD PUSH1 0x1F NOT DUP2 DUP5 SUB ADD DUP2 MSTORE SWAP2 SWAP1 MSTORE PUSH1 0x20 DUP2 ADD DUP1 MLOAD PUSH1 0x1 PUSH1 0x1 PUSH1 0xE0 SHL SUB AND PUSH1 0x1 PUSH1 0x1 PUSH1 0xE0 SHL SUB NOT SWAP1 SWAP4 AND SWAP3 SWAP1 SWAP3 OR SWAP1 SWAP2 MSTORE PUSH2 0x385 JUMP JUMPDEST POP POP POP JUMP JUMPDEST PUSH1 0x0 PUSH2 0x2CC DUP3 DUP5 PUSH2 0x656 JUMP JUMPDEST PUSH1 0x40 MLOAD PUSH1 0x1 PUSH1 0x1 PUSH1 0xA0 SHL SUB DUP1 DUP6 AND PUSH1 0x24 DUP4 ADD MSTORE DUP4 AND PUSH1 0x44 DUP3 ADD MSTORE PUSH1 0x64 DUP2 ADD DUP3 SWAP1 MSTORE PUSH2 0x37F SWAP1 DUP6 SWAP1 PUSH4 0x23B872DD PUSH1 0xE0 SHL SWAP1 PUSH1 0x84 ADD PUSH2 0x2FF JUMP JUMPDEST POP POP POP POP JUMP JUMPDEST PUSH1 0x0 PUSH2 0x3DA DUP3 PUSH1 0x40 MLOAD DUP1 PUSH1 0x40 ADD PUSH1 0x40 MSTORE DUP1 PUSH1 0x20 DUP2 MSTORE PUSH1 0x20 ADD PUSH32 0x5361666545524332303A206C6F772D6C6576656C2063616C6C206661696C6564 DUP2 MSTORE POP DUP6 PUSH1 0x1 PUSH1 0x1 PUSH1 0xA0 SHL SUB AND PUSH2 0x457 SWAP1 SWAP3 SWAP2 SWAP1 PUSH4 0xFFFFFFFF AND JUMP JUMPDEST DUP1 MLOAD SWAP1 SWAP2 POP ISZERO PUSH2 0x336 JUMPI DUP1 DUP1 PUSH1 0x20 ADD SWAP1 MLOAD DUP2 ADD SWAP1 PUSH2 0x3F8 SWAP2 SWAP1 PUSH2 0x66E JUMP JUMPDEST PUSH2 0x336 JUMPI PUSH1 0x40 MLOAD PUSH3 0x461BCD PUSH1 0xE5 SHL DUP2 MSTORE PUSH1 0x20 PUSH1 0x4 DUP3 ADD MSTORE PUSH1 0x2A PUSH1 0x24 DUP3 ADD MSTORE PUSH32 0x5361666545524332303A204552433230206F7065726174696F6E20646964206E PUSH1 0x44 DUP3 ADD MSTORE PUSH10 0x1BDD081CDD58D8D95959 PUSH1 0xB2 SHL PUSH1 0x64 DUP3 ADD MSTORE PUSH1 0x84 ADD PUSH2 0x212 JUMP JUMPDEST PUSH1 0x60 PUSH2 0x466 DUP5 DUP5 PUSH1 0x0 DUP6 PUSH2 0x46E JUMP JUMPDEST SWAP5 SWAP4 POP POP POP POP JUMP JUMPDEST PUSH1 0x60 DUP3 SELFBALANCE LT ISZERO PUSH2 0x4CF JUMPI PUSH1 0x40 MLOAD PUSH3 0x461BCD PUSH1 0xE5 SHL DUP2 MSTORE PUSH1 0x20 PUSH1 0x4 DUP3 ADD MSTORE PUSH1 0x26 PUSH1 0x24 DUP3 ADD MSTORE PUSH32 0x416464726573733A20696E73756666696369656E742062616C616E636520666F PUSH1 0x44 DUP3 ADD MSTORE PUSH6 0x1C8818D85B1B PUSH1 0xD2 SHL PUSH1 0x64 DUP3 ADD MSTORE PUSH1 0x84 ADD PUSH2 0x212 JUMP JUMPDEST PUSH1 0x0 DUP1 DUP7 PUSH1 0x1 PUSH1 0x1 PUSH1 0xA0 SHL SUB AND DUP6 DUP8 PUSH1 0x40 MLOAD PUSH2 0x4EB SWAP2 SWAP1 PUSH2 0x6BC JUMP JUMPDEST PUSH1 0x0 PUSH1 0x40 MLOAD DUP1 DUP4 SUB DUP2 DUP6 DUP8 GAS CALL SWAP3 POP POP POP RETURNDATASIZE DUP1 PUSH1 0x0 DUP2 EQ PUSH2 0x528 JUMPI PUSH1 0x40 MLOAD SWAP2 POP PUSH1 0x1F NOT PUSH1 0x3F RETURNDATASIZE ADD AND DUP3 ADD PUSH1 0x40 MSTORE RETURNDATASIZE DUP3 MSTORE RETURNDATASIZE PUSH1 0x0 PUSH1 0x20 DUP5 ADD RETURNDATACOPY PUSH2 0x52D JUMP JUMPDEST PUSH1 0x60 SWAP2 POP JUMPDEST POP SWAP2 POP SWAP2 POP PUSH2 0x53E DUP8 DUP4 DUP4 DUP8 PUSH2 0x549 JUMP JUMPDEST SWAP8 SWAP7 POP POP POP POP POP POP POP JUMP JUMPDEST PUSH1 0x60 DUP4 ISZERO PUSH2 0x5B8 JUMPI DUP3 MLOAD PUSH1 0x0 SUB PUSH2 0x5B1 JUMPI PUSH1 0x1 PUSH1 0x1 PUSH1 0xA0 SHL SUB DUP6 AND EXTCODESIZE PUSH2 0x5B1 JUMPI PUSH1 0x40 MLOAD PUSH3 0x461BCD PUSH1 0xE5 SHL DUP2 MSTORE PUSH1 0x20 PUSH1 0x4 DUP3 ADD MSTORE PUSH1 0x1D PUSH1 0x24 DUP3 ADD MSTORE PUSH32 0x416464726573733A2063616C6C20746F206E6F6E2D636F6E7472616374000000 PUSH1 0x44 DUP3 ADD MSTORE PUSH1 0x64 ADD PUSH2 0x212 JUMP JUMPDEST POP DUP2 PUSH2 0x466 JUMP JUMPDEST PUSH2 0x466 DUP4 DUP4 DUP2 MLOAD ISZERO PUSH2 0x5CD JUMPI DUP2 MLOAD DUP1 DUP4 PUSH1 0x20 ADD REVERT JUMPDEST DUP1 PUSH1 0x40 MLOAD PUSH3 0x461BCD PUSH1 0xE5 SHL DUP2 MSTORE PUSH1 0x4 ADD PUSH2 0x212 SWAP2 SWAP1 PUSH2 0x6D8 JUMP JUMPDEST PUSH1 0x0 PUSH1 0x20 DUP3 DUP5 SUB SLT ISZERO PUSH2 0x5F9 JUMPI PUSH1 0x0 DUP1 REVERT JUMPDEST POP CALLDATALOAD SWAP2 SWAP1 POP JUMP JUMPDEST PUSH1 0x0 PUSH1 0x20 DUP3 DUP5 SUB SLT ISZERO PUSH2 0x612 JUMPI PUSH1 0x0 DUP1 REVERT JUMPDEST DUP2 CALLDATALOAD PUSH1 0x1 PUSH1 0x1 PUSH1 0xA0 SHL SUB DUP2 AND DUP2 EQ PUSH2 0x2CC JUMPI PUSH1 0x0 DUP1 REVERT JUMPDEST PUSH4 0x4E487B71 PUSH1 0xE0 SHL PUSH1 0x0 MSTORE PUSH1 0x11 PUSH1 0x4 MSTORE PUSH1 0x24 PUSH1 0x0 REVERT JUMPDEST PUSH1 0x0 DUP3 DUP3 LT ISZERO PUSH2 0x651 JUMPI PUSH2 0x651 PUSH2 0x629 JUMP JUMPDEST POP SUB SWAP1 JUMP JUMPDEST PUSH1 0x0 DUP3 NOT DUP3 GT ISZERO PUSH2 0x669 JUMPI PUSH2 0x669 PUSH2 0x629 JUMP JUMPDEST POP ADD SWAP1 JUMP JUMPDEST PUSH1 0x0 PUSH1 0x20 DUP3 DUP5 SUB SLT ISZERO PUSH2 0x680 JUMPI PUSH1 0x0 DUP1 REVERT JUMPDEST DUP2 MLOAD DUP1 ISZERO ISZERO DUP2 EQ PUSH2 0x2CC JUMPI PUSH1 0x0 DUP1 REVERT JUMPDEST PUSH1 0x0 JUMPDEST DUP4 DUP2 LT ISZERO PUSH2 0x6AB JUMPI DUP2 DUP2 ADD MLOAD DUP4 DUP3 ADD MSTORE PUSH1 0x20 ADD PUSH2 0x693 JUMP JUMPDEST DUP4 DUP2 GT ISZERO PUSH2 0x37F JUMPI POP POP PUSH1 0x0 SWAP2 ADD MSTORE JUMP JUMPDEST PUSH1 0x0 DUP3 MLOAD PUSH2 0x6CE DUP2 DUP5 PUSH1 0x20 DUP8 ADD PUSH2 0x690 JUMP JUMPDEST SWAP2 SWAP1 SWAP2 ADD SWAP3 SWAP2 POP POP JUMP JUMPDEST PUSH1 0x20 DUP2 MSTORE PUSH1 0x0 DUP3 MLOAD DUP1 PUSH1 0x20 DUP5 ADD MSTORE PUSH2 0x6F7 DUP2 PUSH1 0x40 DUP6 ADD PUSH1 0x20 DUP8 ADD PUSH2 0x690 JUMP JUMPDEST PUSH1 0x1F ADD PUSH1 0x1F NOT AND SWAP2 SWAP1 SWAP2 ADD PUSH1 0x40 ADD SWAP3 SWAP2 POP POP JUMP INVALID LOG2 PUSH5 0x6970667358 0x22 SLT KECCAK256 MSIZE PUSH6 0x3FA6AAEFBAF5 DIV 0xE9 SWAP12 CREATE2 CALLER PUSH1 0x74 0x21 0xC7 0xC9 0xB7 0xD7 MULMOD EXTCODECOPY SIGNEXTEND 0xC8 0xE1 XOR 0xC3 EXP 0xC7 0xBA PUSH14 0x6564736F6C634300080D00330000 "
				},
				"gasEstimates": {
					"creation": {
						"codeDepositCost": "371400",
						"executionCost": "411",
						"totalCost": "371811"
					},
					"external": {
						"balance_Wait(address)": "2513",
						"balance_staked(address)": "2591",
						"balance_withdraw(address)": "2564",
						"share()": "2403",
						"stake(uint256)": "infinite",
						"totalSupply_staked()": "2281",
						"totalSupply_wait()": "2326",
						"totalSupply_withdraw()": "2271",
						"withdraw(uint256)": "infinite"
					}
				},
				"methodIdentifiers": {
					"balance_Wait(address)": "93ba4f66",
					"balance_staked(address)": "eabba145",
					"balance_withdraw(address)": "62d45f8f",
					"share()": "a8d5fd65",
					"stake(uint256)": "a694fc3a",
					"totalSupply_staked()": "649e4a52",
					"totalSupply_wait()": "40d1fb87",
					"totalSupply_withdraw()": "1e7e936d",
					"withdraw(uint256)": "2e1a7d4d"
				}
			},
			"storageLayout": {
				"storage": [
					{
						"astId": 13,
						"contract": "brownie_projects/sharplabs/contracts/core/ShareWrapper.sol:ShareWrapper",
						"label": "share",
						"offset": 0,
						"slot": "0",
						"type": "t_contract(IERC20)915"
					},
					{
						"astId": 32,
						"contract": "brownie_projects/sharplabs/contracts/core/ShareWrapper.sol:ShareWrapper",
						"label": "_balances",
						"offset": 0,
						"slot": "1",
						"type": "t_mapping(t_address,t_struct(Balances)27_storage)"
					},
					{
						"astId": 35,
						"contract": "brownie_projects/sharplabs/contracts/core/ShareWrapper.sol:ShareWrapper",
						"label": "_totalSupply",
						"offset": 0,
						"slot": "2",
						"type": "t_struct(TotalSupply)20_storage"
					}
				],
				"types": {
					"t_address": {
						"encoding": "inplace",
						"label": "address",
						"numberOfBytes": "20"
					},
					"t_contract(IERC20)915": {
						"encoding": "inplace",
						"label": "contract IERC20",
						"numberOfBytes": "20"
					},
					"t_mapping(t_address,t_struct(Balances)27_storage)": {
						"encoding": "mapping",
						"key": "t_address",
						"label": "mapping(address => struct ShareWrapper.Balances)",
						"numberOfBytes": "32",
						"value": "t_struct(Balances)27_storage"
					},
					"t_struct(Balances)27_storage": {
						"encoding": "inplace",
						"label": "struct ShareWrapper.Balances",
						"members": [
							{
								"astId": 22,
								"contract": "brownie_projects/sharplabs/contracts/core/ShareWrapper.sol:ShareWrapper",
								"label": "wait",
								"offset": 0,
								"slot": "0",
								"type": "t_uint256"
							},
							{
								"astId": 24,
								"contract": "brownie_projects/sharplabs/contracts/core/ShareWrapper.sol:ShareWrapper",
								"label": "staked",
								"offset": 0,
								"slot": "1",
								"type": "t_uint256"
							},
							{
								"astId": 26,
								"contract": "brownie_projects/sharplabs/contracts/core/ShareWrapper.sol:ShareWrapper",
								"label": "withdraw",
								"offset": 0,
								"slot": "2",
								"type": "t_uint256"
							}
						],
						"numberOfBytes": "96"
					},
					"t_struct(TotalSupply)20_storage": {
						"encoding": "inplace",
						"label": "struct ShareWrapper.TotalSupply",
						"members": [
							{
								"astId": 15,
								"contract": "brownie_projects/sharplabs/contracts/core/ShareWrapper.sol:ShareWrapper",
								"label": "wait",
								"offset": 0,
								"slot": "0",
								"type": "t_uint256"
							},
							{
								"astId": 17,
								"contract": "brownie_projects/sharplabs/contracts/core/ShareWrapper.sol:ShareWrapper",
								"label": "staked",
								"offset": 0,
								"slot": "1",
								"type": "t_uint256"
							},
							{
								"astId": 19,
								"contract": "brownie_projects/sharplabs/contracts/core/ShareWrapper.sol:ShareWrapper",
								"label": "withdraw",
								"offset": 0,
								"slot": "2",
								"type": "t_uint256"
							}
						],
						"numberOfBytes": "96"
					},
					"t_uint256": {
						"encoding": "inplace",
						"label": "uint256",
						"numberOfBytes": "32"
					}
				}
			},
			"userdoc": {
				"kind": "user",
				"methods": {},
				"version": 1
			}
		}
	}
}