{
	"data": {
		"bytecode": {
			"linkReferences": {},
			"object": "60806040526004805460ff60a01b1916905534801561001d57600080fd5b506125178061002d6000396000f3fe608060405234801561001057600080fd5b50600436106102315760003560e01c806361d027b311610130578063b3ab15fb116100b8578063ddca3f431161007c578063ddca3f43146104e9578063e9fad8ee146104f2578063f46901ed146104fa578063f9f92be41461050d578063fc0c546a1461053057600080fd5b8063b3ab15fb146104a0578063b88a802f146104b3578063c58e3843146104bb578063c5967c26146104ce578063d256d48a146104d657600080fd5b8063714b4658116100ff578063714b465814610436578063900cf0cf1461045f57806397ffe1d714610467578063a694fc3a1461047a578063a8d5fd651461048d57600080fd5b806361d027b3146103d457806369fe0e2d146103e75780636cee85c2146103fa57806370a082311461040d57600080fd5b80632e1a7d4d116101be578063530b97a411610182578063530b97a41461037557806353c038291461038857806354575af41461039b578063570ca735146103ae5780635db76731146103c157600080fd5b80632e1a7d4d146103355780632ffaaa091461034a5780633f9e3f041461035d578063446a2ec8146103655780634b94f50e1461036d57600080fd5b806308ae4b0c1161020557806308ae4b0c146102b3578063158ef93e146102fd57806318160ddd1461031157806319262d30146103195780631e85cd651461032c57600080fd5b80628cc26214610236578063017e7e581461025c578063022ba18d14610287578063046335d014610290575b600080fd5b6102496102443660046121a6565b610543565b6040519081526020015b60405180910390f35b600d5461026f906001600160a01b031681565b6040516001600160a01b039091168152602001610253565b610249600b5481565b6102a361029e3660046121a6565b6105d4565b6040519015158152602001610253565b6102e26102c13660046121a6565b60086020526000908152604090208054600182015460029092015490919083565b60408051938452602084019290925290820152606001610253565b6004546102a390600160a01b900460ff1681565b600154610249565b6102a36103273660046121a6565b610672565b610249600a5481565b6103486103433660046121c3565b610708565b005b6103486103583660046121dc565b610a63565b610249610b01565b610249610b17565b610249610b2a565b6103486103833660046121fe565b610b98565b610348610396366004612266565b610d46565b6103486103a936600461229f565b610fd7565b60045461026f906001600160a01b031681565b6102a36103cf3660046121a6565b6110e5565b60065461026f906001600160a01b031681565b6103486103f53660046121c3565b61119c565b6102a36104083660046121a6565b61120c565b61024961041b3660046121a6565b6001600160a01b031660009081526002602052604090205490565b6102496104443660046121a6565b6001600160a01b031660009081526008602052604090205490565b6102496112bc565b6103486104753660046121c3565b611306565b6103486104883660046121c3565b6115d7565b60005461026f906001600160a01b031681565b6103486104ae3660046121a6565b6118ac565b6103486118f8565b6102e26104c93660046121c3565b611b9c565b610249611bcf565b6102a36104e43660046121a6565b611c19565b610249600c5481565b610348611c37565b6103486105083660046121a6565b611c52565b6102a361051b3660046121a6565b60076020526000908152604090205460ff1681565b60055461026f906001600160a01b031681565b60008061054e611c9e565b604001519050600061055f84611d18565b6040908101516001600160a01b0386166000908152600860205291909120600101549091506105cc906105c6670de0b6b3a76400006105c06105a18787611dab565b6001600160a01b038a1660009081526002602052604090205490611dbe565b90611dca565b90611dd6565b949350505050565b6006546040805163900cf0cf60e01b815290516000926001600160a01b03169163900cf0cf9160048083019260209291908290030181865afa15801561061e573d6000803e3d6000fd5b505050506040513d601f19601f8201168201806040525081019061064291906122e1565b600b546001600160a01b03841660009081526008602052604090206002015461066a91611dd6565b111592915050565b6006546040805163900cf0cf60e01b815290516000926001600160a01b03169163900cf0cf9160048083019260209291908290030181865afa1580156106bc573d6000803e3d6000fd5b505050506040513d601f19601f820116820180604052508101906106e091906122e1565b600a546001600160a01b03841660009081526008602052604090206002015461066a91611dd6565b43600090815260036020908152604080832032845290915290205460ff161561074c5760405162461bcd60e51b8152600401610743906122fa565b60405180910390fd5b43600090815260036020908152604080832033845290915290205460ff16156107875760405162461bcd60e51b8152600401610743906122fa565b43600090815260036020908152604080832032845282528083208054600160ff199182168117909255338552828520805490911690911790556002909152812054116108215760405162461bcd60e51b8152602060048201526024808201527f426f617264726f6f6d3a20546865206d656d62657220646f6573206e6f7420656044820152631e1a5cdd60e21b6064820152608401610743565b3380156108b2576001600160a01b038116600090815260086020908152604091829020825160608101845281548152600182015492810192909252600201549181019190915261087082610543565b602082015261087d610b01565b81526001600160a01b038216600090815260086020908152604091829020835181559083015160018201559101516002909101555b6108bb33611c19565b156108d85760405162461bcd60e51b815260040161074390612340565b600082116109285760405162461bcd60e51b815260206004820152601c60248201527f426f617264726f6f6d3a2043616e6e6f742077697468647261772030000000006044820152606401610743565b600660009054906101000a90046001600160a01b03166001600160a01b031663900cf0cf6040518163ffffffff1660e01b8152600401602060405180830381865afa15801561097b573d6000803e3d6000fd5b505050506040513d601f19601f8201168201806040525081019061099f91906122e1565b600a54336000908152600860205260409020600201546109be91611dd6565b1115610a185760405162461bcd60e51b815260206004820152602360248201527f426f617264726f6f6d3a207374696c6c20696e207769746864726177206c6f6360448201526206b75760ec1b6064820152608401610743565b610a206118f8565b610a2982611de2565b60405182815233907f7084f5476618d8e60b11ef0d7d3f06914655adb8793e28ff7f018d4c76d505d5906020015b60405180910390a25050565b6004546001600160a01b03163314610a8d5760405162461bcd60e51b815260040161074390612363565b808210158015610a9e575060388211155b610af65760405162461bcd60e51b815260206004820152602360248201527f5f77697468647261774c6f636b757045706f6368733a206f7574206f662072616044820152626e676560e81b6064820152608401610743565b600a91909155600b55565b600954600090610b12906001611dab565b905090565b6000610b21611c9e565b60400151905090565b600654604080516325ca7a8760e11b815290516000926001600160a01b031691634b94f50e9160048083019260209291908290030181865afa158015610b74573d6000803e3d6000fd5b505050506040513d601f19601f82011682018060405250810190610b1291906122e1565b600454600160a01b900460ff1615610bf25760405162461bcd60e51b815260206004820152601e60248201527f426f617264726f6f6d3a20616c726561647920696e697469616c697a656400006044820152606401610743565b600580546001600160a01b038781166001600160a01b0319928316179092556000805487841690831617815560068054878516908416178155600c869055600d8054948616949093169390931790915560408051606081018252438082526020808301858152838501868152600980546001810182559752845160039788027f6e1540171b6c0c960b71a7020d9f60077f6af931a8bbf590da0223dacf75c7af81019190915591517f6e1540171b6c0c960b71a7020d9f60077f6af931a8bbf590da0223dacf75c7b0830155517f6e1540171b6c0c960b71a7020d9f60077f6af931a8bbf590da0223dacf75c7b190910155600a95909555600b93909355600480546001600160a81b03191633908117600160a01b1790915591519283529290917f25ff68dd81b34665b5ba7e553ee5511bf6812e12adb4a7e2c0d9e26b3099ce79910160405180910390a2505050505050565b6004546001600160a01b03163314610d705760405162461bcd60e51b815260040161074390612363565b610d7982611c19565b610dc55760405162461bcd60e51b815260206004820152601c60248201527f61646472657373206e6f7420696e2074686520626c61636b6c697374000000006044820152606401610743565b6001600160a01b03821660009081526002602052604090205480610e2b5760405162461bcd60e51b815260206004820152601c60248201527f426f617264726f6f6d3a2043616e6e6f742077697468647261772030000000006044820152606401610743565b6001600160a01b0383166000908152600860205260409020600101548015610f4b57600660009054906101000a90046001600160a01b03166001600160a01b031663900cf0cf6040518163ffffffff1660e01b8152600401602060405180830381865afa158015610ea0573d6000803e3d6000fd5b505050506040513d601f19601f82011682018060405250810190610ec491906122e1565b6001600160a01b0380861660009081526008602052604081206002810193909355600190920191909155600554610efd91168483611ea2565b826001600160a01b0316846001600160a01b03167f715576a45bd0ea6ca90a2f53c258fe52bdd30e6061046ce86ca3fa7e9f5a91be83604051610f4291815260200190565b60405180910390a35b600154610f589083611dab565b6001556001600160a01b03808516600090815260026020526040812081905554610f8491168484611ea2565b826001600160a01b0316846001600160a01b03167f345a298b5b7318863d2a616f67ae5329deb5255f9f90b5ebc73ee5ddcd81b18084604051610fc991815260200190565b60405180910390a350505050565b6004546001600160a01b031633146110015760405162461bcd60e51b815260040161074390612363565b6001600160a01b0381166110405760405162461bcd60e51b8152600401610743906020808252600490820152637a65726f60e01b604082015260600190565b6005546001600160a01b03908116908416036110865760405162461bcd60e51b81526020600482015260056024820152643a37b5b2b760d91b6044820152606401610743565b6000546001600160a01b03908116908416036110cc5760405162461bcd60e51b8152602060048201526005602482015264736861726560d81b6044820152606401610743565b6110e06001600160a01b0384168284611ea2565b505050565b6004546000906001600160a01b031633146111125760405162461bcd60e51b815260040161074390612363565b6001600160a01b03821660009081526007602052604090205460ff16156111735760405162461bcd60e51b81526020600482015260156024820152741859191c995cdcc8185b1c9958591e481859191959605a1b6044820152606401610743565b506001600160a01b03166000908152600760205260409020805460ff1916600190811790915590565b6004546001600160a01b031633146111c65760405162461bcd60e51b815260040161074390612363565b6127108111156112075760405162461bcd60e51b815260206004820152600c60248201526b6f7574206f662072616e676560a01b6044820152606401610743565b600c55565b6004546000906001600160a01b031633146112395760405162461bcd60e51b815260040161074390612363565b6001600160a01b03821660009081526007602052604090205460ff166112975760405162461bcd60e51b81526020600482015260136024820152721859191c995cdcc81b9bdd08195e1a5cdd1959606a1b6044820152606401610743565b506001600160a01b03166000908152600760205260409020805460ff19169055600190565b6006546040805163900cf0cf60e01b815290516000926001600160a01b03169163900cf0cf9160048083019260209291908290030181865afa158015610b74573d6000803e3d6000fd5b43600090815260036020908152604080832032845290915290205460ff16156113415760405162461bcd60e51b8152600401610743906122fa565b43600090815260036020908152604080832033845290915290205460ff161561137c5760405162461bcd60e51b8152600401610743906122fa565b4360009081526003602090815260408083203284529091528082208054600160ff19918216811790925533808552929093208054909316179091556004546001600160a01b0316146113e05760405162461bcd60e51b815260040161074390612363565b600081116114305760405162461bcd60e51b815260206004820152601c60248201527f426f617264726f6f6d3a2043616e6e6f7420616c6c6f636174652030000000006044820152606401610743565b600061143b60015490565b116114a15760405162461bcd60e51b815260206004820152603060248201527f426f617264726f6f6d3a2043616e6e6f7420616c6c6f63617465207768656e2060448201526f0746f74616c537570706c7920697320360841b6064820152608401610743565b60006114ab611c9e565b60400151905060006114db6114d46114c260015490565b6105c086670de0b6b3a7640000611dbe565b8390611dd6565b60408051606081018252438152602081018681529181018381526009805460018101825560009190915282517f6e1540171b6c0c960b71a7020d9f60077f6af931a8bbf590da0223dacf75c7af60039092029182015592517f6e1540171b6c0c960b71a7020d9f60077f6af931a8bbf590da0223dacf75c7b0840155517f6e1540171b6c0c960b71a7020d9f60077f6af931a8bbf590da0223dacf75c7b1909201919091556005549192509061159c906001600160a01b0316333087611f05565b60405184815233907fac24935fd910bc682b5ccb1a07b718cadf8cf2f6d1404c4f3ddc3662dae40e299060200160405180910390a250505050565b43600090815260036020908152604080832032845290915290205460ff16156116125760405162461bcd60e51b8152600401610743906122fa565b43600090815260036020908152604080832033845290915290205460ff161561164d5760405162461bcd60e51b8152600401610743906122fa565b4360009081526003602090815260408083203284529091528082208054600160ff19918216811790925533808552929093208054909316179091558015611718576001600160a01b03811660009081526008602090815260409182902082516060810184528154815260018201549281019290925260020154918101919091526116d682610543565b60208201526116e3610b01565b81526001600160a01b038216600090815260086020908152604091829020835181559083015160018201559101516002909101555b61172133611c19565b1561173e5760405162461bcd60e51b815260040161074390612340565b6000821161178e5760405162461bcd60e51b815260206004820152601960248201527f426f617264726f6f6d3a2043616e6e6f74207374616b652030000000000000006044820152606401610743565b600c54156117e35760006117b36127106105c0600c5486611dbe90919063ffffffff16565b90506117bf8382611dab565b600d546000549194506117e1916001600160a01b039081169133911684611f05565b505b6117ec82611f43565b600660009054906101000a90046001600160a01b03166001600160a01b031663900cf0cf6040518163ffffffff1660e01b8152600401602060405180830381865afa15801561183f573d6000803e3d6000fd5b505050506040513d601f19601f8201168201806040525081019061186391906122e1565b33600081815260086020526040908190206002019290925590517f9e71bc8eea02a63969f509818f2dafb9254532904319f9dbda79b67bd34a5f3d90610a579085815260200190565b6004546001600160a01b031633146118d65760405162461bcd60e51b815260040161074390612363565b600480546001600160a01b0319166001600160a01b0392909216919091179055565b338015611989576001600160a01b038116600090815260086020908152604091829020825160608101845281548152600182015492810192909252600201549181019190915261194782610543565b6020820152611954610b01565b81526001600160a01b038216600090815260086020908152604091829020835181559083015160018201559101516002909101555b61199233611c19565b156119af5760405162461bcd60e51b815260040161074390612340565b336000908152600860205260409020600101548015611b9857600660009054906101000a90046001600160a01b03166001600160a01b031663900cf0cf6040518163ffffffff1660e01b8152600401602060405180830381865afa158015611a1b573d6000803e3d6000fd5b505050506040513d601f19601f82011682018060405250810190611a3f91906122e1565b600b5433600090815260086020526040902060020154611a5e91611dd6565b1115611ab65760405162461bcd60e51b815260206004820152602160248201527f426f617264726f6f6d3a207374696c6c20696e20726577617264206c6f636b756044820152600760fc1b6064820152608401610743565b600660009054906101000a90046001600160a01b03166001600160a01b031663900cf0cf6040518163ffffffff1660e01b8152600401602060405180830381865afa158015611b09573d6000803e3d6000fd5b505050506040513d601f19601f82011682018060405250810190611b2d91906122e1565b3360008181526008602052604081206002810193909355600190920191909155600554611b66916001600160a01b039091169083611ea2565b60405181815233907fe2403640ba68fed3a2f88b7557551d1993f84b99bb10ff833f0cf8db0c5e048690602001610a57565b5050565b60098181548110611bac57600080fd5b600091825260209091206003909102018054600182015460029092015490925083565b600654604080516362cb3e1360e11b815290516000926001600160a01b03169163c5967c269160048083019260209291908290030181865afa158015610b74573d6000803e3d6000fd5b6001600160a01b031660009081526007602052604090205460ff1690565b33600090815260026020526040902054611c5090610708565b565b6004546001600160a01b03163314611c7c5760405162461bcd60e51b815260040161074390612363565b600d80546001600160a01b0319166001600160a01b0392909216919091179055565b611cc260405180606001604052806000815260200160008152602001600081525090565b6009611ccc610b01565b81548110611cdc57611cdc6123a8565b90600052602060002090600302016040518060600160405290816000820154815260200160018201548152602001600282015481525050905090565b611d3c60405180606001604052806000815260200160008152602001600081525090565b6009611d5d836001600160a01b031660009081526008602052604090205490565b81548110611d6d57611d6d6123a8565b906000526020600020906003020160405180606001604052908160008201548152602001600182015481526020016002820154815250509050919050565b6000611db782846123d4565b9392505050565b6000611db782846123eb565b6000611db7828461240a565b6000611db7828461242c565b3360009081526002602052604090205481811015611e615760405162461bcd60e51b815260206004820152603660248201527f426f617264726f6f6d3a207769746864726177207265717565737420677265616044820152751d195c881d1a185b881cdd185ad95908185b5bdd5b9d60521b6064820152608401610743565b600154611e6e9083611dab565b600155611e7b8183611dab565b336000818152600260205260408120929092559054611b98916001600160a01b0390911690845b6040516001600160a01b0383166024820152604481018290526110e090849063a9059cbb60e01b906064015b60408051601f198184030181529190526020810180516001600160e01b03166001600160e01b031990931692909217909152611f9c565b6040516001600160a01b0380851660248301528316604482015260648101829052611f3d9085906323b872dd60e01b90608401611ece565b50505050565b600154611f509082611dd6565b60015533600090815260026020526040902054611f6d9082611dd6565b336000818152600260205260408120929092559054611f99916001600160a01b03909116903084611f05565b50565b6000611ff1826040518060400160405280602081526020017f5361666545524332303a206c6f772d6c6576656c2063616c6c206661696c6564815250856001600160a01b031661206e9092919063ffffffff16565b8051909150156110e0578080602001905181019061200f9190612444565b6110e05760405162461bcd60e51b815260206004820152602a60248201527f5361666545524332303a204552433230206f7065726174696f6e20646964206e6044820152691bdd081cdd58d8d9595960b21b6064820152608401610743565b60606105cc848460008585600080866001600160a01b031685876040516120959190612492565b60006040518083038185875af1925050503d80600081146120d2576040519150601f19603f3d011682016040523d82523d6000602084013e6120d7565b606091505b50915091506120e8878383876120f3565b979650505050505050565b6060831561216257825160000361215b576001600160a01b0385163b61215b5760405162461bcd60e51b815260206004820152601d60248201527f416464726573733a2063616c6c20746f206e6f6e2d636f6e74726163740000006044820152606401610743565b50816105cc565b6105cc83838151156121775781518083602001fd5b8060405162461bcd60e51b815260040161074391906124ae565b6001600160a01b0381168114611f9957600080fd5b6000602082840312156121b857600080fd5b8135611db781612191565b6000602082840312156121d557600080fd5b5035919050565b600080604083850312156121ef57600080fd5b50508035926020909101359150565b600080600080600060a0868803121561221657600080fd5b853561222181612191565b9450602086013561223181612191565b9350604086013561224181612191565b925060608601359150608086013561225881612191565b809150509295509295909350565b6000806040838503121561227957600080fd5b823561228481612191565b9150602083013561229481612191565b809150509250929050565b6000806000606084860312156122b457600080fd5b83356122bf81612191565b92506020840135915060408401356122d681612191565b809150509250925092565b6000602082840312156122f357600080fd5b5051919050565b60208082526026908201527f436f6e747261637447756172643a206f6e6520626c6f636b2c206f6e652066756040820152653731ba34b7b760d11b606082015260800190565b602080825260099082015268189b1858dadb1a5cdd60ba1b604082015260600190565b60208082526025908201527f426f617264726f6f6d3a2063616c6c6572206973206e6f7420746865206f70656040820152643930ba37b960d91b606082015260800190565b634e487b7160e01b600052603260045260246000fd5b634e487b7160e01b600052601160045260246000fd5b6000828210156123e6576123e66123be565b500390565b6000816000190483118215151615612405576124056123be565b500290565b60008261242757634e487b7160e01b600052601260045260246000fd5b500490565b6000821982111561243f5761243f6123be565b500190565b60006020828403121561245657600080fd5b81518015158114611db757600080fd5b60005b83811015612481578181015183820152602001612469565b83811115611f3d5750506000910152565b600082516124a4818460208701612466565b9190910192915050565b60208152600082518060208401526124cd816040850160208701612466565b601f01601f1916919091016040019291505056fea264697066735822122052d107ab2a7f8c608b5b3692e0d3c6f4c1eb5913601d280c03f54e70774a6bb364736f6c634300080d0033",
			"opcodes": "PUSH1 0x80 PUSH1 0x40 MSTORE PUSH1 0x4 DUP1 SLOAD PUSH1 0xFF PUSH1 0xA0 SHL NOT AND SWAP1 SSTORE CALLVALUE DUP1 ISZERO PUSH2 0x1D JUMPI PUSH1 0x0 DUP1 REVERT JUMPDEST POP PUSH2 0x2517 DUP1 PUSH2 0x2D PUSH1 0x0 CODECOPY PUSH1 0x0 RETURN INVALID PUSH1 0x80 PUSH1 0x40 MSTORE CALLVALUE DUP1 ISZERO PUSH2 0x10 JUMPI PUSH1 0x0 DUP1 REVERT JUMPDEST POP PUSH1 0x4 CALLDATASIZE LT PUSH2 0x231 JUMPI PUSH1 0x0 CALLDATALOAD PUSH1 0xE0 SHR DUP1 PUSH4 0x61D027B3 GT PUSH2 0x130 JUMPI DUP1 PUSH4 0xB3AB15FB GT PUSH2 0xB8 JUMPI DUP1 PUSH4 0xDDCA3F43 GT PUSH2 0x7C JUMPI DUP1 PUSH4 0xDDCA3F43 EQ PUSH2 0x4E9 JUMPI DUP1 PUSH4 0xE9FAD8EE EQ PUSH2 0x4F2 JUMPI DUP1 PUSH4 0xF46901ED EQ PUSH2 0x4FA JUMPI DUP1 PUSH4 0xF9F92BE4 EQ PUSH2 0x50D JUMPI DUP1 PUSH4 0xFC0C546A EQ PUSH2 0x530 JUMPI PUSH1 0x0 DUP1 REVERT JUMPDEST DUP1 PUSH4 0xB3AB15FB EQ PUSH2 0x4A0 JUMPI DUP1 PUSH4 0xB88A802F EQ PUSH2 0x4B3 JUMPI DUP1 PUSH4 0xC58E3843 EQ PUSH2 0x4BB JUMPI DUP1 PUSH4 0xC5967C26 EQ PUSH2 0x4CE JUMPI DUP1 PUSH4 0xD256D48A EQ PUSH2 0x4D6 JUMPI PUSH1 0x0 DUP1 REVERT JUMPDEST DUP1 PUSH4 0x714B4658 GT PUSH2 0xFF JUMPI DUP1 PUSH4 0x714B4658 EQ PUSH2 0x436 JUMPI DUP1 PUSH4 0x900CF0CF EQ PUSH2 0x45F JUMPI DUP1 PUSH4 0x97FFE1D7 EQ PUSH2 0x467 JUMPI DUP1 PUSH4 0xA694FC3A EQ PUSH2 0x47A JUMPI DUP1 PUSH4 0xA8D5FD65 EQ PUSH2 0x48D JUMPI PUSH1 0x0 DUP1 REVERT JUMPDEST DUP1 PUSH4 0x61D027B3 EQ PUSH2 0x3D4 JUMPI DUP1 PUSH4 0x69FE0E2D EQ PUSH2 0x3E7 JUMPI DUP1 PUSH4 0x6CEE85C2 EQ PUSH2 0x3FA JUMPI DUP1 PUSH4 0x70A08231 EQ PUSH2 0x40D JUMPI PUSH1 0x0 DUP1 REVERT JUMPDEST DUP1 PUSH4 0x2E1A7D4D GT PUSH2 0x1BE JUMPI DUP1 PUSH4 0x530B97A4 GT PUSH2 0x182 JUMPI DUP1 PUSH4 0x530B97A4 EQ PUSH2 0x375 JUMPI DUP1 PUSH4 0x53C03829 EQ PUSH2 0x388 JUMPI DUP1 PUSH4 0x54575AF4 EQ PUSH2 0x39B JUMPI DUP1 PUSH4 0x570CA735 EQ PUSH2 0x3AE JUMPI DUP1 PUSH4 0x5DB76731 EQ PUSH2 0x3C1 JUMPI PUSH1 0x0 DUP1 REVERT JUMPDEST DUP1 PUSH4 0x2E1A7D4D EQ PUSH2 0x335 JUMPI DUP1 PUSH4 0x2FFAAA09 EQ PUSH2 0x34A JUMPI DUP1 PUSH4 0x3F9E3F04 EQ PUSH2 0x35D JUMPI DUP1 PUSH4 0x446A2EC8 EQ PUSH2 0x365 JUMPI DUP1 PUSH4 0x4B94F50E EQ PUSH2 0x36D JUMPI PUSH1 0x0 DUP1 REVERT JUMPDEST DUP1 PUSH4 0x8AE4B0C GT PUSH2 0x205 JUMPI DUP1 PUSH4 0x8AE4B0C EQ PUSH2 0x2B3 JUMPI DUP1 PUSH4 0x158EF93E EQ PUSH2 0x2FD JUMPI DUP1 PUSH4 0x18160DDD EQ PUSH2 0x311 JUMPI DUP1 PUSH4 0x19262D30 EQ PUSH2 0x319 JUMPI DUP1 PUSH4 0x1E85CD65 EQ PUSH2 0x32C JUMPI PUSH1 0x0 DUP1 REVERT JUMPDEST DUP1 PUSH3 0x8CC262 EQ PUSH2 0x236 JUMPI DUP1 PUSH4 0x17E7E58 EQ PUSH2 0x25C JUMPI DUP1 PUSH4 0x22BA18D EQ PUSH2 0x287 JUMPI DUP1 PUSH4 0x46335D0 EQ PUSH2 0x290 JUMPI JUMPDEST PUSH1 0x0 DUP1 REVERT JUMPDEST PUSH2 0x249 PUSH2 0x244 CALLDATASIZE PUSH1 0x4 PUSH2 0x21A6 JUMP JUMPDEST PUSH2 0x543 JUMP JUMPDEST PUSH1 0x40 MLOAD SWAP1 DUP2 MSTORE PUSH1 0x20 ADD JUMPDEST PUSH1 0x40 MLOAD DUP1 SWAP2 SUB SWAP1 RETURN JUMPDEST PUSH1 0xD SLOAD PUSH2 0x26F SWAP1 PUSH1 0x1 PUSH1 0x1 PUSH1 0xA0 SHL SUB AND DUP2 JUMP JUMPDEST PUSH1 0x40 MLOAD PUSH1 0x1 PUSH1 0x1 PUSH1 0xA0 SHL SUB SWAP1 SWAP2 AND DUP2 MSTORE PUSH1 0x20 ADD PUSH2 0x253 JUMP JUMPDEST PUSH2 0x249 PUSH1 0xB SLOAD DUP2 JUMP JUMPDEST PUSH2 0x2A3 PUSH2 0x29E CALLDATASIZE PUSH1 0x4 PUSH2 0x21A6 JUMP JUMPDEST PUSH2 0x5D4 JUMP JUMPDEST PUSH1 0x40 MLOAD SWAP1 ISZERO ISZERO DUP2 MSTORE PUSH1 0x20 ADD PUSH2 0x253 JUMP JUMPDEST PUSH2 0x2E2 PUSH2 0x2C1 CALLDATASIZE PUSH1 0x4 PUSH2 0x21A6 JUMP JUMPDEST PUSH1 0x8 PUSH1 0x20 MSTORE PUSH1 0x0 SWAP1 DUP2 MSTORE PUSH1 0x40 SWAP1 KECCAK256 DUP1 SLOAD PUSH1 0x1 DUP3 ADD SLOAD PUSH1 0x2 SWAP1 SWAP3 ADD SLOAD SWAP1 SWAP2 SWAP1 DUP4 JUMP JUMPDEST PUSH1 0x40 DUP1 MLOAD SWAP4 DUP5 MSTORE PUSH1 0x20 DUP5 ADD SWAP3 SWAP1 SWAP3 MSTORE SWAP1 DUP3 ADD MSTORE PUSH1 0x60 ADD PUSH2 0x253 JUMP JUMPDEST PUSH1 0x4 SLOAD PUSH2 0x2A3 SWAP1 PUSH1 0x1 PUSH1 0xA0 SHL SWAP1 DIV PUSH1 0xFF AND DUP2 JUMP JUMPDEST PUSH1 0x1 SLOAD PUSH2 0x249 JUMP JUMPDEST PUSH2 0x2A3 PUSH2 0x327 CALLDATASIZE PUSH1 0x4 PUSH2 0x21A6 JUMP JUMPDEST PUSH2 0x672 JUMP JUMPDEST PUSH2 0x249 PUSH1 0xA SLOAD DUP2 JUMP JUMPDEST PUSH2 0x348 PUSH2 0x343 CALLDATASIZE PUSH1 0x4 PUSH2 0x21C3 JUMP JUMPDEST PUSH2 0x708 JUMP JUMPDEST STOP JUMPDEST PUSH2 0x348 PUSH2 0x358 CALLDATASIZE PUSH1 0x4 PUSH2 0x21DC JUMP JUMPDEST PUSH2 0xA63 JUMP JUMPDEST PUSH2 0x249 PUSH2 0xB01 JUMP JUMPDEST PUSH2 0x249 PUSH2 0xB17 JUMP JUMPDEST PUSH2 0x249 PUSH2 0xB2A JUMP JUMPDEST PUSH2 0x348 PUSH2 0x383 CALLDATASIZE PUSH1 0x4 PUSH2 0x21FE JUMP JUMPDEST PUSH2 0xB98 JUMP JUMPDEST PUSH2 0x348 PUSH2 0x396 CALLDATASIZE PUSH1 0x4 PUSH2 0x2266 JUMP JUMPDEST PUSH2 0xD46 JUMP JUMPDEST PUSH2 0x348 PUSH2 0x3A9 CALLDATASIZE PUSH1 0x4 PUSH2 0x229F JUMP JUMPDEST PUSH2 0xFD7 JUMP JUMPDEST PUSH1 0x4 SLOAD PUSH2 0x26F SWAP1 PUSH1 0x1 PUSH1 0x1 PUSH1 0xA0 SHL SUB AND DUP2 JUMP JUMPDEST PUSH2 0x2A3 PUSH2 0x3CF CALLDATASIZE PUSH1 0x4 PUSH2 0x21A6 JUMP JUMPDEST PUSH2 0x10E5 JUMP JUMPDEST PUSH1 0x6 SLOAD PUSH2 0x26F SWAP1 PUSH1 0x1 PUSH1 0x1 PUSH1 0xA0 SHL SUB AND DUP2 JUMP JUMPDEST PUSH2 0x348 PUSH2 0x3F5 CALLDATASIZE PUSH1 0x4 PUSH2 0x21C3 JUMP JUMPDEST PUSH2 0x119C JUMP JUMPDEST PUSH2 0x2A3 PUSH2 0x408 CALLDATASIZE PUSH1 0x4 PUSH2 0x21A6 JUMP JUMPDEST PUSH2 0x120C JUMP JUMPDEST PUSH2 0x249 PUSH2 0x41B CALLDATASIZE PUSH1 0x4 PUSH2 0x21A6 JUMP JUMPDEST PUSH1 0x1 PUSH1 0x1 PUSH1 0xA0 SHL SUB AND PUSH1 0x0 SWAP1 DUP2 MSTORE PUSH1 0x2 PUSH1 0x20 MSTORE PUSH1 0x40 SWAP1 KECCAK256 SLOAD SWAP1 JUMP JUMPDEST PUSH2 0x249 PUSH2 0x444 CALLDATASIZE PUSH1 0x4 PUSH2 0x21A6 JUMP JUMPDEST PUSH1 0x1 PUSH1 0x1 PUSH1 0xA0 SHL SUB AND PUSH1 0x0 SWAP1 DUP2 MSTORE PUSH1 0x8 PUSH1 0x20 MSTORE PUSH1 0x40 SWAP1 KECCAK256 SLOAD SWAP1 JUMP JUMPDEST PUSH2 0x249 PUSH2 0x12BC JUMP JUMPDEST PUSH2 0x348 PUSH2 0x475 CALLDATASIZE PUSH1 0x4 PUSH2 0x21C3 JUMP JUMPDEST PUSH2 0x1306 JUMP JUMPDEST PUSH2 0x348 PUSH2 0x488 CALLDATASIZE PUSH1 0x4 PUSH2 0x21C3 JUMP JUMPDEST PUSH2 0x15D7 JUMP JUMPDEST PUSH1 0x0 SLOAD PUSH2 0x26F SWAP1 PUSH1 0x1 PUSH1 0x1 PUSH1 0xA0 SHL SUB AND DUP2 JUMP JUMPDEST PUSH2 0x348 PUSH2 0x4AE CALLDATASIZE PUSH1 0x4 PUSH2 0x21A6 JUMP JUMPDEST PUSH2 0x18AC JUMP JUMPDEST PUSH2 0x348 PUSH2 0x18F8 JUMP JUMPDEST PUSH2 0x2E2 PUSH2 0x4C9 CALLDATASIZE PUSH1 0x4 PUSH2 0x21C3 JUMP JUMPDEST PUSH2 0x1B9C JUMP JUMPDEST PUSH2 0x249 PUSH2 0x1BCF JUMP JUMPDEST PUSH2 0x2A3 PUSH2 0x4E4 CALLDATASIZE PUSH1 0x4 PUSH2 0x21A6 JUMP JUMPDEST PUSH2 0x1C19 JUMP JUMPDEST PUSH2 0x249 PUSH1 0xC SLOAD DUP2 JUMP JUMPDEST PUSH2 0x348 PUSH2 0x1C37 JUMP JUMPDEST PUSH2 0x348 PUSH2 0x508 CALLDATASIZE PUSH1 0x4 PUSH2 0x21A6 JUMP JUMPDEST PUSH2 0x1C52 JUMP JUMPDEST PUSH2 0x2A3 PUSH2 0x51B CALLDATASIZE PUSH1 0x4 PUSH2 0x21A6 JUMP JUMPDEST PUSH1 0x7 PUSH1 0x20 MSTORE PUSH1 0x0 SWAP1 DUP2 MSTORE PUSH1 0x40 SWAP1 KECCAK256 SLOAD PUSH1 0xFF AND DUP2 JUMP JUMPDEST PUSH1 0x5 SLOAD PUSH2 0x26F SWAP1 PUSH1 0x1 PUSH1 0x1 PUSH1 0xA0 SHL SUB AND DUP2 JUMP JUMPDEST PUSH1 0x0 DUP1 PUSH2 0x54E PUSH2 0x1C9E JUMP JUMPDEST PUSH1 0x40 ADD MLOAD SWAP1 POP PUSH1 0x0 PUSH2 0x55F DUP5 PUSH2 0x1D18 JUMP JUMPDEST PUSH1 0x40 SWAP1 DUP2 ADD MLOAD PUSH1 0x1 PUSH1 0x1 PUSH1 0xA0 SHL SUB DUP7 AND PUSH1 0x0 SWAP1 DUP2 MSTORE PUSH1 0x8 PUSH1 0x20 MSTORE SWAP2 SWAP1 SWAP2 KECCAK256 PUSH1 0x1 ADD SLOAD SWAP1 SWAP2 POP PUSH2 0x5CC SWAP1 PUSH2 0x5C6 PUSH8 0xDE0B6B3A7640000 PUSH2 0x5C0 PUSH2 0x5A1 DUP8 DUP8 PUSH2 0x1DAB JUMP JUMPDEST PUSH1 0x1 PUSH1 0x1 PUSH1 0xA0 SHL SUB DUP11 AND PUSH1 0x0 SWAP1 DUP2 MSTORE PUSH1 0x2 PUSH1 0x20 MSTORE PUSH1 0x40 SWAP1 KECCAK256 SLOAD SWAP1 PUSH2 0x1DBE JUMP JUMPDEST SWAP1 PUSH2 0x1DCA JUMP JUMPDEST SWAP1 PUSH2 0x1DD6 JUMP JUMPDEST SWAP5 SWAP4 POP POP POP POP JUMP JUMPDEST PUSH1 0x6 SLOAD PUSH1 0x40 DUP1 MLOAD PUSH4 0x900CF0CF PUSH1 0xE0 SHL DUP2 MSTORE SWAP1 MLOAD PUSH1 0x0 SWAP3 PUSH1 0x1 PUSH1 0x1 PUSH1 0xA0 SHL SUB AND SWAP2 PUSH4 0x900CF0CF SWAP2 PUSH1 0x4 DUP1 DUP4 ADD SWAP3 PUSH1 0x20 SWAP3 SWAP2 SWAP1 DUP3 SWAP1 SUB ADD DUP2 DUP7 GAS STATICCALL ISZERO DUP1 ISZERO PUSH2 0x61E JUMPI RETURNDATASIZE PUSH1 0x0 DUP1 RETURNDATACOPY RETURNDATASIZE PUSH1 0x0 REVERT JUMPDEST POP POP POP POP PUSH1 0x40 MLOAD RETURNDATASIZE PUSH1 0x1F NOT PUSH1 0x1F DUP3 ADD AND DUP3 ADD DUP1 PUSH1 0x40 MSTORE POP DUP2 ADD SWAP1 PUSH2 0x642 SWAP2 SWAP1 PUSH2 0x22E1 JUMP JUMPDEST PUSH1 0xB SLOAD PUSH1 0x1 PUSH1 0x1 PUSH1 0xA0 SHL SUB DUP5 AND PUSH1 0x0 SWAP1 DUP2 MSTORE PUSH1 0x8 PUSH1 0x20 MSTORE PUSH1 0x40 SWAP1 KECCAK256 PUSH1 0x2 ADD SLOAD PUSH2 0x66A SWAP2 PUSH2 0x1DD6 JUMP JUMPDEST GT ISZERO SWAP3 SWAP2 POP POP JUMP JUMPDEST PUSH1 0x6 SLOAD PUSH1 0x40 DUP1 MLOAD PUSH4 0x900CF0CF PUSH1 0xE0 SHL DUP2 MSTORE SWAP1 MLOAD PUSH1 0x0 SWAP3 PUSH1 0x1 PUSH1 0x1 PUSH1 0xA0 SHL SUB AND SWAP2 PUSH4 0x900CF0CF SWAP2 PUSH1 0x4 DUP1 DUP4 ADD SWAP3 PUSH1 0x20 SWAP3 SWAP2 SWAP1 DUP3 SWAP1 SUB ADD DUP2 DUP7 GAS STATICCALL ISZERO DUP1 ISZERO PUSH2 0x6BC JUMPI RETURNDATASIZE PUSH1 0x0 DUP1 RETURNDATACOPY RETURNDATASIZE PUSH1 0x0 REVERT JUMPDEST POP POP POP POP PUSH1 0x40 MLOAD RETURNDATASIZE PUSH1 0x1F NOT PUSH1 0x1F DUP3 ADD AND DUP3 ADD DUP1 PUSH1 0x40 MSTORE POP DUP2 ADD SWAP1 PUSH2 0x6E0 SWAP2 SWAP1 PUSH2 0x22E1 JUMP JUMPDEST PUSH1 0xA SLOAD PUSH1 0x1 PUSH1 0x1 PUSH1 0xA0 SHL SUB DUP5 AND PUSH1 0x0 SWAP1 DUP2 MSTORE PUSH1 0x8 PUSH1 0x20 MSTORE PUSH1 0x40 SWAP1 KECCAK256 PUSH1 0x2 ADD SLOAD PUSH2 0x66A SWAP2 PUSH2 0x1DD6 JUMP JUMPDEST NUMBER PUSH1 0x0 SWAP1 DUP2 MSTORE PUSH1 0x3 PUSH1 0x20 SWAP1 DUP2 MSTORE PUSH1 0x40 DUP1 DUP4 KECCAK256 ORIGIN DUP5 MSTORE SWAP1 SWAP2 MSTORE SWAP1 KECCAK256 SLOAD PUSH1 0xFF AND ISZERO PUSH2 0x74C JUMPI PUSH1 0x40 MLOAD PUSH3 0x461BCD PUSH1 0xE5 SHL DUP2 MSTORE PUSH1 0x4 ADD PUSH2 0x743 SWAP1 PUSH2 0x22FA JUMP JUMPDEST PUSH1 0x40 MLOAD DUP1 SWAP2 SUB SWAP1 REVERT JUMPDEST NUMBER PUSH1 0x0 SWAP1 DUP2 MSTORE PUSH1 0x3 PUSH1 0x20 SWAP1 DUP2 MSTORE PUSH1 0x40 DUP1 DUP4 KECCAK256 CALLER DUP5 MSTORE SWAP1 SWAP2 MSTORE SWAP1 KECCAK256 SLOAD PUSH1 0xFF AND ISZERO PUSH2 0x787 JUMPI PUSH1 0x40 MLOAD PUSH3 0x461BCD PUSH1 0xE5 SHL DUP2 MSTORE PUSH1 0x4 ADD PUSH2 0x743 SWAP1 PUSH2 0x22FA JUMP JUMPDEST NUMBER PUSH1 0x0 SWAP1 DUP2 MSTORE PUSH1 0x3 PUSH1 0x20 SWAP1 DUP2 MSTORE PUSH1 0x40 DUP1 DUP4 KECCAK256 ORIGIN DUP5 MSTORE DUP3 MSTORE DUP1 DUP4 KECCAK256 DUP1 SLOAD PUSH1 0x1 PUSH1 0xFF NOT SWAP2 DUP3 AND DUP2 OR SWAP1 SWAP3 SSTORE CALLER DUP6 MSTORE DUP3 DUP6 KECCAK256 DUP1 SLOAD SWAP1 SWAP2 AND SWAP1 SWAP2 OR SWAP1 SSTORE PUSH1 0x2 SWAP1 SWAP2 MSTORE DUP2 KECCAK256 SLOAD GT PUSH2 0x821 JUMPI PUSH1 0x40 MLOAD PUSH3 0x461BCD PUSH1 0xE5 SHL DUP2 MSTORE PUSH1 0x20 PUSH1 0x4 DUP3 ADD MSTORE PUSH1 0x24 DUP1 DUP3 ADD MSTORE PUSH32 0x426F617264726F6F6D3A20546865206D656D62657220646F6573206E6F742065 PUSH1 0x44 DUP3 ADD MSTORE PUSH4 0x1E1A5CDD PUSH1 0xE2 SHL PUSH1 0x64 DUP3 ADD MSTORE PUSH1 0x84 ADD PUSH2 0x743 JUMP JUMPDEST CALLER DUP1 ISZERO PUSH2 0x8B2 JUMPI PUSH1 0x1 PUSH1 0x1 PUSH1 0xA0 SHL SUB DUP2 AND PUSH1 0x0 SWAP1 DUP2 MSTORE PUSH1 0x8 PUSH1 0x20 SWAP1 DUP2 MSTORE PUSH1 0x40 SWAP2 DUP3 SWAP1 KECCAK256 DUP3 MLOAD PUSH1 0x60 DUP2 ADD DUP5 MSTORE DUP2 SLOAD DUP2 MSTORE PUSH1 0x1 DUP3 ADD SLOAD SWAP3 DUP2 ADD SWAP3 SWAP1 SWAP3 MSTORE PUSH1 0x2 ADD SLOAD SWAP2 DUP2 ADD SWAP2 SWAP1 SWAP2 MSTORE PUSH2 0x870 DUP3 PUSH2 0x543 JUMP JUMPDEST PUSH1 0x20 DUP3 ADD MSTORE PUSH2 0x87D PUSH2 0xB01 JUMP JUMPDEST DUP2 MSTORE PUSH1 0x1 PUSH1 0x1 PUSH1 0xA0 SHL SUB DUP3 AND PUSH1 0x0 SWAP1 DUP2 MSTORE PUSH1 0x8 PUSH1 0x20 SWAP1 DUP2 MSTORE PUSH1 0x40 SWAP2 DUP3 SWAP1 KECCAK256 DUP4 MLOAD DUP2 SSTORE SWAP1 DUP4 ADD MLOAD PUSH1 0x1 DUP3 ADD SSTORE SWAP2 ADD MLOAD PUSH1 0x2 SWAP1 SWAP2 ADD SSTORE JUMPDEST PUSH2 0x8BB CALLER PUSH2 0x1C19 JUMP JUMPDEST ISZERO PUSH2 0x8D8 JUMPI PUSH1 0x40 MLOAD PUSH3 0x461BCD PUSH1 0xE5 SHL DUP2 MSTORE PUSH1 0x4 ADD PUSH2 0x743 SWAP1 PUSH2 0x2340 JUMP JUMPDEST PUSH1 0x0 DUP3 GT PUSH2 0x928 JUMPI PUSH1 0x40 MLOAD PUSH3 0x461BCD PUSH1 0xE5 SHL DUP2 MSTORE PUSH1 0x20 PUSH1 0x4 DUP3 ADD MSTORE PUSH1 0x1C PUSH1 0x24 DUP3 ADD MSTORE PUSH32 0x426F617264726F6F6D3A2043616E6E6F74207769746864726177203000000000 PUSH1 0x44 DUP3 ADD MSTORE PUSH1 0x64 ADD PUSH2 0x743 JUMP JUMPDEST PUSH1 0x6 PUSH1 0x0 SWAP1 SLOAD SWAP1 PUSH2 0x100 EXP SWAP1 DIV PUSH1 0x1 PUSH1 0x1 PUSH1 0xA0 SHL SUB AND PUSH1 0x1 PUSH1 0x1 PUSH1 0xA0 SHL SUB AND PUSH4 0x900CF0CF PUSH1 0x40 MLOAD DUP2 PUSH4 0xFFFFFFFF AND PUSH1 0xE0 SHL DUP2 MSTORE PUSH1 0x4 ADD PUSH1 0x20 PUSH1 0x40 MLOAD DUP1 DUP4 SUB DUP2 DUP7 GAS STATICCALL ISZERO DUP1 ISZERO PUSH2 0x97B JUMPI RETURNDATASIZE PUSH1 0x0 DUP1 RETURNDATACOPY RETURNDATASIZE PUSH1 0x0 REVERT JUMPDEST POP POP POP POP PUSH1 0x40 MLOAD RETURNDATASIZE PUSH1 0x1F NOT PUSH1 0x1F DUP3 ADD AND DUP3 ADD DUP1 PUSH1 0x40 MSTORE POP DUP2 ADD SWAP1 PUSH2 0x99F SWAP2 SWAP1 PUSH2 0x22E1 JUMP JUMPDEST PUSH1 0xA SLOAD CALLER PUSH1 0x0 SWAP1 DUP2 MSTORE PUSH1 0x8 PUSH1 0x20 MSTORE PUSH1 0x40 SWAP1 KECCAK256 PUSH1 0x2 ADD SLOAD PUSH2 0x9BE SWAP2 PUSH2 0x1DD6 JUMP JUMPDEST GT ISZERO PUSH2 0xA18 JUMPI PUSH1 0x40 MLOAD PUSH3 0x461BCD PUSH1 0xE5 SHL DUP2 MSTORE PUSH1 0x20 PUSH1 0x4 DUP3 ADD MSTORE PUSH1 0x23 PUSH1 0x24 DUP3 ADD MSTORE PUSH32 0x426F617264726F6F6D3A207374696C6C20696E207769746864726177206C6F63 PUSH1 0x44 DUP3 ADD MSTORE PUSH3 0x6B757 PUSH1 0xEC SHL PUSH1 0x64 DUP3 ADD MSTORE PUSH1 0x84 ADD PUSH2 0x743 JUMP JUMPDEST PUSH2 0xA20 PUSH2 0x18F8 JUMP JUMPDEST PUSH2 0xA29 DUP3 PUSH2 0x1DE2 JUMP JUMPDEST PUSH1 0x40 MLOAD DUP3 DUP2 MSTORE CALLER SWAP1 PUSH32 0x7084F5476618D8E60B11EF0D7D3F06914655ADB8793E28FF7F018D4C76D505D5 SWAP1 PUSH1 0x20 ADD JUMPDEST PUSH1 0x40 MLOAD DUP1 SWAP2 SUB SWAP1 LOG2 POP POP JUMP JUMPDEST PUSH1 0x4 SLOAD PUSH1 0x1 PUSH1 0x1 PUSH1 0xA0 SHL SUB AND CALLER EQ PUSH2 0xA8D JUMPI PUSH1 0x40 MLOAD PUSH3 0x461BCD PUSH1 0xE5 SHL DUP2 MSTORE PUSH1 0x4 ADD PUSH2 0x743 SWAP1 PUSH2 0x2363 JUMP JUMPDEST DUP1 DUP3 LT ISZERO DUP1 ISZERO PUSH2 0xA9E JUMPI POP PUSH1 0x38 DUP3 GT ISZERO JUMPDEST PUSH2 0xAF6 JUMPI PUSH1 0x40 MLOAD PUSH3 0x461BCD PUSH1 0xE5 SHL DUP2 MSTORE PUSH1 0x20 PUSH1 0x4 DUP3 ADD MSTORE PUSH1 0x23 PUSH1 0x24 DUP3 ADD MSTORE PUSH32 0x5F77697468647261774C6F636B757045706F6368733A206F7574206F66207261 PUSH1 0x44 DUP3 ADD MSTORE PUSH3 0x6E6765 PUSH1 0xE8 SHL PUSH1 0x64 DUP3 ADD MSTORE PUSH1 0x84 ADD PUSH2 0x743 JUMP JUMPDEST PUSH1 0xA SWAP2 SWAP1 SWAP2 SSTORE PUSH1 0xB SSTORE JUMP JUMPDEST PUSH1 0x9 SLOAD PUSH1 0x0 SWAP1 PUSH2 0xB12 SWAP1 PUSH1 0x1 PUSH2 0x1DAB JUMP JUMPDEST SWAP1 POP SWAP1 JUMP JUMPDEST PUSH1 0x0 PUSH2 0xB21 PUSH2 0x1C9E JUMP JUMPDEST PUSH1 0x40 ADD MLOAD SWAP1 POP SWAP1 JUMP JUMPDEST PUSH1 0x6 SLOAD PUSH1 0x40 DUP1 MLOAD PUSH4 0x25CA7A87 PUSH1 0xE1 SHL DUP2 MSTORE SWAP1 MLOAD PUSH1 0x0 SWAP3 PUSH1 0x1 PUSH1 0x1 PUSH1 0xA0 SHL SUB AND SWAP2 PUSH4 0x4B94F50E SWAP2 PUSH1 0x4 DUP1 DUP4 ADD SWAP3 PUSH1 0x20 SWAP3 SWAP2 SWAP1 DUP3 SWAP1 SUB ADD DUP2 DUP7 GAS STATICCALL ISZERO DUP1 ISZERO PUSH2 0xB74 JUMPI RETURNDATASIZE PUSH1 0x0 DUP1 RETURNDATACOPY RETURNDATASIZE PUSH1 0x0 REVERT JUMPDEST POP POP POP POP PUSH1 0x40 MLOAD RETURNDATASIZE PUSH1 0x1F NOT PUSH1 0x1F DUP3 ADD AND DUP3 ADD DUP1 PUSH1 0x40 MSTORE POP DUP2 ADD SWAP1 PUSH2 0xB12 SWAP2 SWAP1 PUSH2 0x22E1 JUMP JUMPDEST PUSH1 0x4 SLOAD PUSH1 0x1 PUSH1 0xA0 SHL SWAP1 DIV PUSH1 0xFF AND ISZERO PUSH2 0xBF2 JUMPI PUSH1 0x40 MLOAD PUSH3 0x461BCD PUSH1 0xE5 SHL DUP2 MSTORE PUSH1 0x20 PUSH1 0x4 DUP3 ADD MSTORE PUSH1 0x1E PUSH1 0x24 DUP3 ADD MSTORE PUSH32 0x426F617264726F6F6D3A20616C726561647920696E697469616C697A65640000 PUSH1 0x44 DUP3 ADD MSTORE PUSH1 0x64 ADD PUSH2 0x743 JUMP JUMPDEST PUSH1 0x5 DUP1 SLOAD PUSH1 0x1 PUSH1 0x1 PUSH1 0xA0 SHL SUB DUP8 DUP2 AND PUSH1 0x1 PUSH1 0x1 PUSH1 0xA0 SHL SUB NOT SWAP3 DUP4 AND OR SWAP1 SWAP3 SSTORE PUSH1 0x0 DUP1 SLOAD DUP8 DUP5 AND SWAP1 DUP4 AND OR DUP2 SSTORE PUSH1 0x6 DUP1 SLOAD DUP8 DUP6 AND SWAP1 DUP5 AND OR DUP2 SSTORE PUSH1 0xC DUP7 SWAP1 SSTORE PUSH1 0xD DUP1 SLOAD SWAP5 DUP7 AND SWAP5 SWAP1 SWAP4 AND SWAP4 SWAP1 SWAP4 OR SWAP1 SWAP2 SSTORE PUSH1 0x40 DUP1 MLOAD PUSH1 0x60 DUP2 ADD DUP3 MSTORE NUMBER DUP1 DUP3 MSTORE PUSH1 0x20 DUP1 DUP4 ADD DUP6 DUP2 MSTORE DUP4 DUP6 ADD DUP7 DUP2 MSTORE PUSH1 0x9 DUP1 SLOAD PUSH1 0x1 DUP2 ADD DUP3 SSTORE SWAP8 MSTORE DUP5 MLOAD PUSH1 0x3 SWAP8 DUP9 MUL PUSH32 0x6E1540171B6C0C960B71A7020D9F60077F6AF931A8BBF590DA0223DACF75C7AF DUP2 ADD SWAP2 SWAP1 SWAP2 SSTORE SWAP2 MLOAD PUSH32 0x6E1540171B6C0C960B71A7020D9F60077F6AF931A8BBF590DA0223DACF75C7B0 DUP4 ADD SSTORE MLOAD PUSH32 0x6E1540171B6C0C960B71A7020D9F60077F6AF931A8BBF590DA0223DACF75C7B1 SWAP1 SWAP2 ADD SSTORE PUSH1 0xA SWAP6 SWAP1 SWAP6 SSTORE PUSH1 0xB SWAP4 SWAP1 SWAP4 SSTORE PUSH1 0x4 DUP1 SLOAD PUSH1 0x1 PUSH1 0x1 PUSH1 0xA8 SHL SUB NOT AND CALLER SWAP1 DUP2 OR PUSH1 0x1 PUSH1 0xA0 SHL OR SWAP1 SWAP2 SSTORE SWAP2 MLOAD SWAP3 DUP4 MSTORE SWAP3 SWAP1 SWAP2 PUSH32 0x25FF68DD81B34665B5BA7E553EE5511BF6812E12ADB4A7E2C0D9E26B3099CE79 SWAP2 ADD PUSH1 0x40 MLOAD DUP1 SWAP2 SUB SWAP1 LOG2 POP POP POP POP POP POP JUMP JUMPDEST PUSH1 0x4 SLOAD PUSH1 0x1 PUSH1 0x1 PUSH1 0xA0 SHL SUB AND CALLER EQ PUSH2 0xD70 JUMPI PUSH1 0x40 MLOAD PUSH3 0x461BCD PUSH1 0xE5 SHL DUP2 MSTORE PUSH1 0x4 ADD PUSH2 0x743 SWAP1 PUSH2 0x2363 JUMP JUMPDEST PUSH2 0xD79 DUP3 PUSH2 0x1C19 JUMP JUMPDEST PUSH2 0xDC5 JUMPI PUSH1 0x40 MLOAD PUSH3 0x461BCD PUSH1 0xE5 SHL DUP2 MSTORE PUSH1 0x20 PUSH1 0x4 DUP3 ADD MSTORE PUSH1 0x1C PUSH1 0x24 DUP3 ADD MSTORE PUSH32 0x61646472657373206E6F7420696E2074686520626C61636B6C69737400000000 PUSH1 0x44 DUP3 ADD MSTORE PUSH1 0x64 ADD PUSH2 0x743 JUMP JUMPDEST PUSH1 0x1 PUSH1 0x1 PUSH1 0xA0 SHL SUB DUP3 AND PUSH1 0x0 SWAP1 DUP2 MSTORE PUSH1 0x2 PUSH1 0x20 MSTORE PUSH1 0x40 SWAP1 KECCAK256 SLOAD DUP1 PUSH2 0xE2B JUMPI PUSH1 0x40 MLOAD PUSH3 0x461BCD PUSH1 0xE5 SHL DUP2 MSTORE PUSH1 0x20 PUSH1 0x4 DUP3 ADD MSTORE PUSH1 0x1C PUSH1 0x24 DUP3 ADD MSTORE PUSH32 0x426F617264726F6F6D3A2043616E6E6F74207769746864726177203000000000 PUSH1 0x44 DUP3 ADD MSTORE PUSH1 0x64 ADD PUSH2 0x743 JUMP JUMPDEST PUSH1 0x1 PUSH1 0x1 PUSH1 0xA0 SHL SUB DUP4 AND PUSH1 0x0 SWAP1 DUP2 MSTORE PUSH1 0x8 PUSH1 0x20 MSTORE PUSH1 0x40 SWAP1 KECCAK256 PUSH1 0x1 ADD SLOAD DUP1 ISZERO PUSH2 0xF4B JUMPI PUSH1 0x6 PUSH1 0x0 SWAP1 SLOAD SWAP1 PUSH2 0x100 EXP SWAP1 DIV PUSH1 0x1 PUSH1 0x1 PUSH1 0xA0 SHL SUB AND PUSH1 0x1 PUSH1 0x1 PUSH1 0xA0 SHL SUB AND PUSH4 0x900CF0CF PUSH1 0x40 MLOAD DUP2 PUSH4 0xFFFFFFFF AND PUSH1 0xE0 SHL DUP2 MSTORE PUSH1 0x4 ADD PUSH1 0x20 PUSH1 0x40 MLOAD DUP1 DUP4 SUB DUP2 DUP7 GAS STATICCALL ISZERO DUP1 ISZERO PUSH2 0xEA0 JUMPI RETURNDATASIZE PUSH1 0x0 DUP1 RETURNDATACOPY RETURNDATASIZE PUSH1 0x0 REVERT JUMPDEST POP POP POP POP PUSH1 0x40 MLOAD RETURNDATASIZE PUSH1 0x1F NOT PUSH1 0x1F DUP3 ADD AND DUP3 ADD DUP1 PUSH1 0x40 MSTORE POP DUP2 ADD SWAP1 PUSH2 0xEC4 SWAP2 SWAP1 PUSH2 0x22E1 JUMP JUMPDEST PUSH1 0x1 PUSH1 0x1 PUSH1 0xA0 SHL SUB DUP1 DUP7 AND PUSH1 0x0 SWAP1 DUP2 MSTORE PUSH1 0x8 PUSH1 0x20 MSTORE PUSH1 0x40 DUP2 KECCAK256 PUSH1 0x2 DUP2 ADD SWAP4 SWAP1 SWAP4 SSTORE PUSH1 0x1 SWAP1 SWAP3 ADD SWAP2 SWAP1 SWAP2 SSTORE PUSH1 0x5 SLOAD PUSH2 0xEFD SWAP2 AND DUP5 DUP4 PUSH2 0x1EA2 JUMP JUMPDEST DUP3 PUSH1 0x1 PUSH1 0x1 PUSH1 0xA0 SHL SUB AND DUP5 PUSH1 0x1 PUSH1 0x1 PUSH1 0xA0 SHL SUB AND PUSH32 0x715576A45BD0EA6CA90A2F53C258FE52BDD30E6061046CE86CA3FA7E9F5A91BE DUP4 PUSH1 0x40 MLOAD PUSH2 0xF42 SWAP2 DUP2 MSTORE PUSH1 0x20 ADD SWAP1 JUMP JUMPDEST PUSH1 0x40 MLOAD DUP1 SWAP2 SUB SWAP1 LOG3 JUMPDEST PUSH1 0x1 SLOAD PUSH2 0xF58 SWAP1 DUP4 PUSH2 0x1DAB JUMP JUMPDEST PUSH1 0x1 SSTORE PUSH1 0x1 PUSH1 0x1 PUSH1 0xA0 SHL SUB DUP1 DUP6 AND PUSH1 0x0 SWAP1 DUP2 MSTORE PUSH1 0x2 PUSH1 0x20 MSTORE PUSH1 0x40 DUP2 KECCAK256 DUP2 SWAP1 SSTORE SLOAD PUSH2 0xF84 SWAP2 AND DUP5 DUP5 PUSH2 0x1EA2 JUMP JUMPDEST DUP3 PUSH1 0x1 PUSH1 0x1 PUSH1 0xA0 SHL SUB AND DUP5 PUSH1 0x1 PUSH1 0x1 PUSH1 0xA0 SHL SUB AND PUSH32 0x345A298B5B7318863D2A616F67AE5329DEB5255F9F90B5EBC73EE5DDCD81B180 DUP5 PUSH1 0x40 MLOAD PUSH2 0xFC9 SWAP2 DUP2 MSTORE PUSH1 0x20 ADD SWAP1 JUMP JUMPDEST PUSH1 0x40 MLOAD DUP1 SWAP2 SUB SWAP1 LOG3 POP POP POP POP JUMP JUMPDEST PUSH1 0x4 SLOAD PUSH1 0x1 PUSH1 0x1 PUSH1 0xA0 SHL SUB AND CALLER EQ PUSH2 0x1001 JUMPI PUSH1 0x40 MLOAD PUSH3 0x461BCD PUSH1 0xE5 SHL DUP2 MSTORE PUSH1 0x4 ADD PUSH2 0x743 SWAP1 PUSH2 0x2363 JUMP JUMPDEST PUSH1 0x1 PUSH1 0x1 PUSH1 0xA0 SHL SUB DUP2 AND PUSH2 0x1040 JUMPI PUSH1 0x40 MLOAD PUSH3 0x461BCD PUSH1 0xE5 SHL DUP2 MSTORE PUSH1 0x4 ADD PUSH2 0x743 SWAP1 PUSH1 0x20 DUP1 DUP3 MSTORE PUSH1 0x4 SWAP1 DUP3 ADD MSTORE PUSH4 0x7A65726F PUSH1 0xE0 SHL PUSH1 0x40 DUP3 ADD MSTORE PUSH1 0x60 ADD SWAP1 JUMP JUMPDEST PUSH1 0x5 SLOAD PUSH1 0x1 PUSH1 0x1 PUSH1 0xA0 SHL SUB SWAP1 DUP2 AND SWAP1 DUP5 AND SUB PUSH2 0x1086 JUMPI PUSH1 0x40 MLOAD PUSH3 0x461BCD PUSH1 0xE5 SHL DUP2 MSTORE PUSH1 0x20 PUSH1 0x4 DUP3 ADD MSTORE PUSH1 0x5 PUSH1 0x24 DUP3 ADD MSTORE PUSH5 0x3A37B5B2B7 PUSH1 0xD9 SHL PUSH1 0x44 DUP3 ADD MSTORE PUSH1 0x64 ADD PUSH2 0x743 JUMP JUMPDEST PUSH1 0x0 SLOAD PUSH1 0x1 PUSH1 0x1 PUSH1 0xA0 SHL SUB SWAP1 DUP2 AND SWAP1 DUP5 AND SUB PUSH2 0x10CC JUMPI PUSH1 0x40 MLOAD PUSH3 0x461BCD PUSH1 0xE5 SHL DUP2 MSTORE PUSH1 0x20 PUSH1 0x4 DUP3 ADD MSTORE PUSH1 0x5 PUSH1 0x24 DUP3 ADD MSTORE PUSH5 0x7368617265 PUSH1 0xD8 SHL PUSH1 0x44 DUP3 ADD MSTORE PUSH1 0x64 ADD PUSH2 0x743 JUMP JUMPDEST PUSH2 0x10E0 PUSH1 0x1 PUSH1 0x1 PUSH1 0xA0 SHL SUB DUP5 AND DUP3 DUP5 PUSH2 0x1EA2 JUMP JUMPDEST POP POP POP JUMP JUMPDEST PUSH1 0x4 SLOAD PUSH1 0x0 SWAP1 PUSH1 0x1 PUSH1 0x1 PUSH1 0xA0 SHL SUB AND CALLER EQ PUSH2 0x1112 JUMPI PUSH1 0x40 MLOAD PUSH3 0x461BCD PUSH1 0xE5 SHL DUP2 MSTORE PUSH1 0x4 ADD PUSH2 0x743 SWAP1 PUSH2 0x2363 JUMP JUMPDEST PUSH1 0x1 PUSH1 0x1 PUSH1 0xA0 SHL SUB DUP3 AND PUSH1 0x0 SWAP1 DUP2 MSTORE PUSH1 0x7 PUSH1 0x20 MSTORE PUSH1 0x40 SWAP1 KECCAK256 SLOAD PUSH1 0xFF AND ISZERO PUSH2 0x1173 JUMPI PUSH1 0x40 MLOAD PUSH3 0x461BCD PUSH1 0xE5 SHL DUP2 MSTORE PUSH1 0x20 PUSH1 0x4 DUP3 ADD MSTORE PUSH1 0x15 PUSH1 0x24 DUP3 ADD MSTORE PUSH21 0x1859191C995CDCC8185B1C9958591E481859191959 PUSH1 0x5A SHL PUSH1 0x44 DUP3 ADD MSTORE PUSH1 0x64 ADD PUSH2 0x743 JUMP JUMPDEST POP PUSH1 0x1 PUSH1 0x1 PUSH1 0xA0 SHL SUB AND PUSH1 0x0 SWAP1 DUP2 MSTORE PUSH1 0x7 PUSH1 0x20 MSTORE PUSH1 0x40 SWAP1 KECCAK256 DUP1 SLOAD PUSH1 0xFF NOT AND PUSH1 0x1 SWAP1 DUP2 OR SWAP1 SWAP2 SSTORE SWAP1 JUMP JUMPDEST PUSH1 0x4 SLOAD PUSH1 0x1 PUSH1 0x1 PUSH1 0xA0 SHL SUB AND CALLER EQ PUSH2 0x11C6 JUMPI PUSH1 0x40 MLOAD PUSH3 0x461BCD PUSH1 0xE5 SHL DUP2 MSTORE PUSH1 0x4 ADD PUSH2 0x743 SWAP1 PUSH2 0x2363 JUMP JUMPDEST PUSH2 0x2710 DUP2 GT ISZERO PUSH2 0x1207 JUMPI PUSH1 0x40 MLOAD PUSH3 0x461BCD PUSH1 0xE5 SHL DUP2 MSTORE PUSH1 0x20 PUSH1 0x4 DUP3 ADD MSTORE PUSH1 0xC PUSH1 0x24 DUP3 ADD MSTORE PUSH12 0x6F7574206F662072616E6765 PUSH1 0xA0 SHL PUSH1 0x44 DUP3 ADD MSTORE PUSH1 0x64 ADD PUSH2 0x743 JUMP JUMPDEST PUSH1 0xC SSTORE JUMP JUMPDEST PUSH1 0x4 SLOAD PUSH1 0x0 SWAP1 PUSH1 0x1 PUSH1 0x1 PUSH1 0xA0 SHL SUB AND CALLER EQ PUSH2 0x1239 JUMPI PUSH1 0x40 MLOAD PUSH3 0x461BCD PUSH1 0xE5 SHL DUP2 MSTORE PUSH1 0x4 ADD PUSH2 0x743 SWAP1 PUSH2 0x2363 JUMP JUMPDEST PUSH1 0x1 PUSH1 0x1 PUSH1 0xA0 SHL SUB DUP3 AND PUSH1 0x0 SWAP1 DUP2 MSTORE PUSH1 0x7 PUSH1 0x20 MSTORE PUSH1 0x40 SWAP1 KECCAK256 SLOAD PUSH1 0xFF AND PUSH2 0x1297 JUMPI PUSH1 0x40 MLOAD PUSH3 0x461BCD PUSH1 0xE5 SHL DUP2 MSTORE PUSH1 0x20 PUSH1 0x4 DUP3 ADD MSTORE PUSH1 0x13 PUSH1 0x24 DUP3 ADD MSTORE PUSH19 0x1859191C995CDCC81B9BDD08195E1A5CDD1959 PUSH1 0x6A SHL PUSH1 0x44 DUP3 ADD MSTORE PUSH1 0x64 ADD PUSH2 0x743 JUMP JUMPDEST POP PUSH1 0x1 PUSH1 0x1 PUSH1 0xA0 SHL SUB AND PUSH1 0x0 SWAP1 DUP2 MSTORE PUSH1 0x7 PUSH1 0x20 MSTORE PUSH1 0x40 SWAP1 KECCAK256 DUP1 SLOAD PUSH1 0xFF NOT AND SWAP1 SSTORE PUSH1 0x1 SWAP1 JUMP JUMPDEST PUSH1 0x6 SLOAD PUSH1 0x40 DUP1 MLOAD PUSH4 0x900CF0CF PUSH1 0xE0 SHL DUP2 MSTORE SWAP1 MLOAD PUSH1 0x0 SWAP3 PUSH1 0x1 PUSH1 0x1 PUSH1 0xA0 SHL SUB AND SWAP2 PUSH4 0x900CF0CF SWAP2 PUSH1 0x4 DUP1 DUP4 ADD SWAP3 PUSH1 0x20 SWAP3 SWAP2 SWAP1 DUP3 SWAP1 SUB ADD DUP2 DUP7 GAS STATICCALL ISZERO DUP1 ISZERO PUSH2 0xB74 JUMPI RETURNDATASIZE PUSH1 0x0 DUP1 RETURNDATACOPY RETURNDATASIZE PUSH1 0x0 REVERT JUMPDEST NUMBER PUSH1 0x0 SWAP1 DUP2 MSTORE PUSH1 0x3 PUSH1 0x20 SWAP1 DUP2 MSTORE PUSH1 0x40 DUP1 DUP4 KECCAK256 ORIGIN DUP5 MSTORE SWAP1 SWAP2 MSTORE SWAP1 KECCAK256 SLOAD PUSH1 0xFF AND ISZERO PUSH2 0x1341 JUMPI PUSH1 0x40 MLOAD PUSH3 0x461BCD PUSH1 0xE5 SHL DUP2 MSTORE PUSH1 0x4 ADD PUSH2 0x743 SWAP1 PUSH2 0x22FA JUMP JUMPDEST NUMBER PUSH1 0x0 SWAP1 DUP2 MSTORE PUSH1 0x3 PUSH1 0x20 SWAP1 DUP2 MSTORE PUSH1 0x40 DUP1 DUP4 KECCAK256 CALLER DUP5 MSTORE SWAP1 SWAP2 MSTORE SWAP1 KECCAK256 SLOAD PUSH1 0xFF AND ISZERO PUSH2 0x137C JUMPI PUSH1 0x40 MLOAD PUSH3 0x461BCD PUSH1 0xE5 SHL DUP2 MSTORE PUSH1 0x4 ADD PUSH2 0x743 SWAP1 PUSH2 0x22FA JUMP JUMPDEST NUMBER PUSH1 0x0 SWAP1 DUP2 MSTORE PUSH1 0x3 PUSH1 0x20 SWAP1 DUP2 MSTORE PUSH1 0x40 DUP1 DUP4 KECCAK256 ORIGIN DUP5 MSTORE SWAP1 SWAP2 MSTORE DUP1 DUP3 KECCAK256 DUP1 SLOAD PUSH1 0x1 PUSH1 0xFF NOT SWAP2 DUP3 AND DUP2 OR SWAP1 SWAP3 SSTORE CALLER DUP1 DUP6 MSTORE SWAP3 SWAP1 SWAP4 KECCAK256 DUP1 SLOAD SWAP1 SWAP4 AND OR SWAP1 SWAP2 SSTORE PUSH1 0x4 SLOAD PUSH1 0x1 PUSH1 0x1 PUSH1 0xA0 SHL SUB AND EQ PUSH2 0x13E0 JUMPI PUSH1 0x40 MLOAD PUSH3 0x461BCD PUSH1 0xE5 SHL DUP2 MSTORE PUSH1 0x4 ADD PUSH2 0x743 SWAP1 PUSH2 0x2363 JUMP JUMPDEST PUSH1 0x0 DUP2 GT PUSH2 0x1430 JUMPI PUSH1 0x40 MLOAD PUSH3 0x461BCD PUSH1 0xE5 SHL DUP2 MSTORE PUSH1 0x20 PUSH1 0x4 DUP3 ADD MSTORE PUSH1 0x1C PUSH1 0x24 DUP3 ADD MSTORE PUSH32 0x426F617264726F6F6D3A2043616E6E6F7420616C6C6F63617465203000000000 PUSH1 0x44 DUP3 ADD MSTORE PUSH1 0x64 ADD PUSH2 0x743 JUMP JUMPDEST PUSH1 0x0 PUSH2 0x143B PUSH1 0x1 SLOAD SWAP1 JUMP JUMPDEST GT PUSH2 0x14A1 JUMPI PUSH1 0x40 MLOAD PUSH3 0x461BCD PUSH1 0xE5 SHL DUP2 MSTORE PUSH1 0x20 PUSH1 0x4 DUP3 ADD MSTORE PUSH1 0x30 PUSH1 0x24 DUP3 ADD MSTORE PUSH32 0x426F617264726F6F6D3A2043616E6E6F7420616C6C6F63617465207768656E20 PUSH1 0x44 DUP3 ADD MSTORE PUSH16 0x746F74616C537570706C79206973203 PUSH1 0x84 SHL PUSH1 0x64 DUP3 ADD MSTORE PUSH1 0x84 ADD PUSH2 0x743 JUMP JUMPDEST PUSH1 0x0 PUSH2 0x14AB PUSH2 0x1C9E JUMP JUMPDEST PUSH1 0x40 ADD MLOAD SWAP1 POP PUSH1 0x0 PUSH2 0x14DB PUSH2 0x14D4 PUSH2 0x14C2 PUSH1 0x1 SLOAD SWAP1 JUMP JUMPDEST PUSH2 0x5C0 DUP7 PUSH8 0xDE0B6B3A7640000 PUSH2 0x1DBE JUMP JUMPDEST DUP4 SWAP1 PUSH2 0x1DD6 JUMP JUMPDEST PUSH1 0x40 DUP1 MLOAD PUSH1 0x60 DUP2 ADD DUP3 MSTORE NUMBER DUP2 MSTORE PUSH1 0x20 DUP2 ADD DUP7 DUP2 MSTORE SWAP2 DUP2 ADD DUP4 DUP2 MSTORE PUSH1 0x9 DUP1 SLOAD PUSH1 0x1 DUP2 ADD DUP3 SSTORE PUSH1 0x0 SWAP2 SWAP1 SWAP2 MSTORE DUP3 MLOAD PUSH32 0x6E1540171B6C0C960B71A7020D9F60077F6AF931A8BBF590DA0223DACF75C7AF PUSH1 0x3 SWAP1 SWAP3 MUL SWAP2 DUP3 ADD SSTORE SWAP3 MLOAD PUSH32 0x6E1540171B6C0C960B71A7020D9F60077F6AF931A8BBF590DA0223DACF75C7B0 DUP5 ADD SSTORE MLOAD PUSH32 0x6E1540171B6C0C960B71A7020D9F60077F6AF931A8BBF590DA0223DACF75C7B1 SWAP1 SWAP3 ADD SWAP2 SWAP1 SWAP2 SSTORE PUSH1 0x5 SLOAD SWAP2 SWAP3 POP SWAP1 PUSH2 0x159C SWAP1 PUSH1 0x1 PUSH1 0x1 PUSH1 0xA0 SHL SUB AND CALLER ADDRESS DUP8 PUSH2 0x1F05 JUMP JUMPDEST PUSH1 0x40 MLOAD DUP5 DUP2 MSTORE CALLER SWAP1 PUSH32 0xAC24935FD910BC682B5CCB1A07B718CADF8CF2F6D1404C4F3DDC3662DAE40E29 SWAP1 PUSH1 0x20 ADD PUSH1 0x40 MLOAD DUP1 SWAP2 SUB SWAP1 LOG2 POP POP POP POP JUMP JUMPDEST NUMBER PUSH1 0x0 SWAP1 DUP2 MSTORE PUSH1 0x3 PUSH1 0x20 SWAP1 DUP2 MSTORE PUSH1 0x40 DUP1 DUP4 KECCAK256 ORIGIN DUP5 MSTORE SWAP1 SWAP2 MSTORE SWAP1 KECCAK256 SLOAD PUSH1 0xFF AND ISZERO PUSH2 0x1612 JUMPI PUSH1 0x40 MLOAD PUSH3 0x461BCD PUSH1 0xE5 SHL DUP2 MSTORE PUSH1 0x4 ADD PUSH2 0x743 SWAP1 PUSH2 0x22FA JUMP JUMPDEST NUMBER PUSH1 0x0 SWAP1 DUP2 MSTORE PUSH1 0x3 PUSH1 0x20 SWAP1 DUP2 MSTORE PUSH1 0x40 DUP1 DUP4 KECCAK256 CALLER DUP5 MSTORE SWAP1 SWAP2 MSTORE SWAP1 KECCAK256 SLOAD PUSH1 0xFF AND ISZERO PUSH2 0x164D JUMPI PUSH1 0x40 MLOAD PUSH3 0x461BCD PUSH1 0xE5 SHL DUP2 MSTORE PUSH1 0x4 ADD PUSH2 0x743 SWAP1 PUSH2 0x22FA JUMP JUMPDEST NUMBER PUSH1 0x0 SWAP1 DUP2 MSTORE PUSH1 0x3 PUSH1 0x20 SWAP1 DUP2 MSTORE PUSH1 0x40 DUP1 DUP4 KECCAK256 ORIGIN DUP5 MSTORE SWAP1 SWAP2 MSTORE DUP1 DUP3 KECCAK256 DUP1 SLOAD PUSH1 0x1 PUSH1 0xFF NOT SWAP2 DUP3 AND DUP2 OR SWAP1 SWAP3 SSTORE CALLER DUP1 DUP6 MSTORE SWAP3 SWAP1 SWAP4 KECCAK256 DUP1 SLOAD SWAP1 SWAP4 AND OR SWAP1 SWAP2 SSTORE DUP1 ISZERO PUSH2 0x1718 JUMPI PUSH1 0x1 PUSH1 0x1 PUSH1 0xA0 SHL SUB DUP2 AND PUSH1 0x0 SWAP1 DUP2 MSTORE PUSH1 0x8 PUSH1 0x20 SWAP1 DUP2 MSTORE PUSH1 0x40 SWAP2 DUP3 SWAP1 KECCAK256 DUP3 MLOAD PUSH1 0x60 DUP2 ADD DUP5 MSTORE DUP2 SLOAD DUP2 MSTORE PUSH1 0x1 DUP3 ADD SLOAD SWAP3 DUP2 ADD SWAP3 SWAP1 SWAP3 MSTORE PUSH1 0x2 ADD SLOAD SWAP2 DUP2 ADD SWAP2 SWAP1 SWAP2 MSTORE PUSH2 0x16D6 DUP3 PUSH2 0x543 JUMP JUMPDEST PUSH1 0x20 DUP3 ADD MSTORE PUSH2 0x16E3 PUSH2 0xB01 JUMP JUMPDEST DUP2 MSTORE PUSH1 0x1 PUSH1 0x1 PUSH1 0xA0 SHL SUB DUP3 AND PUSH1 0x0 SWAP1 DUP2 MSTORE PUSH1 0x8 PUSH1 0x20 SWAP1 DUP2 MSTORE PUSH1 0x40 SWAP2 DUP3 SWAP1 KECCAK256 DUP4 MLOAD DUP2 SSTORE SWAP1 DUP4 ADD MLOAD PUSH1 0x1 DUP3 ADD SSTORE SWAP2 ADD MLOAD PUSH1 0x2 SWAP1 SWAP2 ADD SSTORE JUMPDEST PUSH2 0x1721 CALLER PUSH2 0x1C19 JUMP JUMPDEST ISZERO PUSH2 0x173E JUMPI PUSH1 0x40 MLOAD PUSH3 0x461BCD PUSH1 0xE5 SHL DUP2 MSTORE PUSH1 0x4 ADD PUSH2 0x743 SWAP1 PUSH2 0x2340 JUMP JUMPDEST PUSH1 0x0 DUP3 GT PUSH2 0x178E JUMPI PUSH1 0x40 MLOAD PUSH3 0x461BCD PUSH1 0xE5 SHL DUP2 MSTORE PUSH1 0x20 PUSH1 0x4 DUP3 ADD MSTORE PUSH1 0x19 PUSH1 0x24 DUP3 ADD MSTORE PUSH32 0x426F617264726F6F6D3A2043616E6E6F74207374616B65203000000000000000 PUSH1 0x44 DUP3 ADD MSTORE PUSH1 0x64 ADD PUSH2 0x743 JUMP JUMPDEST PUSH1 0xC SLOAD ISZERO PUSH2 0x17E3 JUMPI PUSH1 0x0 PUSH2 0x17B3 PUSH2 0x2710 PUSH2 0x5C0 PUSH1 0xC SLOAD DUP7 PUSH2 0x1DBE SWAP1 SWAP2 SWAP1 PUSH4 0xFFFFFFFF AND JUMP JUMPDEST SWAP1 POP PUSH2 0x17BF DUP4 DUP3 PUSH2 0x1DAB JUMP JUMPDEST PUSH1 0xD SLOAD PUSH1 0x0 SLOAD SWAP2 SWAP5 POP PUSH2 0x17E1 SWAP2 PUSH1 0x1 PUSH1 0x1 PUSH1 0xA0 SHL SUB SWAP1 DUP2 AND SWAP2 CALLER SWAP2 AND DUP5 PUSH2 0x1F05 JUMP JUMPDEST POP JUMPDEST PUSH2 0x17EC DUP3 PUSH2 0x1F43 JUMP JUMPDEST PUSH1 0x6 PUSH1 0x0 SWAP1 SLOAD SWAP1 PUSH2 0x100 EXP SWAP1 DIV PUSH1 0x1 PUSH1 0x1 PUSH1 0xA0 SHL SUB AND PUSH1 0x1 PUSH1 0x1 PUSH1 0xA0 SHL SUB AND PUSH4 0x900CF0CF PUSH1 0x40 MLOAD DUP2 PUSH4 0xFFFFFFFF AND PUSH1 0xE0 SHL DUP2 MSTORE PUSH1 0x4 ADD PUSH1 0x20 PUSH1 0x40 MLOAD DUP1 DUP4 SUB DUP2 DUP7 GAS STATICCALL ISZERO DUP1 ISZERO PUSH2 0x183F JUMPI RETURNDATASIZE PUSH1 0x0 DUP1 RETURNDATACOPY RETURNDATASIZE PUSH1 0x0 REVERT JUMPDEST POP POP POP POP PUSH1 0x40 MLOAD RETURNDATASIZE PUSH1 0x1F NOT PUSH1 0x1F DUP3 ADD AND DUP3 ADD DUP1 PUSH1 0x40 MSTORE POP DUP2 ADD SWAP1 PUSH2 0x1863 SWAP2 SWAP1 PUSH2 0x22E1 JUMP JUMPDEST CALLER PUSH1 0x0 DUP2 DUP2 MSTORE PUSH1 0x8 PUSH1 0x20 MSTORE PUSH1 0x40 SWAP1 DUP2 SWAP1 KECCAK256 PUSH1 0x2 ADD SWAP3 SWAP1 SWAP3 SSTORE SWAP1 MLOAD PUSH32 0x9E71BC8EEA02A63969F509818F2DAFB9254532904319F9DBDA79B67BD34A5F3D SWAP1 PUSH2 0xA57 SWAP1 DUP6 DUP2 MSTORE PUSH1 0x20 ADD SWAP1 JUMP JUMPDEST PUSH1 0x4 SLOAD PUSH1 0x1 PUSH1 0x1 PUSH1 0xA0 SHL SUB AND CALLER EQ PUSH2 0x18D6 JUMPI PUSH1 0x40 MLOAD PUSH3 0x461BCD PUSH1 0xE5 SHL DUP2 MSTORE PUSH1 0x4 ADD PUSH2 0x743 SWAP1 PUSH2 0x2363 JUMP JUMPDEST PUSH1 0x4 DUP1 SLOAD PUSH1 0x1 PUSH1 0x1 PUSH1 0xA0 SHL SUB NOT AND PUSH1 0x1 PUSH1 0x1 PUSH1 0xA0 SHL SUB SWAP3 SWAP1 SWAP3 AND SWAP2 SWAP1 SWAP2 OR SWAP1 SSTORE JUMP JUMPDEST CALLER DUP1 ISZERO PUSH2 0x1989 JUMPI PUSH1 0x1 PUSH1 0x1 PUSH1 0xA0 SHL SUB DUP2 AND PUSH1 0x0 SWAP1 DUP2 MSTORE PUSH1 0x8 PUSH1 0x20 SWAP1 DUP2 MSTORE PUSH1 0x40 SWAP2 DUP3 SWAP1 KECCAK256 DUP3 MLOAD PUSH1 0x60 DUP2 ADD DUP5 MSTORE DUP2 SLOAD DUP2 MSTORE PUSH1 0x1 DUP3 ADD SLOAD SWAP3 DUP2 ADD SWAP3 SWAP1 SWAP3 MSTORE PUSH1 0x2 ADD SLOAD SWAP2 DUP2 ADD SWAP2 SWAP1 SWAP2 MSTORE PUSH2 0x1947 DUP3 PUSH2 0x543 JUMP JUMPDEST PUSH1 0x20 DUP3 ADD MSTORE PUSH2 0x1954 PUSH2 0xB01 JUMP JUMPDEST DUP2 MSTORE PUSH1 0x1 PUSH1 0x1 PUSH1 0xA0 SHL SUB DUP3 AND PUSH1 0x0 SWAP1 DUP2 MSTORE PUSH1 0x8 PUSH1 0x20 SWAP1 DUP2 MSTORE PUSH1 0x40 SWAP2 DUP3 SWAP1 KECCAK256 DUP4 MLOAD DUP2 SSTORE SWAP1 DUP4 ADD MLOAD PUSH1 0x1 DUP3 ADD SSTORE SWAP2 ADD MLOAD PUSH1 0x2 SWAP1 SWAP2 ADD SSTORE JUMPDEST PUSH2 0x1992 CALLER PUSH2 0x1C19 JUMP JUMPDEST ISZERO PUSH2 0x19AF JUMPI PUSH1 0x40 MLOAD PUSH3 0x461BCD PUSH1 0xE5 SHL DUP2 MSTORE PUSH1 0x4 ADD PUSH2 0x743 SWAP1 PUSH2 0x2340 JUMP JUMPDEST CALLER PUSH1 0x0 SWAP1 DUP2 MSTORE PUSH1 0x8 PUSH1 0x20 MSTORE PUSH1 0x40 SWAP1 KECCAK256 PUSH1 0x1 ADD SLOAD DUP1 ISZERO PUSH2 0x1B98 JUMPI PUSH1 0x6 PUSH1 0x0 SWAP1 SLOAD SWAP1 PUSH2 0x100 EXP SWAP1 DIV PUSH1 0x1 PUSH1 0x1 PUSH1 0xA0 SHL SUB AND PUSH1 0x1 PUSH1 0x1 PUSH1 0xA0 SHL SUB AND PUSH4 0x900CF0CF PUSH1 0x40 MLOAD DUP2 PUSH4 0xFFFFFFFF AND PUSH1 0xE0 SHL DUP2 MSTORE PUSH1 0x4 ADD PUSH1 0x20 PUSH1 0x40 MLOAD DUP1 DUP4 SUB DUP2 DUP7 GAS STATICCALL ISZERO DUP1 ISZERO PUSH2 0x1A1B JUMPI RETURNDATASIZE PUSH1 0x0 DUP1 RETURNDATACOPY RETURNDATASIZE PUSH1 0x0 REVERT JUMPDEST POP POP POP POP PUSH1 0x40 MLOAD RETURNDATASIZE PUSH1 0x1F NOT PUSH1 0x1F DUP3 ADD AND DUP3 ADD DUP1 PUSH1 0x40 MSTORE POP DUP2 ADD SWAP1 PUSH2 0x1A3F SWAP2 SWAP1 PUSH2 0x22E1 JUMP JUMPDEST PUSH1 0xB SLOAD CALLER PUSH1 0x0 SWAP1 DUP2 MSTORE PUSH1 0x8 PUSH1 0x20 MSTORE PUSH1 0x40 SWAP1 KECCAK256 PUSH1 0x2 ADD SLOAD PUSH2 0x1A5E SWAP2 PUSH2 0x1DD6 JUMP JUMPDEST GT ISZERO PUSH2 0x1AB6 JUMPI PUSH1 0x40 MLOAD PUSH3 0x461BCD PUSH1 0xE5 SHL DUP2 MSTORE PUSH1 0x20 PUSH1 0x4 DUP3 ADD MSTORE PUSH1 0x21 PUSH1 0x24 DUP3 ADD MSTORE PUSH32 0x426F617264726F6F6D3A207374696C6C20696E20726577617264206C6F636B75 PUSH1 0x44 DUP3 ADD MSTORE PUSH1 0x7 PUSH1 0xFC SHL PUSH1 0x64 DUP3 ADD MSTORE PUSH1 0x84 ADD PUSH2 0x743 JUMP JUMPDEST PUSH1 0x6 PUSH1 0x0 SWAP1 SLOAD SWAP1 PUSH2 0x100 EXP SWAP1 DIV PUSH1 0x1 PUSH1 0x1 PUSH1 0xA0 SHL SUB AND PUSH1 0x1 PUSH1 0x1 PUSH1 0xA0 SHL SUB AND PUSH4 0x900CF0CF PUSH1 0x40 MLOAD DUP2 PUSH4 0xFFFFFFFF AND PUSH1 0xE0 SHL DUP2 MSTORE PUSH1 0x4 ADD PUSH1 0x20 PUSH1 0x40 MLOAD DUP1 DUP4 SUB DUP2 DUP7 GAS STATICCALL ISZERO DUP1 ISZERO PUSH2 0x1B09 JUMPI RETURNDATASIZE PUSH1 0x0 DUP1 RETURNDATACOPY RETURNDATASIZE PUSH1 0x0 REVERT JUMPDEST POP POP POP POP PUSH1 0x40 MLOAD RETURNDATASIZE PUSH1 0x1F NOT PUSH1 0x1F DUP3 ADD AND DUP3 ADD DUP1 PUSH1 0x40 MSTORE POP DUP2 ADD SWAP1 PUSH2 0x1B2D SWAP2 SWAP1 PUSH2 0x22E1 JUMP JUMPDEST CALLER PUSH1 0x0 DUP2 DUP2 MSTORE PUSH1 0x8 PUSH1 0x20 MSTORE PUSH1 0x40 DUP2 KECCAK256 PUSH1 0x2 DUP2 ADD SWAP4 SWAP1 SWAP4 SSTORE PUSH1 0x1 SWAP1 SWAP3 ADD SWAP2 SWAP1 SWAP2 SSTORE PUSH1 0x5 SLOAD PUSH2 0x1B66 SWAP2 PUSH1 0x1 PUSH1 0x1 PUSH1 0xA0 SHL SUB SWAP1 SWAP2 AND SWAP1 DUP4 PUSH2 0x1EA2 JUMP JUMPDEST PUSH1 0x40 MLOAD DUP2 DUP2 MSTORE CALLER SWAP1 PUSH32 0xE2403640BA68FED3A2F88B7557551D1993F84B99BB10FF833F0CF8DB0C5E0486 SWAP1 PUSH1 0x20 ADD PUSH2 0xA57 JUMP JUMPDEST POP POP JUMP JUMPDEST PUSH1 0x9 DUP2 DUP2 SLOAD DUP2 LT PUSH2 0x1BAC JUMPI PUSH1 0x0 DUP1 REVERT JUMPDEST PUSH1 0x0 SWAP2 DUP3 MSTORE PUSH1 0x20 SWAP1 SWAP2 KECCAK256 PUSH1 0x3 SWAP1 SWAP2 MUL ADD DUP1 SLOAD PUSH1 0x1 DUP3 ADD SLOAD PUSH1 0x2 SWAP1 SWAP3 ADD SLOAD SWAP1 SWAP3 POP DUP4 JUMP JUMPDEST PUSH1 0x6 SLOAD PUSH1 0x40 DUP1 MLOAD PUSH4 0x62CB3E13 PUSH1 0xE1 SHL DUP2 MSTORE SWAP1 MLOAD PUSH1 0x0 SWAP3 PUSH1 0x1 PUSH1 0x1 PUSH1 0xA0 SHL SUB AND SWAP2 PUSH4 0xC5967C26 SWAP2 PUSH1 0x4 DUP1 DUP4 ADD SWAP3 PUSH1 0x20 SWAP3 SWAP2 SWAP1 DUP3 SWAP1 SUB ADD DUP2 DUP7 GAS STATICCALL ISZERO DUP1 ISZERO PUSH2 0xB74 JUMPI RETURNDATASIZE PUSH1 0x0 DUP1 RETURNDATACOPY RETURNDATASIZE PUSH1 0x0 REVERT JUMPDEST PUSH1 0x1 PUSH1 0x1 PUSH1 0xA0 SHL SUB AND PUSH1 0x0 SWAP1 DUP2 MSTORE PUSH1 0x7 PUSH1 0x20 MSTORE PUSH1 0x40 SWAP1 KECCAK256 SLOAD PUSH1 0xFF AND SWAP1 JUMP JUMPDEST CALLER PUSH1 0x0 SWAP1 DUP2 MSTORE PUSH1 0x2 PUSH1 0x20 MSTORE PUSH1 0x40 SWAP1 KECCAK256 SLOAD PUSH2 0x1C50 SWAP1 PUSH2 0x708 JUMP JUMPDEST JUMP JUMPDEST PUSH1 0x4 SLOAD PUSH1 0x1 PUSH1 0x1 PUSH1 0xA0 SHL SUB AND CALLER EQ PUSH2 0x1C7C JUMPI PUSH1 0x40 MLOAD PUSH3 0x461BCD PUSH1 0xE5 SHL DUP2 MSTORE PUSH1 0x4 ADD PUSH2 0x743 SWAP1 PUSH2 0x2363 JUMP JUMPDEST PUSH1 0xD DUP1 SLOAD PUSH1 0x1 PUSH1 0x1 PUSH1 0xA0 SHL SUB NOT AND PUSH1 0x1 PUSH1 0x1 PUSH1 0xA0 SHL SUB SWAP3 SWAP1 SWAP3 AND SWAP2 SWAP1 SWAP2 OR SWAP1 SSTORE JUMP JUMPDEST PUSH2 0x1CC2 PUSH1 0x40 MLOAD DUP1 PUSH1 0x60 ADD PUSH1 0x40 MSTORE DUP1 PUSH1 0x0 DUP2 MSTORE PUSH1 0x20 ADD PUSH1 0x0 DUP2 MSTORE PUSH1 0x20 ADD PUSH1 0x0 DUP2 MSTORE POP SWAP1 JUMP JUMPDEST PUSH1 0x9 PUSH2 0x1CCC PUSH2 0xB01 JUMP JUMPDEST DUP2 SLOAD DUP2 LT PUSH2 0x1CDC JUMPI PUSH2 0x1CDC PUSH2 0x23A8 JUMP JUMPDEST SWAP1 PUSH1 0x0 MSTORE PUSH1 0x20 PUSH1 0x0 KECCAK256 SWAP1 PUSH1 0x3 MUL ADD PUSH1 0x40 MLOAD DUP1 PUSH1 0x60 ADD PUSH1 0x40 MSTORE SWAP1 DUP2 PUSH1 0x0 DUP3 ADD SLOAD DUP2 MSTORE PUSH1 0x20 ADD PUSH1 0x1 DUP3 ADD SLOAD DUP2 MSTORE PUSH1 0x20 ADD PUSH1 0x2 DUP3 ADD SLOAD DUP2 MSTORE POP POP SWAP1 POP SWAP1 JUMP JUMPDEST PUSH2 0x1D3C PUSH1 0x40 MLOAD DUP1 PUSH1 0x60 ADD PUSH1 0x40 MSTORE DUP1 PUSH1 0x0 DUP2 MSTORE PUSH1 0x20 ADD PUSH1 0x0 DUP2 MSTORE PUSH1 0x20 ADD PUSH1 0x0 DUP2 MSTORE POP SWAP1 JUMP JUMPDEST PUSH1 0x9 PUSH2 0x1D5D DUP4 PUSH1 0x1 PUSH1 0x1 PUSH1 0xA0 SHL SUB AND PUSH1 0x0 SWAP1 DUP2 MSTORE PUSH1 0x8 PUSH1 0x20 MSTORE PUSH1 0x40 SWAP1 KECCAK256 SLOAD SWAP1 JUMP JUMPDEST DUP2 SLOAD DUP2 LT PUSH2 0x1D6D JUMPI PUSH2 0x1D6D PUSH2 0x23A8 JUMP JUMPDEST SWAP1 PUSH1 0x0 MSTORE PUSH1 0x20 PUSH1 0x0 KECCAK256 SWAP1 PUSH1 0x3 MUL ADD PUSH1 0x40 MLOAD DUP1 PUSH1 0x60 ADD PUSH1 0x40 MSTORE SWAP1 DUP2 PUSH1 0x0 DUP3 ADD SLOAD DUP2 MSTORE PUSH1 0x20 ADD PUSH1 0x1 DUP3 ADD SLOAD DUP2 MSTORE PUSH1 0x20 ADD PUSH1 0x2 DUP3 ADD SLOAD DUP2 MSTORE POP POP SWAP1 POP SWAP2 SWAP1 POP JUMP JUMPDEST PUSH1 0x0 PUSH2 0x1DB7 DUP3 DUP5 PUSH2 0x23D4 JUMP JUMPDEST SWAP4 SWAP3 POP POP POP JUMP JUMPDEST PUSH1 0x0 PUSH2 0x1DB7 DUP3 DUP5 PUSH2 0x23EB JUMP JUMPDEST PUSH1 0x0 PUSH2 0x1DB7 DUP3 DUP5 PUSH2 0x240A JUMP JUMPDEST PUSH1 0x0 PUSH2 0x1DB7 DUP3 DUP5 PUSH2 0x242C JUMP JUMPDEST CALLER PUSH1 0x0 SWAP1 DUP2 MSTORE PUSH1 0x2 PUSH1 0x20 MSTORE PUSH1 0x40 SWAP1 KECCAK256 SLOAD DUP2 DUP2 LT ISZERO PUSH2 0x1E61 JUMPI PUSH1 0x40 MLOAD PUSH3 0x461BCD PUSH1 0xE5 SHL DUP2 MSTORE PUSH1 0x20 PUSH1 0x4 DUP3 ADD MSTORE PUSH1 0x36 PUSH1 0x24 DUP3 ADD MSTORE PUSH32 0x426F617264726F6F6D3A20776974686472617720726571756573742067726561 PUSH1 0x44 DUP3 ADD MSTORE PUSH22 0x1D195C881D1A185B881CDD185AD95908185B5BDD5B9D PUSH1 0x52 SHL PUSH1 0x64 DUP3 ADD MSTORE PUSH1 0x84 ADD PUSH2 0x743 JUMP JUMPDEST PUSH1 0x1 SLOAD PUSH2 0x1E6E SWAP1 DUP4 PUSH2 0x1DAB JUMP JUMPDEST PUSH1 0x1 SSTORE PUSH2 0x1E7B DUP2 DUP4 PUSH2 0x1DAB JUMP JUMPDEST CALLER PUSH1 0x0 DUP2 DUP2 MSTORE PUSH1 0x2 PUSH1 0x20 MSTORE PUSH1 0x40 DUP2 KECCAK256 SWAP3 SWAP1 SWAP3 SSTORE SWAP1 SLOAD PUSH2 0x1B98 SWAP2 PUSH1 0x1 PUSH1 0x1 PUSH1 0xA0 SHL SUB SWAP1 SWAP2 AND SWAP1 DUP5 JUMPDEST PUSH1 0x40 MLOAD PUSH1 0x1 PUSH1 0x1 PUSH1 0xA0 SHL SUB DUP4 AND PUSH1 0x24 DUP3 ADD MSTORE PUSH1 0x44 DUP2 ADD DUP3 SWAP1 MSTORE PUSH2 0x10E0 SWAP1 DUP5 SWAP1 PUSH4 0xA9059CBB PUSH1 0xE0 SHL SWAP1 PUSH1 0x64 ADD JUMPDEST PUSH1 0x40 DUP1 MLOAD PUSH1 0x1F NOT DUP2 DUP5 SUB ADD DUP2 MSTORE SWAP2 SWAP1 MSTORE PUSH1 0x20 DUP2 ADD DUP1 MLOAD PUSH1 0x1 PUSH1 0x1 PUSH1 0xE0 SHL SUB AND PUSH1 0x1 PUSH1 0x1 PUSH1 0xE0 SHL SUB NOT SWAP1 SWAP4 AND SWAP3 SWAP1 SWAP3 OR SWAP1 SWAP2 MSTORE PUSH2 0x1F9C JUMP JUMPDEST PUSH1 0x40 MLOAD PUSH1 0x1 PUSH1 0x1 PUSH1 0xA0 SHL SUB DUP1 DUP6 AND PUSH1 0x24 DUP4 ADD MSTORE DUP4 AND PUSH1 0x44 DUP3 ADD MSTORE PUSH1 0x64 DUP2 ADD DUP3 SWAP1 MSTORE PUSH2 0x1F3D SWAP1 DUP6 SWAP1 PUSH4 0x23B872DD PUSH1 0xE0 SHL SWAP1 PUSH1 0x84 ADD PUSH2 0x1ECE JUMP JUMPDEST POP POP POP POP JUMP JUMPDEST PUSH1 0x1 SLOAD PUSH2 0x1F50 SWAP1 DUP3 PUSH2 0x1DD6 JUMP JUMPDEST PUSH1 0x1 SSTORE CALLER PUSH1 0x0 SWAP1 DUP2 MSTORE PUSH1 0x2 PUSH1 0x20 MSTORE PUSH1 0x40 SWAP1 KECCAK256 SLOAD PUSH2 0x1F6D SWAP1 DUP3 PUSH2 0x1DD6 JUMP JUMPDEST CALLER PUSH1 0x0 DUP2 DUP2 MSTORE PUSH1 0x2 PUSH1 0x20 MSTORE PUSH1 0x40 DUP2 KECCAK256 SWAP3 SWAP1 SWAP3 SSTORE SWAP1 SLOAD PUSH2 0x1F99 SWAP2 PUSH1 0x1 PUSH1 0x1 PUSH1 0xA0 SHL SUB SWAP1 SWAP2 AND SWAP1 ADDRESS DUP5 PUSH2 0x1F05 JUMP JUMPDEST POP JUMP JUMPDEST PUSH1 0x0 PUSH2 0x1FF1 DUP3 PUSH1 0x40 MLOAD DUP1 PUSH1 0x40 ADD PUSH1 0x40 MSTORE DUP1 PUSH1 0x20 DUP2 MSTORE PUSH1 0x20 ADD PUSH32 0x5361666545524332303A206C6F772D6C6576656C2063616C6C206661696C6564 DUP2 MSTORE POP DUP6 PUSH1 0x1 PUSH1 0x1 PUSH1 0xA0 SHL SUB AND PUSH2 0x206E SWAP1 SWAP3 SWAP2 SWAP1 PUSH4 0xFFFFFFFF AND JUMP JUMPDEST DUP1 MLOAD SWAP1 SWAP2 POP ISZERO PUSH2 0x10E0 JUMPI DUP1 DUP1 PUSH1 0x20 ADD SWAP1 MLOAD DUP2 ADD SWAP1 PUSH2 0x200F SWAP2 SWAP1 PUSH2 0x2444 JUMP JUMPDEST PUSH2 0x10E0 JUMPI PUSH1 0x40 MLOAD PUSH3 0x461BCD PUSH1 0xE5 SHL DUP2 MSTORE PUSH1 0x20 PUSH1 0x4 DUP3 ADD MSTORE PUSH1 0x2A PUSH1 0x24 DUP3 ADD MSTORE PUSH32 0x5361666545524332303A204552433230206F7065726174696F6E20646964206E PUSH1 0x44 DUP3 ADD MSTORE PUSH10 0x1BDD081CDD58D8D95959 PUSH1 0xB2 SHL PUSH1 0x64 DUP3 ADD MSTORE PUSH1 0x84 ADD PUSH2 0x743 JUMP JUMPDEST PUSH1 0x60 PUSH2 0x5CC DUP5 DUP5 PUSH1 0x0 DUP6 DUP6 PUSH1 0x0 DUP1 DUP7 PUSH1 0x1 PUSH1 0x1 PUSH1 0xA0 SHL SUB AND DUP6 DUP8 PUSH1 0x40 MLOAD PUSH2 0x2095 SWAP2 SWAP1 PUSH2 0x2492 JUMP JUMPDEST PUSH1 0x0 PUSH1 0x40 MLOAD DUP1 DUP4 SUB DUP2 DUP6 DUP8 GAS CALL SWAP3 POP POP POP RETURNDATASIZE DUP1 PUSH1 0x0 DUP2 EQ PUSH2 0x20D2 JUMPI PUSH1 0x40 MLOAD SWAP2 POP PUSH1 0x1F NOT PUSH1 0x3F RETURNDATASIZE ADD AND DUP3 ADD PUSH1 0x40 MSTORE RETURNDATASIZE DUP3 MSTORE RETURNDATASIZE PUSH1 0x0 PUSH1 0x20 DUP5 ADD RETURNDATACOPY PUSH2 0x20D7 JUMP JUMPDEST PUSH1 0x60 SWAP2 POP JUMPDEST POP SWAP2 POP SWAP2 POP PUSH2 0x20E8 DUP8 DUP4 DUP4 DUP8 PUSH2 0x20F3 JUMP JUMPDEST SWAP8 SWAP7 POP POP POP POP POP POP POP JUMP JUMPDEST PUSH1 0x60 DUP4 ISZERO PUSH2 0x2162 JUMPI DUP3 MLOAD PUSH1 0x0 SUB PUSH2 0x215B JUMPI PUSH1 0x1 PUSH1 0x1 PUSH1 0xA0 SHL SUB DUP6 AND EXTCODESIZE PUSH2 0x215B JUMPI PUSH1 0x40 MLOAD PUSH3 0x461BCD PUSH1 0xE5 SHL DUP2 MSTORE PUSH1 0x20 PUSH1 0x4 DUP3 ADD MSTORE PUSH1 0x1D PUSH1 0x24 DUP3 ADD MSTORE PUSH32 0x416464726573733A2063616C6C20746F206E6F6E2D636F6E7472616374000000 PUSH1 0x44 DUP3 ADD MSTORE PUSH1 0x64 ADD PUSH2 0x743 JUMP JUMPDEST POP DUP2 PUSH2 0x5CC JUMP JUMPDEST PUSH2 0x5CC DUP4 DUP4 DUP2 MLOAD ISZERO PUSH2 0x2177 JUMPI DUP2 MLOAD DUP1 DUP4 PUSH1 0x20 ADD REVERT JUMPDEST DUP1 PUSH1 0x40 MLOAD PUSH3 0x461BCD PUSH1 0xE5 SHL DUP2 MSTORE PUSH1 0x4 ADD PUSH2 0x743 SWAP2 SWAP1 PUSH2 0x24AE JUMP JUMPDEST PUSH1 0x1 PUSH1 0x1 PUSH1 0xA0 SHL SUB DUP2 AND DUP2 EQ PUSH2 0x1F99 JUMPI PUSH1 0x0 DUP1 REVERT JUMPDEST PUSH1 0x0 PUSH1 0x20 DUP3 DUP5 SUB SLT ISZERO PUSH2 0x21B8 JUMPI PUSH1 0x0 DUP1 REVERT JUMPDEST DUP2 CALLDATALOAD PUSH2 0x1DB7 DUP2 PUSH2 0x2191 JUMP JUMPDEST PUSH1 0x0 PUSH1 0x20 DUP3 DUP5 SUB SLT ISZERO PUSH2 0x21D5 JUMPI PUSH1 0x0 DUP1 REVERT JUMPDEST POP CALLDATALOAD SWAP2 SWAP1 POP JUMP JUMPDEST PUSH1 0x0 DUP1 PUSH1 0x40 DUP4 DUP6 SUB SLT ISZERO PUSH2 0x21EF JUMPI PUSH1 0x0 DUP1 REVERT JUMPDEST POP POP DUP1 CALLDATALOAD SWAP3 PUSH1 0x20 SWAP1 SWAP2 ADD CALLDATALOAD SWAP2 POP JUMP JUMPDEST PUSH1 0x0 DUP1 PUSH1 0x0 DUP1 PUSH1 0x0 PUSH1 0xA0 DUP7 DUP9 SUB SLT ISZERO PUSH2 0x2216 JUMPI PUSH1 0x0 DUP1 REVERT JUMPDEST DUP6 CALLDATALOAD PUSH2 0x2221 DUP2 PUSH2 0x2191 JUMP JUMPDEST SWAP5 POP PUSH1 0x20 DUP7 ADD CALLDATALOAD PUSH2 0x2231 DUP2 PUSH2 0x2191 JUMP JUMPDEST SWAP4 POP PUSH1 0x40 DUP7 ADD CALLDATALOAD PUSH2 0x2241 DUP2 PUSH2 0x2191 JUMP JUMPDEST SWAP3 POP PUSH1 0x60 DUP7 ADD CALLDATALOAD SWAP2 POP PUSH1 0x80 DUP7 ADD CALLDATALOAD PUSH2 0x2258 DUP2 PUSH2 0x2191 JUMP JUMPDEST DUP1 SWAP2 POP POP SWAP3 SWAP6 POP SWAP3 SWAP6 SWAP1 SWAP4 POP JUMP JUMPDEST PUSH1 0x0 DUP1 PUSH1 0x40 DUP4 DUP6 SUB SLT ISZERO PUSH2 0x2279 JUMPI PUSH1 0x0 DUP1 REVERT JUMPDEST DUP3 CALLDATALOAD PUSH2 0x2284 DUP2 PUSH2 0x2191 JUMP JUMPDEST SWAP2 POP PUSH1 0x20 DUP4 ADD CALLDATALOAD PUSH2 0x2294 DUP2 PUSH2 0x2191 JUMP JUMPDEST DUP1 SWAP2 POP POP SWAP3 POP SWAP3 SWAP1 POP JUMP JUMPDEST PUSH1 0x0 DUP1 PUSH1 0x0 PUSH1 0x60 DUP5 DUP7 SUB SLT ISZERO PUSH2 0x22B4 JUMPI PUSH1 0x0 DUP1 REVERT JUMPDEST DUP4 CALLDATALOAD PUSH2 0x22BF DUP2 PUSH2 0x2191 JUMP JUMPDEST SWAP3 POP PUSH1 0x20 DUP5 ADD CALLDATALOAD SWAP2 POP PUSH1 0x40 DUP5 ADD CALLDATALOAD PUSH2 0x22D6 DUP2 PUSH2 0x2191 JUMP JUMPDEST DUP1 SWAP2 POP POP SWAP3 POP SWAP3 POP SWAP3 JUMP JUMPDEST PUSH1 0x0 PUSH1 0x20 DUP3 DUP5 SUB SLT ISZERO PUSH2 0x22F3 JUMPI PUSH1 0x0 DUP1 REVERT JUMPDEST POP MLOAD SWAP2 SWAP1 POP JUMP JUMPDEST PUSH1 0x20 DUP1 DUP3 MSTORE PUSH1 0x26 SWAP1 DUP3 ADD MSTORE PUSH32 0x436F6E747261637447756172643A206F6E6520626C6F636B2C206F6E65206675 PUSH1 0x40 DUP3 ADD MSTORE PUSH6 0x3731BA34B7B7 PUSH1 0xD1 SHL PUSH1 0x60 DUP3 ADD MSTORE PUSH1 0x80 ADD SWAP1 JUMP JUMPDEST PUSH1 0x20 DUP1 DUP3 MSTORE PUSH1 0x9 SWAP1 DUP3 ADD MSTORE PUSH9 0x189B1858DADB1A5CDD PUSH1 0xBA SHL PUSH1 0x40 DUP3 ADD MSTORE PUSH1 0x60 ADD SWAP1 JUMP JUMPDEST PUSH1 0x20 DUP1 DUP3 MSTORE PUSH1 0x25 SWAP1 DUP3 ADD MSTORE PUSH32 0x426F617264726F6F6D3A2063616C6C6572206973206E6F7420746865206F7065 PUSH1 0x40 DUP3 ADD MSTORE PUSH5 0x3930BA37B9 PUSH1 0xD9 SHL PUSH1 0x60 DUP3 ADD MSTORE PUSH1 0x80 ADD SWAP1 JUMP JUMPDEST PUSH4 0x4E487B71 PUSH1 0xE0 SHL PUSH1 0x0 MSTORE PUSH1 0x32 PUSH1 0x4 MSTORE PUSH1 0x24 PUSH1 0x0 REVERT JUMPDEST PUSH4 0x4E487B71 PUSH1 0xE0 SHL PUSH1 0x0 MSTORE PUSH1 0x11 PUSH1 0x4 MSTORE PUSH1 0x24 PUSH1 0x0 REVERT JUMPDEST PUSH1 0x0 DUP3 DUP3 LT ISZERO PUSH2 0x23E6 JUMPI PUSH2 0x23E6 PUSH2 0x23BE JUMP JUMPDEST POP SUB SWAP1 JUMP JUMPDEST PUSH1 0x0 DUP2 PUSH1 0x0 NOT DIV DUP4 GT DUP3 ISZERO ISZERO AND ISZERO PUSH2 0x2405 JUMPI PUSH2 0x2405 PUSH2 0x23BE JUMP JUMPDEST POP MUL SWAP1 JUMP JUMPDEST PUSH1 0x0 DUP3 PUSH2 0x2427 JUMPI PUSH4 0x4E487B71 PUSH1 0xE0 SHL PUSH1 0x0 MSTORE PUSH1 0x12 PUSH1 0x4 MSTORE PUSH1 0x24 PUSH1 0x0 REVERT JUMPDEST POP DIV SWAP1 JUMP JUMPDEST PUSH1 0x0 DUP3 NOT DUP3 GT ISZERO PUSH2 0x243F JUMPI PUSH2 0x243F PUSH2 0x23BE JUMP JUMPDEST POP ADD SWAP1 JUMP JUMPDEST PUSH1 0x0 PUSH1 0x20 DUP3 DUP5 SUB SLT ISZERO PUSH2 0x2456 JUMPI PUSH1 0x0 DUP1 REVERT JUMPDEST DUP2 MLOAD DUP1 ISZERO ISZERO DUP2 EQ PUSH2 0x1DB7 JUMPI PUSH1 0x0 DUP1 REVERT JUMPDEST PUSH1 0x0 JUMPDEST DUP4 DUP2 LT ISZERO PUSH2 0x2481 JUMPI DUP2 DUP2 ADD MLOAD DUP4 DUP3 ADD MSTORE PUSH1 0x20 ADD PUSH2 0x2469 JUMP JUMPDEST DUP4 DUP2 GT ISZERO PUSH2 0x1F3D JUMPI POP POP PUSH1 0x0 SWAP2 ADD MSTORE JUMP JUMPDEST PUSH1 0x0 DUP3 MLOAD PUSH2 0x24A4 DUP2 DUP5 PUSH1 0x20 DUP8 ADD PUSH2 0x2466 JUMP JUMPDEST SWAP2 SWAP1 SWAP2 ADD SWAP3 SWAP2 POP POP JUMP JUMPDEST PUSH1 0x20 DUP2 MSTORE PUSH1 0x0 DUP3 MLOAD DUP1 PUSH1 0x20 DUP5 ADD MSTORE PUSH2 0x24CD DUP2 PUSH1 0x40 DUP6 ADD PUSH1 0x20 DUP8 ADD PUSH2 0x2466 JUMP JUMPDEST PUSH1 0x1F ADD PUSH1 0x1F NOT AND SWAP2 SWAP1 SWAP2 ADD PUSH1 0x40 ADD SWAP3 SWAP2 POP POP JUMP INVALID LOG2 PUSH5 0x6970667358 0x22 SLT KECCAK256 MSTORE 0xD1 SMOD 0xAB 0x2A PUSH32 0x8C608B5B3692E0D3C6F4C1EB5913601D280C03F54E70774A6BB364736F6C6343 STOP ADDMOD 0xD STOP CALLER "
		},
		"gasEstimates": {
			"creation": {
				"codeDepositCost": "1899000",
				"executionCost": "26229",
				"totalCost": "1925229"
			},
			"external": {
				"addAddressBlacklist(address)": "29173",
				"allocateSeigniorage(uint256)": "infinite",
				"balanceOf(address)": "2632",
				"blacklist(address)": "2635",
				"blacklistFundWithdraw(address,address)": "infinite",
				"boardroomHistory(uint256)": "8947",
				"canClaimReward(address)": "infinite",
				"canWithdraw(address)": "infinite",
				"claimReward()": "infinite",
				"earned(address)": "infinite",
				"epoch()": "infinite",
				"exit()": "infinite",
				"fee()": "2328",
				"feeTo()": "2406",
				"getLastSnapshotIndexOf(address)": "2565",
				"getTokenPrice()": "infinite",
				"governanceRecoverUnsupported(address,uint256,address)": "infinite",
				"initialize(address,address,address,uint256,address)": "infinite",
				"initialized()": "2395",
				"isAddressBlacklist(address)": "2688",
				"latestSnapshotIndex()": "2509",
				"members(address)": "6834",
				"nextEpochPoint()": "infinite",
				"operator()": "2448",
				"removeAddressBlacklist(address)": "29115",
				"rewardLockupEpochs()": "2375",
				"rewardPerShare()": "11284",
				"setFee(uint256)": "24558",
				"setFeeTo(address)": "26793",
				"setLockUp(uint256,uint256)": "46727",
				"setOperator(address)": "26750",
				"share()": "2470",
				"stake(uint256)": "infinite",
				"token()": "2469",
				"totalSupply()": "2371",
				"treasury()": "2383",
				"withdraw(uint256)": "infinite",
				"withdrawLockupEpochs()": "2418"
			},
			"internal": {
				"getLastSnapshotOf(address)": "infinite",
				"getLatestSnapshot()": "infinite"
			}
		},
		"methodIdentifiers": {
			"addAddressBlacklist(address)": "5db76731",
			"allocateSeigniorage(uint256)": "97ffe1d7",
			"balanceOf(address)": "70a08231",
			"blacklist(address)": "f9f92be4",
			"blacklistFundWithdraw(address,address)": "53c03829",
			"boardroomHistory(uint256)": "c58e3843",
			"canClaimReward(address)": "046335d0",
			"canWithdraw(address)": "19262d30",
			"claimReward()": "b88a802f",
			"earned(address)": "008cc262",
			"epoch()": "900cf0cf",
			"exit()": "e9fad8ee",
			"fee()": "ddca3f43",
			"feeTo()": "017e7e58",
			"getLastSnapshotIndexOf(address)": "714b4658",
			"getTokenPrice()": "4b94f50e",
			"governanceRecoverUnsupported(address,uint256,address)": "54575af4",
			"initialize(address,address,address,uint256,address)": "530b97a4",
			"initialized()": "158ef93e",
			"isAddressBlacklist(address)": "d256d48a",
			"latestSnapshotIndex()": "3f9e3f04",
			"members(address)": "08ae4b0c",
			"nextEpochPoint()": "c5967c26",
			"operator()": "570ca735",
			"removeAddressBlacklist(address)": "6cee85c2",
			"rewardLockupEpochs()": "022ba18d",
			"rewardPerShare()": "446a2ec8",
			"setFee(uint256)": "69fe0e2d",
			"setFeeTo(address)": "f46901ed",
			"setLockUp(uint256,uint256)": "2ffaaa09",
			"setOperator(address)": "b3ab15fb",
			"share()": "a8d5fd65",
			"stake(uint256)": "a694fc3a",
			"token()": "fc0c546a",
			"totalSupply()": "18160ddd",
			"treasury()": "61d027b3",
			"withdraw(uint256)": "2e1a7d4d",
			"withdrawLockupEpochs()": "1e85cd65"
		}
	},
	"abi": [
		{
			"anonymous": false,
			"inputs": [
				{
					"indexed": true,
					"internalType": "address",
					"name": "from",
					"type": "address"
				},
				{
					"indexed": true,
					"internalType": "address",
					"name": "to",
					"type": "address"
				},
				{
					"indexed": false,
					"internalType": "uint256",
					"name": "reward",
					"type": "uint256"
				}
			],
			"name": "BlacklistRewardPaid",
			"type": "event"
		},
		{
			"anonymous": false,
			"inputs": [
				{
					"indexed": true,
					"internalType": "address",
					"name": "from",
					"type": "address"
				},
				{
					"indexed": true,
					"internalType": "address",
					"name": "to",
					"type": "address"
				},
				{
					"indexed": false,
					"internalType": "uint256",
					"name": "amount",
					"type": "uint256"
				}
			],
			"name": "BlacklistWithdrawn",
			"type": "event"
		},
		{
			"anonymous": false,
			"inputs": [
				{
					"indexed": true,
					"internalType": "address",
					"name": "executor",
					"type": "address"
				},
				{
					"indexed": false,
					"internalType": "uint256",
					"name": "at",
					"type": "uint256"
				}
			],
			"name": "Initialized",
			"type": "event"
		},
		{
			"anonymous": false,
			"inputs": [
				{
					"indexed": true,
					"internalType": "address",
					"name": "user",
					"type": "address"
				},
				{
					"indexed": false,
					"internalType": "uint256",
					"name": "reward",
					"type": "uint256"
				}
			],
			"name": "RewardAdded",
			"type": "event"
		},
		{
			"anonymous": false,
			"inputs": [
				{
					"indexed": true,
					"internalType": "address",
					"name": "user",
					"type": "address"
				},
				{
					"indexed": false,
					"internalType": "uint256",
					"name": "reward",
					"type": "uint256"
				}
			],
			"name": "RewardPaid",
			"type": "event"
		},
		{
			"anonymous": false,
			"inputs": [
				{
					"indexed": true,
					"internalType": "address",
					"name": "user",
					"type": "address"
				},
				{
					"indexed": false,
					"internalType": "uint256",
					"name": "amount",
					"type": "uint256"
				}
			],
			"name": "Staked",
			"type": "event"
		},
		{
			"anonymous": false,
			"inputs": [
				{
					"indexed": true,
					"internalType": "address",
					"name": "user",
					"type": "address"
				},
				{
					"indexed": false,
					"internalType": "uint256",
					"name": "amount",
					"type": "uint256"
				}
			],
			"name": "Withdrawn",
			"type": "event"
		},
		{
			"inputs": [
				{
					"internalType": "address",
					"name": "_address",
					"type": "address"
				}
			],
			"name": "addAddressBlacklist",
			"outputs": [
				{
					"internalType": "bool",
					"name": "",
					"type": "bool"
				}
			],
			"stateMutability": "nonpayable",
			"type": "function"
		},
		{
			"inputs": [
				{
					"internalType": "uint256",
					"name": "amount",
					"type": "uint256"
				}
			],
			"name": "allocateSeigniorage",
			"outputs": [],
			"stateMutability": "nonpayable",
			"type": "function"
		},
		{
			"inputs": [
				{
					"internalType": "address",
					"name": "account",
					"type": "address"
				}
			],
			"name": "balanceOf",
			"outputs": [
				{
					"internalType": "uint256",
					"name": "",
					"type": "uint256"
				}
			],
			"stateMutability": "view",
			"type": "function"
		},
		{
			"inputs": [
				{
					"internalType": "address",
					"name": "",
					"type": "address"
				}
			],
			"name": "blacklist",
			"outputs": [
				{
					"internalType": "bool",
					"name": "",
					"type": "bool"
				}
			],
			"stateMutability": "view",
			"type": "function"
		},
		{
			"inputs": [
				{
					"internalType": "address",
					"name": "_address",
					"type": "address"
				},
				{
					"internalType": "address",
					"name": "_to",
					"type": "address"
				}
			],
			"name": "blacklistFundWithdraw",
			"outputs": [],
			"stateMutability": "nonpayable",
			"type": "function"
		},
		{
			"inputs": [
				{
					"internalType": "uint256",
					"name": "",
					"type": "uint256"
				}
			],
			"name": "boardroomHistory",
			"outputs": [
				{
					"internalType": "uint256",
					"name": "time",
					"type": "uint256"
				},
				{
					"internalType": "uint256",
					"name": "rewardReceived",
					"type": "uint256"
				},
				{
					"internalType": "uint256",
					"name": "rewardPerShare",
					"type": "uint256"
				}
			],
			"stateMutability": "view",
			"type": "function"
		},
		{
			"inputs": [
				{
					"internalType": "address",
					"name": "member",
					"type": "address"
				}
			],
			"name": "canClaimReward",
			"outputs": [
				{
					"internalType": "bool",
					"name": "",
					"type": "bool"
				}
			],
			"stateMutability": "view",
			"type": "function"
		},
		{
			"inputs": [
				{
					"internalType": "address",
					"name": "member",
					"type": "address"
				}
			],
			"name": "canWithdraw",
			"outputs": [
				{
					"internalType": "bool",
					"name": "",
					"type": "bool"
				}
			],
			"stateMutability": "view",
			"type": "function"
		},
		{
			"inputs": [],
			"name": "claimReward",
			"outputs": [],
			"stateMutability": "nonpayable",
			"type": "function"
		},
		{
			"inputs": [
				{
					"internalType": "address",
					"name": "member",
					"type": "address"
				}
			],
			"name": "earned",
			"outputs": [
				{
					"internalType": "uint256",
					"name": "",
					"type": "uint256"
				}
			],
			"stateMutability": "view",
			"type": "function"
		},
		{
			"inputs": [],
			"name": "epoch",
			"outputs": [
				{
					"internalType": "uint256",
					"name": "",
					"type": "uint256"
				}
			],
			"stateMutability": "view",
			"type": "function"
		},
		{
			"inputs": [],
			"name": "exit",
			"outputs": [],
			"stateMutability": "nonpayable",
			"type": "function"
		},
		{
			"inputs": [],
			"name": "fee",
			"outputs": [
				{
					"internalType": "uint256",
					"name": "",
					"type": "uint256"
				}
			],
			"stateMutability": "view",
			"type": "function"
		},
		{
			"inputs": [],
			"name": "feeTo",
			"outputs": [
				{
					"internalType": "address",
					"name": "",
					"type": "address"
				}
			],
			"stateMutability": "view",
			"type": "function"
		},
		{
			"inputs": [
				{
					"internalType": "address",
					"name": "member",
					"type": "address"
				}
			],
			"name": "getLastSnapshotIndexOf",
			"outputs": [
				{
					"internalType": "uint256",
					"name": "",
					"type": "uint256"
				}
			],
			"stateMutability": "view",
			"type": "function"
		},
		{
			"inputs": [],
			"name": "getTokenPrice",
			"outputs": [
				{
					"internalType": "uint256",
					"name": "",
					"type": "uint256"
				}
			],
			"stateMutability": "view",
			"type": "function"
		},
		{
			"inputs": [
				{
					"internalType": "contract IERC20",
					"name": "_token",
					"type": "address"
				},
				{
					"internalType": "uint256",
					"name": "_amount",
					"type": "uint256"
				},
				{
					"internalType": "address",
					"name": "_to",
					"type": "address"
				}
			],
			"name": "governanceRecoverUnsupported",
			"outputs": [],
			"stateMutability": "nonpayable",
			"type": "function"
		},
		{
			"inputs": [
				{
					"internalType": "contract IERC20",
					"name": "_token",
					"type": "address"
				},
				{
					"internalType": "contract IERC20",
					"name": "_share",
					"type": "address"
				},
				{
					"internalType": "contract ITreasury",
					"name": "_treasury",
					"type": "address"
				},
				{
					"internalType": "uint256",
					"name": "_fee",
					"type": "uint256"
				},
				{
					"internalType": "address",
					"name": "_feeTo",
					"type": "address"
				}
			],
			"name": "initialize",
			"outputs": [],
			"stateMutability": "nonpayable",
			"type": "function"
		},
		{
			"inputs": [],
			"name": "initialized",
			"outputs": [
				{
					"internalType": "bool",
					"name": "",
					"type": "bool"
				}
			],
			"stateMutability": "view",
			"type": "function"
		},
		{
			"inputs": [
				{
					"internalType": "address",
					"name": "_address",
					"type": "address"
				}
			],
			"name": "isAddressBlacklist",
			"outputs": [
				{
					"internalType": "bool",
					"name": "",
					"type": "bool"
				}
			],
			"stateMutability": "view",
			"type": "function"
		},
		{
			"inputs": [],
			"name": "latestSnapshotIndex",
			"outputs": [
				{
					"internalType": "uint256",
					"name": "",
					"type": "uint256"
				}
			],
			"stateMutability": "view",
			"type": "function"
		},
		{
			"inputs": [
				{
					"internalType": "address",
					"name": "",
					"type": "address"
				}
			],
			"name": "members",
			"outputs": [
				{
					"internalType": "uint256",
					"name": "lastSnapshotIndex",
					"type": "uint256"
				},
				{
					"internalType": "uint256",
					"name": "rewardEarned",
					"type": "uint256"
				},
				{
					"internalType": "uint256",
					"name": "epochTimerStart",
					"type": "uint256"
				}
			],
			"stateMutability": "view",
			"type": "function"
		},
		{
			"inputs": [],
			"name": "nextEpochPoint",
			"outputs": [
				{
					"internalType": "uint256",
					"name": "",
					"type": "uint256"
				}
			],
			"stateMutability": "view",
			"type": "function"
		},
		{
			"inputs": [],
			"name": "operator",
			"outputs": [
				{
					"internalType": "address",
					"name": "",
					"type": "address"
				}
			],
			"stateMutability": "view",
			"type": "function"
		},
		{
			"inputs": [
				{
					"internalType": "address",
					"name": "_address",
					"type": "address"
				}
			],
			"name": "removeAddressBlacklist",
			"outputs": [
				{
					"internalType": "bool",
					"name": "",
					"type": "bool"
				}
			],
			"stateMutability": "nonpayable",
			"type": "function"
		},
		{
			"inputs": [],
			"name": "rewardLockupEpochs",
			"outputs": [
				{
					"internalType": "uint256",
					"name": "",
					"type": "uint256"
				}
			],
			"stateMutability": "view",
			"type": "function"
		},
		{
			"inputs": [],
			"name": "rewardPerShare",
			"outputs": [
				{
					"internalType": "uint256",
					"name": "",
					"type": "uint256"
				}
			],
			"stateMutability": "view",
			"type": "function"
		},
		{
			"inputs": [
				{
					"internalType": "uint256",
					"name": "_fee",
					"type": "uint256"
				}
			],
			"name": "setFee",
			"outputs": [],
			"stateMutability": "nonpayable",
			"type": "function"
		},
		{
			"inputs": [
				{
					"internalType": "address",
					"name": "_feeTo",
					"type": "address"
				}
			],
			"name": "setFeeTo",
			"outputs": [],
			"stateMutability": "nonpayable",
			"type": "function"
		},
		{
			"inputs": [
				{
					"internalType": "uint256",
					"name": "_withdrawLockupEpochs",
					"type": "uint256"
				},
				{
					"internalType": "uint256",
					"name": "_rewardLockupEpochs",
					"type": "uint256"
				}
			],
			"name": "setLockUp",
			"outputs": [],
			"stateMutability": "nonpayable",
			"type": "function"
		},
		{
			"inputs": [
				{
					"internalType": "address",
					"name": "_operator",
					"type": "address"
				}
			],
			"name": "setOperator",
			"outputs": [],
			"stateMutability": "nonpayable",
			"type": "function"
		},
		{
			"inputs": [],
			"name": "share",
			"outputs": [
				{
					"internalType": "contract IERC20",
					"name": "",
					"type": "address"
				}
			],
			"stateMutability": "view",
			"type": "function"
		},
		{
			"inputs": [
				{
					"internalType": "uint256",
					"name": "amount",
					"type": "uint256"
				}
			],
			"name": "stake",
			"outputs": [],
			"stateMutability": "nonpayable",
			"type": "function"
		},
		{
			"inputs": [],
			"name": "token",
			"outputs": [
				{
					"internalType": "contract IERC20",
					"name": "",
					"type": "address"
				}
			],
			"stateMutability": "view",
			"type": "function"
		},
		{
			"inputs": [],
			"name": "totalSupply",
			"outputs": [
				{
					"internalType": "uint256",
					"name": "",
					"type": "uint256"
				}
			],
			"stateMutability": "view",
			"type": "function"
		},
		{
			"inputs": [],
			"name": "treasury",
			"outputs": [
				{
					"internalType": "contract ITreasury",
					"name": "",
					"type": "address"
				}
			],
			"stateMutability": "view",
			"type": "function"
		},
		{
			"inputs": [
				{
					"internalType": "uint256",
					"name": "amount",
					"type": "uint256"
				}
			],
			"name": "withdraw",
			"outputs": [],
			"stateMutability": "nonpayable",
			"type": "function"
		},
		{
			"inputs": [],
			"name": "withdrawLockupEpochs",
			"outputs": [
				{
					"internalType": "uint256",
					"name": "",
					"type": "uint256"
				}
			],
			"stateMutability": "view",
			"type": "function"
		}
	]
}