{
	"data": {
		"bytecode": {
			"linkReferences": {},
			"object": "6080604052617080601355601480546001600160a01b031990811673b95db5b167d75e6d04227cfffa61069348d271f517909155601580548216733963ffc9dff443c2a94f21b129d429891e32ec181790556016805490911673ff970a61a04b1ca14834a43f5de4533ebddb5cc81790553480156200007d57600080fd5b5060405162002b5e38038062002b5e833981016040819052620000a09162000606565b600880546001600160a01b03199081166001600160a01b0388811691909117909255600080548216878416178155600f869055601080548316868516179055600780549092168484161790915542601155604080516060810182524381526020808201848152928201848152600a8054600181018255955282517fc65a7bb8d6351c1cf70c95a316cc6a92839c986682d98bc35f958f4883f9d2a860039096029586015592517fc65a7bb8d6351c1cf70c95a316cc6a92839c986682d98bc35f958f4883f9d2a985015591517fc65a7bb8d6351c1cf70c95a316cc6a92839c986682d98bc35f958f4883f9d2aa909301929092556002600d819055600e556014546016549293620001c4938116929116906000199062000218811b62001a5817901c565b600680546001600160a01b031916339081179091556040514381527f25ff68dd81b34665b5ba7e553ee5511bf6812e12adb4a7e2c0d9e26b3099ce799060200160405180910390a250505050505062000745565b801580620002965750604051636eb1769f60e11b81523060048201526001600160a01b03838116602483015284169063dd62ed3e90604401602060405180830381865afa1580156200026e573d6000803e3d6000fd5b505050506040513d601f19601f820116820180604052508101906200029491906200067a565b155b6200030e5760405162461bcd60e51b815260206004820152603660248201527f5361666545524332303a20617070726f76652066726f6d206e6f6e2d7a65726f60448201527f20746f206e6f6e2d7a65726f20616c6c6f77616e63650000000000000000000060648201526084015b60405180910390fd5b604080516001600160a01b038416602482015260448082018490528251808303909101815260649091019091526020810180516001600160e01b0390811663095ea7b360e01b17909152620003669185916200036b16565b505050565b6000620003c7826040518060400160405280602081526020017f5361666545524332303a206c6f772d6c6576656c2063616c6c206661696c6564815250856001600160a01b03166200044960201b62001ba0179092919060201c565b805190915015620003665780806020019051810190620003e8919062000694565b620003665760405162461bcd60e51b815260206004820152602a60248201527f5361666545524332303a204552433230206f7065726174696f6e20646964206e6044820152691bdd081cdd58d8d9595960b21b606482015260840162000305565b60606200045a848460008562000462565b949350505050565b606082471015620004c55760405162461bcd60e51b815260206004820152602660248201527f416464726573733a20696e73756666696369656e742062616c616e636520666f6044820152651c8818d85b1b60d21b606482015260840162000305565b600080866001600160a01b03168587604051620004e39190620006f2565b60006040518083038185875af1925050503d806000811462000522576040519150601f19603f3d011682016040523d82523d6000602084013e62000527565b606091505b5090925090506200053b8783838762000546565b979650505050505050565b60608315620005ba578251600003620005b2576001600160a01b0385163b620005b25760405162461bcd60e51b815260206004820152601d60248201527f416464726573733a2063616c6c20746f206e6f6e2d636f6e7472616374000000604482015260640162000305565b50816200045a565b6200045a8383815115620005d15781518083602001fd5b8060405162461bcd60e51b815260040162000305919062000710565b6001600160a01b03811681146200060357600080fd5b50565b600080600080600060a086880312156200061f57600080fd5b85516200062c81620005ed565b60208701519095506200063f81620005ed565b6040870151606088015191955093506200065981620005ed565b60808701519092506200066c81620005ed565b809150509295509295909350565b6000602082840312156200068d57600080fd5b5051919050565b600060208284031215620006a757600080fd5b81518015158114620006b857600080fd5b9392505050565b60005b83811015620006dc578181015183820152602001620006c2565b83811115620006ec576000848401525b50505050565b6000825162000706818460208701620006bf565b9190910192915050565b602081526000825180602084015262000731816040850160208701620006bf565b601f01601f19169190910160400192915050565b61240980620007556000396000f3fe608060405234801561001057600080fd5b506004361061027e5760003560e01c806369fe0e2d1161015c578063b88a802f116100ce578063e0e6f61611610087578063e0e6f616146105b0578063e2dcb616146105c1578063e9fad8ee146105d4578063eabba145146105dc578063ef78d4fd14610609578063f46901ed1461061257600080fd5b8063b88a802f1461057a578063c58e384314610582578063c5967c2614610595578063c822adda1461059d578063d01f77d2146105b0578063ddca3f43146105b857600080fd5b8063900cf0cf11610120578063900cf0cf146104fc57806393ba4f6614610505578063976114241461052e578063a694fc3a14610541578063a8d5fd6514610554578063b3ab15fb1461056757600080fd5b806369fe0e2d14610491578063714b4658146104a457806378e97925146104cd57806385b5b4c0146104d657806389a30271146104e957600080fd5b80632e1a7d4d116101f557806354575af4116101b957806354575af414610411578063570ca735146104245780635aa6e675146104375780635bf12feb1461044a57806362d45f8f1461045d578063649e4a521461048957600080fd5b80632e1a7d4d146103d35780632ffaaa09146103e65780633f9e3f04146103f957806340d1fb8714610401578063446a2ec81461040957600080fd5b8063046335d011610247578063046335d01461032f57806308ae4b0c1461035257806319262d301461039c5780631e7e936d146103af5780631e85cd65146103b75780631ff4660a146103c057600080fd5b80628cc262146102835780630177d287146102a9578063017e7e58146102e657806301b3e4a814610311578063022ba18d14610326575b600080fd5b6102966102913660046120da565b610625565b6040519081526020015b60405180910390f35b6102bc6102b73660046120f7565b6106b9565b604080516001600160a01b03909516855260208501939093529183015260608201526080016102a0565b6010546102f9906001600160a01b031681565b6040516001600160a01b0390911681526020016102a0565b61032461031f366004612110565b6106fd565b005b610296600e5481565b61034261033d3660046120da565b6107e6565b60405190151581526020016102a0565b6103816103603660046120da565b60096020526000908152604090208054600182015460029092015490919083565b604080519384526020840192909252908201526060016102a0565b6103426103aa3660046120da565b61081d565b600454610296565b610296600d5481565b6014546102f9906001600160a01b031681565b6103246103e13660046120f7565b61084c565b6103246103f436600461214b565b610b59565b610296610bf7565b600254610296565b610296610c0d565b61032461041f36600461216d565b610c20565b6006546102f9906001600160a01b031681565b6007546102f9906001600160a01b031681565b6015546102f9906001600160a01b031681565b61029661046b3660046120da565b6001600160a01b031660009081526001602052604090206002015490565b600354610296565b61032461049f3660046120f7565b610d2e565b6102966104b23660046120da565b6001600160a01b031660009081526009602052604090205490565b61029660115481565b6103246104e4366004612110565b610d9e565b6016546102f9906001600160a01b031681565b61029660125481565b6102966105133660046120da565b6001600160a01b031660009081526001602052604090205490565b61032461053c3660046120f7565b610f84565b61032461054f3660046120f7565b61111e565b6000546102f9906001600160a01b031681565b6103246105753660046120da565b6113ec565b610324611438565b6103816105903660046120f7565b6115ce565b610296611601565b6102bc6105ab3660046120f7565b611626565b610324611636565b610296600f5481565b6103246105cf3660046120f7565b611712565b6103246119f0565b6102966105ea3660046120da565b6001600160a01b03166000908152600160208190526040909120015490565b61029660135481565b6103246106203660046120da565b611a0c565b600080610630611baf565b604001519050600061064184611c29565b6040908101516001600160a01b0386166000908152600960205291909120600101549091506106b1906106ab670de0b6b3a76400006106a56106838787611cbc565b6001600160a01b038a1660009081526001602052604090206002015490611ccf565b90611cdb565b90611ce7565b949350505050565b600b81815481106106c957600080fd5b600091825260209091206004909102018054600182015460028301546003909301546001600160a01b039092169350919084565b43600090815260056020908152604080832032845290915290205460ff16156107415760405162461bcd60e51b8152600401610738906121af565b60405180910390fd5b43600090815260056020908152604080832033845290915290205460ff161561077c5760405162461bcd60e51b8152600401610738906121af565b4360009081526005602090815260408083203284529091528082208054600160ff19918216811790925533808552929093208054909316179091556007546001600160a01b0316146107e05760405162461bcd60e51b8152600401610738906121f5565b50505050565b601254600e546001600160a01b0383166000908152600960205260408120600201549092916108159190611ce7565b111592915050565b601254600d546001600160a01b0383166000908152600960205260408120600201549092916108159190611ce7565b43600090815260056020908152604080832032845290915290205460ff16156108875760405162461bcd60e51b8152600401610738906121af565b43600090815260056020908152604080832033845290915290205460ff16156108c25760405162461bcd60e51b8152600401610738906121af565b43600090815260056020908152604080832032845282528083208054600160ff1991821681179092553385528285208054909116821790559091528120600201541161095c5760405162461bcd60e51b8152602060048201526024808201527f426f617264726f6f6d3a20546865206d656d62657220646f6573206e6f7420656044820152631e1a5cdd60e21b6064820152608401610738565b3380156109ed576001600160a01b03811660009081526009602090815260409182902082516060810184528154815260018201549281019290925260020154918101919091526109ab82610625565b60208201526109b8610bf7565b81526001600160a01b038216600090815260096020908152604091829020835181559083015160018201559101516002909101555b60008211610a3d5760405162461bcd60e51b815260206004820152601c60248201527f426f617264726f6f6d3a2043616e6e6f742077697468647261772030000000006044820152606401610738565b601254600d5433600090815260096020526040902060020154610a5f91611ce7565b1115610ab95760405162461bcd60e51b815260206004820152602360248201527f426f617264726f6f6d3a207374696c6c20696e207769746864726177206c6f6360448201526206b75760ec1b6064820152608401610738565b610ac1611438565b600f5415610b16576000610ae66127106106a5600f5486611ccf90919063ffffffff16565b9050610af28382611cbc565b601054600054919450610b14916001600160a01b039081169133911684611cf3565b505b610b1f82611d2b565b60405182815233907f7084f5476618d8e60b11ef0d7d3f06914655adb8793e28ff7f018d4c76d505d5906020015b60405180910390a25050565b6006546001600160a01b03163314610b835760405162461bcd60e51b81526004016107389061223c565b808210158015610b94575060388211155b610bec5760405162461bcd60e51b815260206004820152602360248201527f5f77697468647261774c6f636b757045706f6368733a206f7574206f662072616044820152626e676560e81b6064820152608401610738565b600d91909155600e55565b600a54600090610c08906001611cbc565b905090565b6000610c17611baf565b60400151905090565b6006546001600160a01b03163314610c4a5760405162461bcd60e51b81526004016107389061223c565b6001600160a01b038116610c895760405162461bcd60e51b8152600401610738906020808252600490820152637a65726f60e01b604082015260600190565b6008546001600160a01b0390811690841603610ccf5760405162461bcd60e51b81526020600482015260056024820152643a37b5b2b760d91b6044820152606401610738565b6000546001600160a01b0390811690841603610d155760405162461bcd60e51b8152602060048201526005602482015264736861726560d81b6044820152606401610738565b610d296001600160a01b0384168284611df1565b505050565b6006546001600160a01b03163314610d585760405162461bcd60e51b81526004016107389061223c565b612710811115610d995760405162461bcd60e51b815260206004820152600c60248201526b6f7574206f662072616e676560a01b6044820152606401610738565b600f55565b43600090815260056020908152604080832032845290915290205460ff1615610dd95760405162461bcd60e51b8152600401610738906121af565b43600090815260056020908152604080832033845290915290205460ff1615610e145760405162461bcd60e51b8152600401610738906121af565b4360009081526005602090815260408083203284529091528082208054600160ff19918216811790925533808552929093208054909316179091556007546001600160a01b031614610e785760405162461bcd60e51b8152600401610738906121f5565b600254610ec35760405162461bcd60e51b81526020600482015260196024820152780426f617264726f6f6d3a2043616e6e6f74207374616b65203603c1b6044820152606401610738565b601554610ede906001600160a01b0386811691166000611a58565b601554610ef8906001600160a01b03868116911685611a58565b60145460405163364e231160e01b81526001600160a01b0386811660048301526024820186905260448201859052606482018490529091169063364e2311906084016020604051808303816000875af1158015610f59573d6000803e3d6000fd5b505050506040513d601f19601f82011682018060405250810190610f7d9190612281565b5050505050565b43600090815260056020908152604080832032845290915290205460ff1615610fbf5760405162461bcd60e51b8152600401610738906121af565b43600090815260056020908152604080832033845290915290205460ff1615610ffa5760405162461bcd60e51b8152600401610738906121af565b43600090815260056020908152604080832032845282528083208054600160ff199182168117909255338086528386208054909216831790915582516080810184529081529283019485524291830191825260125460608401908152600c8054928301815590945291517fdf6966c971051c3d54ec59162606531493a51404a002842f56009d7e5cf4a8c7600490930292830180546001600160a01b0319166001600160a01b0390921691909117905592517fdf6966c971051c3d54ec59162606531493a51404a002842f56009d7e5cf4a8c882015591517fdf6966c971051c3d54ec59162606531493a51404a002842f56009d7e5cf4a8c9830155517fdf6966c971051c3d54ec59162606531493a51404a002842f56009d7e5cf4a8ca90910155565b43600090815260056020908152604080832032845290915290205460ff16156111595760405162461bcd60e51b8152600401610738906121af565b43600090815260056020908152604080832033845290915290205460ff16156111945760405162461bcd60e51b8152600401610738906121af565b4360009081526005602090815260408083203284529091528082208054600160ff1991821681179092553380855292909320805490931617909155801561125f576001600160a01b038116600090815260096020908152604091829020825160608101845281548152600182015492810192909252600201549181019190915261121d82610625565b602082015261122a610bf7565b81526001600160a01b038216600090815260096020908152604091829020835181559083015160018201559101516002909101555b600082116112ab5760405162461bcd60e51b81526020600482015260196024820152780426f617264726f6f6d3a2043616e6e6f74207374616b65203603c1b6044820152606401610738565b6112b482611e21565b60125433600081815260096020908152604080832060020185905580516080810182528481528083018881524282840190815260608301978852600b8054600181018255965282517f0175b7a638427703f0dbe7bb9bbf987a2551717b34e79f33b5b1008d1fa01db9600490970296870180546001600160a01b0319166001600160a01b0390921691909117905590517f0175b7a638427703f0dbe7bb9bbf987a2551717b34e79f33b5b1008d1fa01dba860155517f0175b7a638427703f0dbe7bb9bbf987a2551717b34e79f33b5b1008d1fa01dbb85015594517f0175b7a638427703f0dbe7bb9bbf987a2551717b34e79f33b5b1008d1fa01dbc9093019290925590518581527f9e71bc8eea02a63969f509818f2dafb9254532904319f9dbda79b67bd34a5f3d910160405180910390a2505050565b6006546001600160a01b031633146114165760405162461bcd60e51b81526004016107389061223c565b600680546001600160a01b0319166001600160a01b0392909216919091179055565b3380156114c9576001600160a01b038116600090815260096020908152604091829020825160608101845281548152600182015492810192909252600201549181019190915261148782610625565b6020820152611494610bf7565b81526001600160a01b038216600090815260096020908152604091829020835181559083015160018201559101516002909101555b3360009081526009602052604090206001015480156115ca57601254600e543360009081526009602052604090206002015461150491611ce7565b111561155c5760405162461bcd60e51b815260206004820152602160248201527f426f617264726f6f6d3a207374696c6c20696e20726577617264206c6f636b756044820152600760fc1b6064820152608401610738565b6012543360008181526009602052604081206002810193909355600190920191909155600854611598916001600160a01b039091169083611df1565b60405181815233907fe2403640ba68fed3a2f88b7557551d1993f84b99bb10ff833f0cf8db0c5e048690602001610b4d565b5050565b600a81815481106115de57600080fd5b600091825260209091206003909102018054600182015460029092015490925083565b6000610c0861161d601354601254611ccf90919063ffffffff16565b60115490611ce7565b600c81815481106106c957600080fd5b43600090815260056020908152604080832032845290915290205460ff16156116715760405162461bcd60e51b8152600401610738906121af565b43600090815260056020908152604080832033845290915290205460ff16156116ac5760405162461bcd60e51b8152600401610738906121af565b4360009081526005602090815260408083203284529091528082208054600160ff19918216811790925533808552929093208054909316179091556007546001600160a01b0316146117105760405162461bcd60e51b8152600401610738906121f5565b565b43600090815260056020908152604080832032845290915290205460ff161561174d5760405162461bcd60e51b8152600401610738906121af565b43600090815260056020908152604080832033845290915290205460ff16156117885760405162461bcd60e51b8152600401610738906121af565b4360009081526005602090815260408083203284529091528082208054600160ff19918216811790925533808552929093208054909316179091556007546001600160a01b0316146117ec5760405162461bcd60e51b8152600401610738906121f5565b6000811161183c5760405162461bcd60e51b815260206004820152601c60248201527f426f617264726f6f6d3a2043616e6e6f7420616c6c6f636174652030000000006044820152606401610738565b600061184760035490565b116118ba5760405162461bcd60e51b815260206004820152603760248201527f426f617264726f6f6d3a2043616e6e6f7420616c6c6f63617465207768656e2060448201527f746f74616c537570706c795f7374616b656420697320300000000000000000006064820152608401610738565b60006118c4611baf565b60400151905060006118f46118ed6118db60035490565b6106a586670de0b6b3a7640000611ccf565b8390611ce7565b6040805160608101825243815260208101868152918101838152600a805460018101825560009190915282517fc65a7bb8d6351c1cf70c95a316cc6a92839c986682d98bc35f958f4883f9d2a860039092029182015592517fc65a7bb8d6351c1cf70c95a316cc6a92839c986682d98bc35f958f4883f9d2a9840155517fc65a7bb8d6351c1cf70c95a316cc6a92839c986682d98bc35f958f4883f9d2aa90920191909155601654919250906119b5906001600160a01b0316333087611cf3565b60405184815233907fac24935fd910bc682b5ccb1a07b718cadf8cf2f6d1404c4f3ddc3662dae40e299060200160405180910390a250505050565b336000908152600160205260409020600201546117109061084c565b6006546001600160a01b03163314611a365760405162461bcd60e51b81526004016107389061223c565b601080546001600160a01b0319166001600160a01b0392909216919091179055565b801580611ad25750604051636eb1769f60e11b81523060048201526001600160a01b03838116602483015284169063dd62ed3e90604401602060405180830381865afa158015611aac573d6000803e3d6000fd5b505050506040513d601f19601f82011682018060405250810190611ad09190612281565b155b611b3d5760405162461bcd60e51b815260206004820152603660248201527f5361666545524332303a20617070726f76652066726f6d206e6f6e2d7a65726f60448201527520746f206e6f6e2d7a65726f20616c6c6f77616e636560501b6064820152608401610738565b6040516001600160a01b038316602482015260448101829052610d2990849063095ea7b360e01b906064015b60408051601f198184030181529190526020810180516001600160e01b03166001600160e01b031990931692909217909152611e7a565b60606106b18484600085611f4c565b611bd360405180606001604052806000815260200160008152602001600081525090565b600a611bdd610bf7565b81548110611bed57611bed61229a565b90600052602060002090600302016040518060600160405290816000820154815260200160018201548152602001600282015481525050905090565b611c4d60405180606001604052806000815260200160008152602001600081525090565b600a611c6e836001600160a01b031660009081526009602052604090205490565b81548110611c7e57611c7e61229a565b906000526020600020906003020160405180606001604052908160008201548152602001600182015481526020016002820154815250509050919050565b6000611cc882846122c6565b9392505050565b6000611cc882846122dd565b6000611cc882846122fc565b6000611cc8828461231e565b6040516001600160a01b03808516602483015283166044820152606481018290526107e09085906323b872dd60e01b90608401611b69565b3360009081526001602052604090206002015481811015611dad5760405162461bcd60e51b815260206004820152603660248201527f426f617264726f6f6d3a207769746864726177207265717565737420677265616044820152751d195c881d1a185b881cdd185ad95908185b5bdd5b9d60521b6064820152608401610738565b600454611dba9083611cbc565b600455611dc78183611cbc565b3360008181526001602052604081206002019290925590546115ca916001600160a01b0390911690845b6040516001600160a01b038316602482015260448101829052610d2990849063a9059cbb60e01b90606401611b69565b600254611e2e9082611ce7565b60025533600090815260016020526040902054611e4b9082611ce7565b336000818152600160205260408120929092559054611e77916001600160a01b03909116903084611cf3565b50565b6000611ecf826040518060400160405280602081526020017f5361666545524332303a206c6f772d6c6576656c2063616c6c206661696c6564815250856001600160a01b0316611ba09092919063ffffffff16565b805190915015610d295780806020019051810190611eed9190612336565b610d295760405162461bcd60e51b815260206004820152602a60248201527f5361666545524332303a204552433230206f7065726174696f6e20646964206e6044820152691bdd081cdd58d8d9595960b21b6064820152608401610738565b606082471015611fad5760405162461bcd60e51b815260206004820152602660248201527f416464726573733a20696e73756666696369656e742062616c616e636520666f6044820152651c8818d85b1b60d21b6064820152608401610738565b600080866001600160a01b03168587604051611fc99190612384565b60006040518083038185875af1925050503d8060008114612006576040519150601f19603f3d011682016040523d82523d6000602084013e61200b565b606091505b509150915061201c87838387612027565b979650505050505050565b6060831561209657825160000361208f576001600160a01b0385163b61208f5760405162461bcd60e51b815260206004820152601d60248201527f416464726573733a2063616c6c20746f206e6f6e2d636f6e74726163740000006044820152606401610738565b50816106b1565b6106b183838151156120ab5781518083602001fd5b8060405162461bcd60e51b815260040161073891906123a0565b6001600160a01b0381168114611e7757600080fd5b6000602082840312156120ec57600080fd5b8135611cc8816120c5565b60006020828403121561210957600080fd5b5035919050565b6000806000806080858703121561212657600080fd5b8435612131816120c5565b966020860135965060408601359560600135945092505050565b6000806040838503121561215e57600080fd5b50508035926020909101359150565b60008060006060848603121561218257600080fd5b833561218d816120c5565b92506020840135915060408401356121a4816120c5565b809150509250925092565b60208082526026908201527f436f6e747261637447756172643a206f6e6520626c6f636b2c206f6e652066756040820152653731ba34b7b760d11b606082015260800190565b60208082526027908201527f426f617264726f6f6d3a2063616c6c6572206973206e6f742074686520676f7660408201526665726e616e636560c81b606082015260800190565b60208082526025908201527f426f617264726f6f6d3a2063616c6c6572206973206e6f7420746865206f70656040820152643930ba37b960d91b606082015260800190565b60006020828403121561229357600080fd5b5051919050565b634e487b7160e01b600052603260045260246000fd5b634e487b7160e01b600052601160045260246000fd5b6000828210156122d8576122d86122b0565b500390565b60008160001904831182151516156122f7576122f76122b0565b500290565b60008261231957634e487b7160e01b600052601260045260246000fd5b500490565b60008219821115612331576123316122b0565b500190565b60006020828403121561234857600080fd5b81518015158114611cc857600080fd5b60005b8381101561237357818101518382015260200161235b565b838111156107e05750506000910152565b60008251612396818460208701612358565b9190910192915050565b60208152600082518060208401526123bf816040850160208701612358565b601f01601f1916919091016040019291505056fea264697066735822122085ad3982dcddd11af47326a0328369ee946f000304897654e085e30b2afeddd064736f6c634300080d0033",
			"opcodes": "PUSH1 0x80 PUSH1 0x40 MSTORE PUSH2 0x7080 PUSH1 0x13 SSTORE PUSH1 0x14 DUP1 SLOAD PUSH1 0x1 PUSH1 0x1 PUSH1 0xA0 SHL SUB NOT SWAP1 DUP2 AND PUSH20 0xB95DB5B167D75E6D04227CFFFA61069348D271F5 OR SWAP1 SWAP2 SSTORE PUSH1 0x15 DUP1 SLOAD DUP3 AND PUSH20 0x3963FFC9DFF443C2A94F21B129D429891E32EC18 OR SWAP1 SSTORE PUSH1 0x16 DUP1 SLOAD SWAP1 SWAP2 AND PUSH20 0xFF970A61A04B1CA14834A43F5DE4533EBDDB5CC8 OR SWAP1 SSTORE CALLVALUE DUP1 ISZERO PUSH3 0x7D JUMPI PUSH1 0x0 DUP1 REVERT JUMPDEST POP PUSH1 0x40 MLOAD PUSH3 0x2B5E CODESIZE SUB DUP1 PUSH3 0x2B5E DUP4 CODECOPY DUP2 ADD PUSH1 0x40 DUP2 SWAP1 MSTORE PUSH3 0xA0 SWAP2 PUSH3 0x606 JUMP JUMPDEST PUSH1 0x8 DUP1 SLOAD PUSH1 0x1 PUSH1 0x1 PUSH1 0xA0 SHL SUB NOT SWAP1 DUP2 AND PUSH1 0x1 PUSH1 0x1 PUSH1 0xA0 SHL SUB DUP9 DUP2 AND SWAP2 SWAP1 SWAP2 OR SWAP1 SWAP3 SSTORE PUSH1 0x0 DUP1 SLOAD DUP3 AND DUP8 DUP5 AND OR DUP2 SSTORE PUSH1 0xF DUP7 SWAP1 SSTORE PUSH1 0x10 DUP1 SLOAD DUP4 AND DUP7 DUP6 AND OR SWAP1 SSTORE PUSH1 0x7 DUP1 SLOAD SWAP1 SWAP3 AND DUP5 DUP5 AND OR SWAP1 SWAP2 SSTORE TIMESTAMP PUSH1 0x11 SSTORE PUSH1 0x40 DUP1 MLOAD PUSH1 0x60 DUP2 ADD DUP3 MSTORE NUMBER DUP2 MSTORE PUSH1 0x20 DUP1 DUP3 ADD DUP5 DUP2 MSTORE SWAP3 DUP3 ADD DUP5 DUP2 MSTORE PUSH1 0xA DUP1 SLOAD PUSH1 0x1 DUP2 ADD DUP3 SSTORE SWAP6 MSTORE DUP3 MLOAD PUSH32 0xC65A7BB8D6351C1CF70C95A316CC6A92839C986682D98BC35F958F4883F9D2A8 PUSH1 0x3 SWAP1 SWAP7 MUL SWAP6 DUP7 ADD SSTORE SWAP3 MLOAD PUSH32 0xC65A7BB8D6351C1CF70C95A316CC6A92839C986682D98BC35F958F4883F9D2A9 DUP6 ADD SSTORE SWAP2 MLOAD PUSH32 0xC65A7BB8D6351C1CF70C95A316CC6A92839C986682D98BC35F958F4883F9D2AA SWAP1 SWAP4 ADD SWAP3 SWAP1 SWAP3 SSTORE PUSH1 0x2 PUSH1 0xD DUP2 SWAP1 SSTORE PUSH1 0xE SSTORE PUSH1 0x14 SLOAD PUSH1 0x16 SLOAD SWAP3 SWAP4 PUSH3 0x1C4 SWAP4 DUP2 AND SWAP3 SWAP2 AND SWAP1 PUSH1 0x0 NOT SWAP1 PUSH3 0x218 DUP2 SHL PUSH3 0x1A58 OR SWAP1 SHR JUMP JUMPDEST PUSH1 0x6 DUP1 SLOAD PUSH1 0x1 PUSH1 0x1 PUSH1 0xA0 SHL SUB NOT AND CALLER SWAP1 DUP2 OR SWAP1 SWAP2 SSTORE PUSH1 0x40 MLOAD NUMBER DUP2 MSTORE PUSH32 0x25FF68DD81B34665B5BA7E553EE5511BF6812E12ADB4A7E2C0D9E26B3099CE79 SWAP1 PUSH1 0x20 ADD PUSH1 0x40 MLOAD DUP1 SWAP2 SUB SWAP1 LOG2 POP POP POP POP POP POP PUSH3 0x745 JUMP JUMPDEST DUP1 ISZERO DUP1 PUSH3 0x296 JUMPI POP PUSH1 0x40 MLOAD PUSH4 0x6EB1769F PUSH1 0xE1 SHL DUP2 MSTORE ADDRESS PUSH1 0x4 DUP3 ADD MSTORE PUSH1 0x1 PUSH1 0x1 PUSH1 0xA0 SHL SUB DUP4 DUP2 AND PUSH1 0x24 DUP4 ADD MSTORE DUP5 AND SWAP1 PUSH4 0xDD62ED3E SWAP1 PUSH1 0x44 ADD PUSH1 0x20 PUSH1 0x40 MLOAD DUP1 DUP4 SUB DUP2 DUP7 GAS STATICCALL ISZERO DUP1 ISZERO PUSH3 0x26E JUMPI RETURNDATASIZE PUSH1 0x0 DUP1 RETURNDATACOPY RETURNDATASIZE PUSH1 0x0 REVERT JUMPDEST POP POP POP POP PUSH1 0x40 MLOAD RETURNDATASIZE PUSH1 0x1F NOT PUSH1 0x1F DUP3 ADD AND DUP3 ADD DUP1 PUSH1 0x40 MSTORE POP DUP2 ADD SWAP1 PUSH3 0x294 SWAP2 SWAP1 PUSH3 0x67A JUMP JUMPDEST ISZERO JUMPDEST PUSH3 0x30E JUMPI PUSH1 0x40 MLOAD PUSH3 0x461BCD PUSH1 0xE5 SHL DUP2 MSTORE PUSH1 0x20 PUSH1 0x4 DUP3 ADD MSTORE PUSH1 0x36 PUSH1 0x24 DUP3 ADD MSTORE PUSH32 0x5361666545524332303A20617070726F76652066726F6D206E6F6E2D7A65726F PUSH1 0x44 DUP3 ADD MSTORE PUSH32 0x20746F206E6F6E2D7A65726F20616C6C6F77616E636500000000000000000000 PUSH1 0x64 DUP3 ADD MSTORE PUSH1 0x84 ADD JUMPDEST PUSH1 0x40 MLOAD DUP1 SWAP2 SUB SWAP1 REVERT JUMPDEST PUSH1 0x40 DUP1 MLOAD PUSH1 0x1 PUSH1 0x1 PUSH1 0xA0 SHL SUB DUP5 AND PUSH1 0x24 DUP3 ADD MSTORE PUSH1 0x44 DUP1 DUP3 ADD DUP5 SWAP1 MSTORE DUP3 MLOAD DUP1 DUP4 SUB SWAP1 SWAP2 ADD DUP2 MSTORE PUSH1 0x64 SWAP1 SWAP2 ADD SWAP1 SWAP2 MSTORE PUSH1 0x20 DUP2 ADD DUP1 MLOAD PUSH1 0x1 PUSH1 0x1 PUSH1 0xE0 SHL SUB SWAP1 DUP2 AND PUSH4 0x95EA7B3 PUSH1 0xE0 SHL OR SWAP1 SWAP2 MSTORE PUSH3 0x366 SWAP2 DUP6 SWAP2 PUSH3 0x36B AND JUMP JUMPDEST POP POP POP JUMP JUMPDEST PUSH1 0x0 PUSH3 0x3C7 DUP3 PUSH1 0x40 MLOAD DUP1 PUSH1 0x40 ADD PUSH1 0x40 MSTORE DUP1 PUSH1 0x20 DUP2 MSTORE PUSH1 0x20 ADD PUSH32 0x5361666545524332303A206C6F772D6C6576656C2063616C6C206661696C6564 DUP2 MSTORE POP DUP6 PUSH1 0x1 PUSH1 0x1 PUSH1 0xA0 SHL SUB AND PUSH3 0x449 PUSH1 0x20 SHL PUSH3 0x1BA0 OR SWAP1 SWAP3 SWAP2 SWAP1 PUSH1 0x20 SHR JUMP JUMPDEST DUP1 MLOAD SWAP1 SWAP2 POP ISZERO PUSH3 0x366 JUMPI DUP1 DUP1 PUSH1 0x20 ADD SWAP1 MLOAD DUP2 ADD SWAP1 PUSH3 0x3E8 SWAP2 SWAP1 PUSH3 0x694 JUMP JUMPDEST PUSH3 0x366 JUMPI PUSH1 0x40 MLOAD PUSH3 0x461BCD PUSH1 0xE5 SHL DUP2 MSTORE PUSH1 0x20 PUSH1 0x4 DUP3 ADD MSTORE PUSH1 0x2A PUSH1 0x24 DUP3 ADD MSTORE PUSH32 0x5361666545524332303A204552433230206F7065726174696F6E20646964206E PUSH1 0x44 DUP3 ADD MSTORE PUSH10 0x1BDD081CDD58D8D95959 PUSH1 0xB2 SHL PUSH1 0x64 DUP3 ADD MSTORE PUSH1 0x84 ADD PUSH3 0x305 JUMP JUMPDEST PUSH1 0x60 PUSH3 0x45A DUP5 DUP5 PUSH1 0x0 DUP6 PUSH3 0x462 JUMP JUMPDEST SWAP5 SWAP4 POP POP POP POP JUMP JUMPDEST PUSH1 0x60 DUP3 SELFBALANCE LT ISZERO PUSH3 0x4C5 JUMPI PUSH1 0x40 MLOAD PUSH3 0x461BCD PUSH1 0xE5 SHL DUP2 MSTORE PUSH1 0x20 PUSH1 0x4 DUP3 ADD MSTORE PUSH1 0x26 PUSH1 0x24 DUP3 ADD MSTORE PUSH32 0x416464726573733A20696E73756666696369656E742062616C616E636520666F PUSH1 0x44 DUP3 ADD MSTORE PUSH6 0x1C8818D85B1B PUSH1 0xD2 SHL PUSH1 0x64 DUP3 ADD MSTORE PUSH1 0x84 ADD PUSH3 0x305 JUMP JUMPDEST PUSH1 0x0 DUP1 DUP7 PUSH1 0x1 PUSH1 0x1 PUSH1 0xA0 SHL SUB AND DUP6 DUP8 PUSH1 0x40 MLOAD PUSH3 0x4E3 SWAP2 SWAP1 PUSH3 0x6F2 JUMP JUMPDEST PUSH1 0x0 PUSH1 0x40 MLOAD DUP1 DUP4 SUB DUP2 DUP6 DUP8 GAS CALL SWAP3 POP POP POP RETURNDATASIZE DUP1 PUSH1 0x0 DUP2 EQ PUSH3 0x522 JUMPI PUSH1 0x40 MLOAD SWAP2 POP PUSH1 0x1F NOT PUSH1 0x3F RETURNDATASIZE ADD AND DUP3 ADD PUSH1 0x40 MSTORE RETURNDATASIZE DUP3 MSTORE RETURNDATASIZE PUSH1 0x0 PUSH1 0x20 DUP5 ADD RETURNDATACOPY PUSH3 0x527 JUMP JUMPDEST PUSH1 0x60 SWAP2 POP JUMPDEST POP SWAP1 SWAP3 POP SWAP1 POP PUSH3 0x53B DUP8 DUP4 DUP4 DUP8 PUSH3 0x546 JUMP JUMPDEST SWAP8 SWAP7 POP POP POP POP POP POP POP JUMP JUMPDEST PUSH1 0x60 DUP4 ISZERO PUSH3 0x5BA JUMPI DUP3 MLOAD PUSH1 0x0 SUB PUSH3 0x5B2 JUMPI PUSH1 0x1 PUSH1 0x1 PUSH1 0xA0 SHL SUB DUP6 AND EXTCODESIZE PUSH3 0x5B2 JUMPI PUSH1 0x40 MLOAD PUSH3 0x461BCD PUSH1 0xE5 SHL DUP2 MSTORE PUSH1 0x20 PUSH1 0x4 DUP3 ADD MSTORE PUSH1 0x1D PUSH1 0x24 DUP3 ADD MSTORE PUSH32 0x416464726573733A2063616C6C20746F206E6F6E2D636F6E7472616374000000 PUSH1 0x44 DUP3 ADD MSTORE PUSH1 0x64 ADD PUSH3 0x305 JUMP JUMPDEST POP DUP2 PUSH3 0x45A JUMP JUMPDEST PUSH3 0x45A DUP4 DUP4 DUP2 MLOAD ISZERO PUSH3 0x5D1 JUMPI DUP2 MLOAD DUP1 DUP4 PUSH1 0x20 ADD REVERT JUMPDEST DUP1 PUSH1 0x40 MLOAD PUSH3 0x461BCD PUSH1 0xE5 SHL DUP2 MSTORE PUSH1 0x4 ADD PUSH3 0x305 SWAP2 SWAP1 PUSH3 0x710 JUMP JUMPDEST PUSH1 0x1 PUSH1 0x1 PUSH1 0xA0 SHL SUB DUP2 AND DUP2 EQ PUSH3 0x603 JUMPI PUSH1 0x0 DUP1 REVERT JUMPDEST POP JUMP JUMPDEST PUSH1 0x0 DUP1 PUSH1 0x0 DUP1 PUSH1 0x0 PUSH1 0xA0 DUP7 DUP9 SUB SLT ISZERO PUSH3 0x61F JUMPI PUSH1 0x0 DUP1 REVERT JUMPDEST DUP6 MLOAD PUSH3 0x62C DUP2 PUSH3 0x5ED JUMP JUMPDEST PUSH1 0x20 DUP8 ADD MLOAD SWAP1 SWAP6 POP PUSH3 0x63F DUP2 PUSH3 0x5ED JUMP JUMPDEST PUSH1 0x40 DUP8 ADD MLOAD PUSH1 0x60 DUP9 ADD MLOAD SWAP2 SWAP6 POP SWAP4 POP PUSH3 0x659 DUP2 PUSH3 0x5ED JUMP JUMPDEST PUSH1 0x80 DUP8 ADD MLOAD SWAP1 SWAP3 POP PUSH3 0x66C DUP2 PUSH3 0x5ED JUMP JUMPDEST DUP1 SWAP2 POP POP SWAP3 SWAP6 POP SWAP3 SWAP6 SWAP1 SWAP4 POP JUMP JUMPDEST PUSH1 0x0 PUSH1 0x20 DUP3 DUP5 SUB SLT ISZERO PUSH3 0x68D JUMPI PUSH1 0x0 DUP1 REVERT JUMPDEST POP MLOAD SWAP2 SWAP1 POP JUMP JUMPDEST PUSH1 0x0 PUSH1 0x20 DUP3 DUP5 SUB SLT ISZERO PUSH3 0x6A7 JUMPI PUSH1 0x0 DUP1 REVERT JUMPDEST DUP2 MLOAD DUP1 ISZERO ISZERO DUP2 EQ PUSH3 0x6B8 JUMPI PUSH1 0x0 DUP1 REVERT JUMPDEST SWAP4 SWAP3 POP POP POP JUMP JUMPDEST PUSH1 0x0 JUMPDEST DUP4 DUP2 LT ISZERO PUSH3 0x6DC JUMPI DUP2 DUP2 ADD MLOAD DUP4 DUP3 ADD MSTORE PUSH1 0x20 ADD PUSH3 0x6C2 JUMP JUMPDEST DUP4 DUP2 GT ISZERO PUSH3 0x6EC JUMPI PUSH1 0x0 DUP5 DUP5 ADD MSTORE JUMPDEST POP POP POP POP JUMP JUMPDEST PUSH1 0x0 DUP3 MLOAD PUSH3 0x706 DUP2 DUP5 PUSH1 0x20 DUP8 ADD PUSH3 0x6BF JUMP JUMPDEST SWAP2 SWAP1 SWAP2 ADD SWAP3 SWAP2 POP POP JUMP JUMPDEST PUSH1 0x20 DUP2 MSTORE PUSH1 0x0 DUP3 MLOAD DUP1 PUSH1 0x20 DUP5 ADD MSTORE PUSH3 0x731 DUP2 PUSH1 0x40 DUP6 ADD PUSH1 0x20 DUP8 ADD PUSH3 0x6BF JUMP JUMPDEST PUSH1 0x1F ADD PUSH1 0x1F NOT AND SWAP2 SWAP1 SWAP2 ADD PUSH1 0x40 ADD SWAP3 SWAP2 POP POP JUMP JUMPDEST PUSH2 0x2409 DUP1 PUSH3 0x755 PUSH1 0x0 CODECOPY PUSH1 0x0 RETURN INVALID PUSH1 0x80 PUSH1 0x40 MSTORE CALLVALUE DUP1 ISZERO PUSH2 0x10 JUMPI PUSH1 0x0 DUP1 REVERT JUMPDEST POP PUSH1 0x4 CALLDATASIZE LT PUSH2 0x27E JUMPI PUSH1 0x0 CALLDATALOAD PUSH1 0xE0 SHR DUP1 PUSH4 0x69FE0E2D GT PUSH2 0x15C JUMPI DUP1 PUSH4 0xB88A802F GT PUSH2 0xCE JUMPI DUP1 PUSH4 0xE0E6F616 GT PUSH2 0x87 JUMPI DUP1 PUSH4 0xE0E6F616 EQ PUSH2 0x5B0 JUMPI DUP1 PUSH4 0xE2DCB616 EQ PUSH2 0x5C1 JUMPI DUP1 PUSH4 0xE9FAD8EE EQ PUSH2 0x5D4 JUMPI DUP1 PUSH4 0xEABBA145 EQ PUSH2 0x5DC JUMPI DUP1 PUSH4 0xEF78D4FD EQ PUSH2 0x609 JUMPI DUP1 PUSH4 0xF46901ED EQ PUSH2 0x612 JUMPI PUSH1 0x0 DUP1 REVERT JUMPDEST DUP1 PUSH4 0xB88A802F EQ PUSH2 0x57A JUMPI DUP1 PUSH4 0xC58E3843 EQ PUSH2 0x582 JUMPI DUP1 PUSH4 0xC5967C26 EQ PUSH2 0x595 JUMPI DUP1 PUSH4 0xC822ADDA EQ PUSH2 0x59D JUMPI DUP1 PUSH4 0xD01F77D2 EQ PUSH2 0x5B0 JUMPI DUP1 PUSH4 0xDDCA3F43 EQ PUSH2 0x5B8 JUMPI PUSH1 0x0 DUP1 REVERT JUMPDEST DUP1 PUSH4 0x900CF0CF GT PUSH2 0x120 JUMPI DUP1 PUSH4 0x900CF0CF EQ PUSH2 0x4FC JUMPI DUP1 PUSH4 0x93BA4F66 EQ PUSH2 0x505 JUMPI DUP1 PUSH4 0x97611424 EQ PUSH2 0x52E JUMPI DUP1 PUSH4 0xA694FC3A EQ PUSH2 0x541 JUMPI DUP1 PUSH4 0xA8D5FD65 EQ PUSH2 0x554 JUMPI DUP1 PUSH4 0xB3AB15FB EQ PUSH2 0x567 JUMPI PUSH1 0x0 DUP1 REVERT JUMPDEST DUP1 PUSH4 0x69FE0E2D EQ PUSH2 0x491 JUMPI DUP1 PUSH4 0x714B4658 EQ PUSH2 0x4A4 JUMPI DUP1 PUSH4 0x78E97925 EQ PUSH2 0x4CD JUMPI DUP1 PUSH4 0x85B5B4C0 EQ PUSH2 0x4D6 JUMPI DUP1 PUSH4 0x89A30271 EQ PUSH2 0x4E9 JUMPI PUSH1 0x0 DUP1 REVERT JUMPDEST DUP1 PUSH4 0x2E1A7D4D GT PUSH2 0x1F5 JUMPI DUP1 PUSH4 0x54575AF4 GT PUSH2 0x1B9 JUMPI DUP1 PUSH4 0x54575AF4 EQ PUSH2 0x411 JUMPI DUP1 PUSH4 0x570CA735 EQ PUSH2 0x424 JUMPI DUP1 PUSH4 0x5AA6E675 EQ PUSH2 0x437 JUMPI DUP1 PUSH4 0x5BF12FEB EQ PUSH2 0x44A JUMPI DUP1 PUSH4 0x62D45F8F EQ PUSH2 0x45D JUMPI DUP1 PUSH4 0x649E4A52 EQ PUSH2 0x489 JUMPI PUSH1 0x0 DUP1 REVERT JUMPDEST DUP1 PUSH4 0x2E1A7D4D EQ PUSH2 0x3D3 JUMPI DUP1 PUSH4 0x2FFAAA09 EQ PUSH2 0x3E6 JUMPI DUP1 PUSH4 0x3F9E3F04 EQ PUSH2 0x3F9 JUMPI DUP1 PUSH4 0x40D1FB87 EQ PUSH2 0x401 JUMPI DUP1 PUSH4 0x446A2EC8 EQ PUSH2 0x409 JUMPI PUSH1 0x0 DUP1 REVERT JUMPDEST DUP1 PUSH4 0x46335D0 GT PUSH2 0x247 JUMPI DUP1 PUSH4 0x46335D0 EQ PUSH2 0x32F JUMPI DUP1 PUSH4 0x8AE4B0C EQ PUSH2 0x352 JUMPI DUP1 PUSH4 0x19262D30 EQ PUSH2 0x39C JUMPI DUP1 PUSH4 0x1E7E936D EQ PUSH2 0x3AF JUMPI DUP1 PUSH4 0x1E85CD65 EQ PUSH2 0x3B7 JUMPI DUP1 PUSH4 0x1FF4660A EQ PUSH2 0x3C0 JUMPI PUSH1 0x0 DUP1 REVERT JUMPDEST DUP1 PUSH3 0x8CC262 EQ PUSH2 0x283 JUMPI DUP1 PUSH4 0x177D287 EQ PUSH2 0x2A9 JUMPI DUP1 PUSH4 0x17E7E58 EQ PUSH2 0x2E6 JUMPI DUP1 PUSH4 0x1B3E4A8 EQ PUSH2 0x311 JUMPI DUP1 PUSH4 0x22BA18D EQ PUSH2 0x326 JUMPI JUMPDEST PUSH1 0x0 DUP1 REVERT JUMPDEST PUSH2 0x296 PUSH2 0x291 CALLDATASIZE PUSH1 0x4 PUSH2 0x20DA JUMP JUMPDEST PUSH2 0x625 JUMP JUMPDEST PUSH1 0x40 MLOAD SWAP1 DUP2 MSTORE PUSH1 0x20 ADD JUMPDEST PUSH1 0x40 MLOAD DUP1 SWAP2 SUB SWAP1 RETURN JUMPDEST PUSH2 0x2BC PUSH2 0x2B7 CALLDATASIZE PUSH1 0x4 PUSH2 0x20F7 JUMP JUMPDEST PUSH2 0x6B9 JUMP JUMPDEST PUSH1 0x40 DUP1 MLOAD PUSH1 0x1 PUSH1 0x1 PUSH1 0xA0 SHL SUB SWAP1 SWAP6 AND DUP6 MSTORE PUSH1 0x20 DUP6 ADD SWAP4 SWAP1 SWAP4 MSTORE SWAP2 DUP4 ADD MSTORE PUSH1 0x60 DUP3 ADD MSTORE PUSH1 0x80 ADD PUSH2 0x2A0 JUMP JUMPDEST PUSH1 0x10 SLOAD PUSH2 0x2F9 SWAP1 PUSH1 0x1 PUSH1 0x1 PUSH1 0xA0 SHL SUB AND DUP2 JUMP JUMPDEST PUSH1 0x40 MLOAD PUSH1 0x1 PUSH1 0x1 PUSH1 0xA0 SHL SUB SWAP1 SWAP2 AND DUP2 MSTORE PUSH1 0x20 ADD PUSH2 0x2A0 JUMP JUMPDEST PUSH2 0x324 PUSH2 0x31F CALLDATASIZE PUSH1 0x4 PUSH2 0x2110 JUMP JUMPDEST PUSH2 0x6FD JUMP JUMPDEST STOP JUMPDEST PUSH2 0x296 PUSH1 0xE SLOAD DUP2 JUMP JUMPDEST PUSH2 0x342 PUSH2 0x33D CALLDATASIZE PUSH1 0x4 PUSH2 0x20DA JUMP JUMPDEST PUSH2 0x7E6 JUMP JUMPDEST PUSH1 0x40 MLOAD SWAP1 ISZERO ISZERO DUP2 MSTORE PUSH1 0x20 ADD PUSH2 0x2A0 JUMP JUMPDEST PUSH2 0x381 PUSH2 0x360 CALLDATASIZE PUSH1 0x4 PUSH2 0x20DA JUMP JUMPDEST PUSH1 0x9 PUSH1 0x20 MSTORE PUSH1 0x0 SWAP1 DUP2 MSTORE PUSH1 0x40 SWAP1 KECCAK256 DUP1 SLOAD PUSH1 0x1 DUP3 ADD SLOAD PUSH1 0x2 SWAP1 SWAP3 ADD SLOAD SWAP1 SWAP2 SWAP1 DUP4 JUMP JUMPDEST PUSH1 0x40 DUP1 MLOAD SWAP4 DUP5 MSTORE PUSH1 0x20 DUP5 ADD SWAP3 SWAP1 SWAP3 MSTORE SWAP1 DUP3 ADD MSTORE PUSH1 0x60 ADD PUSH2 0x2A0 JUMP JUMPDEST PUSH2 0x342 PUSH2 0x3AA CALLDATASIZE PUSH1 0x4 PUSH2 0x20DA JUMP JUMPDEST PUSH2 0x81D JUMP JUMPDEST PUSH1 0x4 SLOAD PUSH2 0x296 JUMP JUMPDEST PUSH2 0x296 PUSH1 0xD SLOAD DUP2 JUMP JUMPDEST PUSH1 0x14 SLOAD PUSH2 0x2F9 SWAP1 PUSH1 0x1 PUSH1 0x1 PUSH1 0xA0 SHL SUB AND DUP2 JUMP JUMPDEST PUSH2 0x324 PUSH2 0x3E1 CALLDATASIZE PUSH1 0x4 PUSH2 0x20F7 JUMP JUMPDEST PUSH2 0x84C JUMP JUMPDEST PUSH2 0x324 PUSH2 0x3F4 CALLDATASIZE PUSH1 0x4 PUSH2 0x214B JUMP JUMPDEST PUSH2 0xB59 JUMP JUMPDEST PUSH2 0x296 PUSH2 0xBF7 JUMP JUMPDEST PUSH1 0x2 SLOAD PUSH2 0x296 JUMP JUMPDEST PUSH2 0x296 PUSH2 0xC0D JUMP JUMPDEST PUSH2 0x324 PUSH2 0x41F CALLDATASIZE PUSH1 0x4 PUSH2 0x216D JUMP JUMPDEST PUSH2 0xC20 JUMP JUMPDEST PUSH1 0x6 SLOAD PUSH2 0x2F9 SWAP1 PUSH1 0x1 PUSH1 0x1 PUSH1 0xA0 SHL SUB AND DUP2 JUMP JUMPDEST PUSH1 0x7 SLOAD PUSH2 0x2F9 SWAP1 PUSH1 0x1 PUSH1 0x1 PUSH1 0xA0 SHL SUB AND DUP2 JUMP JUMPDEST PUSH1 0x15 SLOAD PUSH2 0x2F9 SWAP1 PUSH1 0x1 PUSH1 0x1 PUSH1 0xA0 SHL SUB AND DUP2 JUMP JUMPDEST PUSH2 0x296 PUSH2 0x46B CALLDATASIZE PUSH1 0x4 PUSH2 0x20DA JUMP JUMPDEST PUSH1 0x1 PUSH1 0x1 PUSH1 0xA0 SHL SUB AND PUSH1 0x0 SWAP1 DUP2 MSTORE PUSH1 0x1 PUSH1 0x20 MSTORE PUSH1 0x40 SWAP1 KECCAK256 PUSH1 0x2 ADD SLOAD SWAP1 JUMP JUMPDEST PUSH1 0x3 SLOAD PUSH2 0x296 JUMP JUMPDEST PUSH2 0x324 PUSH2 0x49F CALLDATASIZE PUSH1 0x4 PUSH2 0x20F7 JUMP JUMPDEST PUSH2 0xD2E JUMP JUMPDEST PUSH2 0x296 PUSH2 0x4B2 CALLDATASIZE PUSH1 0x4 PUSH2 0x20DA JUMP JUMPDEST PUSH1 0x1 PUSH1 0x1 PUSH1 0xA0 SHL SUB AND PUSH1 0x0 SWAP1 DUP2 MSTORE PUSH1 0x9 PUSH1 0x20 MSTORE PUSH1 0x40 SWAP1 KECCAK256 SLOAD SWAP1 JUMP JUMPDEST PUSH2 0x296 PUSH1 0x11 SLOAD DUP2 JUMP JUMPDEST PUSH2 0x324 PUSH2 0x4E4 CALLDATASIZE PUSH1 0x4 PUSH2 0x2110 JUMP JUMPDEST PUSH2 0xD9E JUMP JUMPDEST PUSH1 0x16 SLOAD PUSH2 0x2F9 SWAP1 PUSH1 0x1 PUSH1 0x1 PUSH1 0xA0 SHL SUB AND DUP2 JUMP JUMPDEST PUSH2 0x296 PUSH1 0x12 SLOAD DUP2 JUMP JUMPDEST PUSH2 0x296 PUSH2 0x513 CALLDATASIZE PUSH1 0x4 PUSH2 0x20DA JUMP JUMPDEST PUSH1 0x1 PUSH1 0x1 PUSH1 0xA0 SHL SUB AND PUSH1 0x0 SWAP1 DUP2 MSTORE PUSH1 0x1 PUSH1 0x20 MSTORE PUSH1 0x40 SWAP1 KECCAK256 SLOAD SWAP1 JUMP JUMPDEST PUSH2 0x324 PUSH2 0x53C CALLDATASIZE PUSH1 0x4 PUSH2 0x20F7 JUMP JUMPDEST PUSH2 0xF84 JUMP JUMPDEST PUSH2 0x324 PUSH2 0x54F CALLDATASIZE PUSH1 0x4 PUSH2 0x20F7 JUMP JUMPDEST PUSH2 0x111E JUMP JUMPDEST PUSH1 0x0 SLOAD PUSH2 0x2F9 SWAP1 PUSH1 0x1 PUSH1 0x1 PUSH1 0xA0 SHL SUB AND DUP2 JUMP JUMPDEST PUSH2 0x324 PUSH2 0x575 CALLDATASIZE PUSH1 0x4 PUSH2 0x20DA JUMP JUMPDEST PUSH2 0x13EC JUMP JUMPDEST PUSH2 0x324 PUSH2 0x1438 JUMP JUMPDEST PUSH2 0x381 PUSH2 0x590 CALLDATASIZE PUSH1 0x4 PUSH2 0x20F7 JUMP JUMPDEST PUSH2 0x15CE JUMP JUMPDEST PUSH2 0x296 PUSH2 0x1601 JUMP JUMPDEST PUSH2 0x2BC PUSH2 0x5AB CALLDATASIZE PUSH1 0x4 PUSH2 0x20F7 JUMP JUMPDEST PUSH2 0x1626 JUMP JUMPDEST PUSH2 0x324 PUSH2 0x1636 JUMP JUMPDEST PUSH2 0x296 PUSH1 0xF SLOAD DUP2 JUMP JUMPDEST PUSH2 0x324 PUSH2 0x5CF CALLDATASIZE PUSH1 0x4 PUSH2 0x20F7 JUMP JUMPDEST PUSH2 0x1712 JUMP JUMPDEST PUSH2 0x324 PUSH2 0x19F0 JUMP JUMPDEST PUSH2 0x296 PUSH2 0x5EA CALLDATASIZE PUSH1 0x4 PUSH2 0x20DA JUMP JUMPDEST PUSH1 0x1 PUSH1 0x1 PUSH1 0xA0 SHL SUB AND PUSH1 0x0 SWAP1 DUP2 MSTORE PUSH1 0x1 PUSH1 0x20 DUP2 SWAP1 MSTORE PUSH1 0x40 SWAP1 SWAP2 KECCAK256 ADD SLOAD SWAP1 JUMP JUMPDEST PUSH2 0x296 PUSH1 0x13 SLOAD DUP2 JUMP JUMPDEST PUSH2 0x324 PUSH2 0x620 CALLDATASIZE PUSH1 0x4 PUSH2 0x20DA JUMP JUMPDEST PUSH2 0x1A0C JUMP JUMPDEST PUSH1 0x0 DUP1 PUSH2 0x630 PUSH2 0x1BAF JUMP JUMPDEST PUSH1 0x40 ADD MLOAD SWAP1 POP PUSH1 0x0 PUSH2 0x641 DUP5 PUSH2 0x1C29 JUMP JUMPDEST PUSH1 0x40 SWAP1 DUP2 ADD MLOAD PUSH1 0x1 PUSH1 0x1 PUSH1 0xA0 SHL SUB DUP7 AND PUSH1 0x0 SWAP1 DUP2 MSTORE PUSH1 0x9 PUSH1 0x20 MSTORE SWAP2 SWAP1 SWAP2 KECCAK256 PUSH1 0x1 ADD SLOAD SWAP1 SWAP2 POP PUSH2 0x6B1 SWAP1 PUSH2 0x6AB PUSH8 0xDE0B6B3A7640000 PUSH2 0x6A5 PUSH2 0x683 DUP8 DUP8 PUSH2 0x1CBC JUMP JUMPDEST PUSH1 0x1 PUSH1 0x1 PUSH1 0xA0 SHL SUB DUP11 AND PUSH1 0x0 SWAP1 DUP2 MSTORE PUSH1 0x1 PUSH1 0x20 MSTORE PUSH1 0x40 SWAP1 KECCAK256 PUSH1 0x2 ADD SLOAD SWAP1 PUSH2 0x1CCF JUMP JUMPDEST SWAP1 PUSH2 0x1CDB JUMP JUMPDEST SWAP1 PUSH2 0x1CE7 JUMP JUMPDEST SWAP5 SWAP4 POP POP POP POP JUMP JUMPDEST PUSH1 0xB DUP2 DUP2 SLOAD DUP2 LT PUSH2 0x6C9 JUMPI PUSH1 0x0 DUP1 REVERT JUMPDEST PUSH1 0x0 SWAP2 DUP3 MSTORE PUSH1 0x20 SWAP1 SWAP2 KECCAK256 PUSH1 0x4 SWAP1 SWAP2 MUL ADD DUP1 SLOAD PUSH1 0x1 DUP3 ADD SLOAD PUSH1 0x2 DUP4 ADD SLOAD PUSH1 0x3 SWAP1 SWAP4 ADD SLOAD PUSH1 0x1 PUSH1 0x1 PUSH1 0xA0 SHL SUB SWAP1 SWAP3 AND SWAP4 POP SWAP2 SWAP1 DUP5 JUMP JUMPDEST NUMBER PUSH1 0x0 SWAP1 DUP2 MSTORE PUSH1 0x5 PUSH1 0x20 SWAP1 DUP2 MSTORE PUSH1 0x40 DUP1 DUP4 KECCAK256 ORIGIN DUP5 MSTORE SWAP1 SWAP2 MSTORE SWAP1 KECCAK256 SLOAD PUSH1 0xFF AND ISZERO PUSH2 0x741 JUMPI PUSH1 0x40 MLOAD PUSH3 0x461BCD PUSH1 0xE5 SHL DUP2 MSTORE PUSH1 0x4 ADD PUSH2 0x738 SWAP1 PUSH2 0x21AF JUMP JUMPDEST PUSH1 0x40 MLOAD DUP1 SWAP2 SUB SWAP1 REVERT JUMPDEST NUMBER PUSH1 0x0 SWAP1 DUP2 MSTORE PUSH1 0x5 PUSH1 0x20 SWAP1 DUP2 MSTORE PUSH1 0x40 DUP1 DUP4 KECCAK256 CALLER DUP5 MSTORE SWAP1 SWAP2 MSTORE SWAP1 KECCAK256 SLOAD PUSH1 0xFF AND ISZERO PUSH2 0x77C JUMPI PUSH1 0x40 MLOAD PUSH3 0x461BCD PUSH1 0xE5 SHL DUP2 MSTORE PUSH1 0x4 ADD PUSH2 0x738 SWAP1 PUSH2 0x21AF JUMP JUMPDEST NUMBER PUSH1 0x0 SWAP1 DUP2 MSTORE PUSH1 0x5 PUSH1 0x20 SWAP1 DUP2 MSTORE PUSH1 0x40 DUP1 DUP4 KECCAK256 ORIGIN DUP5 MSTORE SWAP1 SWAP2 MSTORE DUP1 DUP3 KECCAK256 DUP1 SLOAD PUSH1 0x1 PUSH1 0xFF NOT SWAP2 DUP3 AND DUP2 OR SWAP1 SWAP3 SSTORE CALLER DUP1 DUP6 MSTORE SWAP3 SWAP1 SWAP4 KECCAK256 DUP1 SLOAD SWAP1 SWAP4 AND OR SWAP1 SWAP2 SSTORE PUSH1 0x7 SLOAD PUSH1 0x1 PUSH1 0x1 PUSH1 0xA0 SHL SUB AND EQ PUSH2 0x7E0 JUMPI PUSH1 0x40 MLOAD PUSH3 0x461BCD PUSH1 0xE5 SHL DUP2 MSTORE PUSH1 0x4 ADD PUSH2 0x738 SWAP1 PUSH2 0x21F5 JUMP JUMPDEST POP POP POP POP JUMP JUMPDEST PUSH1 0x12 SLOAD PUSH1 0xE SLOAD PUSH1 0x1 PUSH1 0x1 PUSH1 0xA0 SHL SUB DUP4 AND PUSH1 0x0 SWAP1 DUP2 MSTORE PUSH1 0x9 PUSH1 0x20 MSTORE PUSH1 0x40 DUP2 KECCAK256 PUSH1 0x2 ADD SLOAD SWAP1 SWAP3 SWAP2 PUSH2 0x815 SWAP2 SWAP1 PUSH2 0x1CE7 JUMP JUMPDEST GT ISZERO SWAP3 SWAP2 POP POP JUMP JUMPDEST PUSH1 0x12 SLOAD PUSH1 0xD SLOAD PUSH1 0x1 PUSH1 0x1 PUSH1 0xA0 SHL SUB DUP4 AND PUSH1 0x0 SWAP1 DUP2 MSTORE PUSH1 0x9 PUSH1 0x20 MSTORE PUSH1 0x40 DUP2 KECCAK256 PUSH1 0x2 ADD SLOAD SWAP1 SWAP3 SWAP2 PUSH2 0x815 SWAP2 SWAP1 PUSH2 0x1CE7 JUMP JUMPDEST NUMBER PUSH1 0x0 SWAP1 DUP2 MSTORE PUSH1 0x5 PUSH1 0x20 SWAP1 DUP2 MSTORE PUSH1 0x40 DUP1 DUP4 KECCAK256 ORIGIN DUP5 MSTORE SWAP1 SWAP2 MSTORE SWAP1 KECCAK256 SLOAD PUSH1 0xFF AND ISZERO PUSH2 0x887 JUMPI PUSH1 0x40 MLOAD PUSH3 0x461BCD PUSH1 0xE5 SHL DUP2 MSTORE PUSH1 0x4 ADD PUSH2 0x738 SWAP1 PUSH2 0x21AF JUMP JUMPDEST NUMBER PUSH1 0x0 SWAP1 DUP2 MSTORE PUSH1 0x5 PUSH1 0x20 SWAP1 DUP2 MSTORE PUSH1 0x40 DUP1 DUP4 KECCAK256 CALLER DUP5 MSTORE SWAP1 SWAP2 MSTORE SWAP1 KECCAK256 SLOAD PUSH1 0xFF AND ISZERO PUSH2 0x8C2 JUMPI PUSH1 0x40 MLOAD PUSH3 0x461BCD PUSH1 0xE5 SHL DUP2 MSTORE PUSH1 0x4 ADD PUSH2 0x738 SWAP1 PUSH2 0x21AF JUMP JUMPDEST NUMBER PUSH1 0x0 SWAP1 DUP2 MSTORE PUSH1 0x5 PUSH1 0x20 SWAP1 DUP2 MSTORE PUSH1 0x40 DUP1 DUP4 KECCAK256 ORIGIN DUP5 MSTORE DUP3 MSTORE DUP1 DUP4 KECCAK256 DUP1 SLOAD PUSH1 0x1 PUSH1 0xFF NOT SWAP2 DUP3 AND DUP2 OR SWAP1 SWAP3 SSTORE CALLER DUP6 MSTORE DUP3 DUP6 KECCAK256 DUP1 SLOAD SWAP1 SWAP2 AND DUP3 OR SWAP1 SSTORE SWAP1 SWAP2 MSTORE DUP2 KECCAK256 PUSH1 0x2 ADD SLOAD GT PUSH2 0x95C JUMPI PUSH1 0x40 MLOAD PUSH3 0x461BCD PUSH1 0xE5 SHL DUP2 MSTORE PUSH1 0x20 PUSH1 0x4 DUP3 ADD MSTORE PUSH1 0x24 DUP1 DUP3 ADD MSTORE PUSH32 0x426F617264726F6F6D3A20546865206D656D62657220646F6573206E6F742065 PUSH1 0x44 DUP3 ADD MSTORE PUSH4 0x1E1A5CDD PUSH1 0xE2 SHL PUSH1 0x64 DUP3 ADD MSTORE PUSH1 0x84 ADD PUSH2 0x738 JUMP JUMPDEST CALLER DUP1 ISZERO PUSH2 0x9ED JUMPI PUSH1 0x1 PUSH1 0x1 PUSH1 0xA0 SHL SUB DUP2 AND PUSH1 0x0 SWAP1 DUP2 MSTORE PUSH1 0x9 PUSH1 0x20 SWAP1 DUP2 MSTORE PUSH1 0x40 SWAP2 DUP3 SWAP1 KECCAK256 DUP3 MLOAD PUSH1 0x60 DUP2 ADD DUP5 MSTORE DUP2 SLOAD DUP2 MSTORE PUSH1 0x1 DUP3 ADD SLOAD SWAP3 DUP2 ADD SWAP3 SWAP1 SWAP3 MSTORE PUSH1 0x2 ADD SLOAD SWAP2 DUP2 ADD SWAP2 SWAP1 SWAP2 MSTORE PUSH2 0x9AB DUP3 PUSH2 0x625 JUMP JUMPDEST PUSH1 0x20 DUP3 ADD MSTORE PUSH2 0x9B8 PUSH2 0xBF7 JUMP JUMPDEST DUP2 MSTORE PUSH1 0x1 PUSH1 0x1 PUSH1 0xA0 SHL SUB DUP3 AND PUSH1 0x0 SWAP1 DUP2 MSTORE PUSH1 0x9 PUSH1 0x20 SWAP1 DUP2 MSTORE PUSH1 0x40 SWAP2 DUP3 SWAP1 KECCAK256 DUP4 MLOAD DUP2 SSTORE SWAP1 DUP4 ADD MLOAD PUSH1 0x1 DUP3 ADD SSTORE SWAP2 ADD MLOAD PUSH1 0x2 SWAP1 SWAP2 ADD SSTORE JUMPDEST PUSH1 0x0 DUP3 GT PUSH2 0xA3D JUMPI PUSH1 0x40 MLOAD PUSH3 0x461BCD PUSH1 0xE5 SHL DUP2 MSTORE PUSH1 0x20 PUSH1 0x4 DUP3 ADD MSTORE PUSH1 0x1C PUSH1 0x24 DUP3 ADD MSTORE PUSH32 0x426F617264726F6F6D3A2043616E6E6F74207769746864726177203000000000 PUSH1 0x44 DUP3 ADD MSTORE PUSH1 0x64 ADD PUSH2 0x738 JUMP JUMPDEST PUSH1 0x12 SLOAD PUSH1 0xD SLOAD CALLER PUSH1 0x0 SWAP1 DUP2 MSTORE PUSH1 0x9 PUSH1 0x20 MSTORE PUSH1 0x40 SWAP1 KECCAK256 PUSH1 0x2 ADD SLOAD PUSH2 0xA5F SWAP2 PUSH2 0x1CE7 JUMP JUMPDEST GT ISZERO PUSH2 0xAB9 JUMPI PUSH1 0x40 MLOAD PUSH3 0x461BCD PUSH1 0xE5 SHL DUP2 MSTORE PUSH1 0x20 PUSH1 0x4 DUP3 ADD MSTORE PUSH1 0x23 PUSH1 0x24 DUP3 ADD MSTORE PUSH32 0x426F617264726F6F6D3A207374696C6C20696E207769746864726177206C6F63 PUSH1 0x44 DUP3 ADD MSTORE PUSH3 0x6B757 PUSH1 0xEC SHL PUSH1 0x64 DUP3 ADD MSTORE PUSH1 0x84 ADD PUSH2 0x738 JUMP JUMPDEST PUSH2 0xAC1 PUSH2 0x1438 JUMP JUMPDEST PUSH1 0xF SLOAD ISZERO PUSH2 0xB16 JUMPI PUSH1 0x0 PUSH2 0xAE6 PUSH2 0x2710 PUSH2 0x6A5 PUSH1 0xF SLOAD DUP7 PUSH2 0x1CCF SWAP1 SWAP2 SWAP1 PUSH4 0xFFFFFFFF AND JUMP JUMPDEST SWAP1 POP PUSH2 0xAF2 DUP4 DUP3 PUSH2 0x1CBC JUMP JUMPDEST PUSH1 0x10 SLOAD PUSH1 0x0 SLOAD SWAP2 SWAP5 POP PUSH2 0xB14 SWAP2 PUSH1 0x1 PUSH1 0x1 PUSH1 0xA0 SHL SUB SWAP1 DUP2 AND SWAP2 CALLER SWAP2 AND DUP5 PUSH2 0x1CF3 JUMP JUMPDEST POP JUMPDEST PUSH2 0xB1F DUP3 PUSH2 0x1D2B JUMP JUMPDEST PUSH1 0x40 MLOAD DUP3 DUP2 MSTORE CALLER SWAP1 PUSH32 0x7084F5476618D8E60B11EF0D7D3F06914655ADB8793E28FF7F018D4C76D505D5 SWAP1 PUSH1 0x20 ADD JUMPDEST PUSH1 0x40 MLOAD DUP1 SWAP2 SUB SWAP1 LOG2 POP POP JUMP JUMPDEST PUSH1 0x6 SLOAD PUSH1 0x1 PUSH1 0x1 PUSH1 0xA0 SHL SUB AND CALLER EQ PUSH2 0xB83 JUMPI PUSH1 0x40 MLOAD PUSH3 0x461BCD PUSH1 0xE5 SHL DUP2 MSTORE PUSH1 0x4 ADD PUSH2 0x738 SWAP1 PUSH2 0x223C JUMP JUMPDEST DUP1 DUP3 LT ISZERO DUP1 ISZERO PUSH2 0xB94 JUMPI POP PUSH1 0x38 DUP3 GT ISZERO JUMPDEST PUSH2 0xBEC JUMPI PUSH1 0x40 MLOAD PUSH3 0x461BCD PUSH1 0xE5 SHL DUP2 MSTORE PUSH1 0x20 PUSH1 0x4 DUP3 ADD MSTORE PUSH1 0x23 PUSH1 0x24 DUP3 ADD MSTORE PUSH32 0x5F77697468647261774C6F636B757045706F6368733A206F7574206F66207261 PUSH1 0x44 DUP3 ADD MSTORE PUSH3 0x6E6765 PUSH1 0xE8 SHL PUSH1 0x64 DUP3 ADD MSTORE PUSH1 0x84 ADD PUSH2 0x738 JUMP JUMPDEST PUSH1 0xD SWAP2 SWAP1 SWAP2 SSTORE PUSH1 0xE SSTORE JUMP JUMPDEST PUSH1 0xA SLOAD PUSH1 0x0 SWAP1 PUSH2 0xC08 SWAP1 PUSH1 0x1 PUSH2 0x1CBC JUMP JUMPDEST SWAP1 POP SWAP1 JUMP JUMPDEST PUSH1 0x0 PUSH2 0xC17 PUSH2 0x1BAF JUMP JUMPDEST PUSH1 0x40 ADD MLOAD SWAP1 POP SWAP1 JUMP JUMPDEST PUSH1 0x6 SLOAD PUSH1 0x1 PUSH1 0x1 PUSH1 0xA0 SHL SUB AND CALLER EQ PUSH2 0xC4A JUMPI PUSH1 0x40 MLOAD PUSH3 0x461BCD PUSH1 0xE5 SHL DUP2 MSTORE PUSH1 0x4 ADD PUSH2 0x738 SWAP1 PUSH2 0x223C JUMP JUMPDEST PUSH1 0x1 PUSH1 0x1 PUSH1 0xA0 SHL SUB DUP2 AND PUSH2 0xC89 JUMPI PUSH1 0x40 MLOAD PUSH3 0x461BCD PUSH1 0xE5 SHL DUP2 MSTORE PUSH1 0x4 ADD PUSH2 0x738 SWAP1 PUSH1 0x20 DUP1 DUP3 MSTORE PUSH1 0x4 SWAP1 DUP3 ADD MSTORE PUSH4 0x7A65726F PUSH1 0xE0 SHL PUSH1 0x40 DUP3 ADD MSTORE PUSH1 0x60 ADD SWAP1 JUMP JUMPDEST PUSH1 0x8 SLOAD PUSH1 0x1 PUSH1 0x1 PUSH1 0xA0 SHL SUB SWAP1 DUP2 AND SWAP1 DUP5 AND SUB PUSH2 0xCCF JUMPI PUSH1 0x40 MLOAD PUSH3 0x461BCD PUSH1 0xE5 SHL DUP2 MSTORE PUSH1 0x20 PUSH1 0x4 DUP3 ADD MSTORE PUSH1 0x5 PUSH1 0x24 DUP3 ADD MSTORE PUSH5 0x3A37B5B2B7 PUSH1 0xD9 SHL PUSH1 0x44 DUP3 ADD MSTORE PUSH1 0x64 ADD PUSH2 0x738 JUMP JUMPDEST PUSH1 0x0 SLOAD PUSH1 0x1 PUSH1 0x1 PUSH1 0xA0 SHL SUB SWAP1 DUP2 AND SWAP1 DUP5 AND SUB PUSH2 0xD15 JUMPI PUSH1 0x40 MLOAD PUSH3 0x461BCD PUSH1 0xE5 SHL DUP2 MSTORE PUSH1 0x20 PUSH1 0x4 DUP3 ADD MSTORE PUSH1 0x5 PUSH1 0x24 DUP3 ADD MSTORE PUSH5 0x7368617265 PUSH1 0xD8 SHL PUSH1 0x44 DUP3 ADD MSTORE PUSH1 0x64 ADD PUSH2 0x738 JUMP JUMPDEST PUSH2 0xD29 PUSH1 0x1 PUSH1 0x1 PUSH1 0xA0 SHL SUB DUP5 AND DUP3 DUP5 PUSH2 0x1DF1 JUMP JUMPDEST POP POP POP JUMP JUMPDEST PUSH1 0x6 SLOAD PUSH1 0x1 PUSH1 0x1 PUSH1 0xA0 SHL SUB AND CALLER EQ PUSH2 0xD58 JUMPI PUSH1 0x40 MLOAD PUSH3 0x461BCD PUSH1 0xE5 SHL DUP2 MSTORE PUSH1 0x4 ADD PUSH2 0x738 SWAP1 PUSH2 0x223C JUMP JUMPDEST PUSH2 0x2710 DUP2 GT ISZERO PUSH2 0xD99 JUMPI PUSH1 0x40 MLOAD PUSH3 0x461BCD PUSH1 0xE5 SHL DUP2 MSTORE PUSH1 0x20 PUSH1 0x4 DUP3 ADD MSTORE PUSH1 0xC PUSH1 0x24 DUP3 ADD MSTORE PUSH12 0x6F7574206F662072616E6765 PUSH1 0xA0 SHL PUSH1 0x44 DUP3 ADD MSTORE PUSH1 0x64 ADD PUSH2 0x738 JUMP JUMPDEST PUSH1 0xF SSTORE JUMP JUMPDEST NUMBER PUSH1 0x0 SWAP1 DUP2 MSTORE PUSH1 0x5 PUSH1 0x20 SWAP1 DUP2 MSTORE PUSH1 0x40 DUP1 DUP4 KECCAK256 ORIGIN DUP5 MSTORE SWAP1 SWAP2 MSTORE SWAP1 KECCAK256 SLOAD PUSH1 0xFF AND ISZERO PUSH2 0xDD9 JUMPI PUSH1 0x40 MLOAD PUSH3 0x461BCD PUSH1 0xE5 SHL DUP2 MSTORE PUSH1 0x4 ADD PUSH2 0x738 SWAP1 PUSH2 0x21AF JUMP JUMPDEST NUMBER PUSH1 0x0 SWAP1 DUP2 MSTORE PUSH1 0x5 PUSH1 0x20 SWAP1 DUP2 MSTORE PUSH1 0x40 DUP1 DUP4 KECCAK256 CALLER DUP5 MSTORE SWAP1 SWAP2 MSTORE SWAP1 KECCAK256 SLOAD PUSH1 0xFF AND ISZERO PUSH2 0xE14 JUMPI PUSH1 0x40 MLOAD PUSH3 0x461BCD PUSH1 0xE5 SHL DUP2 MSTORE PUSH1 0x4 ADD PUSH2 0x738 SWAP1 PUSH2 0x21AF JUMP JUMPDEST NUMBER PUSH1 0x0 SWAP1 DUP2 MSTORE PUSH1 0x5 PUSH1 0x20 SWAP1 DUP2 MSTORE PUSH1 0x40 DUP1 DUP4 KECCAK256 ORIGIN DUP5 MSTORE SWAP1 SWAP2 MSTORE DUP1 DUP3 KECCAK256 DUP1 SLOAD PUSH1 0x1 PUSH1 0xFF NOT SWAP2 DUP3 AND DUP2 OR SWAP1 SWAP3 SSTORE CALLER DUP1 DUP6 MSTORE SWAP3 SWAP1 SWAP4 KECCAK256 DUP1 SLOAD SWAP1 SWAP4 AND OR SWAP1 SWAP2 SSTORE PUSH1 0x7 SLOAD PUSH1 0x1 PUSH1 0x1 PUSH1 0xA0 SHL SUB AND EQ PUSH2 0xE78 JUMPI PUSH1 0x40 MLOAD PUSH3 0x461BCD PUSH1 0xE5 SHL DUP2 MSTORE PUSH1 0x4 ADD PUSH2 0x738 SWAP1 PUSH2 0x21F5 JUMP JUMPDEST PUSH1 0x2 SLOAD PUSH2 0xEC3 JUMPI PUSH1 0x40 MLOAD PUSH3 0x461BCD PUSH1 0xE5 SHL DUP2 MSTORE PUSH1 0x20 PUSH1 0x4 DUP3 ADD MSTORE PUSH1 0x19 PUSH1 0x24 DUP3 ADD MSTORE PUSH25 0x426F617264726F6F6D3A2043616E6E6F74207374616B65203 PUSH1 0x3C SHL PUSH1 0x44 DUP3 ADD MSTORE PUSH1 0x64 ADD PUSH2 0x738 JUMP JUMPDEST PUSH1 0x15 SLOAD PUSH2 0xEDE SWAP1 PUSH1 0x1 PUSH1 0x1 PUSH1 0xA0 SHL SUB DUP7 DUP2 AND SWAP2 AND PUSH1 0x0 PUSH2 0x1A58 JUMP JUMPDEST PUSH1 0x15 SLOAD PUSH2 0xEF8 SWAP1 PUSH1 0x1 PUSH1 0x1 PUSH1 0xA0 SHL SUB DUP7 DUP2 AND SWAP2 AND DUP6 PUSH2 0x1A58 JUMP JUMPDEST PUSH1 0x14 SLOAD PUSH1 0x40 MLOAD PUSH4 0x364E2311 PUSH1 0xE0 SHL DUP2 MSTORE PUSH1 0x1 PUSH1 0x1 PUSH1 0xA0 SHL SUB DUP7 DUP2 AND PUSH1 0x4 DUP4 ADD MSTORE PUSH1 0x24 DUP3 ADD DUP7 SWAP1 MSTORE PUSH1 0x44 DUP3 ADD DUP6 SWAP1 MSTORE PUSH1 0x64 DUP3 ADD DUP5 SWAP1 MSTORE SWAP1 SWAP2 AND SWAP1 PUSH4 0x364E2311 SWAP1 PUSH1 0x84 ADD PUSH1 0x20 PUSH1 0x40 MLOAD DUP1 DUP4 SUB DUP2 PUSH1 0x0 DUP8 GAS CALL ISZERO DUP1 ISZERO PUSH2 0xF59 JUMPI RETURNDATASIZE PUSH1 0x0 DUP1 RETURNDATACOPY RETURNDATASIZE PUSH1 0x0 REVERT JUMPDEST POP POP POP POP PUSH1 0x40 MLOAD RETURNDATASIZE PUSH1 0x1F NOT PUSH1 0x1F DUP3 ADD AND DUP3 ADD DUP1 PUSH1 0x40 MSTORE POP DUP2 ADD SWAP1 PUSH2 0xF7D SWAP2 SWAP1 PUSH2 0x2281 JUMP JUMPDEST POP POP POP POP POP JUMP JUMPDEST NUMBER PUSH1 0x0 SWAP1 DUP2 MSTORE PUSH1 0x5 PUSH1 0x20 SWAP1 DUP2 MSTORE PUSH1 0x40 DUP1 DUP4 KECCAK256 ORIGIN DUP5 MSTORE SWAP1 SWAP2 MSTORE SWAP1 KECCAK256 SLOAD PUSH1 0xFF AND ISZERO PUSH2 0xFBF JUMPI PUSH1 0x40 MLOAD PUSH3 0x461BCD PUSH1 0xE5 SHL DUP2 MSTORE PUSH1 0x4 ADD PUSH2 0x738 SWAP1 PUSH2 0x21AF JUMP JUMPDEST NUMBER PUSH1 0x0 SWAP1 DUP2 MSTORE PUSH1 0x5 PUSH1 0x20 SWAP1 DUP2 MSTORE PUSH1 0x40 DUP1 DUP4 KECCAK256 CALLER DUP5 MSTORE SWAP1 SWAP2 MSTORE SWAP1 KECCAK256 SLOAD PUSH1 0xFF AND ISZERO PUSH2 0xFFA JUMPI PUSH1 0x40 MLOAD PUSH3 0x461BCD PUSH1 0xE5 SHL DUP2 MSTORE PUSH1 0x4 ADD PUSH2 0x738 SWAP1 PUSH2 0x21AF JUMP JUMPDEST NUMBER PUSH1 0x0 SWAP1 DUP2 MSTORE PUSH1 0x5 PUSH1 0x20 SWAP1 DUP2 MSTORE PUSH1 0x40 DUP1 DUP4 KECCAK256 ORIGIN DUP5 MSTORE DUP3 MSTORE DUP1 DUP4 KECCAK256 DUP1 SLOAD PUSH1 0x1 PUSH1 0xFF NOT SWAP2 DUP3 AND DUP2 OR SWAP1 SWAP3 SSTORE CALLER DUP1 DUP7 MSTORE DUP4 DUP7 KECCAK256 DUP1 SLOAD SWAP1 SWAP3 AND DUP4 OR SWAP1 SWAP2 SSTORE DUP3 MLOAD PUSH1 0x80 DUP2 ADD DUP5 MSTORE SWAP1 DUP2 MSTORE SWAP3 DUP4 ADD SWAP5 DUP6 MSTORE TIMESTAMP SWAP2 DUP4 ADD SWAP2 DUP3 MSTORE PUSH1 0x12 SLOAD PUSH1 0x60 DUP5 ADD SWAP1 DUP2 MSTORE PUSH1 0xC DUP1 SLOAD SWAP3 DUP4 ADD DUP2 SSTORE SWAP1 SWAP5 MSTORE SWAP2 MLOAD PUSH32 0xDF6966C971051C3D54EC59162606531493A51404A002842F56009D7E5CF4A8C7 PUSH1 0x4 SWAP1 SWAP4 MUL SWAP3 DUP4 ADD DUP1 SLOAD PUSH1 0x1 PUSH1 0x1 PUSH1 0xA0 SHL SUB NOT AND PUSH1 0x1 PUSH1 0x1 PUSH1 0xA0 SHL SUB SWAP1 SWAP3 AND SWAP2 SWAP1 SWAP2 OR SWAP1 SSTORE SWAP3 MLOAD PUSH32 0xDF6966C971051C3D54EC59162606531493A51404A002842F56009D7E5CF4A8C8 DUP3 ADD SSTORE SWAP2 MLOAD PUSH32 0xDF6966C971051C3D54EC59162606531493A51404A002842F56009D7E5CF4A8C9 DUP4 ADD SSTORE MLOAD PUSH32 0xDF6966C971051C3D54EC59162606531493A51404A002842F56009D7E5CF4A8CA SWAP1 SWAP2 ADD SSTORE JUMP JUMPDEST NUMBER PUSH1 0x0 SWAP1 DUP2 MSTORE PUSH1 0x5 PUSH1 0x20 SWAP1 DUP2 MSTORE PUSH1 0x40 DUP1 DUP4 KECCAK256 ORIGIN DUP5 MSTORE SWAP1 SWAP2 MSTORE SWAP1 KECCAK256 SLOAD PUSH1 0xFF AND ISZERO PUSH2 0x1159 JUMPI PUSH1 0x40 MLOAD PUSH3 0x461BCD PUSH1 0xE5 SHL DUP2 MSTORE PUSH1 0x4 ADD PUSH2 0x738 SWAP1 PUSH2 0x21AF JUMP JUMPDEST NUMBER PUSH1 0x0 SWAP1 DUP2 MSTORE PUSH1 0x5 PUSH1 0x20 SWAP1 DUP2 MSTORE PUSH1 0x40 DUP1 DUP4 KECCAK256 CALLER DUP5 MSTORE SWAP1 SWAP2 MSTORE SWAP1 KECCAK256 SLOAD PUSH1 0xFF AND ISZERO PUSH2 0x1194 JUMPI PUSH1 0x40 MLOAD PUSH3 0x461BCD PUSH1 0xE5 SHL DUP2 MSTORE PUSH1 0x4 ADD PUSH2 0x738 SWAP1 PUSH2 0x21AF JUMP JUMPDEST NUMBER PUSH1 0x0 SWAP1 DUP2 MSTORE PUSH1 0x5 PUSH1 0x20 SWAP1 DUP2 MSTORE PUSH1 0x40 DUP1 DUP4 KECCAK256 ORIGIN DUP5 MSTORE SWAP1 SWAP2 MSTORE DUP1 DUP3 KECCAK256 DUP1 SLOAD PUSH1 0x1 PUSH1 0xFF NOT SWAP2 DUP3 AND DUP2 OR SWAP1 SWAP3 SSTORE CALLER DUP1 DUP6 MSTORE SWAP3 SWAP1 SWAP4 KECCAK256 DUP1 SLOAD SWAP1 SWAP4 AND OR SWAP1 SWAP2 SSTORE DUP1 ISZERO PUSH2 0x125F JUMPI PUSH1 0x1 PUSH1 0x1 PUSH1 0xA0 SHL SUB DUP2 AND PUSH1 0x0 SWAP1 DUP2 MSTORE PUSH1 0x9 PUSH1 0x20 SWAP1 DUP2 MSTORE PUSH1 0x40 SWAP2 DUP3 SWAP1 KECCAK256 DUP3 MLOAD PUSH1 0x60 DUP2 ADD DUP5 MSTORE DUP2 SLOAD DUP2 MSTORE PUSH1 0x1 DUP3 ADD SLOAD SWAP3 DUP2 ADD SWAP3 SWAP1 SWAP3 MSTORE PUSH1 0x2 ADD SLOAD SWAP2 DUP2 ADD SWAP2 SWAP1 SWAP2 MSTORE PUSH2 0x121D DUP3 PUSH2 0x625 JUMP JUMPDEST PUSH1 0x20 DUP3 ADD MSTORE PUSH2 0x122A PUSH2 0xBF7 JUMP JUMPDEST DUP2 MSTORE PUSH1 0x1 PUSH1 0x1 PUSH1 0xA0 SHL SUB DUP3 AND PUSH1 0x0 SWAP1 DUP2 MSTORE PUSH1 0x9 PUSH1 0x20 SWAP1 DUP2 MSTORE PUSH1 0x40 SWAP2 DUP3 SWAP1 KECCAK256 DUP4 MLOAD DUP2 SSTORE SWAP1 DUP4 ADD MLOAD PUSH1 0x1 DUP3 ADD SSTORE SWAP2 ADD MLOAD PUSH1 0x2 SWAP1 SWAP2 ADD SSTORE JUMPDEST PUSH1 0x0 DUP3 GT PUSH2 0x12AB JUMPI PUSH1 0x40 MLOAD PUSH3 0x461BCD PUSH1 0xE5 SHL DUP2 MSTORE PUSH1 0x20 PUSH1 0x4 DUP3 ADD MSTORE PUSH1 0x19 PUSH1 0x24 DUP3 ADD MSTORE PUSH25 0x426F617264726F6F6D3A2043616E6E6F74207374616B65203 PUSH1 0x3C SHL PUSH1 0x44 DUP3 ADD MSTORE PUSH1 0x64 ADD PUSH2 0x738 JUMP JUMPDEST PUSH2 0x12B4 DUP3 PUSH2 0x1E21 JUMP JUMPDEST PUSH1 0x12 SLOAD CALLER PUSH1 0x0 DUP2 DUP2 MSTORE PUSH1 0x9 PUSH1 0x20 SWAP1 DUP2 MSTORE PUSH1 0x40 DUP1 DUP4 KECCAK256 PUSH1 0x2 ADD DUP6 SWAP1 SSTORE DUP1 MLOAD PUSH1 0x80 DUP2 ADD DUP3 MSTORE DUP5 DUP2 MSTORE DUP1 DUP4 ADD DUP9 DUP2 MSTORE TIMESTAMP DUP3 DUP5 ADD SWAP1 DUP2 MSTORE PUSH1 0x60 DUP4 ADD SWAP8 DUP9 MSTORE PUSH1 0xB DUP1 SLOAD PUSH1 0x1 DUP2 ADD DUP3 SSTORE SWAP7 MSTORE DUP3 MLOAD PUSH32 0x175B7A638427703F0DBE7BB9BBF987A2551717B34E79F33B5B1008D1FA01DB9 PUSH1 0x4 SWAP1 SWAP8 MUL SWAP7 DUP8 ADD DUP1 SLOAD PUSH1 0x1 PUSH1 0x1 PUSH1 0xA0 SHL SUB NOT AND PUSH1 0x1 PUSH1 0x1 PUSH1 0xA0 SHL SUB SWAP1 SWAP3 AND SWAP2 SWAP1 SWAP2 OR SWAP1 SSTORE SWAP1 MLOAD PUSH32 0x175B7A638427703F0DBE7BB9BBF987A2551717B34E79F33B5B1008D1FA01DBA DUP7 ADD SSTORE MLOAD PUSH32 0x175B7A638427703F0DBE7BB9BBF987A2551717B34E79F33B5B1008D1FA01DBB DUP6 ADD SSTORE SWAP5 MLOAD PUSH32 0x175B7A638427703F0DBE7BB9BBF987A2551717B34E79F33B5B1008D1FA01DBC SWAP1 SWAP4 ADD SWAP3 SWAP1 SWAP3 SSTORE SWAP1 MLOAD DUP6 DUP2 MSTORE PUSH32 0x9E71BC8EEA02A63969F509818F2DAFB9254532904319F9DBDA79B67BD34A5F3D SWAP2 ADD PUSH1 0x40 MLOAD DUP1 SWAP2 SUB SWAP1 LOG2 POP POP POP JUMP JUMPDEST PUSH1 0x6 SLOAD PUSH1 0x1 PUSH1 0x1 PUSH1 0xA0 SHL SUB AND CALLER EQ PUSH2 0x1416 JUMPI PUSH1 0x40 MLOAD PUSH3 0x461BCD PUSH1 0xE5 SHL DUP2 MSTORE PUSH1 0x4 ADD PUSH2 0x738 SWAP1 PUSH2 0x223C JUMP JUMPDEST PUSH1 0x6 DUP1 SLOAD PUSH1 0x1 PUSH1 0x1 PUSH1 0xA0 SHL SUB NOT AND PUSH1 0x1 PUSH1 0x1 PUSH1 0xA0 SHL SUB SWAP3 SWAP1 SWAP3 AND SWAP2 SWAP1 SWAP2 OR SWAP1 SSTORE JUMP JUMPDEST CALLER DUP1 ISZERO PUSH2 0x14C9 JUMPI PUSH1 0x1 PUSH1 0x1 PUSH1 0xA0 SHL SUB DUP2 AND PUSH1 0x0 SWAP1 DUP2 MSTORE PUSH1 0x9 PUSH1 0x20 SWAP1 DUP2 MSTORE PUSH1 0x40 SWAP2 DUP3 SWAP1 KECCAK256 DUP3 MLOAD PUSH1 0x60 DUP2 ADD DUP5 MSTORE DUP2 SLOAD DUP2 MSTORE PUSH1 0x1 DUP3 ADD SLOAD SWAP3 DUP2 ADD SWAP3 SWAP1 SWAP3 MSTORE PUSH1 0x2 ADD SLOAD SWAP2 DUP2 ADD SWAP2 SWAP1 SWAP2 MSTORE PUSH2 0x1487 DUP3 PUSH2 0x625 JUMP JUMPDEST PUSH1 0x20 DUP3 ADD MSTORE PUSH2 0x1494 PUSH2 0xBF7 JUMP JUMPDEST DUP2 MSTORE PUSH1 0x1 PUSH1 0x1 PUSH1 0xA0 SHL SUB DUP3 AND PUSH1 0x0 SWAP1 DUP2 MSTORE PUSH1 0x9 PUSH1 0x20 SWAP1 DUP2 MSTORE PUSH1 0x40 SWAP2 DUP3 SWAP1 KECCAK256 DUP4 MLOAD DUP2 SSTORE SWAP1 DUP4 ADD MLOAD PUSH1 0x1 DUP3 ADD SSTORE SWAP2 ADD MLOAD PUSH1 0x2 SWAP1 SWAP2 ADD SSTORE JUMPDEST CALLER PUSH1 0x0 SWAP1 DUP2 MSTORE PUSH1 0x9 PUSH1 0x20 MSTORE PUSH1 0x40 SWAP1 KECCAK256 PUSH1 0x1 ADD SLOAD DUP1 ISZERO PUSH2 0x15CA JUMPI PUSH1 0x12 SLOAD PUSH1 0xE SLOAD CALLER PUSH1 0x0 SWAP1 DUP2 MSTORE PUSH1 0x9 PUSH1 0x20 MSTORE PUSH1 0x40 SWAP1 KECCAK256 PUSH1 0x2 ADD SLOAD PUSH2 0x1504 SWAP2 PUSH2 0x1CE7 JUMP JUMPDEST GT ISZERO PUSH2 0x155C JUMPI PUSH1 0x40 MLOAD PUSH3 0x461BCD PUSH1 0xE5 SHL DUP2 MSTORE PUSH1 0x20 PUSH1 0x4 DUP3 ADD MSTORE PUSH1 0x21 PUSH1 0x24 DUP3 ADD MSTORE PUSH32 0x426F617264726F6F6D3A207374696C6C20696E20726577617264206C6F636B75 PUSH1 0x44 DUP3 ADD MSTORE PUSH1 0x7 PUSH1 0xFC SHL PUSH1 0x64 DUP3 ADD MSTORE PUSH1 0x84 ADD PUSH2 0x738 JUMP JUMPDEST PUSH1 0x12 SLOAD CALLER PUSH1 0x0 DUP2 DUP2 MSTORE PUSH1 0x9 PUSH1 0x20 MSTORE PUSH1 0x40 DUP2 KECCAK256 PUSH1 0x2 DUP2 ADD SWAP4 SWAP1 SWAP4 SSTORE PUSH1 0x1 SWAP1 SWAP3 ADD SWAP2 SWAP1 SWAP2 SSTORE PUSH1 0x8 SLOAD PUSH2 0x1598 SWAP2 PUSH1 0x1 PUSH1 0x1 PUSH1 0xA0 SHL SUB SWAP1 SWAP2 AND SWAP1 DUP4 PUSH2 0x1DF1 JUMP JUMPDEST PUSH1 0x40 MLOAD DUP2 DUP2 MSTORE CALLER SWAP1 PUSH32 0xE2403640BA68FED3A2F88B7557551D1993F84B99BB10FF833F0CF8DB0C5E0486 SWAP1 PUSH1 0x20 ADD PUSH2 0xB4D JUMP JUMPDEST POP POP JUMP JUMPDEST PUSH1 0xA DUP2 DUP2 SLOAD DUP2 LT PUSH2 0x15DE JUMPI PUSH1 0x0 DUP1 REVERT JUMPDEST PUSH1 0x0 SWAP2 DUP3 MSTORE PUSH1 0x20 SWAP1 SWAP2 KECCAK256 PUSH1 0x3 SWAP1 SWAP2 MUL ADD DUP1 SLOAD PUSH1 0x1 DUP3 ADD SLOAD PUSH1 0x2 SWAP1 SWAP3 ADD SLOAD SWAP1 SWAP3 POP DUP4 JUMP JUMPDEST PUSH1 0x0 PUSH2 0xC08 PUSH2 0x161D PUSH1 0x13 SLOAD PUSH1 0x12 SLOAD PUSH2 0x1CCF SWAP1 SWAP2 SWAP1 PUSH4 0xFFFFFFFF AND JUMP JUMPDEST PUSH1 0x11 SLOAD SWAP1 PUSH2 0x1CE7 JUMP JUMPDEST PUSH1 0xC DUP2 DUP2 SLOAD DUP2 LT PUSH2 0x6C9 JUMPI PUSH1 0x0 DUP1 REVERT JUMPDEST NUMBER PUSH1 0x0 SWAP1 DUP2 MSTORE PUSH1 0x5 PUSH1 0x20 SWAP1 DUP2 MSTORE PUSH1 0x40 DUP1 DUP4 KECCAK256 ORIGIN DUP5 MSTORE SWAP1 SWAP2 MSTORE SWAP1 KECCAK256 SLOAD PUSH1 0xFF AND ISZERO PUSH2 0x1671 JUMPI PUSH1 0x40 MLOAD PUSH3 0x461BCD PUSH1 0xE5 SHL DUP2 MSTORE PUSH1 0x4 ADD PUSH2 0x738 SWAP1 PUSH2 0x21AF JUMP JUMPDEST NUMBER PUSH1 0x0 SWAP1 DUP2 MSTORE PUSH1 0x5 PUSH1 0x20 SWAP1 DUP2 MSTORE PUSH1 0x40 DUP1 DUP4 KECCAK256 CALLER DUP5 MSTORE SWAP1 SWAP2 MSTORE SWAP1 KECCAK256 SLOAD PUSH1 0xFF AND ISZERO PUSH2 0x16AC JUMPI PUSH1 0x40 MLOAD PUSH3 0x461BCD PUSH1 0xE5 SHL DUP2 MSTORE PUSH1 0x4 ADD PUSH2 0x738 SWAP1 PUSH2 0x21AF JUMP JUMPDEST NUMBER PUSH1 0x0 SWAP1 DUP2 MSTORE PUSH1 0x5 PUSH1 0x20 SWAP1 DUP2 MSTORE PUSH1 0x40 DUP1 DUP4 KECCAK256 ORIGIN DUP5 MSTORE SWAP1 SWAP2 MSTORE DUP1 DUP3 KECCAK256 DUP1 SLOAD PUSH1 0x1 PUSH1 0xFF NOT SWAP2 DUP3 AND DUP2 OR SWAP1 SWAP3 SSTORE CALLER DUP1 DUP6 MSTORE SWAP3 SWAP1 SWAP4 KECCAK256 DUP1 SLOAD SWAP1 SWAP4 AND OR SWAP1 SWAP2 SSTORE PUSH1 0x7 SLOAD PUSH1 0x1 PUSH1 0x1 PUSH1 0xA0 SHL SUB AND EQ PUSH2 0x1710 JUMPI PUSH1 0x40 MLOAD PUSH3 0x461BCD PUSH1 0xE5 SHL DUP2 MSTORE PUSH1 0x4 ADD PUSH2 0x738 SWAP1 PUSH2 0x21F5 JUMP JUMPDEST JUMP JUMPDEST NUMBER PUSH1 0x0 SWAP1 DUP2 MSTORE PUSH1 0x5 PUSH1 0x20 SWAP1 DUP2 MSTORE PUSH1 0x40 DUP1 DUP4 KECCAK256 ORIGIN DUP5 MSTORE SWAP1 SWAP2 MSTORE SWAP1 KECCAK256 SLOAD PUSH1 0xFF AND ISZERO PUSH2 0x174D JUMPI PUSH1 0x40 MLOAD PUSH3 0x461BCD PUSH1 0xE5 SHL DUP2 MSTORE PUSH1 0x4 ADD PUSH2 0x738 SWAP1 PUSH2 0x21AF JUMP JUMPDEST NUMBER PUSH1 0x0 SWAP1 DUP2 MSTORE PUSH1 0x5 PUSH1 0x20 SWAP1 DUP2 MSTORE PUSH1 0x40 DUP1 DUP4 KECCAK256 CALLER DUP5 MSTORE SWAP1 SWAP2 MSTORE SWAP1 KECCAK256 SLOAD PUSH1 0xFF AND ISZERO PUSH2 0x1788 JUMPI PUSH1 0x40 MLOAD PUSH3 0x461BCD PUSH1 0xE5 SHL DUP2 MSTORE PUSH1 0x4 ADD PUSH2 0x738 SWAP1 PUSH2 0x21AF JUMP JUMPDEST NUMBER PUSH1 0x0 SWAP1 DUP2 MSTORE PUSH1 0x5 PUSH1 0x20 SWAP1 DUP2 MSTORE PUSH1 0x40 DUP1 DUP4 KECCAK256 ORIGIN DUP5 MSTORE SWAP1 SWAP2 MSTORE DUP1 DUP3 KECCAK256 DUP1 SLOAD PUSH1 0x1 PUSH1 0xFF NOT SWAP2 DUP3 AND DUP2 OR SWAP1 SWAP3 SSTORE CALLER DUP1 DUP6 MSTORE SWAP3 SWAP1 SWAP4 KECCAK256 DUP1 SLOAD SWAP1 SWAP4 AND OR SWAP1 SWAP2 SSTORE PUSH1 0x7 SLOAD PUSH1 0x1 PUSH1 0x1 PUSH1 0xA0 SHL SUB AND EQ PUSH2 0x17EC JUMPI PUSH1 0x40 MLOAD PUSH3 0x461BCD PUSH1 0xE5 SHL DUP2 MSTORE PUSH1 0x4 ADD PUSH2 0x738 SWAP1 PUSH2 0x21F5 JUMP JUMPDEST PUSH1 0x0 DUP2 GT PUSH2 0x183C JUMPI PUSH1 0x40 MLOAD PUSH3 0x461BCD PUSH1 0xE5 SHL DUP2 MSTORE PUSH1 0x20 PUSH1 0x4 DUP3 ADD MSTORE PUSH1 0x1C PUSH1 0x24 DUP3 ADD MSTORE PUSH32 0x426F617264726F6F6D3A2043616E6E6F7420616C6C6F63617465203000000000 PUSH1 0x44 DUP3 ADD MSTORE PUSH1 0x64 ADD PUSH2 0x738 JUMP JUMPDEST PUSH1 0x0 PUSH2 0x1847 PUSH1 0x3 SLOAD SWAP1 JUMP JUMPDEST GT PUSH2 0x18BA JUMPI PUSH1 0x40 MLOAD PUSH3 0x461BCD PUSH1 0xE5 SHL DUP2 MSTORE PUSH1 0x20 PUSH1 0x4 DUP3 ADD MSTORE PUSH1 0x37 PUSH1 0x24 DUP3 ADD MSTORE PUSH32 0x426F617264726F6F6D3A2043616E6E6F7420616C6C6F63617465207768656E20 PUSH1 0x44 DUP3 ADD MSTORE PUSH32 0x746F74616C537570706C795F7374616B65642069732030000000000000000000 PUSH1 0x64 DUP3 ADD MSTORE PUSH1 0x84 ADD PUSH2 0x738 JUMP JUMPDEST PUSH1 0x0 PUSH2 0x18C4 PUSH2 0x1BAF JUMP JUMPDEST PUSH1 0x40 ADD MLOAD SWAP1 POP PUSH1 0x0 PUSH2 0x18F4 PUSH2 0x18ED PUSH2 0x18DB PUSH1 0x3 SLOAD SWAP1 JUMP JUMPDEST PUSH2 0x6A5 DUP7 PUSH8 0xDE0B6B3A7640000 PUSH2 0x1CCF JUMP JUMPDEST DUP4 SWAP1 PUSH2 0x1CE7 JUMP JUMPDEST PUSH1 0x40 DUP1 MLOAD PUSH1 0x60 DUP2 ADD DUP3 MSTORE NUMBER DUP2 MSTORE PUSH1 0x20 DUP2 ADD DUP7 DUP2 MSTORE SWAP2 DUP2 ADD DUP4 DUP2 MSTORE PUSH1 0xA DUP1 SLOAD PUSH1 0x1 DUP2 ADD DUP3 SSTORE PUSH1 0x0 SWAP2 SWAP1 SWAP2 MSTORE DUP3 MLOAD PUSH32 0xC65A7BB8D6351C1CF70C95A316CC6A92839C986682D98BC35F958F4883F9D2A8 PUSH1 0x3 SWAP1 SWAP3 MUL SWAP2 DUP3 ADD SSTORE SWAP3 MLOAD PUSH32 0xC65A7BB8D6351C1CF70C95A316CC6A92839C986682D98BC35F958F4883F9D2A9 DUP5 ADD SSTORE MLOAD PUSH32 0xC65A7BB8D6351C1CF70C95A316CC6A92839C986682D98BC35F958F4883F9D2AA SWAP1 SWAP3 ADD SWAP2 SWAP1 SWAP2 SSTORE PUSH1 0x16 SLOAD SWAP2 SWAP3 POP SWAP1 PUSH2 0x19B5 SWAP1 PUSH1 0x1 PUSH1 0x1 PUSH1 0xA0 SHL SUB AND CALLER ADDRESS DUP8 PUSH2 0x1CF3 JUMP JUMPDEST PUSH1 0x40 MLOAD DUP5 DUP2 MSTORE CALLER SWAP1 PUSH32 0xAC24935FD910BC682B5CCB1A07B718CADF8CF2F6D1404C4F3DDC3662DAE40E29 SWAP1 PUSH1 0x20 ADD PUSH1 0x40 MLOAD DUP1 SWAP2 SUB SWAP1 LOG2 POP POP POP POP JUMP JUMPDEST CALLER PUSH1 0x0 SWAP1 DUP2 MSTORE PUSH1 0x1 PUSH1 0x20 MSTORE PUSH1 0x40 SWAP1 KECCAK256 PUSH1 0x2 ADD SLOAD PUSH2 0x1710 SWAP1 PUSH2 0x84C JUMP JUMPDEST PUSH1 0x6 SLOAD PUSH1 0x1 PUSH1 0x1 PUSH1 0xA0 SHL SUB AND CALLER EQ PUSH2 0x1A36 JUMPI PUSH1 0x40 MLOAD PUSH3 0x461BCD PUSH1 0xE5 SHL DUP2 MSTORE PUSH1 0x4 ADD PUSH2 0x738 SWAP1 PUSH2 0x223C JUMP JUMPDEST PUSH1 0x10 DUP1 SLOAD PUSH1 0x1 PUSH1 0x1 PUSH1 0xA0 SHL SUB NOT AND PUSH1 0x1 PUSH1 0x1 PUSH1 0xA0 SHL SUB SWAP3 SWAP1 SWAP3 AND SWAP2 SWAP1 SWAP2 OR SWAP1 SSTORE JUMP JUMPDEST DUP1 ISZERO DUP1 PUSH2 0x1AD2 JUMPI POP PUSH1 0x40 MLOAD PUSH4 0x6EB1769F PUSH1 0xE1 SHL DUP2 MSTORE ADDRESS PUSH1 0x4 DUP3 ADD MSTORE PUSH1 0x1 PUSH1 0x1 PUSH1 0xA0 SHL SUB DUP4 DUP2 AND PUSH1 0x24 DUP4 ADD MSTORE DUP5 AND SWAP1 PUSH4 0xDD62ED3E SWAP1 PUSH1 0x44 ADD PUSH1 0x20 PUSH1 0x40 MLOAD DUP1 DUP4 SUB DUP2 DUP7 GAS STATICCALL ISZERO DUP1 ISZERO PUSH2 0x1AAC JUMPI RETURNDATASIZE PUSH1 0x0 DUP1 RETURNDATACOPY RETURNDATASIZE PUSH1 0x0 REVERT JUMPDEST POP POP POP POP PUSH1 0x40 MLOAD RETURNDATASIZE PUSH1 0x1F NOT PUSH1 0x1F DUP3 ADD AND DUP3 ADD DUP1 PUSH1 0x40 MSTORE POP DUP2 ADD SWAP1 PUSH2 0x1AD0 SWAP2 SWAP1 PUSH2 0x2281 JUMP JUMPDEST ISZERO JUMPDEST PUSH2 0x1B3D JUMPI PUSH1 0x40 MLOAD PUSH3 0x461BCD PUSH1 0xE5 SHL DUP2 MSTORE PUSH1 0x20 PUSH1 0x4 DUP3 ADD MSTORE PUSH1 0x36 PUSH1 0x24 DUP3 ADD MSTORE PUSH32 0x5361666545524332303A20617070726F76652066726F6D206E6F6E2D7A65726F PUSH1 0x44 DUP3 ADD MSTORE PUSH22 0x20746F206E6F6E2D7A65726F20616C6C6F77616E6365 PUSH1 0x50 SHL PUSH1 0x64 DUP3 ADD MSTORE PUSH1 0x84 ADD PUSH2 0x738 JUMP JUMPDEST PUSH1 0x40 MLOAD PUSH1 0x1 PUSH1 0x1 PUSH1 0xA0 SHL SUB DUP4 AND PUSH1 0x24 DUP3 ADD MSTORE PUSH1 0x44 DUP2 ADD DUP3 SWAP1 MSTORE PUSH2 0xD29 SWAP1 DUP5 SWAP1 PUSH4 0x95EA7B3 PUSH1 0xE0 SHL SWAP1 PUSH1 0x64 ADD JUMPDEST PUSH1 0x40 DUP1 MLOAD PUSH1 0x1F NOT DUP2 DUP5 SUB ADD DUP2 MSTORE SWAP2 SWAP1 MSTORE PUSH1 0x20 DUP2 ADD DUP1 MLOAD PUSH1 0x1 PUSH1 0x1 PUSH1 0xE0 SHL SUB AND PUSH1 0x1 PUSH1 0x1 PUSH1 0xE0 SHL SUB NOT SWAP1 SWAP4 AND SWAP3 SWAP1 SWAP3 OR SWAP1 SWAP2 MSTORE PUSH2 0x1E7A JUMP JUMPDEST PUSH1 0x60 PUSH2 0x6B1 DUP5 DUP5 PUSH1 0x0 DUP6 PUSH2 0x1F4C JUMP JUMPDEST PUSH2 0x1BD3 PUSH1 0x40 MLOAD DUP1 PUSH1 0x60 ADD PUSH1 0x40 MSTORE DUP1 PUSH1 0x0 DUP2 MSTORE PUSH1 0x20 ADD PUSH1 0x0 DUP2 MSTORE PUSH1 0x20 ADD PUSH1 0x0 DUP2 MSTORE POP SWAP1 JUMP JUMPDEST PUSH1 0xA PUSH2 0x1BDD PUSH2 0xBF7 JUMP JUMPDEST DUP2 SLOAD DUP2 LT PUSH2 0x1BED JUMPI PUSH2 0x1BED PUSH2 0x229A JUMP JUMPDEST SWAP1 PUSH1 0x0 MSTORE PUSH1 0x20 PUSH1 0x0 KECCAK256 SWAP1 PUSH1 0x3 MUL ADD PUSH1 0x40 MLOAD DUP1 PUSH1 0x60 ADD PUSH1 0x40 MSTORE SWAP1 DUP2 PUSH1 0x0 DUP3 ADD SLOAD DUP2 MSTORE PUSH1 0x20 ADD PUSH1 0x1 DUP3 ADD SLOAD DUP2 MSTORE PUSH1 0x20 ADD PUSH1 0x2 DUP3 ADD SLOAD DUP2 MSTORE POP POP SWAP1 POP SWAP1 JUMP JUMPDEST PUSH2 0x1C4D PUSH1 0x40 MLOAD DUP1 PUSH1 0x60 ADD PUSH1 0x40 MSTORE DUP1 PUSH1 0x0 DUP2 MSTORE PUSH1 0x20 ADD PUSH1 0x0 DUP2 MSTORE PUSH1 0x20 ADD PUSH1 0x0 DUP2 MSTORE POP SWAP1 JUMP JUMPDEST PUSH1 0xA PUSH2 0x1C6E DUP4 PUSH1 0x1 PUSH1 0x1 PUSH1 0xA0 SHL SUB AND PUSH1 0x0 SWAP1 DUP2 MSTORE PUSH1 0x9 PUSH1 0x20 MSTORE PUSH1 0x40 SWAP1 KECCAK256 SLOAD SWAP1 JUMP JUMPDEST DUP2 SLOAD DUP2 LT PUSH2 0x1C7E JUMPI PUSH2 0x1C7E PUSH2 0x229A JUMP JUMPDEST SWAP1 PUSH1 0x0 MSTORE PUSH1 0x20 PUSH1 0x0 KECCAK256 SWAP1 PUSH1 0x3 MUL ADD PUSH1 0x40 MLOAD DUP1 PUSH1 0x60 ADD PUSH1 0x40 MSTORE SWAP1 DUP2 PUSH1 0x0 DUP3 ADD SLOAD DUP2 MSTORE PUSH1 0x20 ADD PUSH1 0x1 DUP3 ADD SLOAD DUP2 MSTORE PUSH1 0x20 ADD PUSH1 0x2 DUP3 ADD SLOAD DUP2 MSTORE POP POP SWAP1 POP SWAP2 SWAP1 POP JUMP JUMPDEST PUSH1 0x0 PUSH2 0x1CC8 DUP3 DUP5 PUSH2 0x22C6 JUMP JUMPDEST SWAP4 SWAP3 POP POP POP JUMP JUMPDEST PUSH1 0x0 PUSH2 0x1CC8 DUP3 DUP5 PUSH2 0x22DD JUMP JUMPDEST PUSH1 0x0 PUSH2 0x1CC8 DUP3 DUP5 PUSH2 0x22FC JUMP JUMPDEST PUSH1 0x0 PUSH2 0x1CC8 DUP3 DUP5 PUSH2 0x231E JUMP JUMPDEST PUSH1 0x40 MLOAD PUSH1 0x1 PUSH1 0x1 PUSH1 0xA0 SHL SUB DUP1 DUP6 AND PUSH1 0x24 DUP4 ADD MSTORE DUP4 AND PUSH1 0x44 DUP3 ADD MSTORE PUSH1 0x64 DUP2 ADD DUP3 SWAP1 MSTORE PUSH2 0x7E0 SWAP1 DUP6 SWAP1 PUSH4 0x23B872DD PUSH1 0xE0 SHL SWAP1 PUSH1 0x84 ADD PUSH2 0x1B69 JUMP JUMPDEST CALLER PUSH1 0x0 SWAP1 DUP2 MSTORE PUSH1 0x1 PUSH1 0x20 MSTORE PUSH1 0x40 SWAP1 KECCAK256 PUSH1 0x2 ADD SLOAD DUP2 DUP2 LT ISZERO PUSH2 0x1DAD JUMPI PUSH1 0x40 MLOAD PUSH3 0x461BCD PUSH1 0xE5 SHL DUP2 MSTORE PUSH1 0x20 PUSH1 0x4 DUP3 ADD MSTORE PUSH1 0x36 PUSH1 0x24 DUP3 ADD MSTORE PUSH32 0x426F617264726F6F6D3A20776974686472617720726571756573742067726561 PUSH1 0x44 DUP3 ADD MSTORE PUSH22 0x1D195C881D1A185B881CDD185AD95908185B5BDD5B9D PUSH1 0x52 SHL PUSH1 0x64 DUP3 ADD MSTORE PUSH1 0x84 ADD PUSH2 0x738 JUMP JUMPDEST PUSH1 0x4 SLOAD PUSH2 0x1DBA SWAP1 DUP4 PUSH2 0x1CBC JUMP JUMPDEST PUSH1 0x4 SSTORE PUSH2 0x1DC7 DUP2 DUP4 PUSH2 0x1CBC JUMP JUMPDEST CALLER PUSH1 0x0 DUP2 DUP2 MSTORE PUSH1 0x1 PUSH1 0x20 MSTORE PUSH1 0x40 DUP2 KECCAK256 PUSH1 0x2 ADD SWAP3 SWAP1 SWAP3 SSTORE SWAP1 SLOAD PUSH2 0x15CA SWAP2 PUSH1 0x1 PUSH1 0x1 PUSH1 0xA0 SHL SUB SWAP1 SWAP2 AND SWAP1 DUP5 JUMPDEST PUSH1 0x40 MLOAD PUSH1 0x1 PUSH1 0x1 PUSH1 0xA0 SHL SUB DUP4 AND PUSH1 0x24 DUP3 ADD MSTORE PUSH1 0x44 DUP2 ADD DUP3 SWAP1 MSTORE PUSH2 0xD29 SWAP1 DUP5 SWAP1 PUSH4 0xA9059CBB PUSH1 0xE0 SHL SWAP1 PUSH1 0x64 ADD PUSH2 0x1B69 JUMP JUMPDEST PUSH1 0x2 SLOAD PUSH2 0x1E2E SWAP1 DUP3 PUSH2 0x1CE7 JUMP JUMPDEST PUSH1 0x2 SSTORE CALLER PUSH1 0x0 SWAP1 DUP2 MSTORE PUSH1 0x1 PUSH1 0x20 MSTORE PUSH1 0x40 SWAP1 KECCAK256 SLOAD PUSH2 0x1E4B SWAP1 DUP3 PUSH2 0x1CE7 JUMP JUMPDEST CALLER PUSH1 0x0 DUP2 DUP2 MSTORE PUSH1 0x1 PUSH1 0x20 MSTORE PUSH1 0x40 DUP2 KECCAK256 SWAP3 SWAP1 SWAP3 SSTORE SWAP1 SLOAD PUSH2 0x1E77 SWAP2 PUSH1 0x1 PUSH1 0x1 PUSH1 0xA0 SHL SUB SWAP1 SWAP2 AND SWAP1 ADDRESS DUP5 PUSH2 0x1CF3 JUMP JUMPDEST POP JUMP JUMPDEST PUSH1 0x0 PUSH2 0x1ECF DUP3 PUSH1 0x40 MLOAD DUP1 PUSH1 0x40 ADD PUSH1 0x40 MSTORE DUP1 PUSH1 0x20 DUP2 MSTORE PUSH1 0x20 ADD PUSH32 0x5361666545524332303A206C6F772D6C6576656C2063616C6C206661696C6564 DUP2 MSTORE POP DUP6 PUSH1 0x1 PUSH1 0x1 PUSH1 0xA0 SHL SUB AND PUSH2 0x1BA0 SWAP1 SWAP3 SWAP2 SWAP1 PUSH4 0xFFFFFFFF AND JUMP JUMPDEST DUP1 MLOAD SWAP1 SWAP2 POP ISZERO PUSH2 0xD29 JUMPI DUP1 DUP1 PUSH1 0x20 ADD SWAP1 MLOAD DUP2 ADD SWAP1 PUSH2 0x1EED SWAP2 SWAP1 PUSH2 0x2336 JUMP JUMPDEST PUSH2 0xD29 JUMPI PUSH1 0x40 MLOAD PUSH3 0x461BCD PUSH1 0xE5 SHL DUP2 MSTORE PUSH1 0x20 PUSH1 0x4 DUP3 ADD MSTORE PUSH1 0x2A PUSH1 0x24 DUP3 ADD MSTORE PUSH32 0x5361666545524332303A204552433230206F7065726174696F6E20646964206E PUSH1 0x44 DUP3 ADD MSTORE PUSH10 0x1BDD081CDD58D8D95959 PUSH1 0xB2 SHL PUSH1 0x64 DUP3 ADD MSTORE PUSH1 0x84 ADD PUSH2 0x738 JUMP JUMPDEST PUSH1 0x60 DUP3 SELFBALANCE LT ISZERO PUSH2 0x1FAD JUMPI PUSH1 0x40 MLOAD PUSH3 0x461BCD PUSH1 0xE5 SHL DUP2 MSTORE PUSH1 0x20 PUSH1 0x4 DUP3 ADD MSTORE PUSH1 0x26 PUSH1 0x24 DUP3 ADD MSTORE PUSH32 0x416464726573733A20696E73756666696369656E742062616C616E636520666F PUSH1 0x44 DUP3 ADD MSTORE PUSH6 0x1C8818D85B1B PUSH1 0xD2 SHL PUSH1 0x64 DUP3 ADD MSTORE PUSH1 0x84 ADD PUSH2 0x738 JUMP JUMPDEST PUSH1 0x0 DUP1 DUP7 PUSH1 0x1 PUSH1 0x1 PUSH1 0xA0 SHL SUB AND DUP6 DUP8 PUSH1 0x40 MLOAD PUSH2 0x1FC9 SWAP2 SWAP1 PUSH2 0x2384 JUMP JUMPDEST PUSH1 0x0 PUSH1 0x40 MLOAD DUP1 DUP4 SUB DUP2 DUP6 DUP8 GAS CALL SWAP3 POP POP POP RETURNDATASIZE DUP1 PUSH1 0x0 DUP2 EQ PUSH2 0x2006 JUMPI PUSH1 0x40 MLOAD SWAP2 POP PUSH1 0x1F NOT PUSH1 0x3F RETURNDATASIZE ADD AND DUP3 ADD PUSH1 0x40 MSTORE RETURNDATASIZE DUP3 MSTORE RETURNDATASIZE PUSH1 0x0 PUSH1 0x20 DUP5 ADD RETURNDATACOPY PUSH2 0x200B JUMP JUMPDEST PUSH1 0x60 SWAP2 POP JUMPDEST POP SWAP2 POP SWAP2 POP PUSH2 0x201C DUP8 DUP4 DUP4 DUP8 PUSH2 0x2027 JUMP JUMPDEST SWAP8 SWAP7 POP POP POP POP POP POP POP JUMP JUMPDEST PUSH1 0x60 DUP4 ISZERO PUSH2 0x2096 JUMPI DUP3 MLOAD PUSH1 0x0 SUB PUSH2 0x208F JUMPI PUSH1 0x1 PUSH1 0x1 PUSH1 0xA0 SHL SUB DUP6 AND EXTCODESIZE PUSH2 0x208F JUMPI PUSH1 0x40 MLOAD PUSH3 0x461BCD PUSH1 0xE5 SHL DUP2 MSTORE PUSH1 0x20 PUSH1 0x4 DUP3 ADD MSTORE PUSH1 0x1D PUSH1 0x24 DUP3 ADD MSTORE PUSH32 0x416464726573733A2063616C6C20746F206E6F6E2D636F6E7472616374000000 PUSH1 0x44 DUP3 ADD MSTORE PUSH1 0x64 ADD PUSH2 0x738 JUMP JUMPDEST POP DUP2 PUSH2 0x6B1 JUMP JUMPDEST PUSH2 0x6B1 DUP4 DUP4 DUP2 MLOAD ISZERO PUSH2 0x20AB JUMPI DUP2 MLOAD DUP1 DUP4 PUSH1 0x20 ADD REVERT JUMPDEST DUP1 PUSH1 0x40 MLOAD PUSH3 0x461BCD PUSH1 0xE5 SHL DUP2 MSTORE PUSH1 0x4 ADD PUSH2 0x738 SWAP2 SWAP1 PUSH2 0x23A0 JUMP JUMPDEST PUSH1 0x1 PUSH1 0x1 PUSH1 0xA0 SHL SUB DUP2 AND DUP2 EQ PUSH2 0x1E77 JUMPI PUSH1 0x0 DUP1 REVERT JUMPDEST PUSH1 0x0 PUSH1 0x20 DUP3 DUP5 SUB SLT ISZERO PUSH2 0x20EC JUMPI PUSH1 0x0 DUP1 REVERT JUMPDEST DUP2 CALLDATALOAD PUSH2 0x1CC8 DUP2 PUSH2 0x20C5 JUMP JUMPDEST PUSH1 0x0 PUSH1 0x20 DUP3 DUP5 SUB SLT ISZERO PUSH2 0x2109 JUMPI PUSH1 0x0 DUP1 REVERT JUMPDEST POP CALLDATALOAD SWAP2 SWAP1 POP JUMP JUMPDEST PUSH1 0x0 DUP1 PUSH1 0x0 DUP1 PUSH1 0x80 DUP6 DUP8 SUB SLT ISZERO PUSH2 0x2126 JUMPI PUSH1 0x0 DUP1 REVERT JUMPDEST DUP5 CALLDATALOAD PUSH2 0x2131 DUP2 PUSH2 0x20C5 JUMP JUMPDEST SWAP7 PUSH1 0x20 DUP7 ADD CALLDATALOAD SWAP7 POP PUSH1 0x40 DUP7 ADD CALLDATALOAD SWAP6 PUSH1 0x60 ADD CALLDATALOAD SWAP5 POP SWAP3 POP POP POP JUMP JUMPDEST PUSH1 0x0 DUP1 PUSH1 0x40 DUP4 DUP6 SUB SLT ISZERO PUSH2 0x215E JUMPI PUSH1 0x0 DUP1 REVERT JUMPDEST POP POP DUP1 CALLDATALOAD SWAP3 PUSH1 0x20 SWAP1 SWAP2 ADD CALLDATALOAD SWAP2 POP JUMP JUMPDEST PUSH1 0x0 DUP1 PUSH1 0x0 PUSH1 0x60 DUP5 DUP7 SUB SLT ISZERO PUSH2 0x2182 JUMPI PUSH1 0x0 DUP1 REVERT JUMPDEST DUP4 CALLDATALOAD PUSH2 0x218D DUP2 PUSH2 0x20C5 JUMP JUMPDEST SWAP3 POP PUSH1 0x20 DUP5 ADD CALLDATALOAD SWAP2 POP PUSH1 0x40 DUP5 ADD CALLDATALOAD PUSH2 0x21A4 DUP2 PUSH2 0x20C5 JUMP JUMPDEST DUP1 SWAP2 POP POP SWAP3 POP SWAP3 POP SWAP3 JUMP JUMPDEST PUSH1 0x20 DUP1 DUP3 MSTORE PUSH1 0x26 SWAP1 DUP3 ADD MSTORE PUSH32 0x436F6E747261637447756172643A206F6E6520626C6F636B2C206F6E65206675 PUSH1 0x40 DUP3 ADD MSTORE PUSH6 0x3731BA34B7B7 PUSH1 0xD1 SHL PUSH1 0x60 DUP3 ADD MSTORE PUSH1 0x80 ADD SWAP1 JUMP JUMPDEST PUSH1 0x20 DUP1 DUP3 MSTORE PUSH1 0x27 SWAP1 DUP3 ADD MSTORE PUSH32 0x426F617264726F6F6D3A2063616C6C6572206973206E6F742074686520676F76 PUSH1 0x40 DUP3 ADD MSTORE PUSH7 0x65726E616E6365 PUSH1 0xC8 SHL PUSH1 0x60 DUP3 ADD MSTORE PUSH1 0x80 ADD SWAP1 JUMP JUMPDEST PUSH1 0x20 DUP1 DUP3 MSTORE PUSH1 0x25 SWAP1 DUP3 ADD MSTORE PUSH32 0x426F617264726F6F6D3A2063616C6C6572206973206E6F7420746865206F7065 PUSH1 0x40 DUP3 ADD MSTORE PUSH5 0x3930BA37B9 PUSH1 0xD9 SHL PUSH1 0x60 DUP3 ADD MSTORE PUSH1 0x80 ADD SWAP1 JUMP JUMPDEST PUSH1 0x0 PUSH1 0x20 DUP3 DUP5 SUB SLT ISZERO PUSH2 0x2293 JUMPI PUSH1 0x0 DUP1 REVERT JUMPDEST POP MLOAD SWAP2 SWAP1 POP JUMP JUMPDEST PUSH4 0x4E487B71 PUSH1 0xE0 SHL PUSH1 0x0 MSTORE PUSH1 0x32 PUSH1 0x4 MSTORE PUSH1 0x24 PUSH1 0x0 REVERT JUMPDEST PUSH4 0x4E487B71 PUSH1 0xE0 SHL PUSH1 0x0 MSTORE PUSH1 0x11 PUSH1 0x4 MSTORE PUSH1 0x24 PUSH1 0x0 REVERT JUMPDEST PUSH1 0x0 DUP3 DUP3 LT ISZERO PUSH2 0x22D8 JUMPI PUSH2 0x22D8 PUSH2 0x22B0 JUMP JUMPDEST POP SUB SWAP1 JUMP JUMPDEST PUSH1 0x0 DUP2 PUSH1 0x0 NOT DIV DUP4 GT DUP3 ISZERO ISZERO AND ISZERO PUSH2 0x22F7 JUMPI PUSH2 0x22F7 PUSH2 0x22B0 JUMP JUMPDEST POP MUL SWAP1 JUMP JUMPDEST PUSH1 0x0 DUP3 PUSH2 0x2319 JUMPI PUSH4 0x4E487B71 PUSH1 0xE0 SHL PUSH1 0x0 MSTORE PUSH1 0x12 PUSH1 0x4 MSTORE PUSH1 0x24 PUSH1 0x0 REVERT JUMPDEST POP DIV SWAP1 JUMP JUMPDEST PUSH1 0x0 DUP3 NOT DUP3 GT ISZERO PUSH2 0x2331 JUMPI PUSH2 0x2331 PUSH2 0x22B0 JUMP JUMPDEST POP ADD SWAP1 JUMP JUMPDEST PUSH1 0x0 PUSH1 0x20 DUP3 DUP5 SUB SLT ISZERO PUSH2 0x2348 JUMPI PUSH1 0x0 DUP1 REVERT JUMPDEST DUP2 MLOAD DUP1 ISZERO ISZERO DUP2 EQ PUSH2 0x1CC8 JUMPI PUSH1 0x0 DUP1 REVERT JUMPDEST PUSH1 0x0 JUMPDEST DUP4 DUP2 LT ISZERO PUSH2 0x2373 JUMPI DUP2 DUP2 ADD MLOAD DUP4 DUP3 ADD MSTORE PUSH1 0x20 ADD PUSH2 0x235B JUMP JUMPDEST DUP4 DUP2 GT ISZERO PUSH2 0x7E0 JUMPI POP POP PUSH1 0x0 SWAP2 ADD MSTORE JUMP JUMPDEST PUSH1 0x0 DUP3 MLOAD PUSH2 0x2396 DUP2 DUP5 PUSH1 0x20 DUP8 ADD PUSH2 0x2358 JUMP JUMPDEST SWAP2 SWAP1 SWAP2 ADD SWAP3 SWAP2 POP POP JUMP JUMPDEST PUSH1 0x20 DUP2 MSTORE PUSH1 0x0 DUP3 MLOAD DUP1 PUSH1 0x20 DUP5 ADD MSTORE PUSH2 0x23BF DUP2 PUSH1 0x40 DUP6 ADD PUSH1 0x20 DUP8 ADD PUSH2 0x2358 JUMP JUMPDEST PUSH1 0x1F ADD PUSH1 0x1F NOT AND SWAP2 SWAP1 SWAP2 ADD PUSH1 0x40 ADD SWAP3 SWAP2 POP POP JUMP INVALID LOG2 PUSH5 0x6970667358 0x22 SLT KECCAK256 DUP6 0xAD CODECOPY DUP3 0xDC 0xDD 0xD1 BYTE DELEGATECALL PUSH20 0x26A0328369EE946F000304897654E085E30B2AFE 0xDD 0xD0 PUSH5 0x736F6C6343 STOP ADDMOD 0xD STOP CALLER "
		},
		"gasEstimates": {
			"creation": {
				"codeDepositCost": "1845000",
				"executionCost": "infinite",
				"totalCost": "infinite"
			},
			"external": {
				"GLPManager()": "2448",
				"GLPRouter()": "2493",
				"USDC()": "2471",
				"allocateReward(uint256)": "infinite",
				"balance_Wait(address)": "2587",
				"balance_staked(address)": "2642",
				"balance_withdraw(address)": "2659",
				"boardroomHistory(uint256)": "8925",
				"canClaimReward(address)": "infinite",
				"canWithdraw(address)": "infinite",
				"claimReward()": "infinite",
				"earned(address)": "infinite",
				"epoch()": "2329",
				"exit()": "infinite",
				"fee()": "2439",
				"feeTo()": "2428",
				"getLastSnapshotIndexOf(address)": "2588",
				"governance()": "2426",
				"governanceRecoverUnsupported(address,uint256,address)": "infinite",
				"handleStakeRequest()": "55758",
				"handleWithdrawRequest()": "55669",
				"latestSnapshotIndex()": "2509",
				"members(address)": "6856",
				"nextEpochPoint()": "infinite",
				"operator()": "2404",
				"period()": "2416",
				"rewardLockupEpochs()": "2419",
				"rewardPerShare()": "11306",
				"setFee(uint256)": "24536",
				"setFeeTo(address)": "26859",
				"setLockUp(uint256,uint256)": "46727",
				"setOperator(address)": "26860",
				"share()": "2470",
				"stake(uint256)": "infinite",
				"stakeByGov(address,uint256,uint256,uint256)": "infinite",
				"stakeQueue(uint256)": "11099",
				"startTime()": "2374",
				"totalSupply_staked()": "2436",
				"totalSupply_wait()": "2393",
				"totalSupply_withdraw()": "2393",
				"withdraw(uint256)": "infinite",
				"withdrawByGov(address,uint256,uint256,uint256)": "55945",
				"withdrawLockupEpochs()": "2418",
				"withdrawalQueue(uint256)": "11141",
				"withhdraw_request(uint256)": "170569"
			},
			"internal": {
				"getLastSnapshotOf(address)": "infinite",
				"getLatestSnapshot()": "infinite"
			}
		},
		"methodIdentifiers": {
			"GLPManager()": "5bf12feb",
			"GLPRouter()": "1ff4660a",
			"USDC()": "89a30271",
			"allocateReward(uint256)": "e2dcb616",
			"balance_Wait(address)": "93ba4f66",
			"balance_staked(address)": "eabba145",
			"balance_withdraw(address)": "62d45f8f",
			"boardroomHistory(uint256)": "c58e3843",
			"canClaimReward(address)": "046335d0",
			"canWithdraw(address)": "19262d30",
			"claimReward()": "b88a802f",
			"earned(address)": "008cc262",
			"epoch()": "900cf0cf",
			"exit()": "e9fad8ee",
			"fee()": "ddca3f43",
			"feeTo()": "017e7e58",
			"getLastSnapshotIndexOf(address)": "714b4658",
			"governance()": "5aa6e675",
			"governanceRecoverUnsupported(address,uint256,address)": "54575af4",
			"handleStakeRequest()": "d01f77d2",
			"handleWithdrawRequest()": "e0e6f616",
			"latestSnapshotIndex()": "3f9e3f04",
			"members(address)": "08ae4b0c",
			"nextEpochPoint()": "c5967c26",
			"operator()": "570ca735",
			"period()": "ef78d4fd",
			"rewardLockupEpochs()": "022ba18d",
			"rewardPerShare()": "446a2ec8",
			"setFee(uint256)": "69fe0e2d",
			"setFeeTo(address)": "f46901ed",
			"setLockUp(uint256,uint256)": "2ffaaa09",
			"setOperator(address)": "b3ab15fb",
			"share()": "a8d5fd65",
			"stake(uint256)": "a694fc3a",
			"stakeByGov(address,uint256,uint256,uint256)": "85b5b4c0",
			"stakeQueue(uint256)": "0177d287",
			"startTime()": "78e97925",
			"totalSupply_staked()": "649e4a52",
			"totalSupply_wait()": "40d1fb87",
			"totalSupply_withdraw()": "1e7e936d",
			"withdraw(uint256)": "2e1a7d4d",
			"withdrawByGov(address,uint256,uint256,uint256)": "01b3e4a8",
			"withdrawLockupEpochs()": "1e85cd65",
			"withdrawalQueue(uint256)": "c822adda",
			"withhdraw_request(uint256)": "97611424"
		}
	},
	"abi": [
		{
			"inputs": [
				{
					"internalType": "contract IERC20",
					"name": "_token",
					"type": "address"
				},
				{
					"internalType": "contract IERC20",
					"name": "_share",
					"type": "address"
				},
				{
					"internalType": "uint256",
					"name": "_fee",
					"type": "uint256"
				},
				{
					"internalType": "address",
					"name": "_feeTo",
					"type": "address"
				},
				{
					"internalType": "address",
					"name": "_governance",
					"type": "address"
				}
			],
			"stateMutability": "nonpayable",
			"type": "constructor"
		},
		{
			"anonymous": false,
			"inputs": [
				{
					"indexed": true,
					"internalType": "address",
					"name": "from",
					"type": "address"
				},
				{
					"indexed": true,
					"internalType": "address",
					"name": "to",
					"type": "address"
				},
				{
					"indexed": false,
					"internalType": "uint256",
					"name": "reward",
					"type": "uint256"
				}
			],
			"name": "BlacklistRewardPaid",
			"type": "event"
		},
		{
			"anonymous": false,
			"inputs": [
				{
					"indexed": true,
					"internalType": "address",
					"name": "from",
					"type": "address"
				},
				{
					"indexed": true,
					"internalType": "address",
					"name": "to",
					"type": "address"
				},
				{
					"indexed": false,
					"internalType": "uint256",
					"name": "amount",
					"type": "uint256"
				}
			],
			"name": "BlacklistWithdrawn",
			"type": "event"
		},
		{
			"anonymous": false,
			"inputs": [
				{
					"indexed": true,
					"internalType": "address",
					"name": "executor",
					"type": "address"
				},
				{
					"indexed": false,
					"internalType": "uint256",
					"name": "at",
					"type": "uint256"
				}
			],
			"name": "Initialized",
			"type": "event"
		},
		{
			"anonymous": false,
			"inputs": [
				{
					"indexed": true,
					"internalType": "address",
					"name": "user",
					"type": "address"
				},
				{
					"indexed": false,
					"internalType": "uint256",
					"name": "reward",
					"type": "uint256"
				}
			],
			"name": "RewardAdded",
			"type": "event"
		},
		{
			"anonymous": false,
			"inputs": [
				{
					"indexed": true,
					"internalType": "address",
					"name": "user",
					"type": "address"
				},
				{
					"indexed": false,
					"internalType": "uint256",
					"name": "reward",
					"type": "uint256"
				}
			],
			"name": "RewardPaid",
			"type": "event"
		},
		{
			"anonymous": false,
			"inputs": [
				{
					"indexed": true,
					"internalType": "address",
					"name": "user",
					"type": "address"
				},
				{
					"indexed": false,
					"internalType": "uint256",
					"name": "amount",
					"type": "uint256"
				}
			],
			"name": "Staked",
			"type": "event"
		},
		{
			"anonymous": false,
			"inputs": [
				{
					"indexed": true,
					"internalType": "address",
					"name": "user",
					"type": "address"
				},
				{
					"indexed": false,
					"internalType": "uint256",
					"name": "amount",
					"type": "uint256"
				}
			],
			"name": "Withdrawn",
			"type": "event"
		},
		{
			"inputs": [],
			"name": "GLPManager",
			"outputs": [
				{
					"internalType": "address",
					"name": "",
					"type": "address"
				}
			],
			"stateMutability": "view",
			"type": "function"
		},
		{
			"inputs": [],
			"name": "GLPRouter",
			"outputs": [
				{
					"internalType": "address",
					"name": "",
					"type": "address"
				}
			],
			"stateMutability": "view",
			"type": "function"
		},
		{
			"inputs": [],
			"name": "USDC",
			"outputs": [
				{
					"internalType": "address",
					"name": "",
					"type": "address"
				}
			],
			"stateMutability": "view",
			"type": "function"
		},
		{
			"inputs": [
				{
					"internalType": "uint256",
					"name": "amount",
					"type": "uint256"
				}
			],
			"name": "allocateReward",
			"outputs": [],
			"stateMutability": "nonpayable",
			"type": "function"
		},
		{
			"inputs": [
				{
					"internalType": "address",
					"name": "account",
					"type": "address"
				}
			],
			"name": "balance_Wait",
			"outputs": [
				{
					"internalType": "uint256",
					"name": "",
					"type": "uint256"
				}
			],
			"stateMutability": "view",
			"type": "function"
		},
		{
			"inputs": [
				{
					"internalType": "address",
					"name": "account",
					"type": "address"
				}
			],
			"name": "balance_staked",
			"outputs": [
				{
					"internalType": "uint256",
					"name": "",
					"type": "uint256"
				}
			],
			"stateMutability": "view",
			"type": "function"
		},
		{
			"inputs": [
				{
					"internalType": "address",
					"name": "account",
					"type": "address"
				}
			],
			"name": "balance_withdraw",
			"outputs": [
				{
					"internalType": "uint256",
					"name": "",
					"type": "uint256"
				}
			],
			"stateMutability": "view",
			"type": "function"
		},
		{
			"inputs": [
				{
					"internalType": "uint256",
					"name": "",
					"type": "uint256"
				}
			],
			"name": "boardroomHistory",
			"outputs": [
				{
					"internalType": "uint256",
					"name": "time",
					"type": "uint256"
				},
				{
					"internalType": "uint256",
					"name": "rewardReceived",
					"type": "uint256"
				},
				{
					"internalType": "uint256",
					"name": "rewardPerShare",
					"type": "uint256"
				}
			],
			"stateMutability": "view",
			"type": "function"
		},
		{
			"inputs": [
				{
					"internalType": "address",
					"name": "member",
					"type": "address"
				}
			],
			"name": "canClaimReward",
			"outputs": [
				{
					"internalType": "bool",
					"name": "",
					"type": "bool"
				}
			],
			"stateMutability": "view",
			"type": "function"
		},
		{
			"inputs": [
				{
					"internalType": "address",
					"name": "member",
					"type": "address"
				}
			],
			"name": "canWithdraw",
			"outputs": [
				{
					"internalType": "bool",
					"name": "",
					"type": "bool"
				}
			],
			"stateMutability": "view",
			"type": "function"
		},
		{
			"inputs": [],
			"name": "claimReward",
			"outputs": [],
			"stateMutability": "nonpayable",
			"type": "function"
		},
		{
			"inputs": [
				{
					"internalType": "address",
					"name": "member",
					"type": "address"
				}
			],
			"name": "earned",
			"outputs": [
				{
					"internalType": "uint256",
					"name": "",
					"type": "uint256"
				}
			],
			"stateMutability": "view",
			"type": "function"
		},
		{
			"inputs": [],
			"name": "epoch",
			"outputs": [
				{
					"internalType": "uint256",
					"name": "",
					"type": "uint256"
				}
			],
			"stateMutability": "view",
			"type": "function"
		},
		{
			"inputs": [],
			"name": "exit",
			"outputs": [],
			"stateMutability": "nonpayable",
			"type": "function"
		},
		{
			"inputs": [],
			"name": "fee",
			"outputs": [
				{
					"internalType": "uint256",
					"name": "",
					"type": "uint256"
				}
			],
			"stateMutability": "view",
			"type": "function"
		},
		{
			"inputs": [],
			"name": "feeTo",
			"outputs": [
				{
					"internalType": "address",
					"name": "",
					"type": "address"
				}
			],
			"stateMutability": "view",
			"type": "function"
		},
		{
			"inputs": [
				{
					"internalType": "address",
					"name": "member",
					"type": "address"
				}
			],
			"name": "getLastSnapshotIndexOf",
			"outputs": [
				{
					"internalType": "uint256",
					"name": "",
					"type": "uint256"
				}
			],
			"stateMutability": "view",
			"type": "function"
		},
		{
			"inputs": [],
			"name": "governance",
			"outputs": [
				{
					"internalType": "address",
					"name": "",
					"type": "address"
				}
			],
			"stateMutability": "view",
			"type": "function"
		},
		{
			"inputs": [
				{
					"internalType": "contract IERC20",
					"name": "_token",
					"type": "address"
				},
				{
					"internalType": "uint256",
					"name": "_amount",
					"type": "uint256"
				},
				{
					"internalType": "address",
					"name": "_to",
					"type": "address"
				}
			],
			"name": "governanceRecoverUnsupported",
			"outputs": [],
			"stateMutability": "nonpayable",
			"type": "function"
		},
		{
			"inputs": [],
			"name": "handleStakeRequest",
			"outputs": [],
			"stateMutability": "nonpayable",
			"type": "function"
		},
		{
			"inputs": [],
			"name": "handleWithdrawRequest",
			"outputs": [],
			"stateMutability": "nonpayable",
			"type": "function"
		},
		{
			"inputs": [],
			"name": "latestSnapshotIndex",
			"outputs": [
				{
					"internalType": "uint256",
					"name": "",
					"type": "uint256"
				}
			],
			"stateMutability": "view",
			"type": "function"
		},
		{
			"inputs": [
				{
					"internalType": "address",
					"name": "",
					"type": "address"
				}
			],
			"name": "members",
			"outputs": [
				{
					"internalType": "uint256",
					"name": "lastSnapshotIndex",
					"type": "uint256"
				},
				{
					"internalType": "uint256",
					"name": "rewardEarned",
					"type": "uint256"
				},
				{
					"internalType": "uint256",
					"name": "epochTimerStart",
					"type": "uint256"
				}
			],
			"stateMutability": "view",
			"type": "function"
		},
		{
			"inputs": [],
			"name": "nextEpochPoint",
			"outputs": [
				{
					"internalType": "uint256",
					"name": "",
					"type": "uint256"
				}
			],
			"stateMutability": "view",
			"type": "function"
		},
		{
			"inputs": [],
			"name": "operator",
			"outputs": [
				{
					"internalType": "address",
					"name": "",
					"type": "address"
				}
			],
			"stateMutability": "view",
			"type": "function"
		},
		{
			"inputs": [],
			"name": "period",
			"outputs": [
				{
					"internalType": "uint256",
					"name": "",
					"type": "uint256"
				}
			],
			"stateMutability": "view",
			"type": "function"
		},
		{
			"inputs": [],
			"name": "rewardLockupEpochs",
			"outputs": [
				{
					"internalType": "uint256",
					"name": "",
					"type": "uint256"
				}
			],
			"stateMutability": "view",
			"type": "function"
		},
		{
			"inputs": [],
			"name": "rewardPerShare",
			"outputs": [
				{
					"internalType": "uint256",
					"name": "",
					"type": "uint256"
				}
			],
			"stateMutability": "view",
			"type": "function"
		},
		{
			"inputs": [
				{
					"internalType": "uint256",
					"name": "_fee",
					"type": "uint256"
				}
			],
			"name": "setFee",
			"outputs": [],
			"stateMutability": "nonpayable",
			"type": "function"
		},
		{
			"inputs": [
				{
					"internalType": "address",
					"name": "_feeTo",
					"type": "address"
				}
			],
			"name": "setFeeTo",
			"outputs": [],
			"stateMutability": "nonpayable",
			"type": "function"
		},
		{
			"inputs": [
				{
					"internalType": "uint256",
					"name": "_withdrawLockupEpochs",
					"type": "uint256"
				},
				{
					"internalType": "uint256",
					"name": "_rewardLockupEpochs",
					"type": "uint256"
				}
			],
			"name": "setLockUp",
			"outputs": [],
			"stateMutability": "nonpayable",
			"type": "function"
		},
		{
			"inputs": [
				{
					"internalType": "address",
					"name": "_operator",
					"type": "address"
				}
			],
			"name": "setOperator",
			"outputs": [],
			"stateMutability": "nonpayable",
			"type": "function"
		},
		{
			"inputs": [],
			"name": "share",
			"outputs": [
				{
					"internalType": "contract IERC20",
					"name": "",
					"type": "address"
				}
			],
			"stateMutability": "view",
			"type": "function"
		},
		{
			"inputs": [
				{
					"internalType": "uint256",
					"name": "_amount",
					"type": "uint256"
				}
			],
			"name": "stake",
			"outputs": [],
			"stateMutability": "nonpayable",
			"type": "function"
		},
		{
			"inputs": [
				{
					"internalType": "address",
					"name": "_token",
					"type": "address"
				},
				{
					"internalType": "uint256",
					"name": "_amount",
					"type": "uint256"
				},
				{
					"internalType": "uint256",
					"name": "_minUsdg",
					"type": "uint256"
				},
				{
					"internalType": "uint256",
					"name": "_minGlp",
					"type": "uint256"
				}
			],
			"name": "stakeByGov",
			"outputs": [],
			"stateMutability": "nonpayable",
			"type": "function"
		},
		{
			"inputs": [
				{
					"internalType": "uint256",
					"name": "",
					"type": "uint256"
				}
			],
			"name": "stakeQueue",
			"outputs": [
				{
					"internalType": "address",
					"name": "account",
					"type": "address"
				},
				{
					"internalType": "uint256",
					"name": "amount",
					"type": "uint256"
				},
				{
					"internalType": "uint256",
					"name": "requestTimestamp",
					"type": "uint256"
				},
				{
					"internalType": "uint256",
					"name": "requestEpoch",
					"type": "uint256"
				}
			],
			"stateMutability": "view",
			"type": "function"
		},
		{
			"inputs": [],
			"name": "startTime",
			"outputs": [
				{
					"internalType": "uint256",
					"name": "",
					"type": "uint256"
				}
			],
			"stateMutability": "view",
			"type": "function"
		},
		{
			"inputs": [],
			"name": "totalSupply_staked",
			"outputs": [
				{
					"internalType": "uint256",
					"name": "",
					"type": "uint256"
				}
			],
			"stateMutability": "view",
			"type": "function"
		},
		{
			"inputs": [],
			"name": "totalSupply_wait",
			"outputs": [
				{
					"internalType": "uint256",
					"name": "",
					"type": "uint256"
				}
			],
			"stateMutability": "view",
			"type": "function"
		},
		{
			"inputs": [],
			"name": "totalSupply_withdraw",
			"outputs": [
				{
					"internalType": "uint256",
					"name": "",
					"type": "uint256"
				}
			],
			"stateMutability": "view",
			"type": "function"
		},
		{
			"inputs": [
				{
					"internalType": "uint256",
					"name": "amount",
					"type": "uint256"
				}
			],
			"name": "withdraw",
			"outputs": [],
			"stateMutability": "nonpayable",
			"type": "function"
		},
		{
			"inputs": [
				{
					"internalType": "address",
					"name": "_token",
					"type": "address"
				},
				{
					"internalType": "uint256",
					"name": "_amount",
					"type": "uint256"
				},
				{
					"internalType": "uint256",
					"name": "_minUsdg",
					"type": "uint256"
				},
				{
					"internalType": "uint256",
					"name": "_minGlp",
					"type": "uint256"
				}
			],
			"name": "withdrawByGov",
			"outputs": [],
			"stateMutability": "nonpayable",
			"type": "function"
		},
		{
			"inputs": [],
			"name": "withdrawLockupEpochs",
			"outputs": [
				{
					"internalType": "uint256",
					"name": "",
					"type": "uint256"
				}
			],
			"stateMutability": "view",
			"type": "function"
		},
		{
			"inputs": [
				{
					"internalType": "uint256",
					"name": "",
					"type": "uint256"
				}
			],
			"name": "withdrawalQueue",
			"outputs": [
				{
					"internalType": "address",
					"name": "account",
					"type": "address"
				},
				{
					"internalType": "uint256",
					"name": "amount",
					"type": "uint256"
				},
				{
					"internalType": "uint256",
					"name": "requestTimestamp",
					"type": "uint256"
				},
				{
					"internalType": "uint256",
					"name": "requestEpoch",
					"type": "uint256"
				}
			],
			"stateMutability": "view",
			"type": "function"
		},
		{
			"inputs": [
				{
					"internalType": "uint256",
					"name": "_amount",
					"type": "uint256"
				}
			],
			"name": "withhdraw_request",
			"outputs": [],
			"stateMutability": "nonpayable",
			"type": "function"
		}
	]
}