{
	"data": {
		"bytecode": {
			"linkReferences": {},
			"object": "608060405234801561001057600080fd5b50610741806100206000396000f3fe608060405234801561001057600080fd5b50600436106100935760003560e01c8063649e4a5211610066578063649e4a52146100f857806393ba4f6614610100578063a694fc3a14610129578063a8d5fd651461013c578063eabba1451461016757600080fd5b80631e7e936d146100985780632e1a7d4d146100af57806340d1fb87146100c457806362d45f8f146100cc575b600080fd5b6004545b6040519081526020015b60405180910390f35b6100c26100bd3660046105e7565b610194565b005b60025461009c565b61009c6100da366004610600565b6001600160a01b031660009081526001602052604090206002015490565b60035461009c565b61009c61010e366004610600565b6001600160a01b031660009081526001602052604090205490565b6100c26101373660046105e7565b610267565b60005461014f906001600160a01b031681565b6040516001600160a01b0390911681526020016100a6565b61009c610175366004610600565b6001600160a01b03166000908152600160208190526040909120015490565b336000908152600160205260409020600201548181101561021b5760405162461bcd60e51b815260206004820152603660248201527f426f617264726f6f6d3a207769746864726177207265717565737420677265616044820152751d195c881d1a185b881cdd185ad95908185b5bdd5b9d60521b60648201526084015b60405180910390fd5b60045461022890836102c0565b60045561023581836102c0565b336000818152600160205260408120600201929092559054610263916001600160a01b0390911690846102d3565b5050565b600254610274908261033b565b60025533600090815260016020526040902054610291908261033b565b3360008181526001602052604081209290925590546102bd916001600160a01b03909116903084610347565b50565b60006102cc828461063f565b9392505050565b6040516001600160a01b03831660248201526044810182905261033690849063a9059cbb60e01b906064015b60408051601f198184030181529190526020810180516001600160e01b03166001600160e01b031990931692909217909152610385565b505050565b60006102cc8284610656565b6040516001600160a01b038085166024830152831660448201526064810182905261037f9085906323b872dd60e01b906084016102ff565b50505050565b60006103da826040518060400160405280602081526020017f5361666545524332303a206c6f772d6c6576656c2063616c6c206661696c6564815250856001600160a01b03166104579092919063ffffffff16565b80519091501561033657808060200190518101906103f8919061066e565b6103365760405162461bcd60e51b815260206004820152602a60248201527f5361666545524332303a204552433230206f7065726174696f6e20646964206e6044820152691bdd081cdd58d8d9595960b21b6064820152608401610212565b6060610466848460008561046e565b949350505050565b6060824710156104cf5760405162461bcd60e51b815260206004820152602660248201527f416464726573733a20696e73756666696369656e742062616c616e636520666f6044820152651c8818d85b1b60d21b6064820152608401610212565b600080866001600160a01b031685876040516104eb91906106bc565b60006040518083038185875af1925050503d8060008114610528576040519150601f19603f3d011682016040523d82523d6000602084013e61052d565b606091505b509150915061053e87838387610549565b979650505050505050565b606083156105b85782516000036105b1576001600160a01b0385163b6105b15760405162461bcd60e51b815260206004820152601d60248201527f416464726573733a2063616c6c20746f206e6f6e2d636f6e74726163740000006044820152606401610212565b5081610466565b61046683838151156105cd5781518083602001fd5b8060405162461bcd60e51b815260040161021291906106d8565b6000602082840312156105f957600080fd5b5035919050565b60006020828403121561061257600080fd5b81356001600160a01b03811681146102cc57600080fd5b634e487b7160e01b600052601160045260246000fd5b60008282101561065157610651610629565b500390565b6000821982111561066957610669610629565b500190565b60006020828403121561068057600080fd5b815180151581146102cc57600080fd5b60005b838110156106ab578181015183820152602001610693565b8381111561037f5750506000910152565b600082516106ce818460208701610690565b9190910192915050565b60208152600082518060208401526106f7816040850160208701610690565b601f01601f1916919091016040019291505056fea264697066735822122059653fa6aaefbaf504e99bf533607421c7c9b7d7093c0bc8e118c30ac7ba6d6564736f6c634300080d0033",
			"opcodes": "PUSH1 0x80 PUSH1 0x40 MSTORE CALLVALUE DUP1 ISZERO PUSH2 0x10 JUMPI PUSH1 0x0 DUP1 REVERT JUMPDEST POP PUSH2 0x741 DUP1 PUSH2 0x20 PUSH1 0x0 CODECOPY PUSH1 0x0 RETURN INVALID PUSH1 0x80 PUSH1 0x40 MSTORE CALLVALUE DUP1 ISZERO PUSH2 0x10 JUMPI PUSH1 0x0 DUP1 REVERT JUMPDEST POP PUSH1 0x4 CALLDATASIZE LT PUSH2 0x93 JUMPI PUSH1 0x0 CALLDATALOAD PUSH1 0xE0 SHR DUP1 PUSH4 0x649E4A52 GT PUSH2 0x66 JUMPI DUP1 PUSH4 0x649E4A52 EQ PUSH2 0xF8 JUMPI DUP1 PUSH4 0x93BA4F66 EQ PUSH2 0x100 JUMPI DUP1 PUSH4 0xA694FC3A EQ PUSH2 0x129 JUMPI DUP1 PUSH4 0xA8D5FD65 EQ PUSH2 0x13C JUMPI DUP1 PUSH4 0xEABBA145 EQ PUSH2 0x167 JUMPI PUSH1 0x0 DUP1 REVERT JUMPDEST DUP1 PUSH4 0x1E7E936D EQ PUSH2 0x98 JUMPI DUP1 PUSH4 0x2E1A7D4D EQ PUSH2 0xAF JUMPI DUP1 PUSH4 0x40D1FB87 EQ PUSH2 0xC4 JUMPI DUP1 PUSH4 0x62D45F8F EQ PUSH2 0xCC JUMPI JUMPDEST PUSH1 0x0 DUP1 REVERT JUMPDEST PUSH1 0x4 SLOAD JUMPDEST PUSH1 0x40 MLOAD SWAP1 DUP2 MSTORE PUSH1 0x20 ADD JUMPDEST PUSH1 0x40 MLOAD DUP1 SWAP2 SUB SWAP1 RETURN JUMPDEST PUSH2 0xC2 PUSH2 0xBD CALLDATASIZE PUSH1 0x4 PUSH2 0x5E7 JUMP JUMPDEST PUSH2 0x194 JUMP JUMPDEST STOP JUMPDEST PUSH1 0x2 SLOAD PUSH2 0x9C JUMP JUMPDEST PUSH2 0x9C PUSH2 0xDA CALLDATASIZE PUSH1 0x4 PUSH2 0x600 JUMP JUMPDEST PUSH1 0x1 PUSH1 0x1 PUSH1 0xA0 SHL SUB AND PUSH1 0x0 SWAP1 DUP2 MSTORE PUSH1 0x1 PUSH1 0x20 MSTORE PUSH1 0x40 SWAP1 KECCAK256 PUSH1 0x2 ADD SLOAD SWAP1 JUMP JUMPDEST PUSH1 0x3 SLOAD PUSH2 0x9C JUMP JUMPDEST PUSH2 0x9C PUSH2 0x10E CALLDATASIZE PUSH1 0x4 PUSH2 0x600 JUMP JUMPDEST PUSH1 0x1 PUSH1 0x1 PUSH1 0xA0 SHL SUB AND PUSH1 0x0 SWAP1 DUP2 MSTORE PUSH1 0x1 PUSH1 0x20 MSTORE PUSH1 0x40 SWAP1 KECCAK256 SLOAD SWAP1 JUMP JUMPDEST PUSH2 0xC2 PUSH2 0x137 CALLDATASIZE PUSH1 0x4 PUSH2 0x5E7 JUMP JUMPDEST PUSH2 0x267 JUMP JUMPDEST PUSH1 0x0 SLOAD PUSH2 0x14F SWAP1 PUSH1 0x1 PUSH1 0x1 PUSH1 0xA0 SHL SUB AND DUP2 JUMP JUMPDEST PUSH1 0x40 MLOAD PUSH1 0x1 PUSH1 0x1 PUSH1 0xA0 SHL SUB SWAP1 SWAP2 AND DUP2 MSTORE PUSH1 0x20 ADD PUSH2 0xA6 JUMP JUMPDEST PUSH2 0x9C PUSH2 0x175 CALLDATASIZE PUSH1 0x4 PUSH2 0x600 JUMP JUMPDEST PUSH1 0x1 PUSH1 0x1 PUSH1 0xA0 SHL SUB AND PUSH1 0x0 SWAP1 DUP2 MSTORE PUSH1 0x1 PUSH1 0x20 DUP2 SWAP1 MSTORE PUSH1 0x40 SWAP1 SWAP2 KECCAK256 ADD SLOAD SWAP1 JUMP JUMPDEST CALLER PUSH1 0x0 SWAP1 DUP2 MSTORE PUSH1 0x1 PUSH1 0x20 MSTORE PUSH1 0x40 SWAP1 KECCAK256 PUSH1 0x2 ADD SLOAD DUP2 DUP2 LT ISZERO PUSH2 0x21B JUMPI PUSH1 0x40 MLOAD PUSH3 0x461BCD PUSH1 0xE5 SHL DUP2 MSTORE PUSH1 0x20 PUSH1 0x4 DUP3 ADD MSTORE PUSH1 0x36 PUSH1 0x24 DUP3 ADD MSTORE PUSH32 0x426F617264726F6F6D3A20776974686472617720726571756573742067726561 PUSH1 0x44 DUP3 ADD MSTORE PUSH22 0x1D195C881D1A185B881CDD185AD95908185B5BDD5B9D PUSH1 0x52 SHL PUSH1 0x64 DUP3 ADD MSTORE PUSH1 0x84 ADD JUMPDEST PUSH1 0x40 MLOAD DUP1 SWAP2 SUB SWAP1 REVERT JUMPDEST PUSH1 0x4 SLOAD PUSH2 0x228 SWAP1 DUP4 PUSH2 0x2C0 JUMP JUMPDEST PUSH1 0x4 SSTORE PUSH2 0x235 DUP2 DUP4 PUSH2 0x2C0 JUMP JUMPDEST CALLER PUSH1 0x0 DUP2 DUP2 MSTORE PUSH1 0x1 PUSH1 0x20 MSTORE PUSH1 0x40 DUP2 KECCAK256 PUSH1 0x2 ADD SWAP3 SWAP1 SWAP3 SSTORE SWAP1 SLOAD PUSH2 0x263 SWAP2 PUSH1 0x1 PUSH1 0x1 PUSH1 0xA0 SHL SUB SWAP1 SWAP2 AND SWAP1 DUP5 PUSH2 0x2D3 JUMP JUMPDEST POP POP JUMP JUMPDEST PUSH1 0x2 SLOAD PUSH2 0x274 SWAP1 DUP3 PUSH2 0x33B JUMP JUMPDEST PUSH1 0x2 SSTORE CALLER PUSH1 0x0 SWAP1 DUP2 MSTORE PUSH1 0x1 PUSH1 0x20 MSTORE PUSH1 0x40 SWAP1 KECCAK256 SLOAD PUSH2 0x291 SWAP1 DUP3 PUSH2 0x33B JUMP JUMPDEST CALLER PUSH1 0x0 DUP2 DUP2 MSTORE PUSH1 0x1 PUSH1 0x20 MSTORE PUSH1 0x40 DUP2 KECCAK256 SWAP3 SWAP1 SWAP3 SSTORE SWAP1 SLOAD PUSH2 0x2BD SWAP2 PUSH1 0x1 PUSH1 0x1 PUSH1 0xA0 SHL SUB SWAP1 SWAP2 AND SWAP1 ADDRESS DUP5 PUSH2 0x347 JUMP JUMPDEST POP JUMP JUMPDEST PUSH1 0x0 PUSH2 0x2CC DUP3 DUP5 PUSH2 0x63F JUMP JUMPDEST SWAP4 SWAP3 POP POP POP JUMP JUMPDEST PUSH1 0x40 MLOAD PUSH1 0x1 PUSH1 0x1 PUSH1 0xA0 SHL SUB DUP4 AND PUSH1 0x24 DUP3 ADD MSTORE PUSH1 0x44 DUP2 ADD DUP3 SWAP1 MSTORE PUSH2 0x336 SWAP1 DUP5 SWAP1 PUSH4 0xA9059CBB PUSH1 0xE0 SHL SWAP1 PUSH1 0x64 ADD JUMPDEST PUSH1 0x40 DUP1 MLOAD PUSH1 0x1F NOT DUP2 DUP5 SUB ADD DUP2 MSTORE SWAP2 SWAP1 MSTORE PUSH1 0x20 DUP2 ADD DUP1 MLOAD PUSH1 0x1 PUSH1 0x1 PUSH1 0xE0 SHL SUB AND PUSH1 0x1 PUSH1 0x1 PUSH1 0xE0 SHL SUB NOT SWAP1 SWAP4 AND SWAP3 SWAP1 SWAP3 OR SWAP1 SWAP2 MSTORE PUSH2 0x385 JUMP JUMPDEST POP POP POP JUMP JUMPDEST PUSH1 0x0 PUSH2 0x2CC DUP3 DUP5 PUSH2 0x656 JUMP JUMPDEST PUSH1 0x40 MLOAD PUSH1 0x1 PUSH1 0x1 PUSH1 0xA0 SHL SUB DUP1 DUP6 AND PUSH1 0x24 DUP4 ADD MSTORE DUP4 AND PUSH1 0x44 DUP3 ADD MSTORE PUSH1 0x64 DUP2 ADD DUP3 SWAP1 MSTORE PUSH2 0x37F SWAP1 DUP6 SWAP1 PUSH4 0x23B872DD PUSH1 0xE0 SHL SWAP1 PUSH1 0x84 ADD PUSH2 0x2FF JUMP JUMPDEST POP POP POP POP JUMP JUMPDEST PUSH1 0x0 PUSH2 0x3DA DUP3 PUSH1 0x40 MLOAD DUP1 PUSH1 0x40 ADD PUSH1 0x40 MSTORE DUP1 PUSH1 0x20 DUP2 MSTORE PUSH1 0x20 ADD PUSH32 0x5361666545524332303A206C6F772D6C6576656C2063616C6C206661696C6564 DUP2 MSTORE POP DUP6 PUSH1 0x1 PUSH1 0x1 PUSH1 0xA0 SHL SUB AND PUSH2 0x457 SWAP1 SWAP3 SWAP2 SWAP1 PUSH4 0xFFFFFFFF AND JUMP JUMPDEST DUP1 MLOAD SWAP1 SWAP2 POP ISZERO PUSH2 0x336 JUMPI DUP1 DUP1 PUSH1 0x20 ADD SWAP1 MLOAD DUP2 ADD SWAP1 PUSH2 0x3F8 SWAP2 SWAP1 PUSH2 0x66E JUMP JUMPDEST PUSH2 0x336 JUMPI PUSH1 0x40 MLOAD PUSH3 0x461BCD PUSH1 0xE5 SHL DUP2 MSTORE PUSH1 0x20 PUSH1 0x4 DUP3 ADD MSTORE PUSH1 0x2A PUSH1 0x24 DUP3 ADD MSTORE PUSH32 0x5361666545524332303A204552433230206F7065726174696F6E20646964206E PUSH1 0x44 DUP3 ADD MSTORE PUSH10 0x1BDD081CDD58D8D95959 PUSH1 0xB2 SHL PUSH1 0x64 DUP3 ADD MSTORE PUSH1 0x84 ADD PUSH2 0x212 JUMP JUMPDEST PUSH1 0x60 PUSH2 0x466 DUP5 DUP5 PUSH1 0x0 DUP6 PUSH2 0x46E JUMP JUMPDEST SWAP5 SWAP4 POP POP POP POP JUMP JUMPDEST PUSH1 0x60 DUP3 SELFBALANCE LT ISZERO PUSH2 0x4CF JUMPI PUSH1 0x40 MLOAD PUSH3 0x461BCD PUSH1 0xE5 SHL DUP2 MSTORE PUSH1 0x20 PUSH1 0x4 DUP3 ADD MSTORE PUSH1 0x26 PUSH1 0x24 DUP3 ADD MSTORE PUSH32 0x416464726573733A20696E73756666696369656E742062616C616E636520666F PUSH1 0x44 DUP3 ADD MSTORE PUSH6 0x1C8818D85B1B PUSH1 0xD2 SHL PUSH1 0x64 DUP3 ADD MSTORE PUSH1 0x84 ADD PUSH2 0x212 JUMP JUMPDEST PUSH1 0x0 DUP1 DUP7 PUSH1 0x1 PUSH1 0x1 PUSH1 0xA0 SHL SUB AND DUP6 DUP8 PUSH1 0x40 MLOAD PUSH2 0x4EB SWAP2 SWAP1 PUSH2 0x6BC JUMP JUMPDEST PUSH1 0x0 PUSH1 0x40 MLOAD DUP1 DUP4 SUB DUP2 DUP6 DUP8 GAS CALL SWAP3 POP POP POP RETURNDATASIZE DUP1 PUSH1 0x0 DUP2 EQ PUSH2 0x528 JUMPI PUSH1 0x40 MLOAD SWAP2 POP PUSH1 0x1F NOT PUSH1 0x3F RETURNDATASIZE ADD AND DUP3 ADD PUSH1 0x40 MSTORE RETURNDATASIZE DUP3 MSTORE RETURNDATASIZE PUSH1 0x0 PUSH1 0x20 DUP5 ADD RETURNDATACOPY PUSH2 0x52D JUMP JUMPDEST PUSH1 0x60 SWAP2 POP JUMPDEST POP SWAP2 POP SWAP2 POP PUSH2 0x53E DUP8 DUP4 DUP4 DUP8 PUSH2 0x549 JUMP JUMPDEST SWAP8 SWAP7 POP POP POP POP POP POP POP JUMP JUMPDEST PUSH1 0x60 DUP4 ISZERO PUSH2 0x5B8 JUMPI DUP3 MLOAD PUSH1 0x0 SUB PUSH2 0x5B1 JUMPI PUSH1 0x1 PUSH1 0x1 PUSH1 0xA0 SHL SUB DUP6 AND EXTCODESIZE PUSH2 0x5B1 JUMPI PUSH1 0x40 MLOAD PUSH3 0x461BCD PUSH1 0xE5 SHL DUP2 MSTORE PUSH1 0x20 PUSH1 0x4 DUP3 ADD MSTORE PUSH1 0x1D PUSH1 0x24 DUP3 ADD MSTORE PUSH32 0x416464726573733A2063616C6C20746F206E6F6E2D636F6E7472616374000000 PUSH1 0x44 DUP3 ADD MSTORE PUSH1 0x64 ADD PUSH2 0x212 JUMP JUMPDEST POP DUP2 PUSH2 0x466 JUMP JUMPDEST PUSH2 0x466 DUP4 DUP4 DUP2 MLOAD ISZERO PUSH2 0x5CD JUMPI DUP2 MLOAD DUP1 DUP4 PUSH1 0x20 ADD REVERT JUMPDEST DUP1 PUSH1 0x40 MLOAD PUSH3 0x461BCD PUSH1 0xE5 SHL DUP2 MSTORE PUSH1 0x4 ADD PUSH2 0x212 SWAP2 SWAP1 PUSH2 0x6D8 JUMP JUMPDEST PUSH1 0x0 PUSH1 0x20 DUP3 DUP5 SUB SLT ISZERO PUSH2 0x5F9 JUMPI PUSH1 0x0 DUP1 REVERT JUMPDEST POP CALLDATALOAD SWAP2 SWAP1 POP JUMP JUMPDEST PUSH1 0x0 PUSH1 0x20 DUP3 DUP5 SUB SLT ISZERO PUSH2 0x612 JUMPI PUSH1 0x0 DUP1 REVERT JUMPDEST DUP2 CALLDATALOAD PUSH1 0x1 PUSH1 0x1 PUSH1 0xA0 SHL SUB DUP2 AND DUP2 EQ PUSH2 0x2CC JUMPI PUSH1 0x0 DUP1 REVERT JUMPDEST PUSH4 0x4E487B71 PUSH1 0xE0 SHL PUSH1 0x0 MSTORE PUSH1 0x11 PUSH1 0x4 MSTORE PUSH1 0x24 PUSH1 0x0 REVERT JUMPDEST PUSH1 0x0 DUP3 DUP3 LT ISZERO PUSH2 0x651 JUMPI PUSH2 0x651 PUSH2 0x629 JUMP JUMPDEST POP SUB SWAP1 JUMP JUMPDEST PUSH1 0x0 DUP3 NOT DUP3 GT ISZERO PUSH2 0x669 JUMPI PUSH2 0x669 PUSH2 0x629 JUMP JUMPDEST POP ADD SWAP1 JUMP JUMPDEST PUSH1 0x0 PUSH1 0x20 DUP3 DUP5 SUB SLT ISZERO PUSH2 0x680 JUMPI PUSH1 0x0 DUP1 REVERT JUMPDEST DUP2 MLOAD DUP1 ISZERO ISZERO DUP2 EQ PUSH2 0x2CC JUMPI PUSH1 0x0 DUP1 REVERT JUMPDEST PUSH1 0x0 JUMPDEST DUP4 DUP2 LT ISZERO PUSH2 0x6AB JUMPI DUP2 DUP2 ADD MLOAD DUP4 DUP3 ADD MSTORE PUSH1 0x20 ADD PUSH2 0x693 JUMP JUMPDEST DUP4 DUP2 GT ISZERO PUSH2 0x37F JUMPI POP POP PUSH1 0x0 SWAP2 ADD MSTORE JUMP JUMPDEST PUSH1 0x0 DUP3 MLOAD PUSH2 0x6CE DUP2 DUP5 PUSH1 0x20 DUP8 ADD PUSH2 0x690 JUMP JUMPDEST SWAP2 SWAP1 SWAP2 ADD SWAP3 SWAP2 POP POP JUMP JUMPDEST PUSH1 0x20 DUP2 MSTORE PUSH1 0x0 DUP3 MLOAD DUP1 PUSH1 0x20 DUP5 ADD MSTORE PUSH2 0x6F7 DUP2 PUSH1 0x40 DUP6 ADD PUSH1 0x20 DUP8 ADD PUSH2 0x690 JUMP JUMPDEST PUSH1 0x1F ADD PUSH1 0x1F NOT AND SWAP2 SWAP1 SWAP2 ADD PUSH1 0x40 ADD SWAP3 SWAP2 POP POP JUMP INVALID LOG2 PUSH5 0x6970667358 0x22 SLT KECCAK256 MSIZE PUSH6 0x3FA6AAEFBAF5 DIV 0xE9 SWAP12 CREATE2 CALLER PUSH1 0x74 0x21 0xC7 0xC9 0xB7 0xD7 MULMOD EXTCODECOPY SIGNEXTEND 0xC8 0xE1 XOR 0xC3 EXP 0xC7 0xBA PUSH14 0x6564736F6C634300080D00330000 "
		},
		"gasEstimates": {
			"creation": {
				"codeDepositCost": "371400",
				"executionCost": "411",
				"totalCost": "371811"
			},
			"external": {
				"balance_Wait(address)": "2513",
				"balance_staked(address)": "2591",
				"balance_withdraw(address)": "2564",
				"share()": "2403",
				"stake(uint256)": "infinite",
				"totalSupply_staked()": "2281",
				"totalSupply_wait()": "2326",
				"totalSupply_withdraw()": "2271",
				"withdraw(uint256)": "infinite"
			}
		},
		"methodIdentifiers": {
			"balance_Wait(address)": "93ba4f66",
			"balance_staked(address)": "eabba145",
			"balance_withdraw(address)": "62d45f8f",
			"share()": "a8d5fd65",
			"stake(uint256)": "a694fc3a",
			"totalSupply_staked()": "649e4a52",
			"totalSupply_wait()": "40d1fb87",
			"totalSupply_withdraw()": "1e7e936d",
			"withdraw(uint256)": "2e1a7d4d"
		}
	},
	"abi": [
		{
			"inputs": [
				{
					"internalType": "address",
					"name": "account",
					"type": "address"
				}
			],
			"name": "balance_Wait",
			"outputs": [
				{
					"internalType": "uint256",
					"name": "",
					"type": "uint256"
				}
			],
			"stateMutability": "view",
			"type": "function"
		},
		{
			"inputs": [
				{
					"internalType": "address",
					"name": "account",
					"type": "address"
				}
			],
			"name": "balance_staked",
			"outputs": [
				{
					"internalType": "uint256",
					"name": "",
					"type": "uint256"
				}
			],
			"stateMutability": "view",
			"type": "function"
		},
		{
			"inputs": [
				{
					"internalType": "address",
					"name": "account",
					"type": "address"
				}
			],
			"name": "balance_withdraw",
			"outputs": [
				{
					"internalType": "uint256",
					"name": "",
					"type": "uint256"
				}
			],
			"stateMutability": "view",
			"type": "function"
		},
		{
			"inputs": [],
			"name": "share",
			"outputs": [
				{
					"internalType": "contract IERC20",
					"name": "",
					"type": "address"
				}
			],
			"stateMutability": "view",
			"type": "function"
		},
		{
			"inputs": [
				{
					"internalType": "uint256",
					"name": "amount",
					"type": "uint256"
				}
			],
			"name": "stake",
			"outputs": [],
			"stateMutability": "nonpayable",
			"type": "function"
		},
		{
			"inputs": [],
			"name": "totalSupply_staked",
			"outputs": [
				{
					"internalType": "uint256",
					"name": "",
					"type": "uint256"
				}
			],
			"stateMutability": "view",
			"type": "function"
		},
		{
			"inputs": [],
			"name": "totalSupply_wait",
			"outputs": [
				{
					"internalType": "uint256",
					"name": "",
					"type": "uint256"
				}
			],
			"stateMutability": "view",
			"type": "function"
		},
		{
			"inputs": [],
			"name": "totalSupply_withdraw",
			"outputs": [
				{
					"internalType": "uint256",
					"name": "",
					"type": "uint256"
				}
			],
			"stateMutability": "view",
			"type": "function"
		},
		{
			"inputs": [
				{
					"internalType": "uint256",
					"name": "amount",
					"type": "uint256"
				}
			],
			"name": "withdraw",
			"outputs": [],
			"stateMutability": "nonpayable",
			"type": "function"
		}
	]
}